{
	"contracts/Payment.sol": {
		"Payment": {
			"abi": [
				{
					"inputs": [
						{
							"internalType": "address payable",
							"name": "_wallet",
							"type": "address"
						}
					],
					"stateMutability": "nonpayable",
					"type": "constructor"
				},
				{
					"anonymous": false,
					"inputs": [
						{
							"indexed": true,
							"internalType": "address",
							"name": "tokenAddress",
							"type": "address"
						},
						{
							"indexed": true,
							"internalType": "uint256",
							"name": "tokenIndex",
							"type": "uint256"
						}
					],
					"name": "NewTokenAdded",
					"type": "event"
				},
				{
					"anonymous": false,
					"inputs": [
						{
							"indexed": true,
							"internalType": "address",
							"name": "walletAddress",
							"type": "address"
						}
					],
					"name": "NewWalletSet",
					"type": "event"
				},
				{
					"anonymous": false,
					"inputs": [
						{
							"indexed": true,
							"internalType": "address",
							"name": "previousOwner",
							"type": "address"
						},
						{
							"indexed": true,
							"internalType": "address",
							"name": "newOwner",
							"type": "address"
						}
					],
					"name": "OwnershipTransferred",
					"type": "event"
				},
				{
					"anonymous": false,
					"inputs": [
						{
							"indexed": true,
							"internalType": "string",
							"name": "orderID",
							"type": "string"
						},
						{
							"indexed": true,
							"internalType": "string",
							"name": "paymentID",
							"type": "string"
						},
						{
							"indexed": true,
							"internalType": "address",
							"name": "buyer",
							"type": "address"
						}
					],
					"name": "TransactionMade",
					"type": "event"
				},
				{
					"inputs": [
						{
							"internalType": "address",
							"name": "newTokenAddress",
							"type": "address"
						}
					],
					"name": "addPaymentToken",
					"outputs": [],
					"stateMutability": "nonpayable",
					"type": "function"
				},
				{
					"inputs": [
						{
							"internalType": "address",
							"name": "tokenAddress",
							"type": "address"
						}
					],
					"name": "getTokenIndex",
					"outputs": [
						{
							"internalType": "uint256",
							"name": "",
							"type": "uint256"
						}
					],
					"stateMutability": "view",
					"type": "function"
				},
				{
					"inputs": [
						{
							"internalType": "address",
							"name": "buyer",
							"type": "address"
						},
						{
							"internalType": "string",
							"name": "orderId",
							"type": "string"
						}
					],
					"name": "getTransactionDetails",
					"outputs": [
						{
							"components": [
								{
									"internalType": "string",
									"name": "orderID",
									"type": "string"
								},
								{
									"internalType": "string",
									"name": "paymentID",
									"type": "string"
								},
								{
									"internalType": "address",
									"name": "tokenAddress",
									"type": "address"
								},
								{
									"internalType": "uint256",
									"name": "tokenIndex",
									"type": "uint256"
								},
								{
									"internalType": "uint256",
									"name": "totalPrice",
									"type": "uint256"
								},
								{
									"internalType": "uint256",
									"name": "totalQty",
									"type": "uint256"
								},
								{
									"internalType": "address",
									"name": "buyer",
									"type": "address"
								}
							],
							"internalType": "struct Payment.OrderDetail",
							"name": "",
							"type": "tuple"
						}
					],
					"stateMutability": "view",
					"type": "function"
				},
				{
					"inputs": [
						{
							"internalType": "string",
							"name": "orderId",
							"type": "string"
						},
						{
							"internalType": "uint256",
							"name": "tokenIndex",
							"type": "uint256"
						},
						{
							"internalType": "uint256",
							"name": "totalPrice",
							"type": "uint256"
						},
						{
							"internalType": "uint256",
							"name": "totalQty",
							"type": "uint256"
						}
					],
					"name": "makePayment",
					"outputs": [],
					"stateMutability": "nonpayable",
					"type": "function"
				},
				{
					"inputs": [],
					"name": "owner",
					"outputs": [
						{
							"internalType": "address",
							"name": "",
							"type": "address"
						}
					],
					"stateMutability": "view",
					"type": "function"
				},
				{
					"inputs": [
						{
							"internalType": "address",
							"name": "",
							"type": "address"
						}
					],
					"name": "paymentTokensIndex",
					"outputs": [
						{
							"internalType": "uint256",
							"name": "",
							"type": "uint256"
						}
					],
					"stateMutability": "view",
					"type": "function"
				},
				{
					"inputs": [],
					"name": "renounceOwnership",
					"outputs": [],
					"stateMutability": "nonpayable",
					"type": "function"
				},
				{
					"inputs": [
						{
							"internalType": "address payable",
							"name": "newWallet",
							"type": "address"
						}
					],
					"name": "setWallet",
					"outputs": [],
					"stateMutability": "nonpayable",
					"type": "function"
				},
				{
					"inputs": [
						{
							"internalType": "uint256",
							"name": "",
							"type": "uint256"
						}
					],
					"name": "supportedTokens",
					"outputs": [
						{
							"internalType": "address",
							"name": "",
							"type": "address"
						}
					],
					"stateMutability": "view",
					"type": "function"
				},
				{
					"inputs": [
						{
							"internalType": "address",
							"name": "newOwner",
							"type": "address"
						}
					],
					"name": "transferOwnership",
					"outputs": [],
					"stateMutability": "nonpayable",
					"type": "function"
				},
				{
					"inputs": [],
					"name": "wallet",
					"outputs": [
						{
							"internalType": "address payable",
							"name": "",
							"type": "address"
						}
					],
					"stateMutability": "view",
					"type": "function"
				}
			],
			"devdoc": {
				"kind": "dev",
				"methods": {
					"owner()": {
						"details": "Returns the address of the current owner."
					},
					"renounceOwnership()": {
						"details": "Leaves the contract without owner. It will not be possible to call `onlyOwner` functions anymore. Can only be called by the current owner. NOTE: Renouncing ownership will leave the contract without an owner, thereby removing any functionality that is only available to the owner."
					},
					"transferOwnership(address)": {
						"details": "Transfers ownership of the contract to a new account (`newOwner`). Can only be called by the current owner."
					}
				},
				"version": 1
			},
			"evm": {
				"assembly": "    /* \"contracts/Payment.sol\":307:3585  contract Payment is Context, Ownable, ReentrancyGuard{\r... */\n  mstore(0x40, 0x80)\n    /* \"contracts/Payment.sol\":544:545  1 */\n  0x01\n    /* \"contracts/Payment.sol\":523:545  uint256 tokenCount = 1 */\n  0x03\n  sstore\n    /* \"contracts/Payment.sol\":1239:1311  constructor(address payable _wallet) {\r... */\n  callvalue\n  dup1\n  iszero\n  tag_1\n  jumpi\n  0x00\n  dup1\n  revert\ntag_1:\n  pop\n  mload(0x40)\n  sub(codesize, bytecodeSize)\n  dup1\n  bytecodeSize\n  dup4\n  codecopy\n  dup2\n  dup2\n  add\n  0x40\n  mstore\n  dup2\n  add\n  swap1\n  tag_2\n  swap2\n  swap1\n  tag_3\n  jump\t// in\ntag_2:\n    /* \"contracts/helpers/Ownable.sol\":942:974  _transferOwnership(_msgSender()) */\n  tag_8\n    /* \"contracts/helpers/Ownable.sol\":961:973  _msgSender() */\n  tag_9\n    /* \"contracts/helpers/Ownable.sol\":961:971  _msgSender */\n  shl(0x20, tag_10)\n    /* \"contracts/helpers/Ownable.sol\":961:973  _msgSender() */\n  0x20\n  shr\n  jump\t// in\ntag_9:\n    /* \"contracts/helpers/Ownable.sol\":942:960  _transferOwnership */\n  shl(0x20, tag_11)\n    /* \"contracts/helpers/Ownable.sol\":942:974  _transferOwnership(_msgSender()) */\n  0x20\n  shr\n  jump\t// in\ntag_8:\n    /* \"contracts/helpers/ReentrancyGuard.sol\":1734:1735  1 */\n  0x01\n    /* \"contracts/helpers/ReentrancyGuard.sol\":1845:1852  _status */\n  dup1\n    /* \"contracts/helpers/ReentrancyGuard.sol\":1845:1867  _status = _NOT_ENTERED */\n  dup2\n  swap1\n  sstore\n  pop\n    /* \"contracts/Payment.sol\":1296:1303  _wallet */\n  dup1\n    /* \"contracts/Payment.sol\":1287:1293  wallet */\n  0x05\n  0x00\n    /* \"contracts/Payment.sol\":1287:1303  wallet = _wallet */\n  0x0100\n  exp\n  dup2\n  sload\n  dup2\n  0xffffffffffffffffffffffffffffffffffffffff\n  mul\n  not\n  and\n  swap1\n  dup4\n  0xffffffffffffffffffffffffffffffffffffffff\n  and\n  mul\n  or\n  swap1\n  sstore\n  pop\n    /* \"contracts/Payment.sol\":1239:1311  constructor(address payable _wallet) {\r... */\n  pop\n    /* \"contracts/Payment.sol\":307:3585  contract Payment is Context, Ownable, ReentrancyGuard{\r... */\n  jump(tag_14)\n    /* \"contracts/helpers/Context.sol\":656:754  function _msgSender() internal view virtual returns (address) {\r... */\ntag_10:\n    /* \"contracts/helpers/Context.sol\":709:716  address */\n  0x00\n    /* \"contracts/helpers/Context.sol\":736:746  msg.sender */\n  caller\n    /* \"contracts/helpers/Context.sol\":729:746  return msg.sender */\n  swap1\n  pop\n    /* \"contracts/helpers/Context.sol\":656:754  function _msgSender() internal view virtual returns (address) {\r... */\n  swap1\n  jump\t// out\n    /* \"contracts/helpers/Ownable.sol\":2333:2524  function _transferOwnership(address newOwner) internal virtual {\r... */\ntag_11:\n    /* \"contracts/helpers/Ownable.sol\":2407:2423  address oldOwner */\n  0x00\n    /* \"contracts/helpers/Ownable.sol\":2426:2432  _owner */\n  dup1\n  0x00\n  swap1\n  sload\n  swap1\n  0x0100\n  exp\n  swap1\n  div\n  0xffffffffffffffffffffffffffffffffffffffff\n  and\n    /* \"contracts/helpers/Ownable.sol\":2407:2432  address oldOwner = _owner */\n  swap1\n  pop\n    /* \"contracts/helpers/Ownable.sol\":2452:2460  newOwner */\n  dup2\n    /* \"contracts/helpers/Ownable.sol\":2443:2449  _owner */\n  0x00\n  dup1\n    /* \"contracts/helpers/Ownable.sol\":2443:2460  _owner = newOwner */\n  0x0100\n  exp\n  dup2\n  sload\n  dup2\n  0xffffffffffffffffffffffffffffffffffffffff\n  mul\n  not\n  and\n  swap1\n  dup4\n  0xffffffffffffffffffffffffffffffffffffffff\n  and\n  mul\n  or\n  swap1\n  sstore\n  pop\n    /* \"contracts/helpers/Ownable.sol\":2507:2515  newOwner */\n  dup2\n    /* \"contracts/helpers/Ownable.sol\":2476:2516  OwnershipTransferred(oldOwner, newOwner) */\n  0xffffffffffffffffffffffffffffffffffffffff\n  and\n    /* \"contracts/helpers/Ownable.sol\":2497:2505  oldOwner */\n  dup2\n    /* \"contracts/helpers/Ownable.sol\":2476:2516  OwnershipTransferred(oldOwner, newOwner) */\n  0xffffffffffffffffffffffffffffffffffffffff\n  and\n  0x8be0079c531659141344cd1fd0a4f28419497f9722a3daafe3b4186f6b6457e0\n  mload(0x40)\n  mload(0x40)\n  dup1\n  swap2\n  sub\n  swap1\n  log3\n    /* \"contracts/helpers/Ownable.sol\":2396:2524  {\r... */\n  pop\n    /* \"contracts/helpers/Ownable.sol\":2333:2524  function _transferOwnership(address newOwner) internal virtual {\r... */\n  pop\n  jump\t// out\n    /* \"#utility.yul\":7:166   */\ntag_18:\n    /* \"#utility.yul\":72:77   */\n  0x00\n    /* \"#utility.yul\":103:109   */\n  dup2\n    /* \"#utility.yul\":97:110   */\n  mload\n    /* \"#utility.yul\":88:110   */\n  swap1\n  pop\n    /* \"#utility.yul\":119:160   */\n  tag_20\n    /* \"#utility.yul\":154:159   */\n  dup2\n    /* \"#utility.yul\":119:160   */\n  tag_21\n  jump\t// in\ntag_20:\n    /* \"#utility.yul\":7:166   */\n  swap3\n  swap2\n  pop\n  pop\n  jump\t// out\n    /* \"#utility.yul\":172:539   */\ntag_3:\n    /* \"#utility.yul\":250:256   */\n  0x00\n    /* \"#utility.yul\":299:301   */\n  0x20\n    /* \"#utility.yul\":287:296   */\n  dup3\n    /* \"#utility.yul\":278:285   */\n  dup5\n    /* \"#utility.yul\":274:297   */\n  sub\n    /* \"#utility.yul\":270:302   */\n  slt\n    /* \"#utility.yul\":267:386   */\n  iszero\n  tag_23\n  jumpi\n    /* \"#utility.yul\":305:384   */\n  tag_24\n  tag_25\n  jump\t// in\ntag_24:\n    /* \"#utility.yul\":267:386   */\ntag_23:\n    /* \"#utility.yul\":425:426   */\n  0x00\n    /* \"#utility.yul\":450:522   */\n  tag_26\n    /* \"#utility.yul\":514:521   */\n  dup5\n    /* \"#utility.yul\":505:511   */\n  dup3\n    /* \"#utility.yul\":494:503   */\n  dup6\n    /* \"#utility.yul\":490:512   */\n  add\n    /* \"#utility.yul\":450:522   */\n  tag_18\n  jump\t// in\ntag_26:\n    /* \"#utility.yul\":440:522   */\n  swap2\n  pop\n    /* \"#utility.yul\":396:532   */\n  pop\n    /* \"#utility.yul\":172:539   */\n  swap3\n  swap2\n  pop\n  pop\n  jump\t// out\n    /* \"#utility.yul\":626:730   */\ntag_29:\n    /* \"#utility.yul\":671:678   */\n  0x00\n    /* \"#utility.yul\":700:724   */\n  tag_31\n    /* \"#utility.yul\":718:723   */\n  dup3\n    /* \"#utility.yul\":700:724   */\n  tag_32\n  jump\t// in\ntag_31:\n    /* \"#utility.yul\":689:724   */\n  swap1\n  pop\n    /* \"#utility.yul\":626:730   */\n  swap2\n  swap1\n  pop\n  jump\t// out\n    /* \"#utility.yul\":736:862   */\ntag_32:\n    /* \"#utility.yul\":773:780   */\n  0x00\n    /* \"#utility.yul\":813:855   */\n  0xffffffffffffffffffffffffffffffffffffffff\n    /* \"#utility.yul\":806:811   */\n  dup3\n    /* \"#utility.yul\":802:856   */\n  and\n    /* \"#utility.yul\":791:856   */\n  swap1\n  pop\n    /* \"#utility.yul\":736:862   */\n  swap2\n  swap1\n  pop\n  jump\t// out\n    /* \"#utility.yul\":991:1108   */\ntag_25:\n    /* \"#utility.yul\":1100:1101   */\n  0x00\n    /* \"#utility.yul\":1097:1098   */\n  dup1\n    /* \"#utility.yul\":1090:1102   */\n  revert\n    /* \"#utility.yul\":1114:1252   */\ntag_21:\n    /* \"#utility.yul\":1195:1227   */\n  tag_38\n    /* \"#utility.yul\":1221:1226   */\n  dup2\n    /* \"#utility.yul\":1195:1227   */\n  tag_29\n  jump\t// in\ntag_38:\n    /* \"#utility.yul\":1188:1193   */\n  dup2\n    /* \"#utility.yul\":1185:1228   */\n  eq\n    /* \"#utility.yul\":1175:1246   */\n  tag_39\n  jumpi\n    /* \"#utility.yul\":1242:1243   */\n  0x00\n    /* \"#utility.yul\":1239:1240   */\n  dup1\n    /* \"#utility.yul\":1232:1244   */\n  revert\n    /* \"#utility.yul\":1175:1246   */\ntag_39:\n    /* \"#utility.yul\":1114:1252   */\n  pop\n  jump\t// out\n    /* \"contracts/Payment.sol\":307:3585  contract Payment is Context, Ownable, ReentrancyGuard{\r... */\ntag_14:\n  dataSize(sub_0)\n  dup1\n  dataOffset(sub_0)\n  0x00\n  codecopy\n  0x00\n  return\nstop\n\nsub_0: assembly {\n        /* \"contracts/Payment.sol\":307:3585  contract Payment is Context, Ownable, ReentrancyGuard{\r... */\n      mstore(0x40, 0x80)\n      callvalue\n      dup1\n      iszero\n      tag_1\n      jumpi\n      0x00\n      dup1\n      revert\n    tag_1:\n      pop\n      jumpi(tag_2, lt(calldatasize, 0x04))\n      shr(0xe0, calldataload(0x00))\n      dup1\n      0x715018a6\n      gt\n      tag_14\n      jumpi\n      dup1\n      0x715018a6\n      eq\n      tag_8\n      jumpi\n      dup1\n      0x8da5cb5b\n      eq\n      tag_9\n      jumpi\n      dup1\n      0xc6255626\n      eq\n      tag_10\n      jumpi\n      dup1\n      0xdeaa59df\n      eq\n      tag_11\n      jumpi\n      dup1\n      0xeb0c52aa\n      eq\n      tag_12\n      jumpi\n      dup1\n      0xf2fde38b\n      eq\n      tag_13\n      jumpi\n      jump(tag_2)\n    tag_14:\n      dup1\n      0x169e90bc\n      eq\n      tag_3\n      jumpi\n      dup1\n      0x4a7dc8e0\n      eq\n      tag_4\n      jumpi\n      dup1\n      0x521eb273\n      eq\n      tag_5\n      jumpi\n      dup1\n      0x541dc014\n      eq\n      tag_6\n      jumpi\n      dup1\n      0x66c0bd24\n      eq\n      tag_7\n      jumpi\n    tag_2:\n      0x00\n      dup1\n      revert\n        /* \"contracts/Payment.sol\":3416:3578  function getTransactionDetails(address buyer, string memory orderId) public view returns(OrderDetail memory){\r... */\n    tag_3:\n      tag_15\n      0x04\n      dup1\n      calldatasize\n      sub\n      dup2\n      add\n      swap1\n      tag_16\n      swap2\n      swap1\n      tag_17\n      jump\t// in\n    tag_16:\n      tag_18\n      jump\t// in\n    tag_15:\n      mload(0x40)\n      tag_19\n      swap2\n      swap1\n      tag_20\n      jump\t// in\n    tag_19:\n      mload(0x40)\n      dup1\n      swap2\n      sub\n      swap1\n      return\n        /* \"contracts/Payment.sol\":2736:3133  function addPaymentToken(address newTokenAddress) public onlyOwner{\r... */\n    tag_4:\n      tag_21\n      0x04\n      dup1\n      calldatasize\n      sub\n      dup2\n      add\n      swap1\n      tag_22\n      swap2\n      swap1\n      tag_23\n      jump\t// in\n    tag_22:\n      tag_24\n      jump\t// in\n    tag_21:\n      stop\n        /* \"contracts/Payment.sol\":614:643  address payable public wallet */\n    tag_5:\n      tag_25\n      tag_26\n      jump\t// in\n    tag_25:\n      mload(0x40)\n      tag_27\n      swap2\n      swap1\n      tag_28\n      jump\t// in\n    tag_27:\n      mload(0x40)\n      dup1\n      swap2\n      sub\n      swap1\n      return\n        /* \"contracts/Payment.sol\":1321:2555  function makePayment(\r... */\n    tag_6:\n      tag_29\n      0x04\n      dup1\n      calldatasize\n      sub\n      dup2\n      add\n      swap1\n      tag_30\n      swap2\n      swap1\n      tag_31\n      jump\t// in\n    tag_30:\n      tag_32\n      jump\t// in\n    tag_29:\n      stop\n        /* \"contracts/Payment.sol\":3172:3408  function getTokenIndex(address tokenAddress) public view returns(uint256){\r... */\n    tag_7:\n      tag_33\n      0x04\n      dup1\n      calldatasize\n      sub\n      dup2\n      add\n      swap1\n      tag_34\n      swap2\n      swap1\n      tag_23\n      jump\t// in\n    tag_34:\n      tag_35\n      jump\t// in\n    tag_33:\n      mload(0x40)\n      tag_36\n      swap2\n      swap1\n      tag_37\n      jump\t// in\n    tag_36:\n      mload(0x40)\n      dup1\n      swap2\n      sub\n      swap1\n      return\n        /* \"contracts/helpers/Ownable.sol\":1714:1817  function renounceOwnership() public virtual onlyOwner {\r... */\n    tag_8:\n      tag_38\n      tag_39\n      jump\t// in\n    tag_38:\n      stop\n        /* \"contracts/helpers/Ownable.sol\":1063:1150  function owner() public view virtual returns (address) {\r... */\n    tag_9:\n      tag_40\n      tag_41\n      jump\t// in\n    tag_40:\n      mload(0x40)\n      tag_42\n      swap2\n      swap1\n      tag_43\n      jump\t// in\n    tag_42:\n      mload(0x40)\n      dup1\n      swap2\n      sub\n      swap1\n      return\n        /* \"contracts/Payment.sol\":466:516  mapping(uint256 => address) public supportedTokens */\n    tag_10:\n      tag_44\n      0x04\n      dup1\n      calldatasize\n      sub\n      dup2\n      add\n      swap1\n      tag_45\n      swap2\n      swap1\n      tag_46\n      jump\t// in\n    tag_45:\n      tag_47\n      jump\t// in\n    tag_44:\n      mload(0x40)\n      tag_48\n      swap2\n      swap1\n      tag_43\n      jump\t// in\n    tag_48:\n      mload(0x40)\n      dup1\n      swap2\n      sub\n      swap1\n      return\n        /* \"contracts/Payment.sol\":2590:2728  function setWallet(address payable newWallet) public onlyOwner{\r... */\n    tag_11:\n      tag_49\n      0x04\n      dup1\n      calldatasize\n      sub\n      dup2\n      add\n      swap1\n      tag_50\n      swap2\n      swap1\n      tag_51\n      jump\t// in\n    tag_50:\n      tag_52\n      jump\t// in\n    tag_49:\n      stop\n        /* \"contracts/Payment.sol\":552:605  mapping(address => uint256) public paymentTokensIndex */\n    tag_12:\n      tag_53\n      0x04\n      dup1\n      calldatasize\n      sub\n      dup2\n      add\n      swap1\n      tag_54\n      swap2\n      swap1\n      tag_23\n      jump\t// in\n    tag_54:\n      tag_55\n      jump\t// in\n    tag_53:\n      mload(0x40)\n      tag_56\n      swap2\n      swap1\n      tag_37\n      jump\t// in\n    tag_56:\n      mload(0x40)\n      dup1\n      swap2\n      sub\n      swap1\n      return\n        /* \"contracts/helpers/Ownable.sol\":1972:2173  function transferOwnership(address newOwner) public virtual onlyOwner {\r... */\n    tag_13:\n      tag_57\n      0x04\n      dup1\n      calldatasize\n      sub\n      dup2\n      add\n      swap1\n      tag_58\n      swap2\n      swap1\n      tag_23\n      jump\t// in\n    tag_58:\n      tag_59\n      jump\t// in\n    tag_57:\n      stop\n        /* \"contracts/Payment.sol\":3416:3578  function getTransactionDetails(address buyer, string memory orderId) public view returns(OrderDetail memory){\r... */\n    tag_18:\n        /* \"contracts/Payment.sol\":3505:3523  OrderDetail memory */\n      tag_60\n      tag_61\n      jump\t// in\n    tag_60:\n        /* \"contracts/Payment.sol\":3542:3554  transactions */\n      0x06\n        /* \"contracts/Payment.sol\":3542:3561  transactions[buyer] */\n      0x00\n        /* \"contracts/Payment.sol\":3555:3560  buyer */\n      dup5\n        /* \"contracts/Payment.sol\":3542:3561  transactions[buyer] */\n      0xffffffffffffffffffffffffffffffffffffffff\n      and\n      0xffffffffffffffffffffffffffffffffffffffff\n      and\n      dup2\n      mstore\n      0x20\n      add\n      swap1\n      dup2\n      mstore\n      0x20\n      add\n      0x00\n      keccak256\n        /* \"contracts/Payment.sol\":3562:3569  orderId */\n      dup3\n        /* \"contracts/Payment.sol\":3542:3570  transactions[buyer][orderId] */\n      mload(0x40)\n      tag_63\n      swap2\n      swap1\n      tag_64\n      jump\t// in\n    tag_63:\n      swap1\n      dup2\n      mstore\n      0x20\n      add\n      mload(0x40)\n      dup1\n      swap2\n      sub\n      swap1\n      keccak256\n        /* \"contracts/Payment.sol\":3535:3570  return transactions[buyer][orderId] */\n      mload(0x40)\n      dup1\n      0xe0\n      add\n      0x40\n      mstore\n      swap1\n      dup2\n      0x00\n      dup3\n      add\n      dup1\n      sload\n      tag_65\n      swap1\n      tag_66\n      jump\t// in\n    tag_65:\n      dup1\n      0x1f\n      add\n      0x20\n      dup1\n      swap2\n      div\n      mul\n      0x20\n      add\n      mload(0x40)\n      swap1\n      dup2\n      add\n      0x40\n      mstore\n      dup1\n      swap3\n      swap2\n      swap1\n      dup2\n      dup2\n      mstore\n      0x20\n      add\n      dup3\n      dup1\n      sload\n      tag_67\n      swap1\n      tag_66\n      jump\t// in\n    tag_67:\n      dup1\n      iszero\n      tag_68\n      jumpi\n      dup1\n      0x1f\n      lt\n      tag_69\n      jumpi\n      0x0100\n      dup1\n      dup4\n      sload\n      div\n      mul\n      dup4\n      mstore\n      swap2\n      0x20\n      add\n      swap2\n      jump(tag_68)\n    tag_69:\n      dup3\n      add\n      swap2\n      swap1\n      0x00\n      mstore\n      keccak256(0x00, 0x20)\n      swap1\n    tag_70:\n      dup2\n      sload\n      dup2\n      mstore\n      swap1\n      0x01\n      add\n      swap1\n      0x20\n      add\n      dup1\n      dup4\n      gt\n      tag_70\n      jumpi\n      dup3\n      swap1\n      sub\n      0x1f\n      and\n      dup3\n      add\n      swap2\n    tag_68:\n      pop\n      pop\n      pop\n      pop\n      pop\n      dup2\n      mstore\n      0x20\n      add\n      0x01\n      dup3\n      add\n      dup1\n      sload\n      tag_71\n      swap1\n      tag_66\n      jump\t// in\n    tag_71:\n      dup1\n      0x1f\n      add\n      0x20\n      dup1\n      swap2\n      div\n      mul\n      0x20\n      add\n      mload(0x40)\n      swap1\n      dup2\n      add\n      0x40\n      mstore\n      dup1\n      swap3\n      swap2\n      swap1\n      dup2\n      dup2\n      mstore\n      0x20\n      add\n      dup3\n      dup1\n      sload\n      tag_72\n      swap1\n      tag_66\n      jump\t// in\n    tag_72:\n      dup1\n      iszero\n      tag_73\n      jumpi\n      dup1\n      0x1f\n      lt\n      tag_74\n      jumpi\n      0x0100\n      dup1\n      dup4\n      sload\n      div\n      mul\n      dup4\n      mstore\n      swap2\n      0x20\n      add\n      swap2\n      jump(tag_73)\n    tag_74:\n      dup3\n      add\n      swap2\n      swap1\n      0x00\n      mstore\n      keccak256(0x00, 0x20)\n      swap1\n    tag_75:\n      dup2\n      sload\n      dup2\n      mstore\n      swap1\n      0x01\n      add\n      swap1\n      0x20\n      add\n      dup1\n      dup4\n      gt\n      tag_75\n      jumpi\n      dup3\n      swap1\n      sub\n      0x1f\n      and\n      dup3\n      add\n      swap2\n    tag_73:\n      pop\n      pop\n      pop\n      pop\n      pop\n      dup2\n      mstore\n      0x20\n      add\n      0x02\n      dup3\n      add\n      0x00\n      swap1\n      sload\n      swap1\n      0x0100\n      exp\n      swap1\n      div\n      0xffffffffffffffffffffffffffffffffffffffff\n      and\n      0xffffffffffffffffffffffffffffffffffffffff\n      and\n      0xffffffffffffffffffffffffffffffffffffffff\n      and\n      dup2\n      mstore\n      0x20\n      add\n      0x03\n      dup3\n      add\n      sload\n      dup2\n      mstore\n      0x20\n      add\n      0x04\n      dup3\n      add\n      sload\n      dup2\n      mstore\n      0x20\n      add\n      0x05\n      dup3\n      add\n      sload\n      dup2\n      mstore\n      0x20\n      add\n      0x06\n      dup3\n      add\n      0x00\n      swap1\n      sload\n      swap1\n      0x0100\n      exp\n      swap1\n      div\n      0xffffffffffffffffffffffffffffffffffffffff\n      and\n      0xffffffffffffffffffffffffffffffffffffffff\n      and\n      0xffffffffffffffffffffffffffffffffffffffff\n      and\n      dup2\n      mstore\n      pop\n      pop\n      swap1\n      pop\n        /* \"contracts/Payment.sol\":3416:3578  function getTransactionDetails(address buyer, string memory orderId) public view returns(OrderDetail memory){\r... */\n      swap3\n      swap2\n      pop\n      pop\n      jump\t// out\n        /* \"contracts/Payment.sol\":2736:3133  function addPaymentToken(address newTokenAddress) public onlyOwner{\r... */\n    tag_24:\n        /* \"contracts/helpers/Ownable.sol\":1294:1306  _msgSender() */\n      tag_77\n        /* \"contracts/helpers/Ownable.sol\":1294:1304  _msgSender */\n      tag_78\n        /* \"contracts/helpers/Ownable.sol\":1294:1306  _msgSender() */\n      jump\t// in\n    tag_77:\n        /* \"contracts/helpers/Ownable.sol\":1283:1306  owner() == _msgSender() */\n      0xffffffffffffffffffffffffffffffffffffffff\n      and\n        /* \"contracts/helpers/Ownable.sol\":1283:1290  owner() */\n      tag_79\n        /* \"contracts/helpers/Ownable.sol\":1283:1288  owner */\n      tag_41\n        /* \"contracts/helpers/Ownable.sol\":1283:1290  owner() */\n      jump\t// in\n    tag_79:\n        /* \"contracts/helpers/Ownable.sol\":1283:1306  owner() == _msgSender() */\n      0xffffffffffffffffffffffffffffffffffffffff\n      and\n      eq\n        /* \"contracts/helpers/Ownable.sol\":1275:1343  require(owner() == _msgSender(), \"Ownable: caller is not the owner\") */\n      tag_80\n      jumpi\n      mload(0x40)\n      0x08c379a000000000000000000000000000000000000000000000000000000000\n      dup2\n      mstore\n      0x04\n      add\n      tag_81\n      swap1\n      tag_82\n      jump\t// in\n    tag_81:\n      mload(0x40)\n      dup1\n      swap2\n      sub\n      swap1\n      revert\n    tag_80:\n        /* \"contracts/Payment.sol\":2860:2861  0 */\n      0x00\n        /* \"contracts/Payment.sol\":2821:2839  paymentTokensIndex */\n      0x04\n        /* \"contracts/Payment.sol\":2821:2856  paymentTokensIndex[newTokenAddress] */\n      0x00\n        /* \"contracts/Payment.sol\":2840:2855  newTokenAddress */\n      dup4\n        /* \"contracts/Payment.sol\":2821:2856  paymentTokensIndex[newTokenAddress] */\n      0xffffffffffffffffffffffffffffffffffffffff\n      and\n      0xffffffffffffffffffffffffffffffffffffffff\n      and\n      dup2\n      mstore\n      0x20\n      add\n      swap1\n      dup2\n      mstore\n      0x20\n      add\n      0x00\n      keccak256\n      sload\n        /* \"contracts/Payment.sol\":2821:2861  paymentTokensIndex[newTokenAddress] == 0 */\n      eq\n        /* \"contracts/Payment.sol\":2813:2902  require(paymentTokensIndex[newTokenAddress] == 0, \"addPaymentToken: Token already added\") */\n      tag_84\n      jumpi\n      mload(0x40)\n      0x08c379a000000000000000000000000000000000000000000000000000000000\n      dup2\n      mstore\n      0x04\n      add\n      tag_85\n      swap1\n      tag_86\n      jump\t// in\n    tag_85:\n      mload(0x40)\n      dup1\n      swap2\n      sub\n      swap1\n      revert\n    tag_84:\n        /* \"contracts/Payment.sol\":2943:2958  newTokenAddress */\n      dup1\n        /* \"contracts/Payment.sol\":2913:2928  supportedTokens */\n      0x02\n        /* \"contracts/Payment.sol\":2913:2940  supportedTokens[tokenCount] */\n      0x00\n        /* \"contracts/Payment.sol\":2929:2939  tokenCount */\n      sload(0x03)\n        /* \"contracts/Payment.sol\":2913:2940  supportedTokens[tokenCount] */\n      dup2\n      mstore\n      0x20\n      add\n      swap1\n      dup2\n      mstore\n      0x20\n      add\n      0x00\n      keccak256\n      0x00\n        /* \"contracts/Payment.sol\":2913:2958  supportedTokens[tokenCount] = newTokenAddress */\n      0x0100\n      exp\n      dup2\n      sload\n      dup2\n      0xffffffffffffffffffffffffffffffffffffffff\n      mul\n      not\n      and\n      swap1\n      dup4\n      0xffffffffffffffffffffffffffffffffffffffff\n      and\n      mul\n      or\n      swap1\n      sstore\n      pop\n        /* \"contracts/Payment.sol\":3007:3017  tokenCount */\n      sload(0x03)\n        /* \"contracts/Payment.sol\":2969:2987  paymentTokensIndex */\n      0x04\n        /* \"contracts/Payment.sol\":2969:3004  paymentTokensIndex[newTokenAddress] */\n      0x00\n        /* \"contracts/Payment.sol\":2988:3003  newTokenAddress */\n      dup4\n        /* \"contracts/Payment.sol\":2969:3004  paymentTokensIndex[newTokenAddress] */\n      0xffffffffffffffffffffffffffffffffffffffff\n      and\n      0xffffffffffffffffffffffffffffffffffffffff\n      and\n      dup2\n      mstore\n      0x20\n      add\n      swap1\n      dup2\n      mstore\n      0x20\n      add\n      0x00\n      keccak256\n        /* \"contracts/Payment.sol\":2969:3017  paymentTokensIndex[newTokenAddress] = tokenCount */\n      dup2\n      swap1\n      sstore\n      pop\n        /* \"contracts/Payment.sol\":3041:3058  tokenCount.add(1) */\n      tag_87\n        /* \"contracts/Payment.sol\":3056:3057  1 */\n      0x01\n        /* \"contracts/Payment.sol\":3041:3051  tokenCount */\n      sload(0x03)\n        /* \"contracts/Payment.sol\":3041:3055  tokenCount.add */\n      tag_88\n      swap1\n        /* \"contracts/Payment.sol\":3041:3058  tokenCount.add(1) */\n      swap2\n      swap1\n      0xffffffff\n      and\n      jump\t// in\n    tag_87:\n        /* \"contracts/Payment.sol\":3028:3038  tokenCount */\n      0x03\n        /* \"contracts/Payment.sol\":3028:3058  tokenCount = tokenCount.add(1) */\n      dup2\n      swap1\n      sstore\n      pop\n        /* \"contracts/Payment.sol\":3107:3124  tokenCount.sub(1) */\n      tag_89\n        /* \"contracts/Payment.sol\":3122:3123  1 */\n      0x01\n        /* \"contracts/Payment.sol\":3107:3117  tokenCount */\n      sload(0x03)\n        /* \"contracts/Payment.sol\":3107:3121  tokenCount.sub */\n      tag_90\n      swap1\n        /* \"contracts/Payment.sol\":3107:3124  tokenCount.sub(1) */\n      swap2\n      swap1\n      0xffffffff\n      and\n      jump\t// in\n    tag_89:\n        /* \"contracts/Payment.sol\":3090:3105  newTokenAddress */\n      dup2\n        /* \"contracts/Payment.sol\":3076:3125  NewTokenAdded(newTokenAddress, tokenCount.sub(1)) */\n      0xffffffffffffffffffffffffffffffffffffffff\n      and\n      0xb5498d88d9ae1cb339dbe68df2a6fdc5e7e4d8045bbd0b39f0d5648399a753f2\n      mload(0x40)\n      mload(0x40)\n      dup1\n      swap2\n      sub\n      swap1\n      log3\n        /* \"contracts/Payment.sol\":2736:3133  function addPaymentToken(address newTokenAddress) public onlyOwner{\r... */\n      pop\n      jump\t// out\n        /* \"contracts/Payment.sol\":614:643  address payable public wallet */\n    tag_26:\n      0x05\n      0x00\n      swap1\n      sload\n      swap1\n      0x0100\n      exp\n      swap1\n      div\n      0xffffffffffffffffffffffffffffffffffffffff\n      and\n      dup2\n      jump\t// out\n        /* \"contracts/Payment.sol\":1321:2555  function makePayment(\r... */\n    tag_32:\n        /* \"contracts/Payment.sol\":1545:1546  0 */\n      0x00\n        /* \"contracts/Payment.sol\":1506:1547  supportedTokens[tokenIndex] != address(0) */\n      0xffffffffffffffffffffffffffffffffffffffff\n      and\n        /* \"contracts/Payment.sol\":1506:1521  supportedTokens */\n      0x02\n        /* \"contracts/Payment.sol\":1506:1533  supportedTokens[tokenIndex] */\n      0x00\n        /* \"contracts/Payment.sol\":1522:1532  tokenIndex */\n      dup6\n        /* \"contracts/Payment.sol\":1506:1533  supportedTokens[tokenIndex] */\n      dup2\n      mstore\n      0x20\n      add\n      swap1\n      dup2\n      mstore\n      0x20\n      add\n      0x00\n      keccak256\n      0x00\n      swap1\n      sload\n      swap1\n      0x0100\n      exp\n      swap1\n      div\n      0xffffffffffffffffffffffffffffffffffffffff\n      and\n        /* \"contracts/Payment.sol\":1506:1547  supportedTokens[tokenIndex] != address(0) */\n      0xffffffffffffffffffffffffffffffffffffffff\n      and\n      eq\n      iszero\n        /* \"contracts/Payment.sol\":1498:1584  require(supportedTokens[tokenIndex] != address(0), \"makePayment: Invalid token index\") */\n      tag_92\n      jumpi\n      mload(0x40)\n      0x08c379a000000000000000000000000000000000000000000000000000000000\n      dup2\n      mstore\n      0x04\n      add\n      tag_93\n      swap1\n      tag_94\n      jump\t// in\n    tag_93:\n      mload(0x40)\n      dup1\n      swap2\n      sub\n      swap1\n      revert\n    tag_92:\n        /* \"contracts/Payment.sol\":1595:1614  IERC20 paymentToken */\n      0x00\n        /* \"contracts/Payment.sol\":1624:1639  supportedTokens */\n      0x02\n        /* \"contracts/Payment.sol\":1624:1651  supportedTokens[tokenIndex] */\n      0x00\n        /* \"contracts/Payment.sol\":1640:1650  tokenIndex */\n      dup6\n        /* \"contracts/Payment.sol\":1624:1651  supportedTokens[tokenIndex] */\n      dup2\n      mstore\n      0x20\n      add\n      swap1\n      dup2\n      mstore\n      0x20\n      add\n      0x00\n      keccak256\n      0x00\n      swap1\n      sload\n      swap1\n      0x0100\n      exp\n      swap1\n      div\n      0xffffffffffffffffffffffffffffffffffffffff\n      and\n        /* \"contracts/Payment.sol\":1595:1652  IERC20 paymentToken = IERC20(supportedTokens[tokenIndex]) */\n      swap1\n      pop\n        /* \"contracts/Payment.sol\":1720:1737  uint256 allowance */\n      0x00\n        /* \"contracts/Payment.sol\":1740:1752  paymentToken */\n      dup2\n        /* \"contracts/Payment.sol\":1740:1762  paymentToken.allowance */\n      0xffffffffffffffffffffffffffffffffffffffff\n      and\n      0xdd62ed3e\n        /* \"contracts/Payment.sol\":1763:1775  _msgSender() */\n      tag_95\n        /* \"contracts/Payment.sol\":1763:1773  _msgSender */\n      tag_78\n        /* \"contracts/Payment.sol\":1763:1775  _msgSender() */\n      jump\t// in\n    tag_95:\n        /* \"contracts/Payment.sol\":1785:1789  this */\n      address\n        /* \"contracts/Payment.sol\":1740:1791  paymentToken.allowance(_msgSender(), address(this)) */\n      mload(0x40)\n      dup4\n      0xffffffff\n      and\n      0xe0\n      shl\n      dup2\n      mstore\n      0x04\n      add\n      tag_96\n      swap3\n      swap2\n      swap1\n      tag_97\n      jump\t// in\n    tag_96:\n      0x20\n      mload(0x40)\n      dup1\n      dup4\n      sub\n      dup2\n      dup7\n      dup1\n      extcodesize\n      iszero\n      dup1\n      iszero\n      tag_98\n      jumpi\n      0x00\n      dup1\n      revert\n    tag_98:\n      pop\n      gas\n      staticcall\n      iszero\n      dup1\n      iszero\n      tag_100\n      jumpi\n      returndatasize\n      0x00\n      dup1\n      returndatacopy\n      revert(0x00, returndatasize)\n    tag_100:\n      pop\n      pop\n      pop\n      pop\n      mload(0x40)\n      returndatasize\n      not(0x1f)\n      0x1f\n      dup3\n      add\n      and\n      dup3\n      add\n      dup1\n      0x40\n      mstore\n      pop\n      dup2\n      add\n      swap1\n      tag_101\n      swap2\n      swap1\n      tag_102\n      jump\t// in\n    tag_101:\n        /* \"contracts/Payment.sol\":1720:1791  uint256 allowance = paymentToken.allowance(_msgSender(), address(this)) */\n      swap1\n      pop\n        /* \"contracts/Payment.sol\":1823:1833  totalPrice */\n      dup4\n        /* \"contracts/Payment.sol\":1810:1819  allowance */\n      dup2\n        /* \"contracts/Payment.sol\":1810:1833  allowance >= totalPrice */\n      lt\n      iszero\n        /* \"contracts/Payment.sol\":1802:1888  require(allowance >= totalPrice, \"makePayment: Contract not approved to make payment\") */\n      tag_103\n      jumpi\n      mload(0x40)\n      0x08c379a000000000000000000000000000000000000000000000000000000000\n      dup2\n      mstore\n      0x04\n      add\n      tag_104\n      swap1\n      tag_105\n      jump\t// in\n    tag_104:\n      mload(0x40)\n      dup1\n      swap2\n      sub\n      swap1\n      revert\n    tag_103:\n        /* \"contracts/Payment.sol\":1910:1973  paymentToken.safeTransferFrom(_msgSender(), wallet, totalPrice) */\n      tag_106\n        /* \"contracts/Payment.sol\":1940:1952  _msgSender() */\n      tag_107\n        /* \"contracts/Payment.sol\":1940:1950  _msgSender */\n      tag_78\n        /* \"contracts/Payment.sol\":1940:1952  _msgSender() */\n      jump\t// in\n    tag_107:\n        /* \"contracts/Payment.sol\":1954:1960  wallet */\n      0x05\n      0x00\n      swap1\n      sload\n      swap1\n      0x0100\n      exp\n      swap1\n      div\n      0xffffffffffffffffffffffffffffffffffffffff\n      and\n        /* \"contracts/Payment.sol\":1962:1972  totalPrice */\n      dup7\n        /* \"contracts/Payment.sol\":1910:1922  paymentToken */\n      dup6\n        /* \"contracts/Payment.sol\":1910:1939  paymentToken.safeTransferFrom */\n      0xffffffffffffffffffffffffffffffffffffffff\n      and\n      tag_108\n      swap1\n        /* \"contracts/Payment.sol\":1910:1973  paymentToken.safeTransferFrom(_msgSender(), wallet, totalPrice) */\n      swap4\n      swap3\n      swap2\n      swap1\n      0xffffffff\n      and\n      jump\t// in\n    tag_106:\n        /* \"contracts/Payment.sol\":2029:2055  OrderDetail storage detail */\n      0x00\n        /* \"contracts/Payment.sol\":2058:2070  transactions */\n      0x06\n        /* \"contracts/Payment.sol\":2058:2084  transactions[_msgSender()] */\n      0x00\n        /* \"contracts/Payment.sol\":2071:2083  _msgSender() */\n      tag_109\n        /* \"contracts/Payment.sol\":2071:2081  _msgSender */\n      tag_78\n        /* \"contracts/Payment.sol\":2071:2083  _msgSender() */\n      jump\t// in\n    tag_109:\n        /* \"contracts/Payment.sol\":2058:2084  transactions[_msgSender()] */\n      0xffffffffffffffffffffffffffffffffffffffff\n      and\n      0xffffffffffffffffffffffffffffffffffffffff\n      and\n      dup2\n      mstore\n      0x20\n      add\n      swap1\n      dup2\n      mstore\n      0x20\n      add\n      0x00\n      keccak256\n        /* \"contracts/Payment.sol\":2085:2092  orderId */\n      dup8\n        /* \"contracts/Payment.sol\":2058:2093  transactions[_msgSender()][orderId] */\n      mload(0x40)\n      tag_110\n      swap2\n      swap1\n      tag_64\n      jump\t// in\n    tag_110:\n      swap1\n      dup2\n      mstore\n      0x20\n      add\n      mload(0x40)\n      dup1\n      swap2\n      sub\n      swap1\n      keccak256\n        /* \"contracts/Payment.sol\":2029:2093  OrderDetail storage detail = transactions[_msgSender()][orderId] */\n      swap1\n      pop\n        /* \"contracts/Payment.sol\":2121:2128  orderId */\n      dup7\n        /* \"contracts/Payment.sol\":2104:2110  detail */\n      dup2\n        /* \"contracts/Payment.sol\":2104:2118  detail.orderID */\n      0x00\n      add\n        /* \"contracts/Payment.sol\":2104:2128  detail.orderID = orderId */\n      swap1\n      dup1\n      mload\n      swap1\n      0x20\n      add\n      swap1\n      tag_111\n      swap3\n      swap2\n      swap1\n      tag_112\n      jump\t// in\n    tag_111:\n      pop\n        /* \"contracts/Payment.sol\":2158:2246  Strings.toString(uint256(keccak256(abi.encode(orderId, block.timestamp, _msgSender())))) */\n      tag_113\n        /* \"contracts/Payment.sol\":2204:2211  orderId */\n      dup8\n        /* \"contracts/Payment.sol\":2213:2228  block.timestamp */\n      timestamp\n        /* \"contracts/Payment.sol\":2230:2242  _msgSender() */\n      tag_114\n        /* \"contracts/Payment.sol\":2230:2240  _msgSender */\n      tag_78\n        /* \"contracts/Payment.sol\":2230:2242  _msgSender() */\n      jump\t// in\n    tag_114:\n        /* \"contracts/Payment.sol\":2193:2243  abi.encode(orderId, block.timestamp, _msgSender()) */\n      add(0x20, mload(0x40))\n      tag_115\n      swap4\n      swap3\n      swap2\n      swap1\n      tag_116\n      jump\t// in\n    tag_115:\n      mload(0x40)\n      0x20\n      dup2\n      dup4\n      sub\n      sub\n      dup2\n      mstore\n      swap1\n      0x40\n      mstore\n        /* \"contracts/Payment.sol\":2183:2244  keccak256(abi.encode(orderId, block.timestamp, _msgSender())) */\n      dup1\n      mload\n      swap1\n      0x20\n      add\n      keccak256\n        /* \"contracts/Payment.sol\":2175:2245  uint256(keccak256(abi.encode(orderId, block.timestamp, _msgSender()))) */\n      0x00\n      shr\n        /* \"contracts/Payment.sol\":2158:2174  Strings.toString */\n      tag_117\n        /* \"contracts/Payment.sol\":2158:2246  Strings.toString(uint256(keccak256(abi.encode(orderId, block.timestamp, _msgSender())))) */\n      jump\t// in\n    tag_113:\n        /* \"contracts/Payment.sol\":2139:2145  detail */\n      dup2\n        /* \"contracts/Payment.sol\":2139:2155  detail.paymentID */\n      0x01\n      add\n        /* \"contracts/Payment.sol\":2139:2246  detail.paymentID = Strings.toString(uint256(keccak256(abi.encode(orderId, block.timestamp, _msgSender())))) */\n      swap1\n      dup1\n      mload\n      swap1\n      0x20\n      add\n      swap1\n      tag_118\n      swap3\n      swap2\n      swap1\n      tag_112\n      jump\t// in\n    tag_118:\n      pop\n        /* \"contracts/Payment.sol\":2279:2294  supportedTokens */\n      0x02\n        /* \"contracts/Payment.sol\":2279:2306  supportedTokens[tokenIndex] */\n      0x00\n        /* \"contracts/Payment.sol\":2295:2305  tokenIndex */\n      dup8\n        /* \"contracts/Payment.sol\":2279:2306  supportedTokens[tokenIndex] */\n      dup2\n      mstore\n      0x20\n      add\n      swap1\n      dup2\n      mstore\n      0x20\n      add\n      0x00\n      keccak256\n      0x00\n      swap1\n      sload\n      swap1\n      0x0100\n      exp\n      swap1\n      div\n      0xffffffffffffffffffffffffffffffffffffffff\n      and\n        /* \"contracts/Payment.sol\":2257:2263  detail */\n      dup2\n        /* \"contracts/Payment.sol\":2257:2276  detail.tokenAddress */\n      0x02\n      add\n      0x00\n        /* \"contracts/Payment.sol\":2257:2306  detail.tokenAddress = supportedTokens[tokenIndex] */\n      0x0100\n      exp\n      dup2\n      sload\n      dup2\n      0xffffffffffffffffffffffffffffffffffffffff\n      mul\n      not\n      and\n      swap1\n      dup4\n      0xffffffffffffffffffffffffffffffffffffffff\n      and\n      mul\n      or\n      swap1\n      sstore\n      pop\n        /* \"contracts/Payment.sol\":2337:2347  tokenIndex */\n      dup6\n        /* \"contracts/Payment.sol\":2317:2323  detail */\n      dup2\n        /* \"contracts/Payment.sol\":2317:2334  detail.tokenIndex */\n      0x03\n      add\n        /* \"contracts/Payment.sol\":2317:2347  detail.tokenIndex = tokenIndex */\n      dup2\n      swap1\n      sstore\n      pop\n        /* \"contracts/Payment.sol\":2378:2388  totalPrice */\n      dup5\n        /* \"contracts/Payment.sol\":2358:2364  detail */\n      dup2\n        /* \"contracts/Payment.sol\":2358:2375  detail.totalPrice */\n      0x04\n      add\n        /* \"contracts/Payment.sol\":2358:2388  detail.totalPrice = totalPrice */\n      dup2\n      swap1\n      sstore\n      pop\n        /* \"contracts/Payment.sol\":2417:2425  totalQty */\n      dup4\n        /* \"contracts/Payment.sol\":2399:2405  detail */\n      dup2\n        /* \"contracts/Payment.sol\":2399:2414  detail.totalQty */\n      0x05\n      add\n        /* \"contracts/Payment.sol\":2399:2425  detail.totalQty = totalQty */\n      dup2\n      swap1\n      sstore\n      pop\n        /* \"contracts/Payment.sol\":2451:2463  _msgSender() */\n      tag_119\n        /* \"contracts/Payment.sol\":2451:2461  _msgSender */\n      tag_78\n        /* \"contracts/Payment.sol\":2451:2463  _msgSender() */\n      jump\t// in\n    tag_119:\n        /* \"contracts/Payment.sol\":2436:2442  detail */\n      dup2\n        /* \"contracts/Payment.sol\":2436:2448  detail.buyer */\n      0x06\n      add\n      0x00\n        /* \"contracts/Payment.sol\":2436:2463  detail.buyer = _msgSender() */\n      0x0100\n      exp\n      dup2\n      sload\n      dup2\n      0xffffffffffffffffffffffffffffffffffffffff\n      mul\n      not\n      and\n      swap1\n      dup4\n      0xffffffffffffffffffffffffffffffffffffffff\n      and\n      mul\n      or\n      swap1\n      sstore\n      pop\n        /* \"contracts/Payment.sol\":2532:2544  _msgSender() */\n      tag_120\n        /* \"contracts/Payment.sol\":2532:2542  _msgSender */\n      tag_78\n        /* \"contracts/Payment.sol\":2532:2544  _msgSender() */\n      jump\t// in\n    tag_120:\n        /* \"contracts/Payment.sol\":2489:2545  TransactionMade(orderId, detail.paymentID, _msgSender()) */\n      0xffffffffffffffffffffffffffffffffffffffff\n      and\n        /* \"contracts/Payment.sol\":2514:2520  detail */\n      dup2\n        /* \"contracts/Payment.sol\":2514:2530  detail.paymentID */\n      0x01\n      add\n        /* \"contracts/Payment.sol\":2489:2545  TransactionMade(orderId, detail.paymentID, _msgSender()) */\n      mload(0x40)\n      tag_121\n      swap2\n      swap1\n      tag_122\n      jump\t// in\n    tag_121:\n      mload(0x40)\n      dup1\n      swap2\n      sub\n      swap1\n      keccak256\n        /* \"contracts/Payment.sol\":2505:2512  orderId */\n      dup9\n        /* \"contracts/Payment.sol\":2489:2545  TransactionMade(orderId, detail.paymentID, _msgSender()) */\n      mload(0x40)\n      tag_123\n      swap2\n      swap1\n      tag_64\n      jump\t// in\n    tag_123:\n      mload(0x40)\n      dup1\n      swap2\n      sub\n      swap1\n      keccak256\n      0x252ea8f225dc33ac745d0cf22974635091a5ff8332a55f6469595caa3337a8fc\n      mload(0x40)\n      mload(0x40)\n      dup1\n      swap2\n      sub\n      swap1\n      log4\n        /* \"contracts/Payment.sol\":1487:2555  {\r... */\n      pop\n      pop\n      pop\n        /* \"contracts/Payment.sol\":1321:2555  function makePayment(\r... */\n      pop\n      pop\n      pop\n      pop\n      jump\t// out\n        /* \"contracts/Payment.sol\":3172:3408  function getTokenIndex(address tokenAddress) public view returns(uint256){\r... */\n    tag_35:\n        /* \"contracts/Payment.sol\":3237:3244  uint256 */\n      0x00\n        /* \"contracts/Payment.sol\":3300:3301  0 */\n      dup1\n        /* \"contracts/Payment.sol\":3264:3282  paymentTokensIndex */\n      0x04\n        /* \"contracts/Payment.sol\":3264:3296  paymentTokensIndex[tokenAddress] */\n      0x00\n        /* \"contracts/Payment.sol\":3283:3295  tokenAddress */\n      dup5\n        /* \"contracts/Payment.sol\":3264:3296  paymentTokensIndex[tokenAddress] */\n      0xffffffffffffffffffffffffffffffffffffffff\n      and\n      0xffffffffffffffffffffffffffffffffffffffff\n      and\n      dup2\n      mstore\n      0x20\n      add\n      swap1\n      dup2\n      mstore\n      0x20\n      add\n      0x00\n      keccak256\n      sload\n        /* \"contracts/Payment.sol\":3264:3301  paymentTokensIndex[tokenAddress] != 0 */\n      eq\n      iszero\n        /* \"contracts/Payment.sol\":3256:3350  require(paymentTokensIndex[tokenAddress] != 0, \"getTokenIndex: Not a supported payment token\") */\n      tag_125\n      jumpi\n      mload(0x40)\n      0x08c379a000000000000000000000000000000000000000000000000000000000\n      dup2\n      mstore\n      0x04\n      add\n      tag_126\n      swap1\n      tag_127\n      jump\t// in\n    tag_126:\n      mload(0x40)\n      dup1\n      swap2\n      sub\n      swap1\n      revert\n    tag_125:\n        /* \"contracts/Payment.sol\":3368:3386  paymentTokensIndex */\n      0x04\n        /* \"contracts/Payment.sol\":3368:3400  paymentTokensIndex[tokenAddress] */\n      0x00\n        /* \"contracts/Payment.sol\":3387:3399  tokenAddress */\n      dup4\n        /* \"contracts/Payment.sol\":3368:3400  paymentTokensIndex[tokenAddress] */\n      0xffffffffffffffffffffffffffffffffffffffff\n      and\n      0xffffffffffffffffffffffffffffffffffffffff\n      and\n      dup2\n      mstore\n      0x20\n      add\n      swap1\n      dup2\n      mstore\n      0x20\n      add\n      0x00\n      keccak256\n      sload\n        /* \"contracts/Payment.sol\":3361:3400  return paymentTokensIndex[tokenAddress] */\n      swap1\n      pop\n        /* \"contracts/Payment.sol\":3172:3408  function getTokenIndex(address tokenAddress) public view returns(uint256){\r... */\n      swap2\n      swap1\n      pop\n      jump\t// out\n        /* \"contracts/helpers/Ownable.sol\":1714:1817  function renounceOwnership() public virtual onlyOwner {\r... */\n    tag_39:\n        /* \"contracts/helpers/Ownable.sol\":1294:1306  _msgSender() */\n      tag_129\n        /* \"contracts/helpers/Ownable.sol\":1294:1304  _msgSender */\n      tag_78\n        /* \"contracts/helpers/Ownable.sol\":1294:1306  _msgSender() */\n      jump\t// in\n    tag_129:\n        /* \"contracts/helpers/Ownable.sol\":1283:1306  owner() == _msgSender() */\n      0xffffffffffffffffffffffffffffffffffffffff\n      and\n        /* \"contracts/helpers/Ownable.sol\":1283:1290  owner() */\n      tag_130\n        /* \"contracts/helpers/Ownable.sol\":1283:1288  owner */\n      tag_41\n        /* \"contracts/helpers/Ownable.sol\":1283:1290  owner() */\n      jump\t// in\n    tag_130:\n        /* \"contracts/helpers/Ownable.sol\":1283:1306  owner() == _msgSender() */\n      0xffffffffffffffffffffffffffffffffffffffff\n      and\n      eq\n        /* \"contracts/helpers/Ownable.sol\":1275:1343  require(owner() == _msgSender(), \"Ownable: caller is not the owner\") */\n      tag_131\n      jumpi\n      mload(0x40)\n      0x08c379a000000000000000000000000000000000000000000000000000000000\n      dup2\n      mstore\n      0x04\n      add\n      tag_132\n      swap1\n      tag_82\n      jump\t// in\n    tag_132:\n      mload(0x40)\n      dup1\n      swap2\n      sub\n      swap1\n      revert\n    tag_131:\n        /* \"contracts/helpers/Ownable.sol\":1779:1809  _transferOwnership(address(0)) */\n      tag_134\n        /* \"contracts/helpers/Ownable.sol\":1806:1807  0 */\n      0x00\n        /* \"contracts/helpers/Ownable.sol\":1779:1797  _transferOwnership */\n      tag_135\n        /* \"contracts/helpers/Ownable.sol\":1779:1809  _transferOwnership(address(0)) */\n      jump\t// in\n    tag_134:\n        /* \"contracts/helpers/Ownable.sol\":1714:1817  function renounceOwnership() public virtual onlyOwner {\r... */\n      jump\t// out\n        /* \"contracts/helpers/Ownable.sol\":1063:1150  function owner() public view virtual returns (address) {\r... */\n    tag_41:\n        /* \"contracts/helpers/Ownable.sol\":1109:1116  address */\n      0x00\n        /* \"contracts/helpers/Ownable.sol\":1136:1142  _owner */\n      dup1\n      0x00\n      swap1\n      sload\n      swap1\n      0x0100\n      exp\n      swap1\n      div\n      0xffffffffffffffffffffffffffffffffffffffff\n      and\n        /* \"contracts/helpers/Ownable.sol\":1129:1142  return _owner */\n      swap1\n      pop\n        /* \"contracts/helpers/Ownable.sol\":1063:1150  function owner() public view virtual returns (address) {\r... */\n      swap1\n      jump\t// out\n        /* \"contracts/Payment.sol\":466:516  mapping(uint256 => address) public supportedTokens */\n    tag_47:\n      mstore(0x20, 0x02)\n      dup1\n      0x00\n      mstore\n      keccak256(0x00, 0x40)\n      0x00\n      swap2\n      pop\n      sload\n      swap1\n      0x0100\n      exp\n      swap1\n      div\n      0xffffffffffffffffffffffffffffffffffffffff\n      and\n      dup2\n      jump\t// out\n        /* \"contracts/Payment.sol\":2590:2728  function setWallet(address payable newWallet) public onlyOwner{\r... */\n    tag_52:\n        /* \"contracts/helpers/Ownable.sol\":1294:1306  _msgSender() */\n      tag_138\n        /* \"contracts/helpers/Ownable.sol\":1294:1304  _msgSender */\n      tag_78\n        /* \"contracts/helpers/Ownable.sol\":1294:1306  _msgSender() */\n      jump\t// in\n    tag_138:\n        /* \"contracts/helpers/Ownable.sol\":1283:1306  owner() == _msgSender() */\n      0xffffffffffffffffffffffffffffffffffffffff\n      and\n        /* \"contracts/helpers/Ownable.sol\":1283:1290  owner() */\n      tag_139\n        /* \"contracts/helpers/Ownable.sol\":1283:1288  owner */\n      tag_41\n        /* \"contracts/helpers/Ownable.sol\":1283:1290  owner() */\n      jump\t// in\n    tag_139:\n        /* \"contracts/helpers/Ownable.sol\":1283:1306  owner() == _msgSender() */\n      0xffffffffffffffffffffffffffffffffffffffff\n      and\n      eq\n        /* \"contracts/helpers/Ownable.sol\":1275:1343  require(owner() == _msgSender(), \"Ownable: caller is not the owner\") */\n      tag_140\n      jumpi\n      mload(0x40)\n      0x08c379a000000000000000000000000000000000000000000000000000000000\n      dup2\n      mstore\n      0x04\n      add\n      tag_141\n      swap1\n      tag_82\n      jump\t// in\n    tag_141:\n      mload(0x40)\n      dup1\n      swap2\n      sub\n      swap1\n      revert\n    tag_140:\n        /* \"contracts/Payment.sol\":2672:2681  newWallet */\n      dup1\n        /* \"contracts/Payment.sol\":2663:2669  wallet */\n      0x05\n      0x00\n        /* \"contracts/Payment.sol\":2663:2681  wallet = newWallet */\n      0x0100\n      exp\n      dup2\n      sload\n      dup2\n      0xffffffffffffffffffffffffffffffffffffffff\n      mul\n      not\n      and\n      swap1\n      dup4\n      0xffffffffffffffffffffffffffffffffffffffff\n      and\n      mul\n      or\n      swap1\n      sstore\n      pop\n        /* \"contracts/Payment.sol\":2710:2719  newWallet */\n      dup1\n        /* \"contracts/Payment.sol\":2697:2720  NewWalletSet(newWallet) */\n      0xffffffffffffffffffffffffffffffffffffffff\n      and\n      0x65ac7c44ce1402d115f5033c9dde8b6d1e130550ecd89ac7659bc257d4f5b6d5\n      mload(0x40)\n      mload(0x40)\n      dup1\n      swap2\n      sub\n      swap1\n      log2\n        /* \"contracts/Payment.sol\":2590:2728  function setWallet(address payable newWallet) public onlyOwner{\r... */\n      pop\n      jump\t// out\n        /* \"contracts/Payment.sol\":552:605  mapping(address => uint256) public paymentTokensIndex */\n    tag_55:\n      mstore(0x20, 0x04)\n      dup1\n      0x00\n      mstore\n      keccak256(0x00, 0x40)\n      0x00\n      swap2\n      pop\n      swap1\n      pop\n      sload\n      dup2\n      jump\t// out\n        /* \"contracts/helpers/Ownable.sol\":1972:2173  function transferOwnership(address newOwner) public virtual onlyOwner {\r... */\n    tag_59:\n        /* \"contracts/helpers/Ownable.sol\":1294:1306  _msgSender() */\n      tag_144\n        /* \"contracts/helpers/Ownable.sol\":1294:1304  _msgSender */\n      tag_78\n        /* \"contracts/helpers/Ownable.sol\":1294:1306  _msgSender() */\n      jump\t// in\n    tag_144:\n        /* \"contracts/helpers/Ownable.sol\":1283:1306  owner() == _msgSender() */\n      0xffffffffffffffffffffffffffffffffffffffff\n      and\n        /* \"contracts/helpers/Ownable.sol\":1283:1290  owner() */\n      tag_145\n        /* \"contracts/helpers/Ownable.sol\":1283:1288  owner */\n      tag_41\n        /* \"contracts/helpers/Ownable.sol\":1283:1290  owner() */\n      jump\t// in\n    tag_145:\n        /* \"contracts/helpers/Ownable.sol\":1283:1306  owner() == _msgSender() */\n      0xffffffffffffffffffffffffffffffffffffffff\n      and\n      eq\n        /* \"contracts/helpers/Ownable.sol\":1275:1343  require(owner() == _msgSender(), \"Ownable: caller is not the owner\") */\n      tag_146\n      jumpi\n      mload(0x40)\n      0x08c379a000000000000000000000000000000000000000000000000000000000\n      dup2\n      mstore\n      0x04\n      add\n      tag_147\n      swap1\n      tag_82\n      jump\t// in\n    tag_147:\n      mload(0x40)\n      dup1\n      swap2\n      sub\n      swap1\n      revert\n    tag_146:\n        /* \"contracts/helpers/Ownable.sol\":2081:2082  0 */\n      0x00\n        /* \"contracts/helpers/Ownable.sol\":2061:2083  newOwner != address(0) */\n      0xffffffffffffffffffffffffffffffffffffffff\n      and\n        /* \"contracts/helpers/Ownable.sol\":2061:2069  newOwner */\n      dup2\n        /* \"contracts/helpers/Ownable.sol\":2061:2083  newOwner != address(0) */\n      0xffffffffffffffffffffffffffffffffffffffff\n      and\n      eq\n      iszero\n        /* \"contracts/helpers/Ownable.sol\":2053:2126  require(newOwner != address(0), \"Ownable: new owner is the zero address\") */\n      tag_149\n      jumpi\n      mload(0x40)\n      0x08c379a000000000000000000000000000000000000000000000000000000000\n      dup2\n      mstore\n      0x04\n      add\n      tag_150\n      swap1\n      tag_151\n      jump\t// in\n    tag_150:\n      mload(0x40)\n      dup1\n      swap2\n      sub\n      swap1\n      revert\n    tag_149:\n        /* \"contracts/helpers/Ownable.sol\":2137:2165  _transferOwnership(newOwner) */\n      tag_152\n        /* \"contracts/helpers/Ownable.sol\":2156:2164  newOwner */\n      dup2\n        /* \"contracts/helpers/Ownable.sol\":2137:2155  _transferOwnership */\n      tag_135\n        /* \"contracts/helpers/Ownable.sol\":2137:2165  _transferOwnership(newOwner) */\n      jump\t// in\n    tag_152:\n        /* \"contracts/helpers/Ownable.sol\":1972:2173  function transferOwnership(address newOwner) public virtual onlyOwner {\r... */\n      pop\n      jump\t// out\n        /* \"contracts/helpers/Context.sol\":656:754  function _msgSender() internal view virtual returns (address) {\r... */\n    tag_78:\n        /* \"contracts/helpers/Context.sol\":709:716  address */\n      0x00\n        /* \"contracts/helpers/Context.sol\":736:746  msg.sender */\n      caller\n        /* \"contracts/helpers/Context.sol\":729:746  return msg.sender */\n      swap1\n      pop\n        /* \"contracts/helpers/Context.sol\":656:754  function _msgSender() internal view virtual returns (address) {\r... */\n      swap1\n      jump\t// out\n        /* \"contracts/helpers/SafeMath.sol\":2833:2931  function add(uint256 a, uint256 b) internal pure returns (uint256) {\r... */\n    tag_88:\n        /* \"contracts/helpers/SafeMath.sol\":2891:2898  uint256 */\n      0x00\n        /* \"contracts/helpers/SafeMath.sol\":2922:2923  b */\n      dup2\n        /* \"contracts/helpers/SafeMath.sol\":2918:2919  a */\n      dup4\n        /* \"contracts/helpers/SafeMath.sol\":2918:2923  a + b */\n      tag_155\n      swap2\n      swap1\n      tag_156\n      jump\t// in\n    tag_155:\n        /* \"contracts/helpers/SafeMath.sol\":2911:2923  return a + b */\n      swap1\n      pop\n        /* \"contracts/helpers/SafeMath.sol\":2833:2931  function add(uint256 a, uint256 b) internal pure returns (uint256) {\r... */\n      swap3\n      swap2\n      pop\n      pop\n      jump\t// out\n        /* \"contracts/helpers/SafeMath.sol\":3214:3312  function sub(uint256 a, uint256 b) internal pure returns (uint256) {\r... */\n    tag_90:\n        /* \"contracts/helpers/SafeMath.sol\":3272:3279  uint256 */\n      0x00\n        /* \"contracts/helpers/SafeMath.sol\":3303:3304  b */\n      dup2\n        /* \"contracts/helpers/SafeMath.sol\":3299:3300  a */\n      dup4\n        /* \"contracts/helpers/SafeMath.sol\":3299:3304  a - b */\n      tag_158\n      swap2\n      swap1\n      tag_159\n      jump\t// in\n    tag_158:\n        /* \"contracts/helpers/SafeMath.sol\":3292:3304  return a - b */\n      swap1\n      pop\n        /* \"contracts/helpers/SafeMath.sol\":3214:3312  function sub(uint256 a, uint256 b) internal pure returns (uint256) {\r... */\n      swap3\n      swap2\n      pop\n      pop\n      jump\t// out\n        /* \"contracts/helpers/SafeERC20.sol\":926:1174  function safeTransferFrom(\r... */\n    tag_108:\n        /* \"contracts/helpers/SafeERC20.sol\":1070:1166  _callOptionalReturn(token, abi.encodeWithSelector(token.transferFrom.selector, from, to, value)) */\n      tag_161\n        /* \"contracts/helpers/SafeERC20.sol\":1090:1095  token */\n      dup5\n        /* \"contracts/helpers/SafeERC20.sol\":1120:1147  token.transferFrom.selector */\n      shl(0xe0, 0x23b872dd)\n        /* \"contracts/helpers/SafeERC20.sol\":1149:1153  from */\n      dup6\n        /* \"contracts/helpers/SafeERC20.sol\":1155:1157  to */\n      dup6\n        /* \"contracts/helpers/SafeERC20.sol\":1159:1164  value */\n      dup6\n        /* \"contracts/helpers/SafeERC20.sol\":1097:1165  abi.encodeWithSelector(token.transferFrom.selector, from, to, value) */\n      add(0x24, mload(0x40))\n      tag_162\n      swap4\n      swap3\n      swap2\n      swap1\n      tag_163\n      jump\t// in\n    tag_162:\n      mload(0x40)\n      0x20\n      dup2\n      dup4\n      sub\n      sub\n      dup2\n      mstore\n      swap1\n      0x40\n      mstore\n      swap1\n      not(0xffffffffffffffffffffffffffffffffffffffffffffffffffffffff)\n      and\n      0x20\n      dup3\n      add\n      dup1\n      mload\n      0xffffffffffffffffffffffffffffffffffffffffffffffffffffffff\n      dup4\n      dup2\n      dup4\n      and\n      or\n      dup4\n      mstore\n      pop\n      pop\n      pop\n      pop\n        /* \"contracts/helpers/SafeERC20.sol\":1070:1089  _callOptionalReturn */\n      tag_164\n        /* \"contracts/helpers/SafeERC20.sol\":1070:1166  _callOptionalReturn(token, abi.encodeWithSelector(token.transferFrom.selector, from, to, value)) */\n      jump\t// in\n    tag_161:\n        /* \"contracts/helpers/SafeERC20.sol\":926:1174  function safeTransferFrom(\r... */\n      pop\n      pop\n      pop\n      pop\n      jump\t// out\n        /* \"contracts/helpers/Strings.sol\":342:1065  function toString(uint256 value) internal pure returns (string memory) {\r... */\n    tag_117:\n        /* \"contracts/helpers/Strings.sol\":398:411  string memory */\n      0x60\n        /* \"contracts/helpers/Strings.sol\":628:629  0 */\n      0x00\n        /* \"contracts/helpers/Strings.sol\":619:624  value */\n      dup3\n        /* \"contracts/helpers/Strings.sol\":619:629  value == 0 */\n      eq\n        /* \"contracts/helpers/Strings.sol\":615:668  if (value == 0) {\r... */\n      iszero\n      tag_166\n      jumpi\n        /* \"contracts/helpers/Strings.sol\":646:656  return \"0\" */\n      mload(0x40)\n      dup1\n      0x40\n      add\n      0x40\n      mstore\n      dup1\n      0x01\n      dup2\n      mstore\n      0x20\n      add\n      0x3000000000000000000000000000000000000000000000000000000000000000\n      dup2\n      mstore\n      pop\n      swap1\n      pop\n      jump(tag_165)\n        /* \"contracts/helpers/Strings.sol\":615:668  if (value == 0) {\r... */\n    tag_166:\n        /* \"contracts/helpers/Strings.sol\":678:690  uint256 temp */\n      0x00\n        /* \"contracts/helpers/Strings.sol\":693:698  value */\n      dup3\n        /* \"contracts/helpers/Strings.sol\":678:698  uint256 temp = value */\n      swap1\n      pop\n        /* \"contracts/helpers/Strings.sol\":709:723  uint256 digits */\n      0x00\n        /* \"contracts/helpers/Strings.sol\":734:812  while (temp != 0) {\r... */\n    tag_167:\n        /* \"contracts/helpers/Strings.sol\":749:750  0 */\n      0x00\n        /* \"contracts/helpers/Strings.sol\":741:745  temp */\n      dup3\n        /* \"contracts/helpers/Strings.sol\":741:750  temp != 0 */\n      eq\n        /* \"contracts/helpers/Strings.sol\":734:812  while (temp != 0) {\r... */\n      tag_168\n      jumpi\n        /* \"contracts/helpers/Strings.sol\":767:775  digits++ */\n      dup1\n      dup1\n      tag_169\n      swap1\n      tag_170\n      jump\t// in\n    tag_169:\n      swap2\n      pop\n      pop\n        /* \"contracts/helpers/Strings.sol\":798:800  10 */\n      0x0a\n        /* \"contracts/helpers/Strings.sol\":790:800  temp /= 10 */\n      dup3\n      tag_171\n      swap2\n      swap1\n      tag_172\n      jump\t// in\n    tag_171:\n      swap2\n      pop\n        /* \"contracts/helpers/Strings.sol\":734:812  while (temp != 0) {\r... */\n      jump(tag_167)\n    tag_168:\n        /* \"contracts/helpers/Strings.sol\":822:841  bytes memory buffer */\n      0x00\n        /* \"contracts/helpers/Strings.sol\":854:860  digits */\n      dup2\n        /* \"contracts/helpers/Strings.sol\":844:861  new bytes(digits) */\n      0xffffffffffffffff\n      dup2\n      gt\n      iszero\n      tag_173\n      jumpi\n      tag_174\n      tag_175\n      jump\t// in\n    tag_174:\n    tag_173:\n      mload(0x40)\n      swap1\n      dup1\n      dup3\n      mstore\n      dup1\n      0x1f\n      add\n      not(0x1f)\n      and\n      0x20\n      add\n      dup3\n      add\n      0x40\n      mstore\n      dup1\n      iszero\n      tag_176\n      jumpi\n      dup2\n      0x20\n      add\n      0x01\n      dup3\n      mul\n      dup1\n      calldatasize\n      dup4\n      calldatacopy\n      dup1\n      dup3\n      add\n      swap2\n      pop\n      pop\n      swap1\n      pop\n    tag_176:\n      pop\n        /* \"contracts/helpers/Strings.sol\":822:861  bytes memory buffer = new bytes(digits) */\n      swap1\n      pop\n        /* \"contracts/helpers/Strings.sol\":872:1026  while (value != 0) {\r... */\n    tag_177:\n        /* \"contracts/helpers/Strings.sol\":888:889  0 */\n      0x00\n        /* \"contracts/helpers/Strings.sol\":879:884  value */\n      dup6\n        /* \"contracts/helpers/Strings.sol\":879:889  value != 0 */\n      eq\n        /* \"contracts/helpers/Strings.sol\":872:1026  while (value != 0) {\r... */\n      tag_178\n      jumpi\n        /* \"contracts/helpers/Strings.sol\":916:917  1 */\n      0x01\n        /* \"contracts/helpers/Strings.sol\":906:917  digits -= 1 */\n      dup3\n      tag_179\n      swap2\n      swap1\n      tag_159\n      jump\t// in\n    tag_179:\n      swap2\n      pop\n        /* \"contracts/helpers/Strings.sol\":983:985  10 */\n      0x0a\n        /* \"contracts/helpers/Strings.sol\":975:980  value */\n      dup6\n        /* \"contracts/helpers/Strings.sol\":975:985  value % 10 */\n      tag_180\n      swap2\n      swap1\n      tag_181\n      jump\t// in\n    tag_180:\n        /* \"contracts/helpers/Strings.sol\":962:964  48 */\n      0x30\n        /* \"contracts/helpers/Strings.sol\":962:986  48 + uint256(value % 10) */\n      tag_182\n      swap2\n      swap1\n      tag_156\n      jump\t// in\n    tag_182:\n        /* \"contracts/helpers/Strings.sol\":949:988  bytes1(uint8(48 + uint256(value % 10))) */\n      0xf8\n      shl\n        /* \"contracts/helpers/Strings.sol\":932:938  buffer */\n      dup2\n        /* \"contracts/helpers/Strings.sol\":939:945  digits */\n      dup4\n        /* \"contracts/helpers/Strings.sol\":932:946  buffer[digits] */\n      dup2\n      mload\n      dup2\n      lt\n      tag_183\n      jumpi\n      tag_184\n      tag_185\n      jump\t// in\n    tag_184:\n    tag_183:\n      0x20\n      add\n      add\n        /* \"contracts/helpers/Strings.sol\":932:988  buffer[digits] = bytes1(uint8(48 + uint256(value % 10))) */\n      swap1\n      not(0xffffffffffffffffffffffffffffffffffffffffffffffffffffffffffffff)\n      and\n      swap1\n      dup2\n      0x00\n      byte\n      swap1\n      mstore8\n      pop\n        /* \"contracts/helpers/Strings.sol\":1012:1014  10 */\n      0x0a\n        /* \"contracts/helpers/Strings.sol\":1003:1014  value /= 10 */\n      dup6\n      tag_186\n      swap2\n      swap1\n      tag_172\n      jump\t// in\n    tag_186:\n      swap5\n      pop\n        /* \"contracts/helpers/Strings.sol\":872:1026  while (value != 0) {\r... */\n      jump(tag_177)\n    tag_178:\n        /* \"contracts/helpers/Strings.sol\":1050:1056  buffer */\n      dup1\n        /* \"contracts/helpers/Strings.sol\":1036:1057  return string(buffer) */\n      swap4\n      pop\n      pop\n      pop\n      pop\n        /* \"contracts/helpers/Strings.sol\":342:1065  function toString(uint256 value) internal pure returns (string memory) {\r... */\n    tag_165:\n      swap2\n      swap1\n      pop\n      jump\t// out\n        /* \"contracts/helpers/Ownable.sol\":2333:2524  function _transferOwnership(address newOwner) internal virtual {\r... */\n    tag_135:\n        /* \"contracts/helpers/Ownable.sol\":2407:2423  address oldOwner */\n      0x00\n        /* \"contracts/helpers/Ownable.sol\":2426:2432  _owner */\n      dup1\n      0x00\n      swap1\n      sload\n      swap1\n      0x0100\n      exp\n      swap1\n      div\n      0xffffffffffffffffffffffffffffffffffffffff\n      and\n        /* \"contracts/helpers/Ownable.sol\":2407:2432  address oldOwner = _owner */\n      swap1\n      pop\n        /* \"contracts/helpers/Ownable.sol\":2452:2460  newOwner */\n      dup2\n        /* \"contracts/helpers/Ownable.sol\":2443:2449  _owner */\n      0x00\n      dup1\n        /* \"contracts/helpers/Ownable.sol\":2443:2460  _owner = newOwner */\n      0x0100\n      exp\n      dup2\n      sload\n      dup2\n      0xffffffffffffffffffffffffffffffffffffffff\n      mul\n      not\n      and\n      swap1\n      dup4\n      0xffffffffffffffffffffffffffffffffffffffff\n      and\n      mul\n      or\n      swap1\n      sstore\n      pop\n        /* \"contracts/helpers/Ownable.sol\":2507:2515  newOwner */\n      dup2\n        /* \"contracts/helpers/Ownable.sol\":2476:2516  OwnershipTransferred(oldOwner, newOwner) */\n      0xffffffffffffffffffffffffffffffffffffffff\n      and\n        /* \"contracts/helpers/Ownable.sol\":2497:2505  oldOwner */\n      dup2\n        /* \"contracts/helpers/Ownable.sol\":2476:2516  OwnershipTransferred(oldOwner, newOwner) */\n      0xffffffffffffffffffffffffffffffffffffffff\n      and\n      0x8be0079c531659141344cd1fd0a4f28419497f9722a3daafe3b4186f6b6457e0\n      mload(0x40)\n      mload(0x40)\n      dup1\n      swap2\n      sub\n      swap1\n      log3\n        /* \"contracts/helpers/Ownable.sol\":2396:2524  {\r... */\n      pop\n        /* \"contracts/helpers/Ownable.sol\":2333:2524  function _transferOwnership(address newOwner) internal virtual {\r... */\n      pop\n      jump\t// out\n        /* \"contracts/helpers/SafeERC20.sol\":3280:3996  function _callOptionalReturn(IERC20 token, bytes memory data) private {\r... */\n    tag_164:\n        /* \"contracts/helpers/SafeERC20.sol\":3704:3727  bytes memory returndata */\n      0x00\n        /* \"contracts/helpers/SafeERC20.sol\":3730:3799  address(token).functionCall(data, \"SafeERC20: low-level call failed\") */\n      tag_189\n        /* \"contracts/helpers/SafeERC20.sol\":3758:3762  data */\n      dup3\n        /* \"contracts/helpers/SafeERC20.sol\":3730:3799  address(token).functionCall(data, \"SafeERC20: low-level call failed\") */\n      mload(0x40)\n      dup1\n      0x40\n      add\n      0x40\n      mstore\n      dup1\n      0x20\n      dup2\n      mstore\n      0x20\n      add\n      0x5361666545524332303a206c6f772d6c6576656c2063616c6c206661696c6564\n      dup2\n      mstore\n      pop\n        /* \"contracts/helpers/SafeERC20.sol\":3738:3743  token */\n      dup6\n        /* \"contracts/helpers/SafeERC20.sol\":3730:3757  address(token).functionCall */\n      0xffffffffffffffffffffffffffffffffffffffff\n      and\n      tag_190\n      swap1\n        /* \"contracts/helpers/SafeERC20.sol\":3730:3799  address(token).functionCall(data, \"SafeERC20: low-level call failed\") */\n      swap3\n      swap2\n      swap1\n      0xffffffff\n      and\n      jump\t// in\n    tag_189:\n        /* \"contracts/helpers/SafeERC20.sol\":3704:3799  bytes memory returndata = address(token).functionCall(data, \"SafeERC20: low-level call failed\") */\n      swap1\n      pop\n        /* \"contracts/helpers/SafeERC20.sol\":3834:3835  0 */\n      0x00\n        /* \"contracts/helpers/SafeERC20.sol\":3814:3824  returndata */\n      dup2\n        /* \"contracts/helpers/SafeERC20.sol\":3814:3831  returndata.length */\n      mload\n        /* \"contracts/helpers/SafeERC20.sol\":3814:3835  returndata.length > 0 */\n      gt\n        /* \"contracts/helpers/SafeERC20.sol\":3810:3989  if (returndata.length > 0) {\r... */\n      iszero\n      tag_191\n      jumpi\n        /* \"contracts/helpers/SafeERC20.sol\":3911:3921  returndata */\n      dup1\n        /* \"contracts/helpers/SafeERC20.sol\":3900:3930  abi.decode(returndata, (bool)) */\n      dup1\n      0x20\n      add\n      swap1\n      mload\n      dup2\n      add\n      swap1\n      tag_192\n      swap2\n      swap1\n      tag_193\n      jump\t// in\n    tag_192:\n        /* \"contracts/helpers/SafeERC20.sol\":3892:3977  require(abi.decode(returndata, (bool)), \"SafeERC20: ERC20 operation did not succeed\") */\n      tag_194\n      jumpi\n      mload(0x40)\n      0x08c379a000000000000000000000000000000000000000000000000000000000\n      dup2\n      mstore\n      0x04\n      add\n      tag_195\n      swap1\n      tag_196\n      jump\t// in\n    tag_195:\n      mload(0x40)\n      dup1\n      swap2\n      sub\n      swap1\n      revert\n    tag_194:\n        /* \"contracts/helpers/SafeERC20.sol\":3810:3989  if (returndata.length > 0) {\r... */\n    tag_191:\n        /* \"contracts/helpers/SafeERC20.sol\":3350:3996  {\r... */\n      pop\n        /* \"contracts/helpers/SafeERC20.sol\":3280:3996  function _callOptionalReturn(IERC20 token, bytes memory data) private {\r... */\n      pop\n      pop\n      jump\t// out\n        /* \"contracts/helpers/Address.sol\":3940:4169  function functionCall(\r... */\n    tag_190:\n        /* \"contracts/helpers/Address.sol\":4077:4089  bytes memory */\n      0x60\n        /* \"contracts/helpers/Address.sol\":4109:4161  functionCallWithValue(target, data, 0, errorMessage) */\n      tag_198\n        /* \"contracts/helpers/Address.sol\":4131:4137  target */\n      dup5\n        /* \"contracts/helpers/Address.sol\":4139:4143  data */\n      dup5\n        /* \"contracts/helpers/Address.sol\":4145:4146  0 */\n      0x00\n        /* \"contracts/helpers/Address.sol\":4148:4160  errorMessage */\n      dup6\n        /* \"contracts/helpers/Address.sol\":4109:4130  functionCallWithValue */\n      tag_199\n        /* \"contracts/helpers/Address.sol\":4109:4161  functionCallWithValue(target, data, 0, errorMessage) */\n      jump\t// in\n    tag_198:\n        /* \"contracts/helpers/Address.sol\":4102:4161  return functionCallWithValue(target, data, 0, errorMessage) */\n      swap1\n      pop\n        /* \"contracts/helpers/Address.sol\":3940:4169  function functionCall(\r... */\n      swap4\n      swap3\n      pop\n      pop\n      pop\n      jump\t// out\n        /* \"contracts/helpers/Address.sol\":5060:5570  function functionCallWithValue(\r... */\n    tag_199:\n        /* \"contracts/helpers/Address.sol\":5230:5242  bytes memory */\n      0x60\n        /* \"contracts/helpers/Address.sol\":5288:5293  value */\n      dup3\n        /* \"contracts/helpers/Address.sol\":5263:5284  address(this).balance */\n      selfbalance\n        /* \"contracts/helpers/Address.sol\":5263:5293  address(this).balance >= value */\n      lt\n      iszero\n        /* \"contracts/helpers/Address.sol\":5255:5336  require(address(this).balance >= value, \"Address: insufficient balance for call\") */\n      tag_201\n      jumpi\n      mload(0x40)\n      0x08c379a000000000000000000000000000000000000000000000000000000000\n      dup2\n      mstore\n      0x04\n      add\n      tag_202\n      swap1\n      tag_203\n      jump\t// in\n    tag_202:\n      mload(0x40)\n      dup1\n      swap2\n      sub\n      swap1\n      revert\n    tag_201:\n        /* \"contracts/helpers/Address.sol\":5355:5373  isContract(target) */\n      tag_204\n        /* \"contracts/helpers/Address.sol\":5366:5372  target */\n      dup6\n        /* \"contracts/helpers/Address.sol\":5355:5365  isContract */\n      tag_205\n        /* \"contracts/helpers/Address.sol\":5355:5373  isContract(target) */\n      jump\t// in\n    tag_204:\n        /* \"contracts/helpers/Address.sol\":5347:5407  require(isContract(target), \"Address: call to non-contract\") */\n      tag_206\n      jumpi\n      mload(0x40)\n      0x08c379a000000000000000000000000000000000000000000000000000000000\n      dup2\n      mstore\n      0x04\n      add\n      tag_207\n      swap1\n      tag_208\n      jump\t// in\n    tag_207:\n      mload(0x40)\n      dup1\n      swap2\n      sub\n      swap1\n      revert\n    tag_206:\n        /* \"contracts/helpers/Address.sol\":5421:5433  bool success */\n      0x00\n        /* \"contracts/helpers/Address.sol\":5435:5458  bytes memory returndata */\n      dup1\n        /* \"contracts/helpers/Address.sol\":5462:5468  target */\n      dup7\n        /* \"contracts/helpers/Address.sol\":5462:5473  target.call */\n      0xffffffffffffffffffffffffffffffffffffffff\n      and\n        /* \"contracts/helpers/Address.sol\":5481:5486  value */\n      dup6\n        /* \"contracts/helpers/Address.sol\":5488:5492  data */\n      dup8\n        /* \"contracts/helpers/Address.sol\":5462:5493  target.call{value: value}(data) */\n      mload(0x40)\n      tag_209\n      swap2\n      swap1\n      tag_210\n      jump\t// in\n    tag_209:\n      0x00\n      mload(0x40)\n      dup1\n      dup4\n      sub\n      dup2\n      dup6\n      dup8\n      gas\n      call\n      swap3\n      pop\n      pop\n      pop\n      returndatasize\n      dup1\n      0x00\n      dup2\n      eq\n      tag_213\n      jumpi\n      mload(0x40)\n      swap2\n      pop\n      and(add(returndatasize, 0x3f), not(0x1f))\n      dup3\n      add\n      0x40\n      mstore\n      returndatasize\n      dup3\n      mstore\n      returndatasize\n      0x00\n      0x20\n      dup5\n      add\n      returndatacopy\n      jump(tag_212)\n    tag_213:\n      0x60\n      swap2\n      pop\n    tag_212:\n      pop\n        /* \"contracts/helpers/Address.sol\":5420:5493  (bool success, bytes memory returndata) = target.call{value: value}(data) */\n      swap2\n      pop\n      swap2\n      pop\n        /* \"contracts/helpers/Address.sol\":5511:5562  verifyCallResult(success, returndata, errorMessage) */\n      tag_214\n        /* \"contracts/helpers/Address.sol\":5528:5535  success */\n      dup3\n        /* \"contracts/helpers/Address.sol\":5537:5547  returndata */\n      dup3\n        /* \"contracts/helpers/Address.sol\":5549:5561  errorMessage */\n      dup7\n        /* \"contracts/helpers/Address.sol\":5511:5527  verifyCallResult */\n      tag_215\n        /* \"contracts/helpers/Address.sol\":5511:5562  verifyCallResult(success, returndata, errorMessage) */\n      jump\t// in\n    tag_214:\n        /* \"contracts/helpers/Address.sol\":5504:5562  return verifyCallResult(success, returndata, errorMessage) */\n      swap3\n      pop\n      pop\n      pop\n        /* \"contracts/helpers/Address.sol\":5060:5570  function functionCallWithValue(\r... */\n      swap5\n      swap4\n      pop\n      pop\n      pop\n      pop\n      jump\t// out\n        /* \"contracts/helpers/Address.sol\":1195:1521  function isContract(address account) internal view returns (bool) {\r... */\n    tag_205:\n        /* \"contracts/helpers/Address.sol\":1255:1259  bool */\n      0x00\n        /* \"contracts/helpers/Address.sol\":1512:1513  0 */\n      dup1\n        /* \"contracts/helpers/Address.sol\":1490:1497  account */\n      dup3\n        /* \"contracts/helpers/Address.sol\":1490:1509  account.code.length */\n      0xffffffffffffffffffffffffffffffffffffffff\n      and\n      extcodesize\n        /* \"contracts/helpers/Address.sol\":1490:1513  account.code.length > 0 */\n      gt\n        /* \"contracts/helpers/Address.sol\":1483:1513  return account.code.length > 0 */\n      swap1\n      pop\n        /* \"contracts/helpers/Address.sol\":1195:1521  function isContract(address account) internal view returns (bool) {\r... */\n      swap2\n      swap1\n      pop\n      jump\t// out\n        /* \"contracts/helpers/Address.sol\":7746:8458  function verifyCallResult(\r... */\n    tag_215:\n        /* \"contracts/helpers/Address.sol\":7896:7908  bytes memory */\n      0x60\n        /* \"contracts/helpers/Address.sol\":7925:7932  success */\n      dup4\n        /* \"contracts/helpers/Address.sol\":7921:8451  if (success) {\r... */\n      iszero\n      tag_218\n      jumpi\n        /* \"contracts/helpers/Address.sol\":7956:7966  returndata */\n      dup3\n        /* \"contracts/helpers/Address.sol\":7949:7966  return returndata */\n      swap1\n      pop\n      jump(tag_217)\n        /* \"contracts/helpers/Address.sol\":7921:8451  if (success) {\r... */\n    tag_218:\n        /* \"contracts/helpers/Address.sol\":8090:8091  0 */\n      0x00\n        /* \"contracts/helpers/Address.sol\":8070:8080  returndata */\n      dup4\n        /* \"contracts/helpers/Address.sol\":8070:8087  returndata.length */\n      mload\n        /* \"contracts/helpers/Address.sol\":8070:8091  returndata.length > 0 */\n      gt\n        /* \"contracts/helpers/Address.sol\":8066:8440  if (returndata.length > 0) {\r... */\n      iszero\n      tag_220\n      jumpi\n        /* \"contracts/helpers/Address.sol\":8268:8278  returndata */\n      dup3\n        /* \"contracts/helpers/Address.sol\":8262:8279  mload(returndata) */\n      mload\n        /* \"contracts/helpers/Address.sol\":8329:8344  returndata_size */\n      dup1\n        /* \"contracts/helpers/Address.sol\":8316:8326  returndata */\n      dup5\n        /* \"contracts/helpers/Address.sol\":8312:8314  32 */\n      0x20\n        /* \"contracts/helpers/Address.sol\":8308:8327  add(32, returndata) */\n      add\n        /* \"contracts/helpers/Address.sol\":8301:8345  revert(add(32, returndata), returndata_size) */\n      revert\n        /* \"contracts/helpers/Address.sol\":8066:8440  if (returndata.length > 0) {\r... */\n    tag_220:\n        /* \"contracts/helpers/Address.sol\":8411:8423  errorMessage */\n      dup2\n        /* \"contracts/helpers/Address.sol\":8404:8424  revert(errorMessage) */\n      mload(0x40)\n      0x08c379a000000000000000000000000000000000000000000000000000000000\n      dup2\n      mstore\n      0x04\n      add\n      tag_222\n      swap2\n      swap1\n      tag_223\n      jump\t// in\n    tag_222:\n      mload(0x40)\n      dup1\n      swap2\n      sub\n      swap1\n      revert\n        /* \"contracts/helpers/Address.sol\":7746:8458  function verifyCallResult(\r... */\n    tag_217:\n      swap4\n      swap3\n      pop\n      pop\n      pop\n      jump\t// out\n    tag_61:\n      mload(0x40)\n      dup1\n      0xe0\n      add\n      0x40\n      mstore\n      dup1\n      0x60\n      dup2\n      mstore\n      0x20\n      add\n      0x60\n      dup2\n      mstore\n      0x20\n      add\n      and(0xffffffffffffffffffffffffffffffffffffffff, 0x00)\n      dup2\n      mstore\n      0x20\n      add\n      0x00\n      dup2\n      mstore\n      0x20\n      add\n      0x00\n      dup2\n      mstore\n      0x20\n      add\n      0x00\n      dup2\n      mstore\n      0x20\n      add\n      and(0xffffffffffffffffffffffffffffffffffffffff, 0x00)\n      dup2\n      mstore\n      pop\n      swap1\n      jump\t// out\n    tag_112:\n      dup3\n      dup1\n      sload\n      tag_224\n      swap1\n      tag_66\n      jump\t// in\n    tag_224:\n      swap1\n      0x00\n      mstore\n      keccak256(0x00, 0x20)\n      swap1\n      0x1f\n      add\n      0x20\n      swap1\n      div\n      dup2\n      add\n      swap3\n      dup3\n      tag_226\n      jumpi\n      0x00\n      dup6\n      sstore\n      jump(tag_225)\n    tag_226:\n      dup3\n      0x1f\n      lt\n      tag_227\n      jumpi\n      dup1\n      mload\n      not(0xff)\n      and\n      dup4\n      dup1\n      add\n      or\n      dup6\n      sstore\n      jump(tag_225)\n    tag_227:\n      dup3\n      dup1\n      add\n      0x01\n      add\n      dup6\n      sstore\n      dup3\n      iszero\n      tag_225\n      jumpi\n      swap2\n      dup3\n      add\n    tag_228:\n      dup3\n      dup2\n      gt\n      iszero\n      tag_229\n      jumpi\n      dup3\n      mload\n      dup3\n      sstore\n      swap2\n      0x20\n      add\n      swap2\n      swap1\n      0x01\n      add\n      swap1\n      jump(tag_228)\n    tag_229:\n    tag_225:\n      pop\n      swap1\n      pop\n      tag_230\n      swap2\n      swap1\n      tag_231\n      jump\t// in\n    tag_230:\n      pop\n      swap1\n      jump\t// out\n    tag_231:\n    tag_232:\n      dup1\n      dup3\n      gt\n      iszero\n      tag_233\n      jumpi\n      0x00\n      dup2\n      0x00\n      swap1\n      sstore\n      pop\n      0x01\n      add\n      jump(tag_232)\n    tag_233:\n      pop\n      swap1\n      jump\t// out\n        /* \"#utility.yul\":7:419   */\n    tag_235:\n        /* \"#utility.yul\":85:90   */\n      0x00\n        /* \"#utility.yul\":110:176   */\n      tag_237\n        /* \"#utility.yul\":126:175   */\n      tag_238\n        /* \"#utility.yul\":168:174   */\n      dup5\n        /* \"#utility.yul\":126:175   */\n      tag_239\n      jump\t// in\n    tag_238:\n        /* \"#utility.yul\":110:176   */\n      tag_240\n      jump\t// in\n    tag_237:\n        /* \"#utility.yul\":101:176   */\n      swap1\n      pop\n        /* \"#utility.yul\":199:205   */\n      dup3\n        /* \"#utility.yul\":192:197   */\n      dup2\n        /* \"#utility.yul\":185:206   */\n      mstore\n        /* \"#utility.yul\":237:241   */\n      0x20\n        /* \"#utility.yul\":230:235   */\n      dup2\n        /* \"#utility.yul\":226:242   */\n      add\n        /* \"#utility.yul\":275:278   */\n      dup5\n        /* \"#utility.yul\":266:272   */\n      dup5\n        /* \"#utility.yul\":261:264   */\n      dup5\n        /* \"#utility.yul\":257:273   */\n      add\n        /* \"#utility.yul\":254:279   */\n      gt\n        /* \"#utility.yul\":251:363   */\n      iszero\n      tag_241\n      jumpi\n        /* \"#utility.yul\":282:361   */\n      tag_242\n      tag_243\n      jump\t// in\n    tag_242:\n        /* \"#utility.yul\":251:363   */\n    tag_241:\n        /* \"#utility.yul\":372:413   */\n      tag_244\n        /* \"#utility.yul\":406:412   */\n      dup5\n        /* \"#utility.yul\":401:404   */\n      dup3\n        /* \"#utility.yul\":396:399   */\n      dup6\n        /* \"#utility.yul\":372:413   */\n      tag_245\n      jump\t// in\n    tag_244:\n        /* \"#utility.yul\":91:419   */\n      pop\n        /* \"#utility.yul\":7:419   */\n      swap4\n      swap3\n      pop\n      pop\n      pop\n      jump\t// out\n        /* \"#utility.yul\":425:564   */\n    tag_246:\n        /* \"#utility.yul\":471:476   */\n      0x00\n        /* \"#utility.yul\":509:515   */\n      dup2\n        /* \"#utility.yul\":496:516   */\n      calldataload\n        /* \"#utility.yul\":487:516   */\n      swap1\n      pop\n        /* \"#utility.yul\":525:558   */\n      tag_248\n        /* \"#utility.yul\":552:557   */\n      dup2\n        /* \"#utility.yul\":525:558   */\n      tag_249\n      jump\t// in\n    tag_248:\n        /* \"#utility.yul\":425:564   */\n      swap3\n      swap2\n      pop\n      pop\n      jump\t// out\n        /* \"#utility.yul\":570:725   */\n    tag_250:\n        /* \"#utility.yul\":624:629   */\n      0x00\n        /* \"#utility.yul\":662:668   */\n      dup2\n        /* \"#utility.yul\":649:669   */\n      calldataload\n        /* \"#utility.yul\":640:669   */\n      swap1\n      pop\n        /* \"#utility.yul\":678:719   */\n      tag_252\n        /* \"#utility.yul\":713:718   */\n      dup2\n        /* \"#utility.yul\":678:719   */\n      tag_253\n      jump\t// in\n    tag_252:\n        /* \"#utility.yul\":570:725   */\n      swap3\n      swap2\n      pop\n      pop\n      jump\t// out\n        /* \"#utility.yul\":731:868   */\n    tag_254:\n        /* \"#utility.yul\":785:790   */\n      0x00\n        /* \"#utility.yul\":816:822   */\n      dup2\n        /* \"#utility.yul\":810:823   */\n      mload\n        /* \"#utility.yul\":801:823   */\n      swap1\n      pop\n        /* \"#utility.yul\":832:862   */\n      tag_256\n        /* \"#utility.yul\":856:861   */\n      dup2\n        /* \"#utility.yul\":832:862   */\n      tag_257\n      jump\t// in\n    tag_256:\n        /* \"#utility.yul\":731:868   */\n      swap3\n      swap2\n      pop\n      pop\n      jump\t// out\n        /* \"#utility.yul\":888:1228   */\n    tag_258:\n        /* \"#utility.yul\":944:949   */\n      0x00\n        /* \"#utility.yul\":993:996   */\n      dup3\n        /* \"#utility.yul\":986:990   */\n      0x1f\n        /* \"#utility.yul\":978:984   */\n      dup4\n        /* \"#utility.yul\":974:991   */\n      add\n        /* \"#utility.yul\":970:997   */\n      slt\n        /* \"#utility.yul\":960:1082   */\n      tag_260\n      jumpi\n        /* \"#utility.yul\":1001:1080   */\n      tag_261\n      tag_262\n      jump\t// in\n    tag_261:\n        /* \"#utility.yul\":960:1082   */\n    tag_260:\n        /* \"#utility.yul\":1118:1124   */\n      dup2\n        /* \"#utility.yul\":1105:1125   */\n      calldataload\n        /* \"#utility.yul\":1143:1222   */\n      tag_263\n        /* \"#utility.yul\":1218:1221   */\n      dup5\n        /* \"#utility.yul\":1210:1216   */\n      dup3\n        /* \"#utility.yul\":1203:1207   */\n      0x20\n        /* \"#utility.yul\":1195:1201   */\n      dup7\n        /* \"#utility.yul\":1191:1208   */\n      add\n        /* \"#utility.yul\":1143:1222   */\n      tag_235\n      jump\t// in\n    tag_263:\n        /* \"#utility.yul\":1134:1222   */\n      swap2\n      pop\n        /* \"#utility.yul\":950:1228   */\n      pop\n        /* \"#utility.yul\":888:1228   */\n      swap3\n      swap2\n      pop\n      pop\n      jump\t// out\n        /* \"#utility.yul\":1234:1373   */\n    tag_264:\n        /* \"#utility.yul\":1280:1285   */\n      0x00\n        /* \"#utility.yul\":1318:1324   */\n      dup2\n        /* \"#utility.yul\":1305:1325   */\n      calldataload\n        /* \"#utility.yul\":1296:1325   */\n      swap1\n      pop\n        /* \"#utility.yul\":1334:1367   */\n      tag_266\n        /* \"#utility.yul\":1361:1366   */\n      dup2\n        /* \"#utility.yul\":1334:1367   */\n      tag_267\n      jump\t// in\n    tag_266:\n        /* \"#utility.yul\":1234:1373   */\n      swap3\n      swap2\n      pop\n      pop\n      jump\t// out\n        /* \"#utility.yul\":1379:1522   */\n    tag_268:\n        /* \"#utility.yul\":1436:1441   */\n      0x00\n        /* \"#utility.yul\":1467:1473   */\n      dup2\n        /* \"#utility.yul\":1461:1474   */\n      mload\n        /* \"#utility.yul\":1452:1474   */\n      swap1\n      pop\n        /* \"#utility.yul\":1483:1516   */\n      tag_270\n        /* \"#utility.yul\":1510:1515   */\n      dup2\n        /* \"#utility.yul\":1483:1516   */\n      tag_267\n      jump\t// in\n    tag_270:\n        /* \"#utility.yul\":1379:1522   */\n      swap3\n      swap2\n      pop\n      pop\n      jump\t// out\n        /* \"#utility.yul\":1528:1857   */\n    tag_23:\n        /* \"#utility.yul\":1587:1593   */\n      0x00\n        /* \"#utility.yul\":1636:1638   */\n      0x20\n        /* \"#utility.yul\":1624:1633   */\n      dup3\n        /* \"#utility.yul\":1615:1622   */\n      dup5\n        /* \"#utility.yul\":1611:1634   */\n      sub\n        /* \"#utility.yul\":1607:1639   */\n      slt\n        /* \"#utility.yul\":1604:1723   */\n      iszero\n      tag_272\n      jumpi\n        /* \"#utility.yul\":1642:1721   */\n      tag_273\n      tag_274\n      jump\t// in\n    tag_273:\n        /* \"#utility.yul\":1604:1723   */\n    tag_272:\n        /* \"#utility.yul\":1762:1763   */\n      0x00\n        /* \"#utility.yul\":1787:1840   */\n      tag_275\n        /* \"#utility.yul\":1832:1839   */\n      dup5\n        /* \"#utility.yul\":1823:1829   */\n      dup3\n        /* \"#utility.yul\":1812:1821   */\n      dup6\n        /* \"#utility.yul\":1808:1830   */\n      add\n        /* \"#utility.yul\":1787:1840   */\n      tag_246\n      jump\t// in\n    tag_275:\n        /* \"#utility.yul\":1777:1840   */\n      swap2\n      pop\n        /* \"#utility.yul\":1733:1850   */\n      pop\n        /* \"#utility.yul\":1528:1857   */\n      swap3\n      swap2\n      pop\n      pop\n      jump\t// out\n        /* \"#utility.yul\":1863:2208   */\n    tag_51:\n        /* \"#utility.yul\":1930:1936   */\n      0x00\n        /* \"#utility.yul\":1979:1981   */\n      0x20\n        /* \"#utility.yul\":1967:1976   */\n      dup3\n        /* \"#utility.yul\":1958:1965   */\n      dup5\n        /* \"#utility.yul\":1954:1977   */\n      sub\n        /* \"#utility.yul\":1950:1982   */\n      slt\n        /* \"#utility.yul\":1947:2066   */\n      iszero\n      tag_277\n      jumpi\n        /* \"#utility.yul\":1985:2064   */\n      tag_278\n      tag_274\n      jump\t// in\n    tag_278:\n        /* \"#utility.yul\":1947:2066   */\n    tag_277:\n        /* \"#utility.yul\":2105:2106   */\n      0x00\n        /* \"#utility.yul\":2130:2191   */\n      tag_279\n        /* \"#utility.yul\":2183:2190   */\n      dup5\n        /* \"#utility.yul\":2174:2180   */\n      dup3\n        /* \"#utility.yul\":2163:2172   */\n      dup6\n        /* \"#utility.yul\":2159:2181   */\n      add\n        /* \"#utility.yul\":2130:2191   */\n      tag_250\n      jump\t// in\n    tag_279:\n        /* \"#utility.yul\":2120:2191   */\n      swap2\n      pop\n        /* \"#utility.yul\":2076:2201   */\n      pop\n        /* \"#utility.yul\":1863:2208   */\n      swap3\n      swap2\n      pop\n      pop\n      jump\t// out\n        /* \"#utility.yul\":2214:2868   */\n    tag_17:\n        /* \"#utility.yul\":2292:2298   */\n      0x00\n        /* \"#utility.yul\":2300:2306   */\n      dup1\n        /* \"#utility.yul\":2349:2351   */\n      0x40\n        /* \"#utility.yul\":2337:2346   */\n      dup4\n        /* \"#utility.yul\":2328:2335   */\n      dup6\n        /* \"#utility.yul\":2324:2347   */\n      sub\n        /* \"#utility.yul\":2320:2352   */\n      slt\n        /* \"#utility.yul\":2317:2436   */\n      iszero\n      tag_281\n      jumpi\n        /* \"#utility.yul\":2355:2434   */\n      tag_282\n      tag_274\n      jump\t// in\n    tag_282:\n        /* \"#utility.yul\":2317:2436   */\n    tag_281:\n        /* \"#utility.yul\":2475:2476   */\n      0x00\n        /* \"#utility.yul\":2500:2553   */\n      tag_283\n        /* \"#utility.yul\":2545:2552   */\n      dup6\n        /* \"#utility.yul\":2536:2542   */\n      dup3\n        /* \"#utility.yul\":2525:2534   */\n      dup7\n        /* \"#utility.yul\":2521:2543   */\n      add\n        /* \"#utility.yul\":2500:2553   */\n      tag_246\n      jump\t// in\n    tag_283:\n        /* \"#utility.yul\":2490:2553   */\n      swap3\n      pop\n        /* \"#utility.yul\":2446:2563   */\n      pop\n        /* \"#utility.yul\":2630:2632   */\n      0x20\n        /* \"#utility.yul\":2619:2628   */\n      dup4\n        /* \"#utility.yul\":2615:2633   */\n      add\n        /* \"#utility.yul\":2602:2634   */\n      calldataload\n        /* \"#utility.yul\":2661:2679   */\n      0xffffffffffffffff\n        /* \"#utility.yul\":2653:2659   */\n      dup2\n        /* \"#utility.yul\":2650:2680   */\n      gt\n        /* \"#utility.yul\":2647:2764   */\n      iszero\n      tag_284\n      jumpi\n        /* \"#utility.yul\":2683:2762   */\n      tag_285\n      tag_286\n      jump\t// in\n    tag_285:\n        /* \"#utility.yul\":2647:2764   */\n    tag_284:\n        /* \"#utility.yul\":2788:2851   */\n      tag_287\n        /* \"#utility.yul\":2843:2850   */\n      dup6\n        /* \"#utility.yul\":2834:2840   */\n      dup3\n        /* \"#utility.yul\":2823:2832   */\n      dup7\n        /* \"#utility.yul\":2819:2841   */\n      add\n        /* \"#utility.yul\":2788:2851   */\n      tag_258\n      jump\t// in\n    tag_287:\n        /* \"#utility.yul\":2778:2851   */\n      swap2\n      pop\n        /* \"#utility.yul\":2573:2861   */\n      pop\n        /* \"#utility.yul\":2214:2868   */\n      swap3\n      pop\n      swap3\n      swap1\n      pop\n      jump\t// out\n        /* \"#utility.yul\":2874:3219   */\n    tag_193:\n        /* \"#utility.yul\":2941:2947   */\n      0x00\n        /* \"#utility.yul\":2990:2992   */\n      0x20\n        /* \"#utility.yul\":2978:2987   */\n      dup3\n        /* \"#utility.yul\":2969:2976   */\n      dup5\n        /* \"#utility.yul\":2965:2988   */\n      sub\n        /* \"#utility.yul\":2961:2993   */\n      slt\n        /* \"#utility.yul\":2958:3077   */\n      iszero\n      tag_289\n      jumpi\n        /* \"#utility.yul\":2996:3075   */\n      tag_290\n      tag_274\n      jump\t// in\n    tag_290:\n        /* \"#utility.yul\":2958:3077   */\n    tag_289:\n        /* \"#utility.yul\":3116:3117   */\n      0x00\n        /* \"#utility.yul\":3141:3202   */\n      tag_291\n        /* \"#utility.yul\":3194:3201   */\n      dup5\n        /* \"#utility.yul\":3185:3191   */\n      dup3\n        /* \"#utility.yul\":3174:3183   */\n      dup6\n        /* \"#utility.yul\":3170:3192   */\n      add\n        /* \"#utility.yul\":3141:3202   */\n      tag_254\n      jump\t// in\n    tag_291:\n        /* \"#utility.yul\":3131:3202   */\n      swap2\n      pop\n        /* \"#utility.yul\":3087:3212   */\n      pop\n        /* \"#utility.yul\":2874:3219   */\n      swap3\n      swap2\n      pop\n      pop\n      jump\t// out\n        /* \"#utility.yul\":3225:4170   */\n    tag_31:\n        /* \"#utility.yul\":3321:3327   */\n      0x00\n        /* \"#utility.yul\":3329:3335   */\n      dup1\n        /* \"#utility.yul\":3337:3343   */\n      0x00\n        /* \"#utility.yul\":3345:3351   */\n      dup1\n        /* \"#utility.yul\":3394:3397   */\n      0x80\n        /* \"#utility.yul\":3382:3391   */\n      dup6\n        /* \"#utility.yul\":3373:3380   */\n      dup8\n        /* \"#utility.yul\":3369:3392   */\n      sub\n        /* \"#utility.yul\":3365:3398   */\n      slt\n        /* \"#utility.yul\":3362:3482   */\n      iszero\n      tag_293\n      jumpi\n        /* \"#utility.yul\":3401:3480   */\n      tag_294\n      tag_274\n      jump\t// in\n    tag_294:\n        /* \"#utility.yul\":3362:3482   */\n    tag_293:\n        /* \"#utility.yul\":3549:3550   */\n      0x00\n        /* \"#utility.yul\":3538:3547   */\n      dup6\n        /* \"#utility.yul\":3534:3551   */\n      add\n        /* \"#utility.yul\":3521:3552   */\n      calldataload\n        /* \"#utility.yul\":3579:3597   */\n      0xffffffffffffffff\n        /* \"#utility.yul\":3571:3577   */\n      dup2\n        /* \"#utility.yul\":3568:3598   */\n      gt\n        /* \"#utility.yul\":3565:3682   */\n      iszero\n      tag_295\n      jumpi\n        /* \"#utility.yul\":3601:3680   */\n      tag_296\n      tag_286\n      jump\t// in\n    tag_296:\n        /* \"#utility.yul\":3565:3682   */\n    tag_295:\n        /* \"#utility.yul\":3706:3769   */\n      tag_297\n        /* \"#utility.yul\":3761:3768   */\n      dup8\n        /* \"#utility.yul\":3752:3758   */\n      dup3\n        /* \"#utility.yul\":3741:3750   */\n      dup9\n        /* \"#utility.yul\":3737:3759   */\n      add\n        /* \"#utility.yul\":3706:3769   */\n      tag_258\n      jump\t// in\n    tag_297:\n        /* \"#utility.yul\":3696:3769   */\n      swap5\n      pop\n        /* \"#utility.yul\":3492:3779   */\n      pop\n        /* \"#utility.yul\":3818:3820   */\n      0x20\n        /* \"#utility.yul\":3844:3897   */\n      tag_298\n        /* \"#utility.yul\":3889:3896   */\n      dup8\n        /* \"#utility.yul\":3880:3886   */\n      dup3\n        /* \"#utility.yul\":3869:3878   */\n      dup9\n        /* \"#utility.yul\":3865:3887   */\n      add\n        /* \"#utility.yul\":3844:3897   */\n      tag_264\n      jump\t// in\n    tag_298:\n        /* \"#utility.yul\":3834:3897   */\n      swap4\n      pop\n        /* \"#utility.yul\":3789:3907   */\n      pop\n        /* \"#utility.yul\":3946:3948   */\n      0x40\n        /* \"#utility.yul\":3972:4025   */\n      tag_299\n        /* \"#utility.yul\":4017:4024   */\n      dup8\n        /* \"#utility.yul\":4008:4014   */\n      dup3\n        /* \"#utility.yul\":3997:4006   */\n      dup9\n        /* \"#utility.yul\":3993:4015   */\n      add\n        /* \"#utility.yul\":3972:4025   */\n      tag_264\n      jump\t// in\n    tag_299:\n        /* \"#utility.yul\":3962:4025   */\n      swap3\n      pop\n        /* \"#utility.yul\":3917:4035   */\n      pop\n        /* \"#utility.yul\":4074:4076   */\n      0x60\n        /* \"#utility.yul\":4100:4153   */\n      tag_300\n        /* \"#utility.yul\":4145:4152   */\n      dup8\n        /* \"#utility.yul\":4136:4142   */\n      dup3\n        /* \"#utility.yul\":4125:4134   */\n      dup9\n        /* \"#utility.yul\":4121:4143   */\n      add\n        /* \"#utility.yul\":4100:4153   */\n      tag_264\n      jump\t// in\n    tag_300:\n        /* \"#utility.yul\":4090:4153   */\n      swap2\n      pop\n        /* \"#utility.yul\":4045:4163   */\n      pop\n        /* \"#utility.yul\":3225:4170   */\n      swap3\n      swap6\n      swap2\n      swap5\n      pop\n      swap3\n      pop\n      jump\t// out\n        /* \"#utility.yul\":4176:4505   */\n    tag_46:\n        /* \"#utility.yul\":4235:4241   */\n      0x00\n        /* \"#utility.yul\":4284:4286   */\n      0x20\n        /* \"#utility.yul\":4272:4281   */\n      dup3\n        /* \"#utility.yul\":4263:4270   */\n      dup5\n        /* \"#utility.yul\":4259:4282   */\n      sub\n        /* \"#utility.yul\":4255:4287   */\n      slt\n        /* \"#utility.yul\":4252:4371   */\n      iszero\n      tag_302\n      jumpi\n        /* \"#utility.yul\":4290:4369   */\n      tag_303\n      tag_274\n      jump\t// in\n    tag_303:\n        /* \"#utility.yul\":4252:4371   */\n    tag_302:\n        /* \"#utility.yul\":4410:4411   */\n      0x00\n        /* \"#utility.yul\":4435:4488   */\n      tag_304\n        /* \"#utility.yul\":4480:4487   */\n      dup5\n        /* \"#utility.yul\":4471:4477   */\n      dup3\n        /* \"#utility.yul\":4460:4469   */\n      dup6\n        /* \"#utility.yul\":4456:4478   */\n      add\n        /* \"#utility.yul\":4435:4488   */\n      tag_264\n      jump\t// in\n    tag_304:\n        /* \"#utility.yul\":4425:4488   */\n      swap2\n      pop\n        /* \"#utility.yul\":4381:4498   */\n      pop\n        /* \"#utility.yul\":4176:4505   */\n      swap3\n      swap2\n      pop\n      pop\n      jump\t// out\n        /* \"#utility.yul\":4511:4862   */\n    tag_102:\n        /* \"#utility.yul\":4581:4587   */\n      0x00\n        /* \"#utility.yul\":4630:4632   */\n      0x20\n        /* \"#utility.yul\":4618:4627   */\n      dup3\n        /* \"#utility.yul\":4609:4616   */\n      dup5\n        /* \"#utility.yul\":4605:4628   */\n      sub\n        /* \"#utility.yul\":4601:4633   */\n      slt\n        /* \"#utility.yul\":4598:4717   */\n      iszero\n      tag_306\n      jumpi\n        /* \"#utility.yul\":4636:4715   */\n      tag_307\n      tag_274\n      jump\t// in\n    tag_307:\n        /* \"#utility.yul\":4598:4717   */\n    tag_306:\n        /* \"#utility.yul\":4756:4757   */\n      0x00\n        /* \"#utility.yul\":4781:4845   */\n      tag_308\n        /* \"#utility.yul\":4837:4844   */\n      dup5\n        /* \"#utility.yul\":4828:4834   */\n      dup3\n        /* \"#utility.yul\":4817:4826   */\n      dup6\n        /* \"#utility.yul\":4813:4835   */\n      add\n        /* \"#utility.yul\":4781:4845   */\n      tag_268\n      jump\t// in\n    tag_308:\n        /* \"#utility.yul\":4771:4845   */\n      swap2\n      pop\n        /* \"#utility.yul\":4727:4855   */\n      pop\n        /* \"#utility.yul\":4511:4862   */\n      swap3\n      swap2\n      pop\n      pop\n      jump\t// out\n        /* \"#utility.yul\":4868:5010   */\n    tag_309:\n        /* \"#utility.yul\":4971:5003   */\n      tag_311\n        /* \"#utility.yul\":4997:5002   */\n      dup2\n        /* \"#utility.yul\":4971:5003   */\n      tag_312\n      jump\t// in\n    tag_311:\n        /* \"#utility.yul\":4966:4969   */\n      dup3\n        /* \"#utility.yul\":4959:5004   */\n      mstore\n        /* \"#utility.yul\":4868:5010   */\n      pop\n      pop\n      jump\t// out\n        /* \"#utility.yul\":5016:5124   */\n    tag_313:\n        /* \"#utility.yul\":5093:5117   */\n      tag_315\n        /* \"#utility.yul\":5111:5116   */\n      dup2\n        /* \"#utility.yul\":5093:5117   */\n      tag_316\n      jump\t// in\n    tag_315:\n        /* \"#utility.yul\":5088:5091   */\n      dup3\n        /* \"#utility.yul\":5081:5118   */\n      mstore\n        /* \"#utility.yul\":5016:5124   */\n      pop\n      pop\n      jump\t// out\n        /* \"#utility.yul\":5130:5248   */\n    tag_317:\n        /* \"#utility.yul\":5217:5241   */\n      tag_319\n        /* \"#utility.yul\":5235:5240   */\n      dup2\n        /* \"#utility.yul\":5217:5241   */\n      tag_316\n      jump\t// in\n    tag_319:\n        /* \"#utility.yul\":5212:5215   */\n      dup3\n        /* \"#utility.yul\":5205:5242   */\n      mstore\n        /* \"#utility.yul\":5130:5248   */\n      pop\n      pop\n      jump\t// out\n        /* \"#utility.yul\":5254:5627   */\n    tag_320:\n        /* \"#utility.yul\":5358:5361   */\n      0x00\n        /* \"#utility.yul\":5386:5424   */\n      tag_322\n        /* \"#utility.yul\":5418:5423   */\n      dup3\n        /* \"#utility.yul\":5386:5424   */\n      tag_323\n      jump\t// in\n    tag_322:\n        /* \"#utility.yul\":5440:5528   */\n      tag_324\n        /* \"#utility.yul\":5521:5527   */\n      dup2\n        /* \"#utility.yul\":5516:5519   */\n      dup6\n        /* \"#utility.yul\":5440:5528   */\n      tag_325\n      jump\t// in\n    tag_324:\n        /* \"#utility.yul\":5433:5528   */\n      swap4\n      pop\n        /* \"#utility.yul\":5537:5589   */\n      tag_326\n        /* \"#utility.yul\":5582:5588   */\n      dup2\n        /* \"#utility.yul\":5577:5580   */\n      dup6\n        /* \"#utility.yul\":5570:5574   */\n      0x20\n        /* \"#utility.yul\":5563:5568   */\n      dup7\n        /* \"#utility.yul\":5559:5575   */\n      add\n        /* \"#utility.yul\":5537:5589   */\n      tag_327\n      jump\t// in\n    tag_326:\n        /* \"#utility.yul\":5614:5620   */\n      dup1\n        /* \"#utility.yul\":5609:5612   */\n      dup5\n        /* \"#utility.yul\":5605:5621   */\n      add\n        /* \"#utility.yul\":5598:5621   */\n      swap2\n      pop\n        /* \"#utility.yul\":5362:5627   */\n      pop\n        /* \"#utility.yul\":5254:5627   */\n      swap3\n      swap2\n      pop\n      pop\n      jump\t// out\n        /* \"#utility.yul\":5633:5977   */\n    tag_328:\n        /* \"#utility.yul\":5711:5714   */\n      0x00\n        /* \"#utility.yul\":5739:5778   */\n      tag_330\n        /* \"#utility.yul\":5772:5777   */\n      dup3\n        /* \"#utility.yul\":5739:5778   */\n      tag_331\n      jump\t// in\n    tag_330:\n        /* \"#utility.yul\":5794:5855   */\n      tag_332\n        /* \"#utility.yul\":5848:5854   */\n      dup2\n        /* \"#utility.yul\":5843:5846   */\n      dup6\n        /* \"#utility.yul\":5794:5855   */\n      tag_333\n      jump\t// in\n    tag_332:\n        /* \"#utility.yul\":5787:5855   */\n      swap4\n      pop\n        /* \"#utility.yul\":5864:5916   */\n      tag_334\n        /* \"#utility.yul\":5909:5915   */\n      dup2\n        /* \"#utility.yul\":5904:5907   */\n      dup6\n        /* \"#utility.yul\":5897:5901   */\n      0x20\n        /* \"#utility.yul\":5890:5895   */\n      dup7\n        /* \"#utility.yul\":5886:5902   */\n      add\n        /* \"#utility.yul\":5864:5916   */\n      tag_327\n      jump\t// in\n    tag_334:\n        /* \"#utility.yul\":5941:5970   */\n      tag_335\n        /* \"#utility.yul\":5963:5969   */\n      dup2\n        /* \"#utility.yul\":5941:5970   */\n      tag_336\n      jump\t// in\n    tag_335:\n        /* \"#utility.yul\":5936:5939   */\n      dup5\n        /* \"#utility.yul\":5932:5971   */\n      add\n        /* \"#utility.yul\":5925:5971   */\n      swap2\n      pop\n        /* \"#utility.yul\":5715:5977   */\n      pop\n        /* \"#utility.yul\":5633:5977   */\n      swap3\n      swap2\n      pop\n      pop\n      jump\t// out\n        /* \"#utility.yul\":5983:6347   */\n    tag_337:\n        /* \"#utility.yul\":6071:6074   */\n      0x00\n        /* \"#utility.yul\":6099:6138   */\n      tag_339\n        /* \"#utility.yul\":6132:6137   */\n      dup3\n        /* \"#utility.yul\":6099:6138   */\n      tag_331\n      jump\t// in\n    tag_339:\n        /* \"#utility.yul\":6154:6225   */\n      tag_340\n        /* \"#utility.yul\":6218:6224   */\n      dup2\n        /* \"#utility.yul\":6213:6216   */\n      dup6\n        /* \"#utility.yul\":6154:6225   */\n      tag_341\n      jump\t// in\n    tag_340:\n        /* \"#utility.yul\":6147:6225   */\n      swap4\n      pop\n        /* \"#utility.yul\":6234:6286   */\n      tag_342\n        /* \"#utility.yul\":6279:6285   */\n      dup2\n        /* \"#utility.yul\":6274:6277   */\n      dup6\n        /* \"#utility.yul\":6267:6271   */\n      0x20\n        /* \"#utility.yul\":6260:6265   */\n      dup7\n        /* \"#utility.yul\":6256:6272   */\n      add\n        /* \"#utility.yul\":6234:6286   */\n      tag_327\n      jump\t// in\n    tag_342:\n        /* \"#utility.yul\":6311:6340   */\n      tag_343\n        /* \"#utility.yul\":6333:6339   */\n      dup2\n        /* \"#utility.yul\":6311:6340   */\n      tag_336\n      jump\t// in\n    tag_343:\n        /* \"#utility.yul\":6306:6309   */\n      dup5\n        /* \"#utility.yul\":6302:6341   */\n      add\n        /* \"#utility.yul\":6295:6341   */\n      swap2\n      pop\n        /* \"#utility.yul\":6075:6347   */\n      pop\n        /* \"#utility.yul\":5983:6347   */\n      swap3\n      swap2\n      pop\n      pop\n      jump\t// out\n        /* \"#utility.yul\":6353:6730   */\n    tag_344:\n        /* \"#utility.yul\":6459:6462   */\n      0x00\n        /* \"#utility.yul\":6487:6526   */\n      tag_346\n        /* \"#utility.yul\":6520:6525   */\n      dup3\n        /* \"#utility.yul\":6487:6526   */\n      tag_331\n      jump\t// in\n    tag_346:\n        /* \"#utility.yul\":6542:6631   */\n      tag_347\n        /* \"#utility.yul\":6624:6630   */\n      dup2\n        /* \"#utility.yul\":6619:6622   */\n      dup6\n        /* \"#utility.yul\":6542:6631   */\n      tag_348\n      jump\t// in\n    tag_347:\n        /* \"#utility.yul\":6535:6631   */\n      swap4\n      pop\n        /* \"#utility.yul\":6640:6692   */\n      tag_349\n        /* \"#utility.yul\":6685:6691   */\n      dup2\n        /* \"#utility.yul\":6680:6683   */\n      dup6\n        /* \"#utility.yul\":6673:6677   */\n      0x20\n        /* \"#utility.yul\":6666:6671   */\n      dup7\n        /* \"#utility.yul\":6662:6678   */\n      add\n        /* \"#utility.yul\":6640:6692   */\n      tag_327\n      jump\t// in\n    tag_349:\n        /* \"#utility.yul\":6717:6723   */\n      dup1\n        /* \"#utility.yul\":6712:6715   */\n      dup5\n        /* \"#utility.yul\":6708:6724   */\n      add\n        /* \"#utility.yul\":6701:6724   */\n      swap2\n      pop\n        /* \"#utility.yul\":6463:6730   */\n      pop\n        /* \"#utility.yul\":6353:6730   */\n      swap3\n      swap2\n      pop\n      pop\n      jump\t// out\n        /* \"#utility.yul\":6760:7605   */\n    tag_350:\n        /* \"#utility.yul\":6863:6866   */\n      0x00\n        /* \"#utility.yul\":6900:6905   */\n      dup2\n        /* \"#utility.yul\":6894:6906   */\n      sload\n        /* \"#utility.yul\":6929:6965   */\n      tag_352\n        /* \"#utility.yul\":6955:6964   */\n      dup2\n        /* \"#utility.yul\":6929:6965   */\n      tag_66\n      jump\t// in\n    tag_352:\n        /* \"#utility.yul\":6981:7070   */\n      tag_353\n        /* \"#utility.yul\":7063:7069   */\n      dup2\n        /* \"#utility.yul\":7058:7061   */\n      dup7\n        /* \"#utility.yul\":6981:7070   */\n      tag_348\n      jump\t// in\n    tag_353:\n        /* \"#utility.yul\":6974:7070   */\n      swap5\n      pop\n        /* \"#utility.yul\":7101:7102   */\n      0x01\n        /* \"#utility.yul\":7090:7099   */\n      dup3\n        /* \"#utility.yul\":7086:7103   */\n      and\n        /* \"#utility.yul\":7117:7118   */\n      0x00\n        /* \"#utility.yul\":7112:7249   */\n      dup2\n      eq\n      tag_355\n      jumpi\n        /* \"#utility.yul\":7263:7264   */\n      0x01\n        /* \"#utility.yul\":7258:7599   */\n      dup2\n      eq\n      tag_356\n      jumpi\n        /* \"#utility.yul\":7079:7599   */\n      jump(tag_354)\n        /* \"#utility.yul\":7112:7249   */\n    tag_355:\n        /* \"#utility.yul\":7196:7200   */\n      0xff\n        /* \"#utility.yul\":7192:7201   */\n      not\n        /* \"#utility.yul\":7181:7190   */\n      dup4\n        /* \"#utility.yul\":7177:7202   */\n      and\n        /* \"#utility.yul\":7172:7175   */\n      dup7\n        /* \"#utility.yul\":7165:7203   */\n      mstore\n        /* \"#utility.yul\":7232:7238   */\n      dup2\n        /* \"#utility.yul\":7227:7230   */\n      dup7\n        /* \"#utility.yul\":7223:7239   */\n      add\n        /* \"#utility.yul\":7216:7239   */\n      swap4\n      pop\n        /* \"#utility.yul\":7112:7249   */\n      jump(tag_354)\n        /* \"#utility.yul\":7258:7599   */\n    tag_356:\n        /* \"#utility.yul\":7325:7363   */\n      tag_357\n        /* \"#utility.yul\":7357:7362   */\n      dup6\n        /* \"#utility.yul\":7325:7363   */\n      tag_358\n      jump\t// in\n    tag_357:\n        /* \"#utility.yul\":7385:7386   */\n      0x00\n        /* \"#utility.yul\":7399:7553   */\n    tag_359:\n        /* \"#utility.yul\":7413:7419   */\n      dup4\n        /* \"#utility.yul\":7410:7411   */\n      dup2\n        /* \"#utility.yul\":7407:7420   */\n      lt\n        /* \"#utility.yul\":7399:7553   */\n      iszero\n      tag_361\n      jumpi\n        /* \"#utility.yul\":7487:7494   */\n      dup2\n        /* \"#utility.yul\":7481:7495   */\n      sload\n        /* \"#utility.yul\":7477:7478   */\n      dup2\n        /* \"#utility.yul\":7472:7475   */\n      dup10\n        /* \"#utility.yul\":7468:7479   */\n      add\n        /* \"#utility.yul\":7461:7496   */\n      mstore\n        /* \"#utility.yul\":7537:7538   */\n      0x01\n        /* \"#utility.yul\":7528:7535   */\n      dup3\n        /* \"#utility.yul\":7524:7539   */\n      add\n        /* \"#utility.yul\":7513:7539   */\n      swap2\n      pop\n        /* \"#utility.yul\":7435:7439   */\n      0x20\n        /* \"#utility.yul\":7432:7433   */\n      dup2\n        /* \"#utility.yul\":7428:7440   */\n      add\n        /* \"#utility.yul\":7423:7440   */\n      swap1\n      pop\n        /* \"#utility.yul\":7399:7553   */\n      jump(tag_359)\n    tag_361:\n        /* \"#utility.yul\":7582:7588   */\n      dup4\n        /* \"#utility.yul\":7577:7580   */\n      dup9\n        /* \"#utility.yul\":7573:7589   */\n      add\n        /* \"#utility.yul\":7566:7589   */\n      swap6\n      pop\n        /* \"#utility.yul\":7265:7599   */\n      pop\n      pop\n        /* \"#utility.yul\":7079:7599   */\n    tag_354:\n      pop\n        /* \"#utility.yul\":6867:7605   */\n      pop\n      pop\n        /* \"#utility.yul\":6760:7605   */\n      swap3\n      swap2\n      pop\n      pop\n      jump\t// out\n        /* \"#utility.yul\":7611:7977   */\n    tag_362:\n        /* \"#utility.yul\":7753:7756   */\n      0x00\n        /* \"#utility.yul\":7774:7841   */\n      tag_364\n        /* \"#utility.yul\":7838:7840   */\n      0x26\n        /* \"#utility.yul\":7833:7836   */\n      dup4\n        /* \"#utility.yul\":7774:7841   */\n      tag_341\n      jump\t// in\n    tag_364:\n        /* \"#utility.yul\":7767:7841   */\n      swap2\n      pop\n        /* \"#utility.yul\":7850:7943   */\n      tag_365\n        /* \"#utility.yul\":7939:7942   */\n      dup3\n        /* \"#utility.yul\":7850:7943   */\n      tag_366\n      jump\t// in\n    tag_365:\n        /* \"#utility.yul\":7968:7970   */\n      0x40\n        /* \"#utility.yul\":7963:7966   */\n      dup3\n        /* \"#utility.yul\":7959:7971   */\n      add\n        /* \"#utility.yul\":7952:7971   */\n      swap1\n      pop\n        /* \"#utility.yul\":7611:7977   */\n      swap2\n      swap1\n      pop\n      jump\t// out\n        /* \"#utility.yul\":7983:8349   */\n    tag_367:\n        /* \"#utility.yul\":8125:8128   */\n      0x00\n        /* \"#utility.yul\":8146:8213   */\n      tag_369\n        /* \"#utility.yul\":8210:8212   */\n      0x20\n        /* \"#utility.yul\":8205:8208   */\n      dup4\n        /* \"#utility.yul\":8146:8213   */\n      tag_341\n      jump\t// in\n    tag_369:\n        /* \"#utility.yul\":8139:8213   */\n      swap2\n      pop\n        /* \"#utility.yul\":8222:8315   */\n      tag_370\n        /* \"#utility.yul\":8311:8314   */\n      dup3\n        /* \"#utility.yul\":8222:8315   */\n      tag_371\n      jump\t// in\n    tag_370:\n        /* \"#utility.yul\":8340:8342   */\n      0x20\n        /* \"#utility.yul\":8335:8338   */\n      dup3\n        /* \"#utility.yul\":8331:8343   */\n      add\n        /* \"#utility.yul\":8324:8343   */\n      swap1\n      pop\n        /* \"#utility.yul\":7983:8349   */\n      swap2\n      swap1\n      pop\n      jump\t// out\n        /* \"#utility.yul\":8355:8721   */\n    tag_372:\n        /* \"#utility.yul\":8497:8500   */\n      0x00\n        /* \"#utility.yul\":8518:8585   */\n      tag_374\n        /* \"#utility.yul\":8582:8584   */\n      0x24\n        /* \"#utility.yul\":8577:8580   */\n      dup4\n        /* \"#utility.yul\":8518:8585   */\n      tag_341\n      jump\t// in\n    tag_374:\n        /* \"#utility.yul\":8511:8585   */\n      swap2\n      pop\n        /* \"#utility.yul\":8594:8687   */\n      tag_375\n        /* \"#utility.yul\":8683:8686   */\n      dup3\n        /* \"#utility.yul\":8594:8687   */\n      tag_376\n      jump\t// in\n    tag_375:\n        /* \"#utility.yul\":8712:8714   */\n      0x40\n        /* \"#utility.yul\":8707:8710   */\n      dup3\n        /* \"#utility.yul\":8703:8715   */\n      add\n        /* \"#utility.yul\":8696:8715   */\n      swap1\n      pop\n        /* \"#utility.yul\":8355:8721   */\n      swap2\n      swap1\n      pop\n      jump\t// out\n        /* \"#utility.yul\":8727:9093   */\n    tag_377:\n        /* \"#utility.yul\":8869:8872   */\n      0x00\n        /* \"#utility.yul\":8890:8957   */\n      tag_379\n        /* \"#utility.yul\":8954:8956   */\n      0x26\n        /* \"#utility.yul\":8949:8952   */\n      dup4\n        /* \"#utility.yul\":8890:8957   */\n      tag_341\n      jump\t// in\n    tag_379:\n        /* \"#utility.yul\":8883:8957   */\n      swap2\n      pop\n        /* \"#utility.yul\":8966:9059   */\n      tag_380\n        /* \"#utility.yul\":9055:9058   */\n      dup3\n        /* \"#utility.yul\":8966:9059   */\n      tag_381\n      jump\t// in\n    tag_380:\n        /* \"#utility.yul\":9084:9086   */\n      0x40\n        /* \"#utility.yul\":9079:9082   */\n      dup3\n        /* \"#utility.yul\":9075:9087   */\n      add\n        /* \"#utility.yul\":9068:9087   */\n      swap1\n      pop\n        /* \"#utility.yul\":8727:9093   */\n      swap2\n      swap1\n      pop\n      jump\t// out\n        /* \"#utility.yul\":9099:9465   */\n    tag_382:\n        /* \"#utility.yul\":9241:9244   */\n      0x00\n        /* \"#utility.yul\":9262:9329   */\n      tag_384\n        /* \"#utility.yul\":9326:9328   */\n      0x20\n        /* \"#utility.yul\":9321:9324   */\n      dup4\n        /* \"#utility.yul\":9262:9329   */\n      tag_341\n      jump\t// in\n    tag_384:\n        /* \"#utility.yul\":9255:9329   */\n      swap2\n      pop\n        /* \"#utility.yul\":9338:9431   */\n      tag_385\n        /* \"#utility.yul\":9427:9430   */\n      dup3\n        /* \"#utility.yul\":9338:9431   */\n      tag_386\n      jump\t// in\n    tag_385:\n        /* \"#utility.yul\":9456:9458   */\n      0x20\n        /* \"#utility.yul\":9451:9454   */\n      dup3\n        /* \"#utility.yul\":9447:9459   */\n      add\n        /* \"#utility.yul\":9440:9459   */\n      swap1\n      pop\n        /* \"#utility.yul\":9099:9465   */\n      swap2\n      swap1\n      pop\n      jump\t// out\n        /* \"#utility.yul\":9471:9837   */\n    tag_387:\n        /* \"#utility.yul\":9613:9616   */\n      0x00\n        /* \"#utility.yul\":9634:9701   */\n      tag_389\n        /* \"#utility.yul\":9698:9700   */\n      0x2c\n        /* \"#utility.yul\":9693:9696   */\n      dup4\n        /* \"#utility.yul\":9634:9701   */\n      tag_341\n      jump\t// in\n    tag_389:\n        /* \"#utility.yul\":9627:9701   */\n      swap2\n      pop\n        /* \"#utility.yul\":9710:9803   */\n      tag_390\n        /* \"#utility.yul\":9799:9802   */\n      dup3\n        /* \"#utility.yul\":9710:9803   */\n      tag_391\n      jump\t// in\n    tag_390:\n        /* \"#utility.yul\":9828:9830   */\n      0x40\n        /* \"#utility.yul\":9823:9826   */\n      dup3\n        /* \"#utility.yul\":9819:9831   */\n      add\n        /* \"#utility.yul\":9812:9831   */\n      swap1\n      pop\n        /* \"#utility.yul\":9471:9837   */\n      swap2\n      swap1\n      pop\n      jump\t// out\n        /* \"#utility.yul\":9843:10209   */\n    tag_392:\n        /* \"#utility.yul\":9985:9988   */\n      0x00\n        /* \"#utility.yul\":10006:10073   */\n      tag_394\n        /* \"#utility.yul\":10070:10072   */\n      0x1d\n        /* \"#utility.yul\":10065:10068   */\n      dup4\n        /* \"#utility.yul\":10006:10073   */\n      tag_341\n      jump\t// in\n    tag_394:\n        /* \"#utility.yul\":9999:10073   */\n      swap2\n      pop\n        /* \"#utility.yul\":10082:10175   */\n      tag_395\n        /* \"#utility.yul\":10171:10174   */\n      dup3\n        /* \"#utility.yul\":10082:10175   */\n      tag_396\n      jump\t// in\n    tag_395:\n        /* \"#utility.yul\":10200:10202   */\n      0x20\n        /* \"#utility.yul\":10195:10198   */\n      dup3\n        /* \"#utility.yul\":10191:10203   */\n      add\n        /* \"#utility.yul\":10184:10203   */\n      swap1\n      pop\n        /* \"#utility.yul\":9843:10209   */\n      swap2\n      swap1\n      pop\n      jump\t// out\n        /* \"#utility.yul\":10215:10581   */\n    tag_397:\n        /* \"#utility.yul\":10357:10360   */\n      0x00\n        /* \"#utility.yul\":10378:10445   */\n      tag_399\n        /* \"#utility.yul\":10442:10444   */\n      0x2a\n        /* \"#utility.yul\":10437:10440   */\n      dup4\n        /* \"#utility.yul\":10378:10445   */\n      tag_341\n      jump\t// in\n    tag_399:\n        /* \"#utility.yul\":10371:10445   */\n      swap2\n      pop\n        /* \"#utility.yul\":10454:10547   */\n      tag_400\n        /* \"#utility.yul\":10543:10546   */\n      dup3\n        /* \"#utility.yul\":10454:10547   */\n      tag_401\n      jump\t// in\n    tag_400:\n        /* \"#utility.yul\":10572:10574   */\n      0x40\n        /* \"#utility.yul\":10567:10570   */\n      dup3\n        /* \"#utility.yul\":10563:10575   */\n      add\n        /* \"#utility.yul\":10556:10575   */\n      swap1\n      pop\n        /* \"#utility.yul\":10215:10581   */\n      swap2\n      swap1\n      pop\n      jump\t// out\n        /* \"#utility.yul\":10587:10953   */\n    tag_402:\n        /* \"#utility.yul\":10729:10732   */\n      0x00\n        /* \"#utility.yul\":10750:10817   */\n      tag_404\n        /* \"#utility.yul\":10814:10816   */\n      0x32\n        /* \"#utility.yul\":10809:10812   */\n      dup4\n        /* \"#utility.yul\":10750:10817   */\n      tag_341\n      jump\t// in\n    tag_404:\n        /* \"#utility.yul\":10743:10817   */\n      swap2\n      pop\n        /* \"#utility.yul\":10826:10919   */\n      tag_405\n        /* \"#utility.yul\":10915:10918   */\n      dup3\n        /* \"#utility.yul\":10826:10919   */\n      tag_406\n      jump\t// in\n    tag_405:\n        /* \"#utility.yul\":10944:10946   */\n      0x40\n        /* \"#utility.yul\":10939:10942   */\n      dup3\n        /* \"#utility.yul\":10935:10947   */\n      add\n        /* \"#utility.yul\":10928:10947   */\n      swap1\n      pop\n        /* \"#utility.yul\":10587:10953   */\n      swap2\n      swap1\n      pop\n      jump\t// out\n        /* \"#utility.yul\":11023:12607   */\n    tag_407:\n        /* \"#utility.yul\":11146:11149   */\n      0x00\n        /* \"#utility.yul\":11182:11186   */\n      0xe0\n        /* \"#utility.yul\":11177:11180   */\n      dup4\n        /* \"#utility.yul\":11173:11187   */\n      add\n        /* \"#utility.yul\":11272:11276   */\n      0x00\n        /* \"#utility.yul\":11265:11270   */\n      dup4\n        /* \"#utility.yul\":11261:11277   */\n      add\n        /* \"#utility.yul\":11255:11278   */\n      mload\n        /* \"#utility.yul\":11325:11328   */\n      dup5\n        /* \"#utility.yul\":11319:11323   */\n      dup3\n        /* \"#utility.yul\":11315:11329   */\n      sub\n        /* \"#utility.yul\":11308:11312   */\n      0x00\n        /* \"#utility.yul\":11303:11306   */\n      dup7\n        /* \"#utility.yul\":11299:11313   */\n      add\n        /* \"#utility.yul\":11292:11330   */\n      mstore\n        /* \"#utility.yul\":11351:11424   */\n      tag_409\n        /* \"#utility.yul\":11419:11423   */\n      dup3\n        /* \"#utility.yul\":11405:11417   */\n      dup3\n        /* \"#utility.yul\":11351:11424   */\n      tag_328\n      jump\t// in\n    tag_409:\n        /* \"#utility.yul\":11343:11424   */\n      swap2\n      pop\n        /* \"#utility.yul\":11197:11435   */\n      pop\n        /* \"#utility.yul\":11522:11526   */\n      0x20\n        /* \"#utility.yul\":11515:11520   */\n      dup4\n        /* \"#utility.yul\":11511:11527   */\n      add\n        /* \"#utility.yul\":11505:11528   */\n      mload\n        /* \"#utility.yul\":11575:11578   */\n      dup5\n        /* \"#utility.yul\":11569:11573   */\n      dup3\n        /* \"#utility.yul\":11565:11579   */\n      sub\n        /* \"#utility.yul\":11558:11562   */\n      0x20\n        /* \"#utility.yul\":11553:11556   */\n      dup7\n        /* \"#utility.yul\":11549:11563   */\n      add\n        /* \"#utility.yul\":11542:11580   */\n      mstore\n        /* \"#utility.yul\":11601:11674   */\n      tag_410\n        /* \"#utility.yul\":11669:11673   */\n      dup3\n        /* \"#utility.yul\":11655:11667   */\n      dup3\n        /* \"#utility.yul\":11601:11674   */\n      tag_328\n      jump\t// in\n    tag_410:\n        /* \"#utility.yul\":11593:11674   */\n      swap2\n      pop\n        /* \"#utility.yul\":11445:11685   */\n      pop\n        /* \"#utility.yul\":11775:11779   */\n      0x40\n        /* \"#utility.yul\":11768:11773   */\n      dup4\n        /* \"#utility.yul\":11764:11780   */\n      add\n        /* \"#utility.yul\":11758:11781   */\n      mload\n        /* \"#utility.yul\":11794:11857   */\n      tag_411\n        /* \"#utility.yul\":11851:11855   */\n      0x40\n        /* \"#utility.yul\":11846:11849   */\n      dup7\n        /* \"#utility.yul\":11842:11856   */\n      add\n        /* \"#utility.yul\":11828:11840   */\n      dup3\n        /* \"#utility.yul\":11794:11857   */\n      tag_313\n      jump\t// in\n    tag_411:\n        /* \"#utility.yul\":11695:11867   */\n      pop\n        /* \"#utility.yul\":11955:11959   */\n      0x60\n        /* \"#utility.yul\":11948:11953   */\n      dup4\n        /* \"#utility.yul\":11944:11960   */\n      add\n        /* \"#utility.yul\":11938:11961   */\n      mload\n        /* \"#utility.yul\":11974:12037   */\n      tag_412\n        /* \"#utility.yul\":12031:12035   */\n      0x60\n        /* \"#utility.yul\":12026:12029   */\n      dup7\n        /* \"#utility.yul\":12022:12036   */\n      add\n        /* \"#utility.yul\":12008:12020   */\n      dup3\n        /* \"#utility.yul\":11974:12037   */\n      tag_413\n      jump\t// in\n    tag_412:\n        /* \"#utility.yul\":11877:12047   */\n      pop\n        /* \"#utility.yul\":12135:12139   */\n      0x80\n        /* \"#utility.yul\":12128:12133   */\n      dup4\n        /* \"#utility.yul\":12124:12140   */\n      add\n        /* \"#utility.yul\":12118:12141   */\n      mload\n        /* \"#utility.yul\":12154:12217   */\n      tag_414\n        /* \"#utility.yul\":12211:12215   */\n      0x80\n        /* \"#utility.yul\":12206:12209   */\n      dup7\n        /* \"#utility.yul\":12202:12216   */\n      add\n        /* \"#utility.yul\":12188:12200   */\n      dup3\n        /* \"#utility.yul\":12154:12217   */\n      tag_413\n      jump\t// in\n    tag_414:\n        /* \"#utility.yul\":12057:12227   */\n      pop\n        /* \"#utility.yul\":12313:12317   */\n      0xa0\n        /* \"#utility.yul\":12306:12311   */\n      dup4\n        /* \"#utility.yul\":12302:12318   */\n      add\n        /* \"#utility.yul\":12296:12319   */\n      mload\n        /* \"#utility.yul\":12332:12395   */\n      tag_415\n        /* \"#utility.yul\":12389:12393   */\n      0xa0\n        /* \"#utility.yul\":12384:12387   */\n      dup7\n        /* \"#utility.yul\":12380:12394   */\n      add\n        /* \"#utility.yul\":12366:12378   */\n      dup3\n        /* \"#utility.yul\":12332:12395   */\n      tag_413\n      jump\t// in\n    tag_415:\n        /* \"#utility.yul\":12237:12405   */\n      pop\n        /* \"#utility.yul\":12488:12492   */\n      0xc0\n        /* \"#utility.yul\":12481:12486   */\n      dup4\n        /* \"#utility.yul\":12477:12493   */\n      add\n        /* \"#utility.yul\":12471:12494   */\n      mload\n        /* \"#utility.yul\":12507:12570   */\n      tag_416\n        /* \"#utility.yul\":12564:12568   */\n      0xc0\n        /* \"#utility.yul\":12559:12562   */\n      dup7\n        /* \"#utility.yul\":12555:12569   */\n      add\n        /* \"#utility.yul\":12541:12553   */\n      dup3\n        /* \"#utility.yul\":12507:12570   */\n      tag_313\n      jump\t// in\n    tag_416:\n        /* \"#utility.yul\":12415:12580   */\n      pop\n        /* \"#utility.yul\":12597:12601   */\n      dup1\n        /* \"#utility.yul\":12590:12601   */\n      swap2\n      pop\n        /* \"#utility.yul\":11151:12607   */\n      pop\n        /* \"#utility.yul\":11023:12607   */\n      swap3\n      swap2\n      pop\n      pop\n      jump\t// out\n        /* \"#utility.yul\":12613:12721   */\n    tag_413:\n        /* \"#utility.yul\":12690:12714   */\n      tag_418\n        /* \"#utility.yul\":12708:12713   */\n      dup2\n        /* \"#utility.yul\":12690:12714   */\n      tag_419\n      jump\t// in\n    tag_418:\n        /* \"#utility.yul\":12685:12688   */\n      dup3\n        /* \"#utility.yul\":12678:12715   */\n      mstore\n        /* \"#utility.yul\":12613:12721   */\n      pop\n      pop\n      jump\t// out\n        /* \"#utility.yul\":12727:12845   */\n    tag_420:\n        /* \"#utility.yul\":12814:12838   */\n      tag_422\n        /* \"#utility.yul\":12832:12837   */\n      dup2\n        /* \"#utility.yul\":12814:12838   */\n      tag_419\n      jump\t// in\n    tag_422:\n        /* \"#utility.yul\":12809:12812   */\n      dup3\n        /* \"#utility.yul\":12802:12839   */\n      mstore\n        /* \"#utility.yul\":12727:12845   */\n      pop\n      pop\n      jump\t// out\n        /* \"#utility.yul\":12851:13122   */\n    tag_210:\n        /* \"#utility.yul\":12981:12984   */\n      0x00\n        /* \"#utility.yul\":13003:13096   */\n      tag_424\n        /* \"#utility.yul\":13092:13095   */\n      dup3\n        /* \"#utility.yul\":13083:13089   */\n      dup5\n        /* \"#utility.yul\":13003:13096   */\n      tag_320\n      jump\t// in\n    tag_424:\n        /* \"#utility.yul\":12996:13096   */\n      swap2\n      pop\n        /* \"#utility.yul\":13113:13116   */\n      dup2\n        /* \"#utility.yul\":13106:13116   */\n      swap1\n      pop\n        /* \"#utility.yul\":12851:13122   */\n      swap3\n      swap2\n      pop\n      pop\n      jump\t// out\n        /* \"#utility.yul\":13128:13403   */\n    tag_64:\n        /* \"#utility.yul\":13260:13263   */\n      0x00\n        /* \"#utility.yul\":13282:13377   */\n      tag_426\n        /* \"#utility.yul\":13373:13376   */\n      dup3\n        /* \"#utility.yul\":13364:13370   */\n      dup5\n        /* \"#utility.yul\":13282:13377   */\n      tag_344\n      jump\t// in\n    tag_426:\n        /* \"#utility.yul\":13275:13377   */\n      swap2\n      pop\n        /* \"#utility.yul\":13394:13397   */\n      dup2\n        /* \"#utility.yul\":13387:13397   */\n      swap1\n      pop\n        /* \"#utility.yul\":13128:13403   */\n      swap3\n      swap2\n      pop\n      pop\n      jump\t// out\n        /* \"#utility.yul\":13409:13678   */\n    tag_122:\n        /* \"#utility.yul\":13538:13541   */\n      0x00\n        /* \"#utility.yul\":13560:13652   */\n      tag_428\n        /* \"#utility.yul\":13648:13651   */\n      dup3\n        /* \"#utility.yul\":13639:13645   */\n      dup5\n        /* \"#utility.yul\":13560:13652   */\n      tag_350\n      jump\t// in\n    tag_428:\n        /* \"#utility.yul\":13553:13652   */\n      swap2\n      pop\n        /* \"#utility.yul\":13669:13672   */\n      dup2\n        /* \"#utility.yul\":13662:13672   */\n      swap1\n      pop\n        /* \"#utility.yul\":13409:13678   */\n      swap3\n      swap2\n      pop\n      pop\n      jump\t// out\n        /* \"#utility.yul\":13684:13906   */\n    tag_43:\n        /* \"#utility.yul\":13777:13781   */\n      0x00\n        /* \"#utility.yul\":13815:13817   */\n      0x20\n        /* \"#utility.yul\":13804:13813   */\n      dup3\n        /* \"#utility.yul\":13800:13818   */\n      add\n        /* \"#utility.yul\":13792:13818   */\n      swap1\n      pop\n        /* \"#utility.yul\":13828:13899   */\n      tag_430\n        /* \"#utility.yul\":13896:13897   */\n      0x00\n        /* \"#utility.yul\":13885:13894   */\n      dup4\n        /* \"#utility.yul\":13881:13898   */\n      add\n        /* \"#utility.yul\":13872:13878   */\n      dup5\n        /* \"#utility.yul\":13828:13899   */\n      tag_317\n      jump\t// in\n    tag_430:\n        /* \"#utility.yul\":13684:13906   */\n      swap3\n      swap2\n      pop\n      pop\n      jump\t// out\n        /* \"#utility.yul\":13912:14166   */\n    tag_28:\n        /* \"#utility.yul\":14021:14025   */\n      0x00\n        /* \"#utility.yul\":14059:14061   */\n      0x20\n        /* \"#utility.yul\":14048:14057   */\n      dup3\n        /* \"#utility.yul\":14044:14062   */\n      add\n        /* \"#utility.yul\":14036:14062   */\n      swap1\n      pop\n        /* \"#utility.yul\":14072:14159   */\n      tag_432\n        /* \"#utility.yul\":14156:14157   */\n      0x00\n        /* \"#utility.yul\":14145:14154   */\n      dup4\n        /* \"#utility.yul\":14141:14158   */\n      add\n        /* \"#utility.yul\":14132:14138   */\n      dup5\n        /* \"#utility.yul\":14072:14159   */\n      tag_309\n      jump\t// in\n    tag_432:\n        /* \"#utility.yul\":13912:14166   */\n      swap3\n      swap2\n      pop\n      pop\n      jump\t// out\n        /* \"#utility.yul\":14172:14504   */\n    tag_97:\n        /* \"#utility.yul\":14293:14297   */\n      0x00\n        /* \"#utility.yul\":14331:14333   */\n      0x40\n        /* \"#utility.yul\":14320:14329   */\n      dup3\n        /* \"#utility.yul\":14316:14334   */\n      add\n        /* \"#utility.yul\":14308:14334   */\n      swap1\n      pop\n        /* \"#utility.yul\":14344:14415   */\n      tag_434\n        /* \"#utility.yul\":14412:14413   */\n      0x00\n        /* \"#utility.yul\":14401:14410   */\n      dup4\n        /* \"#utility.yul\":14397:14414   */\n      add\n        /* \"#utility.yul\":14388:14394   */\n      dup6\n        /* \"#utility.yul\":14344:14415   */\n      tag_317\n      jump\t// in\n    tag_434:\n        /* \"#utility.yul\":14425:14497   */\n      tag_435\n        /* \"#utility.yul\":14493:14495   */\n      0x20\n        /* \"#utility.yul\":14482:14491   */\n      dup4\n        /* \"#utility.yul\":14478:14496   */\n      add\n        /* \"#utility.yul\":14469:14475   */\n      dup5\n        /* \"#utility.yul\":14425:14497   */\n      tag_317\n      jump\t// in\n    tag_435:\n        /* \"#utility.yul\":14172:14504   */\n      swap4\n      swap3\n      pop\n      pop\n      pop\n      jump\t// out\n        /* \"#utility.yul\":14510:14952   */\n    tag_163:\n        /* \"#utility.yul\":14659:14663   */\n      0x00\n        /* \"#utility.yul\":14697:14699   */\n      0x60\n        /* \"#utility.yul\":14686:14695   */\n      dup3\n        /* \"#utility.yul\":14682:14700   */\n      add\n        /* \"#utility.yul\":14674:14700   */\n      swap1\n      pop\n        /* \"#utility.yul\":14710:14781   */\n      tag_437\n        /* \"#utility.yul\":14778:14779   */\n      0x00\n        /* \"#utility.yul\":14767:14776   */\n      dup4\n        /* \"#utility.yul\":14763:14780   */\n      add\n        /* \"#utility.yul\":14754:14760   */\n      dup7\n        /* \"#utility.yul\":14710:14781   */\n      tag_317\n      jump\t// in\n    tag_437:\n        /* \"#utility.yul\":14791:14863   */\n      tag_438\n        /* \"#utility.yul\":14859:14861   */\n      0x20\n        /* \"#utility.yul\":14848:14857   */\n      dup4\n        /* \"#utility.yul\":14844:14862   */\n      add\n        /* \"#utility.yul\":14835:14841   */\n      dup6\n        /* \"#utility.yul\":14791:14863   */\n      tag_317\n      jump\t// in\n    tag_438:\n        /* \"#utility.yul\":14873:14945   */\n      tag_439\n        /* \"#utility.yul\":14941:14943   */\n      0x40\n        /* \"#utility.yul\":14930:14939   */\n      dup4\n        /* \"#utility.yul\":14926:14944   */\n      add\n        /* \"#utility.yul\":14917:14923   */\n      dup5\n        /* \"#utility.yul\":14873:14945   */\n      tag_420\n      jump\t// in\n    tag_439:\n        /* \"#utility.yul\":14510:14952   */\n      swap5\n      swap4\n      pop\n      pop\n      pop\n      pop\n      jump\t// out\n        /* \"#utility.yul\":14958:15271   */\n    tag_223:\n        /* \"#utility.yul\":15071:15075   */\n      0x00\n        /* \"#utility.yul\":15109:15111   */\n      0x20\n        /* \"#utility.yul\":15098:15107   */\n      dup3\n        /* \"#utility.yul\":15094:15112   */\n      add\n        /* \"#utility.yul\":15086:15112   */\n      swap1\n      pop\n        /* \"#utility.yul\":15158:15167   */\n      dup2\n        /* \"#utility.yul\":15152:15156   */\n      dup2\n        /* \"#utility.yul\":15148:15168   */\n      sub\n        /* \"#utility.yul\":15144:15145   */\n      0x00\n        /* \"#utility.yul\":15133:15142   */\n      dup4\n        /* \"#utility.yul\":15129:15146   */\n      add\n        /* \"#utility.yul\":15122:15169   */\n      mstore\n        /* \"#utility.yul\":15186:15264   */\n      tag_441\n        /* \"#utility.yul\":15259:15263   */\n      dup2\n        /* \"#utility.yul\":15250:15256   */\n      dup5\n        /* \"#utility.yul\":15186:15264   */\n      tag_337\n      jump\t// in\n    tag_441:\n        /* \"#utility.yul\":15178:15264   */\n      swap1\n      pop\n        /* \"#utility.yul\":14958:15271   */\n      swap3\n      swap2\n      pop\n      pop\n      jump\t// out\n        /* \"#utility.yul\":15277:15810   */\n    tag_116:\n        /* \"#utility.yul\":15446:15450   */\n      0x00\n        /* \"#utility.yul\":15484:15486   */\n      0x60\n        /* \"#utility.yul\":15473:15482   */\n      dup3\n        /* \"#utility.yul\":15469:15487   */\n      add\n        /* \"#utility.yul\":15461:15487   */\n      swap1\n      pop\n        /* \"#utility.yul\":15533:15542   */\n      dup2\n        /* \"#utility.yul\":15527:15531   */\n      dup2\n        /* \"#utility.yul\":15523:15543   */\n      sub\n        /* \"#utility.yul\":15519:15520   */\n      0x00\n        /* \"#utility.yul\":15508:15517   */\n      dup4\n        /* \"#utility.yul\":15504:15521   */\n      add\n        /* \"#utility.yul\":15497:15544   */\n      mstore\n        /* \"#utility.yul\":15561:15639   */\n      tag_443\n        /* \"#utility.yul\":15634:15638   */\n      dup2\n        /* \"#utility.yul\":15625:15631   */\n      dup7\n        /* \"#utility.yul\":15561:15639   */\n      tag_337\n      jump\t// in\n    tag_443:\n        /* \"#utility.yul\":15553:15639   */\n      swap1\n      pop\n        /* \"#utility.yul\":15649:15721   */\n      tag_444\n        /* \"#utility.yul\":15717:15719   */\n      0x20\n        /* \"#utility.yul\":15706:15715   */\n      dup4\n        /* \"#utility.yul\":15702:15720   */\n      add\n        /* \"#utility.yul\":15693:15699   */\n      dup6\n        /* \"#utility.yul\":15649:15721   */\n      tag_420\n      jump\t// in\n    tag_444:\n        /* \"#utility.yul\":15731:15803   */\n      tag_445\n        /* \"#utility.yul\":15799:15801   */\n      0x40\n        /* \"#utility.yul\":15788:15797   */\n      dup4\n        /* \"#utility.yul\":15784:15802   */\n      add\n        /* \"#utility.yul\":15775:15781   */\n      dup5\n        /* \"#utility.yul\":15731:15803   */\n      tag_317\n      jump\t// in\n    tag_445:\n        /* \"#utility.yul\":15277:15810   */\n      swap5\n      swap4\n      pop\n      pop\n      pop\n      pop\n      jump\t// out\n        /* \"#utility.yul\":15816:16235   */\n    tag_151:\n        /* \"#utility.yul\":15982:15986   */\n      0x00\n        /* \"#utility.yul\":16020:16022   */\n      0x20\n        /* \"#utility.yul\":16009:16018   */\n      dup3\n        /* \"#utility.yul\":16005:16023   */\n      add\n        /* \"#utility.yul\":15997:16023   */\n      swap1\n      pop\n        /* \"#utility.yul\":16069:16078   */\n      dup2\n        /* \"#utility.yul\":16063:16067   */\n      dup2\n        /* \"#utility.yul\":16059:16079   */\n      sub\n        /* \"#utility.yul\":16055:16056   */\n      0x00\n        /* \"#utility.yul\":16044:16053   */\n      dup4\n        /* \"#utility.yul\":16040:16057   */\n      add\n        /* \"#utility.yul\":16033:16080   */\n      mstore\n        /* \"#utility.yul\":16097:16228   */\n      tag_447\n        /* \"#utility.yul\":16223:16227   */\n      dup2\n        /* \"#utility.yul\":16097:16228   */\n      tag_362\n      jump\t// in\n    tag_447:\n        /* \"#utility.yul\":16089:16228   */\n      swap1\n      pop\n        /* \"#utility.yul\":15816:16235   */\n      swap2\n      swap1\n      pop\n      jump\t// out\n        /* \"#utility.yul\":16241:16660   */\n    tag_94:\n        /* \"#utility.yul\":16407:16411   */\n      0x00\n        /* \"#utility.yul\":16445:16447   */\n      0x20\n        /* \"#utility.yul\":16434:16443   */\n      dup3\n        /* \"#utility.yul\":16430:16448   */\n      add\n        /* \"#utility.yul\":16422:16448   */\n      swap1\n      pop\n        /* \"#utility.yul\":16494:16503   */\n      dup2\n        /* \"#utility.yul\":16488:16492   */\n      dup2\n        /* \"#utility.yul\":16484:16504   */\n      sub\n        /* \"#utility.yul\":16480:16481   */\n      0x00\n        /* \"#utility.yul\":16469:16478   */\n      dup4\n        /* \"#utility.yul\":16465:16482   */\n      add\n        /* \"#utility.yul\":16458:16505   */\n      mstore\n        /* \"#utility.yul\":16522:16653   */\n      tag_449\n        /* \"#utility.yul\":16648:16652   */\n      dup2\n        /* \"#utility.yul\":16522:16653   */\n      tag_367\n      jump\t// in\n    tag_449:\n        /* \"#utility.yul\":16514:16653   */\n      swap1\n      pop\n        /* \"#utility.yul\":16241:16660   */\n      swap2\n      swap1\n      pop\n      jump\t// out\n        /* \"#utility.yul\":16666:17085   */\n    tag_86:\n        /* \"#utility.yul\":16832:16836   */\n      0x00\n        /* \"#utility.yul\":16870:16872   */\n      0x20\n        /* \"#utility.yul\":16859:16868   */\n      dup3\n        /* \"#utility.yul\":16855:16873   */\n      add\n        /* \"#utility.yul\":16847:16873   */\n      swap1\n      pop\n        /* \"#utility.yul\":16919:16928   */\n      dup2\n        /* \"#utility.yul\":16913:16917   */\n      dup2\n        /* \"#utility.yul\":16909:16929   */\n      sub\n        /* \"#utility.yul\":16905:16906   */\n      0x00\n        /* \"#utility.yul\":16894:16903   */\n      dup4\n        /* \"#utility.yul\":16890:16907   */\n      add\n        /* \"#utility.yul\":16883:16930   */\n      mstore\n        /* \"#utility.yul\":16947:17078   */\n      tag_451\n        /* \"#utility.yul\":17073:17077   */\n      dup2\n        /* \"#utility.yul\":16947:17078   */\n      tag_372\n      jump\t// in\n    tag_451:\n        /* \"#utility.yul\":16939:17078   */\n      swap1\n      pop\n        /* \"#utility.yul\":16666:17085   */\n      swap2\n      swap1\n      pop\n      jump\t// out\n        /* \"#utility.yul\":17091:17510   */\n    tag_203:\n        /* \"#utility.yul\":17257:17261   */\n      0x00\n        /* \"#utility.yul\":17295:17297   */\n      0x20\n        /* \"#utility.yul\":17284:17293   */\n      dup3\n        /* \"#utility.yul\":17280:17298   */\n      add\n        /* \"#utility.yul\":17272:17298   */\n      swap1\n      pop\n        /* \"#utility.yul\":17344:17353   */\n      dup2\n        /* \"#utility.yul\":17338:17342   */\n      dup2\n        /* \"#utility.yul\":17334:17354   */\n      sub\n        /* \"#utility.yul\":17330:17331   */\n      0x00\n        /* \"#utility.yul\":17319:17328   */\n      dup4\n        /* \"#utility.yul\":17315:17332   */\n      add\n        /* \"#utility.yul\":17308:17355   */\n      mstore\n        /* \"#utility.yul\":17372:17503   */\n      tag_453\n        /* \"#utility.yul\":17498:17502   */\n      dup2\n        /* \"#utility.yul\":17372:17503   */\n      tag_377\n      jump\t// in\n    tag_453:\n        /* \"#utility.yul\":17364:17503   */\n      swap1\n      pop\n        /* \"#utility.yul\":17091:17510   */\n      swap2\n      swap1\n      pop\n      jump\t// out\n        /* \"#utility.yul\":17516:17935   */\n    tag_82:\n        /* \"#utility.yul\":17682:17686   */\n      0x00\n        /* \"#utility.yul\":17720:17722   */\n      0x20\n        /* \"#utility.yul\":17709:17718   */\n      dup3\n        /* \"#utility.yul\":17705:17723   */\n      add\n        /* \"#utility.yul\":17697:17723   */\n      swap1\n      pop\n        /* \"#utility.yul\":17769:17778   */\n      dup2\n        /* \"#utility.yul\":17763:17767   */\n      dup2\n        /* \"#utility.yul\":17759:17779   */\n      sub\n        /* \"#utility.yul\":17755:17756   */\n      0x00\n        /* \"#utility.yul\":17744:17753   */\n      dup4\n        /* \"#utility.yul\":17740:17757   */\n      add\n        /* \"#utility.yul\":17733:17780   */\n      mstore\n        /* \"#utility.yul\":17797:17928   */\n      tag_455\n        /* \"#utility.yul\":17923:17927   */\n      dup2\n        /* \"#utility.yul\":17797:17928   */\n      tag_382\n      jump\t// in\n    tag_455:\n        /* \"#utility.yul\":17789:17928   */\n      swap1\n      pop\n        /* \"#utility.yul\":17516:17935   */\n      swap2\n      swap1\n      pop\n      jump\t// out\n        /* \"#utility.yul\":17941:18360   */\n    tag_127:\n        /* \"#utility.yul\":18107:18111   */\n      0x00\n        /* \"#utility.yul\":18145:18147   */\n      0x20\n        /* \"#utility.yul\":18134:18143   */\n      dup3\n        /* \"#utility.yul\":18130:18148   */\n      add\n        /* \"#utility.yul\":18122:18148   */\n      swap1\n      pop\n        /* \"#utility.yul\":18194:18203   */\n      dup2\n        /* \"#utility.yul\":18188:18192   */\n      dup2\n        /* \"#utility.yul\":18184:18204   */\n      sub\n        /* \"#utility.yul\":18180:18181   */\n      0x00\n        /* \"#utility.yul\":18169:18178   */\n      dup4\n        /* \"#utility.yul\":18165:18182   */\n      add\n        /* \"#utility.yul\":18158:18205   */\n      mstore\n        /* \"#utility.yul\":18222:18353   */\n      tag_457\n        /* \"#utility.yul\":18348:18352   */\n      dup2\n        /* \"#utility.yul\":18222:18353   */\n      tag_387\n      jump\t// in\n    tag_457:\n        /* \"#utility.yul\":18214:18353   */\n      swap1\n      pop\n        /* \"#utility.yul\":17941:18360   */\n      swap2\n      swap1\n      pop\n      jump\t// out\n        /* \"#utility.yul\":18366:18785   */\n    tag_208:\n        /* \"#utility.yul\":18532:18536   */\n      0x00\n        /* \"#utility.yul\":18570:18572   */\n      0x20\n        /* \"#utility.yul\":18559:18568   */\n      dup3\n        /* \"#utility.yul\":18555:18573   */\n      add\n        /* \"#utility.yul\":18547:18573   */\n      swap1\n      pop\n        /* \"#utility.yul\":18619:18628   */\n      dup2\n        /* \"#utility.yul\":18613:18617   */\n      dup2\n        /* \"#utility.yul\":18609:18629   */\n      sub\n        /* \"#utility.yul\":18605:18606   */\n      0x00\n        /* \"#utility.yul\":18594:18603   */\n      dup4\n        /* \"#utility.yul\":18590:18607   */\n      add\n        /* \"#utility.yul\":18583:18630   */\n      mstore\n        /* \"#utility.yul\":18647:18778   */\n      tag_459\n        /* \"#utility.yul\":18773:18777   */\n      dup2\n        /* \"#utility.yul\":18647:18778   */\n      tag_392\n      jump\t// in\n    tag_459:\n        /* \"#utility.yul\":18639:18778   */\n      swap1\n      pop\n        /* \"#utility.yul\":18366:18785   */\n      swap2\n      swap1\n      pop\n      jump\t// out\n        /* \"#utility.yul\":18791:19210   */\n    tag_196:\n        /* \"#utility.yul\":18957:18961   */\n      0x00\n        /* \"#utility.yul\":18995:18997   */\n      0x20\n        /* \"#utility.yul\":18984:18993   */\n      dup3\n        /* \"#utility.yul\":18980:18998   */\n      add\n        /* \"#utility.yul\":18972:18998   */\n      swap1\n      pop\n        /* \"#utility.yul\":19044:19053   */\n      dup2\n        /* \"#utility.yul\":19038:19042   */\n      dup2\n        /* \"#utility.yul\":19034:19054   */\n      sub\n        /* \"#utility.yul\":19030:19031   */\n      0x00\n        /* \"#utility.yul\":19019:19028   */\n      dup4\n        /* \"#utility.yul\":19015:19032   */\n      add\n        /* \"#utility.yul\":19008:19055   */\n      mstore\n        /* \"#utility.yul\":19072:19203   */\n      tag_461\n        /* \"#utility.yul\":19198:19202   */\n      dup2\n        /* \"#utility.yul\":19072:19203   */\n      tag_397\n      jump\t// in\n    tag_461:\n        /* \"#utility.yul\":19064:19203   */\n      swap1\n      pop\n        /* \"#utility.yul\":18791:19210   */\n      swap2\n      swap1\n      pop\n      jump\t// out\n        /* \"#utility.yul\":19216:19635   */\n    tag_105:\n        /* \"#utility.yul\":19382:19386   */\n      0x00\n        /* \"#utility.yul\":19420:19422   */\n      0x20\n        /* \"#utility.yul\":19409:19418   */\n      dup3\n        /* \"#utility.yul\":19405:19423   */\n      add\n        /* \"#utility.yul\":19397:19423   */\n      swap1\n      pop\n        /* \"#utility.yul\":19469:19478   */\n      dup2\n        /* \"#utility.yul\":19463:19467   */\n      dup2\n        /* \"#utility.yul\":19459:19479   */\n      sub\n        /* \"#utility.yul\":19455:19456   */\n      0x00\n        /* \"#utility.yul\":19444:19453   */\n      dup4\n        /* \"#utility.yul\":19440:19457   */\n      add\n        /* \"#utility.yul\":19433:19480   */\n      mstore\n        /* \"#utility.yul\":19497:19628   */\n      tag_463\n        /* \"#utility.yul\":19623:19627   */\n      dup2\n        /* \"#utility.yul\":19497:19628   */\n      tag_402\n      jump\t// in\n    tag_463:\n        /* \"#utility.yul\":19489:19628   */\n      swap1\n      pop\n        /* \"#utility.yul\":19216:19635   */\n      swap2\n      swap1\n      pop\n      jump\t// out\n        /* \"#utility.yul\":19641:20022   */\n    tag_20:\n        /* \"#utility.yul\":19788:19792   */\n      0x00\n        /* \"#utility.yul\":19826:19828   */\n      0x20\n        /* \"#utility.yul\":19815:19824   */\n      dup3\n        /* \"#utility.yul\":19811:19829   */\n      add\n        /* \"#utility.yul\":19803:19829   */\n      swap1\n      pop\n        /* \"#utility.yul\":19875:19884   */\n      dup2\n        /* \"#utility.yul\":19869:19873   */\n      dup2\n        /* \"#utility.yul\":19865:19885   */\n      sub\n        /* \"#utility.yul\":19861:19862   */\n      0x00\n        /* \"#utility.yul\":19850:19859   */\n      dup4\n        /* \"#utility.yul\":19846:19863   */\n      add\n        /* \"#utility.yul\":19839:19886   */\n      mstore\n        /* \"#utility.yul\":19903:20015   */\n      tag_465\n        /* \"#utility.yul\":20010:20014   */\n      dup2\n        /* \"#utility.yul\":20001:20007   */\n      dup5\n        /* \"#utility.yul\":19903:20015   */\n      tag_407\n      jump\t// in\n    tag_465:\n        /* \"#utility.yul\":19895:20015   */\n      swap1\n      pop\n        /* \"#utility.yul\":19641:20022   */\n      swap3\n      swap2\n      pop\n      pop\n      jump\t// out\n        /* \"#utility.yul\":20028:20250   */\n    tag_37:\n        /* \"#utility.yul\":20121:20125   */\n      0x00\n        /* \"#utility.yul\":20159:20161   */\n      0x20\n        /* \"#utility.yul\":20148:20157   */\n      dup3\n        /* \"#utility.yul\":20144:20162   */\n      add\n        /* \"#utility.yul\":20136:20162   */\n      swap1\n      pop\n        /* \"#utility.yul\":20172:20243   */\n      tag_467\n        /* \"#utility.yul\":20240:20241   */\n      0x00\n        /* \"#utility.yul\":20229:20238   */\n      dup4\n        /* \"#utility.yul\":20225:20242   */\n      add\n        /* \"#utility.yul\":20216:20222   */\n      dup5\n        /* \"#utility.yul\":20172:20243   */\n      tag_420\n      jump\t// in\n    tag_467:\n        /* \"#utility.yul\":20028:20250   */\n      swap3\n      swap2\n      pop\n      pop\n      jump\t// out\n        /* \"#utility.yul\":20256:20385   */\n    tag_240:\n        /* \"#utility.yul\":20290:20296   */\n      0x00\n        /* \"#utility.yul\":20317:20337   */\n      tag_469\n      tag_470\n      jump\t// in\n    tag_469:\n        /* \"#utility.yul\":20307:20337   */\n      swap1\n      pop\n        /* \"#utility.yul\":20346:20379   */\n      tag_471\n        /* \"#utility.yul\":20374:20378   */\n      dup3\n        /* \"#utility.yul\":20366:20372   */\n      dup3\n        /* \"#utility.yul\":20346:20379   */\n      tag_472\n      jump\t// in\n    tag_471:\n        /* \"#utility.yul\":20256:20385   */\n      swap2\n      swap1\n      pop\n      jump\t// out\n        /* \"#utility.yul\":20391:20466   */\n    tag_470:\n        /* \"#utility.yul\":20424:20430   */\n      0x00\n        /* \"#utility.yul\":20457:20459   */\n      0x40\n        /* \"#utility.yul\":20451:20460   */\n      mload\n        /* \"#utility.yul\":20441:20460   */\n      swap1\n      pop\n        /* \"#utility.yul\":20391:20466   */\n      swap1\n      jump\t// out\n        /* \"#utility.yul\":20472:20780   */\n    tag_239:\n        /* \"#utility.yul\":20534:20538   */\n      0x00\n        /* \"#utility.yul\":20624:20642   */\n      0xffffffffffffffff\n        /* \"#utility.yul\":20616:20622   */\n      dup3\n        /* \"#utility.yul\":20613:20643   */\n      gt\n        /* \"#utility.yul\":20610:20666   */\n      iszero\n      tag_475\n      jumpi\n        /* \"#utility.yul\":20646:20664   */\n      tag_476\n      tag_175\n      jump\t// in\n    tag_476:\n        /* \"#utility.yul\":20610:20666   */\n    tag_475:\n        /* \"#utility.yul\":20684:20713   */\n      tag_477\n        /* \"#utility.yul\":20706:20712   */\n      dup3\n        /* \"#utility.yul\":20684:20713   */\n      tag_336\n      jump\t// in\n    tag_477:\n        /* \"#utility.yul\":20676:20713   */\n      swap1\n      pop\n        /* \"#utility.yul\":20768:20772   */\n      0x20\n        /* \"#utility.yul\":20762:20766   */\n      dup2\n        /* \"#utility.yul\":20758:20773   */\n      add\n        /* \"#utility.yul\":20750:20773   */\n      swap1\n      pop\n        /* \"#utility.yul\":20472:20780   */\n      swap2\n      swap1\n      pop\n      jump\t// out\n        /* \"#utility.yul\":20786:20927   */\n    tag_358:\n        /* \"#utility.yul\":20835:20839   */\n      0x00\n        /* \"#utility.yul\":20858:20861   */\n      dup2\n        /* \"#utility.yul\":20850:20861   */\n      swap1\n      pop\n        /* \"#utility.yul\":20881:20884   */\n      dup2\n        /* \"#utility.yul\":20878:20879   */\n      0x00\n        /* \"#utility.yul\":20871:20885   */\n      mstore\n        /* \"#utility.yul\":20915:20919   */\n      0x20\n        /* \"#utility.yul\":20912:20913   */\n      0x00\n        /* \"#utility.yul\":20902:20920   */\n      keccak256\n        /* \"#utility.yul\":20894:20920   */\n      swap1\n      pop\n        /* \"#utility.yul\":20786:20927   */\n      swap2\n      swap1\n      pop\n      jump\t// out\n        /* \"#utility.yul\":20933:21031   */\n    tag_323:\n        /* \"#utility.yul\":20984:20990   */\n      0x00\n        /* \"#utility.yul\":21018:21023   */\n      dup2\n        /* \"#utility.yul\":21012:21024   */\n      mload\n        /* \"#utility.yul\":21002:21024   */\n      swap1\n      pop\n        /* \"#utility.yul\":20933:21031   */\n      swap2\n      swap1\n      pop\n      jump\t// out\n        /* \"#utility.yul\":21037:21136   */\n    tag_331:\n        /* \"#utility.yul\":21089:21095   */\n      0x00\n        /* \"#utility.yul\":21123:21128   */\n      dup2\n        /* \"#utility.yul\":21117:21129   */\n      mload\n        /* \"#utility.yul\":21107:21129   */\n      swap1\n      pop\n        /* \"#utility.yul\":21037:21136   */\n      swap2\n      swap1\n      pop\n      jump\t// out\n        /* \"#utility.yul\":21142:21289   */\n    tag_325:\n        /* \"#utility.yul\":21243:21254   */\n      0x00\n        /* \"#utility.yul\":21280:21283   */\n      dup2\n        /* \"#utility.yul\":21265:21283   */\n      swap1\n      pop\n        /* \"#utility.yul\":21142:21289   */\n      swap3\n      swap2\n      pop\n      pop\n      jump\t// out\n        /* \"#utility.yul\":21295:21454   */\n    tag_333:\n        /* \"#utility.yul\":21369:21380   */\n      0x00\n        /* \"#utility.yul\":21403:21409   */\n      dup3\n        /* \"#utility.yul\":21398:21401   */\n      dup3\n        /* \"#utility.yul\":21391:21410   */\n      mstore\n        /* \"#utility.yul\":21443:21447   */\n      0x20\n        /* \"#utility.yul\":21438:21441   */\n      dup3\n        /* \"#utility.yul\":21434:21448   */\n      add\n        /* \"#utility.yul\":21419:21448   */\n      swap1\n      pop\n        /* \"#utility.yul\":21295:21454   */\n      swap3\n      swap2\n      pop\n      pop\n      jump\t// out\n        /* \"#utility.yul\":21460:21629   */\n    tag_341:\n        /* \"#utility.yul\":21544:21555   */\n      0x00\n        /* \"#utility.yul\":21578:21584   */\n      dup3\n        /* \"#utility.yul\":21573:21576   */\n      dup3\n        /* \"#utility.yul\":21566:21585   */\n      mstore\n        /* \"#utility.yul\":21618:21622   */\n      0x20\n        /* \"#utility.yul\":21613:21616   */\n      dup3\n        /* \"#utility.yul\":21609:21623   */\n      add\n        /* \"#utility.yul\":21594:21623   */\n      swap1\n      pop\n        /* \"#utility.yul\":21460:21629   */\n      swap3\n      swap2\n      pop\n      pop\n      jump\t// out\n        /* \"#utility.yul\":21635:21783   */\n    tag_348:\n        /* \"#utility.yul\":21737:21748   */\n      0x00\n        /* \"#utility.yul\":21774:21777   */\n      dup2\n        /* \"#utility.yul\":21759:21777   */\n      swap1\n      pop\n        /* \"#utility.yul\":21635:21783   */\n      swap3\n      swap2\n      pop\n      pop\n      jump\t// out\n        /* \"#utility.yul\":21789:22094   */\n    tag_156:\n        /* \"#utility.yul\":21829:21832   */\n      0x00\n        /* \"#utility.yul\":21848:21868   */\n      tag_486\n        /* \"#utility.yul\":21866:21867   */\n      dup3\n        /* \"#utility.yul\":21848:21868   */\n      tag_419\n      jump\t// in\n    tag_486:\n        /* \"#utility.yul\":21843:21868   */\n      swap2\n      pop\n        /* \"#utility.yul\":21882:21902   */\n      tag_487\n        /* \"#utility.yul\":21900:21901   */\n      dup4\n        /* \"#utility.yul\":21882:21902   */\n      tag_419\n      jump\t// in\n    tag_487:\n        /* \"#utility.yul\":21877:21902   */\n      swap3\n      pop\n        /* \"#utility.yul\":22036:22037   */\n      dup3\n        /* \"#utility.yul\":21968:22034   */\n      0xffffffffffffffffffffffffffffffffffffffffffffffffffffffffffffffff\n        /* \"#utility.yul\":21964:22038   */\n      sub\n        /* \"#utility.yul\":21961:21962   */\n      dup3\n        /* \"#utility.yul\":21958:22039   */\n      gt\n        /* \"#utility.yul\":21955:22062   */\n      iszero\n      tag_488\n      jumpi\n        /* \"#utility.yul\":22042:22060   */\n      tag_489\n      tag_490\n      jump\t// in\n    tag_489:\n        /* \"#utility.yul\":21955:22062   */\n    tag_488:\n        /* \"#utility.yul\":22086:22087   */\n      dup3\n        /* \"#utility.yul\":22083:22084   */\n      dup3\n        /* \"#utility.yul\":22079:22088   */\n      add\n        /* \"#utility.yul\":22072:22088   */\n      swap1\n      pop\n        /* \"#utility.yul\":21789:22094   */\n      swap3\n      swap2\n      pop\n      pop\n      jump\t// out\n        /* \"#utility.yul\":22100:22285   */\n    tag_172:\n        /* \"#utility.yul\":22140:22141   */\n      0x00\n        /* \"#utility.yul\":22157:22177   */\n      tag_492\n        /* \"#utility.yul\":22175:22176   */\n      dup3\n        /* \"#utility.yul\":22157:22177   */\n      tag_419\n      jump\t// in\n    tag_492:\n        /* \"#utility.yul\":22152:22177   */\n      swap2\n      pop\n        /* \"#utility.yul\":22191:22211   */\n      tag_493\n        /* \"#utility.yul\":22209:22210   */\n      dup4\n        /* \"#utility.yul\":22191:22211   */\n      tag_419\n      jump\t// in\n    tag_493:\n        /* \"#utility.yul\":22186:22211   */\n      swap3\n      pop\n        /* \"#utility.yul\":22230:22231   */\n      dup3\n        /* \"#utility.yul\":22220:22255   */\n      tag_494\n      jumpi\n        /* \"#utility.yul\":22235:22253   */\n      tag_495\n      tag_496\n      jump\t// in\n    tag_495:\n        /* \"#utility.yul\":22220:22255   */\n    tag_494:\n        /* \"#utility.yul\":22277:22278   */\n      dup3\n        /* \"#utility.yul\":22274:22275   */\n      dup3\n        /* \"#utility.yul\":22270:22279   */\n      div\n        /* \"#utility.yul\":22265:22279   */\n      swap1\n      pop\n        /* \"#utility.yul\":22100:22285   */\n      swap3\n      swap2\n      pop\n      pop\n      jump\t// out\n        /* \"#utility.yul\":22291:22482   */\n    tag_159:\n        /* \"#utility.yul\":22331:22335   */\n      0x00\n        /* \"#utility.yul\":22351:22371   */\n      tag_498\n        /* \"#utility.yul\":22369:22370   */\n      dup3\n        /* \"#utility.yul\":22351:22371   */\n      tag_419\n      jump\t// in\n    tag_498:\n        /* \"#utility.yul\":22346:22371   */\n      swap2\n      pop\n        /* \"#utility.yul\":22385:22405   */\n      tag_499\n        /* \"#utility.yul\":22403:22404   */\n      dup4\n        /* \"#utility.yul\":22385:22405   */\n      tag_419\n      jump\t// in\n    tag_499:\n        /* \"#utility.yul\":22380:22405   */\n      swap3\n      pop\n        /* \"#utility.yul\":22424:22425   */\n      dup3\n        /* \"#utility.yul\":22421:22422   */\n      dup3\n        /* \"#utility.yul\":22418:22426   */\n      lt\n        /* \"#utility.yul\":22415:22449   */\n      iszero\n      tag_500\n      jumpi\n        /* \"#utility.yul\":22429:22447   */\n      tag_501\n      tag_490\n      jump\t// in\n    tag_501:\n        /* \"#utility.yul\":22415:22449   */\n    tag_500:\n        /* \"#utility.yul\":22474:22475   */\n      dup3\n        /* \"#utility.yul\":22471:22472   */\n      dup3\n        /* \"#utility.yul\":22467:22476   */\n      sub\n        /* \"#utility.yul\":22459:22476   */\n      swap1\n      pop\n        /* \"#utility.yul\":22291:22482   */\n      swap3\n      swap2\n      pop\n      pop\n      jump\t// out\n        /* \"#utility.yul\":22488:22584   */\n    tag_316:\n        /* \"#utility.yul\":22525:22532   */\n      0x00\n        /* \"#utility.yul\":22554:22578   */\n      tag_503\n        /* \"#utility.yul\":22572:22577   */\n      dup3\n        /* \"#utility.yul\":22554:22578   */\n      tag_504\n      jump\t// in\n    tag_503:\n        /* \"#utility.yul\":22543:22578   */\n      swap1\n      pop\n        /* \"#utility.yul\":22488:22584   */\n      swap2\n      swap1\n      pop\n      jump\t// out\n        /* \"#utility.yul\":22590:22694   */\n    tag_312:\n        /* \"#utility.yul\":22635:22642   */\n      0x00\n        /* \"#utility.yul\":22664:22688   */\n      tag_506\n        /* \"#utility.yul\":22682:22687   */\n      dup3\n        /* \"#utility.yul\":22664:22688   */\n      tag_504\n      jump\t// in\n    tag_506:\n        /* \"#utility.yul\":22653:22688   */\n      swap1\n      pop\n        /* \"#utility.yul\":22590:22694   */\n      swap2\n      swap1\n      pop\n      jump\t// out\n        /* \"#utility.yul\":22700:22790   */\n    tag_507:\n        /* \"#utility.yul\":22734:22741   */\n      0x00\n        /* \"#utility.yul\":22777:22782   */\n      dup2\n        /* \"#utility.yul\":22770:22783   */\n      iszero\n        /* \"#utility.yul\":22763:22784   */\n      iszero\n        /* \"#utility.yul\":22752:22784   */\n      swap1\n      pop\n        /* \"#utility.yul\":22700:22790   */\n      swap2\n      swap1\n      pop\n      jump\t// out\n        /* \"#utility.yul\":22796:22922   */\n    tag_504:\n        /* \"#utility.yul\":22833:22840   */\n      0x00\n        /* \"#utility.yul\":22873:22915   */\n      0xffffffffffffffffffffffffffffffffffffffff\n        /* \"#utility.yul\":22866:22871   */\n      dup3\n        /* \"#utility.yul\":22862:22916   */\n      and\n        /* \"#utility.yul\":22851:22916   */\n      swap1\n      pop\n        /* \"#utility.yul\":22796:22922   */\n      swap2\n      swap1\n      pop\n      jump\t// out\n        /* \"#utility.yul\":22928:23005   */\n    tag_419:\n        /* \"#utility.yul\":22965:22972   */\n      0x00\n        /* \"#utility.yul\":22994:22999   */\n      dup2\n        /* \"#utility.yul\":22983:22999   */\n      swap1\n      pop\n        /* \"#utility.yul\":22928:23005   */\n      swap2\n      swap1\n      pop\n      jump\t// out\n        /* \"#utility.yul\":23011:23165   */\n    tag_245:\n        /* \"#utility.yul\":23095:23101   */\n      dup3\n        /* \"#utility.yul\":23090:23093   */\n      dup2\n        /* \"#utility.yul\":23085:23088   */\n      dup4\n        /* \"#utility.yul\":23072:23102   */\n      calldatacopy\n        /* \"#utility.yul\":23157:23158   */\n      0x00\n        /* \"#utility.yul\":23148:23154   */\n      dup4\n        /* \"#utility.yul\":23143:23146   */\n      dup4\n        /* \"#utility.yul\":23139:23155   */\n      add\n        /* \"#utility.yul\":23132:23159   */\n      mstore\n        /* \"#utility.yul\":23011:23165   */\n      pop\n      pop\n      pop\n      jump\t// out\n        /* \"#utility.yul\":23171:23478   */\n    tag_327:\n        /* \"#utility.yul\":23239:23240   */\n      0x00\n        /* \"#utility.yul\":23249:23362   */\n    tag_513:\n        /* \"#utility.yul\":23263:23269   */\n      dup4\n        /* \"#utility.yul\":23260:23261   */\n      dup2\n        /* \"#utility.yul\":23257:23270   */\n      lt\n        /* \"#utility.yul\":23249:23362   */\n      iszero\n      tag_515\n      jumpi\n        /* \"#utility.yul\":23348:23349   */\n      dup1\n        /* \"#utility.yul\":23343:23346   */\n      dup3\n        /* \"#utility.yul\":23339:23350   */\n      add\n        /* \"#utility.yul\":23333:23351   */\n      mload\n        /* \"#utility.yul\":23329:23330   */\n      dup2\n        /* \"#utility.yul\":23324:23327   */\n      dup5\n        /* \"#utility.yul\":23320:23331   */\n      add\n        /* \"#utility.yul\":23313:23352   */\n      mstore\n        /* \"#utility.yul\":23285:23287   */\n      0x20\n        /* \"#utility.yul\":23282:23283   */\n      dup2\n        /* \"#utility.yul\":23278:23288   */\n      add\n        /* \"#utility.yul\":23273:23288   */\n      swap1\n      pop\n        /* \"#utility.yul\":23249:23362   */\n      jump(tag_513)\n    tag_515:\n        /* \"#utility.yul\":23380:23386   */\n      dup4\n        /* \"#utility.yul\":23377:23378   */\n      dup2\n        /* \"#utility.yul\":23374:23387   */\n      gt\n        /* \"#utility.yul\":23371:23472   */\n      iszero\n      tag_516\n      jumpi\n        /* \"#utility.yul\":23460:23461   */\n      0x00\n        /* \"#utility.yul\":23451:23457   */\n      dup5\n        /* \"#utility.yul\":23446:23449   */\n      dup5\n        /* \"#utility.yul\":23442:23458   */\n      add\n        /* \"#utility.yul\":23435:23462   */\n      mstore\n        /* \"#utility.yul\":23371:23472   */\n    tag_516:\n        /* \"#utility.yul\":23220:23478   */\n      pop\n        /* \"#utility.yul\":23171:23478   */\n      pop\n      pop\n      pop\n      jump\t// out\n        /* \"#utility.yul\":23484:23804   */\n    tag_66:\n        /* \"#utility.yul\":23528:23534   */\n      0x00\n        /* \"#utility.yul\":23565:23566   */\n      0x02\n        /* \"#utility.yul\":23559:23563   */\n      dup3\n        /* \"#utility.yul\":23555:23567   */\n      div\n        /* \"#utility.yul\":23545:23567   */\n      swap1\n      pop\n        /* \"#utility.yul\":23612:23613   */\n      0x01\n        /* \"#utility.yul\":23606:23610   */\n      dup3\n        /* \"#utility.yul\":23602:23614   */\n      and\n        /* \"#utility.yul\":23633:23651   */\n      dup1\n        /* \"#utility.yul\":23623:23704   */\n      tag_518\n      jumpi\n        /* \"#utility.yul\":23689:23693   */\n      0x7f\n        /* \"#utility.yul\":23681:23687   */\n      dup3\n        /* \"#utility.yul\":23677:23694   */\n      and\n        /* \"#utility.yul\":23667:23694   */\n      swap2\n      pop\n        /* \"#utility.yul\":23623:23704   */\n    tag_518:\n        /* \"#utility.yul\":23751:23753   */\n      0x20\n        /* \"#utility.yul\":23743:23749   */\n      dup3\n        /* \"#utility.yul\":23740:23754   */\n      lt\n        /* \"#utility.yul\":23720:23738   */\n      dup2\n        /* \"#utility.yul\":23717:23755   */\n      eq\n        /* \"#utility.yul\":23714:23798   */\n      iszero\n      tag_519\n      jumpi\n        /* \"#utility.yul\":23770:23788   */\n      tag_520\n      tag_521\n      jump\t// in\n    tag_520:\n        /* \"#utility.yul\":23714:23798   */\n    tag_519:\n        /* \"#utility.yul\":23535:23804   */\n      pop\n        /* \"#utility.yul\":23484:23804   */\n      swap2\n      swap1\n      pop\n      jump\t// out\n        /* \"#utility.yul\":23810:24091   */\n    tag_472:\n        /* \"#utility.yul\":23893:23920   */\n      tag_523\n        /* \"#utility.yul\":23915:23919   */\n      dup3\n        /* \"#utility.yul\":23893:23920   */\n      tag_336\n      jump\t// in\n    tag_523:\n        /* \"#utility.yul\":23885:23891   */\n      dup2\n        /* \"#utility.yul\":23881:23921   */\n      add\n        /* \"#utility.yul\":24023:24029   */\n      dup2\n        /* \"#utility.yul\":24011:24021   */\n      dup2\n        /* \"#utility.yul\":24008:24030   */\n      lt\n        /* \"#utility.yul\":23987:24005   */\n      0xffffffffffffffff\n        /* \"#utility.yul\":23975:23985   */\n      dup3\n        /* \"#utility.yul\":23972:24006   */\n      gt\n        /* \"#utility.yul\":23969:24031   */\n      or\n        /* \"#utility.yul\":23966:24054   */\n      iszero\n      tag_524\n      jumpi\n        /* \"#utility.yul\":24034:24052   */\n      tag_525\n      tag_175\n      jump\t// in\n    tag_525:\n        /* \"#utility.yul\":23966:24054   */\n    tag_524:\n        /* \"#utility.yul\":24074:24084   */\n      dup1\n        /* \"#utility.yul\":24070:24072   */\n      0x40\n        /* \"#utility.yul\":24063:24085   */\n      mstore\n        /* \"#utility.yul\":23853:24091   */\n      pop\n        /* \"#utility.yul\":23810:24091   */\n      pop\n      pop\n      jump\t// out\n        /* \"#utility.yul\":24097:24330   */\n    tag_170:\n        /* \"#utility.yul\":24136:24139   */\n      0x00\n        /* \"#utility.yul\":24159:24183   */\n      tag_527\n        /* \"#utility.yul\":24177:24182   */\n      dup3\n        /* \"#utility.yul\":24159:24183   */\n      tag_419\n      jump\t// in\n    tag_527:\n        /* \"#utility.yul\":24150:24183   */\n      swap2\n      pop\n        /* \"#utility.yul\":24205:24271   */\n      0xffffffffffffffffffffffffffffffffffffffffffffffffffffffffffffffff\n        /* \"#utility.yul\":24198:24203   */\n      dup3\n        /* \"#utility.yul\":24195:24272   */\n      eq\n        /* \"#utility.yul\":24192:24295   */\n      iszero\n      tag_528\n      jumpi\n        /* \"#utility.yul\":24275:24293   */\n      tag_529\n      tag_490\n      jump\t// in\n    tag_529:\n        /* \"#utility.yul\":24192:24295   */\n    tag_528:\n        /* \"#utility.yul\":24322:24323   */\n      0x01\n        /* \"#utility.yul\":24315:24320   */\n      dup3\n        /* \"#utility.yul\":24311:24324   */\n      add\n        /* \"#utility.yul\":24304:24324   */\n      swap1\n      pop\n        /* \"#utility.yul\":24097:24330   */\n      swap2\n      swap1\n      pop\n      jump\t// out\n        /* \"#utility.yul\":24336:24512   */\n    tag_181:\n        /* \"#utility.yul\":24368:24369   */\n      0x00\n        /* \"#utility.yul\":24385:24405   */\n      tag_531\n        /* \"#utility.yul\":24403:24404   */\n      dup3\n        /* \"#utility.yul\":24385:24405   */\n      tag_419\n      jump\t// in\n    tag_531:\n        /* \"#utility.yul\":24380:24405   */\n      swap2\n      pop\n        /* \"#utility.yul\":24419:24439   */\n      tag_532\n        /* \"#utility.yul\":24437:24438   */\n      dup4\n        /* \"#utility.yul\":24419:24439   */\n      tag_419\n      jump\t// in\n    tag_532:\n        /* \"#utility.yul\":24414:24439   */\n      swap3\n      pop\n        /* \"#utility.yul\":24458:24459   */\n      dup3\n        /* \"#utility.yul\":24448:24483   */\n      tag_533\n      jumpi\n        /* \"#utility.yul\":24463:24481   */\n      tag_534\n      tag_496\n      jump\t// in\n    tag_534:\n        /* \"#utility.yul\":24448:24483   */\n    tag_533:\n        /* \"#utility.yul\":24504:24505   */\n      dup3\n        /* \"#utility.yul\":24501:24502   */\n      dup3\n        /* \"#utility.yul\":24497:24506   */\n      mod\n        /* \"#utility.yul\":24492:24506   */\n      swap1\n      pop\n        /* \"#utility.yul\":24336:24512   */\n      swap3\n      swap2\n      pop\n      pop\n      jump\t// out\n        /* \"#utility.yul\":24518:24698   */\n    tag_490:\n        /* \"#utility.yul\":24566:24643   */\n      0x4e487b7100000000000000000000000000000000000000000000000000000000\n        /* \"#utility.yul\":24563:24564   */\n      0x00\n        /* \"#utility.yul\":24556:24644   */\n      mstore\n        /* \"#utility.yul\":24663:24667   */\n      0x11\n        /* \"#utility.yul\":24660:24661   */\n      0x04\n        /* \"#utility.yul\":24653:24668   */\n      mstore\n        /* \"#utility.yul\":24687:24691   */\n      0x24\n        /* \"#utility.yul\":24684:24685   */\n      0x00\n        /* \"#utility.yul\":24677:24692   */\n      revert\n        /* \"#utility.yul\":24704:24884   */\n    tag_496:\n        /* \"#utility.yul\":24752:24829   */\n      0x4e487b7100000000000000000000000000000000000000000000000000000000\n        /* \"#utility.yul\":24749:24750   */\n      0x00\n        /* \"#utility.yul\":24742:24830   */\n      mstore\n        /* \"#utility.yul\":24849:24853   */\n      0x12\n        /* \"#utility.yul\":24846:24847   */\n      0x04\n        /* \"#utility.yul\":24839:24854   */\n      mstore\n        /* \"#utility.yul\":24873:24877   */\n      0x24\n        /* \"#utility.yul\":24870:24871   */\n      0x00\n        /* \"#utility.yul\":24863:24878   */\n      revert\n        /* \"#utility.yul\":24890:25070   */\n    tag_521:\n        /* \"#utility.yul\":24938:25015   */\n      0x4e487b7100000000000000000000000000000000000000000000000000000000\n        /* \"#utility.yul\":24935:24936   */\n      0x00\n        /* \"#utility.yul\":24928:25016   */\n      mstore\n        /* \"#utility.yul\":25035:25039   */\n      0x22\n        /* \"#utility.yul\":25032:25033   */\n      0x04\n        /* \"#utility.yul\":25025:25040   */\n      mstore\n        /* \"#utility.yul\":25059:25063   */\n      0x24\n        /* \"#utility.yul\":25056:25057   */\n      0x00\n        /* \"#utility.yul\":25049:25064   */\n      revert\n        /* \"#utility.yul\":25076:25256   */\n    tag_185:\n        /* \"#utility.yul\":25124:25201   */\n      0x4e487b7100000000000000000000000000000000000000000000000000000000\n        /* \"#utility.yul\":25121:25122   */\n      0x00\n        /* \"#utility.yul\":25114:25202   */\n      mstore\n        /* \"#utility.yul\":25221:25225   */\n      0x32\n        /* \"#utility.yul\":25218:25219   */\n      0x04\n        /* \"#utility.yul\":25211:25226   */\n      mstore\n        /* \"#utility.yul\":25245:25249   */\n      0x24\n        /* \"#utility.yul\":25242:25243   */\n      0x00\n        /* \"#utility.yul\":25235:25250   */\n      revert\n        /* \"#utility.yul\":25262:25442   */\n    tag_175:\n        /* \"#utility.yul\":25310:25387   */\n      0x4e487b7100000000000000000000000000000000000000000000000000000000\n        /* \"#utility.yul\":25307:25308   */\n      0x00\n        /* \"#utility.yul\":25300:25388   */\n      mstore\n        /* \"#utility.yul\":25407:25411   */\n      0x41\n        /* \"#utility.yul\":25404:25405   */\n      0x04\n        /* \"#utility.yul\":25397:25412   */\n      mstore\n        /* \"#utility.yul\":25431:25435   */\n      0x24\n        /* \"#utility.yul\":25428:25429   */\n      0x00\n        /* \"#utility.yul\":25421:25436   */\n      revert\n        /* \"#utility.yul\":25448:25565   */\n    tag_262:\n        /* \"#utility.yul\":25557:25558   */\n      0x00\n        /* \"#utility.yul\":25554:25555   */\n      dup1\n        /* \"#utility.yul\":25547:25559   */\n      revert\n        /* \"#utility.yul\":25571:25688   */\n    tag_243:\n        /* \"#utility.yul\":25680:25681   */\n      0x00\n        /* \"#utility.yul\":25677:25678   */\n      dup1\n        /* \"#utility.yul\":25670:25682   */\n      revert\n        /* \"#utility.yul\":25694:25811   */\n    tag_286:\n        /* \"#utility.yul\":25803:25804   */\n      0x00\n        /* \"#utility.yul\":25800:25801   */\n      dup1\n        /* \"#utility.yul\":25793:25805   */\n      revert\n        /* \"#utility.yul\":25817:25934   */\n    tag_274:\n        /* \"#utility.yul\":25926:25927   */\n      0x00\n        /* \"#utility.yul\":25923:25924   */\n      dup1\n        /* \"#utility.yul\":25916:25928   */\n      revert\n        /* \"#utility.yul\":25940:26042   */\n    tag_336:\n        /* \"#utility.yul\":25981:25987   */\n      0x00\n        /* \"#utility.yul\":26032:26034   */\n      0x1f\n        /* \"#utility.yul\":26028:26035   */\n      not\n        /* \"#utility.yul\":26023:26025   */\n      0x1f\n        /* \"#utility.yul\":26016:26021   */\n      dup4\n        /* \"#utility.yul\":26012:26026   */\n      add\n        /* \"#utility.yul\":26008:26036   */\n      and\n        /* \"#utility.yul\":25998:26036   */\n      swap1\n      pop\n        /* \"#utility.yul\":25940:26042   */\n      swap2\n      swap1\n      pop\n      jump\t// out\n        /* \"#utility.yul\":26048:26273   */\n    tag_366:\n        /* \"#utility.yul\":26188:26222   */\n      0x4f776e61626c653a206e6577206f776e657220697320746865207a65726f2061\n        /* \"#utility.yul\":26184:26185   */\n      0x00\n        /* \"#utility.yul\":26176:26182   */\n      dup3\n        /* \"#utility.yul\":26172:26186   */\n      add\n        /* \"#utility.yul\":26165:26223   */\n      mstore\n        /* \"#utility.yul\":26257:26265   */\n      0x6464726573730000000000000000000000000000000000000000000000000000\n        /* \"#utility.yul\":26252:26254   */\n      0x20\n        /* \"#utility.yul\":26244:26250   */\n      dup3\n        /* \"#utility.yul\":26240:26255   */\n      add\n        /* \"#utility.yul\":26233:26266   */\n      mstore\n        /* \"#utility.yul\":26048:26273   */\n      pop\n      jump\t// out\n        /* \"#utility.yul\":26279:26461   */\n    tag_371:\n        /* \"#utility.yul\":26419:26453   */\n      0x6d616b655061796d656e743a20496e76616c696420746f6b656e20696e646578\n        /* \"#utility.yul\":26415:26416   */\n      0x00\n        /* \"#utility.yul\":26407:26413   */\n      dup3\n        /* \"#utility.yul\":26403:26417   */\n      add\n        /* \"#utility.yul\":26396:26454   */\n      mstore\n        /* \"#utility.yul\":26279:26461   */\n      pop\n      jump\t// out\n        /* \"#utility.yul\":26467:26690   */\n    tag_376:\n        /* \"#utility.yul\":26607:26641   */\n      0x6164645061796d656e74546f6b656e3a20546f6b656e20616c72656164792061\n        /* \"#utility.yul\":26603:26604   */\n      0x00\n        /* \"#utility.yul\":26595:26601   */\n      dup3\n        /* \"#utility.yul\":26591:26605   */\n      add\n        /* \"#utility.yul\":26584:26642   */\n      mstore\n        /* \"#utility.yul\":26676:26682   */\n      0x6464656400000000000000000000000000000000000000000000000000000000\n        /* \"#utility.yul\":26671:26673   */\n      0x20\n        /* \"#utility.yul\":26663:26669   */\n      dup3\n        /* \"#utility.yul\":26659:26674   */\n      add\n        /* \"#utility.yul\":26652:26683   */\n      mstore\n        /* \"#utility.yul\":26467:26690   */\n      pop\n      jump\t// out\n        /* \"#utility.yul\":26696:26921   */\n    tag_381:\n        /* \"#utility.yul\":26836:26870   */\n      0x416464726573733a20696e73756666696369656e742062616c616e636520666f\n        /* \"#utility.yul\":26832:26833   */\n      0x00\n        /* \"#utility.yul\":26824:26830   */\n      dup3\n        /* \"#utility.yul\":26820:26834   */\n      add\n        /* \"#utility.yul\":26813:26871   */\n      mstore\n        /* \"#utility.yul\":26905:26913   */\n      0x722063616c6c0000000000000000000000000000000000000000000000000000\n        /* \"#utility.yul\":26900:26902   */\n      0x20\n        /* \"#utility.yul\":26892:26898   */\n      dup3\n        /* \"#utility.yul\":26888:26903   */\n      add\n        /* \"#utility.yul\":26881:26914   */\n      mstore\n        /* \"#utility.yul\":26696:26921   */\n      pop\n      jump\t// out\n        /* \"#utility.yul\":26927:27109   */\n    tag_386:\n        /* \"#utility.yul\":27067:27101   */\n      0x4f776e61626c653a2063616c6c6572206973206e6f7420746865206f776e6572\n        /* \"#utility.yul\":27063:27064   */\n      0x00\n        /* \"#utility.yul\":27055:27061   */\n      dup3\n        /* \"#utility.yul\":27051:27065   */\n      add\n        /* \"#utility.yul\":27044:27102   */\n      mstore\n        /* \"#utility.yul\":26927:27109   */\n      pop\n      jump\t// out\n        /* \"#utility.yul\":27115:27346   */\n    tag_391:\n        /* \"#utility.yul\":27255:27289   */\n      0x676574546f6b656e496e6465783a204e6f74206120737570706f727465642070\n        /* \"#utility.yul\":27251:27252   */\n      0x00\n        /* \"#utility.yul\":27243:27249   */\n      dup3\n        /* \"#utility.yul\":27239:27253   */\n      add\n        /* \"#utility.yul\":27232:27290   */\n      mstore\n        /* \"#utility.yul\":27324:27338   */\n      0x61796d656e7420746f6b656e0000000000000000000000000000000000000000\n        /* \"#utility.yul\":27319:27321   */\n      0x20\n        /* \"#utility.yul\":27311:27317   */\n      dup3\n        /* \"#utility.yul\":27307:27322   */\n      add\n        /* \"#utility.yul\":27300:27339   */\n      mstore\n        /* \"#utility.yul\":27115:27346   */\n      pop\n      jump\t// out\n        /* \"#utility.yul\":27352:27531   */\n    tag_396:\n        /* \"#utility.yul\":27492:27523   */\n      0x416464726573733a2063616c6c20746f206e6f6e2d636f6e7472616374000000\n        /* \"#utility.yul\":27488:27489   */\n      0x00\n        /* \"#utility.yul\":27480:27486   */\n      dup3\n        /* \"#utility.yul\":27476:27490   */\n      add\n        /* \"#utility.yul\":27469:27524   */\n      mstore\n        /* \"#utility.yul\":27352:27531   */\n      pop\n      jump\t// out\n        /* \"#utility.yul\":27537:27766   */\n    tag_401:\n        /* \"#utility.yul\":27677:27711   */\n      0x5361666545524332303a204552433230206f7065726174696f6e20646964206e\n        /* \"#utility.yul\":27673:27674   */\n      0x00\n        /* \"#utility.yul\":27665:27671   */\n      dup3\n        /* \"#utility.yul\":27661:27675   */\n      add\n        /* \"#utility.yul\":27654:27712   */\n      mstore\n        /* \"#utility.yul\":27746:27758   */\n      0x6f74207375636365656400000000000000000000000000000000000000000000\n        /* \"#utility.yul\":27741:27743   */\n      0x20\n        /* \"#utility.yul\":27733:27739   */\n      dup3\n        /* \"#utility.yul\":27729:27744   */\n      add\n        /* \"#utility.yul\":27722:27759   */\n      mstore\n        /* \"#utility.yul\":27537:27766   */\n      pop\n      jump\t// out\n        /* \"#utility.yul\":27772:28009   */\n    tag_406:\n        /* \"#utility.yul\":27912:27946   */\n      0x6d616b655061796d656e743a20436f6e7472616374206e6f7420617070726f76\n        /* \"#utility.yul\":27908:27909   */\n      0x00\n        /* \"#utility.yul\":27900:27906   */\n      dup3\n        /* \"#utility.yul\":27896:27910   */\n      add\n        /* \"#utility.yul\":27889:27947   */\n      mstore\n        /* \"#utility.yul\":27981:28001   */\n      0x656420746f206d616b65207061796d656e740000000000000000000000000000\n        /* \"#utility.yul\":27976:27978   */\n      0x20\n        /* \"#utility.yul\":27968:27974   */\n      dup3\n        /* \"#utility.yul\":27964:27979   */\n      add\n        /* \"#utility.yul\":27957:28002   */\n      mstore\n        /* \"#utility.yul\":27772:28009   */\n      pop\n      jump\t// out\n        /* \"#utility.yul\":28015:28137   */\n    tag_249:\n        /* \"#utility.yul\":28088:28112   */\n      tag_555\n        /* \"#utility.yul\":28106:28111   */\n      dup2\n        /* \"#utility.yul\":28088:28112   */\n      tag_316\n      jump\t// in\n    tag_555:\n        /* \"#utility.yul\":28081:28086   */\n      dup2\n        /* \"#utility.yul\":28078:28113   */\n      eq\n        /* \"#utility.yul\":28068:28131   */\n      tag_556\n      jumpi\n        /* \"#utility.yul\":28127:28128   */\n      0x00\n        /* \"#utility.yul\":28124:28125   */\n      dup1\n        /* \"#utility.yul\":28117:28129   */\n      revert\n        /* \"#utility.yul\":28068:28131   */\n    tag_556:\n        /* \"#utility.yul\":28015:28137   */\n      pop\n      jump\t// out\n        /* \"#utility.yul\":28143:28281   */\n    tag_253:\n        /* \"#utility.yul\":28224:28256   */\n      tag_558\n        /* \"#utility.yul\":28250:28255   */\n      dup2\n        /* \"#utility.yul\":28224:28256   */\n      tag_312\n      jump\t// in\n    tag_558:\n        /* \"#utility.yul\":28217:28222   */\n      dup2\n        /* \"#utility.yul\":28214:28257   */\n      eq\n        /* \"#utility.yul\":28204:28275   */\n      tag_559\n      jumpi\n        /* \"#utility.yul\":28271:28272   */\n      0x00\n        /* \"#utility.yul\":28268:28269   */\n      dup1\n        /* \"#utility.yul\":28261:28273   */\n      revert\n        /* \"#utility.yul\":28204:28275   */\n    tag_559:\n        /* \"#utility.yul\":28143:28281   */\n      pop\n      jump\t// out\n        /* \"#utility.yul\":28287:28403   */\n    tag_257:\n        /* \"#utility.yul\":28357:28378   */\n      tag_561\n        /* \"#utility.yul\":28372:28377   */\n      dup2\n        /* \"#utility.yul\":28357:28378   */\n      tag_507\n      jump\t// in\n    tag_561:\n        /* \"#utility.yul\":28350:28355   */\n      dup2\n        /* \"#utility.yul\":28347:28379   */\n      eq\n        /* \"#utility.yul\":28337:28397   */\n      tag_562\n      jumpi\n        /* \"#utility.yul\":28393:28394   */\n      0x00\n        /* \"#utility.yul\":28390:28391   */\n      dup1\n        /* \"#utility.yul\":28383:28395   */\n      revert\n        /* \"#utility.yul\":28337:28397   */\n    tag_562:\n        /* \"#utility.yul\":28287:28403   */\n      pop\n      jump\t// out\n        /* \"#utility.yul\":28409:28531   */\n    tag_267:\n        /* \"#utility.yul\":28482:28506   */\n      tag_564\n        /* \"#utility.yul\":28500:28505   */\n      dup2\n        /* \"#utility.yul\":28482:28506   */\n      tag_419\n      jump\t// in\n    tag_564:\n        /* \"#utility.yul\":28475:28480   */\n      dup2\n        /* \"#utility.yul\":28472:28507   */\n      eq\n        /* \"#utility.yul\":28462:28525   */\n      tag_565\n      jumpi\n        /* \"#utility.yul\":28521:28522   */\n      0x00\n        /* \"#utility.yul\":28518:28519   */\n      dup1\n        /* \"#utility.yul\":28511:28523   */\n      revert\n        /* \"#utility.yul\":28462:28525   */\n    tag_565:\n        /* \"#utility.yul\":28409:28531   */\n      pop\n      jump\t// out\n\n    auxdata: 0xa264697066735822122077539d4bea38f9c35eea60f5bc6eb438d16fd2ed43b93933d09f058701a528d664736f6c63430008070033\n}\n",
				"bytecode": {
					"linkReferences": {},
					"object": "608060405260016003553480156200001657600080fd5b50604051620026da380380620026da83398181016040528101906200003c91906200018e565b6200005c62000050620000ab60201b60201c565b620000b360201b60201c565b6001808190555080600560006101000a81548173ffffffffffffffffffffffffffffffffffffffff021916908373ffffffffffffffffffffffffffffffffffffffff1602179055505062000213565b600033905090565b60008060009054906101000a900473ffffffffffffffffffffffffffffffffffffffff169050816000806101000a81548173ffffffffffffffffffffffffffffffffffffffff021916908373ffffffffffffffffffffffffffffffffffffffff1602179055508173ffffffffffffffffffffffffffffffffffffffff168173ffffffffffffffffffffffffffffffffffffffff167f8be0079c531659141344cd1fd0a4f28419497f9722a3daafe3b4186f6b6457e060405160405180910390a35050565b6000815190506200018881620001f9565b92915050565b600060208284031215620001a757620001a6620001f4565b5b6000620001b78482850162000177565b91505092915050565b6000620001cd82620001d4565b9050919050565b600073ffffffffffffffffffffffffffffffffffffffff82169050919050565b600080fd5b6200020481620001c0565b81146200021057600080fd5b50565b6124b780620002236000396000f3fe608060405234801561001057600080fd5b50600436106100a95760003560e01c8063715018a611610071578063715018a6146101645780638da5cb5b1461016e578063c62556261461018c578063deaa59df146101bc578063eb0c52aa146101d8578063f2fde38b14610208576100a9565b8063169e90bc146100ae5780634a7dc8e0146100de578063521eb273146100fa578063541dc0141461011857806366c0bd2414610134575b600080fd5b6100c860048036038101906100c39190611659565b610224565b6040516100d59190611d96565b60405180910390f35b6100f860048036038101906100f391906115ff565b610488565b005b610102610698565b60405161010f9190611b9b565b60405180910390f35b610132600480360381019061012d91906116e2565b6106be565b005b61014e600480360381019061014991906115ff565b610af9565b60405161015b9190611db8565b60405180910390f35b61016c610bc4565b005b610176610c4c565b6040516101839190611b80565b60405180910390f35b6101a660048036038101906101a19190611765565b610c75565b6040516101b39190611b80565b60405180910390f35b6101d660048036038101906101d1919061162c565b610ca8565b005b6101f260048036038101906101ed91906115ff565b610dab565b6040516101ff9190611db8565b60405180910390f35b610222600480360381019061021d91906115ff565b610dc3565b005b61022c61141a565b600660008473ffffffffffffffffffffffffffffffffffffffff1673ffffffffffffffffffffffffffffffffffffffff168152602001908152602001600020826040516102799190611b52565b90815260200160405180910390206040518060e00160405290816000820180546102a290611fe3565b80601f01602080910402602001604051908101604052809291908181526020018280546102ce90611fe3565b801561031b5780601f106102f05761010080835404028352916020019161031b565b820191906000526020600020905b8154815290600101906020018083116102fe57829003601f168201915b5050505050815260200160018201805461033490611fe3565b80601f016020809104026020016040519081016040528092919081815260200182805461036090611fe3565b80156103ad5780601f10610382576101008083540402835291602001916103ad565b820191906000526020600020905b81548152906001019060200180831161039057829003601f168201915b505050505081526020016002820160009054906101000a900473ffffffffffffffffffffffffffffffffffffffff1673ffffffffffffffffffffffffffffffffffffffff1673ffffffffffffffffffffffffffffffffffffffff1681526020016003820154815260200160048201548152602001600582015481526020016006820160009054906101000a900473ffffffffffffffffffffffffffffffffffffffff1673ffffffffffffffffffffffffffffffffffffffff1673ffffffffffffffffffffffffffffffffffffffff1681525050905092915050565b610490610ebb565b73ffffffffffffffffffffffffffffffffffffffff166104ae610c4c565b73ffffffffffffffffffffffffffffffffffffffff1614610504576040517f08c379a00000000000000000000000000000000000000000000000000000000081526004016104fb90611cf6565b60405180910390fd5b6000600460008373ffffffffffffffffffffffffffffffffffffffff1673ffffffffffffffffffffffffffffffffffffffff1681526020019081526020016000205414610586576040517f08c379a000000000000000000000000000000000000000000000000000000000815260040161057d90611cb6565b60405180910390fd5b8060026000600354815260200190815260200160002060006101000a81548173ffffffffffffffffffffffffffffffffffffffff021916908373ffffffffffffffffffffffffffffffffffffffff160217905550600354600460008373ffffffffffffffffffffffffffffffffffffffff1673ffffffffffffffffffffffffffffffffffffffff168152602001908152602001600020819055506106366001600354610ec390919063ffffffff16565b6003819055506106526001600354610ed990919063ffffffff16565b8173ffffffffffffffffffffffffffffffffffffffff167fb5498d88d9ae1cb339dbe68df2a6fdc5e7e4d8045bbd0b39f0d5648399a753f260405160405180910390a350565b600560009054906101000a900473ffffffffffffffffffffffffffffffffffffffff1681565b600073ffffffffffffffffffffffffffffffffffffffff166002600085815260200190815260200160002060009054906101000a900473ffffffffffffffffffffffffffffffffffffffff1673ffffffffffffffffffffffffffffffffffffffff161415610761576040517f08c379a000000000000000000000000000000000000000000000000000000000815260040161075890611c96565b60405180910390fd5b60006002600085815260200190815260200160002060009054906101000a900473ffffffffffffffffffffffffffffffffffffffff16905060008173ffffffffffffffffffffffffffffffffffffffff1663dd62ed3e6107bf610ebb565b306040518363ffffffff1660e01b81526004016107dd929190611bb6565b60206040518083038186803b1580156107f557600080fd5b505afa158015610809573d6000803e3d6000fd5b505050506040513d601f19601f8201168201806040525081019061082d9190611792565b905083811015610872576040517f08c379a000000000000000000000000000000000000000000000000000000000815260040161086990611d76565b60405180910390fd5b6108c861087d610ebb565b600560009054906101000a900473ffffffffffffffffffffffffffffffffffffffff16868573ffffffffffffffffffffffffffffffffffffffff16610eef909392919063ffffffff16565b6000600660006108d6610ebb565b73ffffffffffffffffffffffffffffffffffffffff1673ffffffffffffffffffffffffffffffffffffffff1681526020019081526020016000208760405161091e9190611b52565b9081526020016040518091039020905086816000019080519060200190610946929190611483565b506109848742610954610ebb565b60405160200161096693929190611c38565b6040516020818303038152906040528051906020012060001c610f78565b81600101908051906020019061099b929190611483565b506002600087815260200190815260200160002060009054906101000a900473ffffffffffffffffffffffffffffffffffffffff168160020160006101000a81548173ffffffffffffffffffffffffffffffffffffffff021916908373ffffffffffffffffffffffffffffffffffffffff160217905550858160030181905550848160040181905550838160050181905550610a35610ebb565b8160060160006101000a81548173ffffffffffffffffffffffffffffffffffffffff021916908373ffffffffffffffffffffffffffffffffffffffff160217905550610a7f610ebb565b73ffffffffffffffffffffffffffffffffffffffff1681600101604051610aa69190611b69565b604051809103902088604051610abc9190611b52565b60405180910390207f252ea8f225dc33ac745d0cf22974635091a5ff8332a55f6469595caa3337a8fc60405160405180910390a450505050505050565b600080600460008473ffffffffffffffffffffffffffffffffffffffff1673ffffffffffffffffffffffffffffffffffffffff168152602001908152602001600020541415610b7d576040517f08c379a0000000000000000000000000000000000000000000000000000000008152600401610b7490611d16565b60405180910390fd5b600460008373ffffffffffffffffffffffffffffffffffffffff1673ffffffffffffffffffffffffffffffffffffffff168152602001908152602001600020549050919050565b610bcc610ebb565b73ffffffffffffffffffffffffffffffffffffffff16610bea610c4c565b73ffffffffffffffffffffffffffffffffffffffff1614610c40576040517f08c379a0000000000000000000000000000000000000000000000000000000008152600401610c3790611cf6565b60405180910390fd5b610c4a60006110d9565b565b60008060009054906101000a900473ffffffffffffffffffffffffffffffffffffffff16905090565b60026020528060005260406000206000915054906101000a900473ffffffffffffffffffffffffffffffffffffffff1681565b610cb0610ebb565b73ffffffffffffffffffffffffffffffffffffffff16610cce610c4c565b73ffffffffffffffffffffffffffffffffffffffff1614610d24576040517f08c379a0000000000000000000000000000000000000000000000000000000008152600401610d1b90611cf6565b60405180910390fd5b80600560006101000a81548173ffffffffffffffffffffffffffffffffffffffff021916908373ffffffffffffffffffffffffffffffffffffffff1602179055508073ffffffffffffffffffffffffffffffffffffffff167f65ac7c44ce1402d115f5033c9dde8b6d1e130550ecd89ac7659bc257d4f5b6d560405160405180910390a250565b60046020528060005260406000206000915090505481565b610dcb610ebb565b73ffffffffffffffffffffffffffffffffffffffff16610de9610c4c565b73ffffffffffffffffffffffffffffffffffffffff1614610e3f576040517f08c379a0000000000000000000000000000000000000000000000000000000008152600401610e3690611cf6565b60405180910390fd5b600073ffffffffffffffffffffffffffffffffffffffff168173ffffffffffffffffffffffffffffffffffffffff161415610eaf576040517f08c379a0000000000000000000000000000000000000000000000000000000008152600401610ea690611c76565b60405180910390fd5b610eb8816110d9565b50565b600033905090565b60008183610ed19190611e8c565b905092915050565b60008183610ee79190611f13565b905092915050565b610f72846323b872dd60e01b858585604051602401610f1093929190611bdf565b604051602081830303815290604052907bffffffffffffffffffffffffffffffffffffffffffffffffffffffff19166020820180517bffffffffffffffffffffffffffffffffffffffffffffffffffffffff838183161783525050505061119d565b50505050565b60606000821415610fc0576040518060400160405280600181526020017f300000000000000000000000000000000000000000000000000000000000000081525090506110d4565b600082905060005b60008214610ff2578080610fdb90612046565b915050600a82610feb9190611ee2565b9150610fc8565b60008167ffffffffffffffff81111561100e5761100d61217c565b5b6040519080825280601f01601f1916602001820160405280156110405781602001600182028036833780820191505090505b5090505b600085146110cd576001826110599190611f13565b9150600a85611068919061208f565b60306110749190611e8c565b60f81b81838151811061108a5761108961214d565b5b60200101907effffffffffffffffffffffffffffffffffffffffffffffffffffffffffffff1916908160001a905350600a856110c69190611ee2565b9450611044565b8093505050505b919050565b60008060009054906101000a900473ffffffffffffffffffffffffffffffffffffffff169050816000806101000a81548173ffffffffffffffffffffffffffffffffffffffff021916908373ffffffffffffffffffffffffffffffffffffffff1602179055508173ffffffffffffffffffffffffffffffffffffffff168173ffffffffffffffffffffffffffffffffffffffff167f8be0079c531659141344cd1fd0a4f28419497f9722a3daafe3b4186f6b6457e060405160405180910390a35050565b60006111ff826040518060400160405280602081526020017f5361666545524332303a206c6f772d6c6576656c2063616c6c206661696c65648152508573ffffffffffffffffffffffffffffffffffffffff166112649092919063ffffffff16565b905060008151111561125f578080602001905181019061121f91906116b5565b61125e576040517f08c379a000000000000000000000000000000000000000000000000000000000815260040161125590611d56565b60405180910390fd5b5b505050565b6060611273848460008561127c565b90509392505050565b6060824710156112c1576040517f08c379a00000000000000000000000000000000000000000000000000000000081526004016112b890611cd6565b60405180910390fd5b6112ca85611390565b611309576040517f08c379a000000000000000000000000000000000000000000000000000000000815260040161130090611d36565b60405180910390fd5b6000808673ffffffffffffffffffffffffffffffffffffffff1685876040516113329190611b3b565b60006040518083038185875af1925050503d806000811461136f576040519150601f19603f3d011682016040523d82523d6000602084013e611374565b606091505b50915091506113848282866113b3565b92505050949350505050565b6000808273ffffffffffffffffffffffffffffffffffffffff163b119050919050565b606083156113c357829050611413565b6000835111156113d65782518084602001fd5b816040517f08c379a000000000000000000000000000000000000000000000000000000000815260040161140a9190611c16565b60405180910390fd5b9392505050565b6040518060e001604052806060815260200160608152602001600073ffffffffffffffffffffffffffffffffffffffff168152602001600081526020016000815260200160008152602001600073ffffffffffffffffffffffffffffffffffffffff1681525090565b82805461148f90611fe3565b90600052602060002090601f0160209004810192826114b157600085556114f8565b82601f106114ca57805160ff19168380011785556114f8565b828001600101855582156114f8579182015b828111156114f75782518255916020019190600101906114dc565b5b5090506115059190611509565b5090565b5b8082111561152257600081600090555060010161150a565b5090565b600061153961153484611df8565b611dd3565b905082815260208101848484011115611555576115546121b0565b5b611560848285611fa1565b509392505050565b60008135905061157781612425565b92915050565b60008135905061158c8161243c565b92915050565b6000815190506115a181612453565b92915050565b600082601f8301126115bc576115bb6121ab565b5b81356115cc848260208601611526565b91505092915050565b6000813590506115e48161246a565b92915050565b6000815190506115f98161246a565b92915050565b600060208284031215611615576116146121ba565b5b600061162384828501611568565b91505092915050565b600060208284031215611642576116416121ba565b5b60006116508482850161157d565b91505092915050565b600080604083850312156116705761166f6121ba565b5b600061167e85828601611568565b925050602083013567ffffffffffffffff81111561169f5761169e6121b5565b5b6116ab858286016115a7565b9150509250929050565b6000602082840312156116cb576116ca6121ba565b5b60006116d984828501611592565b91505092915050565b600080600080608085870312156116fc576116fb6121ba565b5b600085013567ffffffffffffffff81111561171a576117196121b5565b5b611726878288016115a7565b9450506020611737878288016115d5565b9350506040611748878288016115d5565b9250506060611759878288016115d5565b91505092959194509250565b60006020828403121561177b5761177a6121ba565b5b6000611789848285016115d5565b91505092915050565b6000602082840312156117a8576117a76121ba565b5b60006117b6848285016115ea565b91505092915050565b6117c881611f59565b82525050565b6117d781611f47565b82525050565b6117e681611f47565b82525050565b60006117f782611e3e565b6118018185611e54565b9350611811818560208601611fb0565b80840191505092915050565b600061182882611e49565b6118328185611e5f565b9350611842818560208601611fb0565b61184b816121bf565b840191505092915050565b600061186182611e49565b61186b8185611e70565b935061187b818560208601611fb0565b611884816121bf565b840191505092915050565b600061189a82611e49565b6118a48185611e81565b93506118b4818560208601611fb0565b80840191505092915050565b600081546118cd81611fe3565b6118d78186611e81565b945060018216600081146118f2576001811461190357611936565b60ff19831686528186019350611936565b61190c85611e29565b60005b8381101561192e5781548189015260018201915060208101905061190f565b838801955050505b50505092915050565b600061194c602683611e70565b9150611957826121d0565b604082019050919050565b600061196f602083611e70565b915061197a8261221f565b602082019050919050565b6000611992602483611e70565b915061199d82612248565b604082019050919050565b60006119b5602683611e70565b91506119c082612297565b604082019050919050565b60006119d8602083611e70565b91506119e3826122e6565b602082019050919050565b60006119fb602c83611e70565b9150611a068261230f565b604082019050919050565b6000611a1e601d83611e70565b9150611a298261235e565b602082019050919050565b6000611a41602a83611e70565b9150611a4c82612387565b604082019050919050565b6000611a64603283611e70565b9150611a6f826123d6565b604082019050919050565b600060e0830160008301518482036000860152611a97828261181d565b91505060208301518482036020860152611ab1828261181d565b9150506040830151611ac660408601826117ce565b506060830151611ad96060860182611b1d565b506080830151611aec6080860182611b1d565b5060a0830151611aff60a0860182611b1d565b5060c0830151611b1260c08601826117ce565b508091505092915050565b611b2681611f97565b82525050565b611b3581611f97565b82525050565b6000611b4782846117ec565b915081905092915050565b6000611b5e828461188f565b915081905092915050565b6000611b7582846118c0565b915081905092915050565b6000602082019050611b9560008301846117dd565b92915050565b6000602082019050611bb060008301846117bf565b92915050565b6000604082019050611bcb60008301856117dd565b611bd860208301846117dd565b9392505050565b6000606082019050611bf460008301866117dd565b611c0160208301856117dd565b611c0e6040830184611b2c565b949350505050565b60006020820190508181036000830152611c308184611856565b905092915050565b60006060820190508181036000830152611c528186611856565b9050611c616020830185611b2c565b611c6e60408301846117dd565b949350505050565b60006020820190508181036000830152611c8f8161193f565b9050919050565b60006020820190508181036000830152611caf81611962565b9050919050565b60006020820190508181036000830152611ccf81611985565b9050919050565b60006020820190508181036000830152611cef816119a8565b9050919050565b60006020820190508181036000830152611d0f816119cb565b9050919050565b60006020820190508181036000830152611d2f816119ee565b9050919050565b60006020820190508181036000830152611d4f81611a11565b9050919050565b60006020820190508181036000830152611d6f81611a34565b9050919050565b60006020820190508181036000830152611d8f81611a57565b9050919050565b60006020820190508181036000830152611db08184611a7a565b905092915050565b6000602082019050611dcd6000830184611b2c565b92915050565b6000611ddd611dee565b9050611de98282612015565b919050565b6000604051905090565b600067ffffffffffffffff821115611e1357611e1261217c565b5b611e1c826121bf565b9050602081019050919050565b60008190508160005260206000209050919050565b600081519050919050565b600081519050919050565b600081905092915050565b600082825260208201905092915050565b600082825260208201905092915050565b600081905092915050565b6000611e9782611f97565b9150611ea283611f97565b9250827fffffffffffffffffffffffffffffffffffffffffffffffffffffffffffffffff03821115611ed757611ed66120c0565b5b828201905092915050565b6000611eed82611f97565b9150611ef883611f97565b925082611f0857611f076120ef565b5b828204905092915050565b6000611f1e82611f97565b9150611f2983611f97565b925082821015611f3c57611f3b6120c0565b5b828203905092915050565b6000611f5282611f77565b9050919050565b6000611f6482611f77565b9050919050565b60008115159050919050565b600073ffffffffffffffffffffffffffffffffffffffff82169050919050565b6000819050919050565b82818337600083830152505050565b60005b83811015611fce578082015181840152602081019050611fb3565b83811115611fdd576000848401525b50505050565b60006002820490506001821680611ffb57607f821691505b6020821081141561200f5761200e61211e565b5b50919050565b61201e826121bf565b810181811067ffffffffffffffff8211171561203d5761203c61217c565b5b80604052505050565b600061205182611f97565b91507fffffffffffffffffffffffffffffffffffffffffffffffffffffffffffffffff821415612084576120836120c0565b5b600182019050919050565b600061209a82611f97565b91506120a583611f97565b9250826120b5576120b46120ef565b5b828206905092915050565b7f4e487b7100000000000000000000000000000000000000000000000000000000600052601160045260246000fd5b7f4e487b7100000000000000000000000000000000000000000000000000000000600052601260045260246000fd5b7f4e487b7100000000000000000000000000000000000000000000000000000000600052602260045260246000fd5b7f4e487b7100000000000000000000000000000000000000000000000000000000600052603260045260246000fd5b7f4e487b7100000000000000000000000000000000000000000000000000000000600052604160045260246000fd5b600080fd5b600080fd5b600080fd5b600080fd5b6000601f19601f8301169050919050565b7f4f776e61626c653a206e6577206f776e657220697320746865207a65726f206160008201527f6464726573730000000000000000000000000000000000000000000000000000602082015250565b7f6d616b655061796d656e743a20496e76616c696420746f6b656e20696e646578600082015250565b7f6164645061796d656e74546f6b656e3a20546f6b656e20616c7265616479206160008201527f6464656400000000000000000000000000000000000000000000000000000000602082015250565b7f416464726573733a20696e73756666696369656e742062616c616e636520666f60008201527f722063616c6c0000000000000000000000000000000000000000000000000000602082015250565b7f4f776e61626c653a2063616c6c6572206973206e6f7420746865206f776e6572600082015250565b7f676574546f6b656e496e6465783a204e6f74206120737570706f72746564207060008201527f61796d656e7420746f6b656e0000000000000000000000000000000000000000602082015250565b7f416464726573733a2063616c6c20746f206e6f6e2d636f6e7472616374000000600082015250565b7f5361666545524332303a204552433230206f7065726174696f6e20646964206e60008201527f6f74207375636365656400000000000000000000000000000000000000000000602082015250565b7f6d616b655061796d656e743a20436f6e7472616374206e6f7420617070726f7660008201527f656420746f206d616b65207061796d656e740000000000000000000000000000602082015250565b61242e81611f47565b811461243957600080fd5b50565b61244581611f59565b811461245057600080fd5b50565b61245c81611f6b565b811461246757600080fd5b50565b61247381611f97565b811461247e57600080fd5b5056fea264697066735822122077539d4bea38f9c35eea60f5bc6eb438d16fd2ed43b93933d09f058701a528d664736f6c63430008070033",
					"opcodes": "PUSH1 0x80 PUSH1 0x40 MSTORE PUSH1 0x1 PUSH1 0x3 SSTORE CALLVALUE DUP1 ISZERO PUSH3 0x16 JUMPI PUSH1 0x0 DUP1 REVERT JUMPDEST POP PUSH1 0x40 MLOAD PUSH3 0x26DA CODESIZE SUB DUP1 PUSH3 0x26DA DUP4 CODECOPY DUP2 DUP2 ADD PUSH1 0x40 MSTORE DUP2 ADD SWAP1 PUSH3 0x3C SWAP2 SWAP1 PUSH3 0x18E JUMP JUMPDEST PUSH3 0x5C PUSH3 0x50 PUSH3 0xAB PUSH1 0x20 SHL PUSH1 0x20 SHR JUMP JUMPDEST PUSH3 0xB3 PUSH1 0x20 SHL PUSH1 0x20 SHR JUMP JUMPDEST PUSH1 0x1 DUP1 DUP2 SWAP1 SSTORE POP DUP1 PUSH1 0x5 PUSH1 0x0 PUSH2 0x100 EXP DUP2 SLOAD DUP2 PUSH20 0xFFFFFFFFFFFFFFFFFFFFFFFFFFFFFFFFFFFFFFFF MUL NOT AND SWAP1 DUP4 PUSH20 0xFFFFFFFFFFFFFFFFFFFFFFFFFFFFFFFFFFFFFFFF AND MUL OR SWAP1 SSTORE POP POP PUSH3 0x213 JUMP JUMPDEST PUSH1 0x0 CALLER SWAP1 POP SWAP1 JUMP JUMPDEST PUSH1 0x0 DUP1 PUSH1 0x0 SWAP1 SLOAD SWAP1 PUSH2 0x100 EXP SWAP1 DIV PUSH20 0xFFFFFFFFFFFFFFFFFFFFFFFFFFFFFFFFFFFFFFFF AND SWAP1 POP DUP2 PUSH1 0x0 DUP1 PUSH2 0x100 EXP DUP2 SLOAD DUP2 PUSH20 0xFFFFFFFFFFFFFFFFFFFFFFFFFFFFFFFFFFFFFFFF MUL NOT AND SWAP1 DUP4 PUSH20 0xFFFFFFFFFFFFFFFFFFFFFFFFFFFFFFFFFFFFFFFF AND MUL OR SWAP1 SSTORE POP DUP2 PUSH20 0xFFFFFFFFFFFFFFFFFFFFFFFFFFFFFFFFFFFFFFFF AND DUP2 PUSH20 0xFFFFFFFFFFFFFFFFFFFFFFFFFFFFFFFFFFFFFFFF AND PUSH32 0x8BE0079C531659141344CD1FD0A4F28419497F9722A3DAAFE3B4186F6B6457E0 PUSH1 0x40 MLOAD PUSH1 0x40 MLOAD DUP1 SWAP2 SUB SWAP1 LOG3 POP POP JUMP JUMPDEST PUSH1 0x0 DUP2 MLOAD SWAP1 POP PUSH3 0x188 DUP2 PUSH3 0x1F9 JUMP JUMPDEST SWAP3 SWAP2 POP POP JUMP JUMPDEST PUSH1 0x0 PUSH1 0x20 DUP3 DUP5 SUB SLT ISZERO PUSH3 0x1A7 JUMPI PUSH3 0x1A6 PUSH3 0x1F4 JUMP JUMPDEST JUMPDEST PUSH1 0x0 PUSH3 0x1B7 DUP5 DUP3 DUP6 ADD PUSH3 0x177 JUMP JUMPDEST SWAP2 POP POP SWAP3 SWAP2 POP POP JUMP JUMPDEST PUSH1 0x0 PUSH3 0x1CD DUP3 PUSH3 0x1D4 JUMP JUMPDEST SWAP1 POP SWAP2 SWAP1 POP JUMP JUMPDEST PUSH1 0x0 PUSH20 0xFFFFFFFFFFFFFFFFFFFFFFFFFFFFFFFFFFFFFFFF DUP3 AND SWAP1 POP SWAP2 SWAP1 POP JUMP JUMPDEST PUSH1 0x0 DUP1 REVERT JUMPDEST PUSH3 0x204 DUP2 PUSH3 0x1C0 JUMP JUMPDEST DUP2 EQ PUSH3 0x210 JUMPI PUSH1 0x0 DUP1 REVERT JUMPDEST POP JUMP JUMPDEST PUSH2 0x24B7 DUP1 PUSH3 0x223 PUSH1 0x0 CODECOPY PUSH1 0x0 RETURN INVALID PUSH1 0x80 PUSH1 0x40 MSTORE CALLVALUE DUP1 ISZERO PUSH2 0x10 JUMPI PUSH1 0x0 DUP1 REVERT JUMPDEST POP PUSH1 0x4 CALLDATASIZE LT PUSH2 0xA9 JUMPI PUSH1 0x0 CALLDATALOAD PUSH1 0xE0 SHR DUP1 PUSH4 0x715018A6 GT PUSH2 0x71 JUMPI DUP1 PUSH4 0x715018A6 EQ PUSH2 0x164 JUMPI DUP1 PUSH4 0x8DA5CB5B EQ PUSH2 0x16E JUMPI DUP1 PUSH4 0xC6255626 EQ PUSH2 0x18C JUMPI DUP1 PUSH4 0xDEAA59DF EQ PUSH2 0x1BC JUMPI DUP1 PUSH4 0xEB0C52AA EQ PUSH2 0x1D8 JUMPI DUP1 PUSH4 0xF2FDE38B EQ PUSH2 0x208 JUMPI PUSH2 0xA9 JUMP JUMPDEST DUP1 PUSH4 0x169E90BC EQ PUSH2 0xAE JUMPI DUP1 PUSH4 0x4A7DC8E0 EQ PUSH2 0xDE JUMPI DUP1 PUSH4 0x521EB273 EQ PUSH2 0xFA JUMPI DUP1 PUSH4 0x541DC014 EQ PUSH2 0x118 JUMPI DUP1 PUSH4 0x66C0BD24 EQ PUSH2 0x134 JUMPI JUMPDEST PUSH1 0x0 DUP1 REVERT JUMPDEST PUSH2 0xC8 PUSH1 0x4 DUP1 CALLDATASIZE SUB DUP2 ADD SWAP1 PUSH2 0xC3 SWAP2 SWAP1 PUSH2 0x1659 JUMP JUMPDEST PUSH2 0x224 JUMP JUMPDEST PUSH1 0x40 MLOAD PUSH2 0xD5 SWAP2 SWAP1 PUSH2 0x1D96 JUMP JUMPDEST PUSH1 0x40 MLOAD DUP1 SWAP2 SUB SWAP1 RETURN JUMPDEST PUSH2 0xF8 PUSH1 0x4 DUP1 CALLDATASIZE SUB DUP2 ADD SWAP1 PUSH2 0xF3 SWAP2 SWAP1 PUSH2 0x15FF JUMP JUMPDEST PUSH2 0x488 JUMP JUMPDEST STOP JUMPDEST PUSH2 0x102 PUSH2 0x698 JUMP JUMPDEST PUSH1 0x40 MLOAD PUSH2 0x10F SWAP2 SWAP1 PUSH2 0x1B9B JUMP JUMPDEST PUSH1 0x40 MLOAD DUP1 SWAP2 SUB SWAP1 RETURN JUMPDEST PUSH2 0x132 PUSH1 0x4 DUP1 CALLDATASIZE SUB DUP2 ADD SWAP1 PUSH2 0x12D SWAP2 SWAP1 PUSH2 0x16E2 JUMP JUMPDEST PUSH2 0x6BE JUMP JUMPDEST STOP JUMPDEST PUSH2 0x14E PUSH1 0x4 DUP1 CALLDATASIZE SUB DUP2 ADD SWAP1 PUSH2 0x149 SWAP2 SWAP1 PUSH2 0x15FF JUMP JUMPDEST PUSH2 0xAF9 JUMP JUMPDEST PUSH1 0x40 MLOAD PUSH2 0x15B SWAP2 SWAP1 PUSH2 0x1DB8 JUMP JUMPDEST PUSH1 0x40 MLOAD DUP1 SWAP2 SUB SWAP1 RETURN JUMPDEST PUSH2 0x16C PUSH2 0xBC4 JUMP JUMPDEST STOP JUMPDEST PUSH2 0x176 PUSH2 0xC4C JUMP JUMPDEST PUSH1 0x40 MLOAD PUSH2 0x183 SWAP2 SWAP1 PUSH2 0x1B80 JUMP JUMPDEST PUSH1 0x40 MLOAD DUP1 SWAP2 SUB SWAP1 RETURN JUMPDEST PUSH2 0x1A6 PUSH1 0x4 DUP1 CALLDATASIZE SUB DUP2 ADD SWAP1 PUSH2 0x1A1 SWAP2 SWAP1 PUSH2 0x1765 JUMP JUMPDEST PUSH2 0xC75 JUMP JUMPDEST PUSH1 0x40 MLOAD PUSH2 0x1B3 SWAP2 SWAP1 PUSH2 0x1B80 JUMP JUMPDEST PUSH1 0x40 MLOAD DUP1 SWAP2 SUB SWAP1 RETURN JUMPDEST PUSH2 0x1D6 PUSH1 0x4 DUP1 CALLDATASIZE SUB DUP2 ADD SWAP1 PUSH2 0x1D1 SWAP2 SWAP1 PUSH2 0x162C JUMP JUMPDEST PUSH2 0xCA8 JUMP JUMPDEST STOP JUMPDEST PUSH2 0x1F2 PUSH1 0x4 DUP1 CALLDATASIZE SUB DUP2 ADD SWAP1 PUSH2 0x1ED SWAP2 SWAP1 PUSH2 0x15FF JUMP JUMPDEST PUSH2 0xDAB JUMP JUMPDEST PUSH1 0x40 MLOAD PUSH2 0x1FF SWAP2 SWAP1 PUSH2 0x1DB8 JUMP JUMPDEST PUSH1 0x40 MLOAD DUP1 SWAP2 SUB SWAP1 RETURN JUMPDEST PUSH2 0x222 PUSH1 0x4 DUP1 CALLDATASIZE SUB DUP2 ADD SWAP1 PUSH2 0x21D SWAP2 SWAP1 PUSH2 0x15FF JUMP JUMPDEST PUSH2 0xDC3 JUMP JUMPDEST STOP JUMPDEST PUSH2 0x22C PUSH2 0x141A JUMP JUMPDEST PUSH1 0x6 PUSH1 0x0 DUP5 PUSH20 0xFFFFFFFFFFFFFFFFFFFFFFFFFFFFFFFFFFFFFFFF AND PUSH20 0xFFFFFFFFFFFFFFFFFFFFFFFFFFFFFFFFFFFFFFFF AND DUP2 MSTORE PUSH1 0x20 ADD SWAP1 DUP2 MSTORE PUSH1 0x20 ADD PUSH1 0x0 KECCAK256 DUP3 PUSH1 0x40 MLOAD PUSH2 0x279 SWAP2 SWAP1 PUSH2 0x1B52 JUMP JUMPDEST SWAP1 DUP2 MSTORE PUSH1 0x20 ADD PUSH1 0x40 MLOAD DUP1 SWAP2 SUB SWAP1 KECCAK256 PUSH1 0x40 MLOAD DUP1 PUSH1 0xE0 ADD PUSH1 0x40 MSTORE SWAP1 DUP2 PUSH1 0x0 DUP3 ADD DUP1 SLOAD PUSH2 0x2A2 SWAP1 PUSH2 0x1FE3 JUMP JUMPDEST DUP1 PUSH1 0x1F ADD PUSH1 0x20 DUP1 SWAP2 DIV MUL PUSH1 0x20 ADD PUSH1 0x40 MLOAD SWAP1 DUP2 ADD PUSH1 0x40 MSTORE DUP1 SWAP3 SWAP2 SWAP1 DUP2 DUP2 MSTORE PUSH1 0x20 ADD DUP3 DUP1 SLOAD PUSH2 0x2CE SWAP1 PUSH2 0x1FE3 JUMP JUMPDEST DUP1 ISZERO PUSH2 0x31B JUMPI DUP1 PUSH1 0x1F LT PUSH2 0x2F0 JUMPI PUSH2 0x100 DUP1 DUP4 SLOAD DIV MUL DUP4 MSTORE SWAP2 PUSH1 0x20 ADD SWAP2 PUSH2 0x31B JUMP JUMPDEST DUP3 ADD SWAP2 SWAP1 PUSH1 0x0 MSTORE PUSH1 0x20 PUSH1 0x0 KECCAK256 SWAP1 JUMPDEST DUP2 SLOAD DUP2 MSTORE SWAP1 PUSH1 0x1 ADD SWAP1 PUSH1 0x20 ADD DUP1 DUP4 GT PUSH2 0x2FE JUMPI DUP3 SWAP1 SUB PUSH1 0x1F AND DUP3 ADD SWAP2 JUMPDEST POP POP POP POP POP DUP2 MSTORE PUSH1 0x20 ADD PUSH1 0x1 DUP3 ADD DUP1 SLOAD PUSH2 0x334 SWAP1 PUSH2 0x1FE3 JUMP JUMPDEST DUP1 PUSH1 0x1F ADD PUSH1 0x20 DUP1 SWAP2 DIV MUL PUSH1 0x20 ADD PUSH1 0x40 MLOAD SWAP1 DUP2 ADD PUSH1 0x40 MSTORE DUP1 SWAP3 SWAP2 SWAP1 DUP2 DUP2 MSTORE PUSH1 0x20 ADD DUP3 DUP1 SLOAD PUSH2 0x360 SWAP1 PUSH2 0x1FE3 JUMP JUMPDEST DUP1 ISZERO PUSH2 0x3AD JUMPI DUP1 PUSH1 0x1F LT PUSH2 0x382 JUMPI PUSH2 0x100 DUP1 DUP4 SLOAD DIV MUL DUP4 MSTORE SWAP2 PUSH1 0x20 ADD SWAP2 PUSH2 0x3AD JUMP JUMPDEST DUP3 ADD SWAP2 SWAP1 PUSH1 0x0 MSTORE PUSH1 0x20 PUSH1 0x0 KECCAK256 SWAP1 JUMPDEST DUP2 SLOAD DUP2 MSTORE SWAP1 PUSH1 0x1 ADD SWAP1 PUSH1 0x20 ADD DUP1 DUP4 GT PUSH2 0x390 JUMPI DUP3 SWAP1 SUB PUSH1 0x1F AND DUP3 ADD SWAP2 JUMPDEST POP POP POP POP POP DUP2 MSTORE PUSH1 0x20 ADD PUSH1 0x2 DUP3 ADD PUSH1 0x0 SWAP1 SLOAD SWAP1 PUSH2 0x100 EXP SWAP1 DIV PUSH20 0xFFFFFFFFFFFFFFFFFFFFFFFFFFFFFFFFFFFFFFFF AND PUSH20 0xFFFFFFFFFFFFFFFFFFFFFFFFFFFFFFFFFFFFFFFF AND PUSH20 0xFFFFFFFFFFFFFFFFFFFFFFFFFFFFFFFFFFFFFFFF AND DUP2 MSTORE PUSH1 0x20 ADD PUSH1 0x3 DUP3 ADD SLOAD DUP2 MSTORE PUSH1 0x20 ADD PUSH1 0x4 DUP3 ADD SLOAD DUP2 MSTORE PUSH1 0x20 ADD PUSH1 0x5 DUP3 ADD SLOAD DUP2 MSTORE PUSH1 0x20 ADD PUSH1 0x6 DUP3 ADD PUSH1 0x0 SWAP1 SLOAD SWAP1 PUSH2 0x100 EXP SWAP1 DIV PUSH20 0xFFFFFFFFFFFFFFFFFFFFFFFFFFFFFFFFFFFFFFFF AND PUSH20 0xFFFFFFFFFFFFFFFFFFFFFFFFFFFFFFFFFFFFFFFF AND PUSH20 0xFFFFFFFFFFFFFFFFFFFFFFFFFFFFFFFFFFFFFFFF AND DUP2 MSTORE POP POP SWAP1 POP SWAP3 SWAP2 POP POP JUMP JUMPDEST PUSH2 0x490 PUSH2 0xEBB JUMP JUMPDEST PUSH20 0xFFFFFFFFFFFFFFFFFFFFFFFFFFFFFFFFFFFFFFFF AND PUSH2 0x4AE PUSH2 0xC4C JUMP JUMPDEST PUSH20 0xFFFFFFFFFFFFFFFFFFFFFFFFFFFFFFFFFFFFFFFF AND EQ PUSH2 0x504 JUMPI PUSH1 0x40 MLOAD PUSH32 0x8C379A000000000000000000000000000000000000000000000000000000000 DUP2 MSTORE PUSH1 0x4 ADD PUSH2 0x4FB SWAP1 PUSH2 0x1CF6 JUMP JUMPDEST PUSH1 0x40 MLOAD DUP1 SWAP2 SUB SWAP1 REVERT JUMPDEST PUSH1 0x0 PUSH1 0x4 PUSH1 0x0 DUP4 PUSH20 0xFFFFFFFFFFFFFFFFFFFFFFFFFFFFFFFFFFFFFFFF AND PUSH20 0xFFFFFFFFFFFFFFFFFFFFFFFFFFFFFFFFFFFFFFFF AND DUP2 MSTORE PUSH1 0x20 ADD SWAP1 DUP2 MSTORE PUSH1 0x20 ADD PUSH1 0x0 KECCAK256 SLOAD EQ PUSH2 0x586 JUMPI PUSH1 0x40 MLOAD PUSH32 0x8C379A000000000000000000000000000000000000000000000000000000000 DUP2 MSTORE PUSH1 0x4 ADD PUSH2 0x57D SWAP1 PUSH2 0x1CB6 JUMP JUMPDEST PUSH1 0x40 MLOAD DUP1 SWAP2 SUB SWAP1 REVERT JUMPDEST DUP1 PUSH1 0x2 PUSH1 0x0 PUSH1 0x3 SLOAD DUP2 MSTORE PUSH1 0x20 ADD SWAP1 DUP2 MSTORE PUSH1 0x20 ADD PUSH1 0x0 KECCAK256 PUSH1 0x0 PUSH2 0x100 EXP DUP2 SLOAD DUP2 PUSH20 0xFFFFFFFFFFFFFFFFFFFFFFFFFFFFFFFFFFFFFFFF MUL NOT AND SWAP1 DUP4 PUSH20 0xFFFFFFFFFFFFFFFFFFFFFFFFFFFFFFFFFFFFFFFF AND MUL OR SWAP1 SSTORE POP PUSH1 0x3 SLOAD PUSH1 0x4 PUSH1 0x0 DUP4 PUSH20 0xFFFFFFFFFFFFFFFFFFFFFFFFFFFFFFFFFFFFFFFF AND PUSH20 0xFFFFFFFFFFFFFFFFFFFFFFFFFFFFFFFFFFFFFFFF AND DUP2 MSTORE PUSH1 0x20 ADD SWAP1 DUP2 MSTORE PUSH1 0x20 ADD PUSH1 0x0 KECCAK256 DUP2 SWAP1 SSTORE POP PUSH2 0x636 PUSH1 0x1 PUSH1 0x3 SLOAD PUSH2 0xEC3 SWAP1 SWAP2 SWAP1 PUSH4 0xFFFFFFFF AND JUMP JUMPDEST PUSH1 0x3 DUP2 SWAP1 SSTORE POP PUSH2 0x652 PUSH1 0x1 PUSH1 0x3 SLOAD PUSH2 0xED9 SWAP1 SWAP2 SWAP1 PUSH4 0xFFFFFFFF AND JUMP JUMPDEST DUP2 PUSH20 0xFFFFFFFFFFFFFFFFFFFFFFFFFFFFFFFFFFFFFFFF AND PUSH32 0xB5498D88D9AE1CB339DBE68DF2A6FDC5E7E4D8045BBD0B39F0D5648399A753F2 PUSH1 0x40 MLOAD PUSH1 0x40 MLOAD DUP1 SWAP2 SUB SWAP1 LOG3 POP JUMP JUMPDEST PUSH1 0x5 PUSH1 0x0 SWAP1 SLOAD SWAP1 PUSH2 0x100 EXP SWAP1 DIV PUSH20 0xFFFFFFFFFFFFFFFFFFFFFFFFFFFFFFFFFFFFFFFF AND DUP2 JUMP JUMPDEST PUSH1 0x0 PUSH20 0xFFFFFFFFFFFFFFFFFFFFFFFFFFFFFFFFFFFFFFFF AND PUSH1 0x2 PUSH1 0x0 DUP6 DUP2 MSTORE PUSH1 0x20 ADD SWAP1 DUP2 MSTORE PUSH1 0x20 ADD PUSH1 0x0 KECCAK256 PUSH1 0x0 SWAP1 SLOAD SWAP1 PUSH2 0x100 EXP SWAP1 DIV PUSH20 0xFFFFFFFFFFFFFFFFFFFFFFFFFFFFFFFFFFFFFFFF AND PUSH20 0xFFFFFFFFFFFFFFFFFFFFFFFFFFFFFFFFFFFFFFFF AND EQ ISZERO PUSH2 0x761 JUMPI PUSH1 0x40 MLOAD PUSH32 0x8C379A000000000000000000000000000000000000000000000000000000000 DUP2 MSTORE PUSH1 0x4 ADD PUSH2 0x758 SWAP1 PUSH2 0x1C96 JUMP JUMPDEST PUSH1 0x40 MLOAD DUP1 SWAP2 SUB SWAP1 REVERT JUMPDEST PUSH1 0x0 PUSH1 0x2 PUSH1 0x0 DUP6 DUP2 MSTORE PUSH1 0x20 ADD SWAP1 DUP2 MSTORE PUSH1 0x20 ADD PUSH1 0x0 KECCAK256 PUSH1 0x0 SWAP1 SLOAD SWAP1 PUSH2 0x100 EXP SWAP1 DIV PUSH20 0xFFFFFFFFFFFFFFFFFFFFFFFFFFFFFFFFFFFFFFFF AND SWAP1 POP PUSH1 0x0 DUP2 PUSH20 0xFFFFFFFFFFFFFFFFFFFFFFFFFFFFFFFFFFFFFFFF AND PUSH4 0xDD62ED3E PUSH2 0x7BF PUSH2 0xEBB JUMP JUMPDEST ADDRESS PUSH1 0x40 MLOAD DUP4 PUSH4 0xFFFFFFFF AND PUSH1 0xE0 SHL DUP2 MSTORE PUSH1 0x4 ADD PUSH2 0x7DD SWAP3 SWAP2 SWAP1 PUSH2 0x1BB6 JUMP JUMPDEST PUSH1 0x20 PUSH1 0x40 MLOAD DUP1 DUP4 SUB DUP2 DUP7 DUP1 EXTCODESIZE ISZERO DUP1 ISZERO PUSH2 0x7F5 JUMPI PUSH1 0x0 DUP1 REVERT JUMPDEST POP GAS STATICCALL ISZERO DUP1 ISZERO PUSH2 0x809 JUMPI RETURNDATASIZE PUSH1 0x0 DUP1 RETURNDATACOPY RETURNDATASIZE PUSH1 0x0 REVERT JUMPDEST POP POP POP POP PUSH1 0x40 MLOAD RETURNDATASIZE PUSH1 0x1F NOT PUSH1 0x1F DUP3 ADD AND DUP3 ADD DUP1 PUSH1 0x40 MSTORE POP DUP2 ADD SWAP1 PUSH2 0x82D SWAP2 SWAP1 PUSH2 0x1792 JUMP JUMPDEST SWAP1 POP DUP4 DUP2 LT ISZERO PUSH2 0x872 JUMPI PUSH1 0x40 MLOAD PUSH32 0x8C379A000000000000000000000000000000000000000000000000000000000 DUP2 MSTORE PUSH1 0x4 ADD PUSH2 0x869 SWAP1 PUSH2 0x1D76 JUMP JUMPDEST PUSH1 0x40 MLOAD DUP1 SWAP2 SUB SWAP1 REVERT JUMPDEST PUSH2 0x8C8 PUSH2 0x87D PUSH2 0xEBB JUMP JUMPDEST PUSH1 0x5 PUSH1 0x0 SWAP1 SLOAD SWAP1 PUSH2 0x100 EXP SWAP1 DIV PUSH20 0xFFFFFFFFFFFFFFFFFFFFFFFFFFFFFFFFFFFFFFFF AND DUP7 DUP6 PUSH20 0xFFFFFFFFFFFFFFFFFFFFFFFFFFFFFFFFFFFFFFFF AND PUSH2 0xEEF SWAP1 SWAP4 SWAP3 SWAP2 SWAP1 PUSH4 0xFFFFFFFF AND JUMP JUMPDEST PUSH1 0x0 PUSH1 0x6 PUSH1 0x0 PUSH2 0x8D6 PUSH2 0xEBB JUMP JUMPDEST PUSH20 0xFFFFFFFFFFFFFFFFFFFFFFFFFFFFFFFFFFFFFFFF AND PUSH20 0xFFFFFFFFFFFFFFFFFFFFFFFFFFFFFFFFFFFFFFFF AND DUP2 MSTORE PUSH1 0x20 ADD SWAP1 DUP2 MSTORE PUSH1 0x20 ADD PUSH1 0x0 KECCAK256 DUP8 PUSH1 0x40 MLOAD PUSH2 0x91E SWAP2 SWAP1 PUSH2 0x1B52 JUMP JUMPDEST SWAP1 DUP2 MSTORE PUSH1 0x20 ADD PUSH1 0x40 MLOAD DUP1 SWAP2 SUB SWAP1 KECCAK256 SWAP1 POP DUP7 DUP2 PUSH1 0x0 ADD SWAP1 DUP1 MLOAD SWAP1 PUSH1 0x20 ADD SWAP1 PUSH2 0x946 SWAP3 SWAP2 SWAP1 PUSH2 0x1483 JUMP JUMPDEST POP PUSH2 0x984 DUP8 TIMESTAMP PUSH2 0x954 PUSH2 0xEBB JUMP JUMPDEST PUSH1 0x40 MLOAD PUSH1 0x20 ADD PUSH2 0x966 SWAP4 SWAP3 SWAP2 SWAP1 PUSH2 0x1C38 JUMP JUMPDEST PUSH1 0x40 MLOAD PUSH1 0x20 DUP2 DUP4 SUB SUB DUP2 MSTORE SWAP1 PUSH1 0x40 MSTORE DUP1 MLOAD SWAP1 PUSH1 0x20 ADD KECCAK256 PUSH1 0x0 SHR PUSH2 0xF78 JUMP JUMPDEST DUP2 PUSH1 0x1 ADD SWAP1 DUP1 MLOAD SWAP1 PUSH1 0x20 ADD SWAP1 PUSH2 0x99B SWAP3 SWAP2 SWAP1 PUSH2 0x1483 JUMP JUMPDEST POP PUSH1 0x2 PUSH1 0x0 DUP8 DUP2 MSTORE PUSH1 0x20 ADD SWAP1 DUP2 MSTORE PUSH1 0x20 ADD PUSH1 0x0 KECCAK256 PUSH1 0x0 SWAP1 SLOAD SWAP1 PUSH2 0x100 EXP SWAP1 DIV PUSH20 0xFFFFFFFFFFFFFFFFFFFFFFFFFFFFFFFFFFFFFFFF AND DUP2 PUSH1 0x2 ADD PUSH1 0x0 PUSH2 0x100 EXP DUP2 SLOAD DUP2 PUSH20 0xFFFFFFFFFFFFFFFFFFFFFFFFFFFFFFFFFFFFFFFF MUL NOT AND SWAP1 DUP4 PUSH20 0xFFFFFFFFFFFFFFFFFFFFFFFFFFFFFFFFFFFFFFFF AND MUL OR SWAP1 SSTORE POP DUP6 DUP2 PUSH1 0x3 ADD DUP2 SWAP1 SSTORE POP DUP5 DUP2 PUSH1 0x4 ADD DUP2 SWAP1 SSTORE POP DUP4 DUP2 PUSH1 0x5 ADD DUP2 SWAP1 SSTORE POP PUSH2 0xA35 PUSH2 0xEBB JUMP JUMPDEST DUP2 PUSH1 0x6 ADD PUSH1 0x0 PUSH2 0x100 EXP DUP2 SLOAD DUP2 PUSH20 0xFFFFFFFFFFFFFFFFFFFFFFFFFFFFFFFFFFFFFFFF MUL NOT AND SWAP1 DUP4 PUSH20 0xFFFFFFFFFFFFFFFFFFFFFFFFFFFFFFFFFFFFFFFF AND MUL OR SWAP1 SSTORE POP PUSH2 0xA7F PUSH2 0xEBB JUMP JUMPDEST PUSH20 0xFFFFFFFFFFFFFFFFFFFFFFFFFFFFFFFFFFFFFFFF AND DUP2 PUSH1 0x1 ADD PUSH1 0x40 MLOAD PUSH2 0xAA6 SWAP2 SWAP1 PUSH2 0x1B69 JUMP JUMPDEST PUSH1 0x40 MLOAD DUP1 SWAP2 SUB SWAP1 KECCAK256 DUP9 PUSH1 0x40 MLOAD PUSH2 0xABC SWAP2 SWAP1 PUSH2 0x1B52 JUMP JUMPDEST PUSH1 0x40 MLOAD DUP1 SWAP2 SUB SWAP1 KECCAK256 PUSH32 0x252EA8F225DC33AC745D0CF22974635091A5FF8332A55F6469595CAA3337A8FC PUSH1 0x40 MLOAD PUSH1 0x40 MLOAD DUP1 SWAP2 SUB SWAP1 LOG4 POP POP POP POP POP POP POP JUMP JUMPDEST PUSH1 0x0 DUP1 PUSH1 0x4 PUSH1 0x0 DUP5 PUSH20 0xFFFFFFFFFFFFFFFFFFFFFFFFFFFFFFFFFFFFFFFF AND PUSH20 0xFFFFFFFFFFFFFFFFFFFFFFFFFFFFFFFFFFFFFFFF AND DUP2 MSTORE PUSH1 0x20 ADD SWAP1 DUP2 MSTORE PUSH1 0x20 ADD PUSH1 0x0 KECCAK256 SLOAD EQ ISZERO PUSH2 0xB7D JUMPI PUSH1 0x40 MLOAD PUSH32 0x8C379A000000000000000000000000000000000000000000000000000000000 DUP2 MSTORE PUSH1 0x4 ADD PUSH2 0xB74 SWAP1 PUSH2 0x1D16 JUMP JUMPDEST PUSH1 0x40 MLOAD DUP1 SWAP2 SUB SWAP1 REVERT JUMPDEST PUSH1 0x4 PUSH1 0x0 DUP4 PUSH20 0xFFFFFFFFFFFFFFFFFFFFFFFFFFFFFFFFFFFFFFFF AND PUSH20 0xFFFFFFFFFFFFFFFFFFFFFFFFFFFFFFFFFFFFFFFF AND DUP2 MSTORE PUSH1 0x20 ADD SWAP1 DUP2 MSTORE PUSH1 0x20 ADD PUSH1 0x0 KECCAK256 SLOAD SWAP1 POP SWAP2 SWAP1 POP JUMP JUMPDEST PUSH2 0xBCC PUSH2 0xEBB JUMP JUMPDEST PUSH20 0xFFFFFFFFFFFFFFFFFFFFFFFFFFFFFFFFFFFFFFFF AND PUSH2 0xBEA PUSH2 0xC4C JUMP JUMPDEST PUSH20 0xFFFFFFFFFFFFFFFFFFFFFFFFFFFFFFFFFFFFFFFF AND EQ PUSH2 0xC40 JUMPI PUSH1 0x40 MLOAD PUSH32 0x8C379A000000000000000000000000000000000000000000000000000000000 DUP2 MSTORE PUSH1 0x4 ADD PUSH2 0xC37 SWAP1 PUSH2 0x1CF6 JUMP JUMPDEST PUSH1 0x40 MLOAD DUP1 SWAP2 SUB SWAP1 REVERT JUMPDEST PUSH2 0xC4A PUSH1 0x0 PUSH2 0x10D9 JUMP JUMPDEST JUMP JUMPDEST PUSH1 0x0 DUP1 PUSH1 0x0 SWAP1 SLOAD SWAP1 PUSH2 0x100 EXP SWAP1 DIV PUSH20 0xFFFFFFFFFFFFFFFFFFFFFFFFFFFFFFFFFFFFFFFF AND SWAP1 POP SWAP1 JUMP JUMPDEST PUSH1 0x2 PUSH1 0x20 MSTORE DUP1 PUSH1 0x0 MSTORE PUSH1 0x40 PUSH1 0x0 KECCAK256 PUSH1 0x0 SWAP2 POP SLOAD SWAP1 PUSH2 0x100 EXP SWAP1 DIV PUSH20 0xFFFFFFFFFFFFFFFFFFFFFFFFFFFFFFFFFFFFFFFF AND DUP2 JUMP JUMPDEST PUSH2 0xCB0 PUSH2 0xEBB JUMP JUMPDEST PUSH20 0xFFFFFFFFFFFFFFFFFFFFFFFFFFFFFFFFFFFFFFFF AND PUSH2 0xCCE PUSH2 0xC4C JUMP JUMPDEST PUSH20 0xFFFFFFFFFFFFFFFFFFFFFFFFFFFFFFFFFFFFFFFF AND EQ PUSH2 0xD24 JUMPI PUSH1 0x40 MLOAD PUSH32 0x8C379A000000000000000000000000000000000000000000000000000000000 DUP2 MSTORE PUSH1 0x4 ADD PUSH2 0xD1B SWAP1 PUSH2 0x1CF6 JUMP JUMPDEST PUSH1 0x40 MLOAD DUP1 SWAP2 SUB SWAP1 REVERT JUMPDEST DUP1 PUSH1 0x5 PUSH1 0x0 PUSH2 0x100 EXP DUP2 SLOAD DUP2 PUSH20 0xFFFFFFFFFFFFFFFFFFFFFFFFFFFFFFFFFFFFFFFF MUL NOT AND SWAP1 DUP4 PUSH20 0xFFFFFFFFFFFFFFFFFFFFFFFFFFFFFFFFFFFFFFFF AND MUL OR SWAP1 SSTORE POP DUP1 PUSH20 0xFFFFFFFFFFFFFFFFFFFFFFFFFFFFFFFFFFFFFFFF AND PUSH32 0x65AC7C44CE1402D115F5033C9DDE8B6D1E130550ECD89AC7659BC257D4F5B6D5 PUSH1 0x40 MLOAD PUSH1 0x40 MLOAD DUP1 SWAP2 SUB SWAP1 LOG2 POP JUMP JUMPDEST PUSH1 0x4 PUSH1 0x20 MSTORE DUP1 PUSH1 0x0 MSTORE PUSH1 0x40 PUSH1 0x0 KECCAK256 PUSH1 0x0 SWAP2 POP SWAP1 POP SLOAD DUP2 JUMP JUMPDEST PUSH2 0xDCB PUSH2 0xEBB JUMP JUMPDEST PUSH20 0xFFFFFFFFFFFFFFFFFFFFFFFFFFFFFFFFFFFFFFFF AND PUSH2 0xDE9 PUSH2 0xC4C JUMP JUMPDEST PUSH20 0xFFFFFFFFFFFFFFFFFFFFFFFFFFFFFFFFFFFFFFFF AND EQ PUSH2 0xE3F JUMPI PUSH1 0x40 MLOAD PUSH32 0x8C379A000000000000000000000000000000000000000000000000000000000 DUP2 MSTORE PUSH1 0x4 ADD PUSH2 0xE36 SWAP1 PUSH2 0x1CF6 JUMP JUMPDEST PUSH1 0x40 MLOAD DUP1 SWAP2 SUB SWAP1 REVERT JUMPDEST PUSH1 0x0 PUSH20 0xFFFFFFFFFFFFFFFFFFFFFFFFFFFFFFFFFFFFFFFF AND DUP2 PUSH20 0xFFFFFFFFFFFFFFFFFFFFFFFFFFFFFFFFFFFFFFFF AND EQ ISZERO PUSH2 0xEAF JUMPI PUSH1 0x40 MLOAD PUSH32 0x8C379A000000000000000000000000000000000000000000000000000000000 DUP2 MSTORE PUSH1 0x4 ADD PUSH2 0xEA6 SWAP1 PUSH2 0x1C76 JUMP JUMPDEST PUSH1 0x40 MLOAD DUP1 SWAP2 SUB SWAP1 REVERT JUMPDEST PUSH2 0xEB8 DUP2 PUSH2 0x10D9 JUMP JUMPDEST POP JUMP JUMPDEST PUSH1 0x0 CALLER SWAP1 POP SWAP1 JUMP JUMPDEST PUSH1 0x0 DUP2 DUP4 PUSH2 0xED1 SWAP2 SWAP1 PUSH2 0x1E8C JUMP JUMPDEST SWAP1 POP SWAP3 SWAP2 POP POP JUMP JUMPDEST PUSH1 0x0 DUP2 DUP4 PUSH2 0xEE7 SWAP2 SWAP1 PUSH2 0x1F13 JUMP JUMPDEST SWAP1 POP SWAP3 SWAP2 POP POP JUMP JUMPDEST PUSH2 0xF72 DUP5 PUSH4 0x23B872DD PUSH1 0xE0 SHL DUP6 DUP6 DUP6 PUSH1 0x40 MLOAD PUSH1 0x24 ADD PUSH2 0xF10 SWAP4 SWAP3 SWAP2 SWAP1 PUSH2 0x1BDF JUMP JUMPDEST PUSH1 0x40 MLOAD PUSH1 0x20 DUP2 DUP4 SUB SUB DUP2 MSTORE SWAP1 PUSH1 0x40 MSTORE SWAP1 PUSH28 0xFFFFFFFFFFFFFFFFFFFFFFFFFFFFFFFFFFFFFFFFFFFFFFFFFFFFFFFF NOT AND PUSH1 0x20 DUP3 ADD DUP1 MLOAD PUSH28 0xFFFFFFFFFFFFFFFFFFFFFFFFFFFFFFFFFFFFFFFFFFFFFFFFFFFFFFFF DUP4 DUP2 DUP4 AND OR DUP4 MSTORE POP POP POP POP PUSH2 0x119D JUMP JUMPDEST POP POP POP POP JUMP JUMPDEST PUSH1 0x60 PUSH1 0x0 DUP3 EQ ISZERO PUSH2 0xFC0 JUMPI PUSH1 0x40 MLOAD DUP1 PUSH1 0x40 ADD PUSH1 0x40 MSTORE DUP1 PUSH1 0x1 DUP2 MSTORE PUSH1 0x20 ADD PUSH32 0x3000000000000000000000000000000000000000000000000000000000000000 DUP2 MSTORE POP SWAP1 POP PUSH2 0x10D4 JUMP JUMPDEST PUSH1 0x0 DUP3 SWAP1 POP PUSH1 0x0 JUMPDEST PUSH1 0x0 DUP3 EQ PUSH2 0xFF2 JUMPI DUP1 DUP1 PUSH2 0xFDB SWAP1 PUSH2 0x2046 JUMP JUMPDEST SWAP2 POP POP PUSH1 0xA DUP3 PUSH2 0xFEB SWAP2 SWAP1 PUSH2 0x1EE2 JUMP JUMPDEST SWAP2 POP PUSH2 0xFC8 JUMP JUMPDEST PUSH1 0x0 DUP2 PUSH8 0xFFFFFFFFFFFFFFFF DUP2 GT ISZERO PUSH2 0x100E JUMPI PUSH2 0x100D PUSH2 0x217C JUMP JUMPDEST JUMPDEST PUSH1 0x40 MLOAD SWAP1 DUP1 DUP3 MSTORE DUP1 PUSH1 0x1F ADD PUSH1 0x1F NOT AND PUSH1 0x20 ADD DUP3 ADD PUSH1 0x40 MSTORE DUP1 ISZERO PUSH2 0x1040 JUMPI DUP2 PUSH1 0x20 ADD PUSH1 0x1 DUP3 MUL DUP1 CALLDATASIZE DUP4 CALLDATACOPY DUP1 DUP3 ADD SWAP2 POP POP SWAP1 POP JUMPDEST POP SWAP1 POP JUMPDEST PUSH1 0x0 DUP6 EQ PUSH2 0x10CD JUMPI PUSH1 0x1 DUP3 PUSH2 0x1059 SWAP2 SWAP1 PUSH2 0x1F13 JUMP JUMPDEST SWAP2 POP PUSH1 0xA DUP6 PUSH2 0x1068 SWAP2 SWAP1 PUSH2 0x208F JUMP JUMPDEST PUSH1 0x30 PUSH2 0x1074 SWAP2 SWAP1 PUSH2 0x1E8C JUMP JUMPDEST PUSH1 0xF8 SHL DUP2 DUP4 DUP2 MLOAD DUP2 LT PUSH2 0x108A JUMPI PUSH2 0x1089 PUSH2 0x214D JUMP JUMPDEST JUMPDEST PUSH1 0x20 ADD ADD SWAP1 PUSH31 0xFFFFFFFFFFFFFFFFFFFFFFFFFFFFFFFFFFFFFFFFFFFFFFFFFFFFFFFFFFFFFF NOT AND SWAP1 DUP2 PUSH1 0x0 BYTE SWAP1 MSTORE8 POP PUSH1 0xA DUP6 PUSH2 0x10C6 SWAP2 SWAP1 PUSH2 0x1EE2 JUMP JUMPDEST SWAP5 POP PUSH2 0x1044 JUMP JUMPDEST DUP1 SWAP4 POP POP POP POP JUMPDEST SWAP2 SWAP1 POP JUMP JUMPDEST PUSH1 0x0 DUP1 PUSH1 0x0 SWAP1 SLOAD SWAP1 PUSH2 0x100 EXP SWAP1 DIV PUSH20 0xFFFFFFFFFFFFFFFFFFFFFFFFFFFFFFFFFFFFFFFF AND SWAP1 POP DUP2 PUSH1 0x0 DUP1 PUSH2 0x100 EXP DUP2 SLOAD DUP2 PUSH20 0xFFFFFFFFFFFFFFFFFFFFFFFFFFFFFFFFFFFFFFFF MUL NOT AND SWAP1 DUP4 PUSH20 0xFFFFFFFFFFFFFFFFFFFFFFFFFFFFFFFFFFFFFFFF AND MUL OR SWAP1 SSTORE POP DUP2 PUSH20 0xFFFFFFFFFFFFFFFFFFFFFFFFFFFFFFFFFFFFFFFF AND DUP2 PUSH20 0xFFFFFFFFFFFFFFFFFFFFFFFFFFFFFFFFFFFFFFFF AND PUSH32 0x8BE0079C531659141344CD1FD0A4F28419497F9722A3DAAFE3B4186F6B6457E0 PUSH1 0x40 MLOAD PUSH1 0x40 MLOAD DUP1 SWAP2 SUB SWAP1 LOG3 POP POP JUMP JUMPDEST PUSH1 0x0 PUSH2 0x11FF DUP3 PUSH1 0x40 MLOAD DUP1 PUSH1 0x40 ADD PUSH1 0x40 MSTORE DUP1 PUSH1 0x20 DUP2 MSTORE PUSH1 0x20 ADD PUSH32 0x5361666545524332303A206C6F772D6C6576656C2063616C6C206661696C6564 DUP2 MSTORE POP DUP6 PUSH20 0xFFFFFFFFFFFFFFFFFFFFFFFFFFFFFFFFFFFFFFFF AND PUSH2 0x1264 SWAP1 SWAP3 SWAP2 SWAP1 PUSH4 0xFFFFFFFF AND JUMP JUMPDEST SWAP1 POP PUSH1 0x0 DUP2 MLOAD GT ISZERO PUSH2 0x125F JUMPI DUP1 DUP1 PUSH1 0x20 ADD SWAP1 MLOAD DUP2 ADD SWAP1 PUSH2 0x121F SWAP2 SWAP1 PUSH2 0x16B5 JUMP JUMPDEST PUSH2 0x125E JUMPI PUSH1 0x40 MLOAD PUSH32 0x8C379A000000000000000000000000000000000000000000000000000000000 DUP2 MSTORE PUSH1 0x4 ADD PUSH2 0x1255 SWAP1 PUSH2 0x1D56 JUMP JUMPDEST PUSH1 0x40 MLOAD DUP1 SWAP2 SUB SWAP1 REVERT JUMPDEST JUMPDEST POP POP POP JUMP JUMPDEST PUSH1 0x60 PUSH2 0x1273 DUP5 DUP5 PUSH1 0x0 DUP6 PUSH2 0x127C JUMP JUMPDEST SWAP1 POP SWAP4 SWAP3 POP POP POP JUMP JUMPDEST PUSH1 0x60 DUP3 SELFBALANCE LT ISZERO PUSH2 0x12C1 JUMPI PUSH1 0x40 MLOAD PUSH32 0x8C379A000000000000000000000000000000000000000000000000000000000 DUP2 MSTORE PUSH1 0x4 ADD PUSH2 0x12B8 SWAP1 PUSH2 0x1CD6 JUMP JUMPDEST PUSH1 0x40 MLOAD DUP1 SWAP2 SUB SWAP1 REVERT JUMPDEST PUSH2 0x12CA DUP6 PUSH2 0x1390 JUMP JUMPDEST PUSH2 0x1309 JUMPI PUSH1 0x40 MLOAD PUSH32 0x8C379A000000000000000000000000000000000000000000000000000000000 DUP2 MSTORE PUSH1 0x4 ADD PUSH2 0x1300 SWAP1 PUSH2 0x1D36 JUMP JUMPDEST PUSH1 0x40 MLOAD DUP1 SWAP2 SUB SWAP1 REVERT JUMPDEST PUSH1 0x0 DUP1 DUP7 PUSH20 0xFFFFFFFFFFFFFFFFFFFFFFFFFFFFFFFFFFFFFFFF AND DUP6 DUP8 PUSH1 0x40 MLOAD PUSH2 0x1332 SWAP2 SWAP1 PUSH2 0x1B3B JUMP JUMPDEST PUSH1 0x0 PUSH1 0x40 MLOAD DUP1 DUP4 SUB DUP2 DUP6 DUP8 GAS CALL SWAP3 POP POP POP RETURNDATASIZE DUP1 PUSH1 0x0 DUP2 EQ PUSH2 0x136F JUMPI PUSH1 0x40 MLOAD SWAP2 POP PUSH1 0x1F NOT PUSH1 0x3F RETURNDATASIZE ADD AND DUP3 ADD PUSH1 0x40 MSTORE RETURNDATASIZE DUP3 MSTORE RETURNDATASIZE PUSH1 0x0 PUSH1 0x20 DUP5 ADD RETURNDATACOPY PUSH2 0x1374 JUMP JUMPDEST PUSH1 0x60 SWAP2 POP JUMPDEST POP SWAP2 POP SWAP2 POP PUSH2 0x1384 DUP3 DUP3 DUP7 PUSH2 0x13B3 JUMP JUMPDEST SWAP3 POP POP POP SWAP5 SWAP4 POP POP POP POP JUMP JUMPDEST PUSH1 0x0 DUP1 DUP3 PUSH20 0xFFFFFFFFFFFFFFFFFFFFFFFFFFFFFFFFFFFFFFFF AND EXTCODESIZE GT SWAP1 POP SWAP2 SWAP1 POP JUMP JUMPDEST PUSH1 0x60 DUP4 ISZERO PUSH2 0x13C3 JUMPI DUP3 SWAP1 POP PUSH2 0x1413 JUMP JUMPDEST PUSH1 0x0 DUP4 MLOAD GT ISZERO PUSH2 0x13D6 JUMPI DUP3 MLOAD DUP1 DUP5 PUSH1 0x20 ADD REVERT JUMPDEST DUP2 PUSH1 0x40 MLOAD PUSH32 0x8C379A000000000000000000000000000000000000000000000000000000000 DUP2 MSTORE PUSH1 0x4 ADD PUSH2 0x140A SWAP2 SWAP1 PUSH2 0x1C16 JUMP JUMPDEST PUSH1 0x40 MLOAD DUP1 SWAP2 SUB SWAP1 REVERT JUMPDEST SWAP4 SWAP3 POP POP POP JUMP JUMPDEST PUSH1 0x40 MLOAD DUP1 PUSH1 0xE0 ADD PUSH1 0x40 MSTORE DUP1 PUSH1 0x60 DUP2 MSTORE PUSH1 0x20 ADD PUSH1 0x60 DUP2 MSTORE PUSH1 0x20 ADD PUSH1 0x0 PUSH20 0xFFFFFFFFFFFFFFFFFFFFFFFFFFFFFFFFFFFFFFFF AND DUP2 MSTORE PUSH1 0x20 ADD PUSH1 0x0 DUP2 MSTORE PUSH1 0x20 ADD PUSH1 0x0 DUP2 MSTORE PUSH1 0x20 ADD PUSH1 0x0 DUP2 MSTORE PUSH1 0x20 ADD PUSH1 0x0 PUSH20 0xFFFFFFFFFFFFFFFFFFFFFFFFFFFFFFFFFFFFFFFF AND DUP2 MSTORE POP SWAP1 JUMP JUMPDEST DUP3 DUP1 SLOAD PUSH2 0x148F SWAP1 PUSH2 0x1FE3 JUMP JUMPDEST SWAP1 PUSH1 0x0 MSTORE PUSH1 0x20 PUSH1 0x0 KECCAK256 SWAP1 PUSH1 0x1F ADD PUSH1 0x20 SWAP1 DIV DUP2 ADD SWAP3 DUP3 PUSH2 0x14B1 JUMPI PUSH1 0x0 DUP6 SSTORE PUSH2 0x14F8 JUMP JUMPDEST DUP3 PUSH1 0x1F LT PUSH2 0x14CA JUMPI DUP1 MLOAD PUSH1 0xFF NOT AND DUP4 DUP1 ADD OR DUP6 SSTORE PUSH2 0x14F8 JUMP JUMPDEST DUP3 DUP1 ADD PUSH1 0x1 ADD DUP6 SSTORE DUP3 ISZERO PUSH2 0x14F8 JUMPI SWAP2 DUP3 ADD JUMPDEST DUP3 DUP2 GT ISZERO PUSH2 0x14F7 JUMPI DUP3 MLOAD DUP3 SSTORE SWAP2 PUSH1 0x20 ADD SWAP2 SWAP1 PUSH1 0x1 ADD SWAP1 PUSH2 0x14DC JUMP JUMPDEST JUMPDEST POP SWAP1 POP PUSH2 0x1505 SWAP2 SWAP1 PUSH2 0x1509 JUMP JUMPDEST POP SWAP1 JUMP JUMPDEST JUMPDEST DUP1 DUP3 GT ISZERO PUSH2 0x1522 JUMPI PUSH1 0x0 DUP2 PUSH1 0x0 SWAP1 SSTORE POP PUSH1 0x1 ADD PUSH2 0x150A JUMP JUMPDEST POP SWAP1 JUMP JUMPDEST PUSH1 0x0 PUSH2 0x1539 PUSH2 0x1534 DUP5 PUSH2 0x1DF8 JUMP JUMPDEST PUSH2 0x1DD3 JUMP JUMPDEST SWAP1 POP DUP3 DUP2 MSTORE PUSH1 0x20 DUP2 ADD DUP5 DUP5 DUP5 ADD GT ISZERO PUSH2 0x1555 JUMPI PUSH2 0x1554 PUSH2 0x21B0 JUMP JUMPDEST JUMPDEST PUSH2 0x1560 DUP5 DUP3 DUP6 PUSH2 0x1FA1 JUMP JUMPDEST POP SWAP4 SWAP3 POP POP POP JUMP JUMPDEST PUSH1 0x0 DUP2 CALLDATALOAD SWAP1 POP PUSH2 0x1577 DUP2 PUSH2 0x2425 JUMP JUMPDEST SWAP3 SWAP2 POP POP JUMP JUMPDEST PUSH1 0x0 DUP2 CALLDATALOAD SWAP1 POP PUSH2 0x158C DUP2 PUSH2 0x243C JUMP JUMPDEST SWAP3 SWAP2 POP POP JUMP JUMPDEST PUSH1 0x0 DUP2 MLOAD SWAP1 POP PUSH2 0x15A1 DUP2 PUSH2 0x2453 JUMP JUMPDEST SWAP3 SWAP2 POP POP JUMP JUMPDEST PUSH1 0x0 DUP3 PUSH1 0x1F DUP4 ADD SLT PUSH2 0x15BC JUMPI PUSH2 0x15BB PUSH2 0x21AB JUMP JUMPDEST JUMPDEST DUP2 CALLDATALOAD PUSH2 0x15CC DUP5 DUP3 PUSH1 0x20 DUP7 ADD PUSH2 0x1526 JUMP JUMPDEST SWAP2 POP POP SWAP3 SWAP2 POP POP JUMP JUMPDEST PUSH1 0x0 DUP2 CALLDATALOAD SWAP1 POP PUSH2 0x15E4 DUP2 PUSH2 0x246A JUMP JUMPDEST SWAP3 SWAP2 POP POP JUMP JUMPDEST PUSH1 0x0 DUP2 MLOAD SWAP1 POP PUSH2 0x15F9 DUP2 PUSH2 0x246A JUMP JUMPDEST SWAP3 SWAP2 POP POP JUMP JUMPDEST PUSH1 0x0 PUSH1 0x20 DUP3 DUP5 SUB SLT ISZERO PUSH2 0x1615 JUMPI PUSH2 0x1614 PUSH2 0x21BA JUMP JUMPDEST JUMPDEST PUSH1 0x0 PUSH2 0x1623 DUP5 DUP3 DUP6 ADD PUSH2 0x1568 JUMP JUMPDEST SWAP2 POP POP SWAP3 SWAP2 POP POP JUMP JUMPDEST PUSH1 0x0 PUSH1 0x20 DUP3 DUP5 SUB SLT ISZERO PUSH2 0x1642 JUMPI PUSH2 0x1641 PUSH2 0x21BA JUMP JUMPDEST JUMPDEST PUSH1 0x0 PUSH2 0x1650 DUP5 DUP3 DUP6 ADD PUSH2 0x157D JUMP JUMPDEST SWAP2 POP POP SWAP3 SWAP2 POP POP JUMP JUMPDEST PUSH1 0x0 DUP1 PUSH1 0x40 DUP4 DUP6 SUB SLT ISZERO PUSH2 0x1670 JUMPI PUSH2 0x166F PUSH2 0x21BA JUMP JUMPDEST JUMPDEST PUSH1 0x0 PUSH2 0x167E DUP6 DUP3 DUP7 ADD PUSH2 0x1568 JUMP JUMPDEST SWAP3 POP POP PUSH1 0x20 DUP4 ADD CALLDATALOAD PUSH8 0xFFFFFFFFFFFFFFFF DUP2 GT ISZERO PUSH2 0x169F JUMPI PUSH2 0x169E PUSH2 0x21B5 JUMP JUMPDEST JUMPDEST PUSH2 0x16AB DUP6 DUP3 DUP7 ADD PUSH2 0x15A7 JUMP JUMPDEST SWAP2 POP POP SWAP3 POP SWAP3 SWAP1 POP JUMP JUMPDEST PUSH1 0x0 PUSH1 0x20 DUP3 DUP5 SUB SLT ISZERO PUSH2 0x16CB JUMPI PUSH2 0x16CA PUSH2 0x21BA JUMP JUMPDEST JUMPDEST PUSH1 0x0 PUSH2 0x16D9 DUP5 DUP3 DUP6 ADD PUSH2 0x1592 JUMP JUMPDEST SWAP2 POP POP SWAP3 SWAP2 POP POP JUMP JUMPDEST PUSH1 0x0 DUP1 PUSH1 0x0 DUP1 PUSH1 0x80 DUP6 DUP8 SUB SLT ISZERO PUSH2 0x16FC JUMPI PUSH2 0x16FB PUSH2 0x21BA JUMP JUMPDEST JUMPDEST PUSH1 0x0 DUP6 ADD CALLDATALOAD PUSH8 0xFFFFFFFFFFFFFFFF DUP2 GT ISZERO PUSH2 0x171A JUMPI PUSH2 0x1719 PUSH2 0x21B5 JUMP JUMPDEST JUMPDEST PUSH2 0x1726 DUP8 DUP3 DUP9 ADD PUSH2 0x15A7 JUMP JUMPDEST SWAP5 POP POP PUSH1 0x20 PUSH2 0x1737 DUP8 DUP3 DUP9 ADD PUSH2 0x15D5 JUMP JUMPDEST SWAP4 POP POP PUSH1 0x40 PUSH2 0x1748 DUP8 DUP3 DUP9 ADD PUSH2 0x15D5 JUMP JUMPDEST SWAP3 POP POP PUSH1 0x60 PUSH2 0x1759 DUP8 DUP3 DUP9 ADD PUSH2 0x15D5 JUMP JUMPDEST SWAP2 POP POP SWAP3 SWAP6 SWAP2 SWAP5 POP SWAP3 POP JUMP JUMPDEST PUSH1 0x0 PUSH1 0x20 DUP3 DUP5 SUB SLT ISZERO PUSH2 0x177B JUMPI PUSH2 0x177A PUSH2 0x21BA JUMP JUMPDEST JUMPDEST PUSH1 0x0 PUSH2 0x1789 DUP5 DUP3 DUP6 ADD PUSH2 0x15D5 JUMP JUMPDEST SWAP2 POP POP SWAP3 SWAP2 POP POP JUMP JUMPDEST PUSH1 0x0 PUSH1 0x20 DUP3 DUP5 SUB SLT ISZERO PUSH2 0x17A8 JUMPI PUSH2 0x17A7 PUSH2 0x21BA JUMP JUMPDEST JUMPDEST PUSH1 0x0 PUSH2 0x17B6 DUP5 DUP3 DUP6 ADD PUSH2 0x15EA JUMP JUMPDEST SWAP2 POP POP SWAP3 SWAP2 POP POP JUMP JUMPDEST PUSH2 0x17C8 DUP2 PUSH2 0x1F59 JUMP JUMPDEST DUP3 MSTORE POP POP JUMP JUMPDEST PUSH2 0x17D7 DUP2 PUSH2 0x1F47 JUMP JUMPDEST DUP3 MSTORE POP POP JUMP JUMPDEST PUSH2 0x17E6 DUP2 PUSH2 0x1F47 JUMP JUMPDEST DUP3 MSTORE POP POP JUMP JUMPDEST PUSH1 0x0 PUSH2 0x17F7 DUP3 PUSH2 0x1E3E JUMP JUMPDEST PUSH2 0x1801 DUP2 DUP6 PUSH2 0x1E54 JUMP JUMPDEST SWAP4 POP PUSH2 0x1811 DUP2 DUP6 PUSH1 0x20 DUP7 ADD PUSH2 0x1FB0 JUMP JUMPDEST DUP1 DUP5 ADD SWAP2 POP POP SWAP3 SWAP2 POP POP JUMP JUMPDEST PUSH1 0x0 PUSH2 0x1828 DUP3 PUSH2 0x1E49 JUMP JUMPDEST PUSH2 0x1832 DUP2 DUP6 PUSH2 0x1E5F JUMP JUMPDEST SWAP4 POP PUSH2 0x1842 DUP2 DUP6 PUSH1 0x20 DUP7 ADD PUSH2 0x1FB0 JUMP JUMPDEST PUSH2 0x184B DUP2 PUSH2 0x21BF JUMP JUMPDEST DUP5 ADD SWAP2 POP POP SWAP3 SWAP2 POP POP JUMP JUMPDEST PUSH1 0x0 PUSH2 0x1861 DUP3 PUSH2 0x1E49 JUMP JUMPDEST PUSH2 0x186B DUP2 DUP6 PUSH2 0x1E70 JUMP JUMPDEST SWAP4 POP PUSH2 0x187B DUP2 DUP6 PUSH1 0x20 DUP7 ADD PUSH2 0x1FB0 JUMP JUMPDEST PUSH2 0x1884 DUP2 PUSH2 0x21BF JUMP JUMPDEST DUP5 ADD SWAP2 POP POP SWAP3 SWAP2 POP POP JUMP JUMPDEST PUSH1 0x0 PUSH2 0x189A DUP3 PUSH2 0x1E49 JUMP JUMPDEST PUSH2 0x18A4 DUP2 DUP6 PUSH2 0x1E81 JUMP JUMPDEST SWAP4 POP PUSH2 0x18B4 DUP2 DUP6 PUSH1 0x20 DUP7 ADD PUSH2 0x1FB0 JUMP JUMPDEST DUP1 DUP5 ADD SWAP2 POP POP SWAP3 SWAP2 POP POP JUMP JUMPDEST PUSH1 0x0 DUP2 SLOAD PUSH2 0x18CD DUP2 PUSH2 0x1FE3 JUMP JUMPDEST PUSH2 0x18D7 DUP2 DUP7 PUSH2 0x1E81 JUMP JUMPDEST SWAP5 POP PUSH1 0x1 DUP3 AND PUSH1 0x0 DUP2 EQ PUSH2 0x18F2 JUMPI PUSH1 0x1 DUP2 EQ PUSH2 0x1903 JUMPI PUSH2 0x1936 JUMP JUMPDEST PUSH1 0xFF NOT DUP4 AND DUP7 MSTORE DUP2 DUP7 ADD SWAP4 POP PUSH2 0x1936 JUMP JUMPDEST PUSH2 0x190C DUP6 PUSH2 0x1E29 JUMP JUMPDEST PUSH1 0x0 JUMPDEST DUP4 DUP2 LT ISZERO PUSH2 0x192E JUMPI DUP2 SLOAD DUP2 DUP10 ADD MSTORE PUSH1 0x1 DUP3 ADD SWAP2 POP PUSH1 0x20 DUP2 ADD SWAP1 POP PUSH2 0x190F JUMP JUMPDEST DUP4 DUP9 ADD SWAP6 POP POP POP JUMPDEST POP POP POP SWAP3 SWAP2 POP POP JUMP JUMPDEST PUSH1 0x0 PUSH2 0x194C PUSH1 0x26 DUP4 PUSH2 0x1E70 JUMP JUMPDEST SWAP2 POP PUSH2 0x1957 DUP3 PUSH2 0x21D0 JUMP JUMPDEST PUSH1 0x40 DUP3 ADD SWAP1 POP SWAP2 SWAP1 POP JUMP JUMPDEST PUSH1 0x0 PUSH2 0x196F PUSH1 0x20 DUP4 PUSH2 0x1E70 JUMP JUMPDEST SWAP2 POP PUSH2 0x197A DUP3 PUSH2 0x221F JUMP JUMPDEST PUSH1 0x20 DUP3 ADD SWAP1 POP SWAP2 SWAP1 POP JUMP JUMPDEST PUSH1 0x0 PUSH2 0x1992 PUSH1 0x24 DUP4 PUSH2 0x1E70 JUMP JUMPDEST SWAP2 POP PUSH2 0x199D DUP3 PUSH2 0x2248 JUMP JUMPDEST PUSH1 0x40 DUP3 ADD SWAP1 POP SWAP2 SWAP1 POP JUMP JUMPDEST PUSH1 0x0 PUSH2 0x19B5 PUSH1 0x26 DUP4 PUSH2 0x1E70 JUMP JUMPDEST SWAP2 POP PUSH2 0x19C0 DUP3 PUSH2 0x2297 JUMP JUMPDEST PUSH1 0x40 DUP3 ADD SWAP1 POP SWAP2 SWAP1 POP JUMP JUMPDEST PUSH1 0x0 PUSH2 0x19D8 PUSH1 0x20 DUP4 PUSH2 0x1E70 JUMP JUMPDEST SWAP2 POP PUSH2 0x19E3 DUP3 PUSH2 0x22E6 JUMP JUMPDEST PUSH1 0x20 DUP3 ADD SWAP1 POP SWAP2 SWAP1 POP JUMP JUMPDEST PUSH1 0x0 PUSH2 0x19FB PUSH1 0x2C DUP4 PUSH2 0x1E70 JUMP JUMPDEST SWAP2 POP PUSH2 0x1A06 DUP3 PUSH2 0x230F JUMP JUMPDEST PUSH1 0x40 DUP3 ADD SWAP1 POP SWAP2 SWAP1 POP JUMP JUMPDEST PUSH1 0x0 PUSH2 0x1A1E PUSH1 0x1D DUP4 PUSH2 0x1E70 JUMP JUMPDEST SWAP2 POP PUSH2 0x1A29 DUP3 PUSH2 0x235E JUMP JUMPDEST PUSH1 0x20 DUP3 ADD SWAP1 POP SWAP2 SWAP1 POP JUMP JUMPDEST PUSH1 0x0 PUSH2 0x1A41 PUSH1 0x2A DUP4 PUSH2 0x1E70 JUMP JUMPDEST SWAP2 POP PUSH2 0x1A4C DUP3 PUSH2 0x2387 JUMP JUMPDEST PUSH1 0x40 DUP3 ADD SWAP1 POP SWAP2 SWAP1 POP JUMP JUMPDEST PUSH1 0x0 PUSH2 0x1A64 PUSH1 0x32 DUP4 PUSH2 0x1E70 JUMP JUMPDEST SWAP2 POP PUSH2 0x1A6F DUP3 PUSH2 0x23D6 JUMP JUMPDEST PUSH1 0x40 DUP3 ADD SWAP1 POP SWAP2 SWAP1 POP JUMP JUMPDEST PUSH1 0x0 PUSH1 0xE0 DUP4 ADD PUSH1 0x0 DUP4 ADD MLOAD DUP5 DUP3 SUB PUSH1 0x0 DUP7 ADD MSTORE PUSH2 0x1A97 DUP3 DUP3 PUSH2 0x181D JUMP JUMPDEST SWAP2 POP POP PUSH1 0x20 DUP4 ADD MLOAD DUP5 DUP3 SUB PUSH1 0x20 DUP7 ADD MSTORE PUSH2 0x1AB1 DUP3 DUP3 PUSH2 0x181D JUMP JUMPDEST SWAP2 POP POP PUSH1 0x40 DUP4 ADD MLOAD PUSH2 0x1AC6 PUSH1 0x40 DUP7 ADD DUP3 PUSH2 0x17CE JUMP JUMPDEST POP PUSH1 0x60 DUP4 ADD MLOAD PUSH2 0x1AD9 PUSH1 0x60 DUP7 ADD DUP3 PUSH2 0x1B1D JUMP JUMPDEST POP PUSH1 0x80 DUP4 ADD MLOAD PUSH2 0x1AEC PUSH1 0x80 DUP7 ADD DUP3 PUSH2 0x1B1D JUMP JUMPDEST POP PUSH1 0xA0 DUP4 ADD MLOAD PUSH2 0x1AFF PUSH1 0xA0 DUP7 ADD DUP3 PUSH2 0x1B1D JUMP JUMPDEST POP PUSH1 0xC0 DUP4 ADD MLOAD PUSH2 0x1B12 PUSH1 0xC0 DUP7 ADD DUP3 PUSH2 0x17CE JUMP JUMPDEST POP DUP1 SWAP2 POP POP SWAP3 SWAP2 POP POP JUMP JUMPDEST PUSH2 0x1B26 DUP2 PUSH2 0x1F97 JUMP JUMPDEST DUP3 MSTORE POP POP JUMP JUMPDEST PUSH2 0x1B35 DUP2 PUSH2 0x1F97 JUMP JUMPDEST DUP3 MSTORE POP POP JUMP JUMPDEST PUSH1 0x0 PUSH2 0x1B47 DUP3 DUP5 PUSH2 0x17EC JUMP JUMPDEST SWAP2 POP DUP2 SWAP1 POP SWAP3 SWAP2 POP POP JUMP JUMPDEST PUSH1 0x0 PUSH2 0x1B5E DUP3 DUP5 PUSH2 0x188F JUMP JUMPDEST SWAP2 POP DUP2 SWAP1 POP SWAP3 SWAP2 POP POP JUMP JUMPDEST PUSH1 0x0 PUSH2 0x1B75 DUP3 DUP5 PUSH2 0x18C0 JUMP JUMPDEST SWAP2 POP DUP2 SWAP1 POP SWAP3 SWAP2 POP POP JUMP JUMPDEST PUSH1 0x0 PUSH1 0x20 DUP3 ADD SWAP1 POP PUSH2 0x1B95 PUSH1 0x0 DUP4 ADD DUP5 PUSH2 0x17DD JUMP JUMPDEST SWAP3 SWAP2 POP POP JUMP JUMPDEST PUSH1 0x0 PUSH1 0x20 DUP3 ADD SWAP1 POP PUSH2 0x1BB0 PUSH1 0x0 DUP4 ADD DUP5 PUSH2 0x17BF JUMP JUMPDEST SWAP3 SWAP2 POP POP JUMP JUMPDEST PUSH1 0x0 PUSH1 0x40 DUP3 ADD SWAP1 POP PUSH2 0x1BCB PUSH1 0x0 DUP4 ADD DUP6 PUSH2 0x17DD JUMP JUMPDEST PUSH2 0x1BD8 PUSH1 0x20 DUP4 ADD DUP5 PUSH2 0x17DD JUMP JUMPDEST SWAP4 SWAP3 POP POP POP JUMP JUMPDEST PUSH1 0x0 PUSH1 0x60 DUP3 ADD SWAP1 POP PUSH2 0x1BF4 PUSH1 0x0 DUP4 ADD DUP7 PUSH2 0x17DD JUMP JUMPDEST PUSH2 0x1C01 PUSH1 0x20 DUP4 ADD DUP6 PUSH2 0x17DD JUMP JUMPDEST PUSH2 0x1C0E PUSH1 0x40 DUP4 ADD DUP5 PUSH2 0x1B2C JUMP JUMPDEST SWAP5 SWAP4 POP POP POP POP JUMP JUMPDEST PUSH1 0x0 PUSH1 0x20 DUP3 ADD SWAP1 POP DUP2 DUP2 SUB PUSH1 0x0 DUP4 ADD MSTORE PUSH2 0x1C30 DUP2 DUP5 PUSH2 0x1856 JUMP JUMPDEST SWAP1 POP SWAP3 SWAP2 POP POP JUMP JUMPDEST PUSH1 0x0 PUSH1 0x60 DUP3 ADD SWAP1 POP DUP2 DUP2 SUB PUSH1 0x0 DUP4 ADD MSTORE PUSH2 0x1C52 DUP2 DUP7 PUSH2 0x1856 JUMP JUMPDEST SWAP1 POP PUSH2 0x1C61 PUSH1 0x20 DUP4 ADD DUP6 PUSH2 0x1B2C JUMP JUMPDEST PUSH2 0x1C6E PUSH1 0x40 DUP4 ADD DUP5 PUSH2 0x17DD JUMP JUMPDEST SWAP5 SWAP4 POP POP POP POP JUMP JUMPDEST PUSH1 0x0 PUSH1 0x20 DUP3 ADD SWAP1 POP DUP2 DUP2 SUB PUSH1 0x0 DUP4 ADD MSTORE PUSH2 0x1C8F DUP2 PUSH2 0x193F JUMP JUMPDEST SWAP1 POP SWAP2 SWAP1 POP JUMP JUMPDEST PUSH1 0x0 PUSH1 0x20 DUP3 ADD SWAP1 POP DUP2 DUP2 SUB PUSH1 0x0 DUP4 ADD MSTORE PUSH2 0x1CAF DUP2 PUSH2 0x1962 JUMP JUMPDEST SWAP1 POP SWAP2 SWAP1 POP JUMP JUMPDEST PUSH1 0x0 PUSH1 0x20 DUP3 ADD SWAP1 POP DUP2 DUP2 SUB PUSH1 0x0 DUP4 ADD MSTORE PUSH2 0x1CCF DUP2 PUSH2 0x1985 JUMP JUMPDEST SWAP1 POP SWAP2 SWAP1 POP JUMP JUMPDEST PUSH1 0x0 PUSH1 0x20 DUP3 ADD SWAP1 POP DUP2 DUP2 SUB PUSH1 0x0 DUP4 ADD MSTORE PUSH2 0x1CEF DUP2 PUSH2 0x19A8 JUMP JUMPDEST SWAP1 POP SWAP2 SWAP1 POP JUMP JUMPDEST PUSH1 0x0 PUSH1 0x20 DUP3 ADD SWAP1 POP DUP2 DUP2 SUB PUSH1 0x0 DUP4 ADD MSTORE PUSH2 0x1D0F DUP2 PUSH2 0x19CB JUMP JUMPDEST SWAP1 POP SWAP2 SWAP1 POP JUMP JUMPDEST PUSH1 0x0 PUSH1 0x20 DUP3 ADD SWAP1 POP DUP2 DUP2 SUB PUSH1 0x0 DUP4 ADD MSTORE PUSH2 0x1D2F DUP2 PUSH2 0x19EE JUMP JUMPDEST SWAP1 POP SWAP2 SWAP1 POP JUMP JUMPDEST PUSH1 0x0 PUSH1 0x20 DUP3 ADD SWAP1 POP DUP2 DUP2 SUB PUSH1 0x0 DUP4 ADD MSTORE PUSH2 0x1D4F DUP2 PUSH2 0x1A11 JUMP JUMPDEST SWAP1 POP SWAP2 SWAP1 POP JUMP JUMPDEST PUSH1 0x0 PUSH1 0x20 DUP3 ADD SWAP1 POP DUP2 DUP2 SUB PUSH1 0x0 DUP4 ADD MSTORE PUSH2 0x1D6F DUP2 PUSH2 0x1A34 JUMP JUMPDEST SWAP1 POP SWAP2 SWAP1 POP JUMP JUMPDEST PUSH1 0x0 PUSH1 0x20 DUP3 ADD SWAP1 POP DUP2 DUP2 SUB PUSH1 0x0 DUP4 ADD MSTORE PUSH2 0x1D8F DUP2 PUSH2 0x1A57 JUMP JUMPDEST SWAP1 POP SWAP2 SWAP1 POP JUMP JUMPDEST PUSH1 0x0 PUSH1 0x20 DUP3 ADD SWAP1 POP DUP2 DUP2 SUB PUSH1 0x0 DUP4 ADD MSTORE PUSH2 0x1DB0 DUP2 DUP5 PUSH2 0x1A7A JUMP JUMPDEST SWAP1 POP SWAP3 SWAP2 POP POP JUMP JUMPDEST PUSH1 0x0 PUSH1 0x20 DUP3 ADD SWAP1 POP PUSH2 0x1DCD PUSH1 0x0 DUP4 ADD DUP5 PUSH2 0x1B2C JUMP JUMPDEST SWAP3 SWAP2 POP POP JUMP JUMPDEST PUSH1 0x0 PUSH2 0x1DDD PUSH2 0x1DEE JUMP JUMPDEST SWAP1 POP PUSH2 0x1DE9 DUP3 DUP3 PUSH2 0x2015 JUMP JUMPDEST SWAP2 SWAP1 POP JUMP JUMPDEST PUSH1 0x0 PUSH1 0x40 MLOAD SWAP1 POP SWAP1 JUMP JUMPDEST PUSH1 0x0 PUSH8 0xFFFFFFFFFFFFFFFF DUP3 GT ISZERO PUSH2 0x1E13 JUMPI PUSH2 0x1E12 PUSH2 0x217C JUMP JUMPDEST JUMPDEST PUSH2 0x1E1C DUP3 PUSH2 0x21BF JUMP JUMPDEST SWAP1 POP PUSH1 0x20 DUP2 ADD SWAP1 POP SWAP2 SWAP1 POP JUMP JUMPDEST PUSH1 0x0 DUP2 SWAP1 POP DUP2 PUSH1 0x0 MSTORE PUSH1 0x20 PUSH1 0x0 KECCAK256 SWAP1 POP SWAP2 SWAP1 POP JUMP JUMPDEST PUSH1 0x0 DUP2 MLOAD SWAP1 POP SWAP2 SWAP1 POP JUMP JUMPDEST PUSH1 0x0 DUP2 MLOAD SWAP1 POP SWAP2 SWAP1 POP JUMP JUMPDEST PUSH1 0x0 DUP2 SWAP1 POP SWAP3 SWAP2 POP POP JUMP JUMPDEST PUSH1 0x0 DUP3 DUP3 MSTORE PUSH1 0x20 DUP3 ADD SWAP1 POP SWAP3 SWAP2 POP POP JUMP JUMPDEST PUSH1 0x0 DUP3 DUP3 MSTORE PUSH1 0x20 DUP3 ADD SWAP1 POP SWAP3 SWAP2 POP POP JUMP JUMPDEST PUSH1 0x0 DUP2 SWAP1 POP SWAP3 SWAP2 POP POP JUMP JUMPDEST PUSH1 0x0 PUSH2 0x1E97 DUP3 PUSH2 0x1F97 JUMP JUMPDEST SWAP2 POP PUSH2 0x1EA2 DUP4 PUSH2 0x1F97 JUMP JUMPDEST SWAP3 POP DUP3 PUSH32 0xFFFFFFFFFFFFFFFFFFFFFFFFFFFFFFFFFFFFFFFFFFFFFFFFFFFFFFFFFFFFFFFF SUB DUP3 GT ISZERO PUSH2 0x1ED7 JUMPI PUSH2 0x1ED6 PUSH2 0x20C0 JUMP JUMPDEST JUMPDEST DUP3 DUP3 ADD SWAP1 POP SWAP3 SWAP2 POP POP JUMP JUMPDEST PUSH1 0x0 PUSH2 0x1EED DUP3 PUSH2 0x1F97 JUMP JUMPDEST SWAP2 POP PUSH2 0x1EF8 DUP4 PUSH2 0x1F97 JUMP JUMPDEST SWAP3 POP DUP3 PUSH2 0x1F08 JUMPI PUSH2 0x1F07 PUSH2 0x20EF JUMP JUMPDEST JUMPDEST DUP3 DUP3 DIV SWAP1 POP SWAP3 SWAP2 POP POP JUMP JUMPDEST PUSH1 0x0 PUSH2 0x1F1E DUP3 PUSH2 0x1F97 JUMP JUMPDEST SWAP2 POP PUSH2 0x1F29 DUP4 PUSH2 0x1F97 JUMP JUMPDEST SWAP3 POP DUP3 DUP3 LT ISZERO PUSH2 0x1F3C JUMPI PUSH2 0x1F3B PUSH2 0x20C0 JUMP JUMPDEST JUMPDEST DUP3 DUP3 SUB SWAP1 POP SWAP3 SWAP2 POP POP JUMP JUMPDEST PUSH1 0x0 PUSH2 0x1F52 DUP3 PUSH2 0x1F77 JUMP JUMPDEST SWAP1 POP SWAP2 SWAP1 POP JUMP JUMPDEST PUSH1 0x0 PUSH2 0x1F64 DUP3 PUSH2 0x1F77 JUMP JUMPDEST SWAP1 POP SWAP2 SWAP1 POP JUMP JUMPDEST PUSH1 0x0 DUP2 ISZERO ISZERO SWAP1 POP SWAP2 SWAP1 POP JUMP JUMPDEST PUSH1 0x0 PUSH20 0xFFFFFFFFFFFFFFFFFFFFFFFFFFFFFFFFFFFFFFFF DUP3 AND SWAP1 POP SWAP2 SWAP1 POP JUMP JUMPDEST PUSH1 0x0 DUP2 SWAP1 POP SWAP2 SWAP1 POP JUMP JUMPDEST DUP3 DUP2 DUP4 CALLDATACOPY PUSH1 0x0 DUP4 DUP4 ADD MSTORE POP POP POP JUMP JUMPDEST PUSH1 0x0 JUMPDEST DUP4 DUP2 LT ISZERO PUSH2 0x1FCE JUMPI DUP1 DUP3 ADD MLOAD DUP2 DUP5 ADD MSTORE PUSH1 0x20 DUP2 ADD SWAP1 POP PUSH2 0x1FB3 JUMP JUMPDEST DUP4 DUP2 GT ISZERO PUSH2 0x1FDD JUMPI PUSH1 0x0 DUP5 DUP5 ADD MSTORE JUMPDEST POP POP POP POP JUMP JUMPDEST PUSH1 0x0 PUSH1 0x2 DUP3 DIV SWAP1 POP PUSH1 0x1 DUP3 AND DUP1 PUSH2 0x1FFB JUMPI PUSH1 0x7F DUP3 AND SWAP2 POP JUMPDEST PUSH1 0x20 DUP3 LT DUP2 EQ ISZERO PUSH2 0x200F JUMPI PUSH2 0x200E PUSH2 0x211E JUMP JUMPDEST JUMPDEST POP SWAP2 SWAP1 POP JUMP JUMPDEST PUSH2 0x201E DUP3 PUSH2 0x21BF JUMP JUMPDEST DUP2 ADD DUP2 DUP2 LT PUSH8 0xFFFFFFFFFFFFFFFF DUP3 GT OR ISZERO PUSH2 0x203D JUMPI PUSH2 0x203C PUSH2 0x217C JUMP JUMPDEST JUMPDEST DUP1 PUSH1 0x40 MSTORE POP POP POP JUMP JUMPDEST PUSH1 0x0 PUSH2 0x2051 DUP3 PUSH2 0x1F97 JUMP JUMPDEST SWAP2 POP PUSH32 0xFFFFFFFFFFFFFFFFFFFFFFFFFFFFFFFFFFFFFFFFFFFFFFFFFFFFFFFFFFFFFFFF DUP3 EQ ISZERO PUSH2 0x2084 JUMPI PUSH2 0x2083 PUSH2 0x20C0 JUMP JUMPDEST JUMPDEST PUSH1 0x1 DUP3 ADD SWAP1 POP SWAP2 SWAP1 POP JUMP JUMPDEST PUSH1 0x0 PUSH2 0x209A DUP3 PUSH2 0x1F97 JUMP JUMPDEST SWAP2 POP PUSH2 0x20A5 DUP4 PUSH2 0x1F97 JUMP JUMPDEST SWAP3 POP DUP3 PUSH2 0x20B5 JUMPI PUSH2 0x20B4 PUSH2 0x20EF JUMP JUMPDEST JUMPDEST DUP3 DUP3 MOD SWAP1 POP SWAP3 SWAP2 POP POP JUMP JUMPDEST PUSH32 0x4E487B7100000000000000000000000000000000000000000000000000000000 PUSH1 0x0 MSTORE PUSH1 0x11 PUSH1 0x4 MSTORE PUSH1 0x24 PUSH1 0x0 REVERT JUMPDEST PUSH32 0x4E487B7100000000000000000000000000000000000000000000000000000000 PUSH1 0x0 MSTORE PUSH1 0x12 PUSH1 0x4 MSTORE PUSH1 0x24 PUSH1 0x0 REVERT JUMPDEST PUSH32 0x4E487B7100000000000000000000000000000000000000000000000000000000 PUSH1 0x0 MSTORE PUSH1 0x22 PUSH1 0x4 MSTORE PUSH1 0x24 PUSH1 0x0 REVERT JUMPDEST PUSH32 0x4E487B7100000000000000000000000000000000000000000000000000000000 PUSH1 0x0 MSTORE PUSH1 0x32 PUSH1 0x4 MSTORE PUSH1 0x24 PUSH1 0x0 REVERT JUMPDEST PUSH32 0x4E487B7100000000000000000000000000000000000000000000000000000000 PUSH1 0x0 MSTORE PUSH1 0x41 PUSH1 0x4 MSTORE PUSH1 0x24 PUSH1 0x0 REVERT JUMPDEST PUSH1 0x0 DUP1 REVERT JUMPDEST PUSH1 0x0 DUP1 REVERT JUMPDEST PUSH1 0x0 DUP1 REVERT JUMPDEST PUSH1 0x0 DUP1 REVERT JUMPDEST PUSH1 0x0 PUSH1 0x1F NOT PUSH1 0x1F DUP4 ADD AND SWAP1 POP SWAP2 SWAP1 POP JUMP JUMPDEST PUSH32 0x4F776E61626C653A206E6577206F776E657220697320746865207A65726F2061 PUSH1 0x0 DUP3 ADD MSTORE PUSH32 0x6464726573730000000000000000000000000000000000000000000000000000 PUSH1 0x20 DUP3 ADD MSTORE POP JUMP JUMPDEST PUSH32 0x6D616B655061796D656E743A20496E76616C696420746F6B656E20696E646578 PUSH1 0x0 DUP3 ADD MSTORE POP JUMP JUMPDEST PUSH32 0x6164645061796D656E74546F6B656E3A20546F6B656E20616C72656164792061 PUSH1 0x0 DUP3 ADD MSTORE PUSH32 0x6464656400000000000000000000000000000000000000000000000000000000 PUSH1 0x20 DUP3 ADD MSTORE POP JUMP JUMPDEST PUSH32 0x416464726573733A20696E73756666696369656E742062616C616E636520666F PUSH1 0x0 DUP3 ADD MSTORE PUSH32 0x722063616C6C0000000000000000000000000000000000000000000000000000 PUSH1 0x20 DUP3 ADD MSTORE POP JUMP JUMPDEST PUSH32 0x4F776E61626C653A2063616C6C6572206973206E6F7420746865206F776E6572 PUSH1 0x0 DUP3 ADD MSTORE POP JUMP JUMPDEST PUSH32 0x676574546F6B656E496E6465783A204E6F74206120737570706F727465642070 PUSH1 0x0 DUP3 ADD MSTORE PUSH32 0x61796D656E7420746F6B656E0000000000000000000000000000000000000000 PUSH1 0x20 DUP3 ADD MSTORE POP JUMP JUMPDEST PUSH32 0x416464726573733A2063616C6C20746F206E6F6E2D636F6E7472616374000000 PUSH1 0x0 DUP3 ADD MSTORE POP JUMP JUMPDEST PUSH32 0x5361666545524332303A204552433230206F7065726174696F6E20646964206E PUSH1 0x0 DUP3 ADD MSTORE PUSH32 0x6F74207375636365656400000000000000000000000000000000000000000000 PUSH1 0x20 DUP3 ADD MSTORE POP JUMP JUMPDEST PUSH32 0x6D616B655061796D656E743A20436F6E7472616374206E6F7420617070726F76 PUSH1 0x0 DUP3 ADD MSTORE PUSH32 0x656420746F206D616B65207061796D656E740000000000000000000000000000 PUSH1 0x20 DUP3 ADD MSTORE POP JUMP JUMPDEST PUSH2 0x242E DUP2 PUSH2 0x1F47 JUMP JUMPDEST DUP2 EQ PUSH2 0x2439 JUMPI PUSH1 0x0 DUP1 REVERT JUMPDEST POP JUMP JUMPDEST PUSH2 0x2445 DUP2 PUSH2 0x1F59 JUMP JUMPDEST DUP2 EQ PUSH2 0x2450 JUMPI PUSH1 0x0 DUP1 REVERT JUMPDEST POP JUMP JUMPDEST PUSH2 0x245C DUP2 PUSH2 0x1F6B JUMP JUMPDEST DUP2 EQ PUSH2 0x2467 JUMPI PUSH1 0x0 DUP1 REVERT JUMPDEST POP JUMP JUMPDEST PUSH2 0x2473 DUP2 PUSH2 0x1F97 JUMP JUMPDEST DUP2 EQ PUSH2 0x247E JUMPI PUSH1 0x0 DUP1 REVERT JUMPDEST POP JUMP INVALID LOG2 PUSH5 0x6970667358 0x22 SLT KECCAK256 PUSH24 0x539D4BEA38F9C35EEA60F5BC6EB438D16FD2ED43B93933D0 SWAP16 SDIV DUP8 ADD 0xA5 0x28 0xD6 PUSH5 0x736F6C6343 STOP ADDMOD SMOD STOP CALLER "
				},
				"gasEstimates": {
					"creation": {
						"codeDepositCost": "1879800",
						"executionCost": "infinite",
						"totalCost": "infinite"
					},
					"external": {
						"addPaymentToken(address)": "infinite",
						"getTokenIndex(address)": "5146",
						"getTransactionDetails(address,string)": "infinite",
						"makePayment(string,uint256,uint256,uint256)": "infinite",
						"owner()": "2544",
						"paymentTokensIndex(address)": "2902",
						"renounceOwnership()": "30374",
						"setWallet(address)": "28189",
						"supportedTokens(uint256)": "2883",
						"transferOwnership(address)": "30833",
						"wallet()": "2559"
					}
				},
				"methodIdentifiers": {
					"addPaymentToken(address)": "4a7dc8e0",
					"getTokenIndex(address)": "66c0bd24",
					"getTransactionDetails(address,string)": "169e90bc",
					"makePayment(string,uint256,uint256,uint256)": "541dc014",
					"owner()": "8da5cb5b",
					"paymentTokensIndex(address)": "eb0c52aa",
					"renounceOwnership()": "715018a6",
					"setWallet(address)": "deaa59df",
					"supportedTokens(uint256)": "c6255626",
					"transferOwnership(address)": "f2fde38b",
					"wallet()": "521eb273"
				}
			},
			"storageLayout": {
				"storage": [
					{
						"astId": 732,
						"contract": "contracts/Payment.sol:Payment",
						"label": "_owner",
						"offset": 0,
						"slot": "0",
						"type": "t_address"
					},
					{
						"astId": 840,
						"contract": "contracts/Payment.sol:Payment",
						"label": "_status",
						"offset": 0,
						"slot": "1",
						"type": "t_uint256"
					},
					{
						"astId": 28,
						"contract": "contracts/Payment.sol:Payment",
						"label": "supportedTokens",
						"offset": 0,
						"slot": "2",
						"type": "t_mapping(t_uint256,t_address)"
					},
					{
						"astId": 31,
						"contract": "contracts/Payment.sol:Payment",
						"label": "tokenCount",
						"offset": 0,
						"slot": "3",
						"type": "t_uint256"
					},
					{
						"astId": 35,
						"contract": "contracts/Payment.sol:Payment",
						"label": "paymentTokensIndex",
						"offset": 0,
						"slot": "4",
						"type": "t_mapping(t_address,t_uint256)"
					},
					{
						"astId": 37,
						"contract": "contracts/Payment.sol:Payment",
						"label": "wallet",
						"offset": 0,
						"slot": "5",
						"type": "t_address_payable"
					},
					{
						"astId": 59,
						"contract": "contracts/Payment.sol:Payment",
						"label": "transactions",
						"offset": 0,
						"slot": "6",
						"type": "t_mapping(t_address,t_mapping(t_string_memory_ptr,t_struct(OrderDetail)52_storage))"
					},
					{
						"astId": 63,
						"contract": "contracts/Payment.sol:Payment",
						"label": "tokenAmounts",
						"offset": 0,
						"slot": "7",
						"type": "t_mapping(t_address,t_uint256)"
					}
				],
				"types": {
					"t_address": {
						"encoding": "inplace",
						"label": "address",
						"numberOfBytes": "20"
					},
					"t_address_payable": {
						"encoding": "inplace",
						"label": "address payable",
						"numberOfBytes": "20"
					},
					"t_mapping(t_address,t_mapping(t_string_memory_ptr,t_struct(OrderDetail)52_storage))": {
						"encoding": "mapping",
						"key": "t_address",
						"label": "mapping(address => mapping(string => struct Payment.OrderDetail))",
						"numberOfBytes": "32",
						"value": "t_mapping(t_string_memory_ptr,t_struct(OrderDetail)52_storage)"
					},
					"t_mapping(t_address,t_uint256)": {
						"encoding": "mapping",
						"key": "t_address",
						"label": "mapping(address => uint256)",
						"numberOfBytes": "32",
						"value": "t_uint256"
					},
					"t_mapping(t_string_memory_ptr,t_struct(OrderDetail)52_storage)": {
						"encoding": "mapping",
						"key": "t_string_memory_ptr",
						"label": "mapping(string => struct Payment.OrderDetail)",
						"numberOfBytes": "32",
						"value": "t_struct(OrderDetail)52_storage"
					},
					"t_mapping(t_uint256,t_address)": {
						"encoding": "mapping",
						"key": "t_uint256",
						"label": "mapping(uint256 => address)",
						"numberOfBytes": "32",
						"value": "t_address"
					},
					"t_string_memory_ptr": {
						"encoding": "bytes",
						"label": "string",
						"numberOfBytes": "32"
					},
					"t_string_storage": {
						"encoding": "bytes",
						"label": "string",
						"numberOfBytes": "32"
					},
					"t_struct(OrderDetail)52_storage": {
						"encoding": "inplace",
						"label": "struct Payment.OrderDetail",
						"members": [
							{
								"astId": 39,
								"contract": "contracts/Payment.sol:Payment",
								"label": "orderID",
								"offset": 0,
								"slot": "0",
								"type": "t_string_storage"
							},
							{
								"astId": 41,
								"contract": "contracts/Payment.sol:Payment",
								"label": "paymentID",
								"offset": 0,
								"slot": "1",
								"type": "t_string_storage"
							},
							{
								"astId": 43,
								"contract": "contracts/Payment.sol:Payment",
								"label": "tokenAddress",
								"offset": 0,
								"slot": "2",
								"type": "t_address"
							},
							{
								"astId": 45,
								"contract": "contracts/Payment.sol:Payment",
								"label": "tokenIndex",
								"offset": 0,
								"slot": "3",
								"type": "t_uint256"
							},
							{
								"astId": 47,
								"contract": "contracts/Payment.sol:Payment",
								"label": "totalPrice",
								"offset": 0,
								"slot": "4",
								"type": "t_uint256"
							},
							{
								"astId": 49,
								"contract": "contracts/Payment.sol:Payment",
								"label": "totalQty",
								"offset": 0,
								"slot": "5",
								"type": "t_uint256"
							},
							{
								"astId": 51,
								"contract": "contracts/Payment.sol:Payment",
								"label": "buyer",
								"offset": 0,
								"slot": "6",
								"type": "t_address"
							}
						],
						"numberOfBytes": "224"
					},
					"t_uint256": {
						"encoding": "inplace",
						"label": "uint256",
						"numberOfBytes": "32"
					}
				}
			},
			"userdoc": {
				"kind": "user",
				"methods": {},
				"version": 1
			}
		}
	}
}