{
	"contracts/Payment.sol": {
		"Payment": {
			"abi": [
				{
					"inputs": [
						{
							"internalType": "address payable",
							"name": "_wallet",
							"type": "address"
						}
					],
					"stateMutability": "nonpayable",
					"type": "constructor"
				},
				{
					"anonymous": false,
					"inputs": [
						{
							"indexed": true,
							"internalType": "address",
							"name": "tokenAddress",
							"type": "address"
						},
						{
							"indexed": true,
							"internalType": "uint256",
							"name": "tokenIndex",
							"type": "uint256"
						}
					],
					"name": "NewTokenAdded",
					"type": "event"
				},
				{
					"anonymous": false,
					"inputs": [
						{
							"indexed": true,
							"internalType": "address",
							"name": "walletAddress",
							"type": "address"
						}
					],
					"name": "NewWalletSet",
					"type": "event"
				},
				{
					"anonymous": false,
					"inputs": [
						{
							"indexed": true,
							"internalType": "address",
							"name": "previousOwner",
							"type": "address"
						},
						{
							"indexed": true,
							"internalType": "address",
							"name": "newOwner",
							"type": "address"
						}
					],
					"name": "OwnershipTransferred",
					"type": "event"
				},
				{
					"anonymous": false,
					"inputs": [
						{
							"indexed": true,
							"internalType": "string",
							"name": "orderID",
							"type": "string"
						},
						{
							"indexed": true,
							"internalType": "string",
							"name": "paymentID",
							"type": "string"
						},
						{
							"indexed": true,
							"internalType": "address",
							"name": "buyer",
							"type": "address"
						}
					],
					"name": "TransactionMade",
					"type": "event"
				},
				{
					"inputs": [
						{
							"internalType": "contract IERC20",
							"name": "_newTokenAddress",
							"type": "address"
						}
					],
					"name": "addPaymentToken",
					"outputs": [],
					"stateMutability": "nonpayable",
					"type": "function"
				},
				{
					"inputs": [
						{
							"internalType": "address",
							"name": "tokenAddress",
							"type": "address"
						}
					],
					"name": "getTokenIndex",
					"outputs": [
						{
							"internalType": "uint256",
							"name": "",
							"type": "uint256"
						}
					],
					"stateMutability": "view",
					"type": "function"
				},
				{
					"inputs": [
						{
							"internalType": "address",
							"name": "buyer",
							"type": "address"
						},
						{
							"internalType": "string",
							"name": "orderId",
							"type": "string"
						}
					],
					"name": "getTransactionDetails",
					"outputs": [
						{
							"components": [
								{
									"internalType": "string",
									"name": "orderID",
									"type": "string"
								},
								{
									"internalType": "string",
									"name": "paymentID",
									"type": "string"
								},
								{
									"internalType": "address",
									"name": "tokenAddress",
									"type": "address"
								},
								{
									"internalType": "uint256",
									"name": "tokenIndex",
									"type": "uint256"
								},
								{
									"internalType": "uint256",
									"name": "totalPrice",
									"type": "uint256"
								},
								{
									"internalType": "uint256",
									"name": "totalQty",
									"type": "uint256"
								},
								{
									"internalType": "address",
									"name": "buyer",
									"type": "address"
								}
							],
							"internalType": "struct Payment.OrderDetail",
							"name": "",
							"type": "tuple"
						}
					],
					"stateMutability": "view",
					"type": "function"
				},
				{
					"inputs": [
						{
							"internalType": "string",
							"name": "orderId",
							"type": "string"
						},
						{
							"internalType": "uint256",
							"name": "tokenIndex",
							"type": "uint256"
						},
						{
							"internalType": "uint256",
							"name": "totalPrice",
							"type": "uint256"
						},
						{
							"internalType": "uint256",
							"name": "totalQty",
							"type": "uint256"
						}
					],
					"name": "makePayment",
					"outputs": [],
					"stateMutability": "nonpayable",
					"type": "function"
				},
				{
					"inputs": [],
					"name": "owner",
					"outputs": [
						{
							"internalType": "address",
							"name": "",
							"type": "address"
						}
					],
					"stateMutability": "view",
					"type": "function"
				},
				{
					"inputs": [
						{
							"internalType": "address",
							"name": "",
							"type": "address"
						}
					],
					"name": "paymentTokensIndex",
					"outputs": [
						{
							"internalType": "uint256",
							"name": "",
							"type": "uint256"
						}
					],
					"stateMutability": "view",
					"type": "function"
				},
				{
					"inputs": [],
					"name": "renounceOwnership",
					"outputs": [],
					"stateMutability": "nonpayable",
					"type": "function"
				},
				{
					"inputs": [
						{
							"internalType": "address payable",
							"name": "newWallet",
							"type": "address"
						}
					],
					"name": "setWallet",
					"outputs": [],
					"stateMutability": "nonpayable",
					"type": "function"
				},
				{
					"inputs": [
						{
							"internalType": "uint256",
							"name": "",
							"type": "uint256"
						}
					],
					"name": "supportedTokens",
					"outputs": [
						{
							"internalType": "address",
							"name": "",
							"type": "address"
						}
					],
					"stateMutability": "view",
					"type": "function"
				},
				{
					"inputs": [
						{
							"internalType": "address",
							"name": "newOwner",
							"type": "address"
						}
					],
					"name": "transferOwnership",
					"outputs": [],
					"stateMutability": "nonpayable",
					"type": "function"
				},
				{
					"inputs": [],
					"name": "wallet",
					"outputs": [
						{
							"internalType": "address payable",
							"name": "",
							"type": "address"
						}
					],
					"stateMutability": "view",
					"type": "function"
				}
			],
			"devdoc": {
				"kind": "dev",
				"methods": {
					"owner()": {
						"details": "Returns the address of the current owner."
					},
					"renounceOwnership()": {
						"details": "Leaves the contract without owner. It will not be possible to call `onlyOwner` functions anymore. Can only be called by the current owner. NOTE: Renouncing ownership will leave the contract without an owner, thereby removing any functionality that is only available to the owner."
					},
					"transferOwnership(address)": {
						"details": "Transfers ownership of the contract to a new account (`newOwner`). Can only be called by the current owner."
					}
				},
				"version": 1
			},
			"evm": {
				"assembly": "    /* \"contracts/Payment.sol\":307:3647  contract Payment is Context, Ownable, ReentrancyGuard{\r... */\n  mstore(0x40, 0x80)\n    /* \"contracts/Payment.sol\":544:545  1 */\n  0x01\n    /* \"contracts/Payment.sol\":523:545  uint256 tokenCount = 1 */\n  0x03\n  sstore\n    /* \"contracts/Payment.sol\":1239:1311  constructor(address payable _wallet) {\r... */\n  callvalue\n  dup1\n  iszero\n  tag_1\n  jumpi\n  0x00\n  dup1\n  revert\ntag_1:\n  pop\n  mload(0x40)\n  sub(codesize, bytecodeSize)\n  dup1\n  bytecodeSize\n  dup4\n  codecopy\n  dup2\n  dup2\n  add\n  0x40\n  mstore\n  dup2\n  add\n  swap1\n  tag_2\n  swap2\n  swap1\n  tag_3\n  jump\t// in\ntag_2:\n    /* \"contracts/helpers/Ownable.sol\":942:974  _transferOwnership(_msgSender()) */\n  tag_8\n    /* \"contracts/helpers/Ownable.sol\":961:973  _msgSender() */\n  tag_9\n    /* \"contracts/helpers/Ownable.sol\":961:971  _msgSender */\n  shl(0x20, tag_10)\n    /* \"contracts/helpers/Ownable.sol\":961:973  _msgSender() */\n  0x20\n  shr\n  jump\t// in\ntag_9:\n    /* \"contracts/helpers/Ownable.sol\":942:960  _transferOwnership */\n  shl(0x20, tag_11)\n    /* \"contracts/helpers/Ownable.sol\":942:974  _transferOwnership(_msgSender()) */\n  0x20\n  shr\n  jump\t// in\ntag_8:\n    /* \"contracts/helpers/ReentrancyGuard.sol\":1734:1735  1 */\n  0x01\n    /* \"contracts/helpers/ReentrancyGuard.sol\":1845:1852  _status */\n  dup1\n    /* \"contracts/helpers/ReentrancyGuard.sol\":1845:1867  _status = _NOT_ENTERED */\n  dup2\n  swap1\n  sstore\n  pop\n    /* \"contracts/Payment.sol\":1296:1303  _wallet */\n  dup1\n    /* \"contracts/Payment.sol\":1287:1293  wallet */\n  0x05\n  0x00\n    /* \"contracts/Payment.sol\":1287:1303  wallet = _wallet */\n  0x0100\n  exp\n  dup2\n  sload\n  dup2\n  0xffffffffffffffffffffffffffffffffffffffff\n  mul\n  not\n  and\n  swap1\n  dup4\n  0xffffffffffffffffffffffffffffffffffffffff\n  and\n  mul\n  or\n  swap1\n  sstore\n  pop\n    /* \"contracts/Payment.sol\":1239:1311  constructor(address payable _wallet) {\r... */\n  pop\n    /* \"contracts/Payment.sol\":307:3647  contract Payment is Context, Ownable, ReentrancyGuard{\r... */\n  jump(tag_14)\n    /* \"contracts/helpers/Context.sol\":656:754  function _msgSender() internal view virtual returns (address) {\r... */\ntag_10:\n    /* \"contracts/helpers/Context.sol\":709:716  address */\n  0x00\n    /* \"contracts/helpers/Context.sol\":736:746  msg.sender */\n  caller\n    /* \"contracts/helpers/Context.sol\":729:746  return msg.sender */\n  swap1\n  pop\n    /* \"contracts/helpers/Context.sol\":656:754  function _msgSender() internal view virtual returns (address) {\r... */\n  swap1\n  jump\t// out\n    /* \"contracts/helpers/Ownable.sol\":2333:2524  function _transferOwnership(address newOwner) internal virtual {\r... */\ntag_11:\n    /* \"contracts/helpers/Ownable.sol\":2407:2423  address oldOwner */\n  0x00\n    /* \"contracts/helpers/Ownable.sol\":2426:2432  _owner */\n  dup1\n  0x00\n  swap1\n  sload\n  swap1\n  0x0100\n  exp\n  swap1\n  div\n  0xffffffffffffffffffffffffffffffffffffffff\n  and\n    /* \"contracts/helpers/Ownable.sol\":2407:2432  address oldOwner = _owner */\n  swap1\n  pop\n    /* \"contracts/helpers/Ownable.sol\":2452:2460  newOwner */\n  dup2\n    /* \"contracts/helpers/Ownable.sol\":2443:2449  _owner */\n  0x00\n  dup1\n    /* \"contracts/helpers/Ownable.sol\":2443:2460  _owner = newOwner */\n  0x0100\n  exp\n  dup2\n  sload\n  dup2\n  0xffffffffffffffffffffffffffffffffffffffff\n  mul\n  not\n  and\n  swap1\n  dup4\n  0xffffffffffffffffffffffffffffffffffffffff\n  and\n  mul\n  or\n  swap1\n  sstore\n  pop\n    /* \"contracts/helpers/Ownable.sol\":2507:2515  newOwner */\n  dup2\n    /* \"contracts/helpers/Ownable.sol\":2476:2516  OwnershipTransferred(oldOwner, newOwner) */\n  0xffffffffffffffffffffffffffffffffffffffff\n  and\n    /* \"contracts/helpers/Ownable.sol\":2497:2505  oldOwner */\n  dup2\n    /* \"contracts/helpers/Ownable.sol\":2476:2516  OwnershipTransferred(oldOwner, newOwner) */\n  0xffffffffffffffffffffffffffffffffffffffff\n  and\n  0x8be0079c531659141344cd1fd0a4f28419497f9722a3daafe3b4186f6b6457e0\n  mload(0x40)\n  mload(0x40)\n  dup1\n  swap2\n  sub\n  swap1\n  log3\n    /* \"contracts/helpers/Ownable.sol\":2396:2524  {\r... */\n  pop\n    /* \"contracts/helpers/Ownable.sol\":2333:2524  function _transferOwnership(address newOwner) internal virtual {\r... */\n  pop\n  jump\t// out\n    /* \"#utility.yul\":7:166   */\ntag_18:\n    /* \"#utility.yul\":72:77   */\n  0x00\n    /* \"#utility.yul\":103:109   */\n  dup2\n    /* \"#utility.yul\":97:110   */\n  mload\n    /* \"#utility.yul\":88:110   */\n  swap1\n  pop\n    /* \"#utility.yul\":119:160   */\n  tag_20\n    /* \"#utility.yul\":154:159   */\n  dup2\n    /* \"#utility.yul\":119:160   */\n  tag_21\n  jump\t// in\ntag_20:\n    /* \"#utility.yul\":7:166   */\n  swap3\n  swap2\n  pop\n  pop\n  jump\t// out\n    /* \"#utility.yul\":172:539   */\ntag_3:\n    /* \"#utility.yul\":250:256   */\n  0x00\n    /* \"#utility.yul\":299:301   */\n  0x20\n    /* \"#utility.yul\":287:296   */\n  dup3\n    /* \"#utility.yul\":278:285   */\n  dup5\n    /* \"#utility.yul\":274:297   */\n  sub\n    /* \"#utility.yul\":270:302   */\n  slt\n    /* \"#utility.yul\":267:386   */\n  iszero\n  tag_23\n  jumpi\n    /* \"#utility.yul\":305:384   */\n  tag_24\n  tag_25\n  jump\t// in\ntag_24:\n    /* \"#utility.yul\":267:386   */\ntag_23:\n    /* \"#utility.yul\":425:426   */\n  0x00\n    /* \"#utility.yul\":450:522   */\n  tag_26\n    /* \"#utility.yul\":514:521   */\n  dup5\n    /* \"#utility.yul\":505:511   */\n  dup3\n    /* \"#utility.yul\":494:503   */\n  dup6\n    /* \"#utility.yul\":490:512   */\n  add\n    /* \"#utility.yul\":450:522   */\n  tag_18\n  jump\t// in\ntag_26:\n    /* \"#utility.yul\":440:522   */\n  swap2\n  pop\n    /* \"#utility.yul\":396:532   */\n  pop\n    /* \"#utility.yul\":172:539   */\n  swap3\n  swap2\n  pop\n  pop\n  jump\t// out\n    /* \"#utility.yul\":626:730   */\ntag_29:\n    /* \"#utility.yul\":671:678   */\n  0x00\n    /* \"#utility.yul\":700:724   */\n  tag_31\n    /* \"#utility.yul\":718:723   */\n  dup3\n    /* \"#utility.yul\":700:724   */\n  tag_32\n  jump\t// in\ntag_31:\n    /* \"#utility.yul\":689:724   */\n  swap1\n  pop\n    /* \"#utility.yul\":626:730   */\n  swap2\n  swap1\n  pop\n  jump\t// out\n    /* \"#utility.yul\":736:862   */\ntag_32:\n    /* \"#utility.yul\":773:780   */\n  0x00\n    /* \"#utility.yul\":813:855   */\n  0xffffffffffffffffffffffffffffffffffffffff\n    /* \"#utility.yul\":806:811   */\n  dup3\n    /* \"#utility.yul\":802:856   */\n  and\n    /* \"#utility.yul\":791:856   */\n  swap1\n  pop\n    /* \"#utility.yul\":736:862   */\n  swap2\n  swap1\n  pop\n  jump\t// out\n    /* \"#utility.yul\":991:1108   */\ntag_25:\n    /* \"#utility.yul\":1100:1101   */\n  0x00\n    /* \"#utility.yul\":1097:1098   */\n  dup1\n    /* \"#utility.yul\":1090:1102   */\n  revert\n    /* \"#utility.yul\":1114:1252   */\ntag_21:\n    /* \"#utility.yul\":1195:1227   */\n  tag_38\n    /* \"#utility.yul\":1221:1226   */\n  dup2\n    /* \"#utility.yul\":1195:1227   */\n  tag_29\n  jump\t// in\ntag_38:\n    /* \"#utility.yul\":1188:1193   */\n  dup2\n    /* \"#utility.yul\":1185:1228   */\n  eq\n    /* \"#utility.yul\":1175:1246   */\n  tag_39\n  jumpi\n    /* \"#utility.yul\":1242:1243   */\n  0x00\n    /* \"#utility.yul\":1239:1240   */\n  dup1\n    /* \"#utility.yul\":1232:1244   */\n  revert\n    /* \"#utility.yul\":1175:1246   */\ntag_39:\n    /* \"#utility.yul\":1114:1252   */\n  pop\n  jump\t// out\n    /* \"contracts/Payment.sol\":307:3647  contract Payment is Context, Ownable, ReentrancyGuard{\r... */\ntag_14:\n  dataSize(sub_0)\n  dup1\n  dataOffset(sub_0)\n  0x00\n  codecopy\n  0x00\n  return\nstop\n\nsub_0: assembly {\n        /* \"contracts/Payment.sol\":307:3647  contract Payment is Context, Ownable, ReentrancyGuard{\r... */\n      mstore(0x40, 0x80)\n      callvalue\n      dup1\n      iszero\n      tag_1\n      jumpi\n      0x00\n      dup1\n      revert\n    tag_1:\n      pop\n      jumpi(tag_2, lt(calldatasize, 0x04))\n      shr(0xe0, calldataload(0x00))\n      dup1\n      0x715018a6\n      gt\n      tag_14\n      jumpi\n      dup1\n      0x715018a6\n      eq\n      tag_8\n      jumpi\n      dup1\n      0x8da5cb5b\n      eq\n      tag_9\n      jumpi\n      dup1\n      0xc6255626\n      eq\n      tag_10\n      jumpi\n      dup1\n      0xdeaa59df\n      eq\n      tag_11\n      jumpi\n      dup1\n      0xeb0c52aa\n      eq\n      tag_12\n      jumpi\n      dup1\n      0xf2fde38b\n      eq\n      tag_13\n      jumpi\n      jump(tag_2)\n    tag_14:\n      dup1\n      0x169e90bc\n      eq\n      tag_3\n      jumpi\n      dup1\n      0x4a7dc8e0\n      eq\n      tag_4\n      jumpi\n      dup1\n      0x521eb273\n      eq\n      tag_5\n      jumpi\n      dup1\n      0x541dc014\n      eq\n      tag_6\n      jumpi\n      dup1\n      0x66c0bd24\n      eq\n      tag_7\n      jumpi\n    tag_2:\n      0x00\n      dup1\n      revert\n        /* \"contracts/Payment.sol\":3478:3640  function getTransactionDetails(address buyer, string memory orderId) public view returns(OrderDetail memory){\r... */\n    tag_3:\n      tag_15\n      0x04\n      dup1\n      calldatasize\n      sub\n      dup2\n      add\n      swap1\n      tag_16\n      swap2\n      swap1\n      tag_17\n      jump\t// in\n    tag_16:\n      tag_18\n      jump\t// in\n    tag_15:\n      mload(0x40)\n      tag_19\n      swap2\n      swap1\n      tag_20\n      jump\t// in\n    tag_19:\n      mload(0x40)\n      dup1\n      swap2\n      sub\n      swap1\n      return\n        /* \"contracts/Payment.sol\":2736:3195  function addPaymentToken(IERC20 _newTokenAddress) public onlyOwner{\r... */\n    tag_4:\n      tag_21\n      0x04\n      dup1\n      calldatasize\n      sub\n      dup2\n      add\n      swap1\n      tag_22\n      swap2\n      swap1\n      tag_23\n      jump\t// in\n    tag_22:\n      tag_24\n      jump\t// in\n    tag_21:\n      stop\n        /* \"contracts/Payment.sol\":614:643  address payable public wallet */\n    tag_5:\n      tag_25\n      tag_26\n      jump\t// in\n    tag_25:\n      mload(0x40)\n      tag_27\n      swap2\n      swap1\n      tag_28\n      jump\t// in\n    tag_27:\n      mload(0x40)\n      dup1\n      swap2\n      sub\n      swap1\n      return\n        /* \"contracts/Payment.sol\":1321:2555  function makePayment(\r... */\n    tag_6:\n      tag_29\n      0x04\n      dup1\n      calldatasize\n      sub\n      dup2\n      add\n      swap1\n      tag_30\n      swap2\n      swap1\n      tag_31\n      jump\t// in\n    tag_30:\n      tag_32\n      jump\t// in\n    tag_29:\n      stop\n        /* \"contracts/Payment.sol\":3234:3470  function getTokenIndex(address tokenAddress) public view returns(uint256){\r... */\n    tag_7:\n      tag_33\n      0x04\n      dup1\n      calldatasize\n      sub\n      dup2\n      add\n      swap1\n      tag_34\n      swap2\n      swap1\n      tag_35\n      jump\t// in\n    tag_34:\n      tag_36\n      jump\t// in\n    tag_33:\n      mload(0x40)\n      tag_37\n      swap2\n      swap1\n      tag_38\n      jump\t// in\n    tag_37:\n      mload(0x40)\n      dup1\n      swap2\n      sub\n      swap1\n      return\n        /* \"contracts/helpers/Ownable.sol\":1714:1817  function renounceOwnership() public virtual onlyOwner {\r... */\n    tag_8:\n      tag_39\n      tag_40\n      jump\t// in\n    tag_39:\n      stop\n        /* \"contracts/helpers/Ownable.sol\":1063:1150  function owner() public view virtual returns (address) {\r... */\n    tag_9:\n      tag_41\n      tag_42\n      jump\t// in\n    tag_41:\n      mload(0x40)\n      tag_43\n      swap2\n      swap1\n      tag_44\n      jump\t// in\n    tag_43:\n      mload(0x40)\n      dup1\n      swap2\n      sub\n      swap1\n      return\n        /* \"contracts/Payment.sol\":466:516  mapping(uint256 => address) public supportedTokens */\n    tag_10:\n      tag_45\n      0x04\n      dup1\n      calldatasize\n      sub\n      dup2\n      add\n      swap1\n      tag_46\n      swap2\n      swap1\n      tag_47\n      jump\t// in\n    tag_46:\n      tag_48\n      jump\t// in\n    tag_45:\n      mload(0x40)\n      tag_49\n      swap2\n      swap1\n      tag_44\n      jump\t// in\n    tag_49:\n      mload(0x40)\n      dup1\n      swap2\n      sub\n      swap1\n      return\n        /* \"contracts/Payment.sol\":2590:2728  function setWallet(address payable newWallet) public onlyOwner{\r... */\n    tag_11:\n      tag_50\n      0x04\n      dup1\n      calldatasize\n      sub\n      dup2\n      add\n      swap1\n      tag_51\n      swap2\n      swap1\n      tag_52\n      jump\t// in\n    tag_51:\n      tag_53\n      jump\t// in\n    tag_50:\n      stop\n        /* \"contracts/Payment.sol\":552:605  mapping(address => uint256) public paymentTokensIndex */\n    tag_12:\n      tag_54\n      0x04\n      dup1\n      calldatasize\n      sub\n      dup2\n      add\n      swap1\n      tag_55\n      swap2\n      swap1\n      tag_35\n      jump\t// in\n    tag_55:\n      tag_56\n      jump\t// in\n    tag_54:\n      mload(0x40)\n      tag_57\n      swap2\n      swap1\n      tag_38\n      jump\t// in\n    tag_57:\n      mload(0x40)\n      dup1\n      swap2\n      sub\n      swap1\n      return\n        /* \"contracts/helpers/Ownable.sol\":1972:2173  function transferOwnership(address newOwner) public virtual onlyOwner {\r... */\n    tag_13:\n      tag_58\n      0x04\n      dup1\n      calldatasize\n      sub\n      dup2\n      add\n      swap1\n      tag_59\n      swap2\n      swap1\n      tag_35\n      jump\t// in\n    tag_59:\n      tag_60\n      jump\t// in\n    tag_58:\n      stop\n        /* \"contracts/Payment.sol\":3478:3640  function getTransactionDetails(address buyer, string memory orderId) public view returns(OrderDetail memory){\r... */\n    tag_18:\n        /* \"contracts/Payment.sol\":3567:3585  OrderDetail memory */\n      tag_61\n      tag_62\n      jump\t// in\n    tag_61:\n        /* \"contracts/Payment.sol\":3604:3616  transactions */\n      0x06\n        /* \"contracts/Payment.sol\":3604:3623  transactions[buyer] */\n      0x00\n        /* \"contracts/Payment.sol\":3617:3622  buyer */\n      dup5\n        /* \"contracts/Payment.sol\":3604:3623  transactions[buyer] */\n      0xffffffffffffffffffffffffffffffffffffffff\n      and\n      0xffffffffffffffffffffffffffffffffffffffff\n      and\n      dup2\n      mstore\n      0x20\n      add\n      swap1\n      dup2\n      mstore\n      0x20\n      add\n      0x00\n      keccak256\n        /* \"contracts/Payment.sol\":3624:3631  orderId */\n      dup3\n        /* \"contracts/Payment.sol\":3604:3632  transactions[buyer][orderId] */\n      mload(0x40)\n      tag_64\n      swap2\n      swap1\n      tag_65\n      jump\t// in\n    tag_64:\n      swap1\n      dup2\n      mstore\n      0x20\n      add\n      mload(0x40)\n      dup1\n      swap2\n      sub\n      swap1\n      keccak256\n        /* \"contracts/Payment.sol\":3597:3632  return transactions[buyer][orderId] */\n      mload(0x40)\n      dup1\n      0xe0\n      add\n      0x40\n      mstore\n      swap1\n      dup2\n      0x00\n      dup3\n      add\n      dup1\n      sload\n      tag_66\n      swap1\n      tag_67\n      jump\t// in\n    tag_66:\n      dup1\n      0x1f\n      add\n      0x20\n      dup1\n      swap2\n      div\n      mul\n      0x20\n      add\n      mload(0x40)\n      swap1\n      dup2\n      add\n      0x40\n      mstore\n      dup1\n      swap3\n      swap2\n      swap1\n      dup2\n      dup2\n      mstore\n      0x20\n      add\n      dup3\n      dup1\n      sload\n      tag_68\n      swap1\n      tag_67\n      jump\t// in\n    tag_68:\n      dup1\n      iszero\n      tag_69\n      jumpi\n      dup1\n      0x1f\n      lt\n      tag_70\n      jumpi\n      0x0100\n      dup1\n      dup4\n      sload\n      div\n      mul\n      dup4\n      mstore\n      swap2\n      0x20\n      add\n      swap2\n      jump(tag_69)\n    tag_70:\n      dup3\n      add\n      swap2\n      swap1\n      0x00\n      mstore\n      keccak256(0x00, 0x20)\n      swap1\n    tag_71:\n      dup2\n      sload\n      dup2\n      mstore\n      swap1\n      0x01\n      add\n      swap1\n      0x20\n      add\n      dup1\n      dup4\n      gt\n      tag_71\n      jumpi\n      dup3\n      swap1\n      sub\n      0x1f\n      and\n      dup3\n      add\n      swap2\n    tag_69:\n      pop\n      pop\n      pop\n      pop\n      pop\n      dup2\n      mstore\n      0x20\n      add\n      0x01\n      dup3\n      add\n      dup1\n      sload\n      tag_72\n      swap1\n      tag_67\n      jump\t// in\n    tag_72:\n      dup1\n      0x1f\n      add\n      0x20\n      dup1\n      swap2\n      div\n      mul\n      0x20\n      add\n      mload(0x40)\n      swap1\n      dup2\n      add\n      0x40\n      mstore\n      dup1\n      swap3\n      swap2\n      swap1\n      dup2\n      dup2\n      mstore\n      0x20\n      add\n      dup3\n      dup1\n      sload\n      tag_73\n      swap1\n      tag_67\n      jump\t// in\n    tag_73:\n      dup1\n      iszero\n      tag_74\n      jumpi\n      dup1\n      0x1f\n      lt\n      tag_75\n      jumpi\n      0x0100\n      dup1\n      dup4\n      sload\n      div\n      mul\n      dup4\n      mstore\n      swap2\n      0x20\n      add\n      swap2\n      jump(tag_74)\n    tag_75:\n      dup3\n      add\n      swap2\n      swap1\n      0x00\n      mstore\n      keccak256(0x00, 0x20)\n      swap1\n    tag_76:\n      dup2\n      sload\n      dup2\n      mstore\n      swap1\n      0x01\n      add\n      swap1\n      0x20\n      add\n      dup1\n      dup4\n      gt\n      tag_76\n      jumpi\n      dup3\n      swap1\n      sub\n      0x1f\n      and\n      dup3\n      add\n      swap2\n    tag_74:\n      pop\n      pop\n      pop\n      pop\n      pop\n      dup2\n      mstore\n      0x20\n      add\n      0x02\n      dup3\n      add\n      0x00\n      swap1\n      sload\n      swap1\n      0x0100\n      exp\n      swap1\n      div\n      0xffffffffffffffffffffffffffffffffffffffff\n      and\n      0xffffffffffffffffffffffffffffffffffffffff\n      and\n      0xffffffffffffffffffffffffffffffffffffffff\n      and\n      dup2\n      mstore\n      0x20\n      add\n      0x03\n      dup3\n      add\n      sload\n      dup2\n      mstore\n      0x20\n      add\n      0x04\n      dup3\n      add\n      sload\n      dup2\n      mstore\n      0x20\n      add\n      0x05\n      dup3\n      add\n      sload\n      dup2\n      mstore\n      0x20\n      add\n      0x06\n      dup3\n      add\n      0x00\n      swap1\n      sload\n      swap1\n      0x0100\n      exp\n      swap1\n      div\n      0xffffffffffffffffffffffffffffffffffffffff\n      and\n      0xffffffffffffffffffffffffffffffffffffffff\n      and\n      0xffffffffffffffffffffffffffffffffffffffff\n      and\n      dup2\n      mstore\n      pop\n      pop\n      swap1\n      pop\n        /* \"contracts/Payment.sol\":3478:3640  function getTransactionDetails(address buyer, string memory orderId) public view returns(OrderDetail memory){\r... */\n      swap3\n      swap2\n      pop\n      pop\n      jump\t// out\n        /* \"contracts/Payment.sol\":2736:3195  function addPaymentToken(IERC20 _newTokenAddress) public onlyOwner{\r... */\n    tag_24:\n        /* \"contracts/helpers/Ownable.sol\":1294:1306  _msgSender() */\n      tag_78\n        /* \"contracts/helpers/Ownable.sol\":1294:1304  _msgSender */\n      tag_79\n        /* \"contracts/helpers/Ownable.sol\":1294:1306  _msgSender() */\n      jump\t// in\n    tag_78:\n        /* \"contracts/helpers/Ownable.sol\":1283:1306  owner() == _msgSender() */\n      0xffffffffffffffffffffffffffffffffffffffff\n      and\n        /* \"contracts/helpers/Ownable.sol\":1283:1290  owner() */\n      tag_80\n        /* \"contracts/helpers/Ownable.sol\":1283:1288  owner */\n      tag_42\n        /* \"contracts/helpers/Ownable.sol\":1283:1290  owner() */\n      jump\t// in\n    tag_80:\n        /* \"contracts/helpers/Ownable.sol\":1283:1306  owner() == _msgSender() */\n      0xffffffffffffffffffffffffffffffffffffffff\n      and\n      eq\n        /* \"contracts/helpers/Ownable.sol\":1275:1343  require(owner() == _msgSender(), \"Ownable: caller is not the owner\") */\n      tag_81\n      jumpi\n      mload(0x40)\n      0x08c379a000000000000000000000000000000000000000000000000000000000\n      dup2\n      mstore\n      0x04\n      add\n      tag_82\n      swap1\n      tag_83\n      jump\t// in\n    tag_82:\n      mload(0x40)\n      dup1\n      swap2\n      sub\n      swap1\n      revert\n    tag_81:\n        /* \"contracts/Payment.sol\":2813:2836  address newTokenAddress */\n      0x00\n        /* \"contracts/Payment.sol\":2847:2863  _newTokenAddress */\n      dup2\n        /* \"contracts/Payment.sol\":2813:2864  address newTokenAddress = address(_newTokenAddress) */\n      swap1\n      pop\n        /* \"contracts/Payment.sol\":2922:2923  0 */\n      0x00\n        /* \"contracts/Payment.sol\":2883:2901  paymentTokensIndex */\n      0x04\n        /* \"contracts/Payment.sol\":2883:2918  paymentTokensIndex[newTokenAddress] */\n      0x00\n        /* \"contracts/Payment.sol\":2902:2917  newTokenAddress */\n      dup4\n        /* \"contracts/Payment.sol\":2883:2918  paymentTokensIndex[newTokenAddress] */\n      0xffffffffffffffffffffffffffffffffffffffff\n      and\n      0xffffffffffffffffffffffffffffffffffffffff\n      and\n      dup2\n      mstore\n      0x20\n      add\n      swap1\n      dup2\n      mstore\n      0x20\n      add\n      0x00\n      keccak256\n      sload\n        /* \"contracts/Payment.sol\":2883:2923  paymentTokensIndex[newTokenAddress] == 0 */\n      eq\n        /* \"contracts/Payment.sol\":2875:2964  require(paymentTokensIndex[newTokenAddress] == 0, \"addPaymentToken: Token already added\") */\n      tag_85\n      jumpi\n      mload(0x40)\n      0x08c379a000000000000000000000000000000000000000000000000000000000\n      dup2\n      mstore\n      0x04\n      add\n      tag_86\n      swap1\n      tag_87\n      jump\t// in\n    tag_86:\n      mload(0x40)\n      dup1\n      swap2\n      sub\n      swap1\n      revert\n    tag_85:\n        /* \"contracts/Payment.sol\":3005:3020  newTokenAddress */\n      dup1\n        /* \"contracts/Payment.sol\":2975:2990  supportedTokens */\n      0x02\n        /* \"contracts/Payment.sol\":2975:3002  supportedTokens[tokenCount] */\n      0x00\n        /* \"contracts/Payment.sol\":2991:3001  tokenCount */\n      sload(0x03)\n        /* \"contracts/Payment.sol\":2975:3002  supportedTokens[tokenCount] */\n      dup2\n      mstore\n      0x20\n      add\n      swap1\n      dup2\n      mstore\n      0x20\n      add\n      0x00\n      keccak256\n      0x00\n        /* \"contracts/Payment.sol\":2975:3020  supportedTokens[tokenCount] = newTokenAddress */\n      0x0100\n      exp\n      dup2\n      sload\n      dup2\n      0xffffffffffffffffffffffffffffffffffffffff\n      mul\n      not\n      and\n      swap1\n      dup4\n      0xffffffffffffffffffffffffffffffffffffffff\n      and\n      mul\n      or\n      swap1\n      sstore\n      pop\n        /* \"contracts/Payment.sol\":3069:3079  tokenCount */\n      sload(0x03)\n        /* \"contracts/Payment.sol\":3031:3049  paymentTokensIndex */\n      0x04\n        /* \"contracts/Payment.sol\":3031:3066  paymentTokensIndex[newTokenAddress] */\n      0x00\n        /* \"contracts/Payment.sol\":3050:3065  newTokenAddress */\n      dup4\n        /* \"contracts/Payment.sol\":3031:3066  paymentTokensIndex[newTokenAddress] */\n      0xffffffffffffffffffffffffffffffffffffffff\n      and\n      0xffffffffffffffffffffffffffffffffffffffff\n      and\n      dup2\n      mstore\n      0x20\n      add\n      swap1\n      dup2\n      mstore\n      0x20\n      add\n      0x00\n      keccak256\n        /* \"contracts/Payment.sol\":3031:3079  paymentTokensIndex[newTokenAddress] = tokenCount */\n      dup2\n      swap1\n      sstore\n      pop\n        /* \"contracts/Payment.sol\":3103:3120  tokenCount.add(1) */\n      tag_88\n        /* \"contracts/Payment.sol\":3118:3119  1 */\n      0x01\n        /* \"contracts/Payment.sol\":3103:3113  tokenCount */\n      sload(0x03)\n        /* \"contracts/Payment.sol\":3103:3117  tokenCount.add */\n      tag_89\n      swap1\n        /* \"contracts/Payment.sol\":3103:3120  tokenCount.add(1) */\n      swap2\n      swap1\n      0xffffffff\n      and\n      jump\t// in\n    tag_88:\n        /* \"contracts/Payment.sol\":3090:3100  tokenCount */\n      0x03\n        /* \"contracts/Payment.sol\":3090:3120  tokenCount = tokenCount.add(1) */\n      dup2\n      swap1\n      sstore\n      pop\n        /* \"contracts/Payment.sol\":3169:3186  tokenCount.sub(1) */\n      tag_90\n        /* \"contracts/Payment.sol\":3184:3185  1 */\n      0x01\n        /* \"contracts/Payment.sol\":3169:3179  tokenCount */\n      sload(0x03)\n        /* \"contracts/Payment.sol\":3169:3183  tokenCount.sub */\n      tag_91\n      swap1\n        /* \"contracts/Payment.sol\":3169:3186  tokenCount.sub(1) */\n      swap2\n      swap1\n      0xffffffff\n      and\n      jump\t// in\n    tag_90:\n        /* \"contracts/Payment.sol\":3152:3167  newTokenAddress */\n      dup2\n        /* \"contracts/Payment.sol\":3138:3187  NewTokenAdded(newTokenAddress, tokenCount.sub(1)) */\n      0xffffffffffffffffffffffffffffffffffffffff\n      and\n      0xb5498d88d9ae1cb339dbe68df2a6fdc5e7e4d8045bbd0b39f0d5648399a753f2\n      mload(0x40)\n      mload(0x40)\n      dup1\n      swap2\n      sub\n      swap1\n      log3\n        /* \"contracts/Payment.sol\":2802:3195  {\r... */\n      pop\n        /* \"contracts/Payment.sol\":2736:3195  function addPaymentToken(IERC20 _newTokenAddress) public onlyOwner{\r... */\n      pop\n      jump\t// out\n        /* \"contracts/Payment.sol\":614:643  address payable public wallet */\n    tag_26:\n      0x05\n      0x00\n      swap1\n      sload\n      swap1\n      0x0100\n      exp\n      swap1\n      div\n      0xffffffffffffffffffffffffffffffffffffffff\n      and\n      dup2\n      jump\t// out\n        /* \"contracts/Payment.sol\":1321:2555  function makePayment(\r... */\n    tag_32:\n        /* \"contracts/Payment.sol\":1545:1546  0 */\n      0x00\n        /* \"contracts/Payment.sol\":1506:1547  supportedTokens[tokenIndex] != address(0) */\n      0xffffffffffffffffffffffffffffffffffffffff\n      and\n        /* \"contracts/Payment.sol\":1506:1521  supportedTokens */\n      0x02\n        /* \"contracts/Payment.sol\":1506:1533  supportedTokens[tokenIndex] */\n      0x00\n        /* \"contracts/Payment.sol\":1522:1532  tokenIndex */\n      dup6\n        /* \"contracts/Payment.sol\":1506:1533  supportedTokens[tokenIndex] */\n      dup2\n      mstore\n      0x20\n      add\n      swap1\n      dup2\n      mstore\n      0x20\n      add\n      0x00\n      keccak256\n      0x00\n      swap1\n      sload\n      swap1\n      0x0100\n      exp\n      swap1\n      div\n      0xffffffffffffffffffffffffffffffffffffffff\n      and\n        /* \"contracts/Payment.sol\":1506:1547  supportedTokens[tokenIndex] != address(0) */\n      0xffffffffffffffffffffffffffffffffffffffff\n      and\n      eq\n      iszero\n        /* \"contracts/Payment.sol\":1498:1584  require(supportedTokens[tokenIndex] != address(0), \"makePayment: Invalid token index\") */\n      tag_93\n      jumpi\n      mload(0x40)\n      0x08c379a000000000000000000000000000000000000000000000000000000000\n      dup2\n      mstore\n      0x04\n      add\n      tag_94\n      swap1\n      tag_95\n      jump\t// in\n    tag_94:\n      mload(0x40)\n      dup1\n      swap2\n      sub\n      swap1\n      revert\n    tag_93:\n        /* \"contracts/Payment.sol\":1595:1614  IERC20 paymentToken */\n      0x00\n        /* \"contracts/Payment.sol\":1624:1639  supportedTokens */\n      0x02\n        /* \"contracts/Payment.sol\":1624:1651  supportedTokens[tokenIndex] */\n      0x00\n        /* \"contracts/Payment.sol\":1640:1650  tokenIndex */\n      dup6\n        /* \"contracts/Payment.sol\":1624:1651  supportedTokens[tokenIndex] */\n      dup2\n      mstore\n      0x20\n      add\n      swap1\n      dup2\n      mstore\n      0x20\n      add\n      0x00\n      keccak256\n      0x00\n      swap1\n      sload\n      swap1\n      0x0100\n      exp\n      swap1\n      div\n      0xffffffffffffffffffffffffffffffffffffffff\n      and\n        /* \"contracts/Payment.sol\":1595:1652  IERC20 paymentToken = IERC20(supportedTokens[tokenIndex]) */\n      swap1\n      pop\n        /* \"contracts/Payment.sol\":1720:1737  uint256 allowance */\n      0x00\n        /* \"contracts/Payment.sol\":1740:1752  paymentToken */\n      dup2\n        /* \"contracts/Payment.sol\":1740:1762  paymentToken.allowance */\n      0xffffffffffffffffffffffffffffffffffffffff\n      and\n      0xdd62ed3e\n        /* \"contracts/Payment.sol\":1763:1775  _msgSender() */\n      tag_96\n        /* \"contracts/Payment.sol\":1763:1773  _msgSender */\n      tag_79\n        /* \"contracts/Payment.sol\":1763:1775  _msgSender() */\n      jump\t// in\n    tag_96:\n        /* \"contracts/Payment.sol\":1785:1789  this */\n      address\n        /* \"contracts/Payment.sol\":1740:1791  paymentToken.allowance(_msgSender(), address(this)) */\n      mload(0x40)\n      dup4\n      0xffffffff\n      and\n      0xe0\n      shl\n      dup2\n      mstore\n      0x04\n      add\n      tag_97\n      swap3\n      swap2\n      swap1\n      tag_98\n      jump\t// in\n    tag_97:\n      0x20\n      mload(0x40)\n      dup1\n      dup4\n      sub\n      dup2\n      dup7\n      dup1\n      extcodesize\n      iszero\n      dup1\n      iszero\n      tag_99\n      jumpi\n      0x00\n      dup1\n      revert\n    tag_99:\n      pop\n      gas\n      staticcall\n      iszero\n      dup1\n      iszero\n      tag_101\n      jumpi\n      returndatasize\n      0x00\n      dup1\n      returndatacopy\n      revert(0x00, returndatasize)\n    tag_101:\n      pop\n      pop\n      pop\n      pop\n      mload(0x40)\n      returndatasize\n      not(0x1f)\n      0x1f\n      dup3\n      add\n      and\n      dup3\n      add\n      dup1\n      0x40\n      mstore\n      pop\n      dup2\n      add\n      swap1\n      tag_102\n      swap2\n      swap1\n      tag_103\n      jump\t// in\n    tag_102:\n        /* \"contracts/Payment.sol\":1720:1791  uint256 allowance = paymentToken.allowance(_msgSender(), address(this)) */\n      swap1\n      pop\n        /* \"contracts/Payment.sol\":1823:1833  totalPrice */\n      dup4\n        /* \"contracts/Payment.sol\":1810:1819  allowance */\n      dup2\n        /* \"contracts/Payment.sol\":1810:1833  allowance >= totalPrice */\n      lt\n      iszero\n        /* \"contracts/Payment.sol\":1802:1888  require(allowance >= totalPrice, \"makePayment: Contract not approved to make payment\") */\n      tag_104\n      jumpi\n      mload(0x40)\n      0x08c379a000000000000000000000000000000000000000000000000000000000\n      dup2\n      mstore\n      0x04\n      add\n      tag_105\n      swap1\n      tag_106\n      jump\t// in\n    tag_105:\n      mload(0x40)\n      dup1\n      swap2\n      sub\n      swap1\n      revert\n    tag_104:\n        /* \"contracts/Payment.sol\":1910:1973  paymentToken.safeTransferFrom(_msgSender(), wallet, totalPrice) */\n      tag_107\n        /* \"contracts/Payment.sol\":1940:1952  _msgSender() */\n      tag_108\n        /* \"contracts/Payment.sol\":1940:1950  _msgSender */\n      tag_79\n        /* \"contracts/Payment.sol\":1940:1952  _msgSender() */\n      jump\t// in\n    tag_108:\n        /* \"contracts/Payment.sol\":1954:1960  wallet */\n      0x05\n      0x00\n      swap1\n      sload\n      swap1\n      0x0100\n      exp\n      swap1\n      div\n      0xffffffffffffffffffffffffffffffffffffffff\n      and\n        /* \"contracts/Payment.sol\":1962:1972  totalPrice */\n      dup7\n        /* \"contracts/Payment.sol\":1910:1922  paymentToken */\n      dup6\n        /* \"contracts/Payment.sol\":1910:1939  paymentToken.safeTransferFrom */\n      0xffffffffffffffffffffffffffffffffffffffff\n      and\n      tag_109\n      swap1\n        /* \"contracts/Payment.sol\":1910:1973  paymentToken.safeTransferFrom(_msgSender(), wallet, totalPrice) */\n      swap4\n      swap3\n      swap2\n      swap1\n      0xffffffff\n      and\n      jump\t// in\n    tag_107:\n        /* \"contracts/Payment.sol\":2029:2055  OrderDetail storage detail */\n      0x00\n        /* \"contracts/Payment.sol\":2058:2070  transactions */\n      0x06\n        /* \"contracts/Payment.sol\":2058:2084  transactions[_msgSender()] */\n      0x00\n        /* \"contracts/Payment.sol\":2071:2083  _msgSender() */\n      tag_110\n        /* \"contracts/Payment.sol\":2071:2081  _msgSender */\n      tag_79\n        /* \"contracts/Payment.sol\":2071:2083  _msgSender() */\n      jump\t// in\n    tag_110:\n        /* \"contracts/Payment.sol\":2058:2084  transactions[_msgSender()] */\n      0xffffffffffffffffffffffffffffffffffffffff\n      and\n      0xffffffffffffffffffffffffffffffffffffffff\n      and\n      dup2\n      mstore\n      0x20\n      add\n      swap1\n      dup2\n      mstore\n      0x20\n      add\n      0x00\n      keccak256\n        /* \"contracts/Payment.sol\":2085:2092  orderId */\n      dup8\n        /* \"contracts/Payment.sol\":2058:2093  transactions[_msgSender()][orderId] */\n      mload(0x40)\n      tag_111\n      swap2\n      swap1\n      tag_65\n      jump\t// in\n    tag_111:\n      swap1\n      dup2\n      mstore\n      0x20\n      add\n      mload(0x40)\n      dup1\n      swap2\n      sub\n      swap1\n      keccak256\n        /* \"contracts/Payment.sol\":2029:2093  OrderDetail storage detail = transactions[_msgSender()][orderId] */\n      swap1\n      pop\n        /* \"contracts/Payment.sol\":2121:2128  orderId */\n      dup7\n        /* \"contracts/Payment.sol\":2104:2110  detail */\n      dup2\n        /* \"contracts/Payment.sol\":2104:2118  detail.orderID */\n      0x00\n      add\n        /* \"contracts/Payment.sol\":2104:2128  detail.orderID = orderId */\n      swap1\n      dup1\n      mload\n      swap1\n      0x20\n      add\n      swap1\n      tag_112\n      swap3\n      swap2\n      swap1\n      tag_113\n      jump\t// in\n    tag_112:\n      pop\n        /* \"contracts/Payment.sol\":2158:2246  Strings.toString(uint256(keccak256(abi.encode(orderId, block.timestamp, _msgSender())))) */\n      tag_114\n        /* \"contracts/Payment.sol\":2204:2211  orderId */\n      dup8\n        /* \"contracts/Payment.sol\":2213:2228  block.timestamp */\n      timestamp\n        /* \"contracts/Payment.sol\":2230:2242  _msgSender() */\n      tag_115\n        /* \"contracts/Payment.sol\":2230:2240  _msgSender */\n      tag_79\n        /* \"contracts/Payment.sol\":2230:2242  _msgSender() */\n      jump\t// in\n    tag_115:\n        /* \"contracts/Payment.sol\":2193:2243  abi.encode(orderId, block.timestamp, _msgSender()) */\n      add(0x20, mload(0x40))\n      tag_116\n      swap4\n      swap3\n      swap2\n      swap1\n      tag_117\n      jump\t// in\n    tag_116:\n      mload(0x40)\n      0x20\n      dup2\n      dup4\n      sub\n      sub\n      dup2\n      mstore\n      swap1\n      0x40\n      mstore\n        /* \"contracts/Payment.sol\":2183:2244  keccak256(abi.encode(orderId, block.timestamp, _msgSender())) */\n      dup1\n      mload\n      swap1\n      0x20\n      add\n      keccak256\n        /* \"contracts/Payment.sol\":2175:2245  uint256(keccak256(abi.encode(orderId, block.timestamp, _msgSender()))) */\n      0x00\n      shr\n        /* \"contracts/Payment.sol\":2158:2174  Strings.toString */\n      tag_118\n        /* \"contracts/Payment.sol\":2158:2246  Strings.toString(uint256(keccak256(abi.encode(orderId, block.timestamp, _msgSender())))) */\n      jump\t// in\n    tag_114:\n        /* \"contracts/Payment.sol\":2139:2145  detail */\n      dup2\n        /* \"contracts/Payment.sol\":2139:2155  detail.paymentID */\n      0x01\n      add\n        /* \"contracts/Payment.sol\":2139:2246  detail.paymentID = Strings.toString(uint256(keccak256(abi.encode(orderId, block.timestamp, _msgSender())))) */\n      swap1\n      dup1\n      mload\n      swap1\n      0x20\n      add\n      swap1\n      tag_119\n      swap3\n      swap2\n      swap1\n      tag_113\n      jump\t// in\n    tag_119:\n      pop\n        /* \"contracts/Payment.sol\":2279:2294  supportedTokens */\n      0x02\n        /* \"contracts/Payment.sol\":2279:2306  supportedTokens[tokenIndex] */\n      0x00\n        /* \"contracts/Payment.sol\":2295:2305  tokenIndex */\n      dup8\n        /* \"contracts/Payment.sol\":2279:2306  supportedTokens[tokenIndex] */\n      dup2\n      mstore\n      0x20\n      add\n      swap1\n      dup2\n      mstore\n      0x20\n      add\n      0x00\n      keccak256\n      0x00\n      swap1\n      sload\n      swap1\n      0x0100\n      exp\n      swap1\n      div\n      0xffffffffffffffffffffffffffffffffffffffff\n      and\n        /* \"contracts/Payment.sol\":2257:2263  detail */\n      dup2\n        /* \"contracts/Payment.sol\":2257:2276  detail.tokenAddress */\n      0x02\n      add\n      0x00\n        /* \"contracts/Payment.sol\":2257:2306  detail.tokenAddress = supportedTokens[tokenIndex] */\n      0x0100\n      exp\n      dup2\n      sload\n      dup2\n      0xffffffffffffffffffffffffffffffffffffffff\n      mul\n      not\n      and\n      swap1\n      dup4\n      0xffffffffffffffffffffffffffffffffffffffff\n      and\n      mul\n      or\n      swap1\n      sstore\n      pop\n        /* \"contracts/Payment.sol\":2337:2347  tokenIndex */\n      dup6\n        /* \"contracts/Payment.sol\":2317:2323  detail */\n      dup2\n        /* \"contracts/Payment.sol\":2317:2334  detail.tokenIndex */\n      0x03\n      add\n        /* \"contracts/Payment.sol\":2317:2347  detail.tokenIndex = tokenIndex */\n      dup2\n      swap1\n      sstore\n      pop\n        /* \"contracts/Payment.sol\":2378:2388  totalPrice */\n      dup5\n        /* \"contracts/Payment.sol\":2358:2364  detail */\n      dup2\n        /* \"contracts/Payment.sol\":2358:2375  detail.totalPrice */\n      0x04\n      add\n        /* \"contracts/Payment.sol\":2358:2388  detail.totalPrice = totalPrice */\n      dup2\n      swap1\n      sstore\n      pop\n        /* \"contracts/Payment.sol\":2417:2425  totalQty */\n      dup4\n        /* \"contracts/Payment.sol\":2399:2405  detail */\n      dup2\n        /* \"contracts/Payment.sol\":2399:2414  detail.totalQty */\n      0x05\n      add\n        /* \"contracts/Payment.sol\":2399:2425  detail.totalQty = totalQty */\n      dup2\n      swap1\n      sstore\n      pop\n        /* \"contracts/Payment.sol\":2451:2463  _msgSender() */\n      tag_120\n        /* \"contracts/Payment.sol\":2451:2461  _msgSender */\n      tag_79\n        /* \"contracts/Payment.sol\":2451:2463  _msgSender() */\n      jump\t// in\n    tag_120:\n        /* \"contracts/Payment.sol\":2436:2442  detail */\n      dup2\n        /* \"contracts/Payment.sol\":2436:2448  detail.buyer */\n      0x06\n      add\n      0x00\n        /* \"contracts/Payment.sol\":2436:2463  detail.buyer = _msgSender() */\n      0x0100\n      exp\n      dup2\n      sload\n      dup2\n      0xffffffffffffffffffffffffffffffffffffffff\n      mul\n      not\n      and\n      swap1\n      dup4\n      0xffffffffffffffffffffffffffffffffffffffff\n      and\n      mul\n      or\n      swap1\n      sstore\n      pop\n        /* \"contracts/Payment.sol\":2532:2544  _msgSender() */\n      tag_121\n        /* \"contracts/Payment.sol\":2532:2542  _msgSender */\n      tag_79\n        /* \"contracts/Payment.sol\":2532:2544  _msgSender() */\n      jump\t// in\n    tag_121:\n        /* \"contracts/Payment.sol\":2489:2545  TransactionMade(orderId, detail.paymentID, _msgSender()) */\n      0xffffffffffffffffffffffffffffffffffffffff\n      and\n        /* \"contracts/Payment.sol\":2514:2520  detail */\n      dup2\n        /* \"contracts/Payment.sol\":2514:2530  detail.paymentID */\n      0x01\n      add\n        /* \"contracts/Payment.sol\":2489:2545  TransactionMade(orderId, detail.paymentID, _msgSender()) */\n      mload(0x40)\n      tag_122\n      swap2\n      swap1\n      tag_123\n      jump\t// in\n    tag_122:\n      mload(0x40)\n      dup1\n      swap2\n      sub\n      swap1\n      keccak256\n        /* \"contracts/Payment.sol\":2505:2512  orderId */\n      dup9\n        /* \"contracts/Payment.sol\":2489:2545  TransactionMade(orderId, detail.paymentID, _msgSender()) */\n      mload(0x40)\n      tag_124\n      swap2\n      swap1\n      tag_65\n      jump\t// in\n    tag_124:\n      mload(0x40)\n      dup1\n      swap2\n      sub\n      swap1\n      keccak256\n      0x252ea8f225dc33ac745d0cf22974635091a5ff8332a55f6469595caa3337a8fc\n      mload(0x40)\n      mload(0x40)\n      dup1\n      swap2\n      sub\n      swap1\n      log4\n        /* \"contracts/Payment.sol\":1487:2555  {\r... */\n      pop\n      pop\n      pop\n        /* \"contracts/Payment.sol\":1321:2555  function makePayment(\r... */\n      pop\n      pop\n      pop\n      pop\n      jump\t// out\n        /* \"contracts/Payment.sol\":3234:3470  function getTokenIndex(address tokenAddress) public view returns(uint256){\r... */\n    tag_36:\n        /* \"contracts/Payment.sol\":3299:3306  uint256 */\n      0x00\n        /* \"contracts/Payment.sol\":3362:3363  0 */\n      dup1\n        /* \"contracts/Payment.sol\":3326:3344  paymentTokensIndex */\n      0x04\n        /* \"contracts/Payment.sol\":3326:3358  paymentTokensIndex[tokenAddress] */\n      0x00\n        /* \"contracts/Payment.sol\":3345:3357  tokenAddress */\n      dup5\n        /* \"contracts/Payment.sol\":3326:3358  paymentTokensIndex[tokenAddress] */\n      0xffffffffffffffffffffffffffffffffffffffff\n      and\n      0xffffffffffffffffffffffffffffffffffffffff\n      and\n      dup2\n      mstore\n      0x20\n      add\n      swap1\n      dup2\n      mstore\n      0x20\n      add\n      0x00\n      keccak256\n      sload\n        /* \"contracts/Payment.sol\":3326:3363  paymentTokensIndex[tokenAddress] != 0 */\n      eq\n      iszero\n        /* \"contracts/Payment.sol\":3318:3412  require(paymentTokensIndex[tokenAddress] != 0, \"getTokenIndex: Not a supported payment token\") */\n      tag_126\n      jumpi\n      mload(0x40)\n      0x08c379a000000000000000000000000000000000000000000000000000000000\n      dup2\n      mstore\n      0x04\n      add\n      tag_127\n      swap1\n      tag_128\n      jump\t// in\n    tag_127:\n      mload(0x40)\n      dup1\n      swap2\n      sub\n      swap1\n      revert\n    tag_126:\n        /* \"contracts/Payment.sol\":3430:3448  paymentTokensIndex */\n      0x04\n        /* \"contracts/Payment.sol\":3430:3462  paymentTokensIndex[tokenAddress] */\n      0x00\n        /* \"contracts/Payment.sol\":3449:3461  tokenAddress */\n      dup4\n        /* \"contracts/Payment.sol\":3430:3462  paymentTokensIndex[tokenAddress] */\n      0xffffffffffffffffffffffffffffffffffffffff\n      and\n      0xffffffffffffffffffffffffffffffffffffffff\n      and\n      dup2\n      mstore\n      0x20\n      add\n      swap1\n      dup2\n      mstore\n      0x20\n      add\n      0x00\n      keccak256\n      sload\n        /* \"contracts/Payment.sol\":3423:3462  return paymentTokensIndex[tokenAddress] */\n      swap1\n      pop\n        /* \"contracts/Payment.sol\":3234:3470  function getTokenIndex(address tokenAddress) public view returns(uint256){\r... */\n      swap2\n      swap1\n      pop\n      jump\t// out\n        /* \"contracts/helpers/Ownable.sol\":1714:1817  function renounceOwnership() public virtual onlyOwner {\r... */\n    tag_40:\n        /* \"contracts/helpers/Ownable.sol\":1294:1306  _msgSender() */\n      tag_130\n        /* \"contracts/helpers/Ownable.sol\":1294:1304  _msgSender */\n      tag_79\n        /* \"contracts/helpers/Ownable.sol\":1294:1306  _msgSender() */\n      jump\t// in\n    tag_130:\n        /* \"contracts/helpers/Ownable.sol\":1283:1306  owner() == _msgSender() */\n      0xffffffffffffffffffffffffffffffffffffffff\n      and\n        /* \"contracts/helpers/Ownable.sol\":1283:1290  owner() */\n      tag_131\n        /* \"contracts/helpers/Ownable.sol\":1283:1288  owner */\n      tag_42\n        /* \"contracts/helpers/Ownable.sol\":1283:1290  owner() */\n      jump\t// in\n    tag_131:\n        /* \"contracts/helpers/Ownable.sol\":1283:1306  owner() == _msgSender() */\n      0xffffffffffffffffffffffffffffffffffffffff\n      and\n      eq\n        /* \"contracts/helpers/Ownable.sol\":1275:1343  require(owner() == _msgSender(), \"Ownable: caller is not the owner\") */\n      tag_132\n      jumpi\n      mload(0x40)\n      0x08c379a000000000000000000000000000000000000000000000000000000000\n      dup2\n      mstore\n      0x04\n      add\n      tag_133\n      swap1\n      tag_83\n      jump\t// in\n    tag_133:\n      mload(0x40)\n      dup1\n      swap2\n      sub\n      swap1\n      revert\n    tag_132:\n        /* \"contracts/helpers/Ownable.sol\":1779:1809  _transferOwnership(address(0)) */\n      tag_135\n        /* \"contracts/helpers/Ownable.sol\":1806:1807  0 */\n      0x00\n        /* \"contracts/helpers/Ownable.sol\":1779:1797  _transferOwnership */\n      tag_136\n        /* \"contracts/helpers/Ownable.sol\":1779:1809  _transferOwnership(address(0)) */\n      jump\t// in\n    tag_135:\n        /* \"contracts/helpers/Ownable.sol\":1714:1817  function renounceOwnership() public virtual onlyOwner {\r... */\n      jump\t// out\n        /* \"contracts/helpers/Ownable.sol\":1063:1150  function owner() public view virtual returns (address) {\r... */\n    tag_42:\n        /* \"contracts/helpers/Ownable.sol\":1109:1116  address */\n      0x00\n        /* \"contracts/helpers/Ownable.sol\":1136:1142  _owner */\n      dup1\n      0x00\n      swap1\n      sload\n      swap1\n      0x0100\n      exp\n      swap1\n      div\n      0xffffffffffffffffffffffffffffffffffffffff\n      and\n        /* \"contracts/helpers/Ownable.sol\":1129:1142  return _owner */\n      swap1\n      pop\n        /* \"contracts/helpers/Ownable.sol\":1063:1150  function owner() public view virtual returns (address) {\r... */\n      swap1\n      jump\t// out\n        /* \"contracts/Payment.sol\":466:516  mapping(uint256 => address) public supportedTokens */\n    tag_48:\n      mstore(0x20, 0x02)\n      dup1\n      0x00\n      mstore\n      keccak256(0x00, 0x40)\n      0x00\n      swap2\n      pop\n      sload\n      swap1\n      0x0100\n      exp\n      swap1\n      div\n      0xffffffffffffffffffffffffffffffffffffffff\n      and\n      dup2\n      jump\t// out\n        /* \"contracts/Payment.sol\":2590:2728  function setWallet(address payable newWallet) public onlyOwner{\r... */\n    tag_53:\n        /* \"contracts/helpers/Ownable.sol\":1294:1306  _msgSender() */\n      tag_139\n        /* \"contracts/helpers/Ownable.sol\":1294:1304  _msgSender */\n      tag_79\n        /* \"contracts/helpers/Ownable.sol\":1294:1306  _msgSender() */\n      jump\t// in\n    tag_139:\n        /* \"contracts/helpers/Ownable.sol\":1283:1306  owner() == _msgSender() */\n      0xffffffffffffffffffffffffffffffffffffffff\n      and\n        /* \"contracts/helpers/Ownable.sol\":1283:1290  owner() */\n      tag_140\n        /* \"contracts/helpers/Ownable.sol\":1283:1288  owner */\n      tag_42\n        /* \"contracts/helpers/Ownable.sol\":1283:1290  owner() */\n      jump\t// in\n    tag_140:\n        /* \"contracts/helpers/Ownable.sol\":1283:1306  owner() == _msgSender() */\n      0xffffffffffffffffffffffffffffffffffffffff\n      and\n      eq\n        /* \"contracts/helpers/Ownable.sol\":1275:1343  require(owner() == _msgSender(), \"Ownable: caller is not the owner\") */\n      tag_141\n      jumpi\n      mload(0x40)\n      0x08c379a000000000000000000000000000000000000000000000000000000000\n      dup2\n      mstore\n      0x04\n      add\n      tag_142\n      swap1\n      tag_83\n      jump\t// in\n    tag_142:\n      mload(0x40)\n      dup1\n      swap2\n      sub\n      swap1\n      revert\n    tag_141:\n        /* \"contracts/Payment.sol\":2672:2681  newWallet */\n      dup1\n        /* \"contracts/Payment.sol\":2663:2669  wallet */\n      0x05\n      0x00\n        /* \"contracts/Payment.sol\":2663:2681  wallet = newWallet */\n      0x0100\n      exp\n      dup2\n      sload\n      dup2\n      0xffffffffffffffffffffffffffffffffffffffff\n      mul\n      not\n      and\n      swap1\n      dup4\n      0xffffffffffffffffffffffffffffffffffffffff\n      and\n      mul\n      or\n      swap1\n      sstore\n      pop\n        /* \"contracts/Payment.sol\":2710:2719  newWallet */\n      dup1\n        /* \"contracts/Payment.sol\":2697:2720  NewWalletSet(newWallet) */\n      0xffffffffffffffffffffffffffffffffffffffff\n      and\n      0x65ac7c44ce1402d115f5033c9dde8b6d1e130550ecd89ac7659bc257d4f5b6d5\n      mload(0x40)\n      mload(0x40)\n      dup1\n      swap2\n      sub\n      swap1\n      log2\n        /* \"contracts/Payment.sol\":2590:2728  function setWallet(address payable newWallet) public onlyOwner{\r... */\n      pop\n      jump\t// out\n        /* \"contracts/Payment.sol\":552:605  mapping(address => uint256) public paymentTokensIndex */\n    tag_56:\n      mstore(0x20, 0x04)\n      dup1\n      0x00\n      mstore\n      keccak256(0x00, 0x40)\n      0x00\n      swap2\n      pop\n      swap1\n      pop\n      sload\n      dup2\n      jump\t// out\n        /* \"contracts/helpers/Ownable.sol\":1972:2173  function transferOwnership(address newOwner) public virtual onlyOwner {\r... */\n    tag_60:\n        /* \"contracts/helpers/Ownable.sol\":1294:1306  _msgSender() */\n      tag_145\n        /* \"contracts/helpers/Ownable.sol\":1294:1304  _msgSender */\n      tag_79\n        /* \"contracts/helpers/Ownable.sol\":1294:1306  _msgSender() */\n      jump\t// in\n    tag_145:\n        /* \"contracts/helpers/Ownable.sol\":1283:1306  owner() == _msgSender() */\n      0xffffffffffffffffffffffffffffffffffffffff\n      and\n        /* \"contracts/helpers/Ownable.sol\":1283:1290  owner() */\n      tag_146\n        /* \"contracts/helpers/Ownable.sol\":1283:1288  owner */\n      tag_42\n        /* \"contracts/helpers/Ownable.sol\":1283:1290  owner() */\n      jump\t// in\n    tag_146:\n        /* \"contracts/helpers/Ownable.sol\":1283:1306  owner() == _msgSender() */\n      0xffffffffffffffffffffffffffffffffffffffff\n      and\n      eq\n        /* \"contracts/helpers/Ownable.sol\":1275:1343  require(owner() == _msgSender(), \"Ownable: caller is not the owner\") */\n      tag_147\n      jumpi\n      mload(0x40)\n      0x08c379a000000000000000000000000000000000000000000000000000000000\n      dup2\n      mstore\n      0x04\n      add\n      tag_148\n      swap1\n      tag_83\n      jump\t// in\n    tag_148:\n      mload(0x40)\n      dup1\n      swap2\n      sub\n      swap1\n      revert\n    tag_147:\n        /* \"contracts/helpers/Ownable.sol\":2081:2082  0 */\n      0x00\n        /* \"contracts/helpers/Ownable.sol\":2061:2083  newOwner != address(0) */\n      0xffffffffffffffffffffffffffffffffffffffff\n      and\n        /* \"contracts/helpers/Ownable.sol\":2061:2069  newOwner */\n      dup2\n        /* \"contracts/helpers/Ownable.sol\":2061:2083  newOwner != address(0) */\n      0xffffffffffffffffffffffffffffffffffffffff\n      and\n      eq\n      iszero\n        /* \"contracts/helpers/Ownable.sol\":2053:2126  require(newOwner != address(0), \"Ownable: new owner is the zero address\") */\n      tag_150\n      jumpi\n      mload(0x40)\n      0x08c379a000000000000000000000000000000000000000000000000000000000\n      dup2\n      mstore\n      0x04\n      add\n      tag_151\n      swap1\n      tag_152\n      jump\t// in\n    tag_151:\n      mload(0x40)\n      dup1\n      swap2\n      sub\n      swap1\n      revert\n    tag_150:\n        /* \"contracts/helpers/Ownable.sol\":2137:2165  _transferOwnership(newOwner) */\n      tag_153\n        /* \"contracts/helpers/Ownable.sol\":2156:2164  newOwner */\n      dup2\n        /* \"contracts/helpers/Ownable.sol\":2137:2155  _transferOwnership */\n      tag_136\n        /* \"contracts/helpers/Ownable.sol\":2137:2165  _transferOwnership(newOwner) */\n      jump\t// in\n    tag_153:\n        /* \"contracts/helpers/Ownable.sol\":1972:2173  function transferOwnership(address newOwner) public virtual onlyOwner {\r... */\n      pop\n      jump\t// out\n        /* \"contracts/helpers/Context.sol\":656:754  function _msgSender() internal view virtual returns (address) {\r... */\n    tag_79:\n        /* \"contracts/helpers/Context.sol\":709:716  address */\n      0x00\n        /* \"contracts/helpers/Context.sol\":736:746  msg.sender */\n      caller\n        /* \"contracts/helpers/Context.sol\":729:746  return msg.sender */\n      swap1\n      pop\n        /* \"contracts/helpers/Context.sol\":656:754  function _msgSender() internal view virtual returns (address) {\r... */\n      swap1\n      jump\t// out\n        /* \"contracts/helpers/SafeMath.sol\":2833:2931  function add(uint256 a, uint256 b) internal pure returns (uint256) {\r... */\n    tag_89:\n        /* \"contracts/helpers/SafeMath.sol\":2891:2898  uint256 */\n      0x00\n        /* \"contracts/helpers/SafeMath.sol\":2922:2923  b */\n      dup2\n        /* \"contracts/helpers/SafeMath.sol\":2918:2919  a */\n      dup4\n        /* \"contracts/helpers/SafeMath.sol\":2918:2923  a + b */\n      tag_156\n      swap2\n      swap1\n      tag_157\n      jump\t// in\n    tag_156:\n        /* \"contracts/helpers/SafeMath.sol\":2911:2923  return a + b */\n      swap1\n      pop\n        /* \"contracts/helpers/SafeMath.sol\":2833:2931  function add(uint256 a, uint256 b) internal pure returns (uint256) {\r... */\n      swap3\n      swap2\n      pop\n      pop\n      jump\t// out\n        /* \"contracts/helpers/SafeMath.sol\":3214:3312  function sub(uint256 a, uint256 b) internal pure returns (uint256) {\r... */\n    tag_91:\n        /* \"contracts/helpers/SafeMath.sol\":3272:3279  uint256 */\n      0x00\n        /* \"contracts/helpers/SafeMath.sol\":3303:3304  b */\n      dup2\n        /* \"contracts/helpers/SafeMath.sol\":3299:3300  a */\n      dup4\n        /* \"contracts/helpers/SafeMath.sol\":3299:3304  a - b */\n      tag_159\n      swap2\n      swap1\n      tag_160\n      jump\t// in\n    tag_159:\n        /* \"contracts/helpers/SafeMath.sol\":3292:3304  return a - b */\n      swap1\n      pop\n        /* \"contracts/helpers/SafeMath.sol\":3214:3312  function sub(uint256 a, uint256 b) internal pure returns (uint256) {\r... */\n      swap3\n      swap2\n      pop\n      pop\n      jump\t// out\n        /* \"contracts/helpers/SafeERC20.sol\":926:1174  function safeTransferFrom(\r... */\n    tag_109:\n        /* \"contracts/helpers/SafeERC20.sol\":1070:1166  _callOptionalReturn(token, abi.encodeWithSelector(token.transferFrom.selector, from, to, value)) */\n      tag_162\n        /* \"contracts/helpers/SafeERC20.sol\":1090:1095  token */\n      dup5\n        /* \"contracts/helpers/SafeERC20.sol\":1120:1147  token.transferFrom.selector */\n      shl(0xe0, 0x23b872dd)\n        /* \"contracts/helpers/SafeERC20.sol\":1149:1153  from */\n      dup6\n        /* \"contracts/helpers/SafeERC20.sol\":1155:1157  to */\n      dup6\n        /* \"contracts/helpers/SafeERC20.sol\":1159:1164  value */\n      dup6\n        /* \"contracts/helpers/SafeERC20.sol\":1097:1165  abi.encodeWithSelector(token.transferFrom.selector, from, to, value) */\n      add(0x24, mload(0x40))\n      tag_163\n      swap4\n      swap3\n      swap2\n      swap1\n      tag_164\n      jump\t// in\n    tag_163:\n      mload(0x40)\n      0x20\n      dup2\n      dup4\n      sub\n      sub\n      dup2\n      mstore\n      swap1\n      0x40\n      mstore\n      swap1\n      not(0xffffffffffffffffffffffffffffffffffffffffffffffffffffffff)\n      and\n      0x20\n      dup3\n      add\n      dup1\n      mload\n      0xffffffffffffffffffffffffffffffffffffffffffffffffffffffff\n      dup4\n      dup2\n      dup4\n      and\n      or\n      dup4\n      mstore\n      pop\n      pop\n      pop\n      pop\n        /* \"contracts/helpers/SafeERC20.sol\":1070:1089  _callOptionalReturn */\n      tag_165\n        /* \"contracts/helpers/SafeERC20.sol\":1070:1166  _callOptionalReturn(token, abi.encodeWithSelector(token.transferFrom.selector, from, to, value)) */\n      jump\t// in\n    tag_162:\n        /* \"contracts/helpers/SafeERC20.sol\":926:1174  function safeTransferFrom(\r... */\n      pop\n      pop\n      pop\n      pop\n      jump\t// out\n        /* \"contracts/helpers/Strings.sol\":342:1065  function toString(uint256 value) internal pure returns (string memory) {\r... */\n    tag_118:\n        /* \"contracts/helpers/Strings.sol\":398:411  string memory */\n      0x60\n        /* \"contracts/helpers/Strings.sol\":628:629  0 */\n      0x00\n        /* \"contracts/helpers/Strings.sol\":619:624  value */\n      dup3\n        /* \"contracts/helpers/Strings.sol\":619:629  value == 0 */\n      eq\n        /* \"contracts/helpers/Strings.sol\":615:668  if (value == 0) {\r... */\n      iszero\n      tag_167\n      jumpi\n        /* \"contracts/helpers/Strings.sol\":646:656  return \"0\" */\n      mload(0x40)\n      dup1\n      0x40\n      add\n      0x40\n      mstore\n      dup1\n      0x01\n      dup2\n      mstore\n      0x20\n      add\n      0x3000000000000000000000000000000000000000000000000000000000000000\n      dup2\n      mstore\n      pop\n      swap1\n      pop\n      jump(tag_166)\n        /* \"contracts/helpers/Strings.sol\":615:668  if (value == 0) {\r... */\n    tag_167:\n        /* \"contracts/helpers/Strings.sol\":678:690  uint256 temp */\n      0x00\n        /* \"contracts/helpers/Strings.sol\":693:698  value */\n      dup3\n        /* \"contracts/helpers/Strings.sol\":678:698  uint256 temp = value */\n      swap1\n      pop\n        /* \"contracts/helpers/Strings.sol\":709:723  uint256 digits */\n      0x00\n        /* \"contracts/helpers/Strings.sol\":734:812  while (temp != 0) {\r... */\n    tag_168:\n        /* \"contracts/helpers/Strings.sol\":749:750  0 */\n      0x00\n        /* \"contracts/helpers/Strings.sol\":741:745  temp */\n      dup3\n        /* \"contracts/helpers/Strings.sol\":741:750  temp != 0 */\n      eq\n        /* \"contracts/helpers/Strings.sol\":734:812  while (temp != 0) {\r... */\n      tag_169\n      jumpi\n        /* \"contracts/helpers/Strings.sol\":767:775  digits++ */\n      dup1\n      dup1\n      tag_170\n      swap1\n      tag_171\n      jump\t// in\n    tag_170:\n      swap2\n      pop\n      pop\n        /* \"contracts/helpers/Strings.sol\":798:800  10 */\n      0x0a\n        /* \"contracts/helpers/Strings.sol\":790:800  temp /= 10 */\n      dup3\n      tag_172\n      swap2\n      swap1\n      tag_173\n      jump\t// in\n    tag_172:\n      swap2\n      pop\n        /* \"contracts/helpers/Strings.sol\":734:812  while (temp != 0) {\r... */\n      jump(tag_168)\n    tag_169:\n        /* \"contracts/helpers/Strings.sol\":822:841  bytes memory buffer */\n      0x00\n        /* \"contracts/helpers/Strings.sol\":854:860  digits */\n      dup2\n        /* \"contracts/helpers/Strings.sol\":844:861  new bytes(digits) */\n      0xffffffffffffffff\n      dup2\n      gt\n      iszero\n      tag_174\n      jumpi\n      tag_175\n      tag_176\n      jump\t// in\n    tag_175:\n    tag_174:\n      mload(0x40)\n      swap1\n      dup1\n      dup3\n      mstore\n      dup1\n      0x1f\n      add\n      not(0x1f)\n      and\n      0x20\n      add\n      dup3\n      add\n      0x40\n      mstore\n      dup1\n      iszero\n      tag_177\n      jumpi\n      dup2\n      0x20\n      add\n      0x01\n      dup3\n      mul\n      dup1\n      calldatasize\n      dup4\n      calldatacopy\n      dup1\n      dup3\n      add\n      swap2\n      pop\n      pop\n      swap1\n      pop\n    tag_177:\n      pop\n        /* \"contracts/helpers/Strings.sol\":822:861  bytes memory buffer = new bytes(digits) */\n      swap1\n      pop\n        /* \"contracts/helpers/Strings.sol\":872:1026  while (value != 0) {\r... */\n    tag_178:\n        /* \"contracts/helpers/Strings.sol\":888:889  0 */\n      0x00\n        /* \"contracts/helpers/Strings.sol\":879:884  value */\n      dup6\n        /* \"contracts/helpers/Strings.sol\":879:889  value != 0 */\n      eq\n        /* \"contracts/helpers/Strings.sol\":872:1026  while (value != 0) {\r... */\n      tag_179\n      jumpi\n        /* \"contracts/helpers/Strings.sol\":916:917  1 */\n      0x01\n        /* \"contracts/helpers/Strings.sol\":906:917  digits -= 1 */\n      dup3\n      tag_180\n      swap2\n      swap1\n      tag_160\n      jump\t// in\n    tag_180:\n      swap2\n      pop\n        /* \"contracts/helpers/Strings.sol\":983:985  10 */\n      0x0a\n        /* \"contracts/helpers/Strings.sol\":975:980  value */\n      dup6\n        /* \"contracts/helpers/Strings.sol\":975:985  value % 10 */\n      tag_181\n      swap2\n      swap1\n      tag_182\n      jump\t// in\n    tag_181:\n        /* \"contracts/helpers/Strings.sol\":962:964  48 */\n      0x30\n        /* \"contracts/helpers/Strings.sol\":962:986  48 + uint256(value % 10) */\n      tag_183\n      swap2\n      swap1\n      tag_157\n      jump\t// in\n    tag_183:\n        /* \"contracts/helpers/Strings.sol\":949:988  bytes1(uint8(48 + uint256(value % 10))) */\n      0xf8\n      shl\n        /* \"contracts/helpers/Strings.sol\":932:938  buffer */\n      dup2\n        /* \"contracts/helpers/Strings.sol\":939:945  digits */\n      dup4\n        /* \"contracts/helpers/Strings.sol\":932:946  buffer[digits] */\n      dup2\n      mload\n      dup2\n      lt\n      tag_184\n      jumpi\n      tag_185\n      tag_186\n      jump\t// in\n    tag_185:\n    tag_184:\n      0x20\n      add\n      add\n        /* \"contracts/helpers/Strings.sol\":932:988  buffer[digits] = bytes1(uint8(48 + uint256(value % 10))) */\n      swap1\n      not(0xffffffffffffffffffffffffffffffffffffffffffffffffffffffffffffff)\n      and\n      swap1\n      dup2\n      0x00\n      byte\n      swap1\n      mstore8\n      pop\n        /* \"contracts/helpers/Strings.sol\":1012:1014  10 */\n      0x0a\n        /* \"contracts/helpers/Strings.sol\":1003:1014  value /= 10 */\n      dup6\n      tag_187\n      swap2\n      swap1\n      tag_173\n      jump\t// in\n    tag_187:\n      swap5\n      pop\n        /* \"contracts/helpers/Strings.sol\":872:1026  while (value != 0) {\r... */\n      jump(tag_178)\n    tag_179:\n        /* \"contracts/helpers/Strings.sol\":1050:1056  buffer */\n      dup1\n        /* \"contracts/helpers/Strings.sol\":1036:1057  return string(buffer) */\n      swap4\n      pop\n      pop\n      pop\n      pop\n        /* \"contracts/helpers/Strings.sol\":342:1065  function toString(uint256 value) internal pure returns (string memory) {\r... */\n    tag_166:\n      swap2\n      swap1\n      pop\n      jump\t// out\n        /* \"contracts/helpers/Ownable.sol\":2333:2524  function _transferOwnership(address newOwner) internal virtual {\r... */\n    tag_136:\n        /* \"contracts/helpers/Ownable.sol\":2407:2423  address oldOwner */\n      0x00\n        /* \"contracts/helpers/Ownable.sol\":2426:2432  _owner */\n      dup1\n      0x00\n      swap1\n      sload\n      swap1\n      0x0100\n      exp\n      swap1\n      div\n      0xffffffffffffffffffffffffffffffffffffffff\n      and\n        /* \"contracts/helpers/Ownable.sol\":2407:2432  address oldOwner = _owner */\n      swap1\n      pop\n        /* \"contracts/helpers/Ownable.sol\":2452:2460  newOwner */\n      dup2\n        /* \"contracts/helpers/Ownable.sol\":2443:2449  _owner */\n      0x00\n      dup1\n        /* \"contracts/helpers/Ownable.sol\":2443:2460  _owner = newOwner */\n      0x0100\n      exp\n      dup2\n      sload\n      dup2\n      0xffffffffffffffffffffffffffffffffffffffff\n      mul\n      not\n      and\n      swap1\n      dup4\n      0xffffffffffffffffffffffffffffffffffffffff\n      and\n      mul\n      or\n      swap1\n      sstore\n      pop\n        /* \"contracts/helpers/Ownable.sol\":2507:2515  newOwner */\n      dup2\n        /* \"contracts/helpers/Ownable.sol\":2476:2516  OwnershipTransferred(oldOwner, newOwner) */\n      0xffffffffffffffffffffffffffffffffffffffff\n      and\n        /* \"contracts/helpers/Ownable.sol\":2497:2505  oldOwner */\n      dup2\n        /* \"contracts/helpers/Ownable.sol\":2476:2516  OwnershipTransferred(oldOwner, newOwner) */\n      0xffffffffffffffffffffffffffffffffffffffff\n      and\n      0x8be0079c531659141344cd1fd0a4f28419497f9722a3daafe3b4186f6b6457e0\n      mload(0x40)\n      mload(0x40)\n      dup1\n      swap2\n      sub\n      swap1\n      log3\n        /* \"contracts/helpers/Ownable.sol\":2396:2524  {\r... */\n      pop\n        /* \"contracts/helpers/Ownable.sol\":2333:2524  function _transferOwnership(address newOwner) internal virtual {\r... */\n      pop\n      jump\t// out\n        /* \"contracts/helpers/SafeERC20.sol\":3280:3996  function _callOptionalReturn(IERC20 token, bytes memory data) private {\r... */\n    tag_165:\n        /* \"contracts/helpers/SafeERC20.sol\":3704:3727  bytes memory returndata */\n      0x00\n        /* \"contracts/helpers/SafeERC20.sol\":3730:3799  address(token).functionCall(data, \"SafeERC20: low-level call failed\") */\n      tag_190\n        /* \"contracts/helpers/SafeERC20.sol\":3758:3762  data */\n      dup3\n        /* \"contracts/helpers/SafeERC20.sol\":3730:3799  address(token).functionCall(data, \"SafeERC20: low-level call failed\") */\n      mload(0x40)\n      dup1\n      0x40\n      add\n      0x40\n      mstore\n      dup1\n      0x20\n      dup2\n      mstore\n      0x20\n      add\n      0x5361666545524332303a206c6f772d6c6576656c2063616c6c206661696c6564\n      dup2\n      mstore\n      pop\n        /* \"contracts/helpers/SafeERC20.sol\":3738:3743  token */\n      dup6\n        /* \"contracts/helpers/SafeERC20.sol\":3730:3757  address(token).functionCall */\n      0xffffffffffffffffffffffffffffffffffffffff\n      and\n      tag_191\n      swap1\n        /* \"contracts/helpers/SafeERC20.sol\":3730:3799  address(token).functionCall(data, \"SafeERC20: low-level call failed\") */\n      swap3\n      swap2\n      swap1\n      0xffffffff\n      and\n      jump\t// in\n    tag_190:\n        /* \"contracts/helpers/SafeERC20.sol\":3704:3799  bytes memory returndata = address(token).functionCall(data, \"SafeERC20: low-level call failed\") */\n      swap1\n      pop\n        /* \"contracts/helpers/SafeERC20.sol\":3834:3835  0 */\n      0x00\n        /* \"contracts/helpers/SafeERC20.sol\":3814:3824  returndata */\n      dup2\n        /* \"contracts/helpers/SafeERC20.sol\":3814:3831  returndata.length */\n      mload\n        /* \"contracts/helpers/SafeERC20.sol\":3814:3835  returndata.length > 0 */\n      gt\n        /* \"contracts/helpers/SafeERC20.sol\":3810:3989  if (returndata.length > 0) {\r... */\n      iszero\n      tag_192\n      jumpi\n        /* \"contracts/helpers/SafeERC20.sol\":3911:3921  returndata */\n      dup1\n        /* \"contracts/helpers/SafeERC20.sol\":3900:3930  abi.decode(returndata, (bool)) */\n      dup1\n      0x20\n      add\n      swap1\n      mload\n      dup2\n      add\n      swap1\n      tag_193\n      swap2\n      swap1\n      tag_194\n      jump\t// in\n    tag_193:\n        /* \"contracts/helpers/SafeERC20.sol\":3892:3977  require(abi.decode(returndata, (bool)), \"SafeERC20: ERC20 operation did not succeed\") */\n      tag_195\n      jumpi\n      mload(0x40)\n      0x08c379a000000000000000000000000000000000000000000000000000000000\n      dup2\n      mstore\n      0x04\n      add\n      tag_196\n      swap1\n      tag_197\n      jump\t// in\n    tag_196:\n      mload(0x40)\n      dup1\n      swap2\n      sub\n      swap1\n      revert\n    tag_195:\n        /* \"contracts/helpers/SafeERC20.sol\":3810:3989  if (returndata.length > 0) {\r... */\n    tag_192:\n        /* \"contracts/helpers/SafeERC20.sol\":3350:3996  {\r... */\n      pop\n        /* \"contracts/helpers/SafeERC20.sol\":3280:3996  function _callOptionalReturn(IERC20 token, bytes memory data) private {\r... */\n      pop\n      pop\n      jump\t// out\n        /* \"contracts/helpers/Address.sol\":3940:4169  function functionCall(\r... */\n    tag_191:\n        /* \"contracts/helpers/Address.sol\":4077:4089  bytes memory */\n      0x60\n        /* \"contracts/helpers/Address.sol\":4109:4161  functionCallWithValue(target, data, 0, errorMessage) */\n      tag_199\n        /* \"contracts/helpers/Address.sol\":4131:4137  target */\n      dup5\n        /* \"contracts/helpers/Address.sol\":4139:4143  data */\n      dup5\n        /* \"contracts/helpers/Address.sol\":4145:4146  0 */\n      0x00\n        /* \"contracts/helpers/Address.sol\":4148:4160  errorMessage */\n      dup6\n        /* \"contracts/helpers/Address.sol\":4109:4130  functionCallWithValue */\n      tag_200\n        /* \"contracts/helpers/Address.sol\":4109:4161  functionCallWithValue(target, data, 0, errorMessage) */\n      jump\t// in\n    tag_199:\n        /* \"contracts/helpers/Address.sol\":4102:4161  return functionCallWithValue(target, data, 0, errorMessage) */\n      swap1\n      pop\n        /* \"contracts/helpers/Address.sol\":3940:4169  function functionCall(\r... */\n      swap4\n      swap3\n      pop\n      pop\n      pop\n      jump\t// out\n        /* \"contracts/helpers/Address.sol\":5060:5570  function functionCallWithValue(\r... */\n    tag_200:\n        /* \"contracts/helpers/Address.sol\":5230:5242  bytes memory */\n      0x60\n        /* \"contracts/helpers/Address.sol\":5288:5293  value */\n      dup3\n        /* \"contracts/helpers/Address.sol\":5263:5284  address(this).balance */\n      selfbalance\n        /* \"contracts/helpers/Address.sol\":5263:5293  address(this).balance >= value */\n      lt\n      iszero\n        /* \"contracts/helpers/Address.sol\":5255:5336  require(address(this).balance >= value, \"Address: insufficient balance for call\") */\n      tag_202\n      jumpi\n      mload(0x40)\n      0x08c379a000000000000000000000000000000000000000000000000000000000\n      dup2\n      mstore\n      0x04\n      add\n      tag_203\n      swap1\n      tag_204\n      jump\t// in\n    tag_203:\n      mload(0x40)\n      dup1\n      swap2\n      sub\n      swap1\n      revert\n    tag_202:\n        /* \"contracts/helpers/Address.sol\":5355:5373  isContract(target) */\n      tag_205\n        /* \"contracts/helpers/Address.sol\":5366:5372  target */\n      dup6\n        /* \"contracts/helpers/Address.sol\":5355:5365  isContract */\n      tag_206\n        /* \"contracts/helpers/Address.sol\":5355:5373  isContract(target) */\n      jump\t// in\n    tag_205:\n        /* \"contracts/helpers/Address.sol\":5347:5407  require(isContract(target), \"Address: call to non-contract\") */\n      tag_207\n      jumpi\n      mload(0x40)\n      0x08c379a000000000000000000000000000000000000000000000000000000000\n      dup2\n      mstore\n      0x04\n      add\n      tag_208\n      swap1\n      tag_209\n      jump\t// in\n    tag_208:\n      mload(0x40)\n      dup1\n      swap2\n      sub\n      swap1\n      revert\n    tag_207:\n        /* \"contracts/helpers/Address.sol\":5421:5433  bool success */\n      0x00\n        /* \"contracts/helpers/Address.sol\":5435:5458  bytes memory returndata */\n      dup1\n        /* \"contracts/helpers/Address.sol\":5462:5468  target */\n      dup7\n        /* \"contracts/helpers/Address.sol\":5462:5473  target.call */\n      0xffffffffffffffffffffffffffffffffffffffff\n      and\n        /* \"contracts/helpers/Address.sol\":5481:5486  value */\n      dup6\n        /* \"contracts/helpers/Address.sol\":5488:5492  data */\n      dup8\n        /* \"contracts/helpers/Address.sol\":5462:5493  target.call{value: value}(data) */\n      mload(0x40)\n      tag_210\n      swap2\n      swap1\n      tag_211\n      jump\t// in\n    tag_210:\n      0x00\n      mload(0x40)\n      dup1\n      dup4\n      sub\n      dup2\n      dup6\n      dup8\n      gas\n      call\n      swap3\n      pop\n      pop\n      pop\n      returndatasize\n      dup1\n      0x00\n      dup2\n      eq\n      tag_214\n      jumpi\n      mload(0x40)\n      swap2\n      pop\n      and(add(returndatasize, 0x3f), not(0x1f))\n      dup3\n      add\n      0x40\n      mstore\n      returndatasize\n      dup3\n      mstore\n      returndatasize\n      0x00\n      0x20\n      dup5\n      add\n      returndatacopy\n      jump(tag_213)\n    tag_214:\n      0x60\n      swap2\n      pop\n    tag_213:\n      pop\n        /* \"contracts/helpers/Address.sol\":5420:5493  (bool success, bytes memory returndata) = target.call{value: value}(data) */\n      swap2\n      pop\n      swap2\n      pop\n        /* \"contracts/helpers/Address.sol\":5511:5562  verifyCallResult(success, returndata, errorMessage) */\n      tag_215\n        /* \"contracts/helpers/Address.sol\":5528:5535  success */\n      dup3\n        /* \"contracts/helpers/Address.sol\":5537:5547  returndata */\n      dup3\n        /* \"contracts/helpers/Address.sol\":5549:5561  errorMessage */\n      dup7\n        /* \"contracts/helpers/Address.sol\":5511:5527  verifyCallResult */\n      tag_216\n        /* \"contracts/helpers/Address.sol\":5511:5562  verifyCallResult(success, returndata, errorMessage) */\n      jump\t// in\n    tag_215:\n        /* \"contracts/helpers/Address.sol\":5504:5562  return verifyCallResult(success, returndata, errorMessage) */\n      swap3\n      pop\n      pop\n      pop\n        /* \"contracts/helpers/Address.sol\":5060:5570  function functionCallWithValue(\r... */\n      swap5\n      swap4\n      pop\n      pop\n      pop\n      pop\n      jump\t// out\n        /* \"contracts/helpers/Address.sol\":1195:1521  function isContract(address account) internal view returns (bool) {\r... */\n    tag_206:\n        /* \"contracts/helpers/Address.sol\":1255:1259  bool */\n      0x00\n        /* \"contracts/helpers/Address.sol\":1512:1513  0 */\n      dup1\n        /* \"contracts/helpers/Address.sol\":1490:1497  account */\n      dup3\n        /* \"contracts/helpers/Address.sol\":1490:1509  account.code.length */\n      0xffffffffffffffffffffffffffffffffffffffff\n      and\n      extcodesize\n        /* \"contracts/helpers/Address.sol\":1490:1513  account.code.length > 0 */\n      gt\n        /* \"contracts/helpers/Address.sol\":1483:1513  return account.code.length > 0 */\n      swap1\n      pop\n        /* \"contracts/helpers/Address.sol\":1195:1521  function isContract(address account) internal view returns (bool) {\r... */\n      swap2\n      swap1\n      pop\n      jump\t// out\n        /* \"contracts/helpers/Address.sol\":7746:8458  function verifyCallResult(\r... */\n    tag_216:\n        /* \"contracts/helpers/Address.sol\":7896:7908  bytes memory */\n      0x60\n        /* \"contracts/helpers/Address.sol\":7925:7932  success */\n      dup4\n        /* \"contracts/helpers/Address.sol\":7921:8451  if (success) {\r... */\n      iszero\n      tag_219\n      jumpi\n        /* \"contracts/helpers/Address.sol\":7956:7966  returndata */\n      dup3\n        /* \"contracts/helpers/Address.sol\":7949:7966  return returndata */\n      swap1\n      pop\n      jump(tag_218)\n        /* \"contracts/helpers/Address.sol\":7921:8451  if (success) {\r... */\n    tag_219:\n        /* \"contracts/helpers/Address.sol\":8090:8091  0 */\n      0x00\n        /* \"contracts/helpers/Address.sol\":8070:8080  returndata */\n      dup4\n        /* \"contracts/helpers/Address.sol\":8070:8087  returndata.length */\n      mload\n        /* \"contracts/helpers/Address.sol\":8070:8091  returndata.length > 0 */\n      gt\n        /* \"contracts/helpers/Address.sol\":8066:8440  if (returndata.length > 0) {\r... */\n      iszero\n      tag_221\n      jumpi\n        /* \"contracts/helpers/Address.sol\":8268:8278  returndata */\n      dup3\n        /* \"contracts/helpers/Address.sol\":8262:8279  mload(returndata) */\n      mload\n        /* \"contracts/helpers/Address.sol\":8329:8344  returndata_size */\n      dup1\n        /* \"contracts/helpers/Address.sol\":8316:8326  returndata */\n      dup5\n        /* \"contracts/helpers/Address.sol\":8312:8314  32 */\n      0x20\n        /* \"contracts/helpers/Address.sol\":8308:8327  add(32, returndata) */\n      add\n        /* \"contracts/helpers/Address.sol\":8301:8345  revert(add(32, returndata), returndata_size) */\n      revert\n        /* \"contracts/helpers/Address.sol\":8066:8440  if (returndata.length > 0) {\r... */\n    tag_221:\n        /* \"contracts/helpers/Address.sol\":8411:8423  errorMessage */\n      dup2\n        /* \"contracts/helpers/Address.sol\":8404:8424  revert(errorMessage) */\n      mload(0x40)\n      0x08c379a000000000000000000000000000000000000000000000000000000000\n      dup2\n      mstore\n      0x04\n      add\n      tag_223\n      swap2\n      swap1\n      tag_224\n      jump\t// in\n    tag_223:\n      mload(0x40)\n      dup1\n      swap2\n      sub\n      swap1\n      revert\n        /* \"contracts/helpers/Address.sol\":7746:8458  function verifyCallResult(\r... */\n    tag_218:\n      swap4\n      swap3\n      pop\n      pop\n      pop\n      jump\t// out\n    tag_62:\n      mload(0x40)\n      dup1\n      0xe0\n      add\n      0x40\n      mstore\n      dup1\n      0x60\n      dup2\n      mstore\n      0x20\n      add\n      0x60\n      dup2\n      mstore\n      0x20\n      add\n      and(0xffffffffffffffffffffffffffffffffffffffff, 0x00)\n      dup2\n      mstore\n      0x20\n      add\n      0x00\n      dup2\n      mstore\n      0x20\n      add\n      0x00\n      dup2\n      mstore\n      0x20\n      add\n      0x00\n      dup2\n      mstore\n      0x20\n      add\n      and(0xffffffffffffffffffffffffffffffffffffffff, 0x00)\n      dup2\n      mstore\n      pop\n      swap1\n      jump\t// out\n    tag_113:\n      dup3\n      dup1\n      sload\n      tag_225\n      swap1\n      tag_67\n      jump\t// in\n    tag_225:\n      swap1\n      0x00\n      mstore\n      keccak256(0x00, 0x20)\n      swap1\n      0x1f\n      add\n      0x20\n      swap1\n      div\n      dup2\n      add\n      swap3\n      dup3\n      tag_227\n      jumpi\n      0x00\n      dup6\n      sstore\n      jump(tag_226)\n    tag_227:\n      dup3\n      0x1f\n      lt\n      tag_228\n      jumpi\n      dup1\n      mload\n      not(0xff)\n      and\n      dup4\n      dup1\n      add\n      or\n      dup6\n      sstore\n      jump(tag_226)\n    tag_228:\n      dup3\n      dup1\n      add\n      0x01\n      add\n      dup6\n      sstore\n      dup3\n      iszero\n      tag_226\n      jumpi\n      swap2\n      dup3\n      add\n    tag_229:\n      dup3\n      dup2\n      gt\n      iszero\n      tag_230\n      jumpi\n      dup3\n      mload\n      dup3\n      sstore\n      swap2\n      0x20\n      add\n      swap2\n      swap1\n      0x01\n      add\n      swap1\n      jump(tag_229)\n    tag_230:\n    tag_226:\n      pop\n      swap1\n      pop\n      tag_231\n      swap2\n      swap1\n      tag_232\n      jump\t// in\n    tag_231:\n      pop\n      swap1\n      jump\t// out\n    tag_232:\n    tag_233:\n      dup1\n      dup3\n      gt\n      iszero\n      tag_234\n      jumpi\n      0x00\n      dup2\n      0x00\n      swap1\n      sstore\n      pop\n      0x01\n      add\n      jump(tag_233)\n    tag_234:\n      pop\n      swap1\n      jump\t// out\n        /* \"#utility.yul\":7:419   */\n    tag_236:\n        /* \"#utility.yul\":85:90   */\n      0x00\n        /* \"#utility.yul\":110:176   */\n      tag_238\n        /* \"#utility.yul\":126:175   */\n      tag_239\n        /* \"#utility.yul\":168:174   */\n      dup5\n        /* \"#utility.yul\":126:175   */\n      tag_240\n      jump\t// in\n    tag_239:\n        /* \"#utility.yul\":110:176   */\n      tag_241\n      jump\t// in\n    tag_238:\n        /* \"#utility.yul\":101:176   */\n      swap1\n      pop\n        /* \"#utility.yul\":199:205   */\n      dup3\n        /* \"#utility.yul\":192:197   */\n      dup2\n        /* \"#utility.yul\":185:206   */\n      mstore\n        /* \"#utility.yul\":237:241   */\n      0x20\n        /* \"#utility.yul\":230:235   */\n      dup2\n        /* \"#utility.yul\":226:242   */\n      add\n        /* \"#utility.yul\":275:278   */\n      dup5\n        /* \"#utility.yul\":266:272   */\n      dup5\n        /* \"#utility.yul\":261:264   */\n      dup5\n        /* \"#utility.yul\":257:273   */\n      add\n        /* \"#utility.yul\":254:279   */\n      gt\n        /* \"#utility.yul\":251:363   */\n      iszero\n      tag_242\n      jumpi\n        /* \"#utility.yul\":282:361   */\n      tag_243\n      tag_244\n      jump\t// in\n    tag_243:\n        /* \"#utility.yul\":251:363   */\n    tag_242:\n        /* \"#utility.yul\":372:413   */\n      tag_245\n        /* \"#utility.yul\":406:412   */\n      dup5\n        /* \"#utility.yul\":401:404   */\n      dup3\n        /* \"#utility.yul\":396:399   */\n      dup6\n        /* \"#utility.yul\":372:413   */\n      tag_246\n      jump\t// in\n    tag_245:\n        /* \"#utility.yul\":91:419   */\n      pop\n        /* \"#utility.yul\":7:419   */\n      swap4\n      swap3\n      pop\n      pop\n      pop\n      jump\t// out\n        /* \"#utility.yul\":425:564   */\n    tag_247:\n        /* \"#utility.yul\":471:476   */\n      0x00\n        /* \"#utility.yul\":509:515   */\n      dup2\n        /* \"#utility.yul\":496:516   */\n      calldataload\n        /* \"#utility.yul\":487:516   */\n      swap1\n      pop\n        /* \"#utility.yul\":525:558   */\n      tag_249\n        /* \"#utility.yul\":552:557   */\n      dup2\n        /* \"#utility.yul\":525:558   */\n      tag_250\n      jump\t// in\n    tag_249:\n        /* \"#utility.yul\":425:564   */\n      swap3\n      swap2\n      pop\n      pop\n      jump\t// out\n        /* \"#utility.yul\":570:725   */\n    tag_251:\n        /* \"#utility.yul\":624:629   */\n      0x00\n        /* \"#utility.yul\":662:668   */\n      dup2\n        /* \"#utility.yul\":649:669   */\n      calldataload\n        /* \"#utility.yul\":640:669   */\n      swap1\n      pop\n        /* \"#utility.yul\":678:719   */\n      tag_253\n        /* \"#utility.yul\":713:718   */\n      dup2\n        /* \"#utility.yul\":678:719   */\n      tag_254\n      jump\t// in\n    tag_253:\n        /* \"#utility.yul\":570:725   */\n      swap3\n      swap2\n      pop\n      pop\n      jump\t// out\n        /* \"#utility.yul\":731:868   */\n    tag_255:\n        /* \"#utility.yul\":785:790   */\n      0x00\n        /* \"#utility.yul\":816:822   */\n      dup2\n        /* \"#utility.yul\":810:823   */\n      mload\n        /* \"#utility.yul\":801:823   */\n      swap1\n      pop\n        /* \"#utility.yul\":832:862   */\n      tag_257\n        /* \"#utility.yul\":856:861   */\n      dup2\n        /* \"#utility.yul\":832:862   */\n      tag_258\n      jump\t// in\n    tag_257:\n        /* \"#utility.yul\":731:868   */\n      swap3\n      swap2\n      pop\n      pop\n      jump\t// out\n        /* \"#utility.yul\":874:1041   */\n    tag_259:\n        /* \"#utility.yul\":934:939   */\n      0x00\n        /* \"#utility.yul\":972:978   */\n      dup2\n        /* \"#utility.yul\":959:979   */\n      calldataload\n        /* \"#utility.yul\":950:979   */\n      swap1\n      pop\n        /* \"#utility.yul\":988:1035   */\n      tag_261\n        /* \"#utility.yul\":1029:1034   */\n      dup2\n        /* \"#utility.yul\":988:1035   */\n      tag_262\n      jump\t// in\n    tag_261:\n        /* \"#utility.yul\":874:1041   */\n      swap3\n      swap2\n      pop\n      pop\n      jump\t// out\n        /* \"#utility.yul\":1061:1401   */\n    tag_263:\n        /* \"#utility.yul\":1117:1122   */\n      0x00\n        /* \"#utility.yul\":1166:1169   */\n      dup3\n        /* \"#utility.yul\":1159:1163   */\n      0x1f\n        /* \"#utility.yul\":1151:1157   */\n      dup4\n        /* \"#utility.yul\":1147:1164   */\n      add\n        /* \"#utility.yul\":1143:1170   */\n      slt\n        /* \"#utility.yul\":1133:1255   */\n      tag_265\n      jumpi\n        /* \"#utility.yul\":1174:1253   */\n      tag_266\n      tag_267\n      jump\t// in\n    tag_266:\n        /* \"#utility.yul\":1133:1255   */\n    tag_265:\n        /* \"#utility.yul\":1291:1297   */\n      dup2\n        /* \"#utility.yul\":1278:1298   */\n      calldataload\n        /* \"#utility.yul\":1316:1395   */\n      tag_268\n        /* \"#utility.yul\":1391:1394   */\n      dup5\n        /* \"#utility.yul\":1383:1389   */\n      dup3\n        /* \"#utility.yul\":1376:1380   */\n      0x20\n        /* \"#utility.yul\":1368:1374   */\n      dup7\n        /* \"#utility.yul\":1364:1381   */\n      add\n        /* \"#utility.yul\":1316:1395   */\n      tag_236\n      jump\t// in\n    tag_268:\n        /* \"#utility.yul\":1307:1395   */\n      swap2\n      pop\n        /* \"#utility.yul\":1123:1401   */\n      pop\n        /* \"#utility.yul\":1061:1401   */\n      swap3\n      swap2\n      pop\n      pop\n      jump\t// out\n        /* \"#utility.yul\":1407:1546   */\n    tag_269:\n        /* \"#utility.yul\":1453:1458   */\n      0x00\n        /* \"#utility.yul\":1491:1497   */\n      dup2\n        /* \"#utility.yul\":1478:1498   */\n      calldataload\n        /* \"#utility.yul\":1469:1498   */\n      swap1\n      pop\n        /* \"#utility.yul\":1507:1540   */\n      tag_271\n        /* \"#utility.yul\":1534:1539   */\n      dup2\n        /* \"#utility.yul\":1507:1540   */\n      tag_272\n      jump\t// in\n    tag_271:\n        /* \"#utility.yul\":1407:1546   */\n      swap3\n      swap2\n      pop\n      pop\n      jump\t// out\n        /* \"#utility.yul\":1552:1695   */\n    tag_273:\n        /* \"#utility.yul\":1609:1614   */\n      0x00\n        /* \"#utility.yul\":1640:1646   */\n      dup2\n        /* \"#utility.yul\":1634:1647   */\n      mload\n        /* \"#utility.yul\":1625:1647   */\n      swap1\n      pop\n        /* \"#utility.yul\":1656:1689   */\n      tag_275\n        /* \"#utility.yul\":1683:1688   */\n      dup2\n        /* \"#utility.yul\":1656:1689   */\n      tag_272\n      jump\t// in\n    tag_275:\n        /* \"#utility.yul\":1552:1695   */\n      swap3\n      swap2\n      pop\n      pop\n      jump\t// out\n        /* \"#utility.yul\":1701:2030   */\n    tag_35:\n        /* \"#utility.yul\":1760:1766   */\n      0x00\n        /* \"#utility.yul\":1809:1811   */\n      0x20\n        /* \"#utility.yul\":1797:1806   */\n      dup3\n        /* \"#utility.yul\":1788:1795   */\n      dup5\n        /* \"#utility.yul\":1784:1807   */\n      sub\n        /* \"#utility.yul\":1780:1812   */\n      slt\n        /* \"#utility.yul\":1777:1896   */\n      iszero\n      tag_277\n      jumpi\n        /* \"#utility.yul\":1815:1894   */\n      tag_278\n      tag_279\n      jump\t// in\n    tag_278:\n        /* \"#utility.yul\":1777:1896   */\n    tag_277:\n        /* \"#utility.yul\":1935:1936   */\n      0x00\n        /* \"#utility.yul\":1960:2013   */\n      tag_280\n        /* \"#utility.yul\":2005:2012   */\n      dup5\n        /* \"#utility.yul\":1996:2002   */\n      dup3\n        /* \"#utility.yul\":1985:1994   */\n      dup6\n        /* \"#utility.yul\":1981:2003   */\n      add\n        /* \"#utility.yul\":1960:2013   */\n      tag_247\n      jump\t// in\n    tag_280:\n        /* \"#utility.yul\":1950:2013   */\n      swap2\n      pop\n        /* \"#utility.yul\":1906:2023   */\n      pop\n        /* \"#utility.yul\":1701:2030   */\n      swap3\n      swap2\n      pop\n      pop\n      jump\t// out\n        /* \"#utility.yul\":2036:2381   */\n    tag_52:\n        /* \"#utility.yul\":2103:2109   */\n      0x00\n        /* \"#utility.yul\":2152:2154   */\n      0x20\n        /* \"#utility.yul\":2140:2149   */\n      dup3\n        /* \"#utility.yul\":2131:2138   */\n      dup5\n        /* \"#utility.yul\":2127:2150   */\n      sub\n        /* \"#utility.yul\":2123:2155   */\n      slt\n        /* \"#utility.yul\":2120:2239   */\n      iszero\n      tag_282\n      jumpi\n        /* \"#utility.yul\":2158:2237   */\n      tag_283\n      tag_279\n      jump\t// in\n    tag_283:\n        /* \"#utility.yul\":2120:2239   */\n    tag_282:\n        /* \"#utility.yul\":2278:2279   */\n      0x00\n        /* \"#utility.yul\":2303:2364   */\n      tag_284\n        /* \"#utility.yul\":2356:2363   */\n      dup5\n        /* \"#utility.yul\":2347:2353   */\n      dup3\n        /* \"#utility.yul\":2336:2345   */\n      dup6\n        /* \"#utility.yul\":2332:2354   */\n      add\n        /* \"#utility.yul\":2303:2364   */\n      tag_251\n      jump\t// in\n    tag_284:\n        /* \"#utility.yul\":2293:2364   */\n      swap2\n      pop\n        /* \"#utility.yul\":2249:2374   */\n      pop\n        /* \"#utility.yul\":2036:2381   */\n      swap3\n      swap2\n      pop\n      pop\n      jump\t// out\n        /* \"#utility.yul\":2387:3041   */\n    tag_17:\n        /* \"#utility.yul\":2465:2471   */\n      0x00\n        /* \"#utility.yul\":2473:2479   */\n      dup1\n        /* \"#utility.yul\":2522:2524   */\n      0x40\n        /* \"#utility.yul\":2510:2519   */\n      dup4\n        /* \"#utility.yul\":2501:2508   */\n      dup6\n        /* \"#utility.yul\":2497:2520   */\n      sub\n        /* \"#utility.yul\":2493:2525   */\n      slt\n        /* \"#utility.yul\":2490:2609   */\n      iszero\n      tag_286\n      jumpi\n        /* \"#utility.yul\":2528:2607   */\n      tag_287\n      tag_279\n      jump\t// in\n    tag_287:\n        /* \"#utility.yul\":2490:2609   */\n    tag_286:\n        /* \"#utility.yul\":2648:2649   */\n      0x00\n        /* \"#utility.yul\":2673:2726   */\n      tag_288\n        /* \"#utility.yul\":2718:2725   */\n      dup6\n        /* \"#utility.yul\":2709:2715   */\n      dup3\n        /* \"#utility.yul\":2698:2707   */\n      dup7\n        /* \"#utility.yul\":2694:2716   */\n      add\n        /* \"#utility.yul\":2673:2726   */\n      tag_247\n      jump\t// in\n    tag_288:\n        /* \"#utility.yul\":2663:2726   */\n      swap3\n      pop\n        /* \"#utility.yul\":2619:2736   */\n      pop\n        /* \"#utility.yul\":2803:2805   */\n      0x20\n        /* \"#utility.yul\":2792:2801   */\n      dup4\n        /* \"#utility.yul\":2788:2806   */\n      add\n        /* \"#utility.yul\":2775:2807   */\n      calldataload\n        /* \"#utility.yul\":2834:2852   */\n      0xffffffffffffffff\n        /* \"#utility.yul\":2826:2832   */\n      dup2\n        /* \"#utility.yul\":2823:2853   */\n      gt\n        /* \"#utility.yul\":2820:2937   */\n      iszero\n      tag_289\n      jumpi\n        /* \"#utility.yul\":2856:2935   */\n      tag_290\n      tag_291\n      jump\t// in\n    tag_290:\n        /* \"#utility.yul\":2820:2937   */\n    tag_289:\n        /* \"#utility.yul\":2961:3024   */\n      tag_292\n        /* \"#utility.yul\":3016:3023   */\n      dup6\n        /* \"#utility.yul\":3007:3013   */\n      dup3\n        /* \"#utility.yul\":2996:3005   */\n      dup7\n        /* \"#utility.yul\":2992:3014   */\n      add\n        /* \"#utility.yul\":2961:3024   */\n      tag_263\n      jump\t// in\n    tag_292:\n        /* \"#utility.yul\":2951:3024   */\n      swap2\n      pop\n        /* \"#utility.yul\":2746:3034   */\n      pop\n        /* \"#utility.yul\":2387:3041   */\n      swap3\n      pop\n      swap3\n      swap1\n      pop\n      jump\t// out\n        /* \"#utility.yul\":3047:3392   */\n    tag_194:\n        /* \"#utility.yul\":3114:3120   */\n      0x00\n        /* \"#utility.yul\":3163:3165   */\n      0x20\n        /* \"#utility.yul\":3151:3160   */\n      dup3\n        /* \"#utility.yul\":3142:3149   */\n      dup5\n        /* \"#utility.yul\":3138:3161   */\n      sub\n        /* \"#utility.yul\":3134:3166   */\n      slt\n        /* \"#utility.yul\":3131:3250   */\n      iszero\n      tag_294\n      jumpi\n        /* \"#utility.yul\":3169:3248   */\n      tag_295\n      tag_279\n      jump\t// in\n    tag_295:\n        /* \"#utility.yul\":3131:3250   */\n    tag_294:\n        /* \"#utility.yul\":3289:3290   */\n      0x00\n        /* \"#utility.yul\":3314:3375   */\n      tag_296\n        /* \"#utility.yul\":3367:3374   */\n      dup5\n        /* \"#utility.yul\":3358:3364   */\n      dup3\n        /* \"#utility.yul\":3347:3356   */\n      dup6\n        /* \"#utility.yul\":3343:3365   */\n      add\n        /* \"#utility.yul\":3314:3375   */\n      tag_255\n      jump\t// in\n    tag_296:\n        /* \"#utility.yul\":3304:3375   */\n      swap2\n      pop\n        /* \"#utility.yul\":3260:3385   */\n      pop\n        /* \"#utility.yul\":3047:3392   */\n      swap3\n      swap2\n      pop\n      pop\n      jump\t// out\n        /* \"#utility.yul\":3398:3755   */\n    tag_23:\n        /* \"#utility.yul\":3471:3477   */\n      0x00\n        /* \"#utility.yul\":3520:3522   */\n      0x20\n        /* \"#utility.yul\":3508:3517   */\n      dup3\n        /* \"#utility.yul\":3499:3506   */\n      dup5\n        /* \"#utility.yul\":3495:3518   */\n      sub\n        /* \"#utility.yul\":3491:3523   */\n      slt\n        /* \"#utility.yul\":3488:3607   */\n      iszero\n      tag_298\n      jumpi\n        /* \"#utility.yul\":3526:3605   */\n      tag_299\n      tag_279\n      jump\t// in\n    tag_299:\n        /* \"#utility.yul\":3488:3607   */\n    tag_298:\n        /* \"#utility.yul\":3646:3647   */\n      0x00\n        /* \"#utility.yul\":3671:3738   */\n      tag_300\n        /* \"#utility.yul\":3730:3737   */\n      dup5\n        /* \"#utility.yul\":3721:3727   */\n      dup3\n        /* \"#utility.yul\":3710:3719   */\n      dup6\n        /* \"#utility.yul\":3706:3728   */\n      add\n        /* \"#utility.yul\":3671:3738   */\n      tag_259\n      jump\t// in\n    tag_300:\n        /* \"#utility.yul\":3661:3738   */\n      swap2\n      pop\n        /* \"#utility.yul\":3617:3748   */\n      pop\n        /* \"#utility.yul\":3398:3755   */\n      swap3\n      swap2\n      pop\n      pop\n      jump\t// out\n        /* \"#utility.yul\":3761:4706   */\n    tag_31:\n        /* \"#utility.yul\":3857:3863   */\n      0x00\n        /* \"#utility.yul\":3865:3871   */\n      dup1\n        /* \"#utility.yul\":3873:3879   */\n      0x00\n        /* \"#utility.yul\":3881:3887   */\n      dup1\n        /* \"#utility.yul\":3930:3933   */\n      0x80\n        /* \"#utility.yul\":3918:3927   */\n      dup6\n        /* \"#utility.yul\":3909:3916   */\n      dup8\n        /* \"#utility.yul\":3905:3928   */\n      sub\n        /* \"#utility.yul\":3901:3934   */\n      slt\n        /* \"#utility.yul\":3898:4018   */\n      iszero\n      tag_302\n      jumpi\n        /* \"#utility.yul\":3937:4016   */\n      tag_303\n      tag_279\n      jump\t// in\n    tag_303:\n        /* \"#utility.yul\":3898:4018   */\n    tag_302:\n        /* \"#utility.yul\":4085:4086   */\n      0x00\n        /* \"#utility.yul\":4074:4083   */\n      dup6\n        /* \"#utility.yul\":4070:4087   */\n      add\n        /* \"#utility.yul\":4057:4088   */\n      calldataload\n        /* \"#utility.yul\":4115:4133   */\n      0xffffffffffffffff\n        /* \"#utility.yul\":4107:4113   */\n      dup2\n        /* \"#utility.yul\":4104:4134   */\n      gt\n        /* \"#utility.yul\":4101:4218   */\n      iszero\n      tag_304\n      jumpi\n        /* \"#utility.yul\":4137:4216   */\n      tag_305\n      tag_291\n      jump\t// in\n    tag_305:\n        /* \"#utility.yul\":4101:4218   */\n    tag_304:\n        /* \"#utility.yul\":4242:4305   */\n      tag_306\n        /* \"#utility.yul\":4297:4304   */\n      dup8\n        /* \"#utility.yul\":4288:4294   */\n      dup3\n        /* \"#utility.yul\":4277:4286   */\n      dup9\n        /* \"#utility.yul\":4273:4295   */\n      add\n        /* \"#utility.yul\":4242:4305   */\n      tag_263\n      jump\t// in\n    tag_306:\n        /* \"#utility.yul\":4232:4305   */\n      swap5\n      pop\n        /* \"#utility.yul\":4028:4315   */\n      pop\n        /* \"#utility.yul\":4354:4356   */\n      0x20\n        /* \"#utility.yul\":4380:4433   */\n      tag_307\n        /* \"#utility.yul\":4425:4432   */\n      dup8\n        /* \"#utility.yul\":4416:4422   */\n      dup3\n        /* \"#utility.yul\":4405:4414   */\n      dup9\n        /* \"#utility.yul\":4401:4423   */\n      add\n        /* \"#utility.yul\":4380:4433   */\n      tag_269\n      jump\t// in\n    tag_307:\n        /* \"#utility.yul\":4370:4433   */\n      swap4\n      pop\n        /* \"#utility.yul\":4325:4443   */\n      pop\n        /* \"#utility.yul\":4482:4484   */\n      0x40\n        /* \"#utility.yul\":4508:4561   */\n      tag_308\n        /* \"#utility.yul\":4553:4560   */\n      dup8\n        /* \"#utility.yul\":4544:4550   */\n      dup3\n        /* \"#utility.yul\":4533:4542   */\n      dup9\n        /* \"#utility.yul\":4529:4551   */\n      add\n        /* \"#utility.yul\":4508:4561   */\n      tag_269\n      jump\t// in\n    tag_308:\n        /* \"#utility.yul\":4498:4561   */\n      swap3\n      pop\n        /* \"#utility.yul\":4453:4571   */\n      pop\n        /* \"#utility.yul\":4610:4612   */\n      0x60\n        /* \"#utility.yul\":4636:4689   */\n      tag_309\n        /* \"#utility.yul\":4681:4688   */\n      dup8\n        /* \"#utility.yul\":4672:4678   */\n      dup3\n        /* \"#utility.yul\":4661:4670   */\n      dup9\n        /* \"#utility.yul\":4657:4679   */\n      add\n        /* \"#utility.yul\":4636:4689   */\n      tag_269\n      jump\t// in\n    tag_309:\n        /* \"#utility.yul\":4626:4689   */\n      swap2\n      pop\n        /* \"#utility.yul\":4581:4699   */\n      pop\n        /* \"#utility.yul\":3761:4706   */\n      swap3\n      swap6\n      swap2\n      swap5\n      pop\n      swap3\n      pop\n      jump\t// out\n        /* \"#utility.yul\":4712:5041   */\n    tag_47:\n        /* \"#utility.yul\":4771:4777   */\n      0x00\n        /* \"#utility.yul\":4820:4822   */\n      0x20\n        /* \"#utility.yul\":4808:4817   */\n      dup3\n        /* \"#utility.yul\":4799:4806   */\n      dup5\n        /* \"#utility.yul\":4795:4818   */\n      sub\n        /* \"#utility.yul\":4791:4823   */\n      slt\n        /* \"#utility.yul\":4788:4907   */\n      iszero\n      tag_311\n      jumpi\n        /* \"#utility.yul\":4826:4905   */\n      tag_312\n      tag_279\n      jump\t// in\n    tag_312:\n        /* \"#utility.yul\":4788:4907   */\n    tag_311:\n        /* \"#utility.yul\":4946:4947   */\n      0x00\n        /* \"#utility.yul\":4971:5024   */\n      tag_313\n        /* \"#utility.yul\":5016:5023   */\n      dup5\n        /* \"#utility.yul\":5007:5013   */\n      dup3\n        /* \"#utility.yul\":4996:5005   */\n      dup6\n        /* \"#utility.yul\":4992:5014   */\n      add\n        /* \"#utility.yul\":4971:5024   */\n      tag_269\n      jump\t// in\n    tag_313:\n        /* \"#utility.yul\":4961:5024   */\n      swap2\n      pop\n        /* \"#utility.yul\":4917:5034   */\n      pop\n        /* \"#utility.yul\":4712:5041   */\n      swap3\n      swap2\n      pop\n      pop\n      jump\t// out\n        /* \"#utility.yul\":5047:5398   */\n    tag_103:\n        /* \"#utility.yul\":5117:5123   */\n      0x00\n        /* \"#utility.yul\":5166:5168   */\n      0x20\n        /* \"#utility.yul\":5154:5163   */\n      dup3\n        /* \"#utility.yul\":5145:5152   */\n      dup5\n        /* \"#utility.yul\":5141:5164   */\n      sub\n        /* \"#utility.yul\":5137:5169   */\n      slt\n        /* \"#utility.yul\":5134:5253   */\n      iszero\n      tag_315\n      jumpi\n        /* \"#utility.yul\":5172:5251   */\n      tag_316\n      tag_279\n      jump\t// in\n    tag_316:\n        /* \"#utility.yul\":5134:5253   */\n    tag_315:\n        /* \"#utility.yul\":5292:5293   */\n      0x00\n        /* \"#utility.yul\":5317:5381   */\n      tag_317\n        /* \"#utility.yul\":5373:5380   */\n      dup5\n        /* \"#utility.yul\":5364:5370   */\n      dup3\n        /* \"#utility.yul\":5353:5362   */\n      dup6\n        /* \"#utility.yul\":5349:5371   */\n      add\n        /* \"#utility.yul\":5317:5381   */\n      tag_273\n      jump\t// in\n    tag_317:\n        /* \"#utility.yul\":5307:5381   */\n      swap2\n      pop\n        /* \"#utility.yul\":5263:5391   */\n      pop\n        /* \"#utility.yul\":5047:5398   */\n      swap3\n      swap2\n      pop\n      pop\n      jump\t// out\n        /* \"#utility.yul\":5404:5546   */\n    tag_318:\n        /* \"#utility.yul\":5507:5539   */\n      tag_320\n        /* \"#utility.yul\":5533:5538   */\n      dup2\n        /* \"#utility.yul\":5507:5539   */\n      tag_321\n      jump\t// in\n    tag_320:\n        /* \"#utility.yul\":5502:5505   */\n      dup3\n        /* \"#utility.yul\":5495:5540   */\n      mstore\n        /* \"#utility.yul\":5404:5546   */\n      pop\n      pop\n      jump\t// out\n        /* \"#utility.yul\":5552:5660   */\n    tag_322:\n        /* \"#utility.yul\":5629:5653   */\n      tag_324\n        /* \"#utility.yul\":5647:5652   */\n      dup2\n        /* \"#utility.yul\":5629:5653   */\n      tag_325\n      jump\t// in\n    tag_324:\n        /* \"#utility.yul\":5624:5627   */\n      dup3\n        /* \"#utility.yul\":5617:5654   */\n      mstore\n        /* \"#utility.yul\":5552:5660   */\n      pop\n      pop\n      jump\t// out\n        /* \"#utility.yul\":5666:5784   */\n    tag_326:\n        /* \"#utility.yul\":5753:5777   */\n      tag_328\n        /* \"#utility.yul\":5771:5776   */\n      dup2\n        /* \"#utility.yul\":5753:5777   */\n      tag_325\n      jump\t// in\n    tag_328:\n        /* \"#utility.yul\":5748:5751   */\n      dup3\n        /* \"#utility.yul\":5741:5778   */\n      mstore\n        /* \"#utility.yul\":5666:5784   */\n      pop\n      pop\n      jump\t// out\n        /* \"#utility.yul\":5790:6163   */\n    tag_329:\n        /* \"#utility.yul\":5894:5897   */\n      0x00\n        /* \"#utility.yul\":5922:5960   */\n      tag_331\n        /* \"#utility.yul\":5954:5959   */\n      dup3\n        /* \"#utility.yul\":5922:5960   */\n      tag_332\n      jump\t// in\n    tag_331:\n        /* \"#utility.yul\":5976:6064   */\n      tag_333\n        /* \"#utility.yul\":6057:6063   */\n      dup2\n        /* \"#utility.yul\":6052:6055   */\n      dup6\n        /* \"#utility.yul\":5976:6064   */\n      tag_334\n      jump\t// in\n    tag_333:\n        /* \"#utility.yul\":5969:6064   */\n      swap4\n      pop\n        /* \"#utility.yul\":6073:6125   */\n      tag_335\n        /* \"#utility.yul\":6118:6124   */\n      dup2\n        /* \"#utility.yul\":6113:6116   */\n      dup6\n        /* \"#utility.yul\":6106:6110   */\n      0x20\n        /* \"#utility.yul\":6099:6104   */\n      dup7\n        /* \"#utility.yul\":6095:6111   */\n      add\n        /* \"#utility.yul\":6073:6125   */\n      tag_336\n      jump\t// in\n    tag_335:\n        /* \"#utility.yul\":6150:6156   */\n      dup1\n        /* \"#utility.yul\":6145:6148   */\n      dup5\n        /* \"#utility.yul\":6141:6157   */\n      add\n        /* \"#utility.yul\":6134:6157   */\n      swap2\n      pop\n        /* \"#utility.yul\":5898:6163   */\n      pop\n        /* \"#utility.yul\":5790:6163   */\n      swap3\n      swap2\n      pop\n      pop\n      jump\t// out\n        /* \"#utility.yul\":6169:6513   */\n    tag_337:\n        /* \"#utility.yul\":6247:6250   */\n      0x00\n        /* \"#utility.yul\":6275:6314   */\n      tag_339\n        /* \"#utility.yul\":6308:6313   */\n      dup3\n        /* \"#utility.yul\":6275:6314   */\n      tag_340\n      jump\t// in\n    tag_339:\n        /* \"#utility.yul\":6330:6391   */\n      tag_341\n        /* \"#utility.yul\":6384:6390   */\n      dup2\n        /* \"#utility.yul\":6379:6382   */\n      dup6\n        /* \"#utility.yul\":6330:6391   */\n      tag_342\n      jump\t// in\n    tag_341:\n        /* \"#utility.yul\":6323:6391   */\n      swap4\n      pop\n        /* \"#utility.yul\":6400:6452   */\n      tag_343\n        /* \"#utility.yul\":6445:6451   */\n      dup2\n        /* \"#utility.yul\":6440:6443   */\n      dup6\n        /* \"#utility.yul\":6433:6437   */\n      0x20\n        /* \"#utility.yul\":6426:6431   */\n      dup7\n        /* \"#utility.yul\":6422:6438   */\n      add\n        /* \"#utility.yul\":6400:6452   */\n      tag_336\n      jump\t// in\n    tag_343:\n        /* \"#utility.yul\":6477:6506   */\n      tag_344\n        /* \"#utility.yul\":6499:6505   */\n      dup2\n        /* \"#utility.yul\":6477:6506   */\n      tag_345\n      jump\t// in\n    tag_344:\n        /* \"#utility.yul\":6472:6475   */\n      dup5\n        /* \"#utility.yul\":6468:6507   */\n      add\n        /* \"#utility.yul\":6461:6507   */\n      swap2\n      pop\n        /* \"#utility.yul\":6251:6513   */\n      pop\n        /* \"#utility.yul\":6169:6513   */\n      swap3\n      swap2\n      pop\n      pop\n      jump\t// out\n        /* \"#utility.yul\":6519:6883   */\n    tag_346:\n        /* \"#utility.yul\":6607:6610   */\n      0x00\n        /* \"#utility.yul\":6635:6674   */\n      tag_348\n        /* \"#utility.yul\":6668:6673   */\n      dup3\n        /* \"#utility.yul\":6635:6674   */\n      tag_340\n      jump\t// in\n    tag_348:\n        /* \"#utility.yul\":6690:6761   */\n      tag_349\n        /* \"#utility.yul\":6754:6760   */\n      dup2\n        /* \"#utility.yul\":6749:6752   */\n      dup6\n        /* \"#utility.yul\":6690:6761   */\n      tag_350\n      jump\t// in\n    tag_349:\n        /* \"#utility.yul\":6683:6761   */\n      swap4\n      pop\n        /* \"#utility.yul\":6770:6822   */\n      tag_351\n        /* \"#utility.yul\":6815:6821   */\n      dup2\n        /* \"#utility.yul\":6810:6813   */\n      dup6\n        /* \"#utility.yul\":6803:6807   */\n      0x20\n        /* \"#utility.yul\":6796:6801   */\n      dup7\n        /* \"#utility.yul\":6792:6808   */\n      add\n        /* \"#utility.yul\":6770:6822   */\n      tag_336\n      jump\t// in\n    tag_351:\n        /* \"#utility.yul\":6847:6876   */\n      tag_352\n        /* \"#utility.yul\":6869:6875   */\n      dup2\n        /* \"#utility.yul\":6847:6876   */\n      tag_345\n      jump\t// in\n    tag_352:\n        /* \"#utility.yul\":6842:6845   */\n      dup5\n        /* \"#utility.yul\":6838:6877   */\n      add\n        /* \"#utility.yul\":6831:6877   */\n      swap2\n      pop\n        /* \"#utility.yul\":6611:6883   */\n      pop\n        /* \"#utility.yul\":6519:6883   */\n      swap3\n      swap2\n      pop\n      pop\n      jump\t// out\n        /* \"#utility.yul\":6889:7266   */\n    tag_353:\n        /* \"#utility.yul\":6995:6998   */\n      0x00\n        /* \"#utility.yul\":7023:7062   */\n      tag_355\n        /* \"#utility.yul\":7056:7061   */\n      dup3\n        /* \"#utility.yul\":7023:7062   */\n      tag_340\n      jump\t// in\n    tag_355:\n        /* \"#utility.yul\":7078:7167   */\n      tag_356\n        /* \"#utility.yul\":7160:7166   */\n      dup2\n        /* \"#utility.yul\":7155:7158   */\n      dup6\n        /* \"#utility.yul\":7078:7167   */\n      tag_357\n      jump\t// in\n    tag_356:\n        /* \"#utility.yul\":7071:7167   */\n      swap4\n      pop\n        /* \"#utility.yul\":7176:7228   */\n      tag_358\n        /* \"#utility.yul\":7221:7227   */\n      dup2\n        /* \"#utility.yul\":7216:7219   */\n      dup6\n        /* \"#utility.yul\":7209:7213   */\n      0x20\n        /* \"#utility.yul\":7202:7207   */\n      dup7\n        /* \"#utility.yul\":7198:7214   */\n      add\n        /* \"#utility.yul\":7176:7228   */\n      tag_336\n      jump\t// in\n    tag_358:\n        /* \"#utility.yul\":7253:7259   */\n      dup1\n        /* \"#utility.yul\":7248:7251   */\n      dup5\n        /* \"#utility.yul\":7244:7260   */\n      add\n        /* \"#utility.yul\":7237:7260   */\n      swap2\n      pop\n        /* \"#utility.yul\":6999:7266   */\n      pop\n        /* \"#utility.yul\":6889:7266   */\n      swap3\n      swap2\n      pop\n      pop\n      jump\t// out\n        /* \"#utility.yul\":7296:8141   */\n    tag_359:\n        /* \"#utility.yul\":7399:7402   */\n      0x00\n        /* \"#utility.yul\":7436:7441   */\n      dup2\n        /* \"#utility.yul\":7430:7442   */\n      sload\n        /* \"#utility.yul\":7465:7501   */\n      tag_361\n        /* \"#utility.yul\":7491:7500   */\n      dup2\n        /* \"#utility.yul\":7465:7501   */\n      tag_67\n      jump\t// in\n    tag_361:\n        /* \"#utility.yul\":7517:7606   */\n      tag_362\n        /* \"#utility.yul\":7599:7605   */\n      dup2\n        /* \"#utility.yul\":7594:7597   */\n      dup7\n        /* \"#utility.yul\":7517:7606   */\n      tag_357\n      jump\t// in\n    tag_362:\n        /* \"#utility.yul\":7510:7606   */\n      swap5\n      pop\n        /* \"#utility.yul\":7637:7638   */\n      0x01\n        /* \"#utility.yul\":7626:7635   */\n      dup3\n        /* \"#utility.yul\":7622:7639   */\n      and\n        /* \"#utility.yul\":7653:7654   */\n      0x00\n        /* \"#utility.yul\":7648:7785   */\n      dup2\n      eq\n      tag_364\n      jumpi\n        /* \"#utility.yul\":7799:7800   */\n      0x01\n        /* \"#utility.yul\":7794:8135   */\n      dup2\n      eq\n      tag_365\n      jumpi\n        /* \"#utility.yul\":7615:8135   */\n      jump(tag_363)\n        /* \"#utility.yul\":7648:7785   */\n    tag_364:\n        /* \"#utility.yul\":7732:7736   */\n      0xff\n        /* \"#utility.yul\":7728:7737   */\n      not\n        /* \"#utility.yul\":7717:7726   */\n      dup4\n        /* \"#utility.yul\":7713:7738   */\n      and\n        /* \"#utility.yul\":7708:7711   */\n      dup7\n        /* \"#utility.yul\":7701:7739   */\n      mstore\n        /* \"#utility.yul\":7768:7774   */\n      dup2\n        /* \"#utility.yul\":7763:7766   */\n      dup7\n        /* \"#utility.yul\":7759:7775   */\n      add\n        /* \"#utility.yul\":7752:7775   */\n      swap4\n      pop\n        /* \"#utility.yul\":7648:7785   */\n      jump(tag_363)\n        /* \"#utility.yul\":7794:8135   */\n    tag_365:\n        /* \"#utility.yul\":7861:7899   */\n      tag_366\n        /* \"#utility.yul\":7893:7898   */\n      dup6\n        /* \"#utility.yul\":7861:7899   */\n      tag_367\n      jump\t// in\n    tag_366:\n        /* \"#utility.yul\":7921:7922   */\n      0x00\n        /* \"#utility.yul\":7935:8089   */\n    tag_368:\n        /* \"#utility.yul\":7949:7955   */\n      dup4\n        /* \"#utility.yul\":7946:7947   */\n      dup2\n        /* \"#utility.yul\":7943:7956   */\n      lt\n        /* \"#utility.yul\":7935:8089   */\n      iszero\n      tag_370\n      jumpi\n        /* \"#utility.yul\":8023:8030   */\n      dup2\n        /* \"#utility.yul\":8017:8031   */\n      sload\n        /* \"#utility.yul\":8013:8014   */\n      dup2\n        /* \"#utility.yul\":8008:8011   */\n      dup10\n        /* \"#utility.yul\":8004:8015   */\n      add\n        /* \"#utility.yul\":7997:8032   */\n      mstore\n        /* \"#utility.yul\":8073:8074   */\n      0x01\n        /* \"#utility.yul\":8064:8071   */\n      dup3\n        /* \"#utility.yul\":8060:8075   */\n      add\n        /* \"#utility.yul\":8049:8075   */\n      swap2\n      pop\n        /* \"#utility.yul\":7971:7975   */\n      0x20\n        /* \"#utility.yul\":7968:7969   */\n      dup2\n        /* \"#utility.yul\":7964:7976   */\n      add\n        /* \"#utility.yul\":7959:7976   */\n      swap1\n      pop\n        /* \"#utility.yul\":7935:8089   */\n      jump(tag_368)\n    tag_370:\n        /* \"#utility.yul\":8118:8124   */\n      dup4\n        /* \"#utility.yul\":8113:8116   */\n      dup9\n        /* \"#utility.yul\":8109:8125   */\n      add\n        /* \"#utility.yul\":8102:8125   */\n      swap6\n      pop\n        /* \"#utility.yul\":7801:8135   */\n      pop\n      pop\n        /* \"#utility.yul\":7615:8135   */\n    tag_363:\n      pop\n        /* \"#utility.yul\":7403:8141   */\n      pop\n      pop\n        /* \"#utility.yul\":7296:8141   */\n      swap3\n      swap2\n      pop\n      pop\n      jump\t// out\n        /* \"#utility.yul\":8147:8513   */\n    tag_371:\n        /* \"#utility.yul\":8289:8292   */\n      0x00\n        /* \"#utility.yul\":8310:8377   */\n      tag_373\n        /* \"#utility.yul\":8374:8376   */\n      0x26\n        /* \"#utility.yul\":8369:8372   */\n      dup4\n        /* \"#utility.yul\":8310:8377   */\n      tag_350\n      jump\t// in\n    tag_373:\n        /* \"#utility.yul\":8303:8377   */\n      swap2\n      pop\n        /* \"#utility.yul\":8386:8479   */\n      tag_374\n        /* \"#utility.yul\":8475:8478   */\n      dup3\n        /* \"#utility.yul\":8386:8479   */\n      tag_375\n      jump\t// in\n    tag_374:\n        /* \"#utility.yul\":8504:8506   */\n      0x40\n        /* \"#utility.yul\":8499:8502   */\n      dup3\n        /* \"#utility.yul\":8495:8507   */\n      add\n        /* \"#utility.yul\":8488:8507   */\n      swap1\n      pop\n        /* \"#utility.yul\":8147:8513   */\n      swap2\n      swap1\n      pop\n      jump\t// out\n        /* \"#utility.yul\":8519:8885   */\n    tag_376:\n        /* \"#utility.yul\":8661:8664   */\n      0x00\n        /* \"#utility.yul\":8682:8749   */\n      tag_378\n        /* \"#utility.yul\":8746:8748   */\n      0x20\n        /* \"#utility.yul\":8741:8744   */\n      dup4\n        /* \"#utility.yul\":8682:8749   */\n      tag_350\n      jump\t// in\n    tag_378:\n        /* \"#utility.yul\":8675:8749   */\n      swap2\n      pop\n        /* \"#utility.yul\":8758:8851   */\n      tag_379\n        /* \"#utility.yul\":8847:8850   */\n      dup3\n        /* \"#utility.yul\":8758:8851   */\n      tag_380\n      jump\t// in\n    tag_379:\n        /* \"#utility.yul\":8876:8878   */\n      0x20\n        /* \"#utility.yul\":8871:8874   */\n      dup3\n        /* \"#utility.yul\":8867:8879   */\n      add\n        /* \"#utility.yul\":8860:8879   */\n      swap1\n      pop\n        /* \"#utility.yul\":8519:8885   */\n      swap2\n      swap1\n      pop\n      jump\t// out\n        /* \"#utility.yul\":8891:9257   */\n    tag_381:\n        /* \"#utility.yul\":9033:9036   */\n      0x00\n        /* \"#utility.yul\":9054:9121   */\n      tag_383\n        /* \"#utility.yul\":9118:9120   */\n      0x24\n        /* \"#utility.yul\":9113:9116   */\n      dup4\n        /* \"#utility.yul\":9054:9121   */\n      tag_350\n      jump\t// in\n    tag_383:\n        /* \"#utility.yul\":9047:9121   */\n      swap2\n      pop\n        /* \"#utility.yul\":9130:9223   */\n      tag_384\n        /* \"#utility.yul\":9219:9222   */\n      dup3\n        /* \"#utility.yul\":9130:9223   */\n      tag_385\n      jump\t// in\n    tag_384:\n        /* \"#utility.yul\":9248:9250   */\n      0x40\n        /* \"#utility.yul\":9243:9246   */\n      dup3\n        /* \"#utility.yul\":9239:9251   */\n      add\n        /* \"#utility.yul\":9232:9251   */\n      swap1\n      pop\n        /* \"#utility.yul\":8891:9257   */\n      swap2\n      swap1\n      pop\n      jump\t// out\n        /* \"#utility.yul\":9263:9629   */\n    tag_386:\n        /* \"#utility.yul\":9405:9408   */\n      0x00\n        /* \"#utility.yul\":9426:9493   */\n      tag_388\n        /* \"#utility.yul\":9490:9492   */\n      0x26\n        /* \"#utility.yul\":9485:9488   */\n      dup4\n        /* \"#utility.yul\":9426:9493   */\n      tag_350\n      jump\t// in\n    tag_388:\n        /* \"#utility.yul\":9419:9493   */\n      swap2\n      pop\n        /* \"#utility.yul\":9502:9595   */\n      tag_389\n        /* \"#utility.yul\":9591:9594   */\n      dup3\n        /* \"#utility.yul\":9502:9595   */\n      tag_390\n      jump\t// in\n    tag_389:\n        /* \"#utility.yul\":9620:9622   */\n      0x40\n        /* \"#utility.yul\":9615:9618   */\n      dup3\n        /* \"#utility.yul\":9611:9623   */\n      add\n        /* \"#utility.yul\":9604:9623   */\n      swap1\n      pop\n        /* \"#utility.yul\":9263:9629   */\n      swap2\n      swap1\n      pop\n      jump\t// out\n        /* \"#utility.yul\":9635:10001   */\n    tag_391:\n        /* \"#utility.yul\":9777:9780   */\n      0x00\n        /* \"#utility.yul\":9798:9865   */\n      tag_393\n        /* \"#utility.yul\":9862:9864   */\n      0x20\n        /* \"#utility.yul\":9857:9860   */\n      dup4\n        /* \"#utility.yul\":9798:9865   */\n      tag_350\n      jump\t// in\n    tag_393:\n        /* \"#utility.yul\":9791:9865   */\n      swap2\n      pop\n        /* \"#utility.yul\":9874:9967   */\n      tag_394\n        /* \"#utility.yul\":9963:9966   */\n      dup3\n        /* \"#utility.yul\":9874:9967   */\n      tag_395\n      jump\t// in\n    tag_394:\n        /* \"#utility.yul\":9992:9994   */\n      0x20\n        /* \"#utility.yul\":9987:9990   */\n      dup3\n        /* \"#utility.yul\":9983:9995   */\n      add\n        /* \"#utility.yul\":9976:9995   */\n      swap1\n      pop\n        /* \"#utility.yul\":9635:10001   */\n      swap2\n      swap1\n      pop\n      jump\t// out\n        /* \"#utility.yul\":10007:10373   */\n    tag_396:\n        /* \"#utility.yul\":10149:10152   */\n      0x00\n        /* \"#utility.yul\":10170:10237   */\n      tag_398\n        /* \"#utility.yul\":10234:10236   */\n      0x2c\n        /* \"#utility.yul\":10229:10232   */\n      dup4\n        /* \"#utility.yul\":10170:10237   */\n      tag_350\n      jump\t// in\n    tag_398:\n        /* \"#utility.yul\":10163:10237   */\n      swap2\n      pop\n        /* \"#utility.yul\":10246:10339   */\n      tag_399\n        /* \"#utility.yul\":10335:10338   */\n      dup3\n        /* \"#utility.yul\":10246:10339   */\n      tag_400\n      jump\t// in\n    tag_399:\n        /* \"#utility.yul\":10364:10366   */\n      0x40\n        /* \"#utility.yul\":10359:10362   */\n      dup3\n        /* \"#utility.yul\":10355:10367   */\n      add\n        /* \"#utility.yul\":10348:10367   */\n      swap1\n      pop\n        /* \"#utility.yul\":10007:10373   */\n      swap2\n      swap1\n      pop\n      jump\t// out\n        /* \"#utility.yul\":10379:10745   */\n    tag_401:\n        /* \"#utility.yul\":10521:10524   */\n      0x00\n        /* \"#utility.yul\":10542:10609   */\n      tag_403\n        /* \"#utility.yul\":10606:10608   */\n      0x1d\n        /* \"#utility.yul\":10601:10604   */\n      dup4\n        /* \"#utility.yul\":10542:10609   */\n      tag_350\n      jump\t// in\n    tag_403:\n        /* \"#utility.yul\":10535:10609   */\n      swap2\n      pop\n        /* \"#utility.yul\":10618:10711   */\n      tag_404\n        /* \"#utility.yul\":10707:10710   */\n      dup3\n        /* \"#utility.yul\":10618:10711   */\n      tag_405\n      jump\t// in\n    tag_404:\n        /* \"#utility.yul\":10736:10738   */\n      0x20\n        /* \"#utility.yul\":10731:10734   */\n      dup3\n        /* \"#utility.yul\":10727:10739   */\n      add\n        /* \"#utility.yul\":10720:10739   */\n      swap1\n      pop\n        /* \"#utility.yul\":10379:10745   */\n      swap2\n      swap1\n      pop\n      jump\t// out\n        /* \"#utility.yul\":10751:11117   */\n    tag_406:\n        /* \"#utility.yul\":10893:10896   */\n      0x00\n        /* \"#utility.yul\":10914:10981   */\n      tag_408\n        /* \"#utility.yul\":10978:10980   */\n      0x2a\n        /* \"#utility.yul\":10973:10976   */\n      dup4\n        /* \"#utility.yul\":10914:10981   */\n      tag_350\n      jump\t// in\n    tag_408:\n        /* \"#utility.yul\":10907:10981   */\n      swap2\n      pop\n        /* \"#utility.yul\":10990:11083   */\n      tag_409\n        /* \"#utility.yul\":11079:11082   */\n      dup3\n        /* \"#utility.yul\":10990:11083   */\n      tag_410\n      jump\t// in\n    tag_409:\n        /* \"#utility.yul\":11108:11110   */\n      0x40\n        /* \"#utility.yul\":11103:11106   */\n      dup3\n        /* \"#utility.yul\":11099:11111   */\n      add\n        /* \"#utility.yul\":11092:11111   */\n      swap1\n      pop\n        /* \"#utility.yul\":10751:11117   */\n      swap2\n      swap1\n      pop\n      jump\t// out\n        /* \"#utility.yul\":11123:11489   */\n    tag_411:\n        /* \"#utility.yul\":11265:11268   */\n      0x00\n        /* \"#utility.yul\":11286:11353   */\n      tag_413\n        /* \"#utility.yul\":11350:11352   */\n      0x32\n        /* \"#utility.yul\":11345:11348   */\n      dup4\n        /* \"#utility.yul\":11286:11353   */\n      tag_350\n      jump\t// in\n    tag_413:\n        /* \"#utility.yul\":11279:11353   */\n      swap2\n      pop\n        /* \"#utility.yul\":11362:11455   */\n      tag_414\n        /* \"#utility.yul\":11451:11454   */\n      dup3\n        /* \"#utility.yul\":11362:11455   */\n      tag_415\n      jump\t// in\n    tag_414:\n        /* \"#utility.yul\":11480:11482   */\n      0x40\n        /* \"#utility.yul\":11475:11478   */\n      dup3\n        /* \"#utility.yul\":11471:11483   */\n      add\n        /* \"#utility.yul\":11464:11483   */\n      swap1\n      pop\n        /* \"#utility.yul\":11123:11489   */\n      swap2\n      swap1\n      pop\n      jump\t// out\n        /* \"#utility.yul\":11559:13143   */\n    tag_416:\n        /* \"#utility.yul\":11682:11685   */\n      0x00\n        /* \"#utility.yul\":11718:11722   */\n      0xe0\n        /* \"#utility.yul\":11713:11716   */\n      dup4\n        /* \"#utility.yul\":11709:11723   */\n      add\n        /* \"#utility.yul\":11808:11812   */\n      0x00\n        /* \"#utility.yul\":11801:11806   */\n      dup4\n        /* \"#utility.yul\":11797:11813   */\n      add\n        /* \"#utility.yul\":11791:11814   */\n      mload\n        /* \"#utility.yul\":11861:11864   */\n      dup5\n        /* \"#utility.yul\":11855:11859   */\n      dup3\n        /* \"#utility.yul\":11851:11865   */\n      sub\n        /* \"#utility.yul\":11844:11848   */\n      0x00\n        /* \"#utility.yul\":11839:11842   */\n      dup7\n        /* \"#utility.yul\":11835:11849   */\n      add\n        /* \"#utility.yul\":11828:11866   */\n      mstore\n        /* \"#utility.yul\":11887:11960   */\n      tag_418\n        /* \"#utility.yul\":11955:11959   */\n      dup3\n        /* \"#utility.yul\":11941:11953   */\n      dup3\n        /* \"#utility.yul\":11887:11960   */\n      tag_337\n      jump\t// in\n    tag_418:\n        /* \"#utility.yul\":11879:11960   */\n      swap2\n      pop\n        /* \"#utility.yul\":11733:11971   */\n      pop\n        /* \"#utility.yul\":12058:12062   */\n      0x20\n        /* \"#utility.yul\":12051:12056   */\n      dup4\n        /* \"#utility.yul\":12047:12063   */\n      add\n        /* \"#utility.yul\":12041:12064   */\n      mload\n        /* \"#utility.yul\":12111:12114   */\n      dup5\n        /* \"#utility.yul\":12105:12109   */\n      dup3\n        /* \"#utility.yul\":12101:12115   */\n      sub\n        /* \"#utility.yul\":12094:12098   */\n      0x20\n        /* \"#utility.yul\":12089:12092   */\n      dup7\n        /* \"#utility.yul\":12085:12099   */\n      add\n        /* \"#utility.yul\":12078:12116   */\n      mstore\n        /* \"#utility.yul\":12137:12210   */\n      tag_419\n        /* \"#utility.yul\":12205:12209   */\n      dup3\n        /* \"#utility.yul\":12191:12203   */\n      dup3\n        /* \"#utility.yul\":12137:12210   */\n      tag_337\n      jump\t// in\n    tag_419:\n        /* \"#utility.yul\":12129:12210   */\n      swap2\n      pop\n        /* \"#utility.yul\":11981:12221   */\n      pop\n        /* \"#utility.yul\":12311:12315   */\n      0x40\n        /* \"#utility.yul\":12304:12309   */\n      dup4\n        /* \"#utility.yul\":12300:12316   */\n      add\n        /* \"#utility.yul\":12294:12317   */\n      mload\n        /* \"#utility.yul\":12330:12393   */\n      tag_420\n        /* \"#utility.yul\":12387:12391   */\n      0x40\n        /* \"#utility.yul\":12382:12385   */\n      dup7\n        /* \"#utility.yul\":12378:12392   */\n      add\n        /* \"#utility.yul\":12364:12376   */\n      dup3\n        /* \"#utility.yul\":12330:12393   */\n      tag_322\n      jump\t// in\n    tag_420:\n        /* \"#utility.yul\":12231:12403   */\n      pop\n        /* \"#utility.yul\":12491:12495   */\n      0x60\n        /* \"#utility.yul\":12484:12489   */\n      dup4\n        /* \"#utility.yul\":12480:12496   */\n      add\n        /* \"#utility.yul\":12474:12497   */\n      mload\n        /* \"#utility.yul\":12510:12573   */\n      tag_421\n        /* \"#utility.yul\":12567:12571   */\n      0x60\n        /* \"#utility.yul\":12562:12565   */\n      dup7\n        /* \"#utility.yul\":12558:12572   */\n      add\n        /* \"#utility.yul\":12544:12556   */\n      dup3\n        /* \"#utility.yul\":12510:12573   */\n      tag_422\n      jump\t// in\n    tag_421:\n        /* \"#utility.yul\":12413:12583   */\n      pop\n        /* \"#utility.yul\":12671:12675   */\n      0x80\n        /* \"#utility.yul\":12664:12669   */\n      dup4\n        /* \"#utility.yul\":12660:12676   */\n      add\n        /* \"#utility.yul\":12654:12677   */\n      mload\n        /* \"#utility.yul\":12690:12753   */\n      tag_423\n        /* \"#utility.yul\":12747:12751   */\n      0x80\n        /* \"#utility.yul\":12742:12745   */\n      dup7\n        /* \"#utility.yul\":12738:12752   */\n      add\n        /* \"#utility.yul\":12724:12736   */\n      dup3\n        /* \"#utility.yul\":12690:12753   */\n      tag_422\n      jump\t// in\n    tag_423:\n        /* \"#utility.yul\":12593:12763   */\n      pop\n        /* \"#utility.yul\":12849:12853   */\n      0xa0\n        /* \"#utility.yul\":12842:12847   */\n      dup4\n        /* \"#utility.yul\":12838:12854   */\n      add\n        /* \"#utility.yul\":12832:12855   */\n      mload\n        /* \"#utility.yul\":12868:12931   */\n      tag_424\n        /* \"#utility.yul\":12925:12929   */\n      0xa0\n        /* \"#utility.yul\":12920:12923   */\n      dup7\n        /* \"#utility.yul\":12916:12930   */\n      add\n        /* \"#utility.yul\":12902:12914   */\n      dup3\n        /* \"#utility.yul\":12868:12931   */\n      tag_422\n      jump\t// in\n    tag_424:\n        /* \"#utility.yul\":12773:12941   */\n      pop\n        /* \"#utility.yul\":13024:13028   */\n      0xc0\n        /* \"#utility.yul\":13017:13022   */\n      dup4\n        /* \"#utility.yul\":13013:13029   */\n      add\n        /* \"#utility.yul\":13007:13030   */\n      mload\n        /* \"#utility.yul\":13043:13106   */\n      tag_425\n        /* \"#utility.yul\":13100:13104   */\n      0xc0\n        /* \"#utility.yul\":13095:13098   */\n      dup7\n        /* \"#utility.yul\":13091:13105   */\n      add\n        /* \"#utility.yul\":13077:13089   */\n      dup3\n        /* \"#utility.yul\":13043:13106   */\n      tag_322\n      jump\t// in\n    tag_425:\n        /* \"#utility.yul\":12951:13116   */\n      pop\n        /* \"#utility.yul\":13133:13137   */\n      dup1\n        /* \"#utility.yul\":13126:13137   */\n      swap2\n      pop\n        /* \"#utility.yul\":11687:13143   */\n      pop\n        /* \"#utility.yul\":11559:13143   */\n      swap3\n      swap2\n      pop\n      pop\n      jump\t// out\n        /* \"#utility.yul\":13149:13257   */\n    tag_422:\n        /* \"#utility.yul\":13226:13250   */\n      tag_427\n        /* \"#utility.yul\":13244:13249   */\n      dup2\n        /* \"#utility.yul\":13226:13250   */\n      tag_428\n      jump\t// in\n    tag_427:\n        /* \"#utility.yul\":13221:13224   */\n      dup3\n        /* \"#utility.yul\":13214:13251   */\n      mstore\n        /* \"#utility.yul\":13149:13257   */\n      pop\n      pop\n      jump\t// out\n        /* \"#utility.yul\":13263:13381   */\n    tag_429:\n        /* \"#utility.yul\":13350:13374   */\n      tag_431\n        /* \"#utility.yul\":13368:13373   */\n      dup2\n        /* \"#utility.yul\":13350:13374   */\n      tag_428\n      jump\t// in\n    tag_431:\n        /* \"#utility.yul\":13345:13348   */\n      dup3\n        /* \"#utility.yul\":13338:13375   */\n      mstore\n        /* \"#utility.yul\":13263:13381   */\n      pop\n      pop\n      jump\t// out\n        /* \"#utility.yul\":13387:13658   */\n    tag_211:\n        /* \"#utility.yul\":13517:13520   */\n      0x00\n        /* \"#utility.yul\":13539:13632   */\n      tag_433\n        /* \"#utility.yul\":13628:13631   */\n      dup3\n        /* \"#utility.yul\":13619:13625   */\n      dup5\n        /* \"#utility.yul\":13539:13632   */\n      tag_329\n      jump\t// in\n    tag_433:\n        /* \"#utility.yul\":13532:13632   */\n      swap2\n      pop\n        /* \"#utility.yul\":13649:13652   */\n      dup2\n        /* \"#utility.yul\":13642:13652   */\n      swap1\n      pop\n        /* \"#utility.yul\":13387:13658   */\n      swap3\n      swap2\n      pop\n      pop\n      jump\t// out\n        /* \"#utility.yul\":13664:13939   */\n    tag_65:\n        /* \"#utility.yul\":13796:13799   */\n      0x00\n        /* \"#utility.yul\":13818:13913   */\n      tag_435\n        /* \"#utility.yul\":13909:13912   */\n      dup3\n        /* \"#utility.yul\":13900:13906   */\n      dup5\n        /* \"#utility.yul\":13818:13913   */\n      tag_353\n      jump\t// in\n    tag_435:\n        /* \"#utility.yul\":13811:13913   */\n      swap2\n      pop\n        /* \"#utility.yul\":13930:13933   */\n      dup2\n        /* \"#utility.yul\":13923:13933   */\n      swap1\n      pop\n        /* \"#utility.yul\":13664:13939   */\n      swap3\n      swap2\n      pop\n      pop\n      jump\t// out\n        /* \"#utility.yul\":13945:14214   */\n    tag_123:\n        /* \"#utility.yul\":14074:14077   */\n      0x00\n        /* \"#utility.yul\":14096:14188   */\n      tag_437\n        /* \"#utility.yul\":14184:14187   */\n      dup3\n        /* \"#utility.yul\":14175:14181   */\n      dup5\n        /* \"#utility.yul\":14096:14188   */\n      tag_359\n      jump\t// in\n    tag_437:\n        /* \"#utility.yul\":14089:14188   */\n      swap2\n      pop\n        /* \"#utility.yul\":14205:14208   */\n      dup2\n        /* \"#utility.yul\":14198:14208   */\n      swap1\n      pop\n        /* \"#utility.yul\":13945:14214   */\n      swap3\n      swap2\n      pop\n      pop\n      jump\t// out\n        /* \"#utility.yul\":14220:14442   */\n    tag_44:\n        /* \"#utility.yul\":14313:14317   */\n      0x00\n        /* \"#utility.yul\":14351:14353   */\n      0x20\n        /* \"#utility.yul\":14340:14349   */\n      dup3\n        /* \"#utility.yul\":14336:14354   */\n      add\n        /* \"#utility.yul\":14328:14354   */\n      swap1\n      pop\n        /* \"#utility.yul\":14364:14435   */\n      tag_439\n        /* \"#utility.yul\":14432:14433   */\n      0x00\n        /* \"#utility.yul\":14421:14430   */\n      dup4\n        /* \"#utility.yul\":14417:14434   */\n      add\n        /* \"#utility.yul\":14408:14414   */\n      dup5\n        /* \"#utility.yul\":14364:14435   */\n      tag_326\n      jump\t// in\n    tag_439:\n        /* \"#utility.yul\":14220:14442   */\n      swap3\n      swap2\n      pop\n      pop\n      jump\t// out\n        /* \"#utility.yul\":14448:14702   */\n    tag_28:\n        /* \"#utility.yul\":14557:14561   */\n      0x00\n        /* \"#utility.yul\":14595:14597   */\n      0x20\n        /* \"#utility.yul\":14584:14593   */\n      dup3\n        /* \"#utility.yul\":14580:14598   */\n      add\n        /* \"#utility.yul\":14572:14598   */\n      swap1\n      pop\n        /* \"#utility.yul\":14608:14695   */\n      tag_441\n        /* \"#utility.yul\":14692:14693   */\n      0x00\n        /* \"#utility.yul\":14681:14690   */\n      dup4\n        /* \"#utility.yul\":14677:14694   */\n      add\n        /* \"#utility.yul\":14668:14674   */\n      dup5\n        /* \"#utility.yul\":14608:14695   */\n      tag_318\n      jump\t// in\n    tag_441:\n        /* \"#utility.yul\":14448:14702   */\n      swap3\n      swap2\n      pop\n      pop\n      jump\t// out\n        /* \"#utility.yul\":14708:15040   */\n    tag_98:\n        /* \"#utility.yul\":14829:14833   */\n      0x00\n        /* \"#utility.yul\":14867:14869   */\n      0x40\n        /* \"#utility.yul\":14856:14865   */\n      dup3\n        /* \"#utility.yul\":14852:14870   */\n      add\n        /* \"#utility.yul\":14844:14870   */\n      swap1\n      pop\n        /* \"#utility.yul\":14880:14951   */\n      tag_443\n        /* \"#utility.yul\":14948:14949   */\n      0x00\n        /* \"#utility.yul\":14937:14946   */\n      dup4\n        /* \"#utility.yul\":14933:14950   */\n      add\n        /* \"#utility.yul\":14924:14930   */\n      dup6\n        /* \"#utility.yul\":14880:14951   */\n      tag_326\n      jump\t// in\n    tag_443:\n        /* \"#utility.yul\":14961:15033   */\n      tag_444\n        /* \"#utility.yul\":15029:15031   */\n      0x20\n        /* \"#utility.yul\":15018:15027   */\n      dup4\n        /* \"#utility.yul\":15014:15032   */\n      add\n        /* \"#utility.yul\":15005:15011   */\n      dup5\n        /* \"#utility.yul\":14961:15033   */\n      tag_326\n      jump\t// in\n    tag_444:\n        /* \"#utility.yul\":14708:15040   */\n      swap4\n      swap3\n      pop\n      pop\n      pop\n      jump\t// out\n        /* \"#utility.yul\":15046:15488   */\n    tag_164:\n        /* \"#utility.yul\":15195:15199   */\n      0x00\n        /* \"#utility.yul\":15233:15235   */\n      0x60\n        /* \"#utility.yul\":15222:15231   */\n      dup3\n        /* \"#utility.yul\":15218:15236   */\n      add\n        /* \"#utility.yul\":15210:15236   */\n      swap1\n      pop\n        /* \"#utility.yul\":15246:15317   */\n      tag_446\n        /* \"#utility.yul\":15314:15315   */\n      0x00\n        /* \"#utility.yul\":15303:15312   */\n      dup4\n        /* \"#utility.yul\":15299:15316   */\n      add\n        /* \"#utility.yul\":15290:15296   */\n      dup7\n        /* \"#utility.yul\":15246:15317   */\n      tag_326\n      jump\t// in\n    tag_446:\n        /* \"#utility.yul\":15327:15399   */\n      tag_447\n        /* \"#utility.yul\":15395:15397   */\n      0x20\n        /* \"#utility.yul\":15384:15393   */\n      dup4\n        /* \"#utility.yul\":15380:15398   */\n      add\n        /* \"#utility.yul\":15371:15377   */\n      dup6\n        /* \"#utility.yul\":15327:15399   */\n      tag_326\n      jump\t// in\n    tag_447:\n        /* \"#utility.yul\":15409:15481   */\n      tag_448\n        /* \"#utility.yul\":15477:15479   */\n      0x40\n        /* \"#utility.yul\":15466:15475   */\n      dup4\n        /* \"#utility.yul\":15462:15480   */\n      add\n        /* \"#utility.yul\":15453:15459   */\n      dup5\n        /* \"#utility.yul\":15409:15481   */\n      tag_429\n      jump\t// in\n    tag_448:\n        /* \"#utility.yul\":15046:15488   */\n      swap5\n      swap4\n      pop\n      pop\n      pop\n      pop\n      jump\t// out\n        /* \"#utility.yul\":15494:15807   */\n    tag_224:\n        /* \"#utility.yul\":15607:15611   */\n      0x00\n        /* \"#utility.yul\":15645:15647   */\n      0x20\n        /* \"#utility.yul\":15634:15643   */\n      dup3\n        /* \"#utility.yul\":15630:15648   */\n      add\n        /* \"#utility.yul\":15622:15648   */\n      swap1\n      pop\n        /* \"#utility.yul\":15694:15703   */\n      dup2\n        /* \"#utility.yul\":15688:15692   */\n      dup2\n        /* \"#utility.yul\":15684:15704   */\n      sub\n        /* \"#utility.yul\":15680:15681   */\n      0x00\n        /* \"#utility.yul\":15669:15678   */\n      dup4\n        /* \"#utility.yul\":15665:15682   */\n      add\n        /* \"#utility.yul\":15658:15705   */\n      mstore\n        /* \"#utility.yul\":15722:15800   */\n      tag_450\n        /* \"#utility.yul\":15795:15799   */\n      dup2\n        /* \"#utility.yul\":15786:15792   */\n      dup5\n        /* \"#utility.yul\":15722:15800   */\n      tag_346\n      jump\t// in\n    tag_450:\n        /* \"#utility.yul\":15714:15800   */\n      swap1\n      pop\n        /* \"#utility.yul\":15494:15807   */\n      swap3\n      swap2\n      pop\n      pop\n      jump\t// out\n        /* \"#utility.yul\":15813:16346   */\n    tag_117:\n        /* \"#utility.yul\":15982:15986   */\n      0x00\n        /* \"#utility.yul\":16020:16022   */\n      0x60\n        /* \"#utility.yul\":16009:16018   */\n      dup3\n        /* \"#utility.yul\":16005:16023   */\n      add\n        /* \"#utility.yul\":15997:16023   */\n      swap1\n      pop\n        /* \"#utility.yul\":16069:16078   */\n      dup2\n        /* \"#utility.yul\":16063:16067   */\n      dup2\n        /* \"#utility.yul\":16059:16079   */\n      sub\n        /* \"#utility.yul\":16055:16056   */\n      0x00\n        /* \"#utility.yul\":16044:16053   */\n      dup4\n        /* \"#utility.yul\":16040:16057   */\n      add\n        /* \"#utility.yul\":16033:16080   */\n      mstore\n        /* \"#utility.yul\":16097:16175   */\n      tag_452\n        /* \"#utility.yul\":16170:16174   */\n      dup2\n        /* \"#utility.yul\":16161:16167   */\n      dup7\n        /* \"#utility.yul\":16097:16175   */\n      tag_346\n      jump\t// in\n    tag_452:\n        /* \"#utility.yul\":16089:16175   */\n      swap1\n      pop\n        /* \"#utility.yul\":16185:16257   */\n      tag_453\n        /* \"#utility.yul\":16253:16255   */\n      0x20\n        /* \"#utility.yul\":16242:16251   */\n      dup4\n        /* \"#utility.yul\":16238:16256   */\n      add\n        /* \"#utility.yul\":16229:16235   */\n      dup6\n        /* \"#utility.yul\":16185:16257   */\n      tag_429\n      jump\t// in\n    tag_453:\n        /* \"#utility.yul\":16267:16339   */\n      tag_454\n        /* \"#utility.yul\":16335:16337   */\n      0x40\n        /* \"#utility.yul\":16324:16333   */\n      dup4\n        /* \"#utility.yul\":16320:16338   */\n      add\n        /* \"#utility.yul\":16311:16317   */\n      dup5\n        /* \"#utility.yul\":16267:16339   */\n      tag_326\n      jump\t// in\n    tag_454:\n        /* \"#utility.yul\":15813:16346   */\n      swap5\n      swap4\n      pop\n      pop\n      pop\n      pop\n      jump\t// out\n        /* \"#utility.yul\":16352:16771   */\n    tag_152:\n        /* \"#utility.yul\":16518:16522   */\n      0x00\n        /* \"#utility.yul\":16556:16558   */\n      0x20\n        /* \"#utility.yul\":16545:16554   */\n      dup3\n        /* \"#utility.yul\":16541:16559   */\n      add\n        /* \"#utility.yul\":16533:16559   */\n      swap1\n      pop\n        /* \"#utility.yul\":16605:16614   */\n      dup2\n        /* \"#utility.yul\":16599:16603   */\n      dup2\n        /* \"#utility.yul\":16595:16615   */\n      sub\n        /* \"#utility.yul\":16591:16592   */\n      0x00\n        /* \"#utility.yul\":16580:16589   */\n      dup4\n        /* \"#utility.yul\":16576:16593   */\n      add\n        /* \"#utility.yul\":16569:16616   */\n      mstore\n        /* \"#utility.yul\":16633:16764   */\n      tag_456\n        /* \"#utility.yul\":16759:16763   */\n      dup2\n        /* \"#utility.yul\":16633:16764   */\n      tag_371\n      jump\t// in\n    tag_456:\n        /* \"#utility.yul\":16625:16764   */\n      swap1\n      pop\n        /* \"#utility.yul\":16352:16771   */\n      swap2\n      swap1\n      pop\n      jump\t// out\n        /* \"#utility.yul\":16777:17196   */\n    tag_95:\n        /* \"#utility.yul\":16943:16947   */\n      0x00\n        /* \"#utility.yul\":16981:16983   */\n      0x20\n        /* \"#utility.yul\":16970:16979   */\n      dup3\n        /* \"#utility.yul\":16966:16984   */\n      add\n        /* \"#utility.yul\":16958:16984   */\n      swap1\n      pop\n        /* \"#utility.yul\":17030:17039   */\n      dup2\n        /* \"#utility.yul\":17024:17028   */\n      dup2\n        /* \"#utility.yul\":17020:17040   */\n      sub\n        /* \"#utility.yul\":17016:17017   */\n      0x00\n        /* \"#utility.yul\":17005:17014   */\n      dup4\n        /* \"#utility.yul\":17001:17018   */\n      add\n        /* \"#utility.yul\":16994:17041   */\n      mstore\n        /* \"#utility.yul\":17058:17189   */\n      tag_458\n        /* \"#utility.yul\":17184:17188   */\n      dup2\n        /* \"#utility.yul\":17058:17189   */\n      tag_376\n      jump\t// in\n    tag_458:\n        /* \"#utility.yul\":17050:17189   */\n      swap1\n      pop\n        /* \"#utility.yul\":16777:17196   */\n      swap2\n      swap1\n      pop\n      jump\t// out\n        /* \"#utility.yul\":17202:17621   */\n    tag_87:\n        /* \"#utility.yul\":17368:17372   */\n      0x00\n        /* \"#utility.yul\":17406:17408   */\n      0x20\n        /* \"#utility.yul\":17395:17404   */\n      dup3\n        /* \"#utility.yul\":17391:17409   */\n      add\n        /* \"#utility.yul\":17383:17409   */\n      swap1\n      pop\n        /* \"#utility.yul\":17455:17464   */\n      dup2\n        /* \"#utility.yul\":17449:17453   */\n      dup2\n        /* \"#utility.yul\":17445:17465   */\n      sub\n        /* \"#utility.yul\":17441:17442   */\n      0x00\n        /* \"#utility.yul\":17430:17439   */\n      dup4\n        /* \"#utility.yul\":17426:17443   */\n      add\n        /* \"#utility.yul\":17419:17466   */\n      mstore\n        /* \"#utility.yul\":17483:17614   */\n      tag_460\n        /* \"#utility.yul\":17609:17613   */\n      dup2\n        /* \"#utility.yul\":17483:17614   */\n      tag_381\n      jump\t// in\n    tag_460:\n        /* \"#utility.yul\":17475:17614   */\n      swap1\n      pop\n        /* \"#utility.yul\":17202:17621   */\n      swap2\n      swap1\n      pop\n      jump\t// out\n        /* \"#utility.yul\":17627:18046   */\n    tag_204:\n        /* \"#utility.yul\":17793:17797   */\n      0x00\n        /* \"#utility.yul\":17831:17833   */\n      0x20\n        /* \"#utility.yul\":17820:17829   */\n      dup3\n        /* \"#utility.yul\":17816:17834   */\n      add\n        /* \"#utility.yul\":17808:17834   */\n      swap1\n      pop\n        /* \"#utility.yul\":17880:17889   */\n      dup2\n        /* \"#utility.yul\":17874:17878   */\n      dup2\n        /* \"#utility.yul\":17870:17890   */\n      sub\n        /* \"#utility.yul\":17866:17867   */\n      0x00\n        /* \"#utility.yul\":17855:17864   */\n      dup4\n        /* \"#utility.yul\":17851:17868   */\n      add\n        /* \"#utility.yul\":17844:17891   */\n      mstore\n        /* \"#utility.yul\":17908:18039   */\n      tag_462\n        /* \"#utility.yul\":18034:18038   */\n      dup2\n        /* \"#utility.yul\":17908:18039   */\n      tag_386\n      jump\t// in\n    tag_462:\n        /* \"#utility.yul\":17900:18039   */\n      swap1\n      pop\n        /* \"#utility.yul\":17627:18046   */\n      swap2\n      swap1\n      pop\n      jump\t// out\n        /* \"#utility.yul\":18052:18471   */\n    tag_83:\n        /* \"#utility.yul\":18218:18222   */\n      0x00\n        /* \"#utility.yul\":18256:18258   */\n      0x20\n        /* \"#utility.yul\":18245:18254   */\n      dup3\n        /* \"#utility.yul\":18241:18259   */\n      add\n        /* \"#utility.yul\":18233:18259   */\n      swap1\n      pop\n        /* \"#utility.yul\":18305:18314   */\n      dup2\n        /* \"#utility.yul\":18299:18303   */\n      dup2\n        /* \"#utility.yul\":18295:18315   */\n      sub\n        /* \"#utility.yul\":18291:18292   */\n      0x00\n        /* \"#utility.yul\":18280:18289   */\n      dup4\n        /* \"#utility.yul\":18276:18293   */\n      add\n        /* \"#utility.yul\":18269:18316   */\n      mstore\n        /* \"#utility.yul\":18333:18464   */\n      tag_464\n        /* \"#utility.yul\":18459:18463   */\n      dup2\n        /* \"#utility.yul\":18333:18464   */\n      tag_391\n      jump\t// in\n    tag_464:\n        /* \"#utility.yul\":18325:18464   */\n      swap1\n      pop\n        /* \"#utility.yul\":18052:18471   */\n      swap2\n      swap1\n      pop\n      jump\t// out\n        /* \"#utility.yul\":18477:18896   */\n    tag_128:\n        /* \"#utility.yul\":18643:18647   */\n      0x00\n        /* \"#utility.yul\":18681:18683   */\n      0x20\n        /* \"#utility.yul\":18670:18679   */\n      dup3\n        /* \"#utility.yul\":18666:18684   */\n      add\n        /* \"#utility.yul\":18658:18684   */\n      swap1\n      pop\n        /* \"#utility.yul\":18730:18739   */\n      dup2\n        /* \"#utility.yul\":18724:18728   */\n      dup2\n        /* \"#utility.yul\":18720:18740   */\n      sub\n        /* \"#utility.yul\":18716:18717   */\n      0x00\n        /* \"#utility.yul\":18705:18714   */\n      dup4\n        /* \"#utility.yul\":18701:18718   */\n      add\n        /* \"#utility.yul\":18694:18741   */\n      mstore\n        /* \"#utility.yul\":18758:18889   */\n      tag_466\n        /* \"#utility.yul\":18884:18888   */\n      dup2\n        /* \"#utility.yul\":18758:18889   */\n      tag_396\n      jump\t// in\n    tag_466:\n        /* \"#utility.yul\":18750:18889   */\n      swap1\n      pop\n        /* \"#utility.yul\":18477:18896   */\n      swap2\n      swap1\n      pop\n      jump\t// out\n        /* \"#utility.yul\":18902:19321   */\n    tag_209:\n        /* \"#utility.yul\":19068:19072   */\n      0x00\n        /* \"#utility.yul\":19106:19108   */\n      0x20\n        /* \"#utility.yul\":19095:19104   */\n      dup3\n        /* \"#utility.yul\":19091:19109   */\n      add\n        /* \"#utility.yul\":19083:19109   */\n      swap1\n      pop\n        /* \"#utility.yul\":19155:19164   */\n      dup2\n        /* \"#utility.yul\":19149:19153   */\n      dup2\n        /* \"#utility.yul\":19145:19165   */\n      sub\n        /* \"#utility.yul\":19141:19142   */\n      0x00\n        /* \"#utility.yul\":19130:19139   */\n      dup4\n        /* \"#utility.yul\":19126:19143   */\n      add\n        /* \"#utility.yul\":19119:19166   */\n      mstore\n        /* \"#utility.yul\":19183:19314   */\n      tag_468\n        /* \"#utility.yul\":19309:19313   */\n      dup2\n        /* \"#utility.yul\":19183:19314   */\n      tag_401\n      jump\t// in\n    tag_468:\n        /* \"#utility.yul\":19175:19314   */\n      swap1\n      pop\n        /* \"#utility.yul\":18902:19321   */\n      swap2\n      swap1\n      pop\n      jump\t// out\n        /* \"#utility.yul\":19327:19746   */\n    tag_197:\n        /* \"#utility.yul\":19493:19497   */\n      0x00\n        /* \"#utility.yul\":19531:19533   */\n      0x20\n        /* \"#utility.yul\":19520:19529   */\n      dup3\n        /* \"#utility.yul\":19516:19534   */\n      add\n        /* \"#utility.yul\":19508:19534   */\n      swap1\n      pop\n        /* \"#utility.yul\":19580:19589   */\n      dup2\n        /* \"#utility.yul\":19574:19578   */\n      dup2\n        /* \"#utility.yul\":19570:19590   */\n      sub\n        /* \"#utility.yul\":19566:19567   */\n      0x00\n        /* \"#utility.yul\":19555:19564   */\n      dup4\n        /* \"#utility.yul\":19551:19568   */\n      add\n        /* \"#utility.yul\":19544:19591   */\n      mstore\n        /* \"#utility.yul\":19608:19739   */\n      tag_470\n        /* \"#utility.yul\":19734:19738   */\n      dup2\n        /* \"#utility.yul\":19608:19739   */\n      tag_406\n      jump\t// in\n    tag_470:\n        /* \"#utility.yul\":19600:19739   */\n      swap1\n      pop\n        /* \"#utility.yul\":19327:19746   */\n      swap2\n      swap1\n      pop\n      jump\t// out\n        /* \"#utility.yul\":19752:20171   */\n    tag_106:\n        /* \"#utility.yul\":19918:19922   */\n      0x00\n        /* \"#utility.yul\":19956:19958   */\n      0x20\n        /* \"#utility.yul\":19945:19954   */\n      dup3\n        /* \"#utility.yul\":19941:19959   */\n      add\n        /* \"#utility.yul\":19933:19959   */\n      swap1\n      pop\n        /* \"#utility.yul\":20005:20014   */\n      dup2\n        /* \"#utility.yul\":19999:20003   */\n      dup2\n        /* \"#utility.yul\":19995:20015   */\n      sub\n        /* \"#utility.yul\":19991:19992   */\n      0x00\n        /* \"#utility.yul\":19980:19989   */\n      dup4\n        /* \"#utility.yul\":19976:19993   */\n      add\n        /* \"#utility.yul\":19969:20016   */\n      mstore\n        /* \"#utility.yul\":20033:20164   */\n      tag_472\n        /* \"#utility.yul\":20159:20163   */\n      dup2\n        /* \"#utility.yul\":20033:20164   */\n      tag_411\n      jump\t// in\n    tag_472:\n        /* \"#utility.yul\":20025:20164   */\n      swap1\n      pop\n        /* \"#utility.yul\":19752:20171   */\n      swap2\n      swap1\n      pop\n      jump\t// out\n        /* \"#utility.yul\":20177:20558   */\n    tag_20:\n        /* \"#utility.yul\":20324:20328   */\n      0x00\n        /* \"#utility.yul\":20362:20364   */\n      0x20\n        /* \"#utility.yul\":20351:20360   */\n      dup3\n        /* \"#utility.yul\":20347:20365   */\n      add\n        /* \"#utility.yul\":20339:20365   */\n      swap1\n      pop\n        /* \"#utility.yul\":20411:20420   */\n      dup2\n        /* \"#utility.yul\":20405:20409   */\n      dup2\n        /* \"#utility.yul\":20401:20421   */\n      sub\n        /* \"#utility.yul\":20397:20398   */\n      0x00\n        /* \"#utility.yul\":20386:20395   */\n      dup4\n        /* \"#utility.yul\":20382:20399   */\n      add\n        /* \"#utility.yul\":20375:20422   */\n      mstore\n        /* \"#utility.yul\":20439:20551   */\n      tag_474\n        /* \"#utility.yul\":20546:20550   */\n      dup2\n        /* \"#utility.yul\":20537:20543   */\n      dup5\n        /* \"#utility.yul\":20439:20551   */\n      tag_416\n      jump\t// in\n    tag_474:\n        /* \"#utility.yul\":20431:20551   */\n      swap1\n      pop\n        /* \"#utility.yul\":20177:20558   */\n      swap3\n      swap2\n      pop\n      pop\n      jump\t// out\n        /* \"#utility.yul\":20564:20786   */\n    tag_38:\n        /* \"#utility.yul\":20657:20661   */\n      0x00\n        /* \"#utility.yul\":20695:20697   */\n      0x20\n        /* \"#utility.yul\":20684:20693   */\n      dup3\n        /* \"#utility.yul\":20680:20698   */\n      add\n        /* \"#utility.yul\":20672:20698   */\n      swap1\n      pop\n        /* \"#utility.yul\":20708:20779   */\n      tag_476\n        /* \"#utility.yul\":20776:20777   */\n      0x00\n        /* \"#utility.yul\":20765:20774   */\n      dup4\n        /* \"#utility.yul\":20761:20778   */\n      add\n        /* \"#utility.yul\":20752:20758   */\n      dup5\n        /* \"#utility.yul\":20708:20779   */\n      tag_429\n      jump\t// in\n    tag_476:\n        /* \"#utility.yul\":20564:20786   */\n      swap3\n      swap2\n      pop\n      pop\n      jump\t// out\n        /* \"#utility.yul\":20792:20921   */\n    tag_241:\n        /* \"#utility.yul\":20826:20832   */\n      0x00\n        /* \"#utility.yul\":20853:20873   */\n      tag_478\n      tag_479\n      jump\t// in\n    tag_478:\n        /* \"#utility.yul\":20843:20873   */\n      swap1\n      pop\n        /* \"#utility.yul\":20882:20915   */\n      tag_480\n        /* \"#utility.yul\":20910:20914   */\n      dup3\n        /* \"#utility.yul\":20902:20908   */\n      dup3\n        /* \"#utility.yul\":20882:20915   */\n      tag_481\n      jump\t// in\n    tag_480:\n        /* \"#utility.yul\":20792:20921   */\n      swap2\n      swap1\n      pop\n      jump\t// out\n        /* \"#utility.yul\":20927:21002   */\n    tag_479:\n        /* \"#utility.yul\":20960:20966   */\n      0x00\n        /* \"#utility.yul\":20993:20995   */\n      0x40\n        /* \"#utility.yul\":20987:20996   */\n      mload\n        /* \"#utility.yul\":20977:20996   */\n      swap1\n      pop\n        /* \"#utility.yul\":20927:21002   */\n      swap1\n      jump\t// out\n        /* \"#utility.yul\":21008:21316   */\n    tag_240:\n        /* \"#utility.yul\":21070:21074   */\n      0x00\n        /* \"#utility.yul\":21160:21178   */\n      0xffffffffffffffff\n        /* \"#utility.yul\":21152:21158   */\n      dup3\n        /* \"#utility.yul\":21149:21179   */\n      gt\n        /* \"#utility.yul\":21146:21202   */\n      iszero\n      tag_484\n      jumpi\n        /* \"#utility.yul\":21182:21200   */\n      tag_485\n      tag_176\n      jump\t// in\n    tag_485:\n        /* \"#utility.yul\":21146:21202   */\n    tag_484:\n        /* \"#utility.yul\":21220:21249   */\n      tag_486\n        /* \"#utility.yul\":21242:21248   */\n      dup3\n        /* \"#utility.yul\":21220:21249   */\n      tag_345\n      jump\t// in\n    tag_486:\n        /* \"#utility.yul\":21212:21249   */\n      swap1\n      pop\n        /* \"#utility.yul\":21304:21308   */\n      0x20\n        /* \"#utility.yul\":21298:21302   */\n      dup2\n        /* \"#utility.yul\":21294:21309   */\n      add\n        /* \"#utility.yul\":21286:21309   */\n      swap1\n      pop\n        /* \"#utility.yul\":21008:21316   */\n      swap2\n      swap1\n      pop\n      jump\t// out\n        /* \"#utility.yul\":21322:21463   */\n    tag_367:\n        /* \"#utility.yul\":21371:21375   */\n      0x00\n        /* \"#utility.yul\":21394:21397   */\n      dup2\n        /* \"#utility.yul\":21386:21397   */\n      swap1\n      pop\n        /* \"#utility.yul\":21417:21420   */\n      dup2\n        /* \"#utility.yul\":21414:21415   */\n      0x00\n        /* \"#utility.yul\":21407:21421   */\n      mstore\n        /* \"#utility.yul\":21451:21455   */\n      0x20\n        /* \"#utility.yul\":21448:21449   */\n      0x00\n        /* \"#utility.yul\":21438:21456   */\n      keccak256\n        /* \"#utility.yul\":21430:21456   */\n      swap1\n      pop\n        /* \"#utility.yul\":21322:21463   */\n      swap2\n      swap1\n      pop\n      jump\t// out\n        /* \"#utility.yul\":21469:21567   */\n    tag_332:\n        /* \"#utility.yul\":21520:21526   */\n      0x00\n        /* \"#utility.yul\":21554:21559   */\n      dup2\n        /* \"#utility.yul\":21548:21560   */\n      mload\n        /* \"#utility.yul\":21538:21560   */\n      swap1\n      pop\n        /* \"#utility.yul\":21469:21567   */\n      swap2\n      swap1\n      pop\n      jump\t// out\n        /* \"#utility.yul\":21573:21672   */\n    tag_340:\n        /* \"#utility.yul\":21625:21631   */\n      0x00\n        /* \"#utility.yul\":21659:21664   */\n      dup2\n        /* \"#utility.yul\":21653:21665   */\n      mload\n        /* \"#utility.yul\":21643:21665   */\n      swap1\n      pop\n        /* \"#utility.yul\":21573:21672   */\n      swap2\n      swap1\n      pop\n      jump\t// out\n        /* \"#utility.yul\":21678:21825   */\n    tag_334:\n        /* \"#utility.yul\":21779:21790   */\n      0x00\n        /* \"#utility.yul\":21816:21819   */\n      dup2\n        /* \"#utility.yul\":21801:21819   */\n      swap1\n      pop\n        /* \"#utility.yul\":21678:21825   */\n      swap3\n      swap2\n      pop\n      pop\n      jump\t// out\n        /* \"#utility.yul\":21831:21990   */\n    tag_342:\n        /* \"#utility.yul\":21905:21916   */\n      0x00\n        /* \"#utility.yul\":21939:21945   */\n      dup3\n        /* \"#utility.yul\":21934:21937   */\n      dup3\n        /* \"#utility.yul\":21927:21946   */\n      mstore\n        /* \"#utility.yul\":21979:21983   */\n      0x20\n        /* \"#utility.yul\":21974:21977   */\n      dup3\n        /* \"#utility.yul\":21970:21984   */\n      add\n        /* \"#utility.yul\":21955:21984   */\n      swap1\n      pop\n        /* \"#utility.yul\":21831:21990   */\n      swap3\n      swap2\n      pop\n      pop\n      jump\t// out\n        /* \"#utility.yul\":21996:22165   */\n    tag_350:\n        /* \"#utility.yul\":22080:22091   */\n      0x00\n        /* \"#utility.yul\":22114:22120   */\n      dup3\n        /* \"#utility.yul\":22109:22112   */\n      dup3\n        /* \"#utility.yul\":22102:22121   */\n      mstore\n        /* \"#utility.yul\":22154:22158   */\n      0x20\n        /* \"#utility.yul\":22149:22152   */\n      dup3\n        /* \"#utility.yul\":22145:22159   */\n      add\n        /* \"#utility.yul\":22130:22159   */\n      swap1\n      pop\n        /* \"#utility.yul\":21996:22165   */\n      swap3\n      swap2\n      pop\n      pop\n      jump\t// out\n        /* \"#utility.yul\":22171:22319   */\n    tag_357:\n        /* \"#utility.yul\":22273:22284   */\n      0x00\n        /* \"#utility.yul\":22310:22313   */\n      dup2\n        /* \"#utility.yul\":22295:22313   */\n      swap1\n      pop\n        /* \"#utility.yul\":22171:22319   */\n      swap3\n      swap2\n      pop\n      pop\n      jump\t// out\n        /* \"#utility.yul\":22325:22630   */\n    tag_157:\n        /* \"#utility.yul\":22365:22368   */\n      0x00\n        /* \"#utility.yul\":22384:22404   */\n      tag_495\n        /* \"#utility.yul\":22402:22403   */\n      dup3\n        /* \"#utility.yul\":22384:22404   */\n      tag_428\n      jump\t// in\n    tag_495:\n        /* \"#utility.yul\":22379:22404   */\n      swap2\n      pop\n        /* \"#utility.yul\":22418:22438   */\n      tag_496\n        /* \"#utility.yul\":22436:22437   */\n      dup4\n        /* \"#utility.yul\":22418:22438   */\n      tag_428\n      jump\t// in\n    tag_496:\n        /* \"#utility.yul\":22413:22438   */\n      swap3\n      pop\n        /* \"#utility.yul\":22572:22573   */\n      dup3\n        /* \"#utility.yul\":22504:22570   */\n      0xffffffffffffffffffffffffffffffffffffffffffffffffffffffffffffffff\n        /* \"#utility.yul\":22500:22574   */\n      sub\n        /* \"#utility.yul\":22497:22498   */\n      dup3\n        /* \"#utility.yul\":22494:22575   */\n      gt\n        /* \"#utility.yul\":22491:22598   */\n      iszero\n      tag_497\n      jumpi\n        /* \"#utility.yul\":22578:22596   */\n      tag_498\n      tag_499\n      jump\t// in\n    tag_498:\n        /* \"#utility.yul\":22491:22598   */\n    tag_497:\n        /* \"#utility.yul\":22622:22623   */\n      dup3\n        /* \"#utility.yul\":22619:22620   */\n      dup3\n        /* \"#utility.yul\":22615:22624   */\n      add\n        /* \"#utility.yul\":22608:22624   */\n      swap1\n      pop\n        /* \"#utility.yul\":22325:22630   */\n      swap3\n      swap2\n      pop\n      pop\n      jump\t// out\n        /* \"#utility.yul\":22636:22821   */\n    tag_173:\n        /* \"#utility.yul\":22676:22677   */\n      0x00\n        /* \"#utility.yul\":22693:22713   */\n      tag_501\n        /* \"#utility.yul\":22711:22712   */\n      dup3\n        /* \"#utility.yul\":22693:22713   */\n      tag_428\n      jump\t// in\n    tag_501:\n        /* \"#utility.yul\":22688:22713   */\n      swap2\n      pop\n        /* \"#utility.yul\":22727:22747   */\n      tag_502\n        /* \"#utility.yul\":22745:22746   */\n      dup4\n        /* \"#utility.yul\":22727:22747   */\n      tag_428\n      jump\t// in\n    tag_502:\n        /* \"#utility.yul\":22722:22747   */\n      swap3\n      pop\n        /* \"#utility.yul\":22766:22767   */\n      dup3\n        /* \"#utility.yul\":22756:22791   */\n      tag_503\n      jumpi\n        /* \"#utility.yul\":22771:22789   */\n      tag_504\n      tag_505\n      jump\t// in\n    tag_504:\n        /* \"#utility.yul\":22756:22791   */\n    tag_503:\n        /* \"#utility.yul\":22813:22814   */\n      dup3\n        /* \"#utility.yul\":22810:22811   */\n      dup3\n        /* \"#utility.yul\":22806:22815   */\n      div\n        /* \"#utility.yul\":22801:22815   */\n      swap1\n      pop\n        /* \"#utility.yul\":22636:22821   */\n      swap3\n      swap2\n      pop\n      pop\n      jump\t// out\n        /* \"#utility.yul\":22827:23018   */\n    tag_160:\n        /* \"#utility.yul\":22867:22871   */\n      0x00\n        /* \"#utility.yul\":22887:22907   */\n      tag_507\n        /* \"#utility.yul\":22905:22906   */\n      dup3\n        /* \"#utility.yul\":22887:22907   */\n      tag_428\n      jump\t// in\n    tag_507:\n        /* \"#utility.yul\":22882:22907   */\n      swap2\n      pop\n        /* \"#utility.yul\":22921:22941   */\n      tag_508\n        /* \"#utility.yul\":22939:22940   */\n      dup4\n        /* \"#utility.yul\":22921:22941   */\n      tag_428\n      jump\t// in\n    tag_508:\n        /* \"#utility.yul\":22916:22941   */\n      swap3\n      pop\n        /* \"#utility.yul\":22960:22961   */\n      dup3\n        /* \"#utility.yul\":22957:22958   */\n      dup3\n        /* \"#utility.yul\":22954:22962   */\n      lt\n        /* \"#utility.yul\":22951:22985   */\n      iszero\n      tag_509\n      jumpi\n        /* \"#utility.yul\":22965:22983   */\n      tag_510\n      tag_499\n      jump\t// in\n    tag_510:\n        /* \"#utility.yul\":22951:22985   */\n    tag_509:\n        /* \"#utility.yul\":23010:23011   */\n      dup3\n        /* \"#utility.yul\":23007:23008   */\n      dup3\n        /* \"#utility.yul\":23003:23012   */\n      sub\n        /* \"#utility.yul\":22995:23012   */\n      swap1\n      pop\n        /* \"#utility.yul\":22827:23018   */\n      swap3\n      swap2\n      pop\n      pop\n      jump\t// out\n        /* \"#utility.yul\":23024:23120   */\n    tag_325:\n        /* \"#utility.yul\":23061:23068   */\n      0x00\n        /* \"#utility.yul\":23090:23114   */\n      tag_512\n        /* \"#utility.yul\":23108:23113   */\n      dup3\n        /* \"#utility.yul\":23090:23114   */\n      tag_513\n      jump\t// in\n    tag_512:\n        /* \"#utility.yul\":23079:23114   */\n      swap1\n      pop\n        /* \"#utility.yul\":23024:23120   */\n      swap2\n      swap1\n      pop\n      jump\t// out\n        /* \"#utility.yul\":23126:23230   */\n    tag_321:\n        /* \"#utility.yul\":23171:23178   */\n      0x00\n        /* \"#utility.yul\":23200:23224   */\n      tag_515\n        /* \"#utility.yul\":23218:23223   */\n      dup3\n        /* \"#utility.yul\":23200:23224   */\n      tag_513\n      jump\t// in\n    tag_515:\n        /* \"#utility.yul\":23189:23224   */\n      swap1\n      pop\n        /* \"#utility.yul\":23126:23230   */\n      swap2\n      swap1\n      pop\n      jump\t// out\n        /* \"#utility.yul\":23236:23326   */\n    tag_516:\n        /* \"#utility.yul\":23270:23277   */\n      0x00\n        /* \"#utility.yul\":23313:23318   */\n      dup2\n        /* \"#utility.yul\":23306:23319   */\n      iszero\n        /* \"#utility.yul\":23299:23320   */\n      iszero\n        /* \"#utility.yul\":23288:23320   */\n      swap1\n      pop\n        /* \"#utility.yul\":23236:23326   */\n      swap2\n      swap1\n      pop\n      jump\t// out\n        /* \"#utility.yul\":23332:23442   */\n    tag_518:\n        /* \"#utility.yul\":23383:23390   */\n      0x00\n        /* \"#utility.yul\":23412:23436   */\n      tag_520\n        /* \"#utility.yul\":23430:23435   */\n      dup3\n        /* \"#utility.yul\":23412:23436   */\n      tag_325\n      jump\t// in\n    tag_520:\n        /* \"#utility.yul\":23401:23436   */\n      swap1\n      pop\n        /* \"#utility.yul\":23332:23442   */\n      swap2\n      swap1\n      pop\n      jump\t// out\n        /* \"#utility.yul\":23448:23574   */\n    tag_513:\n        /* \"#utility.yul\":23485:23492   */\n      0x00\n        /* \"#utility.yul\":23525:23567   */\n      0xffffffffffffffffffffffffffffffffffffffff\n        /* \"#utility.yul\":23518:23523   */\n      dup3\n        /* \"#utility.yul\":23514:23568   */\n      and\n        /* \"#utility.yul\":23503:23568   */\n      swap1\n      pop\n        /* \"#utility.yul\":23448:23574   */\n      swap2\n      swap1\n      pop\n      jump\t// out\n        /* \"#utility.yul\":23580:23657   */\n    tag_428:\n        /* \"#utility.yul\":23617:23624   */\n      0x00\n        /* \"#utility.yul\":23646:23651   */\n      dup2\n        /* \"#utility.yul\":23635:23651   */\n      swap1\n      pop\n        /* \"#utility.yul\":23580:23657   */\n      swap2\n      swap1\n      pop\n      jump\t// out\n        /* \"#utility.yul\":23663:23817   */\n    tag_246:\n        /* \"#utility.yul\":23747:23753   */\n      dup3\n        /* \"#utility.yul\":23742:23745   */\n      dup2\n        /* \"#utility.yul\":23737:23740   */\n      dup4\n        /* \"#utility.yul\":23724:23754   */\n      calldatacopy\n        /* \"#utility.yul\":23809:23810   */\n      0x00\n        /* \"#utility.yul\":23800:23806   */\n      dup4\n        /* \"#utility.yul\":23795:23798   */\n      dup4\n        /* \"#utility.yul\":23791:23807   */\n      add\n        /* \"#utility.yul\":23784:23811   */\n      mstore\n        /* \"#utility.yul\":23663:23817   */\n      pop\n      pop\n      pop\n      jump\t// out\n        /* \"#utility.yul\":23823:24130   */\n    tag_336:\n        /* \"#utility.yul\":23891:23892   */\n      0x00\n        /* \"#utility.yul\":23901:24014   */\n    tag_525:\n        /* \"#utility.yul\":23915:23921   */\n      dup4\n        /* \"#utility.yul\":23912:23913   */\n      dup2\n        /* \"#utility.yul\":23909:23922   */\n      lt\n        /* \"#utility.yul\":23901:24014   */\n      iszero\n      tag_527\n      jumpi\n        /* \"#utility.yul\":24000:24001   */\n      dup1\n        /* \"#utility.yul\":23995:23998   */\n      dup3\n        /* \"#utility.yul\":23991:24002   */\n      add\n        /* \"#utility.yul\":23985:24003   */\n      mload\n        /* \"#utility.yul\":23981:23982   */\n      dup2\n        /* \"#utility.yul\":23976:23979   */\n      dup5\n        /* \"#utility.yul\":23972:23983   */\n      add\n        /* \"#utility.yul\":23965:24004   */\n      mstore\n        /* \"#utility.yul\":23937:23939   */\n      0x20\n        /* \"#utility.yul\":23934:23935   */\n      dup2\n        /* \"#utility.yul\":23930:23940   */\n      add\n        /* \"#utility.yul\":23925:23940   */\n      swap1\n      pop\n        /* \"#utility.yul\":23901:24014   */\n      jump(tag_525)\n    tag_527:\n        /* \"#utility.yul\":24032:24038   */\n      dup4\n        /* \"#utility.yul\":24029:24030   */\n      dup2\n        /* \"#utility.yul\":24026:24039   */\n      gt\n        /* \"#utility.yul\":24023:24124   */\n      iszero\n      tag_528\n      jumpi\n        /* \"#utility.yul\":24112:24113   */\n      0x00\n        /* \"#utility.yul\":24103:24109   */\n      dup5\n        /* \"#utility.yul\":24098:24101   */\n      dup5\n        /* \"#utility.yul\":24094:24110   */\n      add\n        /* \"#utility.yul\":24087:24114   */\n      mstore\n        /* \"#utility.yul\":24023:24124   */\n    tag_528:\n        /* \"#utility.yul\":23872:24130   */\n      pop\n        /* \"#utility.yul\":23823:24130   */\n      pop\n      pop\n      pop\n      jump\t// out\n        /* \"#utility.yul\":24136:24456   */\n    tag_67:\n        /* \"#utility.yul\":24180:24186   */\n      0x00\n        /* \"#utility.yul\":24217:24218   */\n      0x02\n        /* \"#utility.yul\":24211:24215   */\n      dup3\n        /* \"#utility.yul\":24207:24219   */\n      div\n        /* \"#utility.yul\":24197:24219   */\n      swap1\n      pop\n        /* \"#utility.yul\":24264:24265   */\n      0x01\n        /* \"#utility.yul\":24258:24262   */\n      dup3\n        /* \"#utility.yul\":24254:24266   */\n      and\n        /* \"#utility.yul\":24285:24303   */\n      dup1\n        /* \"#utility.yul\":24275:24356   */\n      tag_530\n      jumpi\n        /* \"#utility.yul\":24341:24345   */\n      0x7f\n        /* \"#utility.yul\":24333:24339   */\n      dup3\n        /* \"#utility.yul\":24329:24346   */\n      and\n        /* \"#utility.yul\":24319:24346   */\n      swap2\n      pop\n        /* \"#utility.yul\":24275:24356   */\n    tag_530:\n        /* \"#utility.yul\":24403:24405   */\n      0x20\n        /* \"#utility.yul\":24395:24401   */\n      dup3\n        /* \"#utility.yul\":24392:24406   */\n      lt\n        /* \"#utility.yul\":24372:24390   */\n      dup2\n        /* \"#utility.yul\":24369:24407   */\n      eq\n        /* \"#utility.yul\":24366:24450   */\n      iszero\n      tag_531\n      jumpi\n        /* \"#utility.yul\":24422:24440   */\n      tag_532\n      tag_533\n      jump\t// in\n    tag_532:\n        /* \"#utility.yul\":24366:24450   */\n    tag_531:\n        /* \"#utility.yul\":24187:24456   */\n      pop\n        /* \"#utility.yul\":24136:24456   */\n      swap2\n      swap1\n      pop\n      jump\t// out\n        /* \"#utility.yul\":24462:24743   */\n    tag_481:\n        /* \"#utility.yul\":24545:24572   */\n      tag_535\n        /* \"#utility.yul\":24567:24571   */\n      dup3\n        /* \"#utility.yul\":24545:24572   */\n      tag_345\n      jump\t// in\n    tag_535:\n        /* \"#utility.yul\":24537:24543   */\n      dup2\n        /* \"#utility.yul\":24533:24573   */\n      add\n        /* \"#utility.yul\":24675:24681   */\n      dup2\n        /* \"#utility.yul\":24663:24673   */\n      dup2\n        /* \"#utility.yul\":24660:24682   */\n      lt\n        /* \"#utility.yul\":24639:24657   */\n      0xffffffffffffffff\n        /* \"#utility.yul\":24627:24637   */\n      dup3\n        /* \"#utility.yul\":24624:24658   */\n      gt\n        /* \"#utility.yul\":24621:24683   */\n      or\n        /* \"#utility.yul\":24618:24706   */\n      iszero\n      tag_536\n      jumpi\n        /* \"#utility.yul\":24686:24704   */\n      tag_537\n      tag_176\n      jump\t// in\n    tag_537:\n        /* \"#utility.yul\":24618:24706   */\n    tag_536:\n        /* \"#utility.yul\":24726:24736   */\n      dup1\n        /* \"#utility.yul\":24722:24724   */\n      0x40\n        /* \"#utility.yul\":24715:24737   */\n      mstore\n        /* \"#utility.yul\":24505:24743   */\n      pop\n        /* \"#utility.yul\":24462:24743   */\n      pop\n      pop\n      jump\t// out\n        /* \"#utility.yul\":24749:24982   */\n    tag_171:\n        /* \"#utility.yul\":24788:24791   */\n      0x00\n        /* \"#utility.yul\":24811:24835   */\n      tag_539\n        /* \"#utility.yul\":24829:24834   */\n      dup3\n        /* \"#utility.yul\":24811:24835   */\n      tag_428\n      jump\t// in\n    tag_539:\n        /* \"#utility.yul\":24802:24835   */\n      swap2\n      pop\n        /* \"#utility.yul\":24857:24923   */\n      0xffffffffffffffffffffffffffffffffffffffffffffffffffffffffffffffff\n        /* \"#utility.yul\":24850:24855   */\n      dup3\n        /* \"#utility.yul\":24847:24924   */\n      eq\n        /* \"#utility.yul\":24844:24947   */\n      iszero\n      tag_540\n      jumpi\n        /* \"#utility.yul\":24927:24945   */\n      tag_541\n      tag_499\n      jump\t// in\n    tag_541:\n        /* \"#utility.yul\":24844:24947   */\n    tag_540:\n        /* \"#utility.yul\":24974:24975   */\n      0x01\n        /* \"#utility.yul\":24967:24972   */\n      dup3\n        /* \"#utility.yul\":24963:24976   */\n      add\n        /* \"#utility.yul\":24956:24976   */\n      swap1\n      pop\n        /* \"#utility.yul\":24749:24982   */\n      swap2\n      swap1\n      pop\n      jump\t// out\n        /* \"#utility.yul\":24988:25164   */\n    tag_182:\n        /* \"#utility.yul\":25020:25021   */\n      0x00\n        /* \"#utility.yul\":25037:25057   */\n      tag_543\n        /* \"#utility.yul\":25055:25056   */\n      dup3\n        /* \"#utility.yul\":25037:25057   */\n      tag_428\n      jump\t// in\n    tag_543:\n        /* \"#utility.yul\":25032:25057   */\n      swap2\n      pop\n        /* \"#utility.yul\":25071:25091   */\n      tag_544\n        /* \"#utility.yul\":25089:25090   */\n      dup4\n        /* \"#utility.yul\":25071:25091   */\n      tag_428\n      jump\t// in\n    tag_544:\n        /* \"#utility.yul\":25066:25091   */\n      swap3\n      pop\n        /* \"#utility.yul\":25110:25111   */\n      dup3\n        /* \"#utility.yul\":25100:25135   */\n      tag_545\n      jumpi\n        /* \"#utility.yul\":25115:25133   */\n      tag_546\n      tag_505\n      jump\t// in\n    tag_546:\n        /* \"#utility.yul\":25100:25135   */\n    tag_545:\n        /* \"#utility.yul\":25156:25157   */\n      dup3\n        /* \"#utility.yul\":25153:25154   */\n      dup3\n        /* \"#utility.yul\":25149:25158   */\n      mod\n        /* \"#utility.yul\":25144:25158   */\n      swap1\n      pop\n        /* \"#utility.yul\":24988:25164   */\n      swap3\n      swap2\n      pop\n      pop\n      jump\t// out\n        /* \"#utility.yul\":25170:25350   */\n    tag_499:\n        /* \"#utility.yul\":25218:25295   */\n      0x4e487b7100000000000000000000000000000000000000000000000000000000\n        /* \"#utility.yul\":25215:25216   */\n      0x00\n        /* \"#utility.yul\":25208:25296   */\n      mstore\n        /* \"#utility.yul\":25315:25319   */\n      0x11\n        /* \"#utility.yul\":25312:25313   */\n      0x04\n        /* \"#utility.yul\":25305:25320   */\n      mstore\n        /* \"#utility.yul\":25339:25343   */\n      0x24\n        /* \"#utility.yul\":25336:25337   */\n      0x00\n        /* \"#utility.yul\":25329:25344   */\n      revert\n        /* \"#utility.yul\":25356:25536   */\n    tag_505:\n        /* \"#utility.yul\":25404:25481   */\n      0x4e487b7100000000000000000000000000000000000000000000000000000000\n        /* \"#utility.yul\":25401:25402   */\n      0x00\n        /* \"#utility.yul\":25394:25482   */\n      mstore\n        /* \"#utility.yul\":25501:25505   */\n      0x12\n        /* \"#utility.yul\":25498:25499   */\n      0x04\n        /* \"#utility.yul\":25491:25506   */\n      mstore\n        /* \"#utility.yul\":25525:25529   */\n      0x24\n        /* \"#utility.yul\":25522:25523   */\n      0x00\n        /* \"#utility.yul\":25515:25530   */\n      revert\n        /* \"#utility.yul\":25542:25722   */\n    tag_533:\n        /* \"#utility.yul\":25590:25667   */\n      0x4e487b7100000000000000000000000000000000000000000000000000000000\n        /* \"#utility.yul\":25587:25588   */\n      0x00\n        /* \"#utility.yul\":25580:25668   */\n      mstore\n        /* \"#utility.yul\":25687:25691   */\n      0x22\n        /* \"#utility.yul\":25684:25685   */\n      0x04\n        /* \"#utility.yul\":25677:25692   */\n      mstore\n        /* \"#utility.yul\":25711:25715   */\n      0x24\n        /* \"#utility.yul\":25708:25709   */\n      0x00\n        /* \"#utility.yul\":25701:25716   */\n      revert\n        /* \"#utility.yul\":25728:25908   */\n    tag_186:\n        /* \"#utility.yul\":25776:25853   */\n      0x4e487b7100000000000000000000000000000000000000000000000000000000\n        /* \"#utility.yul\":25773:25774   */\n      0x00\n        /* \"#utility.yul\":25766:25854   */\n      mstore\n        /* \"#utility.yul\":25873:25877   */\n      0x32\n        /* \"#utility.yul\":25870:25871   */\n      0x04\n        /* \"#utility.yul\":25863:25878   */\n      mstore\n        /* \"#utility.yul\":25897:25901   */\n      0x24\n        /* \"#utility.yul\":25894:25895   */\n      0x00\n        /* \"#utility.yul\":25887:25902   */\n      revert\n        /* \"#utility.yul\":25914:26094   */\n    tag_176:\n        /* \"#utility.yul\":25962:26039   */\n      0x4e487b7100000000000000000000000000000000000000000000000000000000\n        /* \"#utility.yul\":25959:25960   */\n      0x00\n        /* \"#utility.yul\":25952:26040   */\n      mstore\n        /* \"#utility.yul\":26059:26063   */\n      0x41\n        /* \"#utility.yul\":26056:26057   */\n      0x04\n        /* \"#utility.yul\":26049:26064   */\n      mstore\n        /* \"#utility.yul\":26083:26087   */\n      0x24\n        /* \"#utility.yul\":26080:26081   */\n      0x00\n        /* \"#utility.yul\":26073:26088   */\n      revert\n        /* \"#utility.yul\":26100:26217   */\n    tag_267:\n        /* \"#utility.yul\":26209:26210   */\n      0x00\n        /* \"#utility.yul\":26206:26207   */\n      dup1\n        /* \"#utility.yul\":26199:26211   */\n      revert\n        /* \"#utility.yul\":26223:26340   */\n    tag_244:\n        /* \"#utility.yul\":26332:26333   */\n      0x00\n        /* \"#utility.yul\":26329:26330   */\n      dup1\n        /* \"#utility.yul\":26322:26334   */\n      revert\n        /* \"#utility.yul\":26346:26463   */\n    tag_291:\n        /* \"#utility.yul\":26455:26456   */\n      0x00\n        /* \"#utility.yul\":26452:26453   */\n      dup1\n        /* \"#utility.yul\":26445:26457   */\n      revert\n        /* \"#utility.yul\":26469:26586   */\n    tag_279:\n        /* \"#utility.yul\":26578:26579   */\n      0x00\n        /* \"#utility.yul\":26575:26576   */\n      dup1\n        /* \"#utility.yul\":26568:26580   */\n      revert\n        /* \"#utility.yul\":26592:26694   */\n    tag_345:\n        /* \"#utility.yul\":26633:26639   */\n      0x00\n        /* \"#utility.yul\":26684:26686   */\n      0x1f\n        /* \"#utility.yul\":26680:26687   */\n      not\n        /* \"#utility.yul\":26675:26677   */\n      0x1f\n        /* \"#utility.yul\":26668:26673   */\n      dup4\n        /* \"#utility.yul\":26664:26678   */\n      add\n        /* \"#utility.yul\":26660:26688   */\n      and\n        /* \"#utility.yul\":26650:26688   */\n      swap1\n      pop\n        /* \"#utility.yul\":26592:26694   */\n      swap2\n      swap1\n      pop\n      jump\t// out\n        /* \"#utility.yul\":26700:26925   */\n    tag_375:\n        /* \"#utility.yul\":26840:26874   */\n      0x4f776e61626c653a206e6577206f776e657220697320746865207a65726f2061\n        /* \"#utility.yul\":26836:26837   */\n      0x00\n        /* \"#utility.yul\":26828:26834   */\n      dup3\n        /* \"#utility.yul\":26824:26838   */\n      add\n        /* \"#utility.yul\":26817:26875   */\n      mstore\n        /* \"#utility.yul\":26909:26917   */\n      0x6464726573730000000000000000000000000000000000000000000000000000\n        /* \"#utility.yul\":26904:26906   */\n      0x20\n        /* \"#utility.yul\":26896:26902   */\n      dup3\n        /* \"#utility.yul\":26892:26907   */\n      add\n        /* \"#utility.yul\":26885:26918   */\n      mstore\n        /* \"#utility.yul\":26700:26925   */\n      pop\n      jump\t// out\n        /* \"#utility.yul\":26931:27113   */\n    tag_380:\n        /* \"#utility.yul\":27071:27105   */\n      0x6d616b655061796d656e743a20496e76616c696420746f6b656e20696e646578\n        /* \"#utility.yul\":27067:27068   */\n      0x00\n        /* \"#utility.yul\":27059:27065   */\n      dup3\n        /* \"#utility.yul\":27055:27069   */\n      add\n        /* \"#utility.yul\":27048:27106   */\n      mstore\n        /* \"#utility.yul\":26931:27113   */\n      pop\n      jump\t// out\n        /* \"#utility.yul\":27119:27342   */\n    tag_385:\n        /* \"#utility.yul\":27259:27293   */\n      0x6164645061796d656e74546f6b656e3a20546f6b656e20616c72656164792061\n        /* \"#utility.yul\":27255:27256   */\n      0x00\n        /* \"#utility.yul\":27247:27253   */\n      dup3\n        /* \"#utility.yul\":27243:27257   */\n      add\n        /* \"#utility.yul\":27236:27294   */\n      mstore\n        /* \"#utility.yul\":27328:27334   */\n      0x6464656400000000000000000000000000000000000000000000000000000000\n        /* \"#utility.yul\":27323:27325   */\n      0x20\n        /* \"#utility.yul\":27315:27321   */\n      dup3\n        /* \"#utility.yul\":27311:27326   */\n      add\n        /* \"#utility.yul\":27304:27335   */\n      mstore\n        /* \"#utility.yul\":27119:27342   */\n      pop\n      jump\t// out\n        /* \"#utility.yul\":27348:27573   */\n    tag_390:\n        /* \"#utility.yul\":27488:27522   */\n      0x416464726573733a20696e73756666696369656e742062616c616e636520666f\n        /* \"#utility.yul\":27484:27485   */\n      0x00\n        /* \"#utility.yul\":27476:27482   */\n      dup3\n        /* \"#utility.yul\":27472:27486   */\n      add\n        /* \"#utility.yul\":27465:27523   */\n      mstore\n        /* \"#utility.yul\":27557:27565   */\n      0x722063616c6c0000000000000000000000000000000000000000000000000000\n        /* \"#utility.yul\":27552:27554   */\n      0x20\n        /* \"#utility.yul\":27544:27550   */\n      dup3\n        /* \"#utility.yul\":27540:27555   */\n      add\n        /* \"#utility.yul\":27533:27566   */\n      mstore\n        /* \"#utility.yul\":27348:27573   */\n      pop\n      jump\t// out\n        /* \"#utility.yul\":27579:27761   */\n    tag_395:\n        /* \"#utility.yul\":27719:27753   */\n      0x4f776e61626c653a2063616c6c6572206973206e6f7420746865206f776e6572\n        /* \"#utility.yul\":27715:27716   */\n      0x00\n        /* \"#utility.yul\":27707:27713   */\n      dup3\n        /* \"#utility.yul\":27703:27717   */\n      add\n        /* \"#utility.yul\":27696:27754   */\n      mstore\n        /* \"#utility.yul\":27579:27761   */\n      pop\n      jump\t// out\n        /* \"#utility.yul\":27767:27998   */\n    tag_400:\n        /* \"#utility.yul\":27907:27941   */\n      0x676574546f6b656e496e6465783a204e6f74206120737570706f727465642070\n        /* \"#utility.yul\":27903:27904   */\n      0x00\n        /* \"#utility.yul\":27895:27901   */\n      dup3\n        /* \"#utility.yul\":27891:27905   */\n      add\n        /* \"#utility.yul\":27884:27942   */\n      mstore\n        /* \"#utility.yul\":27976:27990   */\n      0x61796d656e7420746f6b656e0000000000000000000000000000000000000000\n        /* \"#utility.yul\":27971:27973   */\n      0x20\n        /* \"#utility.yul\":27963:27969   */\n      dup3\n        /* \"#utility.yul\":27959:27974   */\n      add\n        /* \"#utility.yul\":27952:27991   */\n      mstore\n        /* \"#utility.yul\":27767:27998   */\n      pop\n      jump\t// out\n        /* \"#utility.yul\":28004:28183   */\n    tag_405:\n        /* \"#utility.yul\":28144:28175   */\n      0x416464726573733a2063616c6c20746f206e6f6e2d636f6e7472616374000000\n        /* \"#utility.yul\":28140:28141   */\n      0x00\n        /* \"#utility.yul\":28132:28138   */\n      dup3\n        /* \"#utility.yul\":28128:28142   */\n      add\n        /* \"#utility.yul\":28121:28176   */\n      mstore\n        /* \"#utility.yul\":28004:28183   */\n      pop\n      jump\t// out\n        /* \"#utility.yul\":28189:28418   */\n    tag_410:\n        /* \"#utility.yul\":28329:28363   */\n      0x5361666545524332303a204552433230206f7065726174696f6e20646964206e\n        /* \"#utility.yul\":28325:28326   */\n      0x00\n        /* \"#utility.yul\":28317:28323   */\n      dup3\n        /* \"#utility.yul\":28313:28327   */\n      add\n        /* \"#utility.yul\":28306:28364   */\n      mstore\n        /* \"#utility.yul\":28398:28410   */\n      0x6f74207375636365656400000000000000000000000000000000000000000000\n        /* \"#utility.yul\":28393:28395   */\n      0x20\n        /* \"#utility.yul\":28385:28391   */\n      dup3\n        /* \"#utility.yul\":28381:28396   */\n      add\n        /* \"#utility.yul\":28374:28411   */\n      mstore\n        /* \"#utility.yul\":28189:28418   */\n      pop\n      jump\t// out\n        /* \"#utility.yul\":28424:28661   */\n    tag_415:\n        /* \"#utility.yul\":28564:28598   */\n      0x6d616b655061796d656e743a20436f6e7472616374206e6f7420617070726f76\n        /* \"#utility.yul\":28560:28561   */\n      0x00\n        /* \"#utility.yul\":28552:28558   */\n      dup3\n        /* \"#utility.yul\":28548:28562   */\n      add\n        /* \"#utility.yul\":28541:28599   */\n      mstore\n        /* \"#utility.yul\":28633:28653   */\n      0x656420746f206d616b65207061796d656e740000000000000000000000000000\n        /* \"#utility.yul\":28628:28630   */\n      0x20\n        /* \"#utility.yul\":28620:28626   */\n      dup3\n        /* \"#utility.yul\":28616:28631   */\n      add\n        /* \"#utility.yul\":28609:28654   */\n      mstore\n        /* \"#utility.yul\":28424:28661   */\n      pop\n      jump\t// out\n        /* \"#utility.yul\":28667:28789   */\n    tag_250:\n        /* \"#utility.yul\":28740:28764   */\n      tag_567\n        /* \"#utility.yul\":28758:28763   */\n      dup2\n        /* \"#utility.yul\":28740:28764   */\n      tag_325\n      jump\t// in\n    tag_567:\n        /* \"#utility.yul\":28733:28738   */\n      dup2\n        /* \"#utility.yul\":28730:28765   */\n      eq\n        /* \"#utility.yul\":28720:28783   */\n      tag_568\n      jumpi\n        /* \"#utility.yul\":28779:28780   */\n      0x00\n        /* \"#utility.yul\":28776:28777   */\n      dup1\n        /* \"#utility.yul\":28769:28781   */\n      revert\n        /* \"#utility.yul\":28720:28783   */\n    tag_568:\n        /* \"#utility.yul\":28667:28789   */\n      pop\n      jump\t// out\n        /* \"#utility.yul\":28795:28933   */\n    tag_254:\n        /* \"#utility.yul\":28876:28908   */\n      tag_570\n        /* \"#utility.yul\":28902:28907   */\n      dup2\n        /* \"#utility.yul\":28876:28908   */\n      tag_321\n      jump\t// in\n    tag_570:\n        /* \"#utility.yul\":28869:28874   */\n      dup2\n        /* \"#utility.yul\":28866:28909   */\n      eq\n        /* \"#utility.yul\":28856:28927   */\n      tag_571\n      jumpi\n        /* \"#utility.yul\":28923:28924   */\n      0x00\n        /* \"#utility.yul\":28920:28921   */\n      dup1\n        /* \"#utility.yul\":28913:28925   */\n      revert\n        /* \"#utility.yul\":28856:28927   */\n    tag_571:\n        /* \"#utility.yul\":28795:28933   */\n      pop\n      jump\t// out\n        /* \"#utility.yul\":28939:29055   */\n    tag_258:\n        /* \"#utility.yul\":29009:29030   */\n      tag_573\n        /* \"#utility.yul\":29024:29029   */\n      dup2\n        /* \"#utility.yul\":29009:29030   */\n      tag_516\n      jump\t// in\n    tag_573:\n        /* \"#utility.yul\":29002:29007   */\n      dup2\n        /* \"#utility.yul\":28999:29031   */\n      eq\n        /* \"#utility.yul\":28989:29049   */\n      tag_574\n      jumpi\n        /* \"#utility.yul\":29045:29046   */\n      0x00\n        /* \"#utility.yul\":29042:29043   */\n      dup1\n        /* \"#utility.yul\":29035:29047   */\n      revert\n        /* \"#utility.yul\":28989:29049   */\n    tag_574:\n        /* \"#utility.yul\":28939:29055   */\n      pop\n      jump\t// out\n        /* \"#utility.yul\":29061:29211   */\n    tag_262:\n        /* \"#utility.yul\":29148:29186   */\n      tag_576\n        /* \"#utility.yul\":29180:29185   */\n      dup2\n        /* \"#utility.yul\":29148:29186   */\n      tag_518\n      jump\t// in\n    tag_576:\n        /* \"#utility.yul\":29141:29146   */\n      dup2\n        /* \"#utility.yul\":29138:29187   */\n      eq\n        /* \"#utility.yul\":29128:29205   */\n      tag_577\n      jumpi\n        /* \"#utility.yul\":29201:29202   */\n      0x00\n        /* \"#utility.yul\":29198:29199   */\n      dup1\n        /* \"#utility.yul\":29191:29203   */\n      revert\n        /* \"#utility.yul\":29128:29205   */\n    tag_577:\n        /* \"#utility.yul\":29061:29211   */\n      pop\n      jump\t// out\n        /* \"#utility.yul\":29217:29339   */\n    tag_272:\n        /* \"#utility.yul\":29290:29314   */\n      tag_579\n        /* \"#utility.yul\":29308:29313   */\n      dup2\n        /* \"#utility.yul\":29290:29314   */\n      tag_428\n      jump\t// in\n    tag_579:\n        /* \"#utility.yul\":29283:29288   */\n      dup2\n        /* \"#utility.yul\":29280:29315   */\n      eq\n        /* \"#utility.yul\":29270:29333   */\n      tag_580\n      jumpi\n        /* \"#utility.yul\":29329:29330   */\n      0x00\n        /* \"#utility.yul\":29326:29327   */\n      dup1\n        /* \"#utility.yul\":29319:29331   */\n      revert\n        /* \"#utility.yul\":29270:29333   */\n    tag_580:\n        /* \"#utility.yul\":29217:29339   */\n      pop\n      jump\t// out\n\n    auxdata: 0xa26469706673582212208570bd60d3c21469b15cd5b21993987887eea2c617562fc1334856735cd2d87f64736f6c63430008070033\n}\n",
				"bytecode": {
					"linkReferences": {},
					"object": "608060405260016003553480156200001657600080fd5b506040516200274b3803806200274b83398181016040528101906200003c91906200018e565b6200005c62000050620000ab60201b60201c565b620000b360201b60201c565b6001808190555080600560006101000a81548173ffffffffffffffffffffffffffffffffffffffff021916908373ffffffffffffffffffffffffffffffffffffffff1602179055505062000213565b600033905090565b60008060009054906101000a900473ffffffffffffffffffffffffffffffffffffffff169050816000806101000a81548173ffffffffffffffffffffffffffffffffffffffff021916908373ffffffffffffffffffffffffffffffffffffffff1602179055508173ffffffffffffffffffffffffffffffffffffffff168173ffffffffffffffffffffffffffffffffffffffff167f8be0079c531659141344cd1fd0a4f28419497f9722a3daafe3b4186f6b6457e060405160405180910390a35050565b6000815190506200018881620001f9565b92915050565b600060208284031215620001a757620001a6620001f4565b5b6000620001b78482850162000177565b91505092915050565b6000620001cd82620001d4565b9050919050565b600073ffffffffffffffffffffffffffffffffffffffff82169050919050565b600080fd5b6200020481620001c0565b81146200021057600080fd5b50565b61252880620002236000396000f3fe608060405234801561001057600080fd5b50600436106100a95760003560e01c8063715018a611610071578063715018a6146101645780638da5cb5b1461016e578063c62556261461018c578063deaa59df146101bc578063eb0c52aa146101d8578063f2fde38b14610208576100a9565b8063169e90bc146100ae5780634a7dc8e0146100de578063521eb273146100fa578063541dc0141461011857806366c0bd2414610134575b600080fd5b6100c860048036038101906100c39190611674565b610224565b6040516100d59190611dde565b60405180910390f35b6100f860048036038101906100f391906116fd565b610488565b005b61010261069e565b60405161010f9190611be3565b60405180910390f35b610132600480360381019061012d919061172a565b6106c4565b005b61014e6004803603810190610149919061161a565b610aff565b60405161015b9190611e00565b60405180910390f35b61016c610bca565b005b610176610c52565b6040516101839190611bc8565b60405180910390f35b6101a660048036038101906101a191906117ad565b610c7b565b6040516101b39190611bc8565b60405180910390f35b6101d660048036038101906101d19190611647565b610cae565b005b6101f260048036038101906101ed919061161a565b610db1565b6040516101ff9190611e00565b60405180910390f35b610222600480360381019061021d919061161a565b610dc9565b005b61022c611420565b600660008473ffffffffffffffffffffffffffffffffffffffff1673ffffffffffffffffffffffffffffffffffffffff168152602001908152602001600020826040516102799190611b9a565b90815260200160405180910390206040518060e00160405290816000820180546102a29061203d565b80601f01602080910402602001604051908101604052809291908181526020018280546102ce9061203d565b801561031b5780601f106102f05761010080835404028352916020019161031b565b820191906000526020600020905b8154815290600101906020018083116102fe57829003601f168201915b505050505081526020016001820180546103349061203d565b80601f01602080910402602001604051908101604052809291908181526020018280546103609061203d565b80156103ad5780601f10610382576101008083540402835291602001916103ad565b820191906000526020600020905b81548152906001019060200180831161039057829003601f168201915b505050505081526020016002820160009054906101000a900473ffffffffffffffffffffffffffffffffffffffff1673ffffffffffffffffffffffffffffffffffffffff1673ffffffffffffffffffffffffffffffffffffffff1681526020016003820154815260200160048201548152602001600582015481526020016006820160009054906101000a900473ffffffffffffffffffffffffffffffffffffffff1673ffffffffffffffffffffffffffffffffffffffff1673ffffffffffffffffffffffffffffffffffffffff1681525050905092915050565b610490610ec1565b73ffffffffffffffffffffffffffffffffffffffff166104ae610c52565b73ffffffffffffffffffffffffffffffffffffffff1614610504576040517f08c379a00000000000000000000000000000000000000000000000000000000081526004016104fb90611d3e565b60405180910390fd5b60008190506000600460008373ffffffffffffffffffffffffffffffffffffffff1673ffffffffffffffffffffffffffffffffffffffff168152602001908152602001600020541461058b576040517f08c379a000000000000000000000000000000000000000000000000000000000815260040161058290611cfe565b60405180910390fd5b8060026000600354815260200190815260200160002060006101000a81548173ffffffffffffffffffffffffffffffffffffffff021916908373ffffffffffffffffffffffffffffffffffffffff160217905550600354600460008373ffffffffffffffffffffffffffffffffffffffff1673ffffffffffffffffffffffffffffffffffffffff1681526020019081526020016000208190555061063b6001600354610ec990919063ffffffff16565b6003819055506106576001600354610edf90919063ffffffff16565b8173ffffffffffffffffffffffffffffffffffffffff167fb5498d88d9ae1cb339dbe68df2a6fdc5e7e4d8045bbd0b39f0d5648399a753f260405160405180910390a35050565b600560009054906101000a900473ffffffffffffffffffffffffffffffffffffffff1681565b600073ffffffffffffffffffffffffffffffffffffffff166002600085815260200190815260200160002060009054906101000a900473ffffffffffffffffffffffffffffffffffffffff1673ffffffffffffffffffffffffffffffffffffffff161415610767576040517f08c379a000000000000000000000000000000000000000000000000000000000815260040161075e90611cde565b60405180910390fd5b60006002600085815260200190815260200160002060009054906101000a900473ffffffffffffffffffffffffffffffffffffffff16905060008173ffffffffffffffffffffffffffffffffffffffff1663dd62ed3e6107c5610ec1565b306040518363ffffffff1660e01b81526004016107e3929190611bfe565b60206040518083038186803b1580156107fb57600080fd5b505afa15801561080f573d6000803e3d6000fd5b505050506040513d601f19601f8201168201806040525081019061083391906117da565b905083811015610878576040517f08c379a000000000000000000000000000000000000000000000000000000000815260040161086f90611dbe565b60405180910390fd5b6108ce610883610ec1565b600560009054906101000a900473ffffffffffffffffffffffffffffffffffffffff16868573ffffffffffffffffffffffffffffffffffffffff16610ef5909392919063ffffffff16565b6000600660006108dc610ec1565b73ffffffffffffffffffffffffffffffffffffffff1673ffffffffffffffffffffffffffffffffffffffff168152602001908152602001600020876040516109249190611b9a565b908152602001604051809103902090508681600001908051906020019061094c929190611489565b5061098a874261095a610ec1565b60405160200161096c93929190611c80565b6040516020818303038152906040528051906020012060001c610f7e565b8160010190805190602001906109a1929190611489565b506002600087815260200190815260200160002060009054906101000a900473ffffffffffffffffffffffffffffffffffffffff168160020160006101000a81548173ffffffffffffffffffffffffffffffffffffffff021916908373ffffffffffffffffffffffffffffffffffffffff160217905550858160030181905550848160040181905550838160050181905550610a3b610ec1565b8160060160006101000a81548173ffffffffffffffffffffffffffffffffffffffff021916908373ffffffffffffffffffffffffffffffffffffffff160217905550610a85610ec1565b73ffffffffffffffffffffffffffffffffffffffff1681600101604051610aac9190611bb1565b604051809103902088604051610ac29190611b9a565b60405180910390207f252ea8f225dc33ac745d0cf22974635091a5ff8332a55f6469595caa3337a8fc60405160405180910390a450505050505050565b600080600460008473ffffffffffffffffffffffffffffffffffffffff1673ffffffffffffffffffffffffffffffffffffffff168152602001908152602001600020541415610b83576040517f08c379a0000000000000000000000000000000000000000000000000000000008152600401610b7a90611d5e565b60405180910390fd5b600460008373ffffffffffffffffffffffffffffffffffffffff1673ffffffffffffffffffffffffffffffffffffffff168152602001908152602001600020549050919050565b610bd2610ec1565b73ffffffffffffffffffffffffffffffffffffffff16610bf0610c52565b73ffffffffffffffffffffffffffffffffffffffff1614610c46576040517f08c379a0000000000000000000000000000000000000000000000000000000008152600401610c3d90611d3e565b60405180910390fd5b610c5060006110df565b565b60008060009054906101000a900473ffffffffffffffffffffffffffffffffffffffff16905090565b60026020528060005260406000206000915054906101000a900473ffffffffffffffffffffffffffffffffffffffff1681565b610cb6610ec1565b73ffffffffffffffffffffffffffffffffffffffff16610cd4610c52565b73ffffffffffffffffffffffffffffffffffffffff1614610d2a576040517f08c379a0000000000000000000000000000000000000000000000000000000008152600401610d2190611d3e565b60405180910390fd5b80600560006101000a81548173ffffffffffffffffffffffffffffffffffffffff021916908373ffffffffffffffffffffffffffffffffffffffff1602179055508073ffffffffffffffffffffffffffffffffffffffff167f65ac7c44ce1402d115f5033c9dde8b6d1e130550ecd89ac7659bc257d4f5b6d560405160405180910390a250565b60046020528060005260406000206000915090505481565b610dd1610ec1565b73ffffffffffffffffffffffffffffffffffffffff16610def610c52565b73ffffffffffffffffffffffffffffffffffffffff1614610e45576040517f08c379a0000000000000000000000000000000000000000000000000000000008152600401610e3c90611d3e565b60405180910390fd5b600073ffffffffffffffffffffffffffffffffffffffff168173ffffffffffffffffffffffffffffffffffffffff161415610eb5576040517f08c379a0000000000000000000000000000000000000000000000000000000008152600401610eac90611cbe565b60405180910390fd5b610ebe816110df565b50565b600033905090565b60008183610ed79190611ed4565b905092915050565b60008183610eed9190611f5b565b905092915050565b610f78846323b872dd60e01b858585604051602401610f1693929190611c27565b604051602081830303815290604052907bffffffffffffffffffffffffffffffffffffffffffffffffffffffff19166020820180517bffffffffffffffffffffffffffffffffffffffffffffffffffffffff83818316178352505050506111a3565b50505050565b60606000821415610fc6576040518060400160405280600181526020017f300000000000000000000000000000000000000000000000000000000000000081525090506110da565b600082905060005b60008214610ff8578080610fe1906120a0565b915050600a82610ff19190611f2a565b9150610fce565b60008167ffffffffffffffff811115611014576110136121d6565b5b6040519080825280601f01601f1916602001820160405280156110465781602001600182028036833780820191505090505b5090505b600085146110d35760018261105f9190611f5b565b9150600a8561106e91906120e9565b603061107a9190611ed4565b60f81b8183815181106110905761108f6121a7565b5b60200101907effffffffffffffffffffffffffffffffffffffffffffffffffffffffffffff1916908160001a905350600a856110cc9190611f2a565b945061104a565b8093505050505b919050565b60008060009054906101000a900473ffffffffffffffffffffffffffffffffffffffff169050816000806101000a81548173ffffffffffffffffffffffffffffffffffffffff021916908373ffffffffffffffffffffffffffffffffffffffff1602179055508173ffffffffffffffffffffffffffffffffffffffff168173ffffffffffffffffffffffffffffffffffffffff167f8be0079c531659141344cd1fd0a4f28419497f9722a3daafe3b4186f6b6457e060405160405180910390a35050565b6000611205826040518060400160405280602081526020017f5361666545524332303a206c6f772d6c6576656c2063616c6c206661696c65648152508573ffffffffffffffffffffffffffffffffffffffff1661126a9092919063ffffffff16565b9050600081511115611265578080602001905181019061122591906116d0565b611264576040517f08c379a000000000000000000000000000000000000000000000000000000000815260040161125b90611d9e565b60405180910390fd5b5b505050565b60606112798484600085611282565b90509392505050565b6060824710156112c7576040517f08c379a00000000000000000000000000000000000000000000000000000000081526004016112be90611d1e565b60405180910390fd5b6112d085611396565b61130f576040517f08c379a000000000000000000000000000000000000000000000000000000000815260040161130690611d7e565b60405180910390fd5b6000808673ffffffffffffffffffffffffffffffffffffffff1685876040516113389190611b83565b60006040518083038185875af1925050503d8060008114611375576040519150601f19603f3d011682016040523d82523d6000602084013e61137a565b606091505b509150915061138a8282866113b9565b92505050949350505050565b6000808273ffffffffffffffffffffffffffffffffffffffff163b119050919050565b606083156113c957829050611419565b6000835111156113dc5782518084602001fd5b816040517f08c379a00000000000000000000000000000000000000000000000000000000081526004016114109190611c5e565b60405180910390fd5b9392505050565b6040518060e001604052806060815260200160608152602001600073ffffffffffffffffffffffffffffffffffffffff168152602001600081526020016000815260200160008152602001600073ffffffffffffffffffffffffffffffffffffffff1681525090565b8280546114959061203d565b90600052602060002090601f0160209004810192826114b757600085556114fe565b82601f106114d057805160ff19168380011785556114fe565b828001600101855582156114fe579182015b828111156114fd5782518255916020019190600101906114e2565b5b50905061150b919061150f565b5090565b5b80821115611528576000816000905550600101611510565b5090565b600061153f61153a84611e40565b611e1b565b90508281526020810184848401111561155b5761155a61220a565b5b611566848285611ffb565b509392505050565b60008135905061157d8161247f565b92915050565b60008135905061159281612496565b92915050565b6000815190506115a7816124ad565b92915050565b6000813590506115bc816124c4565b92915050565b600082601f8301126115d7576115d6612205565b5b81356115e784826020860161152c565b91505092915050565b6000813590506115ff816124db565b92915050565b600081519050611614816124db565b92915050565b6000602082840312156116305761162f612214565b5b600061163e8482850161156e565b91505092915050565b60006020828403121561165d5761165c612214565b5b600061166b84828501611583565b91505092915050565b6000806040838503121561168b5761168a612214565b5b60006116998582860161156e565b925050602083013567ffffffffffffffff8111156116ba576116b961220f565b5b6116c6858286016115c2565b9150509250929050565b6000602082840312156116e6576116e5612214565b5b60006116f484828501611598565b91505092915050565b60006020828403121561171357611712612214565b5b6000611721848285016115ad565b91505092915050565b6000806000806080858703121561174457611743612214565b5b600085013567ffffffffffffffff8111156117625761176161220f565b5b61176e878288016115c2565b945050602061177f878288016115f0565b9350506040611790878288016115f0565b92505060606117a1878288016115f0565b91505092959194509250565b6000602082840312156117c3576117c2612214565b5b60006117d1848285016115f0565b91505092915050565b6000602082840312156117f0576117ef612214565b5b60006117fe84828501611605565b91505092915050565b61181081611fa1565b82525050565b61181f81611f8f565b82525050565b61182e81611f8f565b82525050565b600061183f82611e86565b6118498185611e9c565b935061185981856020860161200a565b80840191505092915050565b600061187082611e91565b61187a8185611ea7565b935061188a81856020860161200a565b61189381612219565b840191505092915050565b60006118a982611e91565b6118b38185611eb8565b93506118c381856020860161200a565b6118cc81612219565b840191505092915050565b60006118e282611e91565b6118ec8185611ec9565b93506118fc81856020860161200a565b80840191505092915050565b600081546119158161203d565b61191f8186611ec9565b9450600182166000811461193a576001811461194b5761197e565b60ff1983168652818601935061197e565b61195485611e71565b60005b8381101561197657815481890152600182019150602081019050611957565b838801955050505b50505092915050565b6000611994602683611eb8565b915061199f8261222a565b604082019050919050565b60006119b7602083611eb8565b91506119c282612279565b602082019050919050565b60006119da602483611eb8565b91506119e5826122a2565b604082019050919050565b60006119fd602683611eb8565b9150611a08826122f1565b604082019050919050565b6000611a20602083611eb8565b9150611a2b82612340565b602082019050919050565b6000611a43602c83611eb8565b9150611a4e82612369565b604082019050919050565b6000611a66601d83611eb8565b9150611a71826123b8565b602082019050919050565b6000611a89602a83611eb8565b9150611a94826123e1565b604082019050919050565b6000611aac603283611eb8565b9150611ab782612430565b604082019050919050565b600060e0830160008301518482036000860152611adf8282611865565b91505060208301518482036020860152611af98282611865565b9150506040830151611b0e6040860182611816565b506060830151611b216060860182611b65565b506080830151611b346080860182611b65565b5060a0830151611b4760a0860182611b65565b5060c0830151611b5a60c0860182611816565b508091505092915050565b611b6e81611ff1565b82525050565b611b7d81611ff1565b82525050565b6000611b8f8284611834565b915081905092915050565b6000611ba682846118d7565b915081905092915050565b6000611bbd8284611908565b915081905092915050565b6000602082019050611bdd6000830184611825565b92915050565b6000602082019050611bf86000830184611807565b92915050565b6000604082019050611c136000830185611825565b611c206020830184611825565b9392505050565b6000606082019050611c3c6000830186611825565b611c496020830185611825565b611c566040830184611b74565b949350505050565b60006020820190508181036000830152611c78818461189e565b905092915050565b60006060820190508181036000830152611c9a818661189e565b9050611ca96020830185611b74565b611cb66040830184611825565b949350505050565b60006020820190508181036000830152611cd781611987565b9050919050565b60006020820190508181036000830152611cf7816119aa565b9050919050565b60006020820190508181036000830152611d17816119cd565b9050919050565b60006020820190508181036000830152611d37816119f0565b9050919050565b60006020820190508181036000830152611d5781611a13565b9050919050565b60006020820190508181036000830152611d7781611a36565b9050919050565b60006020820190508181036000830152611d9781611a59565b9050919050565b60006020820190508181036000830152611db781611a7c565b9050919050565b60006020820190508181036000830152611dd781611a9f565b9050919050565b60006020820190508181036000830152611df88184611ac2565b905092915050565b6000602082019050611e156000830184611b74565b92915050565b6000611e25611e36565b9050611e31828261206f565b919050565b6000604051905090565b600067ffffffffffffffff821115611e5b57611e5a6121d6565b5b611e6482612219565b9050602081019050919050565b60008190508160005260206000209050919050565b600081519050919050565b600081519050919050565b600081905092915050565b600082825260208201905092915050565b600082825260208201905092915050565b600081905092915050565b6000611edf82611ff1565b9150611eea83611ff1565b9250827fffffffffffffffffffffffffffffffffffffffffffffffffffffffffffffffff03821115611f1f57611f1e61211a565b5b828201905092915050565b6000611f3582611ff1565b9150611f4083611ff1565b925082611f5057611f4f612149565b5b828204905092915050565b6000611f6682611ff1565b9150611f7183611ff1565b925082821015611f8457611f8361211a565b5b828203905092915050565b6000611f9a82611fd1565b9050919050565b6000611fac82611fd1565b9050919050565b60008115159050919050565b6000611fca82611f8f565b9050919050565b600073ffffffffffffffffffffffffffffffffffffffff82169050919050565b6000819050919050565b82818337600083830152505050565b60005b8381101561202857808201518184015260208101905061200d565b83811115612037576000848401525b50505050565b6000600282049050600182168061205557607f821691505b6020821081141561206957612068612178565b5b50919050565b61207882612219565b810181811067ffffffffffffffff82111715612097576120966121d6565b5b80604052505050565b60006120ab82611ff1565b91507fffffffffffffffffffffffffffffffffffffffffffffffffffffffffffffffff8214156120de576120dd61211a565b5b600182019050919050565b60006120f482611ff1565b91506120ff83611ff1565b92508261210f5761210e612149565b5b828206905092915050565b7f4e487b7100000000000000000000000000000000000000000000000000000000600052601160045260246000fd5b7f4e487b7100000000000000000000000000000000000000000000000000000000600052601260045260246000fd5b7f4e487b7100000000000000000000000000000000000000000000000000000000600052602260045260246000fd5b7f4e487b7100000000000000000000000000000000000000000000000000000000600052603260045260246000fd5b7f4e487b7100000000000000000000000000000000000000000000000000000000600052604160045260246000fd5b600080fd5b600080fd5b600080fd5b600080fd5b6000601f19601f8301169050919050565b7f4f776e61626c653a206e6577206f776e657220697320746865207a65726f206160008201527f6464726573730000000000000000000000000000000000000000000000000000602082015250565b7f6d616b655061796d656e743a20496e76616c696420746f6b656e20696e646578600082015250565b7f6164645061796d656e74546f6b656e3a20546f6b656e20616c7265616479206160008201527f6464656400000000000000000000000000000000000000000000000000000000602082015250565b7f416464726573733a20696e73756666696369656e742062616c616e636520666f60008201527f722063616c6c0000000000000000000000000000000000000000000000000000602082015250565b7f4f776e61626c653a2063616c6c6572206973206e6f7420746865206f776e6572600082015250565b7f676574546f6b656e496e6465783a204e6f74206120737570706f72746564207060008201527f61796d656e7420746f6b656e0000000000000000000000000000000000000000602082015250565b7f416464726573733a2063616c6c20746f206e6f6e2d636f6e7472616374000000600082015250565b7f5361666545524332303a204552433230206f7065726174696f6e20646964206e60008201527f6f74207375636365656400000000000000000000000000000000000000000000602082015250565b7f6d616b655061796d656e743a20436f6e7472616374206e6f7420617070726f7660008201527f656420746f206d616b65207061796d656e740000000000000000000000000000602082015250565b61248881611f8f565b811461249357600080fd5b50565b61249f81611fa1565b81146124aa57600080fd5b50565b6124b681611fb3565b81146124c157600080fd5b50565b6124cd81611fbf565b81146124d857600080fd5b50565b6124e481611ff1565b81146124ef57600080fd5b5056fea26469706673582212208570bd60d3c21469b15cd5b21993987887eea2c617562fc1334856735cd2d87f64736f6c63430008070033",
					"opcodes": "PUSH1 0x80 PUSH1 0x40 MSTORE PUSH1 0x1 PUSH1 0x3 SSTORE CALLVALUE DUP1 ISZERO PUSH3 0x16 JUMPI PUSH1 0x0 DUP1 REVERT JUMPDEST POP PUSH1 0x40 MLOAD PUSH3 0x274B CODESIZE SUB DUP1 PUSH3 0x274B DUP4 CODECOPY DUP2 DUP2 ADD PUSH1 0x40 MSTORE DUP2 ADD SWAP1 PUSH3 0x3C SWAP2 SWAP1 PUSH3 0x18E JUMP JUMPDEST PUSH3 0x5C PUSH3 0x50 PUSH3 0xAB PUSH1 0x20 SHL PUSH1 0x20 SHR JUMP JUMPDEST PUSH3 0xB3 PUSH1 0x20 SHL PUSH1 0x20 SHR JUMP JUMPDEST PUSH1 0x1 DUP1 DUP2 SWAP1 SSTORE POP DUP1 PUSH1 0x5 PUSH1 0x0 PUSH2 0x100 EXP DUP2 SLOAD DUP2 PUSH20 0xFFFFFFFFFFFFFFFFFFFFFFFFFFFFFFFFFFFFFFFF MUL NOT AND SWAP1 DUP4 PUSH20 0xFFFFFFFFFFFFFFFFFFFFFFFFFFFFFFFFFFFFFFFF AND MUL OR SWAP1 SSTORE POP POP PUSH3 0x213 JUMP JUMPDEST PUSH1 0x0 CALLER SWAP1 POP SWAP1 JUMP JUMPDEST PUSH1 0x0 DUP1 PUSH1 0x0 SWAP1 SLOAD SWAP1 PUSH2 0x100 EXP SWAP1 DIV PUSH20 0xFFFFFFFFFFFFFFFFFFFFFFFFFFFFFFFFFFFFFFFF AND SWAP1 POP DUP2 PUSH1 0x0 DUP1 PUSH2 0x100 EXP DUP2 SLOAD DUP2 PUSH20 0xFFFFFFFFFFFFFFFFFFFFFFFFFFFFFFFFFFFFFFFF MUL NOT AND SWAP1 DUP4 PUSH20 0xFFFFFFFFFFFFFFFFFFFFFFFFFFFFFFFFFFFFFFFF AND MUL OR SWAP1 SSTORE POP DUP2 PUSH20 0xFFFFFFFFFFFFFFFFFFFFFFFFFFFFFFFFFFFFFFFF AND DUP2 PUSH20 0xFFFFFFFFFFFFFFFFFFFFFFFFFFFFFFFFFFFFFFFF AND PUSH32 0x8BE0079C531659141344CD1FD0A4F28419497F9722A3DAAFE3B4186F6B6457E0 PUSH1 0x40 MLOAD PUSH1 0x40 MLOAD DUP1 SWAP2 SUB SWAP1 LOG3 POP POP JUMP JUMPDEST PUSH1 0x0 DUP2 MLOAD SWAP1 POP PUSH3 0x188 DUP2 PUSH3 0x1F9 JUMP JUMPDEST SWAP3 SWAP2 POP POP JUMP JUMPDEST PUSH1 0x0 PUSH1 0x20 DUP3 DUP5 SUB SLT ISZERO PUSH3 0x1A7 JUMPI PUSH3 0x1A6 PUSH3 0x1F4 JUMP JUMPDEST JUMPDEST PUSH1 0x0 PUSH3 0x1B7 DUP5 DUP3 DUP6 ADD PUSH3 0x177 JUMP JUMPDEST SWAP2 POP POP SWAP3 SWAP2 POP POP JUMP JUMPDEST PUSH1 0x0 PUSH3 0x1CD DUP3 PUSH3 0x1D4 JUMP JUMPDEST SWAP1 POP SWAP2 SWAP1 POP JUMP JUMPDEST PUSH1 0x0 PUSH20 0xFFFFFFFFFFFFFFFFFFFFFFFFFFFFFFFFFFFFFFFF DUP3 AND SWAP1 POP SWAP2 SWAP1 POP JUMP JUMPDEST PUSH1 0x0 DUP1 REVERT JUMPDEST PUSH3 0x204 DUP2 PUSH3 0x1C0 JUMP JUMPDEST DUP2 EQ PUSH3 0x210 JUMPI PUSH1 0x0 DUP1 REVERT JUMPDEST POP JUMP JUMPDEST PUSH2 0x2528 DUP1 PUSH3 0x223 PUSH1 0x0 CODECOPY PUSH1 0x0 RETURN INVALID PUSH1 0x80 PUSH1 0x40 MSTORE CALLVALUE DUP1 ISZERO PUSH2 0x10 JUMPI PUSH1 0x0 DUP1 REVERT JUMPDEST POP PUSH1 0x4 CALLDATASIZE LT PUSH2 0xA9 JUMPI PUSH1 0x0 CALLDATALOAD PUSH1 0xE0 SHR DUP1 PUSH4 0x715018A6 GT PUSH2 0x71 JUMPI DUP1 PUSH4 0x715018A6 EQ PUSH2 0x164 JUMPI DUP1 PUSH4 0x8DA5CB5B EQ PUSH2 0x16E JUMPI DUP1 PUSH4 0xC6255626 EQ PUSH2 0x18C JUMPI DUP1 PUSH4 0xDEAA59DF EQ PUSH2 0x1BC JUMPI DUP1 PUSH4 0xEB0C52AA EQ PUSH2 0x1D8 JUMPI DUP1 PUSH4 0xF2FDE38B EQ PUSH2 0x208 JUMPI PUSH2 0xA9 JUMP JUMPDEST DUP1 PUSH4 0x169E90BC EQ PUSH2 0xAE JUMPI DUP1 PUSH4 0x4A7DC8E0 EQ PUSH2 0xDE JUMPI DUP1 PUSH4 0x521EB273 EQ PUSH2 0xFA JUMPI DUP1 PUSH4 0x541DC014 EQ PUSH2 0x118 JUMPI DUP1 PUSH4 0x66C0BD24 EQ PUSH2 0x134 JUMPI JUMPDEST PUSH1 0x0 DUP1 REVERT JUMPDEST PUSH2 0xC8 PUSH1 0x4 DUP1 CALLDATASIZE SUB DUP2 ADD SWAP1 PUSH2 0xC3 SWAP2 SWAP1 PUSH2 0x1674 JUMP JUMPDEST PUSH2 0x224 JUMP JUMPDEST PUSH1 0x40 MLOAD PUSH2 0xD5 SWAP2 SWAP1 PUSH2 0x1DDE JUMP JUMPDEST PUSH1 0x40 MLOAD DUP1 SWAP2 SUB SWAP1 RETURN JUMPDEST PUSH2 0xF8 PUSH1 0x4 DUP1 CALLDATASIZE SUB DUP2 ADD SWAP1 PUSH2 0xF3 SWAP2 SWAP1 PUSH2 0x16FD JUMP JUMPDEST PUSH2 0x488 JUMP JUMPDEST STOP JUMPDEST PUSH2 0x102 PUSH2 0x69E JUMP JUMPDEST PUSH1 0x40 MLOAD PUSH2 0x10F SWAP2 SWAP1 PUSH2 0x1BE3 JUMP JUMPDEST PUSH1 0x40 MLOAD DUP1 SWAP2 SUB SWAP1 RETURN JUMPDEST PUSH2 0x132 PUSH1 0x4 DUP1 CALLDATASIZE SUB DUP2 ADD SWAP1 PUSH2 0x12D SWAP2 SWAP1 PUSH2 0x172A JUMP JUMPDEST PUSH2 0x6C4 JUMP JUMPDEST STOP JUMPDEST PUSH2 0x14E PUSH1 0x4 DUP1 CALLDATASIZE SUB DUP2 ADD SWAP1 PUSH2 0x149 SWAP2 SWAP1 PUSH2 0x161A JUMP JUMPDEST PUSH2 0xAFF JUMP JUMPDEST PUSH1 0x40 MLOAD PUSH2 0x15B SWAP2 SWAP1 PUSH2 0x1E00 JUMP JUMPDEST PUSH1 0x40 MLOAD DUP1 SWAP2 SUB SWAP1 RETURN JUMPDEST PUSH2 0x16C PUSH2 0xBCA JUMP JUMPDEST STOP JUMPDEST PUSH2 0x176 PUSH2 0xC52 JUMP JUMPDEST PUSH1 0x40 MLOAD PUSH2 0x183 SWAP2 SWAP1 PUSH2 0x1BC8 JUMP JUMPDEST PUSH1 0x40 MLOAD DUP1 SWAP2 SUB SWAP1 RETURN JUMPDEST PUSH2 0x1A6 PUSH1 0x4 DUP1 CALLDATASIZE SUB DUP2 ADD SWAP1 PUSH2 0x1A1 SWAP2 SWAP1 PUSH2 0x17AD JUMP JUMPDEST PUSH2 0xC7B JUMP JUMPDEST PUSH1 0x40 MLOAD PUSH2 0x1B3 SWAP2 SWAP1 PUSH2 0x1BC8 JUMP JUMPDEST PUSH1 0x40 MLOAD DUP1 SWAP2 SUB SWAP1 RETURN JUMPDEST PUSH2 0x1D6 PUSH1 0x4 DUP1 CALLDATASIZE SUB DUP2 ADD SWAP1 PUSH2 0x1D1 SWAP2 SWAP1 PUSH2 0x1647 JUMP JUMPDEST PUSH2 0xCAE JUMP JUMPDEST STOP JUMPDEST PUSH2 0x1F2 PUSH1 0x4 DUP1 CALLDATASIZE SUB DUP2 ADD SWAP1 PUSH2 0x1ED SWAP2 SWAP1 PUSH2 0x161A JUMP JUMPDEST PUSH2 0xDB1 JUMP JUMPDEST PUSH1 0x40 MLOAD PUSH2 0x1FF SWAP2 SWAP1 PUSH2 0x1E00 JUMP JUMPDEST PUSH1 0x40 MLOAD DUP1 SWAP2 SUB SWAP1 RETURN JUMPDEST PUSH2 0x222 PUSH1 0x4 DUP1 CALLDATASIZE SUB DUP2 ADD SWAP1 PUSH2 0x21D SWAP2 SWAP1 PUSH2 0x161A JUMP JUMPDEST PUSH2 0xDC9 JUMP JUMPDEST STOP JUMPDEST PUSH2 0x22C PUSH2 0x1420 JUMP JUMPDEST PUSH1 0x6 PUSH1 0x0 DUP5 PUSH20 0xFFFFFFFFFFFFFFFFFFFFFFFFFFFFFFFFFFFFFFFF AND PUSH20 0xFFFFFFFFFFFFFFFFFFFFFFFFFFFFFFFFFFFFFFFF AND DUP2 MSTORE PUSH1 0x20 ADD SWAP1 DUP2 MSTORE PUSH1 0x20 ADD PUSH1 0x0 KECCAK256 DUP3 PUSH1 0x40 MLOAD PUSH2 0x279 SWAP2 SWAP1 PUSH2 0x1B9A JUMP JUMPDEST SWAP1 DUP2 MSTORE PUSH1 0x20 ADD PUSH1 0x40 MLOAD DUP1 SWAP2 SUB SWAP1 KECCAK256 PUSH1 0x40 MLOAD DUP1 PUSH1 0xE0 ADD PUSH1 0x40 MSTORE SWAP1 DUP2 PUSH1 0x0 DUP3 ADD DUP1 SLOAD PUSH2 0x2A2 SWAP1 PUSH2 0x203D JUMP JUMPDEST DUP1 PUSH1 0x1F ADD PUSH1 0x20 DUP1 SWAP2 DIV MUL PUSH1 0x20 ADD PUSH1 0x40 MLOAD SWAP1 DUP2 ADD PUSH1 0x40 MSTORE DUP1 SWAP3 SWAP2 SWAP1 DUP2 DUP2 MSTORE PUSH1 0x20 ADD DUP3 DUP1 SLOAD PUSH2 0x2CE SWAP1 PUSH2 0x203D JUMP JUMPDEST DUP1 ISZERO PUSH2 0x31B JUMPI DUP1 PUSH1 0x1F LT PUSH2 0x2F0 JUMPI PUSH2 0x100 DUP1 DUP4 SLOAD DIV MUL DUP4 MSTORE SWAP2 PUSH1 0x20 ADD SWAP2 PUSH2 0x31B JUMP JUMPDEST DUP3 ADD SWAP2 SWAP1 PUSH1 0x0 MSTORE PUSH1 0x20 PUSH1 0x0 KECCAK256 SWAP1 JUMPDEST DUP2 SLOAD DUP2 MSTORE SWAP1 PUSH1 0x1 ADD SWAP1 PUSH1 0x20 ADD DUP1 DUP4 GT PUSH2 0x2FE JUMPI DUP3 SWAP1 SUB PUSH1 0x1F AND DUP3 ADD SWAP2 JUMPDEST POP POP POP POP POP DUP2 MSTORE PUSH1 0x20 ADD PUSH1 0x1 DUP3 ADD DUP1 SLOAD PUSH2 0x334 SWAP1 PUSH2 0x203D JUMP JUMPDEST DUP1 PUSH1 0x1F ADD PUSH1 0x20 DUP1 SWAP2 DIV MUL PUSH1 0x20 ADD PUSH1 0x40 MLOAD SWAP1 DUP2 ADD PUSH1 0x40 MSTORE DUP1 SWAP3 SWAP2 SWAP1 DUP2 DUP2 MSTORE PUSH1 0x20 ADD DUP3 DUP1 SLOAD PUSH2 0x360 SWAP1 PUSH2 0x203D JUMP JUMPDEST DUP1 ISZERO PUSH2 0x3AD JUMPI DUP1 PUSH1 0x1F LT PUSH2 0x382 JUMPI PUSH2 0x100 DUP1 DUP4 SLOAD DIV MUL DUP4 MSTORE SWAP2 PUSH1 0x20 ADD SWAP2 PUSH2 0x3AD JUMP JUMPDEST DUP3 ADD SWAP2 SWAP1 PUSH1 0x0 MSTORE PUSH1 0x20 PUSH1 0x0 KECCAK256 SWAP1 JUMPDEST DUP2 SLOAD DUP2 MSTORE SWAP1 PUSH1 0x1 ADD SWAP1 PUSH1 0x20 ADD DUP1 DUP4 GT PUSH2 0x390 JUMPI DUP3 SWAP1 SUB PUSH1 0x1F AND DUP3 ADD SWAP2 JUMPDEST POP POP POP POP POP DUP2 MSTORE PUSH1 0x20 ADD PUSH1 0x2 DUP3 ADD PUSH1 0x0 SWAP1 SLOAD SWAP1 PUSH2 0x100 EXP SWAP1 DIV PUSH20 0xFFFFFFFFFFFFFFFFFFFFFFFFFFFFFFFFFFFFFFFF AND PUSH20 0xFFFFFFFFFFFFFFFFFFFFFFFFFFFFFFFFFFFFFFFF AND PUSH20 0xFFFFFFFFFFFFFFFFFFFFFFFFFFFFFFFFFFFFFFFF AND DUP2 MSTORE PUSH1 0x20 ADD PUSH1 0x3 DUP3 ADD SLOAD DUP2 MSTORE PUSH1 0x20 ADD PUSH1 0x4 DUP3 ADD SLOAD DUP2 MSTORE PUSH1 0x20 ADD PUSH1 0x5 DUP3 ADD SLOAD DUP2 MSTORE PUSH1 0x20 ADD PUSH1 0x6 DUP3 ADD PUSH1 0x0 SWAP1 SLOAD SWAP1 PUSH2 0x100 EXP SWAP1 DIV PUSH20 0xFFFFFFFFFFFFFFFFFFFFFFFFFFFFFFFFFFFFFFFF AND PUSH20 0xFFFFFFFFFFFFFFFFFFFFFFFFFFFFFFFFFFFFFFFF AND PUSH20 0xFFFFFFFFFFFFFFFFFFFFFFFFFFFFFFFFFFFFFFFF AND DUP2 MSTORE POP POP SWAP1 POP SWAP3 SWAP2 POP POP JUMP JUMPDEST PUSH2 0x490 PUSH2 0xEC1 JUMP JUMPDEST PUSH20 0xFFFFFFFFFFFFFFFFFFFFFFFFFFFFFFFFFFFFFFFF AND PUSH2 0x4AE PUSH2 0xC52 JUMP JUMPDEST PUSH20 0xFFFFFFFFFFFFFFFFFFFFFFFFFFFFFFFFFFFFFFFF AND EQ PUSH2 0x504 JUMPI PUSH1 0x40 MLOAD PUSH32 0x8C379A000000000000000000000000000000000000000000000000000000000 DUP2 MSTORE PUSH1 0x4 ADD PUSH2 0x4FB SWAP1 PUSH2 0x1D3E JUMP JUMPDEST PUSH1 0x40 MLOAD DUP1 SWAP2 SUB SWAP1 REVERT JUMPDEST PUSH1 0x0 DUP2 SWAP1 POP PUSH1 0x0 PUSH1 0x4 PUSH1 0x0 DUP4 PUSH20 0xFFFFFFFFFFFFFFFFFFFFFFFFFFFFFFFFFFFFFFFF AND PUSH20 0xFFFFFFFFFFFFFFFFFFFFFFFFFFFFFFFFFFFFFFFF AND DUP2 MSTORE PUSH1 0x20 ADD SWAP1 DUP2 MSTORE PUSH1 0x20 ADD PUSH1 0x0 KECCAK256 SLOAD EQ PUSH2 0x58B JUMPI PUSH1 0x40 MLOAD PUSH32 0x8C379A000000000000000000000000000000000000000000000000000000000 DUP2 MSTORE PUSH1 0x4 ADD PUSH2 0x582 SWAP1 PUSH2 0x1CFE JUMP JUMPDEST PUSH1 0x40 MLOAD DUP1 SWAP2 SUB SWAP1 REVERT JUMPDEST DUP1 PUSH1 0x2 PUSH1 0x0 PUSH1 0x3 SLOAD DUP2 MSTORE PUSH1 0x20 ADD SWAP1 DUP2 MSTORE PUSH1 0x20 ADD PUSH1 0x0 KECCAK256 PUSH1 0x0 PUSH2 0x100 EXP DUP2 SLOAD DUP2 PUSH20 0xFFFFFFFFFFFFFFFFFFFFFFFFFFFFFFFFFFFFFFFF MUL NOT AND SWAP1 DUP4 PUSH20 0xFFFFFFFFFFFFFFFFFFFFFFFFFFFFFFFFFFFFFFFF AND MUL OR SWAP1 SSTORE POP PUSH1 0x3 SLOAD PUSH1 0x4 PUSH1 0x0 DUP4 PUSH20 0xFFFFFFFFFFFFFFFFFFFFFFFFFFFFFFFFFFFFFFFF AND PUSH20 0xFFFFFFFFFFFFFFFFFFFFFFFFFFFFFFFFFFFFFFFF AND DUP2 MSTORE PUSH1 0x20 ADD SWAP1 DUP2 MSTORE PUSH1 0x20 ADD PUSH1 0x0 KECCAK256 DUP2 SWAP1 SSTORE POP PUSH2 0x63B PUSH1 0x1 PUSH1 0x3 SLOAD PUSH2 0xEC9 SWAP1 SWAP2 SWAP1 PUSH4 0xFFFFFFFF AND JUMP JUMPDEST PUSH1 0x3 DUP2 SWAP1 SSTORE POP PUSH2 0x657 PUSH1 0x1 PUSH1 0x3 SLOAD PUSH2 0xEDF SWAP1 SWAP2 SWAP1 PUSH4 0xFFFFFFFF AND JUMP JUMPDEST DUP2 PUSH20 0xFFFFFFFFFFFFFFFFFFFFFFFFFFFFFFFFFFFFFFFF AND PUSH32 0xB5498D88D9AE1CB339DBE68DF2A6FDC5E7E4D8045BBD0B39F0D5648399A753F2 PUSH1 0x40 MLOAD PUSH1 0x40 MLOAD DUP1 SWAP2 SUB SWAP1 LOG3 POP POP JUMP JUMPDEST PUSH1 0x5 PUSH1 0x0 SWAP1 SLOAD SWAP1 PUSH2 0x100 EXP SWAP1 DIV PUSH20 0xFFFFFFFFFFFFFFFFFFFFFFFFFFFFFFFFFFFFFFFF AND DUP2 JUMP JUMPDEST PUSH1 0x0 PUSH20 0xFFFFFFFFFFFFFFFFFFFFFFFFFFFFFFFFFFFFFFFF AND PUSH1 0x2 PUSH1 0x0 DUP6 DUP2 MSTORE PUSH1 0x20 ADD SWAP1 DUP2 MSTORE PUSH1 0x20 ADD PUSH1 0x0 KECCAK256 PUSH1 0x0 SWAP1 SLOAD SWAP1 PUSH2 0x100 EXP SWAP1 DIV PUSH20 0xFFFFFFFFFFFFFFFFFFFFFFFFFFFFFFFFFFFFFFFF AND PUSH20 0xFFFFFFFFFFFFFFFFFFFFFFFFFFFFFFFFFFFFFFFF AND EQ ISZERO PUSH2 0x767 JUMPI PUSH1 0x40 MLOAD PUSH32 0x8C379A000000000000000000000000000000000000000000000000000000000 DUP2 MSTORE PUSH1 0x4 ADD PUSH2 0x75E SWAP1 PUSH2 0x1CDE JUMP JUMPDEST PUSH1 0x40 MLOAD DUP1 SWAP2 SUB SWAP1 REVERT JUMPDEST PUSH1 0x0 PUSH1 0x2 PUSH1 0x0 DUP6 DUP2 MSTORE PUSH1 0x20 ADD SWAP1 DUP2 MSTORE PUSH1 0x20 ADD PUSH1 0x0 KECCAK256 PUSH1 0x0 SWAP1 SLOAD SWAP1 PUSH2 0x100 EXP SWAP1 DIV PUSH20 0xFFFFFFFFFFFFFFFFFFFFFFFFFFFFFFFFFFFFFFFF AND SWAP1 POP PUSH1 0x0 DUP2 PUSH20 0xFFFFFFFFFFFFFFFFFFFFFFFFFFFFFFFFFFFFFFFF AND PUSH4 0xDD62ED3E PUSH2 0x7C5 PUSH2 0xEC1 JUMP JUMPDEST ADDRESS PUSH1 0x40 MLOAD DUP4 PUSH4 0xFFFFFFFF AND PUSH1 0xE0 SHL DUP2 MSTORE PUSH1 0x4 ADD PUSH2 0x7E3 SWAP3 SWAP2 SWAP1 PUSH2 0x1BFE JUMP JUMPDEST PUSH1 0x20 PUSH1 0x40 MLOAD DUP1 DUP4 SUB DUP2 DUP7 DUP1 EXTCODESIZE ISZERO DUP1 ISZERO PUSH2 0x7FB JUMPI PUSH1 0x0 DUP1 REVERT JUMPDEST POP GAS STATICCALL ISZERO DUP1 ISZERO PUSH2 0x80F JUMPI RETURNDATASIZE PUSH1 0x0 DUP1 RETURNDATACOPY RETURNDATASIZE PUSH1 0x0 REVERT JUMPDEST POP POP POP POP PUSH1 0x40 MLOAD RETURNDATASIZE PUSH1 0x1F NOT PUSH1 0x1F DUP3 ADD AND DUP3 ADD DUP1 PUSH1 0x40 MSTORE POP DUP2 ADD SWAP1 PUSH2 0x833 SWAP2 SWAP1 PUSH2 0x17DA JUMP JUMPDEST SWAP1 POP DUP4 DUP2 LT ISZERO PUSH2 0x878 JUMPI PUSH1 0x40 MLOAD PUSH32 0x8C379A000000000000000000000000000000000000000000000000000000000 DUP2 MSTORE PUSH1 0x4 ADD PUSH2 0x86F SWAP1 PUSH2 0x1DBE JUMP JUMPDEST PUSH1 0x40 MLOAD DUP1 SWAP2 SUB SWAP1 REVERT JUMPDEST PUSH2 0x8CE PUSH2 0x883 PUSH2 0xEC1 JUMP JUMPDEST PUSH1 0x5 PUSH1 0x0 SWAP1 SLOAD SWAP1 PUSH2 0x100 EXP SWAP1 DIV PUSH20 0xFFFFFFFFFFFFFFFFFFFFFFFFFFFFFFFFFFFFFFFF AND DUP7 DUP6 PUSH20 0xFFFFFFFFFFFFFFFFFFFFFFFFFFFFFFFFFFFFFFFF AND PUSH2 0xEF5 SWAP1 SWAP4 SWAP3 SWAP2 SWAP1 PUSH4 0xFFFFFFFF AND JUMP JUMPDEST PUSH1 0x0 PUSH1 0x6 PUSH1 0x0 PUSH2 0x8DC PUSH2 0xEC1 JUMP JUMPDEST PUSH20 0xFFFFFFFFFFFFFFFFFFFFFFFFFFFFFFFFFFFFFFFF AND PUSH20 0xFFFFFFFFFFFFFFFFFFFFFFFFFFFFFFFFFFFFFFFF AND DUP2 MSTORE PUSH1 0x20 ADD SWAP1 DUP2 MSTORE PUSH1 0x20 ADD PUSH1 0x0 KECCAK256 DUP8 PUSH1 0x40 MLOAD PUSH2 0x924 SWAP2 SWAP1 PUSH2 0x1B9A JUMP JUMPDEST SWAP1 DUP2 MSTORE PUSH1 0x20 ADD PUSH1 0x40 MLOAD DUP1 SWAP2 SUB SWAP1 KECCAK256 SWAP1 POP DUP7 DUP2 PUSH1 0x0 ADD SWAP1 DUP1 MLOAD SWAP1 PUSH1 0x20 ADD SWAP1 PUSH2 0x94C SWAP3 SWAP2 SWAP1 PUSH2 0x1489 JUMP JUMPDEST POP PUSH2 0x98A DUP8 TIMESTAMP PUSH2 0x95A PUSH2 0xEC1 JUMP JUMPDEST PUSH1 0x40 MLOAD PUSH1 0x20 ADD PUSH2 0x96C SWAP4 SWAP3 SWAP2 SWAP1 PUSH2 0x1C80 JUMP JUMPDEST PUSH1 0x40 MLOAD PUSH1 0x20 DUP2 DUP4 SUB SUB DUP2 MSTORE SWAP1 PUSH1 0x40 MSTORE DUP1 MLOAD SWAP1 PUSH1 0x20 ADD KECCAK256 PUSH1 0x0 SHR PUSH2 0xF7E JUMP JUMPDEST DUP2 PUSH1 0x1 ADD SWAP1 DUP1 MLOAD SWAP1 PUSH1 0x20 ADD SWAP1 PUSH2 0x9A1 SWAP3 SWAP2 SWAP1 PUSH2 0x1489 JUMP JUMPDEST POP PUSH1 0x2 PUSH1 0x0 DUP8 DUP2 MSTORE PUSH1 0x20 ADD SWAP1 DUP2 MSTORE PUSH1 0x20 ADD PUSH1 0x0 KECCAK256 PUSH1 0x0 SWAP1 SLOAD SWAP1 PUSH2 0x100 EXP SWAP1 DIV PUSH20 0xFFFFFFFFFFFFFFFFFFFFFFFFFFFFFFFFFFFFFFFF AND DUP2 PUSH1 0x2 ADD PUSH1 0x0 PUSH2 0x100 EXP DUP2 SLOAD DUP2 PUSH20 0xFFFFFFFFFFFFFFFFFFFFFFFFFFFFFFFFFFFFFFFF MUL NOT AND SWAP1 DUP4 PUSH20 0xFFFFFFFFFFFFFFFFFFFFFFFFFFFFFFFFFFFFFFFF AND MUL OR SWAP1 SSTORE POP DUP6 DUP2 PUSH1 0x3 ADD DUP2 SWAP1 SSTORE POP DUP5 DUP2 PUSH1 0x4 ADD DUP2 SWAP1 SSTORE POP DUP4 DUP2 PUSH1 0x5 ADD DUP2 SWAP1 SSTORE POP PUSH2 0xA3B PUSH2 0xEC1 JUMP JUMPDEST DUP2 PUSH1 0x6 ADD PUSH1 0x0 PUSH2 0x100 EXP DUP2 SLOAD DUP2 PUSH20 0xFFFFFFFFFFFFFFFFFFFFFFFFFFFFFFFFFFFFFFFF MUL NOT AND SWAP1 DUP4 PUSH20 0xFFFFFFFFFFFFFFFFFFFFFFFFFFFFFFFFFFFFFFFF AND MUL OR SWAP1 SSTORE POP PUSH2 0xA85 PUSH2 0xEC1 JUMP JUMPDEST PUSH20 0xFFFFFFFFFFFFFFFFFFFFFFFFFFFFFFFFFFFFFFFF AND DUP2 PUSH1 0x1 ADD PUSH1 0x40 MLOAD PUSH2 0xAAC SWAP2 SWAP1 PUSH2 0x1BB1 JUMP JUMPDEST PUSH1 0x40 MLOAD DUP1 SWAP2 SUB SWAP1 KECCAK256 DUP9 PUSH1 0x40 MLOAD PUSH2 0xAC2 SWAP2 SWAP1 PUSH2 0x1B9A JUMP JUMPDEST PUSH1 0x40 MLOAD DUP1 SWAP2 SUB SWAP1 KECCAK256 PUSH32 0x252EA8F225DC33AC745D0CF22974635091A5FF8332A55F6469595CAA3337A8FC PUSH1 0x40 MLOAD PUSH1 0x40 MLOAD DUP1 SWAP2 SUB SWAP1 LOG4 POP POP POP POP POP POP POP JUMP JUMPDEST PUSH1 0x0 DUP1 PUSH1 0x4 PUSH1 0x0 DUP5 PUSH20 0xFFFFFFFFFFFFFFFFFFFFFFFFFFFFFFFFFFFFFFFF AND PUSH20 0xFFFFFFFFFFFFFFFFFFFFFFFFFFFFFFFFFFFFFFFF AND DUP2 MSTORE PUSH1 0x20 ADD SWAP1 DUP2 MSTORE PUSH1 0x20 ADD PUSH1 0x0 KECCAK256 SLOAD EQ ISZERO PUSH2 0xB83 JUMPI PUSH1 0x40 MLOAD PUSH32 0x8C379A000000000000000000000000000000000000000000000000000000000 DUP2 MSTORE PUSH1 0x4 ADD PUSH2 0xB7A SWAP1 PUSH2 0x1D5E JUMP JUMPDEST PUSH1 0x40 MLOAD DUP1 SWAP2 SUB SWAP1 REVERT JUMPDEST PUSH1 0x4 PUSH1 0x0 DUP4 PUSH20 0xFFFFFFFFFFFFFFFFFFFFFFFFFFFFFFFFFFFFFFFF AND PUSH20 0xFFFFFFFFFFFFFFFFFFFFFFFFFFFFFFFFFFFFFFFF AND DUP2 MSTORE PUSH1 0x20 ADD SWAP1 DUP2 MSTORE PUSH1 0x20 ADD PUSH1 0x0 KECCAK256 SLOAD SWAP1 POP SWAP2 SWAP1 POP JUMP JUMPDEST PUSH2 0xBD2 PUSH2 0xEC1 JUMP JUMPDEST PUSH20 0xFFFFFFFFFFFFFFFFFFFFFFFFFFFFFFFFFFFFFFFF AND PUSH2 0xBF0 PUSH2 0xC52 JUMP JUMPDEST PUSH20 0xFFFFFFFFFFFFFFFFFFFFFFFFFFFFFFFFFFFFFFFF AND EQ PUSH2 0xC46 JUMPI PUSH1 0x40 MLOAD PUSH32 0x8C379A000000000000000000000000000000000000000000000000000000000 DUP2 MSTORE PUSH1 0x4 ADD PUSH2 0xC3D SWAP1 PUSH2 0x1D3E JUMP JUMPDEST PUSH1 0x40 MLOAD DUP1 SWAP2 SUB SWAP1 REVERT JUMPDEST PUSH2 0xC50 PUSH1 0x0 PUSH2 0x10DF JUMP JUMPDEST JUMP JUMPDEST PUSH1 0x0 DUP1 PUSH1 0x0 SWAP1 SLOAD SWAP1 PUSH2 0x100 EXP SWAP1 DIV PUSH20 0xFFFFFFFFFFFFFFFFFFFFFFFFFFFFFFFFFFFFFFFF AND SWAP1 POP SWAP1 JUMP JUMPDEST PUSH1 0x2 PUSH1 0x20 MSTORE DUP1 PUSH1 0x0 MSTORE PUSH1 0x40 PUSH1 0x0 KECCAK256 PUSH1 0x0 SWAP2 POP SLOAD SWAP1 PUSH2 0x100 EXP SWAP1 DIV PUSH20 0xFFFFFFFFFFFFFFFFFFFFFFFFFFFFFFFFFFFFFFFF AND DUP2 JUMP JUMPDEST PUSH2 0xCB6 PUSH2 0xEC1 JUMP JUMPDEST PUSH20 0xFFFFFFFFFFFFFFFFFFFFFFFFFFFFFFFFFFFFFFFF AND PUSH2 0xCD4 PUSH2 0xC52 JUMP JUMPDEST PUSH20 0xFFFFFFFFFFFFFFFFFFFFFFFFFFFFFFFFFFFFFFFF AND EQ PUSH2 0xD2A JUMPI PUSH1 0x40 MLOAD PUSH32 0x8C379A000000000000000000000000000000000000000000000000000000000 DUP2 MSTORE PUSH1 0x4 ADD PUSH2 0xD21 SWAP1 PUSH2 0x1D3E JUMP JUMPDEST PUSH1 0x40 MLOAD DUP1 SWAP2 SUB SWAP1 REVERT JUMPDEST DUP1 PUSH1 0x5 PUSH1 0x0 PUSH2 0x100 EXP DUP2 SLOAD DUP2 PUSH20 0xFFFFFFFFFFFFFFFFFFFFFFFFFFFFFFFFFFFFFFFF MUL NOT AND SWAP1 DUP4 PUSH20 0xFFFFFFFFFFFFFFFFFFFFFFFFFFFFFFFFFFFFFFFF AND MUL OR SWAP1 SSTORE POP DUP1 PUSH20 0xFFFFFFFFFFFFFFFFFFFFFFFFFFFFFFFFFFFFFFFF AND PUSH32 0x65AC7C44CE1402D115F5033C9DDE8B6D1E130550ECD89AC7659BC257D4F5B6D5 PUSH1 0x40 MLOAD PUSH1 0x40 MLOAD DUP1 SWAP2 SUB SWAP1 LOG2 POP JUMP JUMPDEST PUSH1 0x4 PUSH1 0x20 MSTORE DUP1 PUSH1 0x0 MSTORE PUSH1 0x40 PUSH1 0x0 KECCAK256 PUSH1 0x0 SWAP2 POP SWAP1 POP SLOAD DUP2 JUMP JUMPDEST PUSH2 0xDD1 PUSH2 0xEC1 JUMP JUMPDEST PUSH20 0xFFFFFFFFFFFFFFFFFFFFFFFFFFFFFFFFFFFFFFFF AND PUSH2 0xDEF PUSH2 0xC52 JUMP JUMPDEST PUSH20 0xFFFFFFFFFFFFFFFFFFFFFFFFFFFFFFFFFFFFFFFF AND EQ PUSH2 0xE45 JUMPI PUSH1 0x40 MLOAD PUSH32 0x8C379A000000000000000000000000000000000000000000000000000000000 DUP2 MSTORE PUSH1 0x4 ADD PUSH2 0xE3C SWAP1 PUSH2 0x1D3E JUMP JUMPDEST PUSH1 0x40 MLOAD DUP1 SWAP2 SUB SWAP1 REVERT JUMPDEST PUSH1 0x0 PUSH20 0xFFFFFFFFFFFFFFFFFFFFFFFFFFFFFFFFFFFFFFFF AND DUP2 PUSH20 0xFFFFFFFFFFFFFFFFFFFFFFFFFFFFFFFFFFFFFFFF AND EQ ISZERO PUSH2 0xEB5 JUMPI PUSH1 0x40 MLOAD PUSH32 0x8C379A000000000000000000000000000000000000000000000000000000000 DUP2 MSTORE PUSH1 0x4 ADD PUSH2 0xEAC SWAP1 PUSH2 0x1CBE JUMP JUMPDEST PUSH1 0x40 MLOAD DUP1 SWAP2 SUB SWAP1 REVERT JUMPDEST PUSH2 0xEBE DUP2 PUSH2 0x10DF JUMP JUMPDEST POP JUMP JUMPDEST PUSH1 0x0 CALLER SWAP1 POP SWAP1 JUMP JUMPDEST PUSH1 0x0 DUP2 DUP4 PUSH2 0xED7 SWAP2 SWAP1 PUSH2 0x1ED4 JUMP JUMPDEST SWAP1 POP SWAP3 SWAP2 POP POP JUMP JUMPDEST PUSH1 0x0 DUP2 DUP4 PUSH2 0xEED SWAP2 SWAP1 PUSH2 0x1F5B JUMP JUMPDEST SWAP1 POP SWAP3 SWAP2 POP POP JUMP JUMPDEST PUSH2 0xF78 DUP5 PUSH4 0x23B872DD PUSH1 0xE0 SHL DUP6 DUP6 DUP6 PUSH1 0x40 MLOAD PUSH1 0x24 ADD PUSH2 0xF16 SWAP4 SWAP3 SWAP2 SWAP1 PUSH2 0x1C27 JUMP JUMPDEST PUSH1 0x40 MLOAD PUSH1 0x20 DUP2 DUP4 SUB SUB DUP2 MSTORE SWAP1 PUSH1 0x40 MSTORE SWAP1 PUSH28 0xFFFFFFFFFFFFFFFFFFFFFFFFFFFFFFFFFFFFFFFFFFFFFFFFFFFFFFFF NOT AND PUSH1 0x20 DUP3 ADD DUP1 MLOAD PUSH28 0xFFFFFFFFFFFFFFFFFFFFFFFFFFFFFFFFFFFFFFFFFFFFFFFFFFFFFFFF DUP4 DUP2 DUP4 AND OR DUP4 MSTORE POP POP POP POP PUSH2 0x11A3 JUMP JUMPDEST POP POP POP POP JUMP JUMPDEST PUSH1 0x60 PUSH1 0x0 DUP3 EQ ISZERO PUSH2 0xFC6 JUMPI PUSH1 0x40 MLOAD DUP1 PUSH1 0x40 ADD PUSH1 0x40 MSTORE DUP1 PUSH1 0x1 DUP2 MSTORE PUSH1 0x20 ADD PUSH32 0x3000000000000000000000000000000000000000000000000000000000000000 DUP2 MSTORE POP SWAP1 POP PUSH2 0x10DA JUMP JUMPDEST PUSH1 0x0 DUP3 SWAP1 POP PUSH1 0x0 JUMPDEST PUSH1 0x0 DUP3 EQ PUSH2 0xFF8 JUMPI DUP1 DUP1 PUSH2 0xFE1 SWAP1 PUSH2 0x20A0 JUMP JUMPDEST SWAP2 POP POP PUSH1 0xA DUP3 PUSH2 0xFF1 SWAP2 SWAP1 PUSH2 0x1F2A JUMP JUMPDEST SWAP2 POP PUSH2 0xFCE JUMP JUMPDEST PUSH1 0x0 DUP2 PUSH8 0xFFFFFFFFFFFFFFFF DUP2 GT ISZERO PUSH2 0x1014 JUMPI PUSH2 0x1013 PUSH2 0x21D6 JUMP JUMPDEST JUMPDEST PUSH1 0x40 MLOAD SWAP1 DUP1 DUP3 MSTORE DUP1 PUSH1 0x1F ADD PUSH1 0x1F NOT AND PUSH1 0x20 ADD DUP3 ADD PUSH1 0x40 MSTORE DUP1 ISZERO PUSH2 0x1046 JUMPI DUP2 PUSH1 0x20 ADD PUSH1 0x1 DUP3 MUL DUP1 CALLDATASIZE DUP4 CALLDATACOPY DUP1 DUP3 ADD SWAP2 POP POP SWAP1 POP JUMPDEST POP SWAP1 POP JUMPDEST PUSH1 0x0 DUP6 EQ PUSH2 0x10D3 JUMPI PUSH1 0x1 DUP3 PUSH2 0x105F SWAP2 SWAP1 PUSH2 0x1F5B JUMP JUMPDEST SWAP2 POP PUSH1 0xA DUP6 PUSH2 0x106E SWAP2 SWAP1 PUSH2 0x20E9 JUMP JUMPDEST PUSH1 0x30 PUSH2 0x107A SWAP2 SWAP1 PUSH2 0x1ED4 JUMP JUMPDEST PUSH1 0xF8 SHL DUP2 DUP4 DUP2 MLOAD DUP2 LT PUSH2 0x1090 JUMPI PUSH2 0x108F PUSH2 0x21A7 JUMP JUMPDEST JUMPDEST PUSH1 0x20 ADD ADD SWAP1 PUSH31 0xFFFFFFFFFFFFFFFFFFFFFFFFFFFFFFFFFFFFFFFFFFFFFFFFFFFFFFFFFFFFFF NOT AND SWAP1 DUP2 PUSH1 0x0 BYTE SWAP1 MSTORE8 POP PUSH1 0xA DUP6 PUSH2 0x10CC SWAP2 SWAP1 PUSH2 0x1F2A JUMP JUMPDEST SWAP5 POP PUSH2 0x104A JUMP JUMPDEST DUP1 SWAP4 POP POP POP POP JUMPDEST SWAP2 SWAP1 POP JUMP JUMPDEST PUSH1 0x0 DUP1 PUSH1 0x0 SWAP1 SLOAD SWAP1 PUSH2 0x100 EXP SWAP1 DIV PUSH20 0xFFFFFFFFFFFFFFFFFFFFFFFFFFFFFFFFFFFFFFFF AND SWAP1 POP DUP2 PUSH1 0x0 DUP1 PUSH2 0x100 EXP DUP2 SLOAD DUP2 PUSH20 0xFFFFFFFFFFFFFFFFFFFFFFFFFFFFFFFFFFFFFFFF MUL NOT AND SWAP1 DUP4 PUSH20 0xFFFFFFFFFFFFFFFFFFFFFFFFFFFFFFFFFFFFFFFF AND MUL OR SWAP1 SSTORE POP DUP2 PUSH20 0xFFFFFFFFFFFFFFFFFFFFFFFFFFFFFFFFFFFFFFFF AND DUP2 PUSH20 0xFFFFFFFFFFFFFFFFFFFFFFFFFFFFFFFFFFFFFFFF AND PUSH32 0x8BE0079C531659141344CD1FD0A4F28419497F9722A3DAAFE3B4186F6B6457E0 PUSH1 0x40 MLOAD PUSH1 0x40 MLOAD DUP1 SWAP2 SUB SWAP1 LOG3 POP POP JUMP JUMPDEST PUSH1 0x0 PUSH2 0x1205 DUP3 PUSH1 0x40 MLOAD DUP1 PUSH1 0x40 ADD PUSH1 0x40 MSTORE DUP1 PUSH1 0x20 DUP2 MSTORE PUSH1 0x20 ADD PUSH32 0x5361666545524332303A206C6F772D6C6576656C2063616C6C206661696C6564 DUP2 MSTORE POP DUP6 PUSH20 0xFFFFFFFFFFFFFFFFFFFFFFFFFFFFFFFFFFFFFFFF AND PUSH2 0x126A SWAP1 SWAP3 SWAP2 SWAP1 PUSH4 0xFFFFFFFF AND JUMP JUMPDEST SWAP1 POP PUSH1 0x0 DUP2 MLOAD GT ISZERO PUSH2 0x1265 JUMPI DUP1 DUP1 PUSH1 0x20 ADD SWAP1 MLOAD DUP2 ADD SWAP1 PUSH2 0x1225 SWAP2 SWAP1 PUSH2 0x16D0 JUMP JUMPDEST PUSH2 0x1264 JUMPI PUSH1 0x40 MLOAD PUSH32 0x8C379A000000000000000000000000000000000000000000000000000000000 DUP2 MSTORE PUSH1 0x4 ADD PUSH2 0x125B SWAP1 PUSH2 0x1D9E JUMP JUMPDEST PUSH1 0x40 MLOAD DUP1 SWAP2 SUB SWAP1 REVERT JUMPDEST JUMPDEST POP POP POP JUMP JUMPDEST PUSH1 0x60 PUSH2 0x1279 DUP5 DUP5 PUSH1 0x0 DUP6 PUSH2 0x1282 JUMP JUMPDEST SWAP1 POP SWAP4 SWAP3 POP POP POP JUMP JUMPDEST PUSH1 0x60 DUP3 SELFBALANCE LT ISZERO PUSH2 0x12C7 JUMPI PUSH1 0x40 MLOAD PUSH32 0x8C379A000000000000000000000000000000000000000000000000000000000 DUP2 MSTORE PUSH1 0x4 ADD PUSH2 0x12BE SWAP1 PUSH2 0x1D1E JUMP JUMPDEST PUSH1 0x40 MLOAD DUP1 SWAP2 SUB SWAP1 REVERT JUMPDEST PUSH2 0x12D0 DUP6 PUSH2 0x1396 JUMP JUMPDEST PUSH2 0x130F JUMPI PUSH1 0x40 MLOAD PUSH32 0x8C379A000000000000000000000000000000000000000000000000000000000 DUP2 MSTORE PUSH1 0x4 ADD PUSH2 0x1306 SWAP1 PUSH2 0x1D7E JUMP JUMPDEST PUSH1 0x40 MLOAD DUP1 SWAP2 SUB SWAP1 REVERT JUMPDEST PUSH1 0x0 DUP1 DUP7 PUSH20 0xFFFFFFFFFFFFFFFFFFFFFFFFFFFFFFFFFFFFFFFF AND DUP6 DUP8 PUSH1 0x40 MLOAD PUSH2 0x1338 SWAP2 SWAP1 PUSH2 0x1B83 JUMP JUMPDEST PUSH1 0x0 PUSH1 0x40 MLOAD DUP1 DUP4 SUB DUP2 DUP6 DUP8 GAS CALL SWAP3 POP POP POP RETURNDATASIZE DUP1 PUSH1 0x0 DUP2 EQ PUSH2 0x1375 JUMPI PUSH1 0x40 MLOAD SWAP2 POP PUSH1 0x1F NOT PUSH1 0x3F RETURNDATASIZE ADD AND DUP3 ADD PUSH1 0x40 MSTORE RETURNDATASIZE DUP3 MSTORE RETURNDATASIZE PUSH1 0x0 PUSH1 0x20 DUP5 ADD RETURNDATACOPY PUSH2 0x137A JUMP JUMPDEST PUSH1 0x60 SWAP2 POP JUMPDEST POP SWAP2 POP SWAP2 POP PUSH2 0x138A DUP3 DUP3 DUP7 PUSH2 0x13B9 JUMP JUMPDEST SWAP3 POP POP POP SWAP5 SWAP4 POP POP POP POP JUMP JUMPDEST PUSH1 0x0 DUP1 DUP3 PUSH20 0xFFFFFFFFFFFFFFFFFFFFFFFFFFFFFFFFFFFFFFFF AND EXTCODESIZE GT SWAP1 POP SWAP2 SWAP1 POP JUMP JUMPDEST PUSH1 0x60 DUP4 ISZERO PUSH2 0x13C9 JUMPI DUP3 SWAP1 POP PUSH2 0x1419 JUMP JUMPDEST PUSH1 0x0 DUP4 MLOAD GT ISZERO PUSH2 0x13DC JUMPI DUP3 MLOAD DUP1 DUP5 PUSH1 0x20 ADD REVERT JUMPDEST DUP2 PUSH1 0x40 MLOAD PUSH32 0x8C379A000000000000000000000000000000000000000000000000000000000 DUP2 MSTORE PUSH1 0x4 ADD PUSH2 0x1410 SWAP2 SWAP1 PUSH2 0x1C5E JUMP JUMPDEST PUSH1 0x40 MLOAD DUP1 SWAP2 SUB SWAP1 REVERT JUMPDEST SWAP4 SWAP3 POP POP POP JUMP JUMPDEST PUSH1 0x40 MLOAD DUP1 PUSH1 0xE0 ADD PUSH1 0x40 MSTORE DUP1 PUSH1 0x60 DUP2 MSTORE PUSH1 0x20 ADD PUSH1 0x60 DUP2 MSTORE PUSH1 0x20 ADD PUSH1 0x0 PUSH20 0xFFFFFFFFFFFFFFFFFFFFFFFFFFFFFFFFFFFFFFFF AND DUP2 MSTORE PUSH1 0x20 ADD PUSH1 0x0 DUP2 MSTORE PUSH1 0x20 ADD PUSH1 0x0 DUP2 MSTORE PUSH1 0x20 ADD PUSH1 0x0 DUP2 MSTORE PUSH1 0x20 ADD PUSH1 0x0 PUSH20 0xFFFFFFFFFFFFFFFFFFFFFFFFFFFFFFFFFFFFFFFF AND DUP2 MSTORE POP SWAP1 JUMP JUMPDEST DUP3 DUP1 SLOAD PUSH2 0x1495 SWAP1 PUSH2 0x203D JUMP JUMPDEST SWAP1 PUSH1 0x0 MSTORE PUSH1 0x20 PUSH1 0x0 KECCAK256 SWAP1 PUSH1 0x1F ADD PUSH1 0x20 SWAP1 DIV DUP2 ADD SWAP3 DUP3 PUSH2 0x14B7 JUMPI PUSH1 0x0 DUP6 SSTORE PUSH2 0x14FE JUMP JUMPDEST DUP3 PUSH1 0x1F LT PUSH2 0x14D0 JUMPI DUP1 MLOAD PUSH1 0xFF NOT AND DUP4 DUP1 ADD OR DUP6 SSTORE PUSH2 0x14FE JUMP JUMPDEST DUP3 DUP1 ADD PUSH1 0x1 ADD DUP6 SSTORE DUP3 ISZERO PUSH2 0x14FE JUMPI SWAP2 DUP3 ADD JUMPDEST DUP3 DUP2 GT ISZERO PUSH2 0x14FD JUMPI DUP3 MLOAD DUP3 SSTORE SWAP2 PUSH1 0x20 ADD SWAP2 SWAP1 PUSH1 0x1 ADD SWAP1 PUSH2 0x14E2 JUMP JUMPDEST JUMPDEST POP SWAP1 POP PUSH2 0x150B SWAP2 SWAP1 PUSH2 0x150F JUMP JUMPDEST POP SWAP1 JUMP JUMPDEST JUMPDEST DUP1 DUP3 GT ISZERO PUSH2 0x1528 JUMPI PUSH1 0x0 DUP2 PUSH1 0x0 SWAP1 SSTORE POP PUSH1 0x1 ADD PUSH2 0x1510 JUMP JUMPDEST POP SWAP1 JUMP JUMPDEST PUSH1 0x0 PUSH2 0x153F PUSH2 0x153A DUP5 PUSH2 0x1E40 JUMP JUMPDEST PUSH2 0x1E1B JUMP JUMPDEST SWAP1 POP DUP3 DUP2 MSTORE PUSH1 0x20 DUP2 ADD DUP5 DUP5 DUP5 ADD GT ISZERO PUSH2 0x155B JUMPI PUSH2 0x155A PUSH2 0x220A JUMP JUMPDEST JUMPDEST PUSH2 0x1566 DUP5 DUP3 DUP6 PUSH2 0x1FFB JUMP JUMPDEST POP SWAP4 SWAP3 POP POP POP JUMP JUMPDEST PUSH1 0x0 DUP2 CALLDATALOAD SWAP1 POP PUSH2 0x157D DUP2 PUSH2 0x247F JUMP JUMPDEST SWAP3 SWAP2 POP POP JUMP JUMPDEST PUSH1 0x0 DUP2 CALLDATALOAD SWAP1 POP PUSH2 0x1592 DUP2 PUSH2 0x2496 JUMP JUMPDEST SWAP3 SWAP2 POP POP JUMP JUMPDEST PUSH1 0x0 DUP2 MLOAD SWAP1 POP PUSH2 0x15A7 DUP2 PUSH2 0x24AD JUMP JUMPDEST SWAP3 SWAP2 POP POP JUMP JUMPDEST PUSH1 0x0 DUP2 CALLDATALOAD SWAP1 POP PUSH2 0x15BC DUP2 PUSH2 0x24C4 JUMP JUMPDEST SWAP3 SWAP2 POP POP JUMP JUMPDEST PUSH1 0x0 DUP3 PUSH1 0x1F DUP4 ADD SLT PUSH2 0x15D7 JUMPI PUSH2 0x15D6 PUSH2 0x2205 JUMP JUMPDEST JUMPDEST DUP2 CALLDATALOAD PUSH2 0x15E7 DUP5 DUP3 PUSH1 0x20 DUP7 ADD PUSH2 0x152C JUMP JUMPDEST SWAP2 POP POP SWAP3 SWAP2 POP POP JUMP JUMPDEST PUSH1 0x0 DUP2 CALLDATALOAD SWAP1 POP PUSH2 0x15FF DUP2 PUSH2 0x24DB JUMP JUMPDEST SWAP3 SWAP2 POP POP JUMP JUMPDEST PUSH1 0x0 DUP2 MLOAD SWAP1 POP PUSH2 0x1614 DUP2 PUSH2 0x24DB JUMP JUMPDEST SWAP3 SWAP2 POP POP JUMP JUMPDEST PUSH1 0x0 PUSH1 0x20 DUP3 DUP5 SUB SLT ISZERO PUSH2 0x1630 JUMPI PUSH2 0x162F PUSH2 0x2214 JUMP JUMPDEST JUMPDEST PUSH1 0x0 PUSH2 0x163E DUP5 DUP3 DUP6 ADD PUSH2 0x156E JUMP JUMPDEST SWAP2 POP POP SWAP3 SWAP2 POP POP JUMP JUMPDEST PUSH1 0x0 PUSH1 0x20 DUP3 DUP5 SUB SLT ISZERO PUSH2 0x165D JUMPI PUSH2 0x165C PUSH2 0x2214 JUMP JUMPDEST JUMPDEST PUSH1 0x0 PUSH2 0x166B DUP5 DUP3 DUP6 ADD PUSH2 0x1583 JUMP JUMPDEST SWAP2 POP POP SWAP3 SWAP2 POP POP JUMP JUMPDEST PUSH1 0x0 DUP1 PUSH1 0x40 DUP4 DUP6 SUB SLT ISZERO PUSH2 0x168B JUMPI PUSH2 0x168A PUSH2 0x2214 JUMP JUMPDEST JUMPDEST PUSH1 0x0 PUSH2 0x1699 DUP6 DUP3 DUP7 ADD PUSH2 0x156E JUMP JUMPDEST SWAP3 POP POP PUSH1 0x20 DUP4 ADD CALLDATALOAD PUSH8 0xFFFFFFFFFFFFFFFF DUP2 GT ISZERO PUSH2 0x16BA JUMPI PUSH2 0x16B9 PUSH2 0x220F JUMP JUMPDEST JUMPDEST PUSH2 0x16C6 DUP6 DUP3 DUP7 ADD PUSH2 0x15C2 JUMP JUMPDEST SWAP2 POP POP SWAP3 POP SWAP3 SWAP1 POP JUMP JUMPDEST PUSH1 0x0 PUSH1 0x20 DUP3 DUP5 SUB SLT ISZERO PUSH2 0x16E6 JUMPI PUSH2 0x16E5 PUSH2 0x2214 JUMP JUMPDEST JUMPDEST PUSH1 0x0 PUSH2 0x16F4 DUP5 DUP3 DUP6 ADD PUSH2 0x1598 JUMP JUMPDEST SWAP2 POP POP SWAP3 SWAP2 POP POP JUMP JUMPDEST PUSH1 0x0 PUSH1 0x20 DUP3 DUP5 SUB SLT ISZERO PUSH2 0x1713 JUMPI PUSH2 0x1712 PUSH2 0x2214 JUMP JUMPDEST JUMPDEST PUSH1 0x0 PUSH2 0x1721 DUP5 DUP3 DUP6 ADD PUSH2 0x15AD JUMP JUMPDEST SWAP2 POP POP SWAP3 SWAP2 POP POP JUMP JUMPDEST PUSH1 0x0 DUP1 PUSH1 0x0 DUP1 PUSH1 0x80 DUP6 DUP8 SUB SLT ISZERO PUSH2 0x1744 JUMPI PUSH2 0x1743 PUSH2 0x2214 JUMP JUMPDEST JUMPDEST PUSH1 0x0 DUP6 ADD CALLDATALOAD PUSH8 0xFFFFFFFFFFFFFFFF DUP2 GT ISZERO PUSH2 0x1762 JUMPI PUSH2 0x1761 PUSH2 0x220F JUMP JUMPDEST JUMPDEST PUSH2 0x176E DUP8 DUP3 DUP9 ADD PUSH2 0x15C2 JUMP JUMPDEST SWAP5 POP POP PUSH1 0x20 PUSH2 0x177F DUP8 DUP3 DUP9 ADD PUSH2 0x15F0 JUMP JUMPDEST SWAP4 POP POP PUSH1 0x40 PUSH2 0x1790 DUP8 DUP3 DUP9 ADD PUSH2 0x15F0 JUMP JUMPDEST SWAP3 POP POP PUSH1 0x60 PUSH2 0x17A1 DUP8 DUP3 DUP9 ADD PUSH2 0x15F0 JUMP JUMPDEST SWAP2 POP POP SWAP3 SWAP6 SWAP2 SWAP5 POP SWAP3 POP JUMP JUMPDEST PUSH1 0x0 PUSH1 0x20 DUP3 DUP5 SUB SLT ISZERO PUSH2 0x17C3 JUMPI PUSH2 0x17C2 PUSH2 0x2214 JUMP JUMPDEST JUMPDEST PUSH1 0x0 PUSH2 0x17D1 DUP5 DUP3 DUP6 ADD PUSH2 0x15F0 JUMP JUMPDEST SWAP2 POP POP SWAP3 SWAP2 POP POP JUMP JUMPDEST PUSH1 0x0 PUSH1 0x20 DUP3 DUP5 SUB SLT ISZERO PUSH2 0x17F0 JUMPI PUSH2 0x17EF PUSH2 0x2214 JUMP JUMPDEST JUMPDEST PUSH1 0x0 PUSH2 0x17FE DUP5 DUP3 DUP6 ADD PUSH2 0x1605 JUMP JUMPDEST SWAP2 POP POP SWAP3 SWAP2 POP POP JUMP JUMPDEST PUSH2 0x1810 DUP2 PUSH2 0x1FA1 JUMP JUMPDEST DUP3 MSTORE POP POP JUMP JUMPDEST PUSH2 0x181F DUP2 PUSH2 0x1F8F JUMP JUMPDEST DUP3 MSTORE POP POP JUMP JUMPDEST PUSH2 0x182E DUP2 PUSH2 0x1F8F JUMP JUMPDEST DUP3 MSTORE POP POP JUMP JUMPDEST PUSH1 0x0 PUSH2 0x183F DUP3 PUSH2 0x1E86 JUMP JUMPDEST PUSH2 0x1849 DUP2 DUP6 PUSH2 0x1E9C JUMP JUMPDEST SWAP4 POP PUSH2 0x1859 DUP2 DUP6 PUSH1 0x20 DUP7 ADD PUSH2 0x200A JUMP JUMPDEST DUP1 DUP5 ADD SWAP2 POP POP SWAP3 SWAP2 POP POP JUMP JUMPDEST PUSH1 0x0 PUSH2 0x1870 DUP3 PUSH2 0x1E91 JUMP JUMPDEST PUSH2 0x187A DUP2 DUP6 PUSH2 0x1EA7 JUMP JUMPDEST SWAP4 POP PUSH2 0x188A DUP2 DUP6 PUSH1 0x20 DUP7 ADD PUSH2 0x200A JUMP JUMPDEST PUSH2 0x1893 DUP2 PUSH2 0x2219 JUMP JUMPDEST DUP5 ADD SWAP2 POP POP SWAP3 SWAP2 POP POP JUMP JUMPDEST PUSH1 0x0 PUSH2 0x18A9 DUP3 PUSH2 0x1E91 JUMP JUMPDEST PUSH2 0x18B3 DUP2 DUP6 PUSH2 0x1EB8 JUMP JUMPDEST SWAP4 POP PUSH2 0x18C3 DUP2 DUP6 PUSH1 0x20 DUP7 ADD PUSH2 0x200A JUMP JUMPDEST PUSH2 0x18CC DUP2 PUSH2 0x2219 JUMP JUMPDEST DUP5 ADD SWAP2 POP POP SWAP3 SWAP2 POP POP JUMP JUMPDEST PUSH1 0x0 PUSH2 0x18E2 DUP3 PUSH2 0x1E91 JUMP JUMPDEST PUSH2 0x18EC DUP2 DUP6 PUSH2 0x1EC9 JUMP JUMPDEST SWAP4 POP PUSH2 0x18FC DUP2 DUP6 PUSH1 0x20 DUP7 ADD PUSH2 0x200A JUMP JUMPDEST DUP1 DUP5 ADD SWAP2 POP POP SWAP3 SWAP2 POP POP JUMP JUMPDEST PUSH1 0x0 DUP2 SLOAD PUSH2 0x1915 DUP2 PUSH2 0x203D JUMP JUMPDEST PUSH2 0x191F DUP2 DUP7 PUSH2 0x1EC9 JUMP JUMPDEST SWAP5 POP PUSH1 0x1 DUP3 AND PUSH1 0x0 DUP2 EQ PUSH2 0x193A JUMPI PUSH1 0x1 DUP2 EQ PUSH2 0x194B JUMPI PUSH2 0x197E JUMP JUMPDEST PUSH1 0xFF NOT DUP4 AND DUP7 MSTORE DUP2 DUP7 ADD SWAP4 POP PUSH2 0x197E JUMP JUMPDEST PUSH2 0x1954 DUP6 PUSH2 0x1E71 JUMP JUMPDEST PUSH1 0x0 JUMPDEST DUP4 DUP2 LT ISZERO PUSH2 0x1976 JUMPI DUP2 SLOAD DUP2 DUP10 ADD MSTORE PUSH1 0x1 DUP3 ADD SWAP2 POP PUSH1 0x20 DUP2 ADD SWAP1 POP PUSH2 0x1957 JUMP JUMPDEST DUP4 DUP9 ADD SWAP6 POP POP POP JUMPDEST POP POP POP SWAP3 SWAP2 POP POP JUMP JUMPDEST PUSH1 0x0 PUSH2 0x1994 PUSH1 0x26 DUP4 PUSH2 0x1EB8 JUMP JUMPDEST SWAP2 POP PUSH2 0x199F DUP3 PUSH2 0x222A JUMP JUMPDEST PUSH1 0x40 DUP3 ADD SWAP1 POP SWAP2 SWAP1 POP JUMP JUMPDEST PUSH1 0x0 PUSH2 0x19B7 PUSH1 0x20 DUP4 PUSH2 0x1EB8 JUMP JUMPDEST SWAP2 POP PUSH2 0x19C2 DUP3 PUSH2 0x2279 JUMP JUMPDEST PUSH1 0x20 DUP3 ADD SWAP1 POP SWAP2 SWAP1 POP JUMP JUMPDEST PUSH1 0x0 PUSH2 0x19DA PUSH1 0x24 DUP4 PUSH2 0x1EB8 JUMP JUMPDEST SWAP2 POP PUSH2 0x19E5 DUP3 PUSH2 0x22A2 JUMP JUMPDEST PUSH1 0x40 DUP3 ADD SWAP1 POP SWAP2 SWAP1 POP JUMP JUMPDEST PUSH1 0x0 PUSH2 0x19FD PUSH1 0x26 DUP4 PUSH2 0x1EB8 JUMP JUMPDEST SWAP2 POP PUSH2 0x1A08 DUP3 PUSH2 0x22F1 JUMP JUMPDEST PUSH1 0x40 DUP3 ADD SWAP1 POP SWAP2 SWAP1 POP JUMP JUMPDEST PUSH1 0x0 PUSH2 0x1A20 PUSH1 0x20 DUP4 PUSH2 0x1EB8 JUMP JUMPDEST SWAP2 POP PUSH2 0x1A2B DUP3 PUSH2 0x2340 JUMP JUMPDEST PUSH1 0x20 DUP3 ADD SWAP1 POP SWAP2 SWAP1 POP JUMP JUMPDEST PUSH1 0x0 PUSH2 0x1A43 PUSH1 0x2C DUP4 PUSH2 0x1EB8 JUMP JUMPDEST SWAP2 POP PUSH2 0x1A4E DUP3 PUSH2 0x2369 JUMP JUMPDEST PUSH1 0x40 DUP3 ADD SWAP1 POP SWAP2 SWAP1 POP JUMP JUMPDEST PUSH1 0x0 PUSH2 0x1A66 PUSH1 0x1D DUP4 PUSH2 0x1EB8 JUMP JUMPDEST SWAP2 POP PUSH2 0x1A71 DUP3 PUSH2 0x23B8 JUMP JUMPDEST PUSH1 0x20 DUP3 ADD SWAP1 POP SWAP2 SWAP1 POP JUMP JUMPDEST PUSH1 0x0 PUSH2 0x1A89 PUSH1 0x2A DUP4 PUSH2 0x1EB8 JUMP JUMPDEST SWAP2 POP PUSH2 0x1A94 DUP3 PUSH2 0x23E1 JUMP JUMPDEST PUSH1 0x40 DUP3 ADD SWAP1 POP SWAP2 SWAP1 POP JUMP JUMPDEST PUSH1 0x0 PUSH2 0x1AAC PUSH1 0x32 DUP4 PUSH2 0x1EB8 JUMP JUMPDEST SWAP2 POP PUSH2 0x1AB7 DUP3 PUSH2 0x2430 JUMP JUMPDEST PUSH1 0x40 DUP3 ADD SWAP1 POP SWAP2 SWAP1 POP JUMP JUMPDEST PUSH1 0x0 PUSH1 0xE0 DUP4 ADD PUSH1 0x0 DUP4 ADD MLOAD DUP5 DUP3 SUB PUSH1 0x0 DUP7 ADD MSTORE PUSH2 0x1ADF DUP3 DUP3 PUSH2 0x1865 JUMP JUMPDEST SWAP2 POP POP PUSH1 0x20 DUP4 ADD MLOAD DUP5 DUP3 SUB PUSH1 0x20 DUP7 ADD MSTORE PUSH2 0x1AF9 DUP3 DUP3 PUSH2 0x1865 JUMP JUMPDEST SWAP2 POP POP PUSH1 0x40 DUP4 ADD MLOAD PUSH2 0x1B0E PUSH1 0x40 DUP7 ADD DUP3 PUSH2 0x1816 JUMP JUMPDEST POP PUSH1 0x60 DUP4 ADD MLOAD PUSH2 0x1B21 PUSH1 0x60 DUP7 ADD DUP3 PUSH2 0x1B65 JUMP JUMPDEST POP PUSH1 0x80 DUP4 ADD MLOAD PUSH2 0x1B34 PUSH1 0x80 DUP7 ADD DUP3 PUSH2 0x1B65 JUMP JUMPDEST POP PUSH1 0xA0 DUP4 ADD MLOAD PUSH2 0x1B47 PUSH1 0xA0 DUP7 ADD DUP3 PUSH2 0x1B65 JUMP JUMPDEST POP PUSH1 0xC0 DUP4 ADD MLOAD PUSH2 0x1B5A PUSH1 0xC0 DUP7 ADD DUP3 PUSH2 0x1816 JUMP JUMPDEST POP DUP1 SWAP2 POP POP SWAP3 SWAP2 POP POP JUMP JUMPDEST PUSH2 0x1B6E DUP2 PUSH2 0x1FF1 JUMP JUMPDEST DUP3 MSTORE POP POP JUMP JUMPDEST PUSH2 0x1B7D DUP2 PUSH2 0x1FF1 JUMP JUMPDEST DUP3 MSTORE POP POP JUMP JUMPDEST PUSH1 0x0 PUSH2 0x1B8F DUP3 DUP5 PUSH2 0x1834 JUMP JUMPDEST SWAP2 POP DUP2 SWAP1 POP SWAP3 SWAP2 POP POP JUMP JUMPDEST PUSH1 0x0 PUSH2 0x1BA6 DUP3 DUP5 PUSH2 0x18D7 JUMP JUMPDEST SWAP2 POP DUP2 SWAP1 POP SWAP3 SWAP2 POP POP JUMP JUMPDEST PUSH1 0x0 PUSH2 0x1BBD DUP3 DUP5 PUSH2 0x1908 JUMP JUMPDEST SWAP2 POP DUP2 SWAP1 POP SWAP3 SWAP2 POP POP JUMP JUMPDEST PUSH1 0x0 PUSH1 0x20 DUP3 ADD SWAP1 POP PUSH2 0x1BDD PUSH1 0x0 DUP4 ADD DUP5 PUSH2 0x1825 JUMP JUMPDEST SWAP3 SWAP2 POP POP JUMP JUMPDEST PUSH1 0x0 PUSH1 0x20 DUP3 ADD SWAP1 POP PUSH2 0x1BF8 PUSH1 0x0 DUP4 ADD DUP5 PUSH2 0x1807 JUMP JUMPDEST SWAP3 SWAP2 POP POP JUMP JUMPDEST PUSH1 0x0 PUSH1 0x40 DUP3 ADD SWAP1 POP PUSH2 0x1C13 PUSH1 0x0 DUP4 ADD DUP6 PUSH2 0x1825 JUMP JUMPDEST PUSH2 0x1C20 PUSH1 0x20 DUP4 ADD DUP5 PUSH2 0x1825 JUMP JUMPDEST SWAP4 SWAP3 POP POP POP JUMP JUMPDEST PUSH1 0x0 PUSH1 0x60 DUP3 ADD SWAP1 POP PUSH2 0x1C3C PUSH1 0x0 DUP4 ADD DUP7 PUSH2 0x1825 JUMP JUMPDEST PUSH2 0x1C49 PUSH1 0x20 DUP4 ADD DUP6 PUSH2 0x1825 JUMP JUMPDEST PUSH2 0x1C56 PUSH1 0x40 DUP4 ADD DUP5 PUSH2 0x1B74 JUMP JUMPDEST SWAP5 SWAP4 POP POP POP POP JUMP JUMPDEST PUSH1 0x0 PUSH1 0x20 DUP3 ADD SWAP1 POP DUP2 DUP2 SUB PUSH1 0x0 DUP4 ADD MSTORE PUSH2 0x1C78 DUP2 DUP5 PUSH2 0x189E JUMP JUMPDEST SWAP1 POP SWAP3 SWAP2 POP POP JUMP JUMPDEST PUSH1 0x0 PUSH1 0x60 DUP3 ADD SWAP1 POP DUP2 DUP2 SUB PUSH1 0x0 DUP4 ADD MSTORE PUSH2 0x1C9A DUP2 DUP7 PUSH2 0x189E JUMP JUMPDEST SWAP1 POP PUSH2 0x1CA9 PUSH1 0x20 DUP4 ADD DUP6 PUSH2 0x1B74 JUMP JUMPDEST PUSH2 0x1CB6 PUSH1 0x40 DUP4 ADD DUP5 PUSH2 0x1825 JUMP JUMPDEST SWAP5 SWAP4 POP POP POP POP JUMP JUMPDEST PUSH1 0x0 PUSH1 0x20 DUP3 ADD SWAP1 POP DUP2 DUP2 SUB PUSH1 0x0 DUP4 ADD MSTORE PUSH2 0x1CD7 DUP2 PUSH2 0x1987 JUMP JUMPDEST SWAP1 POP SWAP2 SWAP1 POP JUMP JUMPDEST PUSH1 0x0 PUSH1 0x20 DUP3 ADD SWAP1 POP DUP2 DUP2 SUB PUSH1 0x0 DUP4 ADD MSTORE PUSH2 0x1CF7 DUP2 PUSH2 0x19AA JUMP JUMPDEST SWAP1 POP SWAP2 SWAP1 POP JUMP JUMPDEST PUSH1 0x0 PUSH1 0x20 DUP3 ADD SWAP1 POP DUP2 DUP2 SUB PUSH1 0x0 DUP4 ADD MSTORE PUSH2 0x1D17 DUP2 PUSH2 0x19CD JUMP JUMPDEST SWAP1 POP SWAP2 SWAP1 POP JUMP JUMPDEST PUSH1 0x0 PUSH1 0x20 DUP3 ADD SWAP1 POP DUP2 DUP2 SUB PUSH1 0x0 DUP4 ADD MSTORE PUSH2 0x1D37 DUP2 PUSH2 0x19F0 JUMP JUMPDEST SWAP1 POP SWAP2 SWAP1 POP JUMP JUMPDEST PUSH1 0x0 PUSH1 0x20 DUP3 ADD SWAP1 POP DUP2 DUP2 SUB PUSH1 0x0 DUP4 ADD MSTORE PUSH2 0x1D57 DUP2 PUSH2 0x1A13 JUMP JUMPDEST SWAP1 POP SWAP2 SWAP1 POP JUMP JUMPDEST PUSH1 0x0 PUSH1 0x20 DUP3 ADD SWAP1 POP DUP2 DUP2 SUB PUSH1 0x0 DUP4 ADD MSTORE PUSH2 0x1D77 DUP2 PUSH2 0x1A36 JUMP JUMPDEST SWAP1 POP SWAP2 SWAP1 POP JUMP JUMPDEST PUSH1 0x0 PUSH1 0x20 DUP3 ADD SWAP1 POP DUP2 DUP2 SUB PUSH1 0x0 DUP4 ADD MSTORE PUSH2 0x1D97 DUP2 PUSH2 0x1A59 JUMP JUMPDEST SWAP1 POP SWAP2 SWAP1 POP JUMP JUMPDEST PUSH1 0x0 PUSH1 0x20 DUP3 ADD SWAP1 POP DUP2 DUP2 SUB PUSH1 0x0 DUP4 ADD MSTORE PUSH2 0x1DB7 DUP2 PUSH2 0x1A7C JUMP JUMPDEST SWAP1 POP SWAP2 SWAP1 POP JUMP JUMPDEST PUSH1 0x0 PUSH1 0x20 DUP3 ADD SWAP1 POP DUP2 DUP2 SUB PUSH1 0x0 DUP4 ADD MSTORE PUSH2 0x1DD7 DUP2 PUSH2 0x1A9F JUMP JUMPDEST SWAP1 POP SWAP2 SWAP1 POP JUMP JUMPDEST PUSH1 0x0 PUSH1 0x20 DUP3 ADD SWAP1 POP DUP2 DUP2 SUB PUSH1 0x0 DUP4 ADD MSTORE PUSH2 0x1DF8 DUP2 DUP5 PUSH2 0x1AC2 JUMP JUMPDEST SWAP1 POP SWAP3 SWAP2 POP POP JUMP JUMPDEST PUSH1 0x0 PUSH1 0x20 DUP3 ADD SWAP1 POP PUSH2 0x1E15 PUSH1 0x0 DUP4 ADD DUP5 PUSH2 0x1B74 JUMP JUMPDEST SWAP3 SWAP2 POP POP JUMP JUMPDEST PUSH1 0x0 PUSH2 0x1E25 PUSH2 0x1E36 JUMP JUMPDEST SWAP1 POP PUSH2 0x1E31 DUP3 DUP3 PUSH2 0x206F JUMP JUMPDEST SWAP2 SWAP1 POP JUMP JUMPDEST PUSH1 0x0 PUSH1 0x40 MLOAD SWAP1 POP SWAP1 JUMP JUMPDEST PUSH1 0x0 PUSH8 0xFFFFFFFFFFFFFFFF DUP3 GT ISZERO PUSH2 0x1E5B JUMPI PUSH2 0x1E5A PUSH2 0x21D6 JUMP JUMPDEST JUMPDEST PUSH2 0x1E64 DUP3 PUSH2 0x2219 JUMP JUMPDEST SWAP1 POP PUSH1 0x20 DUP2 ADD SWAP1 POP SWAP2 SWAP1 POP JUMP JUMPDEST PUSH1 0x0 DUP2 SWAP1 POP DUP2 PUSH1 0x0 MSTORE PUSH1 0x20 PUSH1 0x0 KECCAK256 SWAP1 POP SWAP2 SWAP1 POP JUMP JUMPDEST PUSH1 0x0 DUP2 MLOAD SWAP1 POP SWAP2 SWAP1 POP JUMP JUMPDEST PUSH1 0x0 DUP2 MLOAD SWAP1 POP SWAP2 SWAP1 POP JUMP JUMPDEST PUSH1 0x0 DUP2 SWAP1 POP SWAP3 SWAP2 POP POP JUMP JUMPDEST PUSH1 0x0 DUP3 DUP3 MSTORE PUSH1 0x20 DUP3 ADD SWAP1 POP SWAP3 SWAP2 POP POP JUMP JUMPDEST PUSH1 0x0 DUP3 DUP3 MSTORE PUSH1 0x20 DUP3 ADD SWAP1 POP SWAP3 SWAP2 POP POP JUMP JUMPDEST PUSH1 0x0 DUP2 SWAP1 POP SWAP3 SWAP2 POP POP JUMP JUMPDEST PUSH1 0x0 PUSH2 0x1EDF DUP3 PUSH2 0x1FF1 JUMP JUMPDEST SWAP2 POP PUSH2 0x1EEA DUP4 PUSH2 0x1FF1 JUMP JUMPDEST SWAP3 POP DUP3 PUSH32 0xFFFFFFFFFFFFFFFFFFFFFFFFFFFFFFFFFFFFFFFFFFFFFFFFFFFFFFFFFFFFFFFF SUB DUP3 GT ISZERO PUSH2 0x1F1F JUMPI PUSH2 0x1F1E PUSH2 0x211A JUMP JUMPDEST JUMPDEST DUP3 DUP3 ADD SWAP1 POP SWAP3 SWAP2 POP POP JUMP JUMPDEST PUSH1 0x0 PUSH2 0x1F35 DUP3 PUSH2 0x1FF1 JUMP JUMPDEST SWAP2 POP PUSH2 0x1F40 DUP4 PUSH2 0x1FF1 JUMP JUMPDEST SWAP3 POP DUP3 PUSH2 0x1F50 JUMPI PUSH2 0x1F4F PUSH2 0x2149 JUMP JUMPDEST JUMPDEST DUP3 DUP3 DIV SWAP1 POP SWAP3 SWAP2 POP POP JUMP JUMPDEST PUSH1 0x0 PUSH2 0x1F66 DUP3 PUSH2 0x1FF1 JUMP JUMPDEST SWAP2 POP PUSH2 0x1F71 DUP4 PUSH2 0x1FF1 JUMP JUMPDEST SWAP3 POP DUP3 DUP3 LT ISZERO PUSH2 0x1F84 JUMPI PUSH2 0x1F83 PUSH2 0x211A JUMP JUMPDEST JUMPDEST DUP3 DUP3 SUB SWAP1 POP SWAP3 SWAP2 POP POP JUMP JUMPDEST PUSH1 0x0 PUSH2 0x1F9A DUP3 PUSH2 0x1FD1 JUMP JUMPDEST SWAP1 POP SWAP2 SWAP1 POP JUMP JUMPDEST PUSH1 0x0 PUSH2 0x1FAC DUP3 PUSH2 0x1FD1 JUMP JUMPDEST SWAP1 POP SWAP2 SWAP1 POP JUMP JUMPDEST PUSH1 0x0 DUP2 ISZERO ISZERO SWAP1 POP SWAP2 SWAP1 POP JUMP JUMPDEST PUSH1 0x0 PUSH2 0x1FCA DUP3 PUSH2 0x1F8F JUMP JUMPDEST SWAP1 POP SWAP2 SWAP1 POP JUMP JUMPDEST PUSH1 0x0 PUSH20 0xFFFFFFFFFFFFFFFFFFFFFFFFFFFFFFFFFFFFFFFF DUP3 AND SWAP1 POP SWAP2 SWAP1 POP JUMP JUMPDEST PUSH1 0x0 DUP2 SWAP1 POP SWAP2 SWAP1 POP JUMP JUMPDEST DUP3 DUP2 DUP4 CALLDATACOPY PUSH1 0x0 DUP4 DUP4 ADD MSTORE POP POP POP JUMP JUMPDEST PUSH1 0x0 JUMPDEST DUP4 DUP2 LT ISZERO PUSH2 0x2028 JUMPI DUP1 DUP3 ADD MLOAD DUP2 DUP5 ADD MSTORE PUSH1 0x20 DUP2 ADD SWAP1 POP PUSH2 0x200D JUMP JUMPDEST DUP4 DUP2 GT ISZERO PUSH2 0x2037 JUMPI PUSH1 0x0 DUP5 DUP5 ADD MSTORE JUMPDEST POP POP POP POP JUMP JUMPDEST PUSH1 0x0 PUSH1 0x2 DUP3 DIV SWAP1 POP PUSH1 0x1 DUP3 AND DUP1 PUSH2 0x2055 JUMPI PUSH1 0x7F DUP3 AND SWAP2 POP JUMPDEST PUSH1 0x20 DUP3 LT DUP2 EQ ISZERO PUSH2 0x2069 JUMPI PUSH2 0x2068 PUSH2 0x2178 JUMP JUMPDEST JUMPDEST POP SWAP2 SWAP1 POP JUMP JUMPDEST PUSH2 0x2078 DUP3 PUSH2 0x2219 JUMP JUMPDEST DUP2 ADD DUP2 DUP2 LT PUSH8 0xFFFFFFFFFFFFFFFF DUP3 GT OR ISZERO PUSH2 0x2097 JUMPI PUSH2 0x2096 PUSH2 0x21D6 JUMP JUMPDEST JUMPDEST DUP1 PUSH1 0x40 MSTORE POP POP POP JUMP JUMPDEST PUSH1 0x0 PUSH2 0x20AB DUP3 PUSH2 0x1FF1 JUMP JUMPDEST SWAP2 POP PUSH32 0xFFFFFFFFFFFFFFFFFFFFFFFFFFFFFFFFFFFFFFFFFFFFFFFFFFFFFFFFFFFFFFFF DUP3 EQ ISZERO PUSH2 0x20DE JUMPI PUSH2 0x20DD PUSH2 0x211A JUMP JUMPDEST JUMPDEST PUSH1 0x1 DUP3 ADD SWAP1 POP SWAP2 SWAP1 POP JUMP JUMPDEST PUSH1 0x0 PUSH2 0x20F4 DUP3 PUSH2 0x1FF1 JUMP JUMPDEST SWAP2 POP PUSH2 0x20FF DUP4 PUSH2 0x1FF1 JUMP JUMPDEST SWAP3 POP DUP3 PUSH2 0x210F JUMPI PUSH2 0x210E PUSH2 0x2149 JUMP JUMPDEST JUMPDEST DUP3 DUP3 MOD SWAP1 POP SWAP3 SWAP2 POP POP JUMP JUMPDEST PUSH32 0x4E487B7100000000000000000000000000000000000000000000000000000000 PUSH1 0x0 MSTORE PUSH1 0x11 PUSH1 0x4 MSTORE PUSH1 0x24 PUSH1 0x0 REVERT JUMPDEST PUSH32 0x4E487B7100000000000000000000000000000000000000000000000000000000 PUSH1 0x0 MSTORE PUSH1 0x12 PUSH1 0x4 MSTORE PUSH1 0x24 PUSH1 0x0 REVERT JUMPDEST PUSH32 0x4E487B7100000000000000000000000000000000000000000000000000000000 PUSH1 0x0 MSTORE PUSH1 0x22 PUSH1 0x4 MSTORE PUSH1 0x24 PUSH1 0x0 REVERT JUMPDEST PUSH32 0x4E487B7100000000000000000000000000000000000000000000000000000000 PUSH1 0x0 MSTORE PUSH1 0x32 PUSH1 0x4 MSTORE PUSH1 0x24 PUSH1 0x0 REVERT JUMPDEST PUSH32 0x4E487B7100000000000000000000000000000000000000000000000000000000 PUSH1 0x0 MSTORE PUSH1 0x41 PUSH1 0x4 MSTORE PUSH1 0x24 PUSH1 0x0 REVERT JUMPDEST PUSH1 0x0 DUP1 REVERT JUMPDEST PUSH1 0x0 DUP1 REVERT JUMPDEST PUSH1 0x0 DUP1 REVERT JUMPDEST PUSH1 0x0 DUP1 REVERT JUMPDEST PUSH1 0x0 PUSH1 0x1F NOT PUSH1 0x1F DUP4 ADD AND SWAP1 POP SWAP2 SWAP1 POP JUMP JUMPDEST PUSH32 0x4F776E61626C653A206E6577206F776E657220697320746865207A65726F2061 PUSH1 0x0 DUP3 ADD MSTORE PUSH32 0x6464726573730000000000000000000000000000000000000000000000000000 PUSH1 0x20 DUP3 ADD MSTORE POP JUMP JUMPDEST PUSH32 0x6D616B655061796D656E743A20496E76616C696420746F6B656E20696E646578 PUSH1 0x0 DUP3 ADD MSTORE POP JUMP JUMPDEST PUSH32 0x6164645061796D656E74546F6B656E3A20546F6B656E20616C72656164792061 PUSH1 0x0 DUP3 ADD MSTORE PUSH32 0x6464656400000000000000000000000000000000000000000000000000000000 PUSH1 0x20 DUP3 ADD MSTORE POP JUMP JUMPDEST PUSH32 0x416464726573733A20696E73756666696369656E742062616C616E636520666F PUSH1 0x0 DUP3 ADD MSTORE PUSH32 0x722063616C6C0000000000000000000000000000000000000000000000000000 PUSH1 0x20 DUP3 ADD MSTORE POP JUMP JUMPDEST PUSH32 0x4F776E61626C653A2063616C6C6572206973206E6F7420746865206F776E6572 PUSH1 0x0 DUP3 ADD MSTORE POP JUMP JUMPDEST PUSH32 0x676574546F6B656E496E6465783A204E6F74206120737570706F727465642070 PUSH1 0x0 DUP3 ADD MSTORE PUSH32 0x61796D656E7420746F6B656E0000000000000000000000000000000000000000 PUSH1 0x20 DUP3 ADD MSTORE POP JUMP JUMPDEST PUSH32 0x416464726573733A2063616C6C20746F206E6F6E2D636F6E7472616374000000 PUSH1 0x0 DUP3 ADD MSTORE POP JUMP JUMPDEST PUSH32 0x5361666545524332303A204552433230206F7065726174696F6E20646964206E PUSH1 0x0 DUP3 ADD MSTORE PUSH32 0x6F74207375636365656400000000000000000000000000000000000000000000 PUSH1 0x20 DUP3 ADD MSTORE POP JUMP JUMPDEST PUSH32 0x6D616B655061796D656E743A20436F6E7472616374206E6F7420617070726F76 PUSH1 0x0 DUP3 ADD MSTORE PUSH32 0x656420746F206D616B65207061796D656E740000000000000000000000000000 PUSH1 0x20 DUP3 ADD MSTORE POP JUMP JUMPDEST PUSH2 0x2488 DUP2 PUSH2 0x1F8F JUMP JUMPDEST DUP2 EQ PUSH2 0x2493 JUMPI PUSH1 0x0 DUP1 REVERT JUMPDEST POP JUMP JUMPDEST PUSH2 0x249F DUP2 PUSH2 0x1FA1 JUMP JUMPDEST DUP2 EQ PUSH2 0x24AA JUMPI PUSH1 0x0 DUP1 REVERT JUMPDEST POP JUMP JUMPDEST PUSH2 0x24B6 DUP2 PUSH2 0x1FB3 JUMP JUMPDEST DUP2 EQ PUSH2 0x24C1 JUMPI PUSH1 0x0 DUP1 REVERT JUMPDEST POP JUMP JUMPDEST PUSH2 0x24CD DUP2 PUSH2 0x1FBF JUMP JUMPDEST DUP2 EQ PUSH2 0x24D8 JUMPI PUSH1 0x0 DUP1 REVERT JUMPDEST POP JUMP JUMPDEST PUSH2 0x24E4 DUP2 PUSH2 0x1FF1 JUMP JUMPDEST DUP2 EQ PUSH2 0x24EF JUMPI PUSH1 0x0 DUP1 REVERT JUMPDEST POP JUMP INVALID LOG2 PUSH5 0x6970667358 0x22 SLT KECCAK256 DUP6 PUSH17 0xBD60D3C21469B15CD5B21993987887EEA2 0xC6 OR JUMP 0x2F 0xC1 CALLER BASEFEE JUMP PUSH20 0x5CD2D87F64736F6C634300080700330000000000 "
				},
				"gasEstimates": {
					"creation": {
						"codeDepositCost": "1902400",
						"executionCost": "infinite",
						"totalCost": "infinite"
					},
					"external": {
						"addPaymentToken(address)": "infinite",
						"getTokenIndex(address)": "5146",
						"getTransactionDetails(address,string)": "infinite",
						"makePayment(string,uint256,uint256,uint256)": "infinite",
						"owner()": "2544",
						"paymentTokensIndex(address)": "2902",
						"renounceOwnership()": "30374",
						"setWallet(address)": "28189",
						"supportedTokens(uint256)": "2883",
						"transferOwnership(address)": "30833",
						"wallet()": "2559"
					}
				},
				"methodIdentifiers": {
					"addPaymentToken(address)": "4a7dc8e0",
					"getTokenIndex(address)": "66c0bd24",
					"getTransactionDetails(address,string)": "169e90bc",
					"makePayment(string,uint256,uint256,uint256)": "541dc014",
					"owner()": "8da5cb5b",
					"paymentTokensIndex(address)": "eb0c52aa",
					"renounceOwnership()": "715018a6",
					"setWallet(address)": "deaa59df",
					"supportedTokens(uint256)": "c6255626",
					"transferOwnership(address)": "f2fde38b",
					"wallet()": "521eb273"
				}
			},
			"userdoc": {
				"kind": "user",
				"methods": {},
				"version": 1
			}
		}
	}
}