{
	"contracts/Payment.sol": {
		"Payment": {
			"abi": [
				{
					"inputs": [
						{
							"internalType": "address payable",
							"name": "_wallet",
							"type": "address"
						}
					],
					"stateMutability": "nonpayable",
					"type": "constructor"
				},
				{
					"anonymous": false,
					"inputs": [
						{
							"indexed": true,
							"internalType": "address",
							"name": "tokenAddress",
							"type": "address"
						},
						{
							"indexed": true,
							"internalType": "uint256",
							"name": "tokenIndex",
							"type": "uint256"
						}
					],
					"name": "NewTokenAdded",
					"type": "event"
				},
				{
					"anonymous": false,
					"inputs": [
						{
							"indexed": true,
							"internalType": "address",
							"name": "walletAddress",
							"type": "address"
						}
					],
					"name": "NewWalletSet",
					"type": "event"
				},
				{
					"anonymous": false,
					"inputs": [
						{
							"indexed": true,
							"internalType": "address",
							"name": "previousOwner",
							"type": "address"
						},
						{
							"indexed": true,
							"internalType": "address",
							"name": "newOwner",
							"type": "address"
						}
					],
					"name": "OwnershipTransferred",
					"type": "event"
				},
				{
					"anonymous": false,
					"inputs": [
						{
							"indexed": true,
							"internalType": "string",
							"name": "orderID",
							"type": "string"
						},
						{
							"indexed": true,
							"internalType": "string",
							"name": "paymentID",
							"type": "string"
						},
						{
							"indexed": true,
							"internalType": "address",
							"name": "buyer",
							"type": "address"
						}
					],
					"name": "TransactionMade",
					"type": "event"
				},
				{
					"inputs": [
						{
							"internalType": "address",
							"name": "newTokenAddress",
							"type": "address"
						}
					],
					"name": "addPaymentToken",
					"outputs": [],
					"stateMutability": "nonpayable",
					"type": "function"
				},
				{
					"inputs": [
						{
							"internalType": "address",
							"name": "tokenAddress",
							"type": "address"
						}
					],
					"name": "getTokenIndex",
					"outputs": [
						{
							"internalType": "uint256",
							"name": "",
							"type": "uint256"
						}
					],
					"stateMutability": "view",
					"type": "function"
				},
				{
					"inputs": [
						{
							"internalType": "address",
							"name": "buyer",
							"type": "address"
						},
						{
							"internalType": "string",
							"name": "orderId",
							"type": "string"
						}
					],
					"name": "getTransactionDetails",
					"outputs": [
						{
							"components": [
								{
									"internalType": "string",
									"name": "orderID",
									"type": "string"
								},
								{
									"internalType": "string",
									"name": "paymentID",
									"type": "string"
								},
								{
									"internalType": "address",
									"name": "tokenAddress",
									"type": "address"
								},
								{
									"internalType": "uint256",
									"name": "tokenIndex",
									"type": "uint256"
								},
								{
									"internalType": "uint256",
									"name": "totalPrice",
									"type": "uint256"
								},
								{
									"internalType": "uint256",
									"name": "totalQty",
									"type": "uint256"
								},
								{
									"internalType": "uint256",
									"name": "numOfProducts",
									"type": "uint256"
								},
								{
									"internalType": "address",
									"name": "buyer",
									"type": "address"
								}
							],
							"internalType": "struct Payment.OrderDetail",
							"name": "",
							"type": "tuple"
						}
					],
					"stateMutability": "view",
					"type": "function"
				},
				{
					"inputs": [
						{
							"internalType": "string",
							"name": "orderId",
							"type": "string"
						},
						{
							"internalType": "uint256",
							"name": "tokenIndex",
							"type": "uint256"
						},
						{
							"internalType": "uint256",
							"name": "totalPrice",
							"type": "uint256"
						},
						{
							"internalType": "uint256",
							"name": "totalQty",
							"type": "uint256"
						},
						{
							"components": [
								{
									"internalType": "string",
									"name": "asin",
									"type": "string"
								},
								{
									"internalType": "uint256",
									"name": "price",
									"type": "uint256"
								},
								{
									"internalType": "uint256",
									"name": "quantity",
									"type": "uint256"
								}
							],
							"internalType": "struct Payment.Product[]",
							"name": "products",
							"type": "tuple[]"
						}
					],
					"name": "makePayment",
					"outputs": [],
					"stateMutability": "nonpayable",
					"type": "function"
				},
				{
					"inputs": [],
					"name": "owner",
					"outputs": [
						{
							"internalType": "address",
							"name": "",
							"type": "address"
						}
					],
					"stateMutability": "view",
					"type": "function"
				},
				{
					"inputs": [
						{
							"internalType": "address",
							"name": "",
							"type": "address"
						}
					],
					"name": "paymentTokensIndex",
					"outputs": [
						{
							"internalType": "uint256",
							"name": "",
							"type": "uint256"
						}
					],
					"stateMutability": "view",
					"type": "function"
				},
				{
					"inputs": [],
					"name": "renounceOwnership",
					"outputs": [],
					"stateMutability": "nonpayable",
					"type": "function"
				},
				{
					"inputs": [
						{
							"internalType": "address payable",
							"name": "newWallet",
							"type": "address"
						}
					],
					"name": "setWallet",
					"outputs": [],
					"stateMutability": "nonpayable",
					"type": "function"
				},
				{
					"inputs": [
						{
							"internalType": "uint256",
							"name": "",
							"type": "uint256"
						}
					],
					"name": "supportedTokens",
					"outputs": [
						{
							"internalType": "address",
							"name": "",
							"type": "address"
						}
					],
					"stateMutability": "view",
					"type": "function"
				},
				{
					"inputs": [
						{
							"internalType": "address",
							"name": "newOwner",
							"type": "address"
						}
					],
					"name": "transferOwnership",
					"outputs": [],
					"stateMutability": "nonpayable",
					"type": "function"
				},
				{
					"inputs": [],
					"name": "wallet",
					"outputs": [
						{
							"internalType": "address payable",
							"name": "",
							"type": "address"
						}
					],
					"stateMutability": "view",
					"type": "function"
				}
			],
			"devdoc": {
				"kind": "dev",
				"methods": {
					"owner()": {
						"details": "Returns the address of the current owner."
					},
					"renounceOwnership()": {
						"details": "Leaves the contract without owner. It will not be possible to call `onlyOwner` functions anymore. Can only be called by the current owner. NOTE: Renouncing ownership will leave the contract without an owner, thereby removing any functionality that is only available to the owner."
					},
					"transferOwnership(address)": {
						"details": "Transfers ownership of the contract to a new account (`newOwner`). Can only be called by the current owner."
					}
				},
				"version": 1
			},
			"evm": {
				"assembly": "    /* \"contracts/Payment.sol\":307:4259  contract Payment is Context, Ownable, ReentrancyGuard{\r... */\n  mstore(0x40, 0x80)\n    /* \"contracts/Payment.sol\":544:545  1 */\n  0x01\n    /* \"contracts/Payment.sol\":523:545  uint256 tokenCount = 1 */\n  0x03\n  sstore\n    /* \"contracts/Payment.sol\":1421:1493  constructor(address payable _wallet) {\r... */\n  callvalue\n  dup1\n  iszero\n  tag_1\n  jumpi\n  0x00\n  dup1\n  revert\ntag_1:\n  pop\n  mload(0x40)\n  sub(codesize, bytecodeSize)\n  dup1\n  bytecodeSize\n  dup4\n  codecopy\n  dup2\n  dup2\n  add\n  0x40\n  mstore\n  dup2\n  add\n  swap1\n  tag_2\n  swap2\n  swap1\n  tag_3\n  jump\t// in\ntag_2:\n    /* \"contracts/helpers/Ownable.sol\":942:974  _transferOwnership(_msgSender()) */\n  tag_8\n    /* \"contracts/helpers/Ownable.sol\":961:973  _msgSender() */\n  tag_9\n    /* \"contracts/helpers/Ownable.sol\":961:971  _msgSender */\n  shl(0x20, tag_10)\n    /* \"contracts/helpers/Ownable.sol\":961:973  _msgSender() */\n  0x20\n  shr\n  jump\t// in\ntag_9:\n    /* \"contracts/helpers/Ownable.sol\":942:960  _transferOwnership */\n  shl(0x20, tag_11)\n    /* \"contracts/helpers/Ownable.sol\":942:974  _transferOwnership(_msgSender()) */\n  0x20\n  shr\n  jump\t// in\ntag_8:\n    /* \"contracts/helpers/ReentrancyGuard.sol\":1734:1735  1 */\n  0x01\n    /* \"contracts/helpers/ReentrancyGuard.sol\":1845:1852  _status */\n  dup1\n    /* \"contracts/helpers/ReentrancyGuard.sol\":1845:1867  _status = _NOT_ENTERED */\n  dup2\n  swap1\n  sstore\n  pop\n    /* \"contracts/Payment.sol\":1478:1485  _wallet */\n  dup1\n    /* \"contracts/Payment.sol\":1469:1475  wallet */\n  0x05\n  0x00\n    /* \"contracts/Payment.sol\":1469:1485  wallet = _wallet */\n  0x0100\n  exp\n  dup2\n  sload\n  dup2\n  0xffffffffffffffffffffffffffffffffffffffff\n  mul\n  not\n  and\n  swap1\n  dup4\n  0xffffffffffffffffffffffffffffffffffffffff\n  and\n  mul\n  or\n  swap1\n  sstore\n  pop\n    /* \"contracts/Payment.sol\":1421:1493  constructor(address payable _wallet) {\r... */\n  pop\n    /* \"contracts/Payment.sol\":307:4259  contract Payment is Context, Ownable, ReentrancyGuard{\r... */\n  jump(tag_14)\n    /* \"contracts/helpers/Context.sol\":656:754  function _msgSender() internal view virtual returns (address) {\r... */\ntag_10:\n    /* \"contracts/helpers/Context.sol\":709:716  address */\n  0x00\n    /* \"contracts/helpers/Context.sol\":736:746  msg.sender */\n  caller\n    /* \"contracts/helpers/Context.sol\":729:746  return msg.sender */\n  swap1\n  pop\n    /* \"contracts/helpers/Context.sol\":656:754  function _msgSender() internal view virtual returns (address) {\r... */\n  swap1\n  jump\t// out\n    /* \"contracts/helpers/Ownable.sol\":2333:2524  function _transferOwnership(address newOwner) internal virtual {\r... */\ntag_11:\n    /* \"contracts/helpers/Ownable.sol\":2407:2423  address oldOwner */\n  0x00\n    /* \"contracts/helpers/Ownable.sol\":2426:2432  _owner */\n  dup1\n  0x00\n  swap1\n  sload\n  swap1\n  0x0100\n  exp\n  swap1\n  div\n  0xffffffffffffffffffffffffffffffffffffffff\n  and\n    /* \"contracts/helpers/Ownable.sol\":2407:2432  address oldOwner = _owner */\n  swap1\n  pop\n    /* \"contracts/helpers/Ownable.sol\":2452:2460  newOwner */\n  dup2\n    /* \"contracts/helpers/Ownable.sol\":2443:2449  _owner */\n  0x00\n  dup1\n    /* \"contracts/helpers/Ownable.sol\":2443:2460  _owner = newOwner */\n  0x0100\n  exp\n  dup2\n  sload\n  dup2\n  0xffffffffffffffffffffffffffffffffffffffff\n  mul\n  not\n  and\n  swap1\n  dup4\n  0xffffffffffffffffffffffffffffffffffffffff\n  and\n  mul\n  or\n  swap1\n  sstore\n  pop\n    /* \"contracts/helpers/Ownable.sol\":2507:2515  newOwner */\n  dup2\n    /* \"contracts/helpers/Ownable.sol\":2476:2516  OwnershipTransferred(oldOwner, newOwner) */\n  0xffffffffffffffffffffffffffffffffffffffff\n  and\n    /* \"contracts/helpers/Ownable.sol\":2497:2505  oldOwner */\n  dup2\n    /* \"contracts/helpers/Ownable.sol\":2476:2516  OwnershipTransferred(oldOwner, newOwner) */\n  0xffffffffffffffffffffffffffffffffffffffff\n  and\n  0x8be0079c531659141344cd1fd0a4f28419497f9722a3daafe3b4186f6b6457e0\n  mload(0x40)\n  mload(0x40)\n  dup1\n  swap2\n  sub\n  swap1\n  log3\n    /* \"contracts/helpers/Ownable.sol\":2396:2524  {\r... */\n  pop\n    /* \"contracts/helpers/Ownable.sol\":2333:2524  function _transferOwnership(address newOwner) internal virtual {\r... */\n  pop\n  jump\t// out\n    /* \"#utility.yul\":7:166   */\ntag_18:\n    /* \"#utility.yul\":72:77   */\n  0x00\n    /* \"#utility.yul\":103:109   */\n  dup2\n    /* \"#utility.yul\":97:110   */\n  mload\n    /* \"#utility.yul\":88:110   */\n  swap1\n  pop\n    /* \"#utility.yul\":119:160   */\n  tag_20\n    /* \"#utility.yul\":154:159   */\n  dup2\n    /* \"#utility.yul\":119:160   */\n  tag_21\n  jump\t// in\ntag_20:\n    /* \"#utility.yul\":7:166   */\n  swap3\n  swap2\n  pop\n  pop\n  jump\t// out\n    /* \"#utility.yul\":172:539   */\ntag_3:\n    /* \"#utility.yul\":250:256   */\n  0x00\n    /* \"#utility.yul\":299:301   */\n  0x20\n    /* \"#utility.yul\":287:296   */\n  dup3\n    /* \"#utility.yul\":278:285   */\n  dup5\n    /* \"#utility.yul\":274:297   */\n  sub\n    /* \"#utility.yul\":270:302   */\n  slt\n    /* \"#utility.yul\":267:386   */\n  iszero\n  tag_23\n  jumpi\n    /* \"#utility.yul\":305:384   */\n  tag_24\n  tag_25\n  jump\t// in\ntag_24:\n    /* \"#utility.yul\":267:386   */\ntag_23:\n    /* \"#utility.yul\":425:426   */\n  0x00\n    /* \"#utility.yul\":450:522   */\n  tag_26\n    /* \"#utility.yul\":514:521   */\n  dup5\n    /* \"#utility.yul\":505:511   */\n  dup3\n    /* \"#utility.yul\":494:503   */\n  dup6\n    /* \"#utility.yul\":490:512   */\n  add\n    /* \"#utility.yul\":450:522   */\n  tag_18\n  jump\t// in\ntag_26:\n    /* \"#utility.yul\":440:522   */\n  swap2\n  pop\n    /* \"#utility.yul\":396:532   */\n  pop\n    /* \"#utility.yul\":172:539   */\n  swap3\n  swap2\n  pop\n  pop\n  jump\t// out\n    /* \"#utility.yul\":626:730   */\ntag_29:\n    /* \"#utility.yul\":671:678   */\n  0x00\n    /* \"#utility.yul\":700:724   */\n  tag_31\n    /* \"#utility.yul\":718:723   */\n  dup3\n    /* \"#utility.yul\":700:724   */\n  tag_32\n  jump\t// in\ntag_31:\n    /* \"#utility.yul\":689:724   */\n  swap1\n  pop\n    /* \"#utility.yul\":626:730   */\n  swap2\n  swap1\n  pop\n  jump\t// out\n    /* \"#utility.yul\":736:862   */\ntag_32:\n    /* \"#utility.yul\":773:780   */\n  0x00\n    /* \"#utility.yul\":813:855   */\n  0xffffffffffffffffffffffffffffffffffffffff\n    /* \"#utility.yul\":806:811   */\n  dup3\n    /* \"#utility.yul\":802:856   */\n  and\n    /* \"#utility.yul\":791:856   */\n  swap1\n  pop\n    /* \"#utility.yul\":736:862   */\n  swap2\n  swap1\n  pop\n  jump\t// out\n    /* \"#utility.yul\":991:1108   */\ntag_25:\n    /* \"#utility.yul\":1100:1101   */\n  0x00\n    /* \"#utility.yul\":1097:1098   */\n  dup1\n    /* \"#utility.yul\":1090:1102   */\n  revert\n    /* \"#utility.yul\":1114:1252   */\ntag_21:\n    /* \"#utility.yul\":1195:1227   */\n  tag_38\n    /* \"#utility.yul\":1221:1226   */\n  dup2\n    /* \"#utility.yul\":1195:1227   */\n  tag_29\n  jump\t// in\ntag_38:\n    /* \"#utility.yul\":1188:1193   */\n  dup2\n    /* \"#utility.yul\":1185:1228   */\n  eq\n    /* \"#utility.yul\":1175:1246   */\n  tag_39\n  jumpi\n    /* \"#utility.yul\":1242:1243   */\n  0x00\n    /* \"#utility.yul\":1239:1240   */\n  dup1\n    /* \"#utility.yul\":1232:1244   */\n  revert\n    /* \"#utility.yul\":1175:1246   */\ntag_39:\n    /* \"#utility.yul\":1114:1252   */\n  pop\n  jump\t// out\n    /* \"contracts/Payment.sol\":307:4259  contract Payment is Context, Ownable, ReentrancyGuard{\r... */\ntag_14:\n  dataSize(sub_0)\n  dup1\n  dataOffset(sub_0)\n  0x00\n  codecopy\n  0x00\n  return\nstop\n\nsub_0: assembly {\n        /* \"contracts/Payment.sol\":307:4259  contract Payment is Context, Ownable, ReentrancyGuard{\r... */\n      mstore(0x40, 0x80)\n      callvalue\n      dup1\n      iszero\n      tag_1\n      jumpi\n      0x00\n      dup1\n      revert\n    tag_1:\n      pop\n      jumpi(tag_2, lt(calldatasize, 0x04))\n      shr(0xe0, calldataload(0x00))\n      dup1\n      0x715018a6\n      gt\n      tag_14\n      jumpi\n      dup1\n      0x715018a6\n      eq\n      tag_8\n      jumpi\n      dup1\n      0x8da5cb5b\n      eq\n      tag_9\n      jumpi\n      dup1\n      0xc6255626\n      eq\n      tag_10\n      jumpi\n      dup1\n      0xdeaa59df\n      eq\n      tag_11\n      jumpi\n      dup1\n      0xeb0c52aa\n      eq\n      tag_12\n      jumpi\n      dup1\n      0xf2fde38b\n      eq\n      tag_13\n      jumpi\n      jump(tag_2)\n    tag_14:\n      dup1\n      0x169e90bc\n      eq\n      tag_3\n      jumpi\n      dup1\n      0x46828eb0\n      eq\n      tag_4\n      jumpi\n      dup1\n      0x4a7dc8e0\n      eq\n      tag_5\n      jumpi\n      dup1\n      0x521eb273\n      eq\n      tag_6\n      jumpi\n      dup1\n      0x66c0bd24\n      eq\n      tag_7\n      jumpi\n    tag_2:\n      0x00\n      dup1\n      revert\n        /* \"contracts/Payment.sol\":4090:4252  function getTransactionDetails(address buyer, string memory orderId) public view returns(OrderDetail memory){\r... */\n    tag_3:\n      tag_15\n      0x04\n      dup1\n      calldatasize\n      sub\n      dup2\n      add\n      swap1\n      tag_16\n      swap2\n      swap1\n      tag_17\n      jump\t// in\n    tag_16:\n      tag_18\n      jump\t// in\n    tag_15:\n      mload(0x40)\n      tag_19\n      swap2\n      swap1\n      tag_20\n      jump\t// in\n    tag_19:\n      mload(0x40)\n      dup1\n      swap2\n      sub\n      swap1\n      return\n        /* \"contracts/Payment.sol\":1503:3325  function makePayment(\r... */\n    tag_4:\n      tag_21\n      0x04\n      dup1\n      calldatasize\n      sub\n      dup2\n      add\n      swap1\n      tag_22\n      swap2\n      swap1\n      tag_23\n      jump\t// in\n    tag_22:\n      tag_24\n      jump\t// in\n    tag_21:\n      stop\n        /* \"contracts/Payment.sol\":3504:3801  function addPaymentToken(address newTokenAddress) public onlyOwner{\r... */\n    tag_5:\n      tag_25\n      0x04\n      dup1\n      calldatasize\n      sub\n      dup2\n      add\n      swap1\n      tag_26\n      swap2\n      swap1\n      tag_27\n      jump\t// in\n    tag_26:\n      tag_28\n      jump\t// in\n    tag_25:\n      stop\n        /* \"contracts/Payment.sol\":614:643  address payable public wallet */\n    tag_6:\n      tag_29\n      tag_30\n      jump\t// in\n    tag_29:\n      mload(0x40)\n      tag_31\n      swap2\n      swap1\n      tag_32\n      jump\t// in\n    tag_31:\n      mload(0x40)\n      dup1\n      swap2\n      sub\n      swap1\n      return\n        /* \"contracts/Payment.sol\":3846:4082  function getTokenIndex(address tokenAddress) public view returns(uint256){\r... */\n    tag_7:\n      tag_33\n      0x04\n      dup1\n      calldatasize\n      sub\n      dup2\n      add\n      swap1\n      tag_34\n      swap2\n      swap1\n      tag_27\n      jump\t// in\n    tag_34:\n      tag_35\n      jump\t// in\n    tag_33:\n      mload(0x40)\n      tag_36\n      swap2\n      swap1\n      tag_37\n      jump\t// in\n    tag_36:\n      mload(0x40)\n      dup1\n      swap2\n      sub\n      swap1\n      return\n        /* \"contracts/helpers/Ownable.sol\":1714:1817  function renounceOwnership() public virtual onlyOwner {\r... */\n    tag_8:\n      tag_38\n      tag_39\n      jump\t// in\n    tag_38:\n      stop\n        /* \"contracts/helpers/Ownable.sol\":1063:1150  function owner() public view virtual returns (address) {\r... */\n    tag_9:\n      tag_40\n      tag_41\n      jump\t// in\n    tag_40:\n      mload(0x40)\n      tag_42\n      swap2\n      swap1\n      tag_43\n      jump\t// in\n    tag_42:\n      mload(0x40)\n      dup1\n      swap2\n      sub\n      swap1\n      return\n        /* \"contracts/Payment.sol\":466:516  mapping(uint256 => address) public supportedTokens */\n    tag_10:\n      tag_44\n      0x04\n      dup1\n      calldatasize\n      sub\n      dup2\n      add\n      swap1\n      tag_45\n      swap2\n      swap1\n      tag_46\n      jump\t// in\n    tag_45:\n      tag_47\n      jump\t// in\n    tag_44:\n      mload(0x40)\n      tag_48\n      swap2\n      swap1\n      tag_43\n      jump\t// in\n    tag_48:\n      mload(0x40)\n      dup1\n      swap2\n      sub\n      swap1\n      return\n        /* \"contracts/Payment.sol\":3360:3498  function setWallet(address payable newWallet) public onlyOwner{\r... */\n    tag_11:\n      tag_49\n      0x04\n      dup1\n      calldatasize\n      sub\n      dup2\n      add\n      swap1\n      tag_50\n      swap2\n      swap1\n      tag_51\n      jump\t// in\n    tag_50:\n      tag_52\n      jump\t// in\n    tag_49:\n      stop\n        /* \"contracts/Payment.sol\":552:605  mapping(address => uint256) public paymentTokensIndex */\n    tag_12:\n      tag_53\n      0x04\n      dup1\n      calldatasize\n      sub\n      dup2\n      add\n      swap1\n      tag_54\n      swap2\n      swap1\n      tag_27\n      jump\t// in\n    tag_54:\n      tag_55\n      jump\t// in\n    tag_53:\n      mload(0x40)\n      tag_56\n      swap2\n      swap1\n      tag_37\n      jump\t// in\n    tag_56:\n      mload(0x40)\n      dup1\n      swap2\n      sub\n      swap1\n      return\n        /* \"contracts/helpers/Ownable.sol\":1972:2173  function transferOwnership(address newOwner) public virtual onlyOwner {\r... */\n    tag_13:\n      tag_57\n      0x04\n      dup1\n      calldatasize\n      sub\n      dup2\n      add\n      swap1\n      tag_58\n      swap2\n      swap1\n      tag_27\n      jump\t// in\n    tag_58:\n      tag_59\n      jump\t// in\n    tag_57:\n      stop\n        /* \"contracts/Payment.sol\":4090:4252  function getTransactionDetails(address buyer, string memory orderId) public view returns(OrderDetail memory){\r... */\n    tag_18:\n        /* \"contracts/Payment.sol\":4179:4197  OrderDetail memory */\n      tag_60\n      tag_61\n      jump\t// in\n    tag_60:\n        /* \"contracts/Payment.sol\":4216:4228  transactions */\n      0x07\n        /* \"contracts/Payment.sol\":4216:4235  transactions[buyer] */\n      0x00\n        /* \"contracts/Payment.sol\":4229:4234  buyer */\n      dup5\n        /* \"contracts/Payment.sol\":4216:4235  transactions[buyer] */\n      0xffffffffffffffffffffffffffffffffffffffff\n      and\n      0xffffffffffffffffffffffffffffffffffffffff\n      and\n      dup2\n      mstore\n      0x20\n      add\n      swap1\n      dup2\n      mstore\n      0x20\n      add\n      0x00\n      keccak256\n        /* \"contracts/Payment.sol\":4236:4243  orderId */\n      dup3\n        /* \"contracts/Payment.sol\":4216:4244  transactions[buyer][orderId] */\n      mload(0x40)\n      tag_63\n      swap2\n      swap1\n      tag_64\n      jump\t// in\n    tag_63:\n      swap1\n      dup2\n      mstore\n      0x20\n      add\n      mload(0x40)\n      dup1\n      swap2\n      sub\n      swap1\n      keccak256\n        /* \"contracts/Payment.sol\":4209:4244  return transactions[buyer][orderId] */\n      mload(0x40)\n      dup1\n      0x0100\n      add\n      0x40\n      mstore\n      swap1\n      dup2\n      0x00\n      dup3\n      add\n      dup1\n      sload\n      tag_65\n      swap1\n      tag_66\n      jump\t// in\n    tag_65:\n      dup1\n      0x1f\n      add\n      0x20\n      dup1\n      swap2\n      div\n      mul\n      0x20\n      add\n      mload(0x40)\n      swap1\n      dup2\n      add\n      0x40\n      mstore\n      dup1\n      swap3\n      swap2\n      swap1\n      dup2\n      dup2\n      mstore\n      0x20\n      add\n      dup3\n      dup1\n      sload\n      tag_67\n      swap1\n      tag_66\n      jump\t// in\n    tag_67:\n      dup1\n      iszero\n      tag_68\n      jumpi\n      dup1\n      0x1f\n      lt\n      tag_69\n      jumpi\n      0x0100\n      dup1\n      dup4\n      sload\n      div\n      mul\n      dup4\n      mstore\n      swap2\n      0x20\n      add\n      swap2\n      jump(tag_68)\n    tag_69:\n      dup3\n      add\n      swap2\n      swap1\n      0x00\n      mstore\n      keccak256(0x00, 0x20)\n      swap1\n    tag_70:\n      dup2\n      sload\n      dup2\n      mstore\n      swap1\n      0x01\n      add\n      swap1\n      0x20\n      add\n      dup1\n      dup4\n      gt\n      tag_70\n      jumpi\n      dup3\n      swap1\n      sub\n      0x1f\n      and\n      dup3\n      add\n      swap2\n    tag_68:\n      pop\n      pop\n      pop\n      pop\n      pop\n      dup2\n      mstore\n      0x20\n      add\n      0x01\n      dup3\n      add\n      dup1\n      sload\n      tag_71\n      swap1\n      tag_66\n      jump\t// in\n    tag_71:\n      dup1\n      0x1f\n      add\n      0x20\n      dup1\n      swap2\n      div\n      mul\n      0x20\n      add\n      mload(0x40)\n      swap1\n      dup2\n      add\n      0x40\n      mstore\n      dup1\n      swap3\n      swap2\n      swap1\n      dup2\n      dup2\n      mstore\n      0x20\n      add\n      dup3\n      dup1\n      sload\n      tag_72\n      swap1\n      tag_66\n      jump\t// in\n    tag_72:\n      dup1\n      iszero\n      tag_73\n      jumpi\n      dup1\n      0x1f\n      lt\n      tag_74\n      jumpi\n      0x0100\n      dup1\n      dup4\n      sload\n      div\n      mul\n      dup4\n      mstore\n      swap2\n      0x20\n      add\n      swap2\n      jump(tag_73)\n    tag_74:\n      dup3\n      add\n      swap2\n      swap1\n      0x00\n      mstore\n      keccak256(0x00, 0x20)\n      swap1\n    tag_75:\n      dup2\n      sload\n      dup2\n      mstore\n      swap1\n      0x01\n      add\n      swap1\n      0x20\n      add\n      dup1\n      dup4\n      gt\n      tag_75\n      jumpi\n      dup3\n      swap1\n      sub\n      0x1f\n      and\n      dup3\n      add\n      swap2\n    tag_73:\n      pop\n      pop\n      pop\n      pop\n      pop\n      dup2\n      mstore\n      0x20\n      add\n      0x02\n      dup3\n      add\n      0x00\n      swap1\n      sload\n      swap1\n      0x0100\n      exp\n      swap1\n      div\n      0xffffffffffffffffffffffffffffffffffffffff\n      and\n      0xffffffffffffffffffffffffffffffffffffffff\n      and\n      0xffffffffffffffffffffffffffffffffffffffff\n      and\n      dup2\n      mstore\n      0x20\n      add\n      0x03\n      dup3\n      add\n      sload\n      dup2\n      mstore\n      0x20\n      add\n      0x04\n      dup3\n      add\n      sload\n      dup2\n      mstore\n      0x20\n      add\n      0x05\n      dup3\n      add\n      sload\n      dup2\n      mstore\n      0x20\n      add\n      0x06\n      dup3\n      add\n      sload\n      dup2\n      mstore\n      0x20\n      add\n      0x07\n      dup3\n      add\n      0x00\n      swap1\n      sload\n      swap1\n      0x0100\n      exp\n      swap1\n      div\n      0xffffffffffffffffffffffffffffffffffffffff\n      and\n      0xffffffffffffffffffffffffffffffffffffffff\n      and\n      0xffffffffffffffffffffffffffffffffffffffff\n      and\n      dup2\n      mstore\n      pop\n      pop\n      swap1\n      pop\n        /* \"contracts/Payment.sol\":4090:4252  function getTransactionDetails(address buyer, string memory orderId) public view returns(OrderDetail memory){\r... */\n      swap3\n      swap2\n      pop\n      pop\n      jump\t// out\n        /* \"contracts/Payment.sol\":1503:3325  function makePayment(\r... */\n    tag_24:\n        /* \"contracts/Payment.sol\":1763:1764  0 */\n      0x00\n        /* \"contracts/Payment.sol\":1724:1765  supportedTokens[tokenIndex] != address(0) */\n      0xffffffffffffffffffffffffffffffffffffffff\n      and\n        /* \"contracts/Payment.sol\":1724:1739  supportedTokens */\n      0x02\n        /* \"contracts/Payment.sol\":1724:1751  supportedTokens[tokenIndex] */\n      0x00\n        /* \"contracts/Payment.sol\":1740:1750  tokenIndex */\n      dup7\n        /* \"contracts/Payment.sol\":1724:1751  supportedTokens[tokenIndex] */\n      dup2\n      mstore\n      0x20\n      add\n      swap1\n      dup2\n      mstore\n      0x20\n      add\n      0x00\n      keccak256\n      0x00\n      swap1\n      sload\n      swap1\n      0x0100\n      exp\n      swap1\n      div\n      0xffffffffffffffffffffffffffffffffffffffff\n      and\n        /* \"contracts/Payment.sol\":1724:1765  supportedTokens[tokenIndex] != address(0) */\n      0xffffffffffffffffffffffffffffffffffffffff\n      and\n      eq\n      iszero\n        /* \"contracts/Payment.sol\":1716:1802  require(supportedTokens[tokenIndex] != address(0), \"makePayment: Invalid token index\") */\n      tag_77\n      jumpi\n      mload(0x40)\n      0x08c379a000000000000000000000000000000000000000000000000000000000\n      dup2\n      mstore\n      0x04\n      add\n      tag_78\n      swap1\n      tag_79\n      jump\t// in\n    tag_78:\n      mload(0x40)\n      dup1\n      swap2\n      sub\n      swap1\n      revert\n    tag_77:\n        /* \"contracts/Payment.sol\":1813:1832  IERC20 paymentToken */\n      0x00\n        /* \"contracts/Payment.sol\":1842:1857  supportedTokens */\n      0x02\n        /* \"contracts/Payment.sol\":1842:1869  supportedTokens[tokenIndex] */\n      0x00\n        /* \"contracts/Payment.sol\":1858:1868  tokenIndex */\n      dup7\n        /* \"contracts/Payment.sol\":1842:1869  supportedTokens[tokenIndex] */\n      dup2\n      mstore\n      0x20\n      add\n      swap1\n      dup2\n      mstore\n      0x20\n      add\n      0x00\n      keccak256\n      0x00\n      swap1\n      sload\n      swap1\n      0x0100\n      exp\n      swap1\n      div\n      0xffffffffffffffffffffffffffffffffffffffff\n      and\n        /* \"contracts/Payment.sol\":1813:1870  IERC20 paymentToken = IERC20(supportedTokens[tokenIndex]) */\n      swap1\n      pop\n        /* \"contracts/Payment.sol\":1956:1973  uint256 allowance */\n      0x00\n        /* \"contracts/Payment.sol\":1976:1988  paymentToken */\n      dup2\n        /* \"contracts/Payment.sol\":1976:1998  paymentToken.allowance */\n      0xffffffffffffffffffffffffffffffffffffffff\n      and\n      0xdd62ed3e\n        /* \"contracts/Payment.sol\":1999:2011  _msgSender() */\n      tag_80\n        /* \"contracts/Payment.sol\":1999:2009  _msgSender */\n      tag_81\n        /* \"contracts/Payment.sol\":1999:2011  _msgSender() */\n      jump\t// in\n    tag_80:\n        /* \"contracts/Payment.sol\":2021:2025  this */\n      address\n        /* \"contracts/Payment.sol\":1976:2027  paymentToken.allowance(_msgSender(), address(this)) */\n      mload(0x40)\n      dup4\n      0xffffffff\n      and\n      0xe0\n      shl\n      dup2\n      mstore\n      0x04\n      add\n      tag_82\n      swap3\n      swap2\n      swap1\n      tag_83\n      jump\t// in\n    tag_82:\n      0x20\n      mload(0x40)\n      dup1\n      dup4\n      sub\n      dup2\n      dup7\n      dup1\n      extcodesize\n      iszero\n      dup1\n      iszero\n      tag_84\n      jumpi\n      0x00\n      dup1\n      revert\n    tag_84:\n      pop\n      gas\n      staticcall\n      iszero\n      dup1\n      iszero\n      tag_86\n      jumpi\n      returndatasize\n      0x00\n      dup1\n      returndatacopy\n      revert(0x00, returndatasize)\n    tag_86:\n      pop\n      pop\n      pop\n      pop\n      mload(0x40)\n      returndatasize\n      not(0x1f)\n      0x1f\n      dup3\n      add\n      and\n      dup3\n      add\n      dup1\n      0x40\n      mstore\n      pop\n      dup2\n      add\n      swap1\n      tag_87\n      swap2\n      swap1\n      tag_88\n      jump\t// in\n    tag_87:\n        /* \"contracts/Payment.sol\":1956:2027  uint256 allowance = paymentToken.allowance(_msgSender(), address(this)) */\n      swap1\n      pop\n        /* \"contracts/Payment.sol\":2077:2087  totalPrice */\n      dup5\n        /* \"contracts/Payment.sol\":2064:2073  allowance */\n      dup2\n        /* \"contracts/Payment.sol\":2064:2087  allowance >= totalPrice */\n      lt\n      iszero\n        /* \"contracts/Payment.sol\":2056:2142  require(allowance >= totalPrice, \"makePayment: Contract not approved to make payment\") */\n      tag_89\n      jumpi\n      mload(0x40)\n      0x08c379a000000000000000000000000000000000000000000000000000000000\n      dup2\n      mstore\n      0x04\n      add\n      tag_90\n      swap1\n      tag_91\n      jump\t// in\n    tag_90:\n      mload(0x40)\n      dup1\n      swap2\n      sub\n      swap1\n      revert\n    tag_89:\n        /* \"contracts/Payment.sol\":2181:2244  paymentToken.safeTransferFrom(_msgSender(), wallet, totalPrice) */\n      tag_92\n        /* \"contracts/Payment.sol\":2211:2223  _msgSender() */\n      tag_93\n        /* \"contracts/Payment.sol\":2211:2221  _msgSender */\n      tag_81\n        /* \"contracts/Payment.sol\":2211:2223  _msgSender() */\n      jump\t// in\n    tag_93:\n        /* \"contracts/Payment.sol\":2225:2231  wallet */\n      0x05\n      0x00\n      swap1\n      sload\n      swap1\n      0x0100\n      exp\n      swap1\n      div\n      0xffffffffffffffffffffffffffffffffffffffff\n      and\n        /* \"contracts/Payment.sol\":2233:2243  totalPrice */\n      dup8\n        /* \"contracts/Payment.sol\":2181:2193  paymentToken */\n      dup6\n        /* \"contracts/Payment.sol\":2181:2210  paymentToken.safeTransferFrom */\n      0xffffffffffffffffffffffffffffffffffffffff\n      and\n      tag_94\n      swap1\n        /* \"contracts/Payment.sol\":2181:2244  paymentToken.safeTransferFrom(_msgSender(), wallet, totalPrice) */\n      swap4\n      swap3\n      swap2\n      swap1\n      0xffffffff\n      and\n      jump\t// in\n    tag_92:\n        /* \"contracts/Payment.sol\":2328:2354  OrderDetail storage detail */\n      0x00\n        /* \"contracts/Payment.sol\":2357:2369  transactions */\n      0x07\n        /* \"contracts/Payment.sol\":2357:2383  transactions[_msgSender()] */\n      0x00\n        /* \"contracts/Payment.sol\":2370:2382  _msgSender() */\n      tag_95\n        /* \"contracts/Payment.sol\":2370:2380  _msgSender */\n      tag_81\n        /* \"contracts/Payment.sol\":2370:2382  _msgSender() */\n      jump\t// in\n    tag_95:\n        /* \"contracts/Payment.sol\":2357:2383  transactions[_msgSender()] */\n      0xffffffffffffffffffffffffffffffffffffffff\n      and\n      0xffffffffffffffffffffffffffffffffffffffff\n      and\n      dup2\n      mstore\n      0x20\n      add\n      swap1\n      dup2\n      mstore\n      0x20\n      add\n      0x00\n      keccak256\n        /* \"contracts/Payment.sol\":2384:2391  orderId */\n      dup9\n        /* \"contracts/Payment.sol\":2357:2392  transactions[_msgSender()][orderId] */\n      mload(0x40)\n      tag_96\n      swap2\n      swap1\n      tag_64\n      jump\t// in\n    tag_96:\n      swap1\n      dup2\n      mstore\n      0x20\n      add\n      mload(0x40)\n      dup1\n      swap2\n      sub\n      swap1\n      keccak256\n        /* \"contracts/Payment.sol\":2328:2392  OrderDetail storage detail = transactions[_msgSender()][orderId] */\n      swap1\n      pop\n        /* \"contracts/Payment.sol\":2420:2427  orderId */\n      dup8\n        /* \"contracts/Payment.sol\":2403:2409  detail */\n      dup2\n        /* \"contracts/Payment.sol\":2403:2417  detail.orderID */\n      0x00\n      add\n        /* \"contracts/Payment.sol\":2403:2427  detail.orderID = orderId */\n      swap1\n      dup1\n      mload\n      swap1\n      0x20\n      add\n      swap1\n      tag_97\n      swap3\n      swap2\n      swap1\n      tag_98\n      jump\t// in\n    tag_97:\n      pop\n        /* \"contracts/Payment.sol\":2457:2545  Strings.toString(uint256(keccak256(abi.encode(orderId, block.timestamp, _msgSender())))) */\n      tag_99\n        /* \"contracts/Payment.sol\":2503:2510  orderId */\n      dup9\n        /* \"contracts/Payment.sol\":2512:2527  block.timestamp */\n      timestamp\n        /* \"contracts/Payment.sol\":2529:2541  _msgSender() */\n      tag_100\n        /* \"contracts/Payment.sol\":2529:2539  _msgSender */\n      tag_81\n        /* \"contracts/Payment.sol\":2529:2541  _msgSender() */\n      jump\t// in\n    tag_100:\n        /* \"contracts/Payment.sol\":2492:2542  abi.encode(orderId, block.timestamp, _msgSender()) */\n      add(0x20, mload(0x40))\n      tag_101\n      swap4\n      swap3\n      swap2\n      swap1\n      tag_102\n      jump\t// in\n    tag_101:\n      mload(0x40)\n      0x20\n      dup2\n      dup4\n      sub\n      sub\n      dup2\n      mstore\n      swap1\n      0x40\n      mstore\n        /* \"contracts/Payment.sol\":2482:2543  keccak256(abi.encode(orderId, block.timestamp, _msgSender())) */\n      dup1\n      mload\n      swap1\n      0x20\n      add\n      keccak256\n        /* \"contracts/Payment.sol\":2474:2544  uint256(keccak256(abi.encode(orderId, block.timestamp, _msgSender()))) */\n      0x00\n      shr\n        /* \"contracts/Payment.sol\":2457:2473  Strings.toString */\n      tag_103\n        /* \"contracts/Payment.sol\":2457:2545  Strings.toString(uint256(keccak256(abi.encode(orderId, block.timestamp, _msgSender())))) */\n      jump\t// in\n    tag_99:\n        /* \"contracts/Payment.sol\":2438:2444  detail */\n      dup2\n        /* \"contracts/Payment.sol\":2438:2454  detail.paymentID */\n      0x01\n      add\n        /* \"contracts/Payment.sol\":2438:2545  detail.paymentID = Strings.toString(uint256(keccak256(abi.encode(orderId, block.timestamp, _msgSender())))) */\n      swap1\n      dup1\n      mload\n      swap1\n      0x20\n      add\n      swap1\n      tag_104\n      swap3\n      swap2\n      swap1\n      tag_98\n      jump\t// in\n    tag_104:\n      pop\n        /* \"contracts/Payment.sol\":2578:2593  supportedTokens */\n      0x02\n        /* \"contracts/Payment.sol\":2578:2605  supportedTokens[tokenIndex] */\n      0x00\n        /* \"contracts/Payment.sol\":2594:2604  tokenIndex */\n      dup9\n        /* \"contracts/Payment.sol\":2578:2605  supportedTokens[tokenIndex] */\n      dup2\n      mstore\n      0x20\n      add\n      swap1\n      dup2\n      mstore\n      0x20\n      add\n      0x00\n      keccak256\n      0x00\n      swap1\n      sload\n      swap1\n      0x0100\n      exp\n      swap1\n      div\n      0xffffffffffffffffffffffffffffffffffffffff\n      and\n        /* \"contracts/Payment.sol\":2556:2562  detail */\n      dup2\n        /* \"contracts/Payment.sol\":2556:2575  detail.tokenAddress */\n      0x02\n      add\n      0x00\n        /* \"contracts/Payment.sol\":2556:2605  detail.tokenAddress = supportedTokens[tokenIndex] */\n      0x0100\n      exp\n      dup2\n      sload\n      dup2\n      0xffffffffffffffffffffffffffffffffffffffff\n      mul\n      not\n      and\n      swap1\n      dup4\n      0xffffffffffffffffffffffffffffffffffffffff\n      and\n      mul\n      or\n      swap1\n      sstore\n      pop\n        /* \"contracts/Payment.sol\":2636:2646  tokenIndex */\n      dup7\n        /* \"contracts/Payment.sol\":2616:2622  detail */\n      dup2\n        /* \"contracts/Payment.sol\":2616:2633  detail.tokenIndex */\n      0x03\n      add\n        /* \"contracts/Payment.sol\":2616:2646  detail.tokenIndex = tokenIndex */\n      dup2\n      swap1\n      sstore\n      pop\n        /* \"contracts/Payment.sol\":2677:2687  totalPrice */\n      dup6\n        /* \"contracts/Payment.sol\":2657:2663  detail */\n      dup2\n        /* \"contracts/Payment.sol\":2657:2674  detail.totalPrice */\n      0x04\n      add\n        /* \"contracts/Payment.sol\":2657:2687  detail.totalPrice = totalPrice */\n      dup2\n      swap1\n      sstore\n      pop\n        /* \"contracts/Payment.sol\":2716:2724  totalQty */\n      dup5\n        /* \"contracts/Payment.sol\":2698:2704  detail */\n      dup2\n        /* \"contracts/Payment.sol\":2698:2713  detail.totalQty */\n      0x05\n      add\n        /* \"contracts/Payment.sol\":2698:2724  detail.totalQty = totalQty */\n      dup2\n      swap1\n      sstore\n      pop\n        /* \"contracts/Payment.sol\":2758:2766  products */\n      dup4\n        /* \"contracts/Payment.sol\":2758:2773  products.length */\n      mload\n        /* \"contracts/Payment.sol\":2735:2741  detail */\n      dup2\n        /* \"contracts/Payment.sol\":2735:2755  detail.numOfProducts */\n      0x06\n      add\n        /* \"contracts/Payment.sol\":2735:2773  detail.numOfProducts = products.length */\n      dup2\n      swap1\n      sstore\n      pop\n        /* \"contracts/Payment.sol\":2799:2811  _msgSender() */\n      tag_105\n        /* \"contracts/Payment.sol\":2799:2809  _msgSender */\n      tag_81\n        /* \"contracts/Payment.sol\":2799:2811  _msgSender() */\n      jump\t// in\n    tag_105:\n        /* \"contracts/Payment.sol\":2784:2790  detail */\n      dup2\n        /* \"contracts/Payment.sol\":2784:2796  detail.buyer */\n      0x07\n      add\n      0x00\n        /* \"contracts/Payment.sol\":2784:2811  detail.buyer = _msgSender() */\n      0x0100\n      exp\n      dup2\n      sload\n      dup2\n      0xffffffffffffffffffffffffffffffffffffffff\n      mul\n      not\n      and\n      swap1\n      dup4\n      0xffffffffffffffffffffffffffffffffffffffff\n      and\n      mul\n      or\n      swap1\n      sstore\n      pop\n        /* \"contracts/Payment.sol\":2836:2842  uint i */\n      0x00\n        /* \"contracts/Payment.sol\":2832:3242  for(uint i = 0; i < products.length; i++){\r... */\n    tag_106:\n        /* \"contracts/Payment.sol\":2852:2860  products */\n      dup5\n        /* \"contracts/Payment.sol\":2852:2867  products.length */\n      mload\n        /* \"contracts/Payment.sol\":2848:2849  i */\n      dup2\n        /* \"contracts/Payment.sol\":2848:2867  i < products.length */\n      lt\n        /* \"contracts/Payment.sol\":2832:3242  for(uint i = 0; i < products.length; i++){\r... */\n      iszero\n      tag_107\n      jumpi\n        /* \"contracts/Payment.sol\":3074:3082  products */\n      dup5\n        /* \"contracts/Payment.sol\":3083:3084  i */\n      dup2\n        /* \"contracts/Payment.sol\":3074:3085  products[i] */\n      dup2\n      mload\n      dup2\n      lt\n      tag_109\n      jumpi\n      tag_110\n      tag_111\n      jump\t// in\n    tag_110:\n    tag_109:\n      0x20\n      mul\n      0x20\n      add\n      add\n      mload\n        /* \"contracts/Payment.sol\":3074:3090  products[i].asin */\n      0x00\n      add\n      mload\n        /* \"contracts/Payment.sol\":3041:3054  orderProducts */\n      0x06\n        /* \"contracts/Payment.sol\":3055:3062  orderId */\n      dup11\n        /* \"contracts/Payment.sol\":3041:3063  orderProducts[orderId] */\n      mload(0x40)\n      tag_112\n      swap2\n      swap1\n      tag_64\n      jump\t// in\n    tag_112:\n      swap1\n      dup2\n      mstore\n      0x20\n      add\n      mload(0x40)\n      dup1\n      swap2\n      sub\n      swap1\n      keccak256\n        /* \"contracts/Payment.sol\":3064:3065  i */\n      dup3\n        /* \"contracts/Payment.sol\":3041:3066  orderProducts[orderId][i] */\n      dup2\n      sload\n      dup2\n      lt\n      tag_113\n      jumpi\n      tag_114\n      tag_111\n      jump\t// in\n    tag_114:\n    tag_113:\n      swap1\n      0x00\n      mstore\n      keccak256(0x00, 0x20)\n      swap1\n      0x03\n      mul\n      add\n        /* \"contracts/Payment.sol\":3041:3071  orderProducts[orderId][i].asin */\n      0x00\n      add\n        /* \"contracts/Payment.sol\":3041:3090  orderProducts[orderId][i].asin = products[i].asin */\n      swap1\n      dup1\n      mload\n      swap1\n      0x20\n      add\n      swap1\n      tag_116\n      swap3\n      swap2\n      swap1\n      tag_98\n      jump\t// in\n    tag_116:\n      pop\n        /* \"contracts/Payment.sol\":3139:3147  products */\n      dup5\n        /* \"contracts/Payment.sol\":3148:3149  i */\n      dup2\n        /* \"contracts/Payment.sol\":3139:3150  products[i] */\n      dup2\n      mload\n      dup2\n      lt\n      tag_117\n      jumpi\n      tag_118\n      tag_111\n      jump\t// in\n    tag_118:\n    tag_117:\n      0x20\n      mul\n      0x20\n      add\n      add\n      mload\n        /* \"contracts/Payment.sol\":3139:3156  products[i].price */\n      0x20\n      add\n      mload\n        /* \"contracts/Payment.sol\":3105:3118  orderProducts */\n      0x06\n        /* \"contracts/Payment.sol\":3119:3126  orderId */\n      dup11\n        /* \"contracts/Payment.sol\":3105:3127  orderProducts[orderId] */\n      mload(0x40)\n      tag_119\n      swap2\n      swap1\n      tag_64\n      jump\t// in\n    tag_119:\n      swap1\n      dup2\n      mstore\n      0x20\n      add\n      mload(0x40)\n      dup1\n      swap2\n      sub\n      swap1\n      keccak256\n        /* \"contracts/Payment.sol\":3128:3129  i */\n      dup3\n        /* \"contracts/Payment.sol\":3105:3130  orderProducts[orderId][i] */\n      dup2\n      sload\n      dup2\n      lt\n      tag_120\n      jumpi\n      tag_121\n      tag_111\n      jump\t// in\n    tag_121:\n    tag_120:\n      swap1\n      0x00\n      mstore\n      keccak256(0x00, 0x20)\n      swap1\n      0x03\n      mul\n      add\n        /* \"contracts/Payment.sol\":3105:3136  orderProducts[orderId][i].price */\n      0x01\n      add\n        /* \"contracts/Payment.sol\":3105:3156  orderProducts[orderId][i].price = products[i].price */\n      dup2\n      swap1\n      sstore\n      pop\n        /* \"contracts/Payment.sol\":3208:3216  products */\n      dup5\n        /* \"contracts/Payment.sol\":3217:3218  i */\n      dup2\n        /* \"contracts/Payment.sol\":3208:3219  products[i] */\n      dup2\n      mload\n      dup2\n      lt\n      tag_123\n      jumpi\n      tag_124\n      tag_111\n      jump\t// in\n    tag_124:\n    tag_123:\n      0x20\n      mul\n      0x20\n      add\n      add\n      mload\n        /* \"contracts/Payment.sol\":3208:3228  products[i].quantity */\n      0x40\n      add\n      mload\n        /* \"contracts/Payment.sol\":3171:3184  orderProducts */\n      0x06\n        /* \"contracts/Payment.sol\":3185:3192  orderId */\n      dup11\n        /* \"contracts/Payment.sol\":3171:3193  orderProducts[orderId] */\n      mload(0x40)\n      tag_125\n      swap2\n      swap1\n      tag_64\n      jump\t// in\n    tag_125:\n      swap1\n      dup2\n      mstore\n      0x20\n      add\n      mload(0x40)\n      dup1\n      swap2\n      sub\n      swap1\n      keccak256\n        /* \"contracts/Payment.sol\":3194:3195  i */\n      dup3\n        /* \"contracts/Payment.sol\":3171:3196  orderProducts[orderId][i] */\n      dup2\n      sload\n      dup2\n      lt\n      tag_126\n      jumpi\n      tag_127\n      tag_111\n      jump\t// in\n    tag_127:\n    tag_126:\n      swap1\n      0x00\n      mstore\n      keccak256(0x00, 0x20)\n      swap1\n      0x03\n      mul\n      add\n        /* \"contracts/Payment.sol\":3171:3205  orderProducts[orderId][i].quantity */\n      0x02\n      add\n        /* \"contracts/Payment.sol\":3171:3228  orderProducts[orderId][i].quantity = products[i].quantity */\n      dup2\n      swap1\n      sstore\n      pop\n        /* \"contracts/Payment.sol\":2869:2872  i++ */\n      dup1\n      dup1\n      tag_129\n      swap1\n      tag_130\n      jump\t// in\n    tag_129:\n      swap2\n      pop\n      pop\n        /* \"contracts/Payment.sol\":2832:3242  for(uint i = 0; i < products.length; i++){\r... */\n      jump(tag_106)\n    tag_107:\n      pop\n        /* \"contracts/Payment.sol\":3302:3314  _msgSender() */\n      tag_131\n        /* \"contracts/Payment.sol\":3302:3312  _msgSender */\n      tag_81\n        /* \"contracts/Payment.sol\":3302:3314  _msgSender() */\n      jump\t// in\n    tag_131:\n        /* \"contracts/Payment.sol\":3259:3315  TransactionMade(orderId, detail.paymentID, _msgSender()) */\n      0xffffffffffffffffffffffffffffffffffffffff\n      and\n        /* \"contracts/Payment.sol\":3284:3290  detail */\n      dup2\n        /* \"contracts/Payment.sol\":3284:3300  detail.paymentID */\n      0x01\n      add\n        /* \"contracts/Payment.sol\":3259:3315  TransactionMade(orderId, detail.paymentID, _msgSender()) */\n      mload(0x40)\n      tag_132\n      swap2\n      swap1\n      tag_133\n      jump\t// in\n    tag_132:\n      mload(0x40)\n      dup1\n      swap2\n      sub\n      swap1\n      keccak256\n        /* \"contracts/Payment.sol\":3275:3282  orderId */\n      dup10\n        /* \"contracts/Payment.sol\":3259:3315  TransactionMade(orderId, detail.paymentID, _msgSender()) */\n      mload(0x40)\n      tag_134\n      swap2\n      swap1\n      tag_64\n      jump\t// in\n    tag_134:\n      mload(0x40)\n      dup1\n      swap2\n      sub\n      swap1\n      keccak256\n      0x252ea8f225dc33ac745d0cf22974635091a5ff8332a55f6469595caa3337a8fc\n      mload(0x40)\n      mload(0x40)\n      dup1\n      swap2\n      sub\n      swap1\n      log4\n        /* \"contracts/Payment.sol\":1705:3325  {\r... */\n      pop\n      pop\n      pop\n        /* \"contracts/Payment.sol\":1503:3325  function makePayment(\r... */\n      pop\n      pop\n      pop\n      pop\n      pop\n      jump\t// out\n        /* \"contracts/Payment.sol\":3504:3801  function addPaymentToken(address newTokenAddress) public onlyOwner{\r... */\n    tag_28:\n        /* \"contracts/helpers/Ownable.sol\":1294:1306  _msgSender() */\n      tag_136\n        /* \"contracts/helpers/Ownable.sol\":1294:1304  _msgSender */\n      tag_81\n        /* \"contracts/helpers/Ownable.sol\":1294:1306  _msgSender() */\n      jump\t// in\n    tag_136:\n        /* \"contracts/helpers/Ownable.sol\":1283:1306  owner() == _msgSender() */\n      0xffffffffffffffffffffffffffffffffffffffff\n      and\n        /* \"contracts/helpers/Ownable.sol\":1283:1290  owner() */\n      tag_137\n        /* \"contracts/helpers/Ownable.sol\":1283:1288  owner */\n      tag_41\n        /* \"contracts/helpers/Ownable.sol\":1283:1290  owner() */\n      jump\t// in\n    tag_137:\n        /* \"contracts/helpers/Ownable.sol\":1283:1306  owner() == _msgSender() */\n      0xffffffffffffffffffffffffffffffffffffffff\n      and\n      eq\n        /* \"contracts/helpers/Ownable.sol\":1275:1343  require(owner() == _msgSender(), \"Ownable: caller is not the owner\") */\n      tag_138\n      jumpi\n      mload(0x40)\n      0x08c379a000000000000000000000000000000000000000000000000000000000\n      dup2\n      mstore\n      0x04\n      add\n      tag_139\n      swap1\n      tag_140\n      jump\t// in\n    tag_139:\n      mload(0x40)\n      dup1\n      swap2\n      sub\n      swap1\n      revert\n    tag_138:\n        /* \"contracts/Payment.sol\":3611:3626  newTokenAddress */\n      dup1\n        /* \"contracts/Payment.sol\":3581:3596  supportedTokens */\n      0x02\n        /* \"contracts/Payment.sol\":3581:3608  supportedTokens[tokenCount] */\n      0x00\n        /* \"contracts/Payment.sol\":3597:3607  tokenCount */\n      sload(0x03)\n        /* \"contracts/Payment.sol\":3581:3608  supportedTokens[tokenCount] */\n      dup2\n      mstore\n      0x20\n      add\n      swap1\n      dup2\n      mstore\n      0x20\n      add\n      0x00\n      keccak256\n      0x00\n        /* \"contracts/Payment.sol\":3581:3626  supportedTokens[tokenCount] = newTokenAddress */\n      0x0100\n      exp\n      dup2\n      sload\n      dup2\n      0xffffffffffffffffffffffffffffffffffffffff\n      mul\n      not\n      and\n      swap1\n      dup4\n      0xffffffffffffffffffffffffffffffffffffffff\n      and\n      mul\n      or\n      swap1\n      sstore\n      pop\n        /* \"contracts/Payment.sol\":3675:3685  tokenCount */\n      sload(0x03)\n        /* \"contracts/Payment.sol\":3637:3655  paymentTokensIndex */\n      0x04\n        /* \"contracts/Payment.sol\":3637:3672  paymentTokensIndex[newTokenAddress] */\n      0x00\n        /* \"contracts/Payment.sol\":3656:3671  newTokenAddress */\n      dup4\n        /* \"contracts/Payment.sol\":3637:3672  paymentTokensIndex[newTokenAddress] */\n      0xffffffffffffffffffffffffffffffffffffffff\n      and\n      0xffffffffffffffffffffffffffffffffffffffff\n      and\n      dup2\n      mstore\n      0x20\n      add\n      swap1\n      dup2\n      mstore\n      0x20\n      add\n      0x00\n      keccak256\n        /* \"contracts/Payment.sol\":3637:3685  paymentTokensIndex[newTokenAddress] = tokenCount */\n      dup2\n      swap1\n      sstore\n      pop\n        /* \"contracts/Payment.sol\":3709:3726  tokenCount.add(1) */\n      tag_142\n        /* \"contracts/Payment.sol\":3724:3725  1 */\n      0x01\n        /* \"contracts/Payment.sol\":3709:3719  tokenCount */\n      sload(0x03)\n        /* \"contracts/Payment.sol\":3709:3723  tokenCount.add */\n      tag_143\n      swap1\n        /* \"contracts/Payment.sol\":3709:3726  tokenCount.add(1) */\n      swap2\n      swap1\n      0xffffffff\n      and\n      jump\t// in\n    tag_142:\n        /* \"contracts/Payment.sol\":3696:3706  tokenCount */\n      0x03\n        /* \"contracts/Payment.sol\":3696:3726  tokenCount = tokenCount.add(1) */\n      dup2\n      swap1\n      sstore\n      pop\n        /* \"contracts/Payment.sol\":3775:3792  tokenCount.sub(1) */\n      tag_144\n        /* \"contracts/Payment.sol\":3790:3791  1 */\n      0x01\n        /* \"contracts/Payment.sol\":3775:3785  tokenCount */\n      sload(0x03)\n        /* \"contracts/Payment.sol\":3775:3789  tokenCount.sub */\n      tag_145\n      swap1\n        /* \"contracts/Payment.sol\":3775:3792  tokenCount.sub(1) */\n      swap2\n      swap1\n      0xffffffff\n      and\n      jump\t// in\n    tag_144:\n        /* \"contracts/Payment.sol\":3758:3773  newTokenAddress */\n      dup2\n        /* \"contracts/Payment.sol\":3744:3793  NewTokenAdded(newTokenAddress, tokenCount.sub(1)) */\n      0xffffffffffffffffffffffffffffffffffffffff\n      and\n      0xb5498d88d9ae1cb339dbe68df2a6fdc5e7e4d8045bbd0b39f0d5648399a753f2\n      mload(0x40)\n      mload(0x40)\n      dup1\n      swap2\n      sub\n      swap1\n      log3\n        /* \"contracts/Payment.sol\":3504:3801  function addPaymentToken(address newTokenAddress) public onlyOwner{\r... */\n      pop\n      jump\t// out\n        /* \"contracts/Payment.sol\":614:643  address payable public wallet */\n    tag_30:\n      0x05\n      0x00\n      swap1\n      sload\n      swap1\n      0x0100\n      exp\n      swap1\n      div\n      0xffffffffffffffffffffffffffffffffffffffff\n      and\n      dup2\n      jump\t// out\n        /* \"contracts/Payment.sol\":3846:4082  function getTokenIndex(address tokenAddress) public view returns(uint256){\r... */\n    tag_35:\n        /* \"contracts/Payment.sol\":3911:3918  uint256 */\n      0x00\n        /* \"contracts/Payment.sol\":3974:3975  0 */\n      dup1\n        /* \"contracts/Payment.sol\":3938:3956  paymentTokensIndex */\n      0x04\n        /* \"contracts/Payment.sol\":3938:3970  paymentTokensIndex[tokenAddress] */\n      0x00\n        /* \"contracts/Payment.sol\":3957:3969  tokenAddress */\n      dup5\n        /* \"contracts/Payment.sol\":3938:3970  paymentTokensIndex[tokenAddress] */\n      0xffffffffffffffffffffffffffffffffffffffff\n      and\n      0xffffffffffffffffffffffffffffffffffffffff\n      and\n      dup2\n      mstore\n      0x20\n      add\n      swap1\n      dup2\n      mstore\n      0x20\n      add\n      0x00\n      keccak256\n      sload\n        /* \"contracts/Payment.sol\":3938:3975  paymentTokensIndex[tokenAddress] != 0 */\n      eq\n      iszero\n        /* \"contracts/Payment.sol\":3930:4024  require(paymentTokensIndex[tokenAddress] != 0, \"getTokenIndex: Not a supported payment token\") */\n      tag_147\n      jumpi\n      mload(0x40)\n      0x08c379a000000000000000000000000000000000000000000000000000000000\n      dup2\n      mstore\n      0x04\n      add\n      tag_148\n      swap1\n      tag_149\n      jump\t// in\n    tag_148:\n      mload(0x40)\n      dup1\n      swap2\n      sub\n      swap1\n      revert\n    tag_147:\n        /* \"contracts/Payment.sol\":4042:4060  paymentTokensIndex */\n      0x04\n        /* \"contracts/Payment.sol\":4042:4074  paymentTokensIndex[tokenAddress] */\n      0x00\n        /* \"contracts/Payment.sol\":4061:4073  tokenAddress */\n      dup4\n        /* \"contracts/Payment.sol\":4042:4074  paymentTokensIndex[tokenAddress] */\n      0xffffffffffffffffffffffffffffffffffffffff\n      and\n      0xffffffffffffffffffffffffffffffffffffffff\n      and\n      dup2\n      mstore\n      0x20\n      add\n      swap1\n      dup2\n      mstore\n      0x20\n      add\n      0x00\n      keccak256\n      sload\n        /* \"contracts/Payment.sol\":4035:4074  return paymentTokensIndex[tokenAddress] */\n      swap1\n      pop\n        /* \"contracts/Payment.sol\":3846:4082  function getTokenIndex(address tokenAddress) public view returns(uint256){\r... */\n      swap2\n      swap1\n      pop\n      jump\t// out\n        /* \"contracts/helpers/Ownable.sol\":1714:1817  function renounceOwnership() public virtual onlyOwner {\r... */\n    tag_39:\n        /* \"contracts/helpers/Ownable.sol\":1294:1306  _msgSender() */\n      tag_151\n        /* \"contracts/helpers/Ownable.sol\":1294:1304  _msgSender */\n      tag_81\n        /* \"contracts/helpers/Ownable.sol\":1294:1306  _msgSender() */\n      jump\t// in\n    tag_151:\n        /* \"contracts/helpers/Ownable.sol\":1283:1306  owner() == _msgSender() */\n      0xffffffffffffffffffffffffffffffffffffffff\n      and\n        /* \"contracts/helpers/Ownable.sol\":1283:1290  owner() */\n      tag_152\n        /* \"contracts/helpers/Ownable.sol\":1283:1288  owner */\n      tag_41\n        /* \"contracts/helpers/Ownable.sol\":1283:1290  owner() */\n      jump\t// in\n    tag_152:\n        /* \"contracts/helpers/Ownable.sol\":1283:1306  owner() == _msgSender() */\n      0xffffffffffffffffffffffffffffffffffffffff\n      and\n      eq\n        /* \"contracts/helpers/Ownable.sol\":1275:1343  require(owner() == _msgSender(), \"Ownable: caller is not the owner\") */\n      tag_153\n      jumpi\n      mload(0x40)\n      0x08c379a000000000000000000000000000000000000000000000000000000000\n      dup2\n      mstore\n      0x04\n      add\n      tag_154\n      swap1\n      tag_140\n      jump\t// in\n    tag_154:\n      mload(0x40)\n      dup1\n      swap2\n      sub\n      swap1\n      revert\n    tag_153:\n        /* \"contracts/helpers/Ownable.sol\":1779:1809  _transferOwnership(address(0)) */\n      tag_156\n        /* \"contracts/helpers/Ownable.sol\":1806:1807  0 */\n      0x00\n        /* \"contracts/helpers/Ownable.sol\":1779:1797  _transferOwnership */\n      tag_157\n        /* \"contracts/helpers/Ownable.sol\":1779:1809  _transferOwnership(address(0)) */\n      jump\t// in\n    tag_156:\n        /* \"contracts/helpers/Ownable.sol\":1714:1817  function renounceOwnership() public virtual onlyOwner {\r... */\n      jump\t// out\n        /* \"contracts/helpers/Ownable.sol\":1063:1150  function owner() public view virtual returns (address) {\r... */\n    tag_41:\n        /* \"contracts/helpers/Ownable.sol\":1109:1116  address */\n      0x00\n        /* \"contracts/helpers/Ownable.sol\":1136:1142  _owner */\n      dup1\n      0x00\n      swap1\n      sload\n      swap1\n      0x0100\n      exp\n      swap1\n      div\n      0xffffffffffffffffffffffffffffffffffffffff\n      and\n        /* \"contracts/helpers/Ownable.sol\":1129:1142  return _owner */\n      swap1\n      pop\n        /* \"contracts/helpers/Ownable.sol\":1063:1150  function owner() public view virtual returns (address) {\r... */\n      swap1\n      jump\t// out\n        /* \"contracts/Payment.sol\":466:516  mapping(uint256 => address) public supportedTokens */\n    tag_47:\n      mstore(0x20, 0x02)\n      dup1\n      0x00\n      mstore\n      keccak256(0x00, 0x40)\n      0x00\n      swap2\n      pop\n      sload\n      swap1\n      0x0100\n      exp\n      swap1\n      div\n      0xffffffffffffffffffffffffffffffffffffffff\n      and\n      dup2\n      jump\t// out\n        /* \"contracts/Payment.sol\":3360:3498  function setWallet(address payable newWallet) public onlyOwner{\r... */\n    tag_52:\n        /* \"contracts/helpers/Ownable.sol\":1294:1306  _msgSender() */\n      tag_160\n        /* \"contracts/helpers/Ownable.sol\":1294:1304  _msgSender */\n      tag_81\n        /* \"contracts/helpers/Ownable.sol\":1294:1306  _msgSender() */\n      jump\t// in\n    tag_160:\n        /* \"contracts/helpers/Ownable.sol\":1283:1306  owner() == _msgSender() */\n      0xffffffffffffffffffffffffffffffffffffffff\n      and\n        /* \"contracts/helpers/Ownable.sol\":1283:1290  owner() */\n      tag_161\n        /* \"contracts/helpers/Ownable.sol\":1283:1288  owner */\n      tag_41\n        /* \"contracts/helpers/Ownable.sol\":1283:1290  owner() */\n      jump\t// in\n    tag_161:\n        /* \"contracts/helpers/Ownable.sol\":1283:1306  owner() == _msgSender() */\n      0xffffffffffffffffffffffffffffffffffffffff\n      and\n      eq\n        /* \"contracts/helpers/Ownable.sol\":1275:1343  require(owner() == _msgSender(), \"Ownable: caller is not the owner\") */\n      tag_162\n      jumpi\n      mload(0x40)\n      0x08c379a000000000000000000000000000000000000000000000000000000000\n      dup2\n      mstore\n      0x04\n      add\n      tag_163\n      swap1\n      tag_140\n      jump\t// in\n    tag_163:\n      mload(0x40)\n      dup1\n      swap2\n      sub\n      swap1\n      revert\n    tag_162:\n        /* \"contracts/Payment.sol\":3442:3451  newWallet */\n      dup1\n        /* \"contracts/Payment.sol\":3433:3439  wallet */\n      0x05\n      0x00\n        /* \"contracts/Payment.sol\":3433:3451  wallet = newWallet */\n      0x0100\n      exp\n      dup2\n      sload\n      dup2\n      0xffffffffffffffffffffffffffffffffffffffff\n      mul\n      not\n      and\n      swap1\n      dup4\n      0xffffffffffffffffffffffffffffffffffffffff\n      and\n      mul\n      or\n      swap1\n      sstore\n      pop\n        /* \"contracts/Payment.sol\":3480:3489  newWallet */\n      dup1\n        /* \"contracts/Payment.sol\":3467:3490  NewWalletSet(newWallet) */\n      0xffffffffffffffffffffffffffffffffffffffff\n      and\n      0x65ac7c44ce1402d115f5033c9dde8b6d1e130550ecd89ac7659bc257d4f5b6d5\n      mload(0x40)\n      mload(0x40)\n      dup1\n      swap2\n      sub\n      swap1\n      log2\n        /* \"contracts/Payment.sol\":3360:3498  function setWallet(address payable newWallet) public onlyOwner{\r... */\n      pop\n      jump\t// out\n        /* \"contracts/Payment.sol\":552:605  mapping(address => uint256) public paymentTokensIndex */\n    tag_55:\n      mstore(0x20, 0x04)\n      dup1\n      0x00\n      mstore\n      keccak256(0x00, 0x40)\n      0x00\n      swap2\n      pop\n      swap1\n      pop\n      sload\n      dup2\n      jump\t// out\n        /* \"contracts/helpers/Ownable.sol\":1972:2173  function transferOwnership(address newOwner) public virtual onlyOwner {\r... */\n    tag_59:\n        /* \"contracts/helpers/Ownable.sol\":1294:1306  _msgSender() */\n      tag_166\n        /* \"contracts/helpers/Ownable.sol\":1294:1304  _msgSender */\n      tag_81\n        /* \"contracts/helpers/Ownable.sol\":1294:1306  _msgSender() */\n      jump\t// in\n    tag_166:\n        /* \"contracts/helpers/Ownable.sol\":1283:1306  owner() == _msgSender() */\n      0xffffffffffffffffffffffffffffffffffffffff\n      and\n        /* \"contracts/helpers/Ownable.sol\":1283:1290  owner() */\n      tag_167\n        /* \"contracts/helpers/Ownable.sol\":1283:1288  owner */\n      tag_41\n        /* \"contracts/helpers/Ownable.sol\":1283:1290  owner() */\n      jump\t// in\n    tag_167:\n        /* \"contracts/helpers/Ownable.sol\":1283:1306  owner() == _msgSender() */\n      0xffffffffffffffffffffffffffffffffffffffff\n      and\n      eq\n        /* \"contracts/helpers/Ownable.sol\":1275:1343  require(owner() == _msgSender(), \"Ownable: caller is not the owner\") */\n      tag_168\n      jumpi\n      mload(0x40)\n      0x08c379a000000000000000000000000000000000000000000000000000000000\n      dup2\n      mstore\n      0x04\n      add\n      tag_169\n      swap1\n      tag_140\n      jump\t// in\n    tag_169:\n      mload(0x40)\n      dup1\n      swap2\n      sub\n      swap1\n      revert\n    tag_168:\n        /* \"contracts/helpers/Ownable.sol\":2081:2082  0 */\n      0x00\n        /* \"contracts/helpers/Ownable.sol\":2061:2083  newOwner != address(0) */\n      0xffffffffffffffffffffffffffffffffffffffff\n      and\n        /* \"contracts/helpers/Ownable.sol\":2061:2069  newOwner */\n      dup2\n        /* \"contracts/helpers/Ownable.sol\":2061:2083  newOwner != address(0) */\n      0xffffffffffffffffffffffffffffffffffffffff\n      and\n      eq\n      iszero\n        /* \"contracts/helpers/Ownable.sol\":2053:2126  require(newOwner != address(0), \"Ownable: new owner is the zero address\") */\n      tag_171\n      jumpi\n      mload(0x40)\n      0x08c379a000000000000000000000000000000000000000000000000000000000\n      dup2\n      mstore\n      0x04\n      add\n      tag_172\n      swap1\n      tag_173\n      jump\t// in\n    tag_172:\n      mload(0x40)\n      dup1\n      swap2\n      sub\n      swap1\n      revert\n    tag_171:\n        /* \"contracts/helpers/Ownable.sol\":2137:2165  _transferOwnership(newOwner) */\n      tag_174\n        /* \"contracts/helpers/Ownable.sol\":2156:2164  newOwner */\n      dup2\n        /* \"contracts/helpers/Ownable.sol\":2137:2155  _transferOwnership */\n      tag_157\n        /* \"contracts/helpers/Ownable.sol\":2137:2165  _transferOwnership(newOwner) */\n      jump\t// in\n    tag_174:\n        /* \"contracts/helpers/Ownable.sol\":1972:2173  function transferOwnership(address newOwner) public virtual onlyOwner {\r... */\n      pop\n      jump\t// out\n        /* \"contracts/helpers/Context.sol\":656:754  function _msgSender() internal view virtual returns (address) {\r... */\n    tag_81:\n        /* \"contracts/helpers/Context.sol\":709:716  address */\n      0x00\n        /* \"contracts/helpers/Context.sol\":736:746  msg.sender */\n      caller\n        /* \"contracts/helpers/Context.sol\":729:746  return msg.sender */\n      swap1\n      pop\n        /* \"contracts/helpers/Context.sol\":656:754  function _msgSender() internal view virtual returns (address) {\r... */\n      swap1\n      jump\t// out\n        /* \"contracts/helpers/SafeERC20.sol\":926:1174  function safeTransferFrom(\r... */\n    tag_94:\n        /* \"contracts/helpers/SafeERC20.sol\":1070:1166  _callOptionalReturn(token, abi.encodeWithSelector(token.transferFrom.selector, from, to, value)) */\n      tag_177\n        /* \"contracts/helpers/SafeERC20.sol\":1090:1095  token */\n      dup5\n        /* \"contracts/helpers/SafeERC20.sol\":1120:1147  token.transferFrom.selector */\n      shl(0xe0, 0x23b872dd)\n        /* \"contracts/helpers/SafeERC20.sol\":1149:1153  from */\n      dup6\n        /* \"contracts/helpers/SafeERC20.sol\":1155:1157  to */\n      dup6\n        /* \"contracts/helpers/SafeERC20.sol\":1159:1164  value */\n      dup6\n        /* \"contracts/helpers/SafeERC20.sol\":1097:1165  abi.encodeWithSelector(token.transferFrom.selector, from, to, value) */\n      add(0x24, mload(0x40))\n      tag_178\n      swap4\n      swap3\n      swap2\n      swap1\n      tag_179\n      jump\t// in\n    tag_178:\n      mload(0x40)\n      0x20\n      dup2\n      dup4\n      sub\n      sub\n      dup2\n      mstore\n      swap1\n      0x40\n      mstore\n      swap1\n      not(0xffffffffffffffffffffffffffffffffffffffffffffffffffffffff)\n      and\n      0x20\n      dup3\n      add\n      dup1\n      mload\n      0xffffffffffffffffffffffffffffffffffffffffffffffffffffffff\n      dup4\n      dup2\n      dup4\n      and\n      or\n      dup4\n      mstore\n      pop\n      pop\n      pop\n      pop\n        /* \"contracts/helpers/SafeERC20.sol\":1070:1089  _callOptionalReturn */\n      tag_180\n        /* \"contracts/helpers/SafeERC20.sol\":1070:1166  _callOptionalReturn(token, abi.encodeWithSelector(token.transferFrom.selector, from, to, value)) */\n      jump\t// in\n    tag_177:\n        /* \"contracts/helpers/SafeERC20.sol\":926:1174  function safeTransferFrom(\r... */\n      pop\n      pop\n      pop\n      pop\n      jump\t// out\n        /* \"contracts/helpers/Strings.sol\":342:1065  function toString(uint256 value) internal pure returns (string memory) {\r... */\n    tag_103:\n        /* \"contracts/helpers/Strings.sol\":398:411  string memory */\n      0x60\n        /* \"contracts/helpers/Strings.sol\":628:629  0 */\n      0x00\n        /* \"contracts/helpers/Strings.sol\":619:624  value */\n      dup3\n        /* \"contracts/helpers/Strings.sol\":619:629  value == 0 */\n      eq\n        /* \"contracts/helpers/Strings.sol\":615:668  if (value == 0) {\r... */\n      iszero\n      tag_182\n      jumpi\n        /* \"contracts/helpers/Strings.sol\":646:656  return \"0\" */\n      mload(0x40)\n      dup1\n      0x40\n      add\n      0x40\n      mstore\n      dup1\n      0x01\n      dup2\n      mstore\n      0x20\n      add\n      0x3000000000000000000000000000000000000000000000000000000000000000\n      dup2\n      mstore\n      pop\n      swap1\n      pop\n      jump(tag_181)\n        /* \"contracts/helpers/Strings.sol\":615:668  if (value == 0) {\r... */\n    tag_182:\n        /* \"contracts/helpers/Strings.sol\":678:690  uint256 temp */\n      0x00\n        /* \"contracts/helpers/Strings.sol\":693:698  value */\n      dup3\n        /* \"contracts/helpers/Strings.sol\":678:698  uint256 temp = value */\n      swap1\n      pop\n        /* \"contracts/helpers/Strings.sol\":709:723  uint256 digits */\n      0x00\n        /* \"contracts/helpers/Strings.sol\":734:812  while (temp != 0) {\r... */\n    tag_183:\n        /* \"contracts/helpers/Strings.sol\":749:750  0 */\n      0x00\n        /* \"contracts/helpers/Strings.sol\":741:745  temp */\n      dup3\n        /* \"contracts/helpers/Strings.sol\":741:750  temp != 0 */\n      eq\n        /* \"contracts/helpers/Strings.sol\":734:812  while (temp != 0) {\r... */\n      tag_184\n      jumpi\n        /* \"contracts/helpers/Strings.sol\":767:775  digits++ */\n      dup1\n      dup1\n      tag_185\n      swap1\n      tag_130\n      jump\t// in\n    tag_185:\n      swap2\n      pop\n      pop\n        /* \"contracts/helpers/Strings.sol\":798:800  10 */\n      0x0a\n        /* \"contracts/helpers/Strings.sol\":790:800  temp /= 10 */\n      dup3\n      tag_186\n      swap2\n      swap1\n      tag_187\n      jump\t// in\n    tag_186:\n      swap2\n      pop\n        /* \"contracts/helpers/Strings.sol\":734:812  while (temp != 0) {\r... */\n      jump(tag_183)\n    tag_184:\n        /* \"contracts/helpers/Strings.sol\":822:841  bytes memory buffer */\n      0x00\n        /* \"contracts/helpers/Strings.sol\":854:860  digits */\n      dup2\n        /* \"contracts/helpers/Strings.sol\":844:861  new bytes(digits) */\n      0xffffffffffffffff\n      dup2\n      gt\n      iszero\n      tag_188\n      jumpi\n      tag_189\n      tag_190\n      jump\t// in\n    tag_189:\n    tag_188:\n      mload(0x40)\n      swap1\n      dup1\n      dup3\n      mstore\n      dup1\n      0x1f\n      add\n      not(0x1f)\n      and\n      0x20\n      add\n      dup3\n      add\n      0x40\n      mstore\n      dup1\n      iszero\n      tag_191\n      jumpi\n      dup2\n      0x20\n      add\n      0x01\n      dup3\n      mul\n      dup1\n      calldatasize\n      dup4\n      calldatacopy\n      dup1\n      dup3\n      add\n      swap2\n      pop\n      pop\n      swap1\n      pop\n    tag_191:\n      pop\n        /* \"contracts/helpers/Strings.sol\":822:861  bytes memory buffer = new bytes(digits) */\n      swap1\n      pop\n        /* \"contracts/helpers/Strings.sol\":872:1026  while (value != 0) {\r... */\n    tag_192:\n        /* \"contracts/helpers/Strings.sol\":888:889  0 */\n      0x00\n        /* \"contracts/helpers/Strings.sol\":879:884  value */\n      dup6\n        /* \"contracts/helpers/Strings.sol\":879:889  value != 0 */\n      eq\n        /* \"contracts/helpers/Strings.sol\":872:1026  while (value != 0) {\r... */\n      tag_193\n      jumpi\n        /* \"contracts/helpers/Strings.sol\":916:917  1 */\n      0x01\n        /* \"contracts/helpers/Strings.sol\":906:917  digits -= 1 */\n      dup3\n      tag_194\n      swap2\n      swap1\n      tag_195\n      jump\t// in\n    tag_194:\n      swap2\n      pop\n        /* \"contracts/helpers/Strings.sol\":983:985  10 */\n      0x0a\n        /* \"contracts/helpers/Strings.sol\":975:980  value */\n      dup6\n        /* \"contracts/helpers/Strings.sol\":975:985  value % 10 */\n      tag_196\n      swap2\n      swap1\n      tag_197\n      jump\t// in\n    tag_196:\n        /* \"contracts/helpers/Strings.sol\":962:964  48 */\n      0x30\n        /* \"contracts/helpers/Strings.sol\":962:986  48 + uint256(value % 10) */\n      tag_198\n      swap2\n      swap1\n      tag_199\n      jump\t// in\n    tag_198:\n        /* \"contracts/helpers/Strings.sol\":949:988  bytes1(uint8(48 + uint256(value % 10))) */\n      0xf8\n      shl\n        /* \"contracts/helpers/Strings.sol\":932:938  buffer */\n      dup2\n        /* \"contracts/helpers/Strings.sol\":939:945  digits */\n      dup4\n        /* \"contracts/helpers/Strings.sol\":932:946  buffer[digits] */\n      dup2\n      mload\n      dup2\n      lt\n      tag_200\n      jumpi\n      tag_201\n      tag_111\n      jump\t// in\n    tag_201:\n    tag_200:\n      0x20\n      add\n      add\n        /* \"contracts/helpers/Strings.sol\":932:988  buffer[digits] = bytes1(uint8(48 + uint256(value % 10))) */\n      swap1\n      not(0xffffffffffffffffffffffffffffffffffffffffffffffffffffffffffffff)\n      and\n      swap1\n      dup2\n      0x00\n      byte\n      swap1\n      mstore8\n      pop\n        /* \"contracts/helpers/Strings.sol\":1012:1014  10 */\n      0x0a\n        /* \"contracts/helpers/Strings.sol\":1003:1014  value /= 10 */\n      dup6\n      tag_202\n      swap2\n      swap1\n      tag_187\n      jump\t// in\n    tag_202:\n      swap5\n      pop\n        /* \"contracts/helpers/Strings.sol\":872:1026  while (value != 0) {\r... */\n      jump(tag_192)\n    tag_193:\n        /* \"contracts/helpers/Strings.sol\":1050:1056  buffer */\n      dup1\n        /* \"contracts/helpers/Strings.sol\":1036:1057  return string(buffer) */\n      swap4\n      pop\n      pop\n      pop\n      pop\n        /* \"contracts/helpers/Strings.sol\":342:1065  function toString(uint256 value) internal pure returns (string memory) {\r... */\n    tag_181:\n      swap2\n      swap1\n      pop\n      jump\t// out\n        /* \"contracts/helpers/SafeMath.sol\":2833:2931  function add(uint256 a, uint256 b) internal pure returns (uint256) {\r... */\n    tag_143:\n        /* \"contracts/helpers/SafeMath.sol\":2891:2898  uint256 */\n      0x00\n        /* \"contracts/helpers/SafeMath.sol\":2922:2923  b */\n      dup2\n        /* \"contracts/helpers/SafeMath.sol\":2918:2919  a */\n      dup4\n        /* \"contracts/helpers/SafeMath.sol\":2918:2923  a + b */\n      tag_204\n      swap2\n      swap1\n      tag_199\n      jump\t// in\n    tag_204:\n        /* \"contracts/helpers/SafeMath.sol\":2911:2923  return a + b */\n      swap1\n      pop\n        /* \"contracts/helpers/SafeMath.sol\":2833:2931  function add(uint256 a, uint256 b) internal pure returns (uint256) {\r... */\n      swap3\n      swap2\n      pop\n      pop\n      jump\t// out\n        /* \"contracts/helpers/SafeMath.sol\":3214:3312  function sub(uint256 a, uint256 b) internal pure returns (uint256) {\r... */\n    tag_145:\n        /* \"contracts/helpers/SafeMath.sol\":3272:3279  uint256 */\n      0x00\n        /* \"contracts/helpers/SafeMath.sol\":3303:3304  b */\n      dup2\n        /* \"contracts/helpers/SafeMath.sol\":3299:3300  a */\n      dup4\n        /* \"contracts/helpers/SafeMath.sol\":3299:3304  a - b */\n      tag_206\n      swap2\n      swap1\n      tag_195\n      jump\t// in\n    tag_206:\n        /* \"contracts/helpers/SafeMath.sol\":3292:3304  return a - b */\n      swap1\n      pop\n        /* \"contracts/helpers/SafeMath.sol\":3214:3312  function sub(uint256 a, uint256 b) internal pure returns (uint256) {\r... */\n      swap3\n      swap2\n      pop\n      pop\n      jump\t// out\n        /* \"contracts/helpers/Ownable.sol\":2333:2524  function _transferOwnership(address newOwner) internal virtual {\r... */\n    tag_157:\n        /* \"contracts/helpers/Ownable.sol\":2407:2423  address oldOwner */\n      0x00\n        /* \"contracts/helpers/Ownable.sol\":2426:2432  _owner */\n      dup1\n      0x00\n      swap1\n      sload\n      swap1\n      0x0100\n      exp\n      swap1\n      div\n      0xffffffffffffffffffffffffffffffffffffffff\n      and\n        /* \"contracts/helpers/Ownable.sol\":2407:2432  address oldOwner = _owner */\n      swap1\n      pop\n        /* \"contracts/helpers/Ownable.sol\":2452:2460  newOwner */\n      dup2\n        /* \"contracts/helpers/Ownable.sol\":2443:2449  _owner */\n      0x00\n      dup1\n        /* \"contracts/helpers/Ownable.sol\":2443:2460  _owner = newOwner */\n      0x0100\n      exp\n      dup2\n      sload\n      dup2\n      0xffffffffffffffffffffffffffffffffffffffff\n      mul\n      not\n      and\n      swap1\n      dup4\n      0xffffffffffffffffffffffffffffffffffffffff\n      and\n      mul\n      or\n      swap1\n      sstore\n      pop\n        /* \"contracts/helpers/Ownable.sol\":2507:2515  newOwner */\n      dup2\n        /* \"contracts/helpers/Ownable.sol\":2476:2516  OwnershipTransferred(oldOwner, newOwner) */\n      0xffffffffffffffffffffffffffffffffffffffff\n      and\n        /* \"contracts/helpers/Ownable.sol\":2497:2505  oldOwner */\n      dup2\n        /* \"contracts/helpers/Ownable.sol\":2476:2516  OwnershipTransferred(oldOwner, newOwner) */\n      0xffffffffffffffffffffffffffffffffffffffff\n      and\n      0x8be0079c531659141344cd1fd0a4f28419497f9722a3daafe3b4186f6b6457e0\n      mload(0x40)\n      mload(0x40)\n      dup1\n      swap2\n      sub\n      swap1\n      log3\n        /* \"contracts/helpers/Ownable.sol\":2396:2524  {\r... */\n      pop\n        /* \"contracts/helpers/Ownable.sol\":2333:2524  function _transferOwnership(address newOwner) internal virtual {\r... */\n      pop\n      jump\t// out\n        /* \"contracts/helpers/SafeERC20.sol\":3280:3996  function _callOptionalReturn(IERC20 token, bytes memory data) private {\r... */\n    tag_180:\n        /* \"contracts/helpers/SafeERC20.sol\":3704:3727  bytes memory returndata */\n      0x00\n        /* \"contracts/helpers/SafeERC20.sol\":3730:3799  address(token).functionCall(data, \"SafeERC20: low-level call failed\") */\n      tag_209\n        /* \"contracts/helpers/SafeERC20.sol\":3758:3762  data */\n      dup3\n        /* \"contracts/helpers/SafeERC20.sol\":3730:3799  address(token).functionCall(data, \"SafeERC20: low-level call failed\") */\n      mload(0x40)\n      dup1\n      0x40\n      add\n      0x40\n      mstore\n      dup1\n      0x20\n      dup2\n      mstore\n      0x20\n      add\n      0x5361666545524332303a206c6f772d6c6576656c2063616c6c206661696c6564\n      dup2\n      mstore\n      pop\n        /* \"contracts/helpers/SafeERC20.sol\":3738:3743  token */\n      dup6\n        /* \"contracts/helpers/SafeERC20.sol\":3730:3757  address(token).functionCall */\n      0xffffffffffffffffffffffffffffffffffffffff\n      and\n      tag_210\n      swap1\n        /* \"contracts/helpers/SafeERC20.sol\":3730:3799  address(token).functionCall(data, \"SafeERC20: low-level call failed\") */\n      swap3\n      swap2\n      swap1\n      0xffffffff\n      and\n      jump\t// in\n    tag_209:\n        /* \"contracts/helpers/SafeERC20.sol\":3704:3799  bytes memory returndata = address(token).functionCall(data, \"SafeERC20: low-level call failed\") */\n      swap1\n      pop\n        /* \"contracts/helpers/SafeERC20.sol\":3834:3835  0 */\n      0x00\n        /* \"contracts/helpers/SafeERC20.sol\":3814:3824  returndata */\n      dup2\n        /* \"contracts/helpers/SafeERC20.sol\":3814:3831  returndata.length */\n      mload\n        /* \"contracts/helpers/SafeERC20.sol\":3814:3835  returndata.length > 0 */\n      gt\n        /* \"contracts/helpers/SafeERC20.sol\":3810:3989  if (returndata.length > 0) {\r... */\n      iszero\n      tag_211\n      jumpi\n        /* \"contracts/helpers/SafeERC20.sol\":3911:3921  returndata */\n      dup1\n        /* \"contracts/helpers/SafeERC20.sol\":3900:3930  abi.decode(returndata, (bool)) */\n      dup1\n      0x20\n      add\n      swap1\n      mload\n      dup2\n      add\n      swap1\n      tag_212\n      swap2\n      swap1\n      tag_213\n      jump\t// in\n    tag_212:\n        /* \"contracts/helpers/SafeERC20.sol\":3892:3977  require(abi.decode(returndata, (bool)), \"SafeERC20: ERC20 operation did not succeed\") */\n      tag_214\n      jumpi\n      mload(0x40)\n      0x08c379a000000000000000000000000000000000000000000000000000000000\n      dup2\n      mstore\n      0x04\n      add\n      tag_215\n      swap1\n      tag_216\n      jump\t// in\n    tag_215:\n      mload(0x40)\n      dup1\n      swap2\n      sub\n      swap1\n      revert\n    tag_214:\n        /* \"contracts/helpers/SafeERC20.sol\":3810:3989  if (returndata.length > 0) {\r... */\n    tag_211:\n        /* \"contracts/helpers/SafeERC20.sol\":3350:3996  {\r... */\n      pop\n        /* \"contracts/helpers/SafeERC20.sol\":3280:3996  function _callOptionalReturn(IERC20 token, bytes memory data) private {\r... */\n      pop\n      pop\n      jump\t// out\n        /* \"contracts/helpers/Address.sol\":3940:4169  function functionCall(\r... */\n    tag_210:\n        /* \"contracts/helpers/Address.sol\":4077:4089  bytes memory */\n      0x60\n        /* \"contracts/helpers/Address.sol\":4109:4161  functionCallWithValue(target, data, 0, errorMessage) */\n      tag_218\n        /* \"contracts/helpers/Address.sol\":4131:4137  target */\n      dup5\n        /* \"contracts/helpers/Address.sol\":4139:4143  data */\n      dup5\n        /* \"contracts/helpers/Address.sol\":4145:4146  0 */\n      0x00\n        /* \"contracts/helpers/Address.sol\":4148:4160  errorMessage */\n      dup6\n        /* \"contracts/helpers/Address.sol\":4109:4130  functionCallWithValue */\n      tag_219\n        /* \"contracts/helpers/Address.sol\":4109:4161  functionCallWithValue(target, data, 0, errorMessage) */\n      jump\t// in\n    tag_218:\n        /* \"contracts/helpers/Address.sol\":4102:4161  return functionCallWithValue(target, data, 0, errorMessage) */\n      swap1\n      pop\n        /* \"contracts/helpers/Address.sol\":3940:4169  function functionCall(\r... */\n      swap4\n      swap3\n      pop\n      pop\n      pop\n      jump\t// out\n        /* \"contracts/helpers/Address.sol\":5060:5570  function functionCallWithValue(\r... */\n    tag_219:\n        /* \"contracts/helpers/Address.sol\":5230:5242  bytes memory */\n      0x60\n        /* \"contracts/helpers/Address.sol\":5288:5293  value */\n      dup3\n        /* \"contracts/helpers/Address.sol\":5263:5284  address(this).balance */\n      selfbalance\n        /* \"contracts/helpers/Address.sol\":5263:5293  address(this).balance >= value */\n      lt\n      iszero\n        /* \"contracts/helpers/Address.sol\":5255:5336  require(address(this).balance >= value, \"Address: insufficient balance for call\") */\n      tag_221\n      jumpi\n      mload(0x40)\n      0x08c379a000000000000000000000000000000000000000000000000000000000\n      dup2\n      mstore\n      0x04\n      add\n      tag_222\n      swap1\n      tag_223\n      jump\t// in\n    tag_222:\n      mload(0x40)\n      dup1\n      swap2\n      sub\n      swap1\n      revert\n    tag_221:\n        /* \"contracts/helpers/Address.sol\":5355:5373  isContract(target) */\n      tag_224\n        /* \"contracts/helpers/Address.sol\":5366:5372  target */\n      dup6\n        /* \"contracts/helpers/Address.sol\":5355:5365  isContract */\n      tag_225\n        /* \"contracts/helpers/Address.sol\":5355:5373  isContract(target) */\n      jump\t// in\n    tag_224:\n        /* \"contracts/helpers/Address.sol\":5347:5407  require(isContract(target), \"Address: call to non-contract\") */\n      tag_226\n      jumpi\n      mload(0x40)\n      0x08c379a000000000000000000000000000000000000000000000000000000000\n      dup2\n      mstore\n      0x04\n      add\n      tag_227\n      swap1\n      tag_228\n      jump\t// in\n    tag_227:\n      mload(0x40)\n      dup1\n      swap2\n      sub\n      swap1\n      revert\n    tag_226:\n        /* \"contracts/helpers/Address.sol\":5421:5433  bool success */\n      0x00\n        /* \"contracts/helpers/Address.sol\":5435:5458  bytes memory returndata */\n      dup1\n        /* \"contracts/helpers/Address.sol\":5462:5468  target */\n      dup7\n        /* \"contracts/helpers/Address.sol\":5462:5473  target.call */\n      0xffffffffffffffffffffffffffffffffffffffff\n      and\n        /* \"contracts/helpers/Address.sol\":5481:5486  value */\n      dup6\n        /* \"contracts/helpers/Address.sol\":5488:5492  data */\n      dup8\n        /* \"contracts/helpers/Address.sol\":5462:5493  target.call{value: value}(data) */\n      mload(0x40)\n      tag_229\n      swap2\n      swap1\n      tag_230\n      jump\t// in\n    tag_229:\n      0x00\n      mload(0x40)\n      dup1\n      dup4\n      sub\n      dup2\n      dup6\n      dup8\n      gas\n      call\n      swap3\n      pop\n      pop\n      pop\n      returndatasize\n      dup1\n      0x00\n      dup2\n      eq\n      tag_233\n      jumpi\n      mload(0x40)\n      swap2\n      pop\n      and(add(returndatasize, 0x3f), not(0x1f))\n      dup3\n      add\n      0x40\n      mstore\n      returndatasize\n      dup3\n      mstore\n      returndatasize\n      0x00\n      0x20\n      dup5\n      add\n      returndatacopy\n      jump(tag_232)\n    tag_233:\n      0x60\n      swap2\n      pop\n    tag_232:\n      pop\n        /* \"contracts/helpers/Address.sol\":5420:5493  (bool success, bytes memory returndata) = target.call{value: value}(data) */\n      swap2\n      pop\n      swap2\n      pop\n        /* \"contracts/helpers/Address.sol\":5511:5562  verifyCallResult(success, returndata, errorMessage) */\n      tag_234\n        /* \"contracts/helpers/Address.sol\":5528:5535  success */\n      dup3\n        /* \"contracts/helpers/Address.sol\":5537:5547  returndata */\n      dup3\n        /* \"contracts/helpers/Address.sol\":5549:5561  errorMessage */\n      dup7\n        /* \"contracts/helpers/Address.sol\":5511:5527  verifyCallResult */\n      tag_235\n        /* \"contracts/helpers/Address.sol\":5511:5562  verifyCallResult(success, returndata, errorMessage) */\n      jump\t// in\n    tag_234:\n        /* \"contracts/helpers/Address.sol\":5504:5562  return verifyCallResult(success, returndata, errorMessage) */\n      swap3\n      pop\n      pop\n      pop\n        /* \"contracts/helpers/Address.sol\":5060:5570  function functionCallWithValue(\r... */\n      swap5\n      swap4\n      pop\n      pop\n      pop\n      pop\n      jump\t// out\n        /* \"contracts/helpers/Address.sol\":1195:1521  function isContract(address account) internal view returns (bool) {\r... */\n    tag_225:\n        /* \"contracts/helpers/Address.sol\":1255:1259  bool */\n      0x00\n        /* \"contracts/helpers/Address.sol\":1512:1513  0 */\n      dup1\n        /* \"contracts/helpers/Address.sol\":1490:1497  account */\n      dup3\n        /* \"contracts/helpers/Address.sol\":1490:1509  account.code.length */\n      0xffffffffffffffffffffffffffffffffffffffff\n      and\n      extcodesize\n        /* \"contracts/helpers/Address.sol\":1490:1513  account.code.length > 0 */\n      gt\n        /* \"contracts/helpers/Address.sol\":1483:1513  return account.code.length > 0 */\n      swap1\n      pop\n        /* \"contracts/helpers/Address.sol\":1195:1521  function isContract(address account) internal view returns (bool) {\r... */\n      swap2\n      swap1\n      pop\n      jump\t// out\n        /* \"contracts/helpers/Address.sol\":7746:8458  function verifyCallResult(\r... */\n    tag_235:\n        /* \"contracts/helpers/Address.sol\":7896:7908  bytes memory */\n      0x60\n        /* \"contracts/helpers/Address.sol\":7925:7932  success */\n      dup4\n        /* \"contracts/helpers/Address.sol\":7921:8451  if (success) {\r... */\n      iszero\n      tag_238\n      jumpi\n        /* \"contracts/helpers/Address.sol\":7956:7966  returndata */\n      dup3\n        /* \"contracts/helpers/Address.sol\":7949:7966  return returndata */\n      swap1\n      pop\n      jump(tag_237)\n        /* \"contracts/helpers/Address.sol\":7921:8451  if (success) {\r... */\n    tag_238:\n        /* \"contracts/helpers/Address.sol\":8090:8091  0 */\n      0x00\n        /* \"contracts/helpers/Address.sol\":8070:8080  returndata */\n      dup4\n        /* \"contracts/helpers/Address.sol\":8070:8087  returndata.length */\n      mload\n        /* \"contracts/helpers/Address.sol\":8070:8091  returndata.length > 0 */\n      gt\n        /* \"contracts/helpers/Address.sol\":8066:8440  if (returndata.length > 0) {\r... */\n      iszero\n      tag_240\n      jumpi\n        /* \"contracts/helpers/Address.sol\":8268:8278  returndata */\n      dup3\n        /* \"contracts/helpers/Address.sol\":8262:8279  mload(returndata) */\n      mload\n        /* \"contracts/helpers/Address.sol\":8329:8344  returndata_size */\n      dup1\n        /* \"contracts/helpers/Address.sol\":8316:8326  returndata */\n      dup5\n        /* \"contracts/helpers/Address.sol\":8312:8314  32 */\n      0x20\n        /* \"contracts/helpers/Address.sol\":8308:8327  add(32, returndata) */\n      add\n        /* \"contracts/helpers/Address.sol\":8301:8345  revert(add(32, returndata), returndata_size) */\n      revert\n        /* \"contracts/helpers/Address.sol\":8066:8440  if (returndata.length > 0) {\r... */\n    tag_240:\n        /* \"contracts/helpers/Address.sol\":8411:8423  errorMessage */\n      dup2\n        /* \"contracts/helpers/Address.sol\":8404:8424  revert(errorMessage) */\n      mload(0x40)\n      0x08c379a000000000000000000000000000000000000000000000000000000000\n      dup2\n      mstore\n      0x04\n      add\n      tag_242\n      swap2\n      swap1\n      tag_243\n      jump\t// in\n    tag_242:\n      mload(0x40)\n      dup1\n      swap2\n      sub\n      swap1\n      revert\n        /* \"contracts/helpers/Address.sol\":7746:8458  function verifyCallResult(\r... */\n    tag_237:\n      swap4\n      swap3\n      pop\n      pop\n      pop\n      jump\t// out\n    tag_61:\n      mload(0x40)\n      dup1\n      0x0100\n      add\n      0x40\n      mstore\n      dup1\n      0x60\n      dup2\n      mstore\n      0x20\n      add\n      0x60\n      dup2\n      mstore\n      0x20\n      add\n      and(0xffffffffffffffffffffffffffffffffffffffff, 0x00)\n      dup2\n      mstore\n      0x20\n      add\n      0x00\n      dup2\n      mstore\n      0x20\n      add\n      0x00\n      dup2\n      mstore\n      0x20\n      add\n      0x00\n      dup2\n      mstore\n      0x20\n      add\n      0x00\n      dup2\n      mstore\n      0x20\n      add\n      and(0xffffffffffffffffffffffffffffffffffffffff, 0x00)\n      dup2\n      mstore\n      pop\n      swap1\n      jump\t// out\n    tag_98:\n      dup3\n      dup1\n      sload\n      tag_244\n      swap1\n      tag_66\n      jump\t// in\n    tag_244:\n      swap1\n      0x00\n      mstore\n      keccak256(0x00, 0x20)\n      swap1\n      0x1f\n      add\n      0x20\n      swap1\n      div\n      dup2\n      add\n      swap3\n      dup3\n      tag_246\n      jumpi\n      0x00\n      dup6\n      sstore\n      jump(tag_245)\n    tag_246:\n      dup3\n      0x1f\n      lt\n      tag_247\n      jumpi\n      dup1\n      mload\n      not(0xff)\n      and\n      dup4\n      dup1\n      add\n      or\n      dup6\n      sstore\n      jump(tag_245)\n    tag_247:\n      dup3\n      dup1\n      add\n      0x01\n      add\n      dup6\n      sstore\n      dup3\n      iszero\n      tag_245\n      jumpi\n      swap2\n      dup3\n      add\n    tag_248:\n      dup3\n      dup2\n      gt\n      iszero\n      tag_249\n      jumpi\n      dup3\n      mload\n      dup3\n      sstore\n      swap2\n      0x20\n      add\n      swap2\n      swap1\n      0x01\n      add\n      swap1\n      jump(tag_248)\n    tag_249:\n    tag_245:\n      pop\n      swap1\n      pop\n      tag_250\n      swap2\n      swap1\n      tag_251\n      jump\t// in\n    tag_250:\n      pop\n      swap1\n      jump\t// out\n    tag_251:\n    tag_252:\n      dup1\n      dup3\n      gt\n      iszero\n      tag_253\n      jumpi\n      0x00\n      dup2\n      0x00\n      swap1\n      sstore\n      pop\n      0x01\n      add\n      jump(tag_252)\n    tag_253:\n      pop\n      swap1\n      jump\t// out\n        /* \"#utility.yul\":39:1035   */\n    tag_255:\n        /* \"#utility.yul\":158:163   */\n      0x00\n        /* \"#utility.yul\":183:287   */\n      tag_257\n        /* \"#utility.yul\":199:286   */\n      tag_258\n        /* \"#utility.yul\":279:285   */\n      dup5\n        /* \"#utility.yul\":199:286   */\n      tag_259\n      jump\t// in\n    tag_258:\n        /* \"#utility.yul\":183:287   */\n      tag_260\n      jump\t// in\n    tag_257:\n        /* \"#utility.yul\":174:287   */\n      swap1\n      pop\n        /* \"#utility.yul\":307:312   */\n      dup1\n        /* \"#utility.yul\":336:342   */\n      dup4\n        /* \"#utility.yul\":329:334   */\n      dup3\n        /* \"#utility.yul\":322:343   */\n      mstore\n        /* \"#utility.yul\":370:374   */\n      0x20\n        /* \"#utility.yul\":363:368   */\n      dup3\n        /* \"#utility.yul\":359:375   */\n      add\n        /* \"#utility.yul\":352:375   */\n      swap1\n      pop\n        /* \"#utility.yul\":396:402   */\n      dup3\n        /* \"#utility.yul\":446:449   */\n      dup6\n        /* \"#utility.yul\":438:442   */\n      0x20\n        /* \"#utility.yul\":430:436   */\n      dup7\n        /* \"#utility.yul\":426:443   */\n      mul\n        /* \"#utility.yul\":421:424   */\n      dup3\n        /* \"#utility.yul\":417:444   */\n      add\n        /* \"#utility.yul\":414:450   */\n      gt\n        /* \"#utility.yul\":411:554   */\n      iszero\n      tag_261\n      jumpi\n        /* \"#utility.yul\":465:544   */\n      tag_262\n      tag_263\n      jump\t// in\n    tag_262:\n        /* \"#utility.yul\":411:554   */\n    tag_261:\n        /* \"#utility.yul\":578:579   */\n      0x00\n        /* \"#utility.yul\":563:1029   */\n    tag_264:\n        /* \"#utility.yul\":588:594   */\n      dup6\n        /* \"#utility.yul\":585:586   */\n      dup2\n        /* \"#utility.yul\":582:595   */\n      lt\n        /* \"#utility.yul\":563:1029   */\n      iszero\n      tag_266\n      jumpi\n        /* \"#utility.yul\":670:673   */\n      dup2\n        /* \"#utility.yul\":657:674   */\n      calldataload\n        /* \"#utility.yul\":706:724   */\n      0xffffffffffffffff\n        /* \"#utility.yul\":693:704   */\n      dup2\n        /* \"#utility.yul\":690:725   */\n      gt\n        /* \"#utility.yul\":687:809   */\n      iszero\n      tag_267\n      jumpi\n        /* \"#utility.yul\":728:807   */\n      tag_268\n      tag_269\n      jump\t// in\n    tag_268:\n        /* \"#utility.yul\":687:809   */\n    tag_267:\n        /* \"#utility.yul\":852:863   */\n      dup1\n        /* \"#utility.yul\":844:850   */\n      dup7\n        /* \"#utility.yul\":840:864   */\n      add\n        /* \"#utility.yul\":890:950   */\n      tag_270\n        /* \"#utility.yul\":946:949   */\n      dup10\n        /* \"#utility.yul\":934:944   */\n      dup3\n        /* \"#utility.yul\":890:950   */\n      tag_271\n      jump\t// in\n    tag_270:\n        /* \"#utility.yul\":885:888   */\n      dup6\n        /* \"#utility.yul\":878:951   */\n      mstore\n        /* \"#utility.yul\":980:984   */\n      0x20\n        /* \"#utility.yul\":975:978   */\n      dup6\n        /* \"#utility.yul\":971:985   */\n      add\n        /* \"#utility.yul\":964:985   */\n      swap5\n      pop\n        /* \"#utility.yul\":1014:1018   */\n      0x20\n        /* \"#utility.yul\":1009:1012   */\n      dup5\n        /* \"#utility.yul\":1005:1019   */\n      add\n        /* \"#utility.yul\":998:1019   */\n      swap4\n      pop\n        /* \"#utility.yul\":623:1029   */\n      pop\n      pop\n        /* \"#utility.yul\":610:611   */\n      0x01\n        /* \"#utility.yul\":607:608   */\n      dup2\n        /* \"#utility.yul\":603:612   */\n      add\n        /* \"#utility.yul\":598:612   */\n      swap1\n      pop\n        /* \"#utility.yul\":563:1029   */\n      jump(tag_264)\n    tag_266:\n        /* \"#utility.yul\":567:581   */\n      pop\n        /* \"#utility.yul\":164:1035   */\n      pop\n      pop\n        /* \"#utility.yul\":39:1035   */\n      swap4\n      swap3\n      pop\n      pop\n      pop\n      jump\t// out\n        /* \"#utility.yul\":1041:1453   */\n    tag_272:\n        /* \"#utility.yul\":1119:1124   */\n      0x00\n        /* \"#utility.yul\":1144:1210   */\n      tag_274\n        /* \"#utility.yul\":1160:1209   */\n      tag_275\n        /* \"#utility.yul\":1202:1208   */\n      dup5\n        /* \"#utility.yul\":1160:1209   */\n      tag_276\n      jump\t// in\n    tag_275:\n        /* \"#utility.yul\":1144:1210   */\n      tag_260\n      jump\t// in\n    tag_274:\n        /* \"#utility.yul\":1135:1210   */\n      swap1\n      pop\n        /* \"#utility.yul\":1233:1239   */\n      dup3\n        /* \"#utility.yul\":1226:1231   */\n      dup2\n        /* \"#utility.yul\":1219:1240   */\n      mstore\n        /* \"#utility.yul\":1271:1275   */\n      0x20\n        /* \"#utility.yul\":1264:1269   */\n      dup2\n        /* \"#utility.yul\":1260:1276   */\n      add\n        /* \"#utility.yul\":1309:1312   */\n      dup5\n        /* \"#utility.yul\":1300:1306   */\n      dup5\n        /* \"#utility.yul\":1295:1298   */\n      dup5\n        /* \"#utility.yul\":1291:1307   */\n      add\n        /* \"#utility.yul\":1288:1313   */\n      gt\n        /* \"#utility.yul\":1285:1397   */\n      iszero\n      tag_277\n      jumpi\n        /* \"#utility.yul\":1316:1395   */\n      tag_278\n      tag_279\n      jump\t// in\n    tag_278:\n        /* \"#utility.yul\":1285:1397   */\n    tag_277:\n        /* \"#utility.yul\":1406:1447   */\n      tag_280\n        /* \"#utility.yul\":1440:1446   */\n      dup5\n        /* \"#utility.yul\":1435:1438   */\n      dup3\n        /* \"#utility.yul\":1430:1433   */\n      dup6\n        /* \"#utility.yul\":1406:1447   */\n      tag_281\n      jump\t// in\n    tag_280:\n        /* \"#utility.yul\":1125:1453   */\n      pop\n        /* \"#utility.yul\":1041:1453   */\n      swap4\n      swap3\n      pop\n      pop\n      pop\n      jump\t// out\n        /* \"#utility.yul\":1459:1598   */\n    tag_282:\n        /* \"#utility.yul\":1505:1510   */\n      0x00\n        /* \"#utility.yul\":1543:1549   */\n      dup2\n        /* \"#utility.yul\":1530:1550   */\n      calldataload\n        /* \"#utility.yul\":1521:1550   */\n      swap1\n      pop\n        /* \"#utility.yul\":1559:1592   */\n      tag_284\n        /* \"#utility.yul\":1586:1591   */\n      dup2\n        /* \"#utility.yul\":1559:1592   */\n      tag_285\n      jump\t// in\n    tag_284:\n        /* \"#utility.yul\":1459:1598   */\n      swap3\n      swap2\n      pop\n      pop\n      jump\t// out\n        /* \"#utility.yul\":1604:1759   */\n    tag_286:\n        /* \"#utility.yul\":1658:1663   */\n      0x00\n        /* \"#utility.yul\":1696:1702   */\n      dup2\n        /* \"#utility.yul\":1683:1703   */\n      calldataload\n        /* \"#utility.yul\":1674:1703   */\n      swap1\n      pop\n        /* \"#utility.yul\":1712:1753   */\n      tag_288\n        /* \"#utility.yul\":1747:1752   */\n      dup2\n        /* \"#utility.yul\":1712:1753   */\n      tag_289\n      jump\t// in\n    tag_288:\n        /* \"#utility.yul\":1604:1759   */\n      swap3\n      swap2\n      pop\n      pop\n      jump\t// out\n        /* \"#utility.yul\":1797:2213   */\n    tag_290:\n        /* \"#utility.yul\":1891:1896   */\n      0x00\n        /* \"#utility.yul\":1940:1943   */\n      dup3\n        /* \"#utility.yul\":1933:1937   */\n      0x1f\n        /* \"#utility.yul\":1925:1931   */\n      dup4\n        /* \"#utility.yul\":1921:1938   */\n      add\n        /* \"#utility.yul\":1917:1944   */\n      slt\n        /* \"#utility.yul\":1907:2029   */\n      tag_292\n      jumpi\n        /* \"#utility.yul\":1948:2027   */\n      tag_293\n      tag_269\n      jump\t// in\n    tag_293:\n        /* \"#utility.yul\":1907:2029   */\n    tag_292:\n        /* \"#utility.yul\":2065:2071   */\n      dup2\n        /* \"#utility.yul\":2052:2072   */\n      calldataload\n        /* \"#utility.yul\":2090:2207   */\n      tag_294\n        /* \"#utility.yul\":2203:2206   */\n      dup5\n        /* \"#utility.yul\":2195:2201   */\n      dup3\n        /* \"#utility.yul\":2188:2192   */\n      0x20\n        /* \"#utility.yul\":2180:2186   */\n      dup7\n        /* \"#utility.yul\":2176:2193   */\n      add\n        /* \"#utility.yul\":2090:2207   */\n      tag_255\n      jump\t// in\n    tag_294:\n        /* \"#utility.yul\":2081:2207   */\n      swap2\n      pop\n        /* \"#utility.yul\":1897:2213   */\n      pop\n        /* \"#utility.yul\":1797:2213   */\n      swap3\n      swap2\n      pop\n      pop\n      jump\t// out\n        /* \"#utility.yul\":2219:2356   */\n    tag_295:\n        /* \"#utility.yul\":2273:2278   */\n      0x00\n        /* \"#utility.yul\":2304:2310   */\n      dup2\n        /* \"#utility.yul\":2298:2311   */\n      mload\n        /* \"#utility.yul\":2289:2311   */\n      swap1\n      pop\n        /* \"#utility.yul\":2320:2350   */\n      tag_297\n        /* \"#utility.yul\":2344:2349   */\n      dup2\n        /* \"#utility.yul\":2320:2350   */\n      tag_298\n      jump\t// in\n    tag_297:\n        /* \"#utility.yul\":2219:2356   */\n      swap3\n      swap2\n      pop\n      pop\n      jump\t// out\n        /* \"#utility.yul\":2376:2716   */\n    tag_299:\n        /* \"#utility.yul\":2432:2437   */\n      0x00\n        /* \"#utility.yul\":2481:2484   */\n      dup3\n        /* \"#utility.yul\":2474:2478   */\n      0x1f\n        /* \"#utility.yul\":2466:2472   */\n      dup4\n        /* \"#utility.yul\":2462:2479   */\n      add\n        /* \"#utility.yul\":2458:2485   */\n      slt\n        /* \"#utility.yul\":2448:2570   */\n      tag_301\n      jumpi\n        /* \"#utility.yul\":2489:2568   */\n      tag_302\n      tag_269\n      jump\t// in\n    tag_302:\n        /* \"#utility.yul\":2448:2570   */\n    tag_301:\n        /* \"#utility.yul\":2606:2612   */\n      dup2\n        /* \"#utility.yul\":2593:2613   */\n      calldataload\n        /* \"#utility.yul\":2631:2710   */\n      tag_303\n        /* \"#utility.yul\":2706:2709   */\n      dup5\n        /* \"#utility.yul\":2698:2704   */\n      dup3\n        /* \"#utility.yul\":2691:2695   */\n      0x20\n        /* \"#utility.yul\":2683:2689   */\n      dup7\n        /* \"#utility.yul\":2679:2696   */\n      add\n        /* \"#utility.yul\":2631:2710   */\n      tag_272\n      jump\t// in\n    tag_303:\n        /* \"#utility.yul\":2622:2710   */\n      swap2\n      pop\n        /* \"#utility.yul\":2438:2716   */\n      pop\n        /* \"#utility.yul\":2376:2716   */\n      swap3\n      swap2\n      pop\n      pop\n      jump\t// out\n        /* \"#utility.yul\":2752:3660   */\n    tag_271:\n        /* \"#utility.yul\":2824:2829   */\n      0x00\n        /* \"#utility.yul\":2868:2872   */\n      0x60\n        /* \"#utility.yul\":2856:2865   */\n      dup3\n        /* \"#utility.yul\":2851:2854   */\n      dup5\n        /* \"#utility.yul\":2847:2866   */\n      sub\n        /* \"#utility.yul\":2843:2873   */\n      slt\n        /* \"#utility.yul\":2840:2957   */\n      iszero\n      tag_305\n      jumpi\n        /* \"#utility.yul\":2876:2955   */\n      tag_306\n      tag_307\n      jump\t// in\n    tag_306:\n        /* \"#utility.yul\":2840:2957   */\n    tag_305:\n        /* \"#utility.yul\":2975:2996   */\n      tag_308\n        /* \"#utility.yul\":2991:2995   */\n      0x60\n        /* \"#utility.yul\":2975:2996   */\n      tag_260\n      jump\t// in\n    tag_308:\n        /* \"#utility.yul\":2966:2996   */\n      swap1\n      pop\n        /* \"#utility.yul\":3083:3084   */\n      0x00\n        /* \"#utility.yul\":3072:3081   */\n      dup3\n        /* \"#utility.yul\":3068:3085   */\n      add\n        /* \"#utility.yul\":3055:3086   */\n      calldataload\n        /* \"#utility.yul\":3113:3131   */\n      0xffffffffffffffff\n        /* \"#utility.yul\":3105:3111   */\n      dup2\n        /* \"#utility.yul\":3102:3132   */\n      gt\n        /* \"#utility.yul\":3099:3216   */\n      iszero\n      tag_309\n      jumpi\n        /* \"#utility.yul\":3135:3214   */\n      tag_310\n      tag_311\n      jump\t// in\n    tag_310:\n        /* \"#utility.yul\":3099:3216   */\n    tag_309:\n        /* \"#utility.yul\":3255:3314   */\n      tag_312\n        /* \"#utility.yul\":3310:3313   */\n      dup5\n        /* \"#utility.yul\":3301:3307   */\n      dup3\n        /* \"#utility.yul\":3290:3299   */\n      dup6\n        /* \"#utility.yul\":3286:3308   */\n      add\n        /* \"#utility.yul\":3255:3314   */\n      tag_299\n      jump\t// in\n    tag_312:\n        /* \"#utility.yul\":3248:3252   */\n      0x00\n        /* \"#utility.yul\":3241:3246   */\n      dup4\n        /* \"#utility.yul\":3237:3253   */\n      add\n        /* \"#utility.yul\":3230:3315   */\n      mstore\n        /* \"#utility.yul\":3006:3326   */\n      pop\n        /* \"#utility.yul\":3386:3388   */\n      0x20\n        /* \"#utility.yul\":3427:3476   */\n      tag_313\n        /* \"#utility.yul\":3472:3475   */\n      dup5\n        /* \"#utility.yul\":3463:3469   */\n      dup3\n        /* \"#utility.yul\":3452:3461   */\n      dup6\n        /* \"#utility.yul\":3448:3470   */\n      add\n        /* \"#utility.yul\":3427:3476   */\n      tag_314\n      jump\t// in\n    tag_313:\n        /* \"#utility.yul\":3420:3424   */\n      0x20\n        /* \"#utility.yul\":3413:3418   */\n      dup4\n        /* \"#utility.yul\":3409:3425   */\n      add\n        /* \"#utility.yul\":3402:3477   */\n      mstore\n        /* \"#utility.yul\":3336:3488   */\n      pop\n        /* \"#utility.yul\":3551:3553   */\n      0x40\n        /* \"#utility.yul\":3592:3641   */\n      tag_315\n        /* \"#utility.yul\":3637:3640   */\n      dup5\n        /* \"#utility.yul\":3628:3634   */\n      dup3\n        /* \"#utility.yul\":3617:3626   */\n      dup6\n        /* \"#utility.yul\":3613:3635   */\n      add\n        /* \"#utility.yul\":3592:3641   */\n      tag_314\n      jump\t// in\n    tag_315:\n        /* \"#utility.yul\":3585:3589   */\n      0x40\n        /* \"#utility.yul\":3578:3583   */\n      dup4\n        /* \"#utility.yul\":3574:3590   */\n      add\n        /* \"#utility.yul\":3567:3642   */\n      mstore\n        /* \"#utility.yul\":3498:3653   */\n      pop\n        /* \"#utility.yul\":2752:3660   */\n      swap3\n      swap2\n      pop\n      pop\n      jump\t// out\n        /* \"#utility.yul\":3666:3805   */\n    tag_314:\n        /* \"#utility.yul\":3712:3717   */\n      0x00\n        /* \"#utility.yul\":3750:3756   */\n      dup2\n        /* \"#utility.yul\":3737:3757   */\n      calldataload\n        /* \"#utility.yul\":3728:3757   */\n      swap1\n      pop\n        /* \"#utility.yul\":3766:3799   */\n      tag_317\n        /* \"#utility.yul\":3793:3798   */\n      dup2\n        /* \"#utility.yul\":3766:3799   */\n      tag_318\n      jump\t// in\n    tag_317:\n        /* \"#utility.yul\":3666:3805   */\n      swap3\n      swap2\n      pop\n      pop\n      jump\t// out\n        /* \"#utility.yul\":3811:3954   */\n    tag_319:\n        /* \"#utility.yul\":3868:3873   */\n      0x00\n        /* \"#utility.yul\":3899:3905   */\n      dup2\n        /* \"#utility.yul\":3893:3906   */\n      mload\n        /* \"#utility.yul\":3884:3906   */\n      swap1\n      pop\n        /* \"#utility.yul\":3915:3948   */\n      tag_321\n        /* \"#utility.yul\":3942:3947   */\n      dup2\n        /* \"#utility.yul\":3915:3948   */\n      tag_318\n      jump\t// in\n    tag_321:\n        /* \"#utility.yul\":3811:3954   */\n      swap3\n      swap2\n      pop\n      pop\n      jump\t// out\n        /* \"#utility.yul\":3960:4289   */\n    tag_27:\n        /* \"#utility.yul\":4019:4025   */\n      0x00\n        /* \"#utility.yul\":4068:4070   */\n      0x20\n        /* \"#utility.yul\":4056:4065   */\n      dup3\n        /* \"#utility.yul\":4047:4054   */\n      dup5\n        /* \"#utility.yul\":4043:4066   */\n      sub\n        /* \"#utility.yul\":4039:4071   */\n      slt\n        /* \"#utility.yul\":4036:4155   */\n      iszero\n      tag_323\n      jumpi\n        /* \"#utility.yul\":4074:4153   */\n      tag_324\n      tag_325\n      jump\t// in\n    tag_324:\n        /* \"#utility.yul\":4036:4155   */\n    tag_323:\n        /* \"#utility.yul\":4194:4195   */\n      0x00\n        /* \"#utility.yul\":4219:4272   */\n      tag_326\n        /* \"#utility.yul\":4264:4271   */\n      dup5\n        /* \"#utility.yul\":4255:4261   */\n      dup3\n        /* \"#utility.yul\":4244:4253   */\n      dup6\n        /* \"#utility.yul\":4240:4262   */\n      add\n        /* \"#utility.yul\":4219:4272   */\n      tag_282\n      jump\t// in\n    tag_326:\n        /* \"#utility.yul\":4209:4272   */\n      swap2\n      pop\n        /* \"#utility.yul\":4165:4282   */\n      pop\n        /* \"#utility.yul\":3960:4289   */\n      swap3\n      swap2\n      pop\n      pop\n      jump\t// out\n        /* \"#utility.yul\":4295:4640   */\n    tag_51:\n        /* \"#utility.yul\":4362:4368   */\n      0x00\n        /* \"#utility.yul\":4411:4413   */\n      0x20\n        /* \"#utility.yul\":4399:4408   */\n      dup3\n        /* \"#utility.yul\":4390:4397   */\n      dup5\n        /* \"#utility.yul\":4386:4409   */\n      sub\n        /* \"#utility.yul\":4382:4414   */\n      slt\n        /* \"#utility.yul\":4379:4498   */\n      iszero\n      tag_328\n      jumpi\n        /* \"#utility.yul\":4417:4496   */\n      tag_329\n      tag_325\n      jump\t// in\n    tag_329:\n        /* \"#utility.yul\":4379:4498   */\n    tag_328:\n        /* \"#utility.yul\":4537:4538   */\n      0x00\n        /* \"#utility.yul\":4562:4623   */\n      tag_330\n        /* \"#utility.yul\":4615:4622   */\n      dup5\n        /* \"#utility.yul\":4606:4612   */\n      dup3\n        /* \"#utility.yul\":4595:4604   */\n      dup6\n        /* \"#utility.yul\":4591:4613   */\n      add\n        /* \"#utility.yul\":4562:4623   */\n      tag_286\n      jump\t// in\n    tag_330:\n        /* \"#utility.yul\":4552:4623   */\n      swap2\n      pop\n        /* \"#utility.yul\":4508:4633   */\n      pop\n        /* \"#utility.yul\":4295:4640   */\n      swap3\n      swap2\n      pop\n      pop\n      jump\t// out\n        /* \"#utility.yul\":4646:5300   */\n    tag_17:\n        /* \"#utility.yul\":4724:4730   */\n      0x00\n        /* \"#utility.yul\":4732:4738   */\n      dup1\n        /* \"#utility.yul\":4781:4783   */\n      0x40\n        /* \"#utility.yul\":4769:4778   */\n      dup4\n        /* \"#utility.yul\":4760:4767   */\n      dup6\n        /* \"#utility.yul\":4756:4779   */\n      sub\n        /* \"#utility.yul\":4752:4784   */\n      slt\n        /* \"#utility.yul\":4749:4868   */\n      iszero\n      tag_332\n      jumpi\n        /* \"#utility.yul\":4787:4866   */\n      tag_333\n      tag_325\n      jump\t// in\n    tag_333:\n        /* \"#utility.yul\":4749:4868   */\n    tag_332:\n        /* \"#utility.yul\":4907:4908   */\n      0x00\n        /* \"#utility.yul\":4932:4985   */\n      tag_334\n        /* \"#utility.yul\":4977:4984   */\n      dup6\n        /* \"#utility.yul\":4968:4974   */\n      dup3\n        /* \"#utility.yul\":4957:4966   */\n      dup7\n        /* \"#utility.yul\":4953:4975   */\n      add\n        /* \"#utility.yul\":4932:4985   */\n      tag_282\n      jump\t// in\n    tag_334:\n        /* \"#utility.yul\":4922:4985   */\n      swap3\n      pop\n        /* \"#utility.yul\":4878:4995   */\n      pop\n        /* \"#utility.yul\":5062:5064   */\n      0x20\n        /* \"#utility.yul\":5051:5060   */\n      dup4\n        /* \"#utility.yul\":5047:5065   */\n      add\n        /* \"#utility.yul\":5034:5066   */\n      calldataload\n        /* \"#utility.yul\":5093:5111   */\n      0xffffffffffffffff\n        /* \"#utility.yul\":5085:5091   */\n      dup2\n        /* \"#utility.yul\":5082:5112   */\n      gt\n        /* \"#utility.yul\":5079:5196   */\n      iszero\n      tag_335\n      jumpi\n        /* \"#utility.yul\":5115:5194   */\n      tag_336\n      tag_337\n      jump\t// in\n    tag_336:\n        /* \"#utility.yul\":5079:5196   */\n    tag_335:\n        /* \"#utility.yul\":5220:5283   */\n      tag_338\n        /* \"#utility.yul\":5275:5282   */\n      dup6\n        /* \"#utility.yul\":5266:5272   */\n      dup3\n        /* \"#utility.yul\":5255:5264   */\n      dup7\n        /* \"#utility.yul\":5251:5273   */\n      add\n        /* \"#utility.yul\":5220:5283   */\n      tag_299\n      jump\t// in\n    tag_338:\n        /* \"#utility.yul\":5210:5283   */\n      swap2\n      pop\n        /* \"#utility.yul\":5005:5293   */\n      pop\n        /* \"#utility.yul\":4646:5300   */\n      swap3\n      pop\n      swap3\n      swap1\n      pop\n      jump\t// out\n        /* \"#utility.yul\":5306:5651   */\n    tag_213:\n        /* \"#utility.yul\":5373:5379   */\n      0x00\n        /* \"#utility.yul\":5422:5424   */\n      0x20\n        /* \"#utility.yul\":5410:5419   */\n      dup3\n        /* \"#utility.yul\":5401:5408   */\n      dup5\n        /* \"#utility.yul\":5397:5420   */\n      sub\n        /* \"#utility.yul\":5393:5425   */\n      slt\n        /* \"#utility.yul\":5390:5509   */\n      iszero\n      tag_340\n      jumpi\n        /* \"#utility.yul\":5428:5507   */\n      tag_341\n      tag_325\n      jump\t// in\n    tag_341:\n        /* \"#utility.yul\":5390:5509   */\n    tag_340:\n        /* \"#utility.yul\":5548:5549   */\n      0x00\n        /* \"#utility.yul\":5573:5634   */\n      tag_342\n        /* \"#utility.yul\":5626:5633   */\n      dup5\n        /* \"#utility.yul\":5617:5623   */\n      dup3\n        /* \"#utility.yul\":5606:5615   */\n      dup6\n        /* \"#utility.yul\":5602:5624   */\n      add\n        /* \"#utility.yul\":5573:5634   */\n      tag_295\n      jump\t// in\n    tag_342:\n        /* \"#utility.yul\":5563:5634   */\n      swap2\n      pop\n        /* \"#utility.yul\":5519:5644   */\n      pop\n        /* \"#utility.yul\":5306:5651   */\n      swap3\n      swap2\n      pop\n      pop\n      jump\t// out\n        /* \"#utility.yul\":5657:7004   */\n    tag_23:\n        /* \"#utility.yul\":5810:5816   */\n      0x00\n        /* \"#utility.yul\":5818:5824   */\n      dup1\n        /* \"#utility.yul\":5826:5832   */\n      0x00\n        /* \"#utility.yul\":5834:5840   */\n      dup1\n        /* \"#utility.yul\":5842:5848   */\n      0x00\n        /* \"#utility.yul\":5891:5894   */\n      0xa0\n        /* \"#utility.yul\":5879:5888   */\n      dup7\n        /* \"#utility.yul\":5870:5877   */\n      dup9\n        /* \"#utility.yul\":5866:5889   */\n      sub\n        /* \"#utility.yul\":5862:5895   */\n      slt\n        /* \"#utility.yul\":5859:5979   */\n      iszero\n      tag_344\n      jumpi\n        /* \"#utility.yul\":5898:5977   */\n      tag_345\n      tag_325\n      jump\t// in\n    tag_345:\n        /* \"#utility.yul\":5859:5979   */\n    tag_344:\n        /* \"#utility.yul\":6046:6047   */\n      0x00\n        /* \"#utility.yul\":6035:6044   */\n      dup7\n        /* \"#utility.yul\":6031:6048   */\n      add\n        /* \"#utility.yul\":6018:6049   */\n      calldataload\n        /* \"#utility.yul\":6076:6094   */\n      0xffffffffffffffff\n        /* \"#utility.yul\":6068:6074   */\n      dup2\n        /* \"#utility.yul\":6065:6095   */\n      gt\n        /* \"#utility.yul\":6062:6179   */\n      iszero\n      tag_346\n      jumpi\n        /* \"#utility.yul\":6098:6177   */\n      tag_347\n      tag_337\n      jump\t// in\n    tag_347:\n        /* \"#utility.yul\":6062:6179   */\n    tag_346:\n        /* \"#utility.yul\":6203:6266   */\n      tag_348\n        /* \"#utility.yul\":6258:6265   */\n      dup9\n        /* \"#utility.yul\":6249:6255   */\n      dup3\n        /* \"#utility.yul\":6238:6247   */\n      dup10\n        /* \"#utility.yul\":6234:6256   */\n      add\n        /* \"#utility.yul\":6203:6266   */\n      tag_299\n      jump\t// in\n    tag_348:\n        /* \"#utility.yul\":6193:6266   */\n      swap6\n      pop\n        /* \"#utility.yul\":5989:6276   */\n      pop\n        /* \"#utility.yul\":6315:6317   */\n      0x20\n        /* \"#utility.yul\":6341:6394   */\n      tag_349\n        /* \"#utility.yul\":6386:6393   */\n      dup9\n        /* \"#utility.yul\":6377:6383   */\n      dup3\n        /* \"#utility.yul\":6366:6375   */\n      dup10\n        /* \"#utility.yul\":6362:6384   */\n      add\n        /* \"#utility.yul\":6341:6394   */\n      tag_314\n      jump\t// in\n    tag_349:\n        /* \"#utility.yul\":6331:6394   */\n      swap5\n      pop\n        /* \"#utility.yul\":6286:6404   */\n      pop\n        /* \"#utility.yul\":6443:6445   */\n      0x40\n        /* \"#utility.yul\":6469:6522   */\n      tag_350\n        /* \"#utility.yul\":6514:6521   */\n      dup9\n        /* \"#utility.yul\":6505:6511   */\n      dup3\n        /* \"#utility.yul\":6494:6503   */\n      dup10\n        /* \"#utility.yul\":6490:6512   */\n      add\n        /* \"#utility.yul\":6469:6522   */\n      tag_314\n      jump\t// in\n    tag_350:\n        /* \"#utility.yul\":6459:6522   */\n      swap4\n      pop\n        /* \"#utility.yul\":6414:6532   */\n      pop\n        /* \"#utility.yul\":6571:6573   */\n      0x60\n        /* \"#utility.yul\":6597:6650   */\n      tag_351\n        /* \"#utility.yul\":6642:6649   */\n      dup9\n        /* \"#utility.yul\":6633:6639   */\n      dup3\n        /* \"#utility.yul\":6622:6631   */\n      dup10\n        /* \"#utility.yul\":6618:6640   */\n      add\n        /* \"#utility.yul\":6597:6650   */\n      tag_314\n      jump\t// in\n    tag_351:\n        /* \"#utility.yul\":6587:6650   */\n      swap3\n      pop\n        /* \"#utility.yul\":6542:6660   */\n      pop\n        /* \"#utility.yul\":6727:6730   */\n      0x80\n        /* \"#utility.yul\":6716:6725   */\n      dup7\n        /* \"#utility.yul\":6712:6731   */\n      add\n        /* \"#utility.yul\":6699:6732   */\n      calldataload\n        /* \"#utility.yul\":6759:6777   */\n      0xffffffffffffffff\n        /* \"#utility.yul\":6751:6757   */\n      dup2\n        /* \"#utility.yul\":6748:6778   */\n      gt\n        /* \"#utility.yul\":6745:6862   */\n      iszero\n      tag_352\n      jumpi\n        /* \"#utility.yul\":6781:6860   */\n      tag_353\n      tag_337\n      jump\t// in\n    tag_353:\n        /* \"#utility.yul\":6745:6862   */\n    tag_352:\n        /* \"#utility.yul\":6886:6987   */\n      tag_354\n        /* \"#utility.yul\":6979:6986   */\n      dup9\n        /* \"#utility.yul\":6970:6976   */\n      dup3\n        /* \"#utility.yul\":6959:6968   */\n      dup10\n        /* \"#utility.yul\":6955:6977   */\n      add\n        /* \"#utility.yul\":6886:6987   */\n      tag_290\n      jump\t// in\n    tag_354:\n        /* \"#utility.yul\":6876:6987   */\n      swap2\n      pop\n        /* \"#utility.yul\":6670:6997   */\n      pop\n        /* \"#utility.yul\":5657:7004   */\n      swap3\n      swap6\n      pop\n      swap3\n      swap6\n      swap1\n      swap4\n      pop\n      jump\t// out\n        /* \"#utility.yul\":7010:7339   */\n    tag_46:\n        /* \"#utility.yul\":7069:7075   */\n      0x00\n        /* \"#utility.yul\":7118:7120   */\n      0x20\n        /* \"#utility.yul\":7106:7115   */\n      dup3\n        /* \"#utility.yul\":7097:7104   */\n      dup5\n        /* \"#utility.yul\":7093:7116   */\n      sub\n        /* \"#utility.yul\":7089:7121   */\n      slt\n        /* \"#utility.yul\":7086:7205   */\n      iszero\n      tag_356\n      jumpi\n        /* \"#utility.yul\":7124:7203   */\n      tag_357\n      tag_325\n      jump\t// in\n    tag_357:\n        /* \"#utility.yul\":7086:7205   */\n    tag_356:\n        /* \"#utility.yul\":7244:7245   */\n      0x00\n        /* \"#utility.yul\":7269:7322   */\n      tag_358\n        /* \"#utility.yul\":7314:7321   */\n      dup5\n        /* \"#utility.yul\":7305:7311   */\n      dup3\n        /* \"#utility.yul\":7294:7303   */\n      dup6\n        /* \"#utility.yul\":7290:7312   */\n      add\n        /* \"#utility.yul\":7269:7322   */\n      tag_314\n      jump\t// in\n    tag_358:\n        /* \"#utility.yul\":7259:7322   */\n      swap2\n      pop\n        /* \"#utility.yul\":7215:7332   */\n      pop\n        /* \"#utility.yul\":7010:7339   */\n      swap3\n      swap2\n      pop\n      pop\n      jump\t// out\n        /* \"#utility.yul\":7345:7696   */\n    tag_88:\n        /* \"#utility.yul\":7415:7421   */\n      0x00\n        /* \"#utility.yul\":7464:7466   */\n      0x20\n        /* \"#utility.yul\":7452:7461   */\n      dup3\n        /* \"#utility.yul\":7443:7450   */\n      dup5\n        /* \"#utility.yul\":7439:7462   */\n      sub\n        /* \"#utility.yul\":7435:7467   */\n      slt\n        /* \"#utility.yul\":7432:7551   */\n      iszero\n      tag_360\n      jumpi\n        /* \"#utility.yul\":7470:7549   */\n      tag_361\n      tag_325\n      jump\t// in\n    tag_361:\n        /* \"#utility.yul\":7432:7551   */\n    tag_360:\n        /* \"#utility.yul\":7590:7591   */\n      0x00\n        /* \"#utility.yul\":7615:7679   */\n      tag_362\n        /* \"#utility.yul\":7671:7678   */\n      dup5\n        /* \"#utility.yul\":7662:7668   */\n      dup3\n        /* \"#utility.yul\":7651:7660   */\n      dup6\n        /* \"#utility.yul\":7647:7669   */\n      add\n        /* \"#utility.yul\":7615:7679   */\n      tag_319\n      jump\t// in\n    tag_362:\n        /* \"#utility.yul\":7605:7679   */\n      swap2\n      pop\n        /* \"#utility.yul\":7561:7689   */\n      pop\n        /* \"#utility.yul\":7345:7696   */\n      swap3\n      swap2\n      pop\n      pop\n      jump\t// out\n        /* \"#utility.yul\":7702:7844   */\n    tag_363:\n        /* \"#utility.yul\":7805:7837   */\n      tag_365\n        /* \"#utility.yul\":7831:7836   */\n      dup2\n        /* \"#utility.yul\":7805:7837   */\n      tag_366\n      jump\t// in\n    tag_365:\n        /* \"#utility.yul\":7800:7803   */\n      dup3\n        /* \"#utility.yul\":7793:7838   */\n      mstore\n        /* \"#utility.yul\":7702:7844   */\n      pop\n      pop\n      jump\t// out\n        /* \"#utility.yul\":7850:7958   */\n    tag_367:\n        /* \"#utility.yul\":7927:7951   */\n      tag_369\n        /* \"#utility.yul\":7945:7950   */\n      dup2\n        /* \"#utility.yul\":7927:7951   */\n      tag_370\n      jump\t// in\n    tag_369:\n        /* \"#utility.yul\":7922:7925   */\n      dup3\n        /* \"#utility.yul\":7915:7952   */\n      mstore\n        /* \"#utility.yul\":7850:7958   */\n      pop\n      pop\n      jump\t// out\n        /* \"#utility.yul\":7964:8082   */\n    tag_371:\n        /* \"#utility.yul\":8051:8075   */\n      tag_373\n        /* \"#utility.yul\":8069:8074   */\n      dup2\n        /* \"#utility.yul\":8051:8075   */\n      tag_370\n      jump\t// in\n    tag_373:\n        /* \"#utility.yul\":8046:8049   */\n      dup3\n        /* \"#utility.yul\":8039:8076   */\n      mstore\n        /* \"#utility.yul\":7964:8082   */\n      pop\n      pop\n      jump\t// out\n        /* \"#utility.yul\":8088:8461   */\n    tag_374:\n        /* \"#utility.yul\":8192:8195   */\n      0x00\n        /* \"#utility.yul\":8220:8258   */\n      tag_376\n        /* \"#utility.yul\":8252:8257   */\n      dup3\n        /* \"#utility.yul\":8220:8258   */\n      tag_377\n      jump\t// in\n    tag_376:\n        /* \"#utility.yul\":8274:8362   */\n      tag_378\n        /* \"#utility.yul\":8355:8361   */\n      dup2\n        /* \"#utility.yul\":8350:8353   */\n      dup6\n        /* \"#utility.yul\":8274:8362   */\n      tag_379\n      jump\t// in\n    tag_378:\n        /* \"#utility.yul\":8267:8362   */\n      swap4\n      pop\n        /* \"#utility.yul\":8371:8423   */\n      tag_380\n        /* \"#utility.yul\":8416:8422   */\n      dup2\n        /* \"#utility.yul\":8411:8414   */\n      dup6\n        /* \"#utility.yul\":8404:8408   */\n      0x20\n        /* \"#utility.yul\":8397:8402   */\n      dup7\n        /* \"#utility.yul\":8393:8409   */\n      add\n        /* \"#utility.yul\":8371:8423   */\n      tag_381\n      jump\t// in\n    tag_380:\n        /* \"#utility.yul\":8448:8454   */\n      dup1\n        /* \"#utility.yul\":8443:8446   */\n      dup5\n        /* \"#utility.yul\":8439:8455   */\n      add\n        /* \"#utility.yul\":8432:8455   */\n      swap2\n      pop\n        /* \"#utility.yul\":8196:8461   */\n      pop\n        /* \"#utility.yul\":8088:8461   */\n      swap3\n      swap2\n      pop\n      pop\n      jump\t// out\n        /* \"#utility.yul\":8467:8811   */\n    tag_382:\n        /* \"#utility.yul\":8545:8548   */\n      0x00\n        /* \"#utility.yul\":8573:8612   */\n      tag_384\n        /* \"#utility.yul\":8606:8611   */\n      dup3\n        /* \"#utility.yul\":8573:8612   */\n      tag_385\n      jump\t// in\n    tag_384:\n        /* \"#utility.yul\":8628:8689   */\n      tag_386\n        /* \"#utility.yul\":8682:8688   */\n      dup2\n        /* \"#utility.yul\":8677:8680   */\n      dup6\n        /* \"#utility.yul\":8628:8689   */\n      tag_387\n      jump\t// in\n    tag_386:\n        /* \"#utility.yul\":8621:8689   */\n      swap4\n      pop\n        /* \"#utility.yul\":8698:8750   */\n      tag_388\n        /* \"#utility.yul\":8743:8749   */\n      dup2\n        /* \"#utility.yul\":8738:8741   */\n      dup6\n        /* \"#utility.yul\":8731:8735   */\n      0x20\n        /* \"#utility.yul\":8724:8729   */\n      dup7\n        /* \"#utility.yul\":8720:8736   */\n      add\n        /* \"#utility.yul\":8698:8750   */\n      tag_381\n      jump\t// in\n    tag_388:\n        /* \"#utility.yul\":8775:8804   */\n      tag_389\n        /* \"#utility.yul\":8797:8803   */\n      dup2\n        /* \"#utility.yul\":8775:8804   */\n      tag_390\n      jump\t// in\n    tag_389:\n        /* \"#utility.yul\":8770:8773   */\n      dup5\n        /* \"#utility.yul\":8766:8805   */\n      add\n        /* \"#utility.yul\":8759:8805   */\n      swap2\n      pop\n        /* \"#utility.yul\":8549:8811   */\n      pop\n        /* \"#utility.yul\":8467:8811   */\n      swap3\n      swap2\n      pop\n      pop\n      jump\t// out\n        /* \"#utility.yul\":8817:9181   */\n    tag_391:\n        /* \"#utility.yul\":8905:8908   */\n      0x00\n        /* \"#utility.yul\":8933:8972   */\n      tag_393\n        /* \"#utility.yul\":8966:8971   */\n      dup3\n        /* \"#utility.yul\":8933:8972   */\n      tag_385\n      jump\t// in\n    tag_393:\n        /* \"#utility.yul\":8988:9059   */\n      tag_394\n        /* \"#utility.yul\":9052:9058   */\n      dup2\n        /* \"#utility.yul\":9047:9050   */\n      dup6\n        /* \"#utility.yul\":8988:9059   */\n      tag_395\n      jump\t// in\n    tag_394:\n        /* \"#utility.yul\":8981:9059   */\n      swap4\n      pop\n        /* \"#utility.yul\":9068:9120   */\n      tag_396\n        /* \"#utility.yul\":9113:9119   */\n      dup2\n        /* \"#utility.yul\":9108:9111   */\n      dup6\n        /* \"#utility.yul\":9101:9105   */\n      0x20\n        /* \"#utility.yul\":9094:9099   */\n      dup7\n        /* \"#utility.yul\":9090:9106   */\n      add\n        /* \"#utility.yul\":9068:9120   */\n      tag_381\n      jump\t// in\n    tag_396:\n        /* \"#utility.yul\":9145:9174   */\n      tag_397\n        /* \"#utility.yul\":9167:9173   */\n      dup2\n        /* \"#utility.yul\":9145:9174   */\n      tag_390\n      jump\t// in\n    tag_397:\n        /* \"#utility.yul\":9140:9143   */\n      dup5\n        /* \"#utility.yul\":9136:9175   */\n      add\n        /* \"#utility.yul\":9129:9175   */\n      swap2\n      pop\n        /* \"#utility.yul\":8909:9181   */\n      pop\n        /* \"#utility.yul\":8817:9181   */\n      swap3\n      swap2\n      pop\n      pop\n      jump\t// out\n        /* \"#utility.yul\":9187:9564   */\n    tag_398:\n        /* \"#utility.yul\":9293:9296   */\n      0x00\n        /* \"#utility.yul\":9321:9360   */\n      tag_400\n        /* \"#utility.yul\":9354:9359   */\n      dup3\n        /* \"#utility.yul\":9321:9360   */\n      tag_385\n      jump\t// in\n    tag_400:\n        /* \"#utility.yul\":9376:9465   */\n      tag_401\n        /* \"#utility.yul\":9458:9464   */\n      dup2\n        /* \"#utility.yul\":9453:9456   */\n      dup6\n        /* \"#utility.yul\":9376:9465   */\n      tag_402\n      jump\t// in\n    tag_401:\n        /* \"#utility.yul\":9369:9465   */\n      swap4\n      pop\n        /* \"#utility.yul\":9474:9526   */\n      tag_403\n        /* \"#utility.yul\":9519:9525   */\n      dup2\n        /* \"#utility.yul\":9514:9517   */\n      dup6\n        /* \"#utility.yul\":9507:9511   */\n      0x20\n        /* \"#utility.yul\":9500:9505   */\n      dup7\n        /* \"#utility.yul\":9496:9512   */\n      add\n        /* \"#utility.yul\":9474:9526   */\n      tag_381\n      jump\t// in\n    tag_403:\n        /* \"#utility.yul\":9551:9557   */\n      dup1\n        /* \"#utility.yul\":9546:9549   */\n      dup5\n        /* \"#utility.yul\":9542:9558   */\n      add\n        /* \"#utility.yul\":9535:9558   */\n      swap2\n      pop\n        /* \"#utility.yul\":9297:9564   */\n      pop\n        /* \"#utility.yul\":9187:9564   */\n      swap3\n      swap2\n      pop\n      pop\n      jump\t// out\n        /* \"#utility.yul\":9594:10439   */\n    tag_404:\n        /* \"#utility.yul\":9697:9700   */\n      0x00\n        /* \"#utility.yul\":9734:9739   */\n      dup2\n        /* \"#utility.yul\":9728:9740   */\n      sload\n        /* \"#utility.yul\":9763:9799   */\n      tag_406\n        /* \"#utility.yul\":9789:9798   */\n      dup2\n        /* \"#utility.yul\":9763:9799   */\n      tag_66\n      jump\t// in\n    tag_406:\n        /* \"#utility.yul\":9815:9904   */\n      tag_407\n        /* \"#utility.yul\":9897:9903   */\n      dup2\n        /* \"#utility.yul\":9892:9895   */\n      dup7\n        /* \"#utility.yul\":9815:9904   */\n      tag_402\n      jump\t// in\n    tag_407:\n        /* \"#utility.yul\":9808:9904   */\n      swap5\n      pop\n        /* \"#utility.yul\":9935:9936   */\n      0x01\n        /* \"#utility.yul\":9924:9933   */\n      dup3\n        /* \"#utility.yul\":9920:9937   */\n      and\n        /* \"#utility.yul\":9951:9952   */\n      0x00\n        /* \"#utility.yul\":9946:10083   */\n      dup2\n      eq\n      tag_409\n      jumpi\n        /* \"#utility.yul\":10097:10098   */\n      0x01\n        /* \"#utility.yul\":10092:10433   */\n      dup2\n      eq\n      tag_410\n      jumpi\n        /* \"#utility.yul\":9913:10433   */\n      jump(tag_408)\n        /* \"#utility.yul\":9946:10083   */\n    tag_409:\n        /* \"#utility.yul\":10030:10034   */\n      0xff\n        /* \"#utility.yul\":10026:10035   */\n      not\n        /* \"#utility.yul\":10015:10024   */\n      dup4\n        /* \"#utility.yul\":10011:10036   */\n      and\n        /* \"#utility.yul\":10006:10009   */\n      dup7\n        /* \"#utility.yul\":9999:10037   */\n      mstore\n        /* \"#utility.yul\":10066:10072   */\n      dup2\n        /* \"#utility.yul\":10061:10064   */\n      dup7\n        /* \"#utility.yul\":10057:10073   */\n      add\n        /* \"#utility.yul\":10050:10073   */\n      swap4\n      pop\n        /* \"#utility.yul\":9946:10083   */\n      jump(tag_408)\n        /* \"#utility.yul\":10092:10433   */\n    tag_410:\n        /* \"#utility.yul\":10159:10197   */\n      tag_411\n        /* \"#utility.yul\":10191:10196   */\n      dup6\n        /* \"#utility.yul\":10159:10197   */\n      tag_412\n      jump\t// in\n    tag_411:\n        /* \"#utility.yul\":10219:10220   */\n      0x00\n        /* \"#utility.yul\":10233:10387   */\n    tag_413:\n        /* \"#utility.yul\":10247:10253   */\n      dup4\n        /* \"#utility.yul\":10244:10245   */\n      dup2\n        /* \"#utility.yul\":10241:10254   */\n      lt\n        /* \"#utility.yul\":10233:10387   */\n      iszero\n      tag_415\n      jumpi\n        /* \"#utility.yul\":10321:10328   */\n      dup2\n        /* \"#utility.yul\":10315:10329   */\n      sload\n        /* \"#utility.yul\":10311:10312   */\n      dup2\n        /* \"#utility.yul\":10306:10309   */\n      dup10\n        /* \"#utility.yul\":10302:10313   */\n      add\n        /* \"#utility.yul\":10295:10330   */\n      mstore\n        /* \"#utility.yul\":10371:10372   */\n      0x01\n        /* \"#utility.yul\":10362:10369   */\n      dup3\n        /* \"#utility.yul\":10358:10373   */\n      add\n        /* \"#utility.yul\":10347:10373   */\n      swap2\n      pop\n        /* \"#utility.yul\":10269:10273   */\n      0x20\n        /* \"#utility.yul\":10266:10267   */\n      dup2\n        /* \"#utility.yul\":10262:10274   */\n      add\n        /* \"#utility.yul\":10257:10274   */\n      swap1\n      pop\n        /* \"#utility.yul\":10233:10387   */\n      jump(tag_413)\n    tag_415:\n        /* \"#utility.yul\":10416:10422   */\n      dup4\n        /* \"#utility.yul\":10411:10414   */\n      dup9\n        /* \"#utility.yul\":10407:10423   */\n      add\n        /* \"#utility.yul\":10400:10423   */\n      swap6\n      pop\n        /* \"#utility.yul\":10099:10433   */\n      pop\n      pop\n        /* \"#utility.yul\":9913:10433   */\n    tag_408:\n      pop\n        /* \"#utility.yul\":9701:10439   */\n      pop\n      pop\n        /* \"#utility.yul\":9594:10439   */\n      swap3\n      swap2\n      pop\n      pop\n      jump\t// out\n        /* \"#utility.yul\":10445:10811   */\n    tag_416:\n        /* \"#utility.yul\":10587:10590   */\n      0x00\n        /* \"#utility.yul\":10608:10675   */\n      tag_418\n        /* \"#utility.yul\":10672:10674   */\n      0x26\n        /* \"#utility.yul\":10667:10670   */\n      dup4\n        /* \"#utility.yul\":10608:10675   */\n      tag_395\n      jump\t// in\n    tag_418:\n        /* \"#utility.yul\":10601:10675   */\n      swap2\n      pop\n        /* \"#utility.yul\":10684:10777   */\n      tag_419\n        /* \"#utility.yul\":10773:10776   */\n      dup3\n        /* \"#utility.yul\":10684:10777   */\n      tag_420\n      jump\t// in\n    tag_419:\n        /* \"#utility.yul\":10802:10804   */\n      0x40\n        /* \"#utility.yul\":10797:10800   */\n      dup3\n        /* \"#utility.yul\":10793:10805   */\n      add\n        /* \"#utility.yul\":10786:10805   */\n      swap1\n      pop\n        /* \"#utility.yul\":10445:10811   */\n      swap2\n      swap1\n      pop\n      jump\t// out\n        /* \"#utility.yul\":10817:11183   */\n    tag_421:\n        /* \"#utility.yul\":10959:10962   */\n      0x00\n        /* \"#utility.yul\":10980:11047   */\n      tag_423\n        /* \"#utility.yul\":11044:11046   */\n      0x20\n        /* \"#utility.yul\":11039:11042   */\n      dup4\n        /* \"#utility.yul\":10980:11047   */\n      tag_395\n      jump\t// in\n    tag_423:\n        /* \"#utility.yul\":10973:11047   */\n      swap2\n      pop\n        /* \"#utility.yul\":11056:11149   */\n      tag_424\n        /* \"#utility.yul\":11145:11148   */\n      dup3\n        /* \"#utility.yul\":11056:11149   */\n      tag_425\n      jump\t// in\n    tag_424:\n        /* \"#utility.yul\":11174:11176   */\n      0x20\n        /* \"#utility.yul\":11169:11172   */\n      dup3\n        /* \"#utility.yul\":11165:11177   */\n      add\n        /* \"#utility.yul\":11158:11177   */\n      swap1\n      pop\n        /* \"#utility.yul\":10817:11183   */\n      swap2\n      swap1\n      pop\n      jump\t// out\n        /* \"#utility.yul\":11189:11555   */\n    tag_426:\n        /* \"#utility.yul\":11331:11334   */\n      0x00\n        /* \"#utility.yul\":11352:11419   */\n      tag_428\n        /* \"#utility.yul\":11416:11418   */\n      0x26\n        /* \"#utility.yul\":11411:11414   */\n      dup4\n        /* \"#utility.yul\":11352:11419   */\n      tag_395\n      jump\t// in\n    tag_428:\n        /* \"#utility.yul\":11345:11419   */\n      swap2\n      pop\n        /* \"#utility.yul\":11428:11521   */\n      tag_429\n        /* \"#utility.yul\":11517:11520   */\n      dup3\n        /* \"#utility.yul\":11428:11521   */\n      tag_430\n      jump\t// in\n    tag_429:\n        /* \"#utility.yul\":11546:11548   */\n      0x40\n        /* \"#utility.yul\":11541:11544   */\n      dup3\n        /* \"#utility.yul\":11537:11549   */\n      add\n        /* \"#utility.yul\":11530:11549   */\n      swap1\n      pop\n        /* \"#utility.yul\":11189:11555   */\n      swap2\n      swap1\n      pop\n      jump\t// out\n        /* \"#utility.yul\":11561:11927   */\n    tag_431:\n        /* \"#utility.yul\":11703:11706   */\n      0x00\n        /* \"#utility.yul\":11724:11791   */\n      tag_433\n        /* \"#utility.yul\":11788:11790   */\n      0x20\n        /* \"#utility.yul\":11783:11786   */\n      dup4\n        /* \"#utility.yul\":11724:11791   */\n      tag_395\n      jump\t// in\n    tag_433:\n        /* \"#utility.yul\":11717:11791   */\n      swap2\n      pop\n        /* \"#utility.yul\":11800:11893   */\n      tag_434\n        /* \"#utility.yul\":11889:11892   */\n      dup3\n        /* \"#utility.yul\":11800:11893   */\n      tag_435\n      jump\t// in\n    tag_434:\n        /* \"#utility.yul\":11918:11920   */\n      0x20\n        /* \"#utility.yul\":11913:11916   */\n      dup3\n        /* \"#utility.yul\":11909:11921   */\n      add\n        /* \"#utility.yul\":11902:11921   */\n      swap1\n      pop\n        /* \"#utility.yul\":11561:11927   */\n      swap2\n      swap1\n      pop\n      jump\t// out\n        /* \"#utility.yul\":11933:12299   */\n    tag_436:\n        /* \"#utility.yul\":12075:12078   */\n      0x00\n        /* \"#utility.yul\":12096:12163   */\n      tag_438\n        /* \"#utility.yul\":12160:12162   */\n      0x2c\n        /* \"#utility.yul\":12155:12158   */\n      dup4\n        /* \"#utility.yul\":12096:12163   */\n      tag_395\n      jump\t// in\n    tag_438:\n        /* \"#utility.yul\":12089:12163   */\n      swap2\n      pop\n        /* \"#utility.yul\":12172:12265   */\n      tag_439\n        /* \"#utility.yul\":12261:12264   */\n      dup3\n        /* \"#utility.yul\":12172:12265   */\n      tag_440\n      jump\t// in\n    tag_439:\n        /* \"#utility.yul\":12290:12292   */\n      0x40\n        /* \"#utility.yul\":12285:12288   */\n      dup3\n        /* \"#utility.yul\":12281:12293   */\n      add\n        /* \"#utility.yul\":12274:12293   */\n      swap1\n      pop\n        /* \"#utility.yul\":11933:12299   */\n      swap2\n      swap1\n      pop\n      jump\t// out\n        /* \"#utility.yul\":12305:12671   */\n    tag_441:\n        /* \"#utility.yul\":12447:12450   */\n      0x00\n        /* \"#utility.yul\":12468:12535   */\n      tag_443\n        /* \"#utility.yul\":12532:12534   */\n      0x1d\n        /* \"#utility.yul\":12527:12530   */\n      dup4\n        /* \"#utility.yul\":12468:12535   */\n      tag_395\n      jump\t// in\n    tag_443:\n        /* \"#utility.yul\":12461:12535   */\n      swap2\n      pop\n        /* \"#utility.yul\":12544:12637   */\n      tag_444\n        /* \"#utility.yul\":12633:12636   */\n      dup3\n        /* \"#utility.yul\":12544:12637   */\n      tag_445\n      jump\t// in\n    tag_444:\n        /* \"#utility.yul\":12662:12664   */\n      0x20\n        /* \"#utility.yul\":12657:12660   */\n      dup3\n        /* \"#utility.yul\":12653:12665   */\n      add\n        /* \"#utility.yul\":12646:12665   */\n      swap1\n      pop\n        /* \"#utility.yul\":12305:12671   */\n      swap2\n      swap1\n      pop\n      jump\t// out\n        /* \"#utility.yul\":12677:13043   */\n    tag_446:\n        /* \"#utility.yul\":12819:12822   */\n      0x00\n        /* \"#utility.yul\":12840:12907   */\n      tag_448\n        /* \"#utility.yul\":12904:12906   */\n      0x2a\n        /* \"#utility.yul\":12899:12902   */\n      dup4\n        /* \"#utility.yul\":12840:12907   */\n      tag_395\n      jump\t// in\n    tag_448:\n        /* \"#utility.yul\":12833:12907   */\n      swap2\n      pop\n        /* \"#utility.yul\":12916:13009   */\n      tag_449\n        /* \"#utility.yul\":13005:13008   */\n      dup3\n        /* \"#utility.yul\":12916:13009   */\n      tag_450\n      jump\t// in\n    tag_449:\n        /* \"#utility.yul\":13034:13036   */\n      0x40\n        /* \"#utility.yul\":13029:13032   */\n      dup3\n        /* \"#utility.yul\":13025:13037   */\n      add\n        /* \"#utility.yul\":13018:13037   */\n      swap1\n      pop\n        /* \"#utility.yul\":12677:13043   */\n      swap2\n      swap1\n      pop\n      jump\t// out\n        /* \"#utility.yul\":13049:13415   */\n    tag_451:\n        /* \"#utility.yul\":13191:13194   */\n      0x00\n        /* \"#utility.yul\":13212:13279   */\n      tag_453\n        /* \"#utility.yul\":13276:13278   */\n      0x32\n        /* \"#utility.yul\":13271:13274   */\n      dup4\n        /* \"#utility.yul\":13212:13279   */\n      tag_395\n      jump\t// in\n    tag_453:\n        /* \"#utility.yul\":13205:13279   */\n      swap2\n      pop\n        /* \"#utility.yul\":13288:13381   */\n      tag_454\n        /* \"#utility.yul\":13377:13380   */\n      dup3\n        /* \"#utility.yul\":13288:13381   */\n      tag_455\n      jump\t// in\n    tag_454:\n        /* \"#utility.yul\":13406:13408   */\n      0x40\n        /* \"#utility.yul\":13401:13404   */\n      dup3\n        /* \"#utility.yul\":13397:13409   */\n      add\n        /* \"#utility.yul\":13390:13409   */\n      swap1\n      pop\n        /* \"#utility.yul\":13049:13415   */\n      swap2\n      swap1\n      pop\n      jump\t// out\n        /* \"#utility.yul\":13485:15254   */\n    tag_456:\n        /* \"#utility.yul\":13608:13611   */\n      0x00\n        /* \"#utility.yul\":13644:13650   */\n      0x0100\n        /* \"#utility.yul\":13639:13642   */\n      dup4\n        /* \"#utility.yul\":13635:13651   */\n      add\n        /* \"#utility.yul\":13736:13740   */\n      0x00\n        /* \"#utility.yul\":13729:13734   */\n      dup4\n        /* \"#utility.yul\":13725:13741   */\n      add\n        /* \"#utility.yul\":13719:13742   */\n      mload\n        /* \"#utility.yul\":13789:13792   */\n      dup5\n        /* \"#utility.yul\":13783:13787   */\n      dup3\n        /* \"#utility.yul\":13779:13793   */\n      sub\n        /* \"#utility.yul\":13772:13776   */\n      0x00\n        /* \"#utility.yul\":13767:13770   */\n      dup7\n        /* \"#utility.yul\":13763:13777   */\n      add\n        /* \"#utility.yul\":13756:13794   */\n      mstore\n        /* \"#utility.yul\":13815:13888   */\n      tag_458\n        /* \"#utility.yul\":13883:13887   */\n      dup3\n        /* \"#utility.yul\":13869:13881   */\n      dup3\n        /* \"#utility.yul\":13815:13888   */\n      tag_382\n      jump\t// in\n    tag_458:\n        /* \"#utility.yul\":13807:13888   */\n      swap2\n      pop\n        /* \"#utility.yul\":13661:13899   */\n      pop\n        /* \"#utility.yul\":13986:13990   */\n      0x20\n        /* \"#utility.yul\":13979:13984   */\n      dup4\n        /* \"#utility.yul\":13975:13991   */\n      add\n        /* \"#utility.yul\":13969:13992   */\n      mload\n        /* \"#utility.yul\":14039:14042   */\n      dup5\n        /* \"#utility.yul\":14033:14037   */\n      dup3\n        /* \"#utility.yul\":14029:14043   */\n      sub\n        /* \"#utility.yul\":14022:14026   */\n      0x20\n        /* \"#utility.yul\":14017:14020   */\n      dup7\n        /* \"#utility.yul\":14013:14027   */\n      add\n        /* \"#utility.yul\":14006:14044   */\n      mstore\n        /* \"#utility.yul\":14065:14138   */\n      tag_459\n        /* \"#utility.yul\":14133:14137   */\n      dup3\n        /* \"#utility.yul\":14119:14131   */\n      dup3\n        /* \"#utility.yul\":14065:14138   */\n      tag_382\n      jump\t// in\n    tag_459:\n        /* \"#utility.yul\":14057:14138   */\n      swap2\n      pop\n        /* \"#utility.yul\":13909:14149   */\n      pop\n        /* \"#utility.yul\":14239:14243   */\n      0x40\n        /* \"#utility.yul\":14232:14237   */\n      dup4\n        /* \"#utility.yul\":14228:14244   */\n      add\n        /* \"#utility.yul\":14222:14245   */\n      mload\n        /* \"#utility.yul\":14258:14321   */\n      tag_460\n        /* \"#utility.yul\":14315:14319   */\n      0x40\n        /* \"#utility.yul\":14310:14313   */\n      dup7\n        /* \"#utility.yul\":14306:14320   */\n      add\n        /* \"#utility.yul\":14292:14304   */\n      dup3\n        /* \"#utility.yul\":14258:14321   */\n      tag_367\n      jump\t// in\n    tag_460:\n        /* \"#utility.yul\":14159:14331   */\n      pop\n        /* \"#utility.yul\":14419:14423   */\n      0x60\n        /* \"#utility.yul\":14412:14417   */\n      dup4\n        /* \"#utility.yul\":14408:14424   */\n      add\n        /* \"#utility.yul\":14402:14425   */\n      mload\n        /* \"#utility.yul\":14438:14501   */\n      tag_461\n        /* \"#utility.yul\":14495:14499   */\n      0x60\n        /* \"#utility.yul\":14490:14493   */\n      dup7\n        /* \"#utility.yul\":14486:14500   */\n      add\n        /* \"#utility.yul\":14472:14484   */\n      dup3\n        /* \"#utility.yul\":14438:14501   */\n      tag_462\n      jump\t// in\n    tag_461:\n        /* \"#utility.yul\":14341:14511   */\n      pop\n        /* \"#utility.yul\":14599:14603   */\n      0x80\n        /* \"#utility.yul\":14592:14597   */\n      dup4\n        /* \"#utility.yul\":14588:14604   */\n      add\n        /* \"#utility.yul\":14582:14605   */\n      mload\n        /* \"#utility.yul\":14618:14681   */\n      tag_463\n        /* \"#utility.yul\":14675:14679   */\n      0x80\n        /* \"#utility.yul\":14670:14673   */\n      dup7\n        /* \"#utility.yul\":14666:14680   */\n      add\n        /* \"#utility.yul\":14652:14664   */\n      dup3\n        /* \"#utility.yul\":14618:14681   */\n      tag_462\n      jump\t// in\n    tag_463:\n        /* \"#utility.yul\":14521:14691   */\n      pop\n        /* \"#utility.yul\":14777:14781   */\n      0xa0\n        /* \"#utility.yul\":14770:14775   */\n      dup4\n        /* \"#utility.yul\":14766:14782   */\n      add\n        /* \"#utility.yul\":14760:14783   */\n      mload\n        /* \"#utility.yul\":14796:14859   */\n      tag_464\n        /* \"#utility.yul\":14853:14857   */\n      0xa0\n        /* \"#utility.yul\":14848:14851   */\n      dup7\n        /* \"#utility.yul\":14844:14858   */\n      add\n        /* \"#utility.yul\":14830:14842   */\n      dup3\n        /* \"#utility.yul\":14796:14859   */\n      tag_462\n      jump\t// in\n    tag_464:\n        /* \"#utility.yul\":14701:14869   */\n      pop\n        /* \"#utility.yul\":14960:14964   */\n      0xc0\n        /* \"#utility.yul\":14953:14958   */\n      dup4\n        /* \"#utility.yul\":14949:14965   */\n      add\n        /* \"#utility.yul\":14943:14966   */\n      mload\n        /* \"#utility.yul\":14979:15042   */\n      tag_465\n        /* \"#utility.yul\":15036:15040   */\n      0xc0\n        /* \"#utility.yul\":15031:15034   */\n      dup7\n        /* \"#utility.yul\":15027:15041   */\n      add\n        /* \"#utility.yul\":15013:15025   */\n      dup3\n        /* \"#utility.yul\":14979:15042   */\n      tag_462\n      jump\t// in\n    tag_465:\n        /* \"#utility.yul\":14879:15052   */\n      pop\n        /* \"#utility.yul\":15135:15139   */\n      0xe0\n        /* \"#utility.yul\":15128:15133   */\n      dup4\n        /* \"#utility.yul\":15124:15140   */\n      add\n        /* \"#utility.yul\":15118:15141   */\n      mload\n        /* \"#utility.yul\":15154:15217   */\n      tag_466\n        /* \"#utility.yul\":15211:15215   */\n      0xe0\n        /* \"#utility.yul\":15206:15209   */\n      dup7\n        /* \"#utility.yul\":15202:15216   */\n      add\n        /* \"#utility.yul\":15188:15200   */\n      dup3\n        /* \"#utility.yul\":15154:15217   */\n      tag_367\n      jump\t// in\n    tag_466:\n        /* \"#utility.yul\":15062:15227   */\n      pop\n        /* \"#utility.yul\":15244:15248   */\n      dup1\n        /* \"#utility.yul\":15237:15248   */\n      swap2\n      pop\n        /* \"#utility.yul\":13613:15254   */\n      pop\n        /* \"#utility.yul\":13485:15254   */\n      swap3\n      swap2\n      pop\n      pop\n      jump\t// out\n        /* \"#utility.yul\":15260:15368   */\n    tag_462:\n        /* \"#utility.yul\":15337:15361   */\n      tag_468\n        /* \"#utility.yul\":15355:15360   */\n      dup2\n        /* \"#utility.yul\":15337:15361   */\n      tag_469\n      jump\t// in\n    tag_468:\n        /* \"#utility.yul\":15332:15335   */\n      dup3\n        /* \"#utility.yul\":15325:15362   */\n      mstore\n        /* \"#utility.yul\":15260:15368   */\n      pop\n      pop\n      jump\t// out\n        /* \"#utility.yul\":15374:15492   */\n    tag_470:\n        /* \"#utility.yul\":15461:15485   */\n      tag_472\n        /* \"#utility.yul\":15479:15484   */\n      dup2\n        /* \"#utility.yul\":15461:15485   */\n      tag_469\n      jump\t// in\n    tag_472:\n        /* \"#utility.yul\":15456:15459   */\n      dup3\n        /* \"#utility.yul\":15449:15486   */\n      mstore\n        /* \"#utility.yul\":15374:15492   */\n      pop\n      pop\n      jump\t// out\n        /* \"#utility.yul\":15498:15769   */\n    tag_230:\n        /* \"#utility.yul\":15628:15631   */\n      0x00\n        /* \"#utility.yul\":15650:15743   */\n      tag_474\n        /* \"#utility.yul\":15739:15742   */\n      dup3\n        /* \"#utility.yul\":15730:15736   */\n      dup5\n        /* \"#utility.yul\":15650:15743   */\n      tag_374\n      jump\t// in\n    tag_474:\n        /* \"#utility.yul\":15643:15743   */\n      swap2\n      pop\n        /* \"#utility.yul\":15760:15763   */\n      dup2\n        /* \"#utility.yul\":15753:15763   */\n      swap1\n      pop\n        /* \"#utility.yul\":15498:15769   */\n      swap3\n      swap2\n      pop\n      pop\n      jump\t// out\n        /* \"#utility.yul\":15775:16050   */\n    tag_64:\n        /* \"#utility.yul\":15907:15910   */\n      0x00\n        /* \"#utility.yul\":15929:16024   */\n      tag_476\n        /* \"#utility.yul\":16020:16023   */\n      dup3\n        /* \"#utility.yul\":16011:16017   */\n      dup5\n        /* \"#utility.yul\":15929:16024   */\n      tag_398\n      jump\t// in\n    tag_476:\n        /* \"#utility.yul\":15922:16024   */\n      swap2\n      pop\n        /* \"#utility.yul\":16041:16044   */\n      dup2\n        /* \"#utility.yul\":16034:16044   */\n      swap1\n      pop\n        /* \"#utility.yul\":15775:16050   */\n      swap3\n      swap2\n      pop\n      pop\n      jump\t// out\n        /* \"#utility.yul\":16056:16325   */\n    tag_133:\n        /* \"#utility.yul\":16185:16188   */\n      0x00\n        /* \"#utility.yul\":16207:16299   */\n      tag_478\n        /* \"#utility.yul\":16295:16298   */\n      dup3\n        /* \"#utility.yul\":16286:16292   */\n      dup5\n        /* \"#utility.yul\":16207:16299   */\n      tag_404\n      jump\t// in\n    tag_478:\n        /* \"#utility.yul\":16200:16299   */\n      swap2\n      pop\n        /* \"#utility.yul\":16316:16319   */\n      dup2\n        /* \"#utility.yul\":16309:16319   */\n      swap1\n      pop\n        /* \"#utility.yul\":16056:16325   */\n      swap3\n      swap2\n      pop\n      pop\n      jump\t// out\n        /* \"#utility.yul\":16331:16553   */\n    tag_43:\n        /* \"#utility.yul\":16424:16428   */\n      0x00\n        /* \"#utility.yul\":16462:16464   */\n      0x20\n        /* \"#utility.yul\":16451:16460   */\n      dup3\n        /* \"#utility.yul\":16447:16465   */\n      add\n        /* \"#utility.yul\":16439:16465   */\n      swap1\n      pop\n        /* \"#utility.yul\":16475:16546   */\n      tag_480\n        /* \"#utility.yul\":16543:16544   */\n      0x00\n        /* \"#utility.yul\":16532:16541   */\n      dup4\n        /* \"#utility.yul\":16528:16545   */\n      add\n        /* \"#utility.yul\":16519:16525   */\n      dup5\n        /* \"#utility.yul\":16475:16546   */\n      tag_371\n      jump\t// in\n    tag_480:\n        /* \"#utility.yul\":16331:16553   */\n      swap3\n      swap2\n      pop\n      pop\n      jump\t// out\n        /* \"#utility.yul\":16559:16813   */\n    tag_32:\n        /* \"#utility.yul\":16668:16672   */\n      0x00\n        /* \"#utility.yul\":16706:16708   */\n      0x20\n        /* \"#utility.yul\":16695:16704   */\n      dup3\n        /* \"#utility.yul\":16691:16709   */\n      add\n        /* \"#utility.yul\":16683:16709   */\n      swap1\n      pop\n        /* \"#utility.yul\":16719:16806   */\n      tag_482\n        /* \"#utility.yul\":16803:16804   */\n      0x00\n        /* \"#utility.yul\":16792:16801   */\n      dup4\n        /* \"#utility.yul\":16788:16805   */\n      add\n        /* \"#utility.yul\":16779:16785   */\n      dup5\n        /* \"#utility.yul\":16719:16806   */\n      tag_363\n      jump\t// in\n    tag_482:\n        /* \"#utility.yul\":16559:16813   */\n      swap3\n      swap2\n      pop\n      pop\n      jump\t// out\n        /* \"#utility.yul\":16819:17151   */\n    tag_83:\n        /* \"#utility.yul\":16940:16944   */\n      0x00\n        /* \"#utility.yul\":16978:16980   */\n      0x40\n        /* \"#utility.yul\":16967:16976   */\n      dup3\n        /* \"#utility.yul\":16963:16981   */\n      add\n        /* \"#utility.yul\":16955:16981   */\n      swap1\n      pop\n        /* \"#utility.yul\":16991:17062   */\n      tag_484\n        /* \"#utility.yul\":17059:17060   */\n      0x00\n        /* \"#utility.yul\":17048:17057   */\n      dup4\n        /* \"#utility.yul\":17044:17061   */\n      add\n        /* \"#utility.yul\":17035:17041   */\n      dup6\n        /* \"#utility.yul\":16991:17062   */\n      tag_371\n      jump\t// in\n    tag_484:\n        /* \"#utility.yul\":17072:17144   */\n      tag_485\n        /* \"#utility.yul\":17140:17142   */\n      0x20\n        /* \"#utility.yul\":17129:17138   */\n      dup4\n        /* \"#utility.yul\":17125:17143   */\n      add\n        /* \"#utility.yul\":17116:17122   */\n      dup5\n        /* \"#utility.yul\":17072:17144   */\n      tag_371\n      jump\t// in\n    tag_485:\n        /* \"#utility.yul\":16819:17151   */\n      swap4\n      swap3\n      pop\n      pop\n      pop\n      jump\t// out\n        /* \"#utility.yul\":17157:17599   */\n    tag_179:\n        /* \"#utility.yul\":17306:17310   */\n      0x00\n        /* \"#utility.yul\":17344:17346   */\n      0x60\n        /* \"#utility.yul\":17333:17342   */\n      dup3\n        /* \"#utility.yul\":17329:17347   */\n      add\n        /* \"#utility.yul\":17321:17347   */\n      swap1\n      pop\n        /* \"#utility.yul\":17357:17428   */\n      tag_487\n        /* \"#utility.yul\":17425:17426   */\n      0x00\n        /* \"#utility.yul\":17414:17423   */\n      dup4\n        /* \"#utility.yul\":17410:17427   */\n      add\n        /* \"#utility.yul\":17401:17407   */\n      dup7\n        /* \"#utility.yul\":17357:17428   */\n      tag_371\n      jump\t// in\n    tag_487:\n        /* \"#utility.yul\":17438:17510   */\n      tag_488\n        /* \"#utility.yul\":17506:17508   */\n      0x20\n        /* \"#utility.yul\":17495:17504   */\n      dup4\n        /* \"#utility.yul\":17491:17509   */\n      add\n        /* \"#utility.yul\":17482:17488   */\n      dup6\n        /* \"#utility.yul\":17438:17510   */\n      tag_371\n      jump\t// in\n    tag_488:\n        /* \"#utility.yul\":17520:17592   */\n      tag_489\n        /* \"#utility.yul\":17588:17590   */\n      0x40\n        /* \"#utility.yul\":17577:17586   */\n      dup4\n        /* \"#utility.yul\":17573:17591   */\n      add\n        /* \"#utility.yul\":17564:17570   */\n      dup5\n        /* \"#utility.yul\":17520:17592   */\n      tag_470\n      jump\t// in\n    tag_489:\n        /* \"#utility.yul\":17157:17599   */\n      swap5\n      swap4\n      pop\n      pop\n      pop\n      pop\n      jump\t// out\n        /* \"#utility.yul\":17605:17918   */\n    tag_243:\n        /* \"#utility.yul\":17718:17722   */\n      0x00\n        /* \"#utility.yul\":17756:17758   */\n      0x20\n        /* \"#utility.yul\":17745:17754   */\n      dup3\n        /* \"#utility.yul\":17741:17759   */\n      add\n        /* \"#utility.yul\":17733:17759   */\n      swap1\n      pop\n        /* \"#utility.yul\":17805:17814   */\n      dup2\n        /* \"#utility.yul\":17799:17803   */\n      dup2\n        /* \"#utility.yul\":17795:17815   */\n      sub\n        /* \"#utility.yul\":17791:17792   */\n      0x00\n        /* \"#utility.yul\":17780:17789   */\n      dup4\n        /* \"#utility.yul\":17776:17793   */\n      add\n        /* \"#utility.yul\":17769:17816   */\n      mstore\n        /* \"#utility.yul\":17833:17911   */\n      tag_491\n        /* \"#utility.yul\":17906:17910   */\n      dup2\n        /* \"#utility.yul\":17897:17903   */\n      dup5\n        /* \"#utility.yul\":17833:17911   */\n      tag_391\n      jump\t// in\n    tag_491:\n        /* \"#utility.yul\":17825:17911   */\n      swap1\n      pop\n        /* \"#utility.yul\":17605:17918   */\n      swap3\n      swap2\n      pop\n      pop\n      jump\t// out\n        /* \"#utility.yul\":17924:18457   */\n    tag_102:\n        /* \"#utility.yul\":18093:18097   */\n      0x00\n        /* \"#utility.yul\":18131:18133   */\n      0x60\n        /* \"#utility.yul\":18120:18129   */\n      dup3\n        /* \"#utility.yul\":18116:18134   */\n      add\n        /* \"#utility.yul\":18108:18134   */\n      swap1\n      pop\n        /* \"#utility.yul\":18180:18189   */\n      dup2\n        /* \"#utility.yul\":18174:18178   */\n      dup2\n        /* \"#utility.yul\":18170:18190   */\n      sub\n        /* \"#utility.yul\":18166:18167   */\n      0x00\n        /* \"#utility.yul\":18155:18164   */\n      dup4\n        /* \"#utility.yul\":18151:18168   */\n      add\n        /* \"#utility.yul\":18144:18191   */\n      mstore\n        /* \"#utility.yul\":18208:18286   */\n      tag_493\n        /* \"#utility.yul\":18281:18285   */\n      dup2\n        /* \"#utility.yul\":18272:18278   */\n      dup7\n        /* \"#utility.yul\":18208:18286   */\n      tag_391\n      jump\t// in\n    tag_493:\n        /* \"#utility.yul\":18200:18286   */\n      swap1\n      pop\n        /* \"#utility.yul\":18296:18368   */\n      tag_494\n        /* \"#utility.yul\":18364:18366   */\n      0x20\n        /* \"#utility.yul\":18353:18362   */\n      dup4\n        /* \"#utility.yul\":18349:18367   */\n      add\n        /* \"#utility.yul\":18340:18346   */\n      dup6\n        /* \"#utility.yul\":18296:18368   */\n      tag_470\n      jump\t// in\n    tag_494:\n        /* \"#utility.yul\":18378:18450   */\n      tag_495\n        /* \"#utility.yul\":18446:18448   */\n      0x40\n        /* \"#utility.yul\":18435:18444   */\n      dup4\n        /* \"#utility.yul\":18431:18449   */\n      add\n        /* \"#utility.yul\":18422:18428   */\n      dup5\n        /* \"#utility.yul\":18378:18450   */\n      tag_371\n      jump\t// in\n    tag_495:\n        /* \"#utility.yul\":17924:18457   */\n      swap5\n      swap4\n      pop\n      pop\n      pop\n      pop\n      jump\t// out\n        /* \"#utility.yul\":18463:18882   */\n    tag_173:\n        /* \"#utility.yul\":18629:18633   */\n      0x00\n        /* \"#utility.yul\":18667:18669   */\n      0x20\n        /* \"#utility.yul\":18656:18665   */\n      dup3\n        /* \"#utility.yul\":18652:18670   */\n      add\n        /* \"#utility.yul\":18644:18670   */\n      swap1\n      pop\n        /* \"#utility.yul\":18716:18725   */\n      dup2\n        /* \"#utility.yul\":18710:18714   */\n      dup2\n        /* \"#utility.yul\":18706:18726   */\n      sub\n        /* \"#utility.yul\":18702:18703   */\n      0x00\n        /* \"#utility.yul\":18691:18700   */\n      dup4\n        /* \"#utility.yul\":18687:18704   */\n      add\n        /* \"#utility.yul\":18680:18727   */\n      mstore\n        /* \"#utility.yul\":18744:18875   */\n      tag_497\n        /* \"#utility.yul\":18870:18874   */\n      dup2\n        /* \"#utility.yul\":18744:18875   */\n      tag_416\n      jump\t// in\n    tag_497:\n        /* \"#utility.yul\":18736:18875   */\n      swap1\n      pop\n        /* \"#utility.yul\":18463:18882   */\n      swap2\n      swap1\n      pop\n      jump\t// out\n        /* \"#utility.yul\":18888:19307   */\n    tag_79:\n        /* \"#utility.yul\":19054:19058   */\n      0x00\n        /* \"#utility.yul\":19092:19094   */\n      0x20\n        /* \"#utility.yul\":19081:19090   */\n      dup3\n        /* \"#utility.yul\":19077:19095   */\n      add\n        /* \"#utility.yul\":19069:19095   */\n      swap1\n      pop\n        /* \"#utility.yul\":19141:19150   */\n      dup2\n        /* \"#utility.yul\":19135:19139   */\n      dup2\n        /* \"#utility.yul\":19131:19151   */\n      sub\n        /* \"#utility.yul\":19127:19128   */\n      0x00\n        /* \"#utility.yul\":19116:19125   */\n      dup4\n        /* \"#utility.yul\":19112:19129   */\n      add\n        /* \"#utility.yul\":19105:19152   */\n      mstore\n        /* \"#utility.yul\":19169:19300   */\n      tag_499\n        /* \"#utility.yul\":19295:19299   */\n      dup2\n        /* \"#utility.yul\":19169:19300   */\n      tag_421\n      jump\t// in\n    tag_499:\n        /* \"#utility.yul\":19161:19300   */\n      swap1\n      pop\n        /* \"#utility.yul\":18888:19307   */\n      swap2\n      swap1\n      pop\n      jump\t// out\n        /* \"#utility.yul\":19313:19732   */\n    tag_223:\n        /* \"#utility.yul\":19479:19483   */\n      0x00\n        /* \"#utility.yul\":19517:19519   */\n      0x20\n        /* \"#utility.yul\":19506:19515   */\n      dup3\n        /* \"#utility.yul\":19502:19520   */\n      add\n        /* \"#utility.yul\":19494:19520   */\n      swap1\n      pop\n        /* \"#utility.yul\":19566:19575   */\n      dup2\n        /* \"#utility.yul\":19560:19564   */\n      dup2\n        /* \"#utility.yul\":19556:19576   */\n      sub\n        /* \"#utility.yul\":19552:19553   */\n      0x00\n        /* \"#utility.yul\":19541:19550   */\n      dup4\n        /* \"#utility.yul\":19537:19554   */\n      add\n        /* \"#utility.yul\":19530:19577   */\n      mstore\n        /* \"#utility.yul\":19594:19725   */\n      tag_501\n        /* \"#utility.yul\":19720:19724   */\n      dup2\n        /* \"#utility.yul\":19594:19725   */\n      tag_426\n      jump\t// in\n    tag_501:\n        /* \"#utility.yul\":19586:19725   */\n      swap1\n      pop\n        /* \"#utility.yul\":19313:19732   */\n      swap2\n      swap1\n      pop\n      jump\t// out\n        /* \"#utility.yul\":19738:20157   */\n    tag_140:\n        /* \"#utility.yul\":19904:19908   */\n      0x00\n        /* \"#utility.yul\":19942:19944   */\n      0x20\n        /* \"#utility.yul\":19931:19940   */\n      dup3\n        /* \"#utility.yul\":19927:19945   */\n      add\n        /* \"#utility.yul\":19919:19945   */\n      swap1\n      pop\n        /* \"#utility.yul\":19991:20000   */\n      dup2\n        /* \"#utility.yul\":19985:19989   */\n      dup2\n        /* \"#utility.yul\":19981:20001   */\n      sub\n        /* \"#utility.yul\":19977:19978   */\n      0x00\n        /* \"#utility.yul\":19966:19975   */\n      dup4\n        /* \"#utility.yul\":19962:19979   */\n      add\n        /* \"#utility.yul\":19955:20002   */\n      mstore\n        /* \"#utility.yul\":20019:20150   */\n      tag_503\n        /* \"#utility.yul\":20145:20149   */\n      dup2\n        /* \"#utility.yul\":20019:20150   */\n      tag_431\n      jump\t// in\n    tag_503:\n        /* \"#utility.yul\":20011:20150   */\n      swap1\n      pop\n        /* \"#utility.yul\":19738:20157   */\n      swap2\n      swap1\n      pop\n      jump\t// out\n        /* \"#utility.yul\":20163:20582   */\n    tag_149:\n        /* \"#utility.yul\":20329:20333   */\n      0x00\n        /* \"#utility.yul\":20367:20369   */\n      0x20\n        /* \"#utility.yul\":20356:20365   */\n      dup3\n        /* \"#utility.yul\":20352:20370   */\n      add\n        /* \"#utility.yul\":20344:20370   */\n      swap1\n      pop\n        /* \"#utility.yul\":20416:20425   */\n      dup2\n        /* \"#utility.yul\":20410:20414   */\n      dup2\n        /* \"#utility.yul\":20406:20426   */\n      sub\n        /* \"#utility.yul\":20402:20403   */\n      0x00\n        /* \"#utility.yul\":20391:20400   */\n      dup4\n        /* \"#utility.yul\":20387:20404   */\n      add\n        /* \"#utility.yul\":20380:20427   */\n      mstore\n        /* \"#utility.yul\":20444:20575   */\n      tag_505\n        /* \"#utility.yul\":20570:20574   */\n      dup2\n        /* \"#utility.yul\":20444:20575   */\n      tag_436\n      jump\t// in\n    tag_505:\n        /* \"#utility.yul\":20436:20575   */\n      swap1\n      pop\n        /* \"#utility.yul\":20163:20582   */\n      swap2\n      swap1\n      pop\n      jump\t// out\n        /* \"#utility.yul\":20588:21007   */\n    tag_228:\n        /* \"#utility.yul\":20754:20758   */\n      0x00\n        /* \"#utility.yul\":20792:20794   */\n      0x20\n        /* \"#utility.yul\":20781:20790   */\n      dup3\n        /* \"#utility.yul\":20777:20795   */\n      add\n        /* \"#utility.yul\":20769:20795   */\n      swap1\n      pop\n        /* \"#utility.yul\":20841:20850   */\n      dup2\n        /* \"#utility.yul\":20835:20839   */\n      dup2\n        /* \"#utility.yul\":20831:20851   */\n      sub\n        /* \"#utility.yul\":20827:20828   */\n      0x00\n        /* \"#utility.yul\":20816:20825   */\n      dup4\n        /* \"#utility.yul\":20812:20829   */\n      add\n        /* \"#utility.yul\":20805:20852   */\n      mstore\n        /* \"#utility.yul\":20869:21000   */\n      tag_507\n        /* \"#utility.yul\":20995:20999   */\n      dup2\n        /* \"#utility.yul\":20869:21000   */\n      tag_441\n      jump\t// in\n    tag_507:\n        /* \"#utility.yul\":20861:21000   */\n      swap1\n      pop\n        /* \"#utility.yul\":20588:21007   */\n      swap2\n      swap1\n      pop\n      jump\t// out\n        /* \"#utility.yul\":21013:21432   */\n    tag_216:\n        /* \"#utility.yul\":21179:21183   */\n      0x00\n        /* \"#utility.yul\":21217:21219   */\n      0x20\n        /* \"#utility.yul\":21206:21215   */\n      dup3\n        /* \"#utility.yul\":21202:21220   */\n      add\n        /* \"#utility.yul\":21194:21220   */\n      swap1\n      pop\n        /* \"#utility.yul\":21266:21275   */\n      dup2\n        /* \"#utility.yul\":21260:21264   */\n      dup2\n        /* \"#utility.yul\":21256:21276   */\n      sub\n        /* \"#utility.yul\":21252:21253   */\n      0x00\n        /* \"#utility.yul\":21241:21250   */\n      dup4\n        /* \"#utility.yul\":21237:21254   */\n      add\n        /* \"#utility.yul\":21230:21277   */\n      mstore\n        /* \"#utility.yul\":21294:21425   */\n      tag_509\n        /* \"#utility.yul\":21420:21424   */\n      dup2\n        /* \"#utility.yul\":21294:21425   */\n      tag_446\n      jump\t// in\n    tag_509:\n        /* \"#utility.yul\":21286:21425   */\n      swap1\n      pop\n        /* \"#utility.yul\":21013:21432   */\n      swap2\n      swap1\n      pop\n      jump\t// out\n        /* \"#utility.yul\":21438:21857   */\n    tag_91:\n        /* \"#utility.yul\":21604:21608   */\n      0x00\n        /* \"#utility.yul\":21642:21644   */\n      0x20\n        /* \"#utility.yul\":21631:21640   */\n      dup3\n        /* \"#utility.yul\":21627:21645   */\n      add\n        /* \"#utility.yul\":21619:21645   */\n      swap1\n      pop\n        /* \"#utility.yul\":21691:21700   */\n      dup2\n        /* \"#utility.yul\":21685:21689   */\n      dup2\n        /* \"#utility.yul\":21681:21701   */\n      sub\n        /* \"#utility.yul\":21677:21678   */\n      0x00\n        /* \"#utility.yul\":21666:21675   */\n      dup4\n        /* \"#utility.yul\":21662:21679   */\n      add\n        /* \"#utility.yul\":21655:21702   */\n      mstore\n        /* \"#utility.yul\":21719:21850   */\n      tag_511\n        /* \"#utility.yul\":21845:21849   */\n      dup2\n        /* \"#utility.yul\":21719:21850   */\n      tag_451\n      jump\t// in\n    tag_511:\n        /* \"#utility.yul\":21711:21850   */\n      swap1\n      pop\n        /* \"#utility.yul\":21438:21857   */\n      swap2\n      swap1\n      pop\n      jump\t// out\n        /* \"#utility.yul\":21863:22244   */\n    tag_20:\n        /* \"#utility.yul\":22010:22014   */\n      0x00\n        /* \"#utility.yul\":22048:22050   */\n      0x20\n        /* \"#utility.yul\":22037:22046   */\n      dup3\n        /* \"#utility.yul\":22033:22051   */\n      add\n        /* \"#utility.yul\":22025:22051   */\n      swap1\n      pop\n        /* \"#utility.yul\":22097:22106   */\n      dup2\n        /* \"#utility.yul\":22091:22095   */\n      dup2\n        /* \"#utility.yul\":22087:22107   */\n      sub\n        /* \"#utility.yul\":22083:22084   */\n      0x00\n        /* \"#utility.yul\":22072:22081   */\n      dup4\n        /* \"#utility.yul\":22068:22085   */\n      add\n        /* \"#utility.yul\":22061:22108   */\n      mstore\n        /* \"#utility.yul\":22125:22237   */\n      tag_513\n        /* \"#utility.yul\":22232:22236   */\n      dup2\n        /* \"#utility.yul\":22223:22229   */\n      dup5\n        /* \"#utility.yul\":22125:22237   */\n      tag_456\n      jump\t// in\n    tag_513:\n        /* \"#utility.yul\":22117:22237   */\n      swap1\n      pop\n        /* \"#utility.yul\":21863:22244   */\n      swap3\n      swap2\n      pop\n      pop\n      jump\t// out\n        /* \"#utility.yul\":22250:22472   */\n    tag_37:\n        /* \"#utility.yul\":22343:22347   */\n      0x00\n        /* \"#utility.yul\":22381:22383   */\n      0x20\n        /* \"#utility.yul\":22370:22379   */\n      dup3\n        /* \"#utility.yul\":22366:22384   */\n      add\n        /* \"#utility.yul\":22358:22384   */\n      swap1\n      pop\n        /* \"#utility.yul\":22394:22465   */\n      tag_515\n        /* \"#utility.yul\":22462:22463   */\n      0x00\n        /* \"#utility.yul\":22451:22460   */\n      dup4\n        /* \"#utility.yul\":22447:22464   */\n      add\n        /* \"#utility.yul\":22438:22444   */\n      dup5\n        /* \"#utility.yul\":22394:22465   */\n      tag_470\n      jump\t// in\n    tag_515:\n        /* \"#utility.yul\":22250:22472   */\n      swap3\n      swap2\n      pop\n      pop\n      jump\t// out\n        /* \"#utility.yul\":22478:22607   */\n    tag_260:\n        /* \"#utility.yul\":22512:22518   */\n      0x00\n        /* \"#utility.yul\":22539:22559   */\n      tag_517\n      tag_518\n      jump\t// in\n    tag_517:\n        /* \"#utility.yul\":22529:22559   */\n      swap1\n      pop\n        /* \"#utility.yul\":22568:22601   */\n      tag_519\n        /* \"#utility.yul\":22596:22600   */\n      dup3\n        /* \"#utility.yul\":22588:22594   */\n      dup3\n        /* \"#utility.yul\":22568:22601   */\n      tag_520\n      jump\t// in\n    tag_519:\n        /* \"#utility.yul\":22478:22607   */\n      swap2\n      swap1\n      pop\n      jump\t// out\n        /* \"#utility.yul\":22613:22688   */\n    tag_518:\n        /* \"#utility.yul\":22646:22652   */\n      0x00\n        /* \"#utility.yul\":22679:22681   */\n      0x40\n        /* \"#utility.yul\":22673:22682   */\n      mload\n        /* \"#utility.yul\":22663:22682   */\n      swap1\n      pop\n        /* \"#utility.yul\":22613:22688   */\n      swap1\n      jump\t// out\n        /* \"#utility.yul\":22694:23028   */\n    tag_259:\n        /* \"#utility.yul\":22794:22798   */\n      0x00\n        /* \"#utility.yul\":22884:22902   */\n      0xffffffffffffffff\n        /* \"#utility.yul\":22876:22882   */\n      dup3\n        /* \"#utility.yul\":22873:22903   */\n      gt\n        /* \"#utility.yul\":22870:22926   */\n      iszero\n      tag_523\n      jumpi\n        /* \"#utility.yul\":22906:22924   */\n      tag_524\n      tag_190\n      jump\t// in\n    tag_524:\n        /* \"#utility.yul\":22870:22926   */\n    tag_523:\n        /* \"#utility.yul\":22956:22960   */\n      0x20\n        /* \"#utility.yul\":22948:22954   */\n      dup3\n        /* \"#utility.yul\":22944:22961   */\n      mul\n        /* \"#utility.yul\":22936:22961   */\n      swap1\n      pop\n        /* \"#utility.yul\":23016:23020   */\n      0x20\n        /* \"#utility.yul\":23010:23014   */\n      dup2\n        /* \"#utility.yul\":23006:23021   */\n      add\n        /* \"#utility.yul\":22998:23021   */\n      swap1\n      pop\n        /* \"#utility.yul\":22694:23028   */\n      swap2\n      swap1\n      pop\n      jump\t// out\n        /* \"#utility.yul\":23034:23342   */\n    tag_276:\n        /* \"#utility.yul\":23096:23100   */\n      0x00\n        /* \"#utility.yul\":23186:23204   */\n      0xffffffffffffffff\n        /* \"#utility.yul\":23178:23184   */\n      dup3\n        /* \"#utility.yul\":23175:23205   */\n      gt\n        /* \"#utility.yul\":23172:23228   */\n      iszero\n      tag_526\n      jumpi\n        /* \"#utility.yul\":23208:23226   */\n      tag_527\n      tag_190\n      jump\t// in\n    tag_527:\n        /* \"#utility.yul\":23172:23228   */\n    tag_526:\n        /* \"#utility.yul\":23246:23275   */\n      tag_528\n        /* \"#utility.yul\":23268:23274   */\n      dup3\n        /* \"#utility.yul\":23246:23275   */\n      tag_390\n      jump\t// in\n    tag_528:\n        /* \"#utility.yul\":23238:23275   */\n      swap1\n      pop\n        /* \"#utility.yul\":23330:23334   */\n      0x20\n        /* \"#utility.yul\":23324:23328   */\n      dup2\n        /* \"#utility.yul\":23320:23335   */\n      add\n        /* \"#utility.yul\":23312:23335   */\n      swap1\n      pop\n        /* \"#utility.yul\":23034:23342   */\n      swap2\n      swap1\n      pop\n      jump\t// out\n        /* \"#utility.yul\":23348:23489   */\n    tag_412:\n        /* \"#utility.yul\":23397:23401   */\n      0x00\n        /* \"#utility.yul\":23420:23423   */\n      dup2\n        /* \"#utility.yul\":23412:23423   */\n      swap1\n      pop\n        /* \"#utility.yul\":23443:23446   */\n      dup2\n        /* \"#utility.yul\":23440:23441   */\n      0x00\n        /* \"#utility.yul\":23433:23447   */\n      mstore\n        /* \"#utility.yul\":23477:23481   */\n      0x20\n        /* \"#utility.yul\":23474:23475   */\n      0x00\n        /* \"#utility.yul\":23464:23482   */\n      keccak256\n        /* \"#utility.yul\":23456:23482   */\n      swap1\n      pop\n        /* \"#utility.yul\":23348:23489   */\n      swap2\n      swap1\n      pop\n      jump\t// out\n        /* \"#utility.yul\":23495:23593   */\n    tag_377:\n        /* \"#utility.yul\":23546:23552   */\n      0x00\n        /* \"#utility.yul\":23580:23585   */\n      dup2\n        /* \"#utility.yul\":23574:23586   */\n      mload\n        /* \"#utility.yul\":23564:23586   */\n      swap1\n      pop\n        /* \"#utility.yul\":23495:23593   */\n      swap2\n      swap1\n      pop\n      jump\t// out\n        /* \"#utility.yul\":23599:23698   */\n    tag_385:\n        /* \"#utility.yul\":23651:23657   */\n      0x00\n        /* \"#utility.yul\":23685:23690   */\n      dup2\n        /* \"#utility.yul\":23679:23691   */\n      mload\n        /* \"#utility.yul\":23669:23691   */\n      swap1\n      pop\n        /* \"#utility.yul\":23599:23698   */\n      swap2\n      swap1\n      pop\n      jump\t// out\n        /* \"#utility.yul\":23704:23851   */\n    tag_379:\n        /* \"#utility.yul\":23805:23816   */\n      0x00\n        /* \"#utility.yul\":23842:23845   */\n      dup2\n        /* \"#utility.yul\":23827:23845   */\n      swap1\n      pop\n        /* \"#utility.yul\":23704:23851   */\n      swap3\n      swap2\n      pop\n      pop\n      jump\t// out\n        /* \"#utility.yul\":23857:24016   */\n    tag_387:\n        /* \"#utility.yul\":23931:23942   */\n      0x00\n        /* \"#utility.yul\":23965:23971   */\n      dup3\n        /* \"#utility.yul\":23960:23963   */\n      dup3\n        /* \"#utility.yul\":23953:23972   */\n      mstore\n        /* \"#utility.yul\":24005:24009   */\n      0x20\n        /* \"#utility.yul\":24000:24003   */\n      dup3\n        /* \"#utility.yul\":23996:24010   */\n      add\n        /* \"#utility.yul\":23981:24010   */\n      swap1\n      pop\n        /* \"#utility.yul\":23857:24016   */\n      swap3\n      swap2\n      pop\n      pop\n      jump\t// out\n        /* \"#utility.yul\":24022:24191   */\n    tag_395:\n        /* \"#utility.yul\":24106:24117   */\n      0x00\n        /* \"#utility.yul\":24140:24146   */\n      dup3\n        /* \"#utility.yul\":24135:24138   */\n      dup3\n        /* \"#utility.yul\":24128:24147   */\n      mstore\n        /* \"#utility.yul\":24180:24184   */\n      0x20\n        /* \"#utility.yul\":24175:24178   */\n      dup3\n        /* \"#utility.yul\":24171:24185   */\n      add\n        /* \"#utility.yul\":24156:24185   */\n      swap1\n      pop\n        /* \"#utility.yul\":24022:24191   */\n      swap3\n      swap2\n      pop\n      pop\n      jump\t// out\n        /* \"#utility.yul\":24197:24345   */\n    tag_402:\n        /* \"#utility.yul\":24299:24310   */\n      0x00\n        /* \"#utility.yul\":24336:24339   */\n      dup2\n        /* \"#utility.yul\":24321:24339   */\n      swap1\n      pop\n        /* \"#utility.yul\":24197:24345   */\n      swap3\n      swap2\n      pop\n      pop\n      jump\t// out\n        /* \"#utility.yul\":24351:24656   */\n    tag_199:\n        /* \"#utility.yul\":24391:24394   */\n      0x00\n        /* \"#utility.yul\":24410:24430   */\n      tag_537\n        /* \"#utility.yul\":24428:24429   */\n      dup3\n        /* \"#utility.yul\":24410:24430   */\n      tag_469\n      jump\t// in\n    tag_537:\n        /* \"#utility.yul\":24405:24430   */\n      swap2\n      pop\n        /* \"#utility.yul\":24444:24464   */\n      tag_538\n        /* \"#utility.yul\":24462:24463   */\n      dup4\n        /* \"#utility.yul\":24444:24464   */\n      tag_469\n      jump\t// in\n    tag_538:\n        /* \"#utility.yul\":24439:24464   */\n      swap3\n      pop\n        /* \"#utility.yul\":24598:24599   */\n      dup3\n        /* \"#utility.yul\":24530:24596   */\n      0xffffffffffffffffffffffffffffffffffffffffffffffffffffffffffffffff\n        /* \"#utility.yul\":24526:24600   */\n      sub\n        /* \"#utility.yul\":24523:24524   */\n      dup3\n        /* \"#utility.yul\":24520:24601   */\n      gt\n        /* \"#utility.yul\":24517:24624   */\n      iszero\n      tag_539\n      jumpi\n        /* \"#utility.yul\":24604:24622   */\n      tag_540\n      tag_541\n      jump\t// in\n    tag_540:\n        /* \"#utility.yul\":24517:24624   */\n    tag_539:\n        /* \"#utility.yul\":24648:24649   */\n      dup3\n        /* \"#utility.yul\":24645:24646   */\n      dup3\n        /* \"#utility.yul\":24641:24650   */\n      add\n        /* \"#utility.yul\":24634:24650   */\n      swap1\n      pop\n        /* \"#utility.yul\":24351:24656   */\n      swap3\n      swap2\n      pop\n      pop\n      jump\t// out\n        /* \"#utility.yul\":24662:24847   */\n    tag_187:\n        /* \"#utility.yul\":24702:24703   */\n      0x00\n        /* \"#utility.yul\":24719:24739   */\n      tag_543\n        /* \"#utility.yul\":24737:24738   */\n      dup3\n        /* \"#utility.yul\":24719:24739   */\n      tag_469\n      jump\t// in\n    tag_543:\n        /* \"#utility.yul\":24714:24739   */\n      swap2\n      pop\n        /* \"#utility.yul\":24753:24773   */\n      tag_544\n        /* \"#utility.yul\":24771:24772   */\n      dup4\n        /* \"#utility.yul\":24753:24773   */\n      tag_469\n      jump\t// in\n    tag_544:\n        /* \"#utility.yul\":24748:24773   */\n      swap3\n      pop\n        /* \"#utility.yul\":24792:24793   */\n      dup3\n        /* \"#utility.yul\":24782:24817   */\n      tag_545\n      jumpi\n        /* \"#utility.yul\":24797:24815   */\n      tag_546\n      tag_547\n      jump\t// in\n    tag_546:\n        /* \"#utility.yul\":24782:24817   */\n    tag_545:\n        /* \"#utility.yul\":24839:24840   */\n      dup3\n        /* \"#utility.yul\":24836:24837   */\n      dup3\n        /* \"#utility.yul\":24832:24841   */\n      div\n        /* \"#utility.yul\":24827:24841   */\n      swap1\n      pop\n        /* \"#utility.yul\":24662:24847   */\n      swap3\n      swap2\n      pop\n      pop\n      jump\t// out\n        /* \"#utility.yul\":24853:25044   */\n    tag_195:\n        /* \"#utility.yul\":24893:24897   */\n      0x00\n        /* \"#utility.yul\":24913:24933   */\n      tag_549\n        /* \"#utility.yul\":24931:24932   */\n      dup3\n        /* \"#utility.yul\":24913:24933   */\n      tag_469\n      jump\t// in\n    tag_549:\n        /* \"#utility.yul\":24908:24933   */\n      swap2\n      pop\n        /* \"#utility.yul\":24947:24967   */\n      tag_550\n        /* \"#utility.yul\":24965:24966   */\n      dup4\n        /* \"#utility.yul\":24947:24967   */\n      tag_469\n      jump\t// in\n    tag_550:\n        /* \"#utility.yul\":24942:24967   */\n      swap3\n      pop\n        /* \"#utility.yul\":24986:24987   */\n      dup3\n        /* \"#utility.yul\":24983:24984   */\n      dup3\n        /* \"#utility.yul\":24980:24988   */\n      lt\n        /* \"#utility.yul\":24977:25011   */\n      iszero\n      tag_551\n      jumpi\n        /* \"#utility.yul\":24991:25009   */\n      tag_552\n      tag_541\n      jump\t// in\n    tag_552:\n        /* \"#utility.yul\":24977:25011   */\n    tag_551:\n        /* \"#utility.yul\":25036:25037   */\n      dup3\n        /* \"#utility.yul\":25033:25034   */\n      dup3\n        /* \"#utility.yul\":25029:25038   */\n      sub\n        /* \"#utility.yul\":25021:25038   */\n      swap1\n      pop\n        /* \"#utility.yul\":24853:25044   */\n      swap3\n      swap2\n      pop\n      pop\n      jump\t// out\n        /* \"#utility.yul\":25050:25146   */\n    tag_370:\n        /* \"#utility.yul\":25087:25094   */\n      0x00\n        /* \"#utility.yul\":25116:25140   */\n      tag_554\n        /* \"#utility.yul\":25134:25139   */\n      dup3\n        /* \"#utility.yul\":25116:25140   */\n      tag_555\n      jump\t// in\n    tag_554:\n        /* \"#utility.yul\":25105:25140   */\n      swap1\n      pop\n        /* \"#utility.yul\":25050:25146   */\n      swap2\n      swap1\n      pop\n      jump\t// out\n        /* \"#utility.yul\":25152:25256   */\n    tag_366:\n        /* \"#utility.yul\":25197:25204   */\n      0x00\n        /* \"#utility.yul\":25226:25250   */\n      tag_557\n        /* \"#utility.yul\":25244:25249   */\n      dup3\n        /* \"#utility.yul\":25226:25250   */\n      tag_555\n      jump\t// in\n    tag_557:\n        /* \"#utility.yul\":25215:25250   */\n      swap1\n      pop\n        /* \"#utility.yul\":25152:25256   */\n      swap2\n      swap1\n      pop\n      jump\t// out\n        /* \"#utility.yul\":25262:25352   */\n    tag_558:\n        /* \"#utility.yul\":25296:25303   */\n      0x00\n        /* \"#utility.yul\":25339:25344   */\n      dup2\n        /* \"#utility.yul\":25332:25345   */\n      iszero\n        /* \"#utility.yul\":25325:25346   */\n      iszero\n        /* \"#utility.yul\":25314:25346   */\n      swap1\n      pop\n        /* \"#utility.yul\":25262:25352   */\n      swap2\n      swap1\n      pop\n      jump\t// out\n        /* \"#utility.yul\":25358:25484   */\n    tag_555:\n        /* \"#utility.yul\":25395:25402   */\n      0x00\n        /* \"#utility.yul\":25435:25477   */\n      0xffffffffffffffffffffffffffffffffffffffff\n        /* \"#utility.yul\":25428:25433   */\n      dup3\n        /* \"#utility.yul\":25424:25478   */\n      and\n        /* \"#utility.yul\":25413:25478   */\n      swap1\n      pop\n        /* \"#utility.yul\":25358:25484   */\n      swap2\n      swap1\n      pop\n      jump\t// out\n        /* \"#utility.yul\":25490:25567   */\n    tag_469:\n        /* \"#utility.yul\":25527:25534   */\n      0x00\n        /* \"#utility.yul\":25556:25561   */\n      dup2\n        /* \"#utility.yul\":25545:25561   */\n      swap1\n      pop\n        /* \"#utility.yul\":25490:25567   */\n      swap2\n      swap1\n      pop\n      jump\t// out\n        /* \"#utility.yul\":25573:25727   */\n    tag_281:\n        /* \"#utility.yul\":25657:25663   */\n      dup3\n        /* \"#utility.yul\":25652:25655   */\n      dup2\n        /* \"#utility.yul\":25647:25650   */\n      dup4\n        /* \"#utility.yul\":25634:25664   */\n      calldatacopy\n        /* \"#utility.yul\":25719:25720   */\n      0x00\n        /* \"#utility.yul\":25710:25716   */\n      dup4\n        /* \"#utility.yul\":25705:25708   */\n      dup4\n        /* \"#utility.yul\":25701:25717   */\n      add\n        /* \"#utility.yul\":25694:25721   */\n      mstore\n        /* \"#utility.yul\":25573:25727   */\n      pop\n      pop\n      pop\n      jump\t// out\n        /* \"#utility.yul\":25733:26040   */\n    tag_381:\n        /* \"#utility.yul\":25801:25802   */\n      0x00\n        /* \"#utility.yul\":25811:25924   */\n    tag_564:\n        /* \"#utility.yul\":25825:25831   */\n      dup4\n        /* \"#utility.yul\":25822:25823   */\n      dup2\n        /* \"#utility.yul\":25819:25832   */\n      lt\n        /* \"#utility.yul\":25811:25924   */\n      iszero\n      tag_566\n      jumpi\n        /* \"#utility.yul\":25910:25911   */\n      dup1\n        /* \"#utility.yul\":25905:25908   */\n      dup3\n        /* \"#utility.yul\":25901:25912   */\n      add\n        /* \"#utility.yul\":25895:25913   */\n      mload\n        /* \"#utility.yul\":25891:25892   */\n      dup2\n        /* \"#utility.yul\":25886:25889   */\n      dup5\n        /* \"#utility.yul\":25882:25893   */\n      add\n        /* \"#utility.yul\":25875:25914   */\n      mstore\n        /* \"#utility.yul\":25847:25849   */\n      0x20\n        /* \"#utility.yul\":25844:25845   */\n      dup2\n        /* \"#utility.yul\":25840:25850   */\n      add\n        /* \"#utility.yul\":25835:25850   */\n      swap1\n      pop\n        /* \"#utility.yul\":25811:25924   */\n      jump(tag_564)\n    tag_566:\n        /* \"#utility.yul\":25942:25948   */\n      dup4\n        /* \"#utility.yul\":25939:25940   */\n      dup2\n        /* \"#utility.yul\":25936:25949   */\n      gt\n        /* \"#utility.yul\":25933:26034   */\n      iszero\n      tag_567\n      jumpi\n        /* \"#utility.yul\":26022:26023   */\n      0x00\n        /* \"#utility.yul\":26013:26019   */\n      dup5\n        /* \"#utility.yul\":26008:26011   */\n      dup5\n        /* \"#utility.yul\":26004:26020   */\n      add\n        /* \"#utility.yul\":25997:26024   */\n      mstore\n        /* \"#utility.yul\":25933:26034   */\n    tag_567:\n        /* \"#utility.yul\":25782:26040   */\n      pop\n        /* \"#utility.yul\":25733:26040   */\n      pop\n      pop\n      pop\n      jump\t// out\n        /* \"#utility.yul\":26046:26366   */\n    tag_66:\n        /* \"#utility.yul\":26090:26096   */\n      0x00\n        /* \"#utility.yul\":26127:26128   */\n      0x02\n        /* \"#utility.yul\":26121:26125   */\n      dup3\n        /* \"#utility.yul\":26117:26129   */\n      div\n        /* \"#utility.yul\":26107:26129   */\n      swap1\n      pop\n        /* \"#utility.yul\":26174:26175   */\n      0x01\n        /* \"#utility.yul\":26168:26172   */\n      dup3\n        /* \"#utility.yul\":26164:26176   */\n      and\n        /* \"#utility.yul\":26195:26213   */\n      dup1\n        /* \"#utility.yul\":26185:26266   */\n      tag_569\n      jumpi\n        /* \"#utility.yul\":26251:26255   */\n      0x7f\n        /* \"#utility.yul\":26243:26249   */\n      dup3\n        /* \"#utility.yul\":26239:26256   */\n      and\n        /* \"#utility.yul\":26229:26256   */\n      swap2\n      pop\n        /* \"#utility.yul\":26185:26266   */\n    tag_569:\n        /* \"#utility.yul\":26313:26315   */\n      0x20\n        /* \"#utility.yul\":26305:26311   */\n      dup3\n        /* \"#utility.yul\":26302:26316   */\n      lt\n        /* \"#utility.yul\":26282:26300   */\n      dup2\n        /* \"#utility.yul\":26279:26317   */\n      eq\n        /* \"#utility.yul\":26276:26360   */\n      iszero\n      tag_570\n      jumpi\n        /* \"#utility.yul\":26332:26350   */\n      tag_571\n      tag_572\n      jump\t// in\n    tag_571:\n        /* \"#utility.yul\":26276:26360   */\n    tag_570:\n        /* \"#utility.yul\":26097:26366   */\n      pop\n        /* \"#utility.yul\":26046:26366   */\n      swap2\n      swap1\n      pop\n      jump\t// out\n        /* \"#utility.yul\":26372:26653   */\n    tag_520:\n        /* \"#utility.yul\":26455:26482   */\n      tag_574\n        /* \"#utility.yul\":26477:26481   */\n      dup3\n        /* \"#utility.yul\":26455:26482   */\n      tag_390\n      jump\t// in\n    tag_574:\n        /* \"#utility.yul\":26447:26453   */\n      dup2\n        /* \"#utility.yul\":26443:26483   */\n      add\n        /* \"#utility.yul\":26585:26591   */\n      dup2\n        /* \"#utility.yul\":26573:26583   */\n      dup2\n        /* \"#utility.yul\":26570:26592   */\n      lt\n        /* \"#utility.yul\":26549:26567   */\n      0xffffffffffffffff\n        /* \"#utility.yul\":26537:26547   */\n      dup3\n        /* \"#utility.yul\":26534:26568   */\n      gt\n        /* \"#utility.yul\":26531:26593   */\n      or\n        /* \"#utility.yul\":26528:26616   */\n      iszero\n      tag_575\n      jumpi\n        /* \"#utility.yul\":26596:26614   */\n      tag_576\n      tag_190\n      jump\t// in\n    tag_576:\n        /* \"#utility.yul\":26528:26616   */\n    tag_575:\n        /* \"#utility.yul\":26636:26646   */\n      dup1\n        /* \"#utility.yul\":26632:26634   */\n      0x40\n        /* \"#utility.yul\":26625:26647   */\n      mstore\n        /* \"#utility.yul\":26415:26653   */\n      pop\n        /* \"#utility.yul\":26372:26653   */\n      pop\n      pop\n      jump\t// out\n        /* \"#utility.yul\":26659:26892   */\n    tag_130:\n        /* \"#utility.yul\":26698:26701   */\n      0x00\n        /* \"#utility.yul\":26721:26745   */\n      tag_578\n        /* \"#utility.yul\":26739:26744   */\n      dup3\n        /* \"#utility.yul\":26721:26745   */\n      tag_469\n      jump\t// in\n    tag_578:\n        /* \"#utility.yul\":26712:26745   */\n      swap2\n      pop\n        /* \"#utility.yul\":26767:26833   */\n      0xffffffffffffffffffffffffffffffffffffffffffffffffffffffffffffffff\n        /* \"#utility.yul\":26760:26765   */\n      dup3\n        /* \"#utility.yul\":26757:26834   */\n      eq\n        /* \"#utility.yul\":26754:26857   */\n      iszero\n      tag_579\n      jumpi\n        /* \"#utility.yul\":26837:26855   */\n      tag_580\n      tag_541\n      jump\t// in\n    tag_580:\n        /* \"#utility.yul\":26754:26857   */\n    tag_579:\n        /* \"#utility.yul\":26884:26885   */\n      0x01\n        /* \"#utility.yul\":26877:26882   */\n      dup3\n        /* \"#utility.yul\":26873:26886   */\n      add\n        /* \"#utility.yul\":26866:26886   */\n      swap1\n      pop\n        /* \"#utility.yul\":26659:26892   */\n      swap2\n      swap1\n      pop\n      jump\t// out\n        /* \"#utility.yul\":26898:27074   */\n    tag_197:\n        /* \"#utility.yul\":26930:26931   */\n      0x00\n        /* \"#utility.yul\":26947:26967   */\n      tag_582\n        /* \"#utility.yul\":26965:26966   */\n      dup3\n        /* \"#utility.yul\":26947:26967   */\n      tag_469\n      jump\t// in\n    tag_582:\n        /* \"#utility.yul\":26942:26967   */\n      swap2\n      pop\n        /* \"#utility.yul\":26981:27001   */\n      tag_583\n        /* \"#utility.yul\":26999:27000   */\n      dup4\n        /* \"#utility.yul\":26981:27001   */\n      tag_469\n      jump\t// in\n    tag_583:\n        /* \"#utility.yul\":26976:27001   */\n      swap3\n      pop\n        /* \"#utility.yul\":27020:27021   */\n      dup3\n        /* \"#utility.yul\":27010:27045   */\n      tag_584\n      jumpi\n        /* \"#utility.yul\":27025:27043   */\n      tag_585\n      tag_547\n      jump\t// in\n    tag_585:\n        /* \"#utility.yul\":27010:27045   */\n    tag_584:\n        /* \"#utility.yul\":27066:27067   */\n      dup3\n        /* \"#utility.yul\":27063:27064   */\n      dup3\n        /* \"#utility.yul\":27059:27068   */\n      mod\n        /* \"#utility.yul\":27054:27068   */\n      swap1\n      pop\n        /* \"#utility.yul\":26898:27074   */\n      swap3\n      swap2\n      pop\n      pop\n      jump\t// out\n        /* \"#utility.yul\":27080:27260   */\n    tag_541:\n        /* \"#utility.yul\":27128:27205   */\n      0x4e487b7100000000000000000000000000000000000000000000000000000000\n        /* \"#utility.yul\":27125:27126   */\n      0x00\n        /* \"#utility.yul\":27118:27206   */\n      mstore\n        /* \"#utility.yul\":27225:27229   */\n      0x11\n        /* \"#utility.yul\":27222:27223   */\n      0x04\n        /* \"#utility.yul\":27215:27230   */\n      mstore\n        /* \"#utility.yul\":27249:27253   */\n      0x24\n        /* \"#utility.yul\":27246:27247   */\n      0x00\n        /* \"#utility.yul\":27239:27254   */\n      revert\n        /* \"#utility.yul\":27266:27446   */\n    tag_547:\n        /* \"#utility.yul\":27314:27391   */\n      0x4e487b7100000000000000000000000000000000000000000000000000000000\n        /* \"#utility.yul\":27311:27312   */\n      0x00\n        /* \"#utility.yul\":27304:27392   */\n      mstore\n        /* \"#utility.yul\":27411:27415   */\n      0x12\n        /* \"#utility.yul\":27408:27409   */\n      0x04\n        /* \"#utility.yul\":27401:27416   */\n      mstore\n        /* \"#utility.yul\":27435:27439   */\n      0x24\n        /* \"#utility.yul\":27432:27433   */\n      0x00\n        /* \"#utility.yul\":27425:27440   */\n      revert\n        /* \"#utility.yul\":27452:27632   */\n    tag_572:\n        /* \"#utility.yul\":27500:27577   */\n      0x4e487b7100000000000000000000000000000000000000000000000000000000\n        /* \"#utility.yul\":27497:27498   */\n      0x00\n        /* \"#utility.yul\":27490:27578   */\n      mstore\n        /* \"#utility.yul\":27597:27601   */\n      0x22\n        /* \"#utility.yul\":27594:27595   */\n      0x04\n        /* \"#utility.yul\":27587:27602   */\n      mstore\n        /* \"#utility.yul\":27621:27625   */\n      0x24\n        /* \"#utility.yul\":27618:27619   */\n      0x00\n        /* \"#utility.yul\":27611:27626   */\n      revert\n        /* \"#utility.yul\":27638:27818   */\n    tag_111:\n        /* \"#utility.yul\":27686:27763   */\n      0x4e487b7100000000000000000000000000000000000000000000000000000000\n        /* \"#utility.yul\":27683:27684   */\n      0x00\n        /* \"#utility.yul\":27676:27764   */\n      mstore\n        /* \"#utility.yul\":27783:27787   */\n      0x32\n        /* \"#utility.yul\":27780:27781   */\n      0x04\n        /* \"#utility.yul\":27773:27788   */\n      mstore\n        /* \"#utility.yul\":27807:27811   */\n      0x24\n        /* \"#utility.yul\":27804:27805   */\n      0x00\n        /* \"#utility.yul\":27797:27812   */\n      revert\n        /* \"#utility.yul\":27824:28004   */\n    tag_190:\n        /* \"#utility.yul\":27872:27949   */\n      0x4e487b7100000000000000000000000000000000000000000000000000000000\n        /* \"#utility.yul\":27869:27870   */\n      0x00\n        /* \"#utility.yul\":27862:27950   */\n      mstore\n        /* \"#utility.yul\":27969:27973   */\n      0x41\n        /* \"#utility.yul\":27966:27967   */\n      0x04\n        /* \"#utility.yul\":27959:27974   */\n      mstore\n        /* \"#utility.yul\":27993:27997   */\n      0x24\n        /* \"#utility.yul\":27990:27991   */\n      0x00\n        /* \"#utility.yul\":27983:27998   */\n      revert\n        /* \"#utility.yul\":28010:28127   */\n    tag_269:\n        /* \"#utility.yul\":28119:28120   */\n      0x00\n        /* \"#utility.yul\":28116:28117   */\n      dup1\n        /* \"#utility.yul\":28109:28121   */\n      revert\n        /* \"#utility.yul\":28133:28250   */\n    tag_307:\n        /* \"#utility.yul\":28242:28243   */\n      0x00\n        /* \"#utility.yul\":28239:28240   */\n      dup1\n        /* \"#utility.yul\":28232:28244   */\n      revert\n        /* \"#utility.yul\":28256:28373   */\n    tag_311:\n        /* \"#utility.yul\":28365:28366   */\n      0x00\n        /* \"#utility.yul\":28362:28363   */\n      dup1\n        /* \"#utility.yul\":28355:28367   */\n      revert\n        /* \"#utility.yul\":28379:28496   */\n    tag_263:\n        /* \"#utility.yul\":28488:28489   */\n      0x00\n        /* \"#utility.yul\":28485:28486   */\n      dup1\n        /* \"#utility.yul\":28478:28490   */\n      revert\n        /* \"#utility.yul\":28502:28619   */\n    tag_279:\n        /* \"#utility.yul\":28611:28612   */\n      0x00\n        /* \"#utility.yul\":28608:28609   */\n      dup1\n        /* \"#utility.yul\":28601:28613   */\n      revert\n        /* \"#utility.yul\":28625:28742   */\n    tag_337:\n        /* \"#utility.yul\":28734:28735   */\n      0x00\n        /* \"#utility.yul\":28731:28732   */\n      dup1\n        /* \"#utility.yul\":28724:28736   */\n      revert\n        /* \"#utility.yul\":28748:28865   */\n    tag_325:\n        /* \"#utility.yul\":28857:28858   */\n      0x00\n        /* \"#utility.yul\":28854:28855   */\n      dup1\n        /* \"#utility.yul\":28847:28859   */\n      revert\n        /* \"#utility.yul\":28871:28973   */\n    tag_390:\n        /* \"#utility.yul\":28912:28918   */\n      0x00\n        /* \"#utility.yul\":28963:28965   */\n      0x1f\n        /* \"#utility.yul\":28959:28966   */\n      not\n        /* \"#utility.yul\":28954:28956   */\n      0x1f\n        /* \"#utility.yul\":28947:28952   */\n      dup4\n        /* \"#utility.yul\":28943:28957   */\n      add\n        /* \"#utility.yul\":28939:28967   */\n      and\n        /* \"#utility.yul\":28929:28967   */\n      swap1\n      pop\n        /* \"#utility.yul\":28871:28973   */\n      swap2\n      swap1\n      pop\n      jump\t// out\n        /* \"#utility.yul\":28979:29204   */\n    tag_420:\n        /* \"#utility.yul\":29119:29153   */\n      0x4f776e61626c653a206e6577206f776e657220697320746865207a65726f2061\n        /* \"#utility.yul\":29115:29116   */\n      0x00\n        /* \"#utility.yul\":29107:29113   */\n      dup3\n        /* \"#utility.yul\":29103:29117   */\n      add\n        /* \"#utility.yul\":29096:29154   */\n      mstore\n        /* \"#utility.yul\":29188:29196   */\n      0x6464726573730000000000000000000000000000000000000000000000000000\n        /* \"#utility.yul\":29183:29185   */\n      0x20\n        /* \"#utility.yul\":29175:29181   */\n      dup3\n        /* \"#utility.yul\":29171:29186   */\n      add\n        /* \"#utility.yul\":29164:29197   */\n      mstore\n        /* \"#utility.yul\":28979:29204   */\n      pop\n      jump\t// out\n        /* \"#utility.yul\":29210:29392   */\n    tag_425:\n        /* \"#utility.yul\":29350:29384   */\n      0x6d616b655061796d656e743a20496e76616c696420746f6b656e20696e646578\n        /* \"#utility.yul\":29346:29347   */\n      0x00\n        /* \"#utility.yul\":29338:29344   */\n      dup3\n        /* \"#utility.yul\":29334:29348   */\n      add\n        /* \"#utility.yul\":29327:29385   */\n      mstore\n        /* \"#utility.yul\":29210:29392   */\n      pop\n      jump\t// out\n        /* \"#utility.yul\":29398:29623   */\n    tag_430:\n        /* \"#utility.yul\":29538:29572   */\n      0x416464726573733a20696e73756666696369656e742062616c616e636520666f\n        /* \"#utility.yul\":29534:29535   */\n      0x00\n        /* \"#utility.yul\":29526:29532   */\n      dup3\n        /* \"#utility.yul\":29522:29536   */\n      add\n        /* \"#utility.yul\":29515:29573   */\n      mstore\n        /* \"#utility.yul\":29607:29615   */\n      0x722063616c6c0000000000000000000000000000000000000000000000000000\n        /* \"#utility.yul\":29602:29604   */\n      0x20\n        /* \"#utility.yul\":29594:29600   */\n      dup3\n        /* \"#utility.yul\":29590:29605   */\n      add\n        /* \"#utility.yul\":29583:29616   */\n      mstore\n        /* \"#utility.yul\":29398:29623   */\n      pop\n      jump\t// out\n        /* \"#utility.yul\":29629:29811   */\n    tag_435:\n        /* \"#utility.yul\":29769:29803   */\n      0x4f776e61626c653a2063616c6c6572206973206e6f7420746865206f776e6572\n        /* \"#utility.yul\":29765:29766   */\n      0x00\n        /* \"#utility.yul\":29757:29763   */\n      dup3\n        /* \"#utility.yul\":29753:29767   */\n      add\n        /* \"#utility.yul\":29746:29804   */\n      mstore\n        /* \"#utility.yul\":29629:29811   */\n      pop\n      jump\t// out\n        /* \"#utility.yul\":29817:30048   */\n    tag_440:\n        /* \"#utility.yul\":29957:29991   */\n      0x676574546f6b656e496e6465783a204e6f74206120737570706f727465642070\n        /* \"#utility.yul\":29953:29954   */\n      0x00\n        /* \"#utility.yul\":29945:29951   */\n      dup3\n        /* \"#utility.yul\":29941:29955   */\n      add\n        /* \"#utility.yul\":29934:29992   */\n      mstore\n        /* \"#utility.yul\":30026:30040   */\n      0x61796d656e7420746f6b656e0000000000000000000000000000000000000000\n        /* \"#utility.yul\":30021:30023   */\n      0x20\n        /* \"#utility.yul\":30013:30019   */\n      dup3\n        /* \"#utility.yul\":30009:30024   */\n      add\n        /* \"#utility.yul\":30002:30041   */\n      mstore\n        /* \"#utility.yul\":29817:30048   */\n      pop\n      jump\t// out\n        /* \"#utility.yul\":30054:30233   */\n    tag_445:\n        /* \"#utility.yul\":30194:30225   */\n      0x416464726573733a2063616c6c20746f206e6f6e2d636f6e7472616374000000\n        /* \"#utility.yul\":30190:30191   */\n      0x00\n        /* \"#utility.yul\":30182:30188   */\n      dup3\n        /* \"#utility.yul\":30178:30192   */\n      add\n        /* \"#utility.yul\":30171:30226   */\n      mstore\n        /* \"#utility.yul\":30054:30233   */\n      pop\n      jump\t// out\n        /* \"#utility.yul\":30239:30468   */\n    tag_450:\n        /* \"#utility.yul\":30379:30413   */\n      0x5361666545524332303a204552433230206f7065726174696f6e20646964206e\n        /* \"#utility.yul\":30375:30376   */\n      0x00\n        /* \"#utility.yul\":30367:30373   */\n      dup3\n        /* \"#utility.yul\":30363:30377   */\n      add\n        /* \"#utility.yul\":30356:30414   */\n      mstore\n        /* \"#utility.yul\":30448:30460   */\n      0x6f74207375636365656400000000000000000000000000000000000000000000\n        /* \"#utility.yul\":30443:30445   */\n      0x20\n        /* \"#utility.yul\":30435:30441   */\n      dup3\n        /* \"#utility.yul\":30431:30446   */\n      add\n        /* \"#utility.yul\":30424:30461   */\n      mstore\n        /* \"#utility.yul\":30239:30468   */\n      pop\n      jump\t// out\n        /* \"#utility.yul\":30474:30711   */\n    tag_455:\n        /* \"#utility.yul\":30614:30648   */\n      0x6d616b655061796d656e743a20436f6e7472616374206e6f7420617070726f76\n        /* \"#utility.yul\":30610:30611   */\n      0x00\n        /* \"#utility.yul\":30602:30608   */\n      dup3\n        /* \"#utility.yul\":30598:30612   */\n      add\n        /* \"#utility.yul\":30591:30649   */\n      mstore\n        /* \"#utility.yul\":30683:30703   */\n      0x656420746f206d616b65207061796d656e740000000000000000000000000000\n        /* \"#utility.yul\":30678:30680   */\n      0x20\n        /* \"#utility.yul\":30670:30676   */\n      dup3\n        /* \"#utility.yul\":30666:30681   */\n      add\n        /* \"#utility.yul\":30659:30704   */\n      mstore\n        /* \"#utility.yul\":30474:30711   */\n      pop\n      jump\t// out\n        /* \"#utility.yul\":30717:30839   */\n    tag_285:\n        /* \"#utility.yul\":30790:30814   */\n      tag_608\n        /* \"#utility.yul\":30808:30813   */\n      dup2\n        /* \"#utility.yul\":30790:30814   */\n      tag_370\n      jump\t// in\n    tag_608:\n        /* \"#utility.yul\":30783:30788   */\n      dup2\n        /* \"#utility.yul\":30780:30815   */\n      eq\n        /* \"#utility.yul\":30770:30833   */\n      tag_609\n      jumpi\n        /* \"#utility.yul\":30829:30830   */\n      0x00\n        /* \"#utility.yul\":30826:30827   */\n      dup1\n        /* \"#utility.yul\":30819:30831   */\n      revert\n        /* \"#utility.yul\":30770:30833   */\n    tag_609:\n        /* \"#utility.yul\":30717:30839   */\n      pop\n      jump\t// out\n        /* \"#utility.yul\":30845:30983   */\n    tag_289:\n        /* \"#utility.yul\":30926:30958   */\n      tag_611\n        /* \"#utility.yul\":30952:30957   */\n      dup2\n        /* \"#utility.yul\":30926:30958   */\n      tag_366\n      jump\t// in\n    tag_611:\n        /* \"#utility.yul\":30919:30924   */\n      dup2\n        /* \"#utility.yul\":30916:30959   */\n      eq\n        /* \"#utility.yul\":30906:30977   */\n      tag_612\n      jumpi\n        /* \"#utility.yul\":30973:30974   */\n      0x00\n        /* \"#utility.yul\":30970:30971   */\n      dup1\n        /* \"#utility.yul\":30963:30975   */\n      revert\n        /* \"#utility.yul\":30906:30977   */\n    tag_612:\n        /* \"#utility.yul\":30845:30983   */\n      pop\n      jump\t// out\n        /* \"#utility.yul\":30989:31105   */\n    tag_298:\n        /* \"#utility.yul\":31059:31080   */\n      tag_614\n        /* \"#utility.yul\":31074:31079   */\n      dup2\n        /* \"#utility.yul\":31059:31080   */\n      tag_558\n      jump\t// in\n    tag_614:\n        /* \"#utility.yul\":31052:31057   */\n      dup2\n        /* \"#utility.yul\":31049:31081   */\n      eq\n        /* \"#utility.yul\":31039:31099   */\n      tag_615\n      jumpi\n        /* \"#utility.yul\":31095:31096   */\n      0x00\n        /* \"#utility.yul\":31092:31093   */\n      dup1\n        /* \"#utility.yul\":31085:31097   */\n      revert\n        /* \"#utility.yul\":31039:31099   */\n    tag_615:\n        /* \"#utility.yul\":30989:31105   */\n      pop\n      jump\t// out\n        /* \"#utility.yul\":31111:31233   */\n    tag_318:\n        /* \"#utility.yul\":31184:31208   */\n      tag_617\n        /* \"#utility.yul\":31202:31207   */\n      dup2\n        /* \"#utility.yul\":31184:31208   */\n      tag_469\n      jump\t// in\n    tag_617:\n        /* \"#utility.yul\":31177:31182   */\n      dup2\n        /* \"#utility.yul\":31174:31209   */\n      eq\n        /* \"#utility.yul\":31164:31227   */\n      tag_618\n      jumpi\n        /* \"#utility.yul\":31223:31224   */\n      0x00\n        /* \"#utility.yul\":31220:31221   */\n      dup1\n        /* \"#utility.yul\":31213:31225   */\n      revert\n        /* \"#utility.yul\":31164:31227   */\n    tag_618:\n        /* \"#utility.yul\":31111:31233   */\n      pop\n      jump\t// out\n\n    auxdata: 0xa2646970667358221220a6f28fb06692ad3c2f41318373475492a90046cf21052391b053a70814dee33864736f6c63430008070033\n}\n",
				"bytecode": {
					"linkReferences": {},
					"object": "608060405260016003553480156200001657600080fd5b50604051620028fb380380620028fb83398181016040528101906200003c91906200018e565b6200005c62000050620000ab60201b60201c565b620000b360201b60201c565b6001808190555080600560006101000a81548173ffffffffffffffffffffffffffffffffffffffff021916908373ffffffffffffffffffffffffffffffffffffffff1602179055505062000213565b600033905090565b60008060009054906101000a900473ffffffffffffffffffffffffffffffffffffffff169050816000806101000a81548173ffffffffffffffffffffffffffffffffffffffff021916908373ffffffffffffffffffffffffffffffffffffffff1602179055508173ffffffffffffffffffffffffffffffffffffffff168173ffffffffffffffffffffffffffffffffffffffff167f8be0079c531659141344cd1fd0a4f28419497f9722a3daafe3b4186f6b6457e060405160405180910390a35050565b6000815190506200018881620001f9565b92915050565b600060208284031215620001a757620001a6620001f4565b5b6000620001b78482850162000177565b91505092915050565b6000620001cd82620001d4565b9050919050565b600073ffffffffffffffffffffffffffffffffffffffff82169050919050565b600080fd5b6200020481620001c0565b81146200021057600080fd5b50565b6126d880620002236000396000f3fe608060405234801561001057600080fd5b50600436106100a95760003560e01c8063715018a611610071578063715018a6146101645780638da5cb5b1461016e578063c62556261461018c578063deaa59df146101bc578063eb0c52aa146101d8578063f2fde38b14610208576100a9565b8063169e90bc146100ae57806346828eb0146100de5780634a7dc8e0146100fa578063521eb2731461011657806366c0bd2414610134575b600080fd5b6100c860048036038101906100c3919061188d565b610224565b6040516100d59190611fcb565b60405180910390f35b6100f860048036038101906100f39190611916565b610493565b005b610114600480360381019061010f9190611833565b610a35565b005b61011e610bc3565b60405161012b9190611df0565b60405180910390f35b61014e60048036038101906101499190611833565b610be9565b60405161015b9190611fed565b60405180910390f35b61016c610cb4565b005b610176610d3c565b6040516101839190611dd5565b60405180910390f35b6101a660048036038101906101a191906119c9565b610d65565b6040516101b39190611dd5565b60405180910390f35b6101d660048036038101906101d19190611860565b610d98565b005b6101f260048036038101906101ed9190611833565b610e9b565b6040516101ff9190611fed565b60405180910390f35b610222600480360381019061021d9190611833565b610eb3565b005b61022c61150a565b600760008473ffffffffffffffffffffffffffffffffffffffff1673ffffffffffffffffffffffffffffffffffffffff168152602001908152602001600020826040516102799190611da7565b9081526020016040518091039020604051806101000160405290816000820180546102a390612244565b80601f01602080910402602001604051908101604052809291908181526020018280546102cf90612244565b801561031c5780601f106102f15761010080835404028352916020019161031c565b820191906000526020600020905b8154815290600101906020018083116102ff57829003601f168201915b5050505050815260200160018201805461033590612244565b80601f016020809104026020016040519081016040528092919081815260200182805461036190612244565b80156103ae5780601f10610383576101008083540402835291602001916103ae565b820191906000526020600020905b81548152906001019060200180831161039157829003601f168201915b505050505081526020016002820160009054906101000a900473ffffffffffffffffffffffffffffffffffffffff1673ffffffffffffffffffffffffffffffffffffffff1673ffffffffffffffffffffffffffffffffffffffff168152602001600382015481526020016004820154815260200160058201548152602001600682015481526020016007820160009054906101000a900473ffffffffffffffffffffffffffffffffffffffff1673ffffffffffffffffffffffffffffffffffffffff1673ffffffffffffffffffffffffffffffffffffffff1681525050905092915050565b600073ffffffffffffffffffffffffffffffffffffffff166002600086815260200190815260200160002060009054906101000a900473ffffffffffffffffffffffffffffffffffffffff1673ffffffffffffffffffffffffffffffffffffffff161415610536576040517f08c379a000000000000000000000000000000000000000000000000000000000815260040161052d90611eeb565b60405180910390fd5b60006002600086815260200190815260200160002060009054906101000a900473ffffffffffffffffffffffffffffffffffffffff16905060008173ffffffffffffffffffffffffffffffffffffffff1663dd62ed3e610594610fab565b306040518363ffffffff1660e01b81526004016105b2929190611e0b565b60206040518083038186803b1580156105ca57600080fd5b505afa1580156105de573d6000803e3d6000fd5b505050506040513d601f19601f8201168201806040525081019061060291906119f6565b905084811015610647576040517f08c379a000000000000000000000000000000000000000000000000000000000815260040161063e90611fab565b60405180910390fd5b61069d610652610fab565b600560009054906101000a900473ffffffffffffffffffffffffffffffffffffffff16878573ffffffffffffffffffffffffffffffffffffffff16610fb3909392919063ffffffff16565b6000600760006106ab610fab565b73ffffffffffffffffffffffffffffffffffffffff1673ffffffffffffffffffffffffffffffffffffffff168152602001908152602001600020886040516106f39190611da7565b908152602001604051809103902090508781600001908051906020019061071b92919061157b565b506107598842610729610fab565b60405160200161073b93929190611e8d565b6040516020818303038152906040528051906020012060001c61103c565b81600101908051906020019061077092919061157b565b506002600088815260200190815260200160002060009054906101000a900473ffffffffffffffffffffffffffffffffffffffff168160020160006101000a81548173ffffffffffffffffffffffffffffffffffffffff021916908373ffffffffffffffffffffffffffffffffffffffff16021790555086816003018190555085816004018190555084816005018190555083518160060181905550610814610fab565b8160070160006101000a81548173ffffffffffffffffffffffffffffffffffffffff021916908373ffffffffffffffffffffffffffffffffffffffff16021790555060005b84518110156109b157848181518110610875576108746123ae565b5b60200260200101516000015160068a6040516108919190611da7565b908152602001604051809103902082815481106108b1576108b06123ae565b5b906000526020600020906003020160000190805190602001906108d592919061157b565b508481815181106108e9576108e86123ae565b5b60200260200101516020015160068a6040516109059190611da7565b90815260200160405180910390208281548110610925576109246123ae565b5b90600052602060002090600302016001018190555084818151811061094d5761094c6123ae565b5b60200260200101516040015160068a6040516109699190611da7565b90815260200160405180910390208281548110610989576109886123ae565b5b90600052602060002090600302016002018190555080806109a9906122a7565b915050610859565b506109ba610fab565b73ffffffffffffffffffffffffffffffffffffffff16816001016040516109e19190611dbe565b6040518091039020896040516109f79190611da7565b60405180910390207f252ea8f225dc33ac745d0cf22974635091a5ff8332a55f6469595caa3337a8fc60405160405180910390a45050505050505050565b610a3d610fab565b73ffffffffffffffffffffffffffffffffffffffff16610a5b610d3c565b73ffffffffffffffffffffffffffffffffffffffff1614610ab1576040517f08c379a0000000000000000000000000000000000000000000000000000000008152600401610aa890611f2b565b60405180910390fd5b8060026000600354815260200190815260200160002060006101000a81548173ffffffffffffffffffffffffffffffffffffffff021916908373ffffffffffffffffffffffffffffffffffffffff160217905550600354600460008373ffffffffffffffffffffffffffffffffffffffff1673ffffffffffffffffffffffffffffffffffffffff16815260200190815260200160002081905550610b61600160035461119d90919063ffffffff16565b600381905550610b7d60016003546111b390919063ffffffff16565b8173ffffffffffffffffffffffffffffffffffffffff167fb5498d88d9ae1cb339dbe68df2a6fdc5e7e4d8045bbd0b39f0d5648399a753f260405160405180910390a350565b600560009054906101000a900473ffffffffffffffffffffffffffffffffffffffff1681565b600080600460008473ffffffffffffffffffffffffffffffffffffffff1673ffffffffffffffffffffffffffffffffffffffff168152602001908152602001600020541415610c6d576040517f08c379a0000000000000000000000000000000000000000000000000000000008152600401610c6490611f4b565b60405180910390fd5b600460008373ffffffffffffffffffffffffffffffffffffffff1673ffffffffffffffffffffffffffffffffffffffff168152602001908152602001600020549050919050565b610cbc610fab565b73ffffffffffffffffffffffffffffffffffffffff16610cda610d3c565b73ffffffffffffffffffffffffffffffffffffffff1614610d30576040517f08c379a0000000000000000000000000000000000000000000000000000000008152600401610d2790611f2b565b60405180910390fd5b610d3a60006111c9565b565b60008060009054906101000a900473ffffffffffffffffffffffffffffffffffffffff16905090565b60026020528060005260406000206000915054906101000a900473ffffffffffffffffffffffffffffffffffffffff1681565b610da0610fab565b73ffffffffffffffffffffffffffffffffffffffff16610dbe610d3c565b73ffffffffffffffffffffffffffffffffffffffff1614610e14576040517f08c379a0000000000000000000000000000000000000000000000000000000008152600401610e0b90611f2b565b60405180910390fd5b80600560006101000a81548173ffffffffffffffffffffffffffffffffffffffff021916908373ffffffffffffffffffffffffffffffffffffffff1602179055508073ffffffffffffffffffffffffffffffffffffffff167f65ac7c44ce1402d115f5033c9dde8b6d1e130550ecd89ac7659bc257d4f5b6d560405160405180910390a250565b60046020528060005260406000206000915090505481565b610ebb610fab565b73ffffffffffffffffffffffffffffffffffffffff16610ed9610d3c565b73ffffffffffffffffffffffffffffffffffffffff1614610f2f576040517f08c379a0000000000000000000000000000000000000000000000000000000008152600401610f2690611f2b565b60405180910390fd5b600073ffffffffffffffffffffffffffffffffffffffff168173ffffffffffffffffffffffffffffffffffffffff161415610f9f576040517f08c379a0000000000000000000000000000000000000000000000000000000008152600401610f9690611ecb565b60405180910390fd5b610fa8816111c9565b50565b600033905090565b611036846323b872dd60e01b858585604051602401610fd493929190611e34565b604051602081830303815290604052907bffffffffffffffffffffffffffffffffffffffffffffffffffffffff19166020820180517bffffffffffffffffffffffffffffffffffffffffffffffffffffffff838183161783525050505061128d565b50505050565b60606000821415611084576040518060400160405280600181526020017f30000000000000000000000000000000000000000000000000000000000000008152509050611198565b600082905060005b600082146110b657808061109f906122a7565b915050600a826110af9190612143565b915061108c565b60008167ffffffffffffffff8111156110d2576110d16123dd565b5b6040519080825280601f01601f1916602001820160405280156111045781602001600182028036833780820191505090505b5090505b600085146111915760018261111d9190612174565b9150600a8561112c91906122f0565b603061113891906120ed565b60f81b81838151811061114e5761114d6123ae565b5b60200101907effffffffffffffffffffffffffffffffffffffffffffffffffffffffffffff1916908160001a905350600a8561118a9190612143565b9450611108565b8093505050505b919050565b600081836111ab91906120ed565b905092915050565b600081836111c19190612174565b905092915050565b60008060009054906101000a900473ffffffffffffffffffffffffffffffffffffffff169050816000806101000a81548173ffffffffffffffffffffffffffffffffffffffff021916908373ffffffffffffffffffffffffffffffffffffffff1602179055508173ffffffffffffffffffffffffffffffffffffffff168173ffffffffffffffffffffffffffffffffffffffff167f8be0079c531659141344cd1fd0a4f28419497f9722a3daafe3b4186f6b6457e060405160405180910390a35050565b60006112ef826040518060400160405280602081526020017f5361666545524332303a206c6f772d6c6576656c2063616c6c206661696c65648152508573ffffffffffffffffffffffffffffffffffffffff166113549092919063ffffffff16565b905060008151111561134f578080602001905181019061130f91906118e9565b61134e576040517f08c379a000000000000000000000000000000000000000000000000000000000815260040161134590611f8b565b60405180910390fd5b5b505050565b6060611363848460008561136c565b90509392505050565b6060824710156113b1576040517f08c379a00000000000000000000000000000000000000000000000000000000081526004016113a890611f0b565b60405180910390fd5b6113ba85611480565b6113f9576040517f08c379a00000000000000000000000000000000000000000000000000000000081526004016113f090611f6b565b60405180910390fd5b6000808673ffffffffffffffffffffffffffffffffffffffff1685876040516114229190611d90565b60006040518083038185875af1925050503d806000811461145f576040519150601f19603f3d011682016040523d82523d6000602084013e611464565b606091505b50915091506114748282866114a3565b92505050949350505050565b6000808273ffffffffffffffffffffffffffffffffffffffff163b119050919050565b606083156114b357829050611503565b6000835111156114c65782518084602001fd5b816040517f08c379a00000000000000000000000000000000000000000000000000000000081526004016114fa9190611e6b565b60405180910390fd5b9392505050565b6040518061010001604052806060815260200160608152602001600073ffffffffffffffffffffffffffffffffffffffff16815260200160008152602001600081526020016000815260200160008152602001600073ffffffffffffffffffffffffffffffffffffffff1681525090565b82805461158790612244565b90600052602060002090601f0160209004810192826115a957600085556115f0565b82601f106115c257805160ff19168380011785556115f0565b828001600101855582156115f0579182015b828111156115ef5782518255916020019190600101906115d4565b5b5090506115fd9190611601565b5090565b5b8082111561161a576000816000905550600101611602565b5090565b600061163161162c8461202d565b612008565b905080838252602082019050828560208602820111156116545761165361241b565b5b60005b858110156116a257813567ffffffffffffffff81111561167a5761167961240c565b5b8086016116878982611789565b85526020850194506020840193505050600181019050611657565b5050509392505050565b60006116bf6116ba84612059565b612008565b9050828152602081018484840111156116db576116da612420565b5b6116e6848285612202565b509392505050565b6000813590506116fd81612646565b92915050565b6000813590506117128161265d565b92915050565b600082601f83011261172d5761172c61240c565b5b813561173d84826020860161161e565b91505092915050565b60008151905061175581612674565b92915050565b600082601f8301126117705761176f61240c565b5b81356117808482602086016116ac565b91505092915050565b60006060828403121561179f5761179e612411565b5b6117a96060612008565b9050600082013567ffffffffffffffff8111156117c9576117c8612416565b5b6117d58482850161175b565b60008301525060206117e984828501611809565b60208301525060406117fd84828501611809565b60408301525092915050565b6000813590506118188161268b565b92915050565b60008151905061182d8161268b565b92915050565b6000602082840312156118495761184861242a565b5b6000611857848285016116ee565b91505092915050565b6000602082840312156118765761187561242a565b5b600061188484828501611703565b91505092915050565b600080604083850312156118a4576118a361242a565b5b60006118b2858286016116ee565b925050602083013567ffffffffffffffff8111156118d3576118d2612425565b5b6118df8582860161175b565b9150509250929050565b6000602082840312156118ff576118fe61242a565b5b600061190d84828501611746565b91505092915050565b600080600080600060a086880312156119325761193161242a565b5b600086013567ffffffffffffffff8111156119505761194f612425565b5b61195c8882890161175b565b955050602061196d88828901611809565b945050604061197e88828901611809565b935050606061198f88828901611809565b925050608086013567ffffffffffffffff8111156119b0576119af612425565b5b6119bc88828901611718565b9150509295509295909350565b6000602082840312156119df576119de61242a565b5b60006119ed84828501611809565b91505092915050565b600060208284031215611a0c57611a0b61242a565b5b6000611a1a8482850161181e565b91505092915050565b611a2c816121ba565b82525050565b611a3b816121a8565b82525050565b611a4a816121a8565b82525050565b6000611a5b8261209f565b611a6581856120b5565b9350611a75818560208601612211565b80840191505092915050565b6000611a8c826120aa565b611a9681856120c0565b9350611aa6818560208601612211565b611aaf8161242f565b840191505092915050565b6000611ac5826120aa565b611acf81856120d1565b9350611adf818560208601612211565b611ae88161242f565b840191505092915050565b6000611afe826120aa565b611b0881856120e2565b9350611b18818560208601612211565b80840191505092915050565b60008154611b3181612244565b611b3b81866120e2565b94506001821660008114611b565760018114611b6757611b9a565b60ff19831686528186019350611b9a565b611b708561208a565b60005b83811015611b9257815481890152600182019150602081019050611b73565b838801955050505b50505092915050565b6000611bb06026836120d1565b9150611bbb82612440565b604082019050919050565b6000611bd36020836120d1565b9150611bde8261248f565b602082019050919050565b6000611bf66026836120d1565b9150611c01826124b8565b604082019050919050565b6000611c196020836120d1565b9150611c2482612507565b602082019050919050565b6000611c3c602c836120d1565b9150611c4782612530565b604082019050919050565b6000611c5f601d836120d1565b9150611c6a8261257f565b602082019050919050565b6000611c82602a836120d1565b9150611c8d826125a8565b604082019050919050565b6000611ca56032836120d1565b9150611cb0826125f7565b604082019050919050565b6000610100830160008301518482036000860152611cd98282611a81565b91505060208301518482036020860152611cf38282611a81565b9150506040830151611d086040860182611a32565b506060830151611d1b6060860182611d72565b506080830151611d2e6080860182611d72565b5060a0830151611d4160a0860182611d72565b5060c0830151611d5460c0860182611d72565b5060e0830151611d6760e0860182611a32565b508091505092915050565b611d7b816121f8565b82525050565b611d8a816121f8565b82525050565b6000611d9c8284611a50565b915081905092915050565b6000611db38284611af3565b915081905092915050565b6000611dca8284611b24565b915081905092915050565b6000602082019050611dea6000830184611a41565b92915050565b6000602082019050611e056000830184611a23565b92915050565b6000604082019050611e206000830185611a41565b611e2d6020830184611a41565b9392505050565b6000606082019050611e496000830186611a41565b611e566020830185611a41565b611e636040830184611d81565b949350505050565b60006020820190508181036000830152611e858184611aba565b905092915050565b60006060820190508181036000830152611ea78186611aba565b9050611eb66020830185611d81565b611ec36040830184611a41565b949350505050565b60006020820190508181036000830152611ee481611ba3565b9050919050565b60006020820190508181036000830152611f0481611bc6565b9050919050565b60006020820190508181036000830152611f2481611be9565b9050919050565b60006020820190508181036000830152611f4481611c0c565b9050919050565b60006020820190508181036000830152611f6481611c2f565b9050919050565b60006020820190508181036000830152611f8481611c52565b9050919050565b60006020820190508181036000830152611fa481611c75565b9050919050565b60006020820190508181036000830152611fc481611c98565b9050919050565b60006020820190508181036000830152611fe58184611cbb565b905092915050565b60006020820190506120026000830184611d81565b92915050565b6000612012612023565b905061201e8282612276565b919050565b6000604051905090565b600067ffffffffffffffff821115612048576120476123dd565b5b602082029050602081019050919050565b600067ffffffffffffffff821115612074576120736123dd565b5b61207d8261242f565b9050602081019050919050565b60008190508160005260206000209050919050565b600081519050919050565b600081519050919050565b600081905092915050565b600082825260208201905092915050565b600082825260208201905092915050565b600081905092915050565b60006120f8826121f8565b9150612103836121f8565b9250827fffffffffffffffffffffffffffffffffffffffffffffffffffffffffffffffff0382111561213857612137612321565b5b828201905092915050565b600061214e826121f8565b9150612159836121f8565b92508261216957612168612350565b5b828204905092915050565b600061217f826121f8565b915061218a836121f8565b92508282101561219d5761219c612321565b5b828203905092915050565b60006121b3826121d8565b9050919050565b60006121c5826121d8565b9050919050565b60008115159050919050565b600073ffffffffffffffffffffffffffffffffffffffff82169050919050565b6000819050919050565b82818337600083830152505050565b60005b8381101561222f578082015181840152602081019050612214565b8381111561223e576000848401525b50505050565b6000600282049050600182168061225c57607f821691505b602082108114156122705761226f61237f565b5b50919050565b61227f8261242f565b810181811067ffffffffffffffff8211171561229e5761229d6123dd565b5b80604052505050565b60006122b2826121f8565b91507fffffffffffffffffffffffffffffffffffffffffffffffffffffffffffffffff8214156122e5576122e4612321565b5b600182019050919050565b60006122fb826121f8565b9150612306836121f8565b92508261231657612315612350565b5b828206905092915050565b7f4e487b7100000000000000000000000000000000000000000000000000000000600052601160045260246000fd5b7f4e487b7100000000000000000000000000000000000000000000000000000000600052601260045260246000fd5b7f4e487b7100000000000000000000000000000000000000000000000000000000600052602260045260246000fd5b7f4e487b7100000000000000000000000000000000000000000000000000000000600052603260045260246000fd5b7f4e487b7100000000000000000000000000000000000000000000000000000000600052604160045260246000fd5b600080fd5b600080fd5b600080fd5b600080fd5b600080fd5b600080fd5b600080fd5b6000601f19601f8301169050919050565b7f4f776e61626c653a206e6577206f776e657220697320746865207a65726f206160008201527f6464726573730000000000000000000000000000000000000000000000000000602082015250565b7f6d616b655061796d656e743a20496e76616c696420746f6b656e20696e646578600082015250565b7f416464726573733a20696e73756666696369656e742062616c616e636520666f60008201527f722063616c6c0000000000000000000000000000000000000000000000000000602082015250565b7f4f776e61626c653a2063616c6c6572206973206e6f7420746865206f776e6572600082015250565b7f676574546f6b656e496e6465783a204e6f74206120737570706f72746564207060008201527f61796d656e7420746f6b656e0000000000000000000000000000000000000000602082015250565b7f416464726573733a2063616c6c20746f206e6f6e2d636f6e7472616374000000600082015250565b7f5361666545524332303a204552433230206f7065726174696f6e20646964206e60008201527f6f74207375636365656400000000000000000000000000000000000000000000602082015250565b7f6d616b655061796d656e743a20436f6e7472616374206e6f7420617070726f7660008201527f656420746f206d616b65207061796d656e740000000000000000000000000000602082015250565b61264f816121a8565b811461265a57600080fd5b50565b612666816121ba565b811461267157600080fd5b50565b61267d816121cc565b811461268857600080fd5b50565b612694816121f8565b811461269f57600080fd5b5056fea2646970667358221220a6f28fb06692ad3c2f41318373475492a90046cf21052391b053a70814dee33864736f6c63430008070033",
					"opcodes": "PUSH1 0x80 PUSH1 0x40 MSTORE PUSH1 0x1 PUSH1 0x3 SSTORE CALLVALUE DUP1 ISZERO PUSH3 0x16 JUMPI PUSH1 0x0 DUP1 REVERT JUMPDEST POP PUSH1 0x40 MLOAD PUSH3 0x28FB CODESIZE SUB DUP1 PUSH3 0x28FB DUP4 CODECOPY DUP2 DUP2 ADD PUSH1 0x40 MSTORE DUP2 ADD SWAP1 PUSH3 0x3C SWAP2 SWAP1 PUSH3 0x18E JUMP JUMPDEST PUSH3 0x5C PUSH3 0x50 PUSH3 0xAB PUSH1 0x20 SHL PUSH1 0x20 SHR JUMP JUMPDEST PUSH3 0xB3 PUSH1 0x20 SHL PUSH1 0x20 SHR JUMP JUMPDEST PUSH1 0x1 DUP1 DUP2 SWAP1 SSTORE POP DUP1 PUSH1 0x5 PUSH1 0x0 PUSH2 0x100 EXP DUP2 SLOAD DUP2 PUSH20 0xFFFFFFFFFFFFFFFFFFFFFFFFFFFFFFFFFFFFFFFF MUL NOT AND SWAP1 DUP4 PUSH20 0xFFFFFFFFFFFFFFFFFFFFFFFFFFFFFFFFFFFFFFFF AND MUL OR SWAP1 SSTORE POP POP PUSH3 0x213 JUMP JUMPDEST PUSH1 0x0 CALLER SWAP1 POP SWAP1 JUMP JUMPDEST PUSH1 0x0 DUP1 PUSH1 0x0 SWAP1 SLOAD SWAP1 PUSH2 0x100 EXP SWAP1 DIV PUSH20 0xFFFFFFFFFFFFFFFFFFFFFFFFFFFFFFFFFFFFFFFF AND SWAP1 POP DUP2 PUSH1 0x0 DUP1 PUSH2 0x100 EXP DUP2 SLOAD DUP2 PUSH20 0xFFFFFFFFFFFFFFFFFFFFFFFFFFFFFFFFFFFFFFFF MUL NOT AND SWAP1 DUP4 PUSH20 0xFFFFFFFFFFFFFFFFFFFFFFFFFFFFFFFFFFFFFFFF AND MUL OR SWAP1 SSTORE POP DUP2 PUSH20 0xFFFFFFFFFFFFFFFFFFFFFFFFFFFFFFFFFFFFFFFF AND DUP2 PUSH20 0xFFFFFFFFFFFFFFFFFFFFFFFFFFFFFFFFFFFFFFFF AND PUSH32 0x8BE0079C531659141344CD1FD0A4F28419497F9722A3DAAFE3B4186F6B6457E0 PUSH1 0x40 MLOAD PUSH1 0x40 MLOAD DUP1 SWAP2 SUB SWAP1 LOG3 POP POP JUMP JUMPDEST PUSH1 0x0 DUP2 MLOAD SWAP1 POP PUSH3 0x188 DUP2 PUSH3 0x1F9 JUMP JUMPDEST SWAP3 SWAP2 POP POP JUMP JUMPDEST PUSH1 0x0 PUSH1 0x20 DUP3 DUP5 SUB SLT ISZERO PUSH3 0x1A7 JUMPI PUSH3 0x1A6 PUSH3 0x1F4 JUMP JUMPDEST JUMPDEST PUSH1 0x0 PUSH3 0x1B7 DUP5 DUP3 DUP6 ADD PUSH3 0x177 JUMP JUMPDEST SWAP2 POP POP SWAP3 SWAP2 POP POP JUMP JUMPDEST PUSH1 0x0 PUSH3 0x1CD DUP3 PUSH3 0x1D4 JUMP JUMPDEST SWAP1 POP SWAP2 SWAP1 POP JUMP JUMPDEST PUSH1 0x0 PUSH20 0xFFFFFFFFFFFFFFFFFFFFFFFFFFFFFFFFFFFFFFFF DUP3 AND SWAP1 POP SWAP2 SWAP1 POP JUMP JUMPDEST PUSH1 0x0 DUP1 REVERT JUMPDEST PUSH3 0x204 DUP2 PUSH3 0x1C0 JUMP JUMPDEST DUP2 EQ PUSH3 0x210 JUMPI PUSH1 0x0 DUP1 REVERT JUMPDEST POP JUMP JUMPDEST PUSH2 0x26D8 DUP1 PUSH3 0x223 PUSH1 0x0 CODECOPY PUSH1 0x0 RETURN INVALID PUSH1 0x80 PUSH1 0x40 MSTORE CALLVALUE DUP1 ISZERO PUSH2 0x10 JUMPI PUSH1 0x0 DUP1 REVERT JUMPDEST POP PUSH1 0x4 CALLDATASIZE LT PUSH2 0xA9 JUMPI PUSH1 0x0 CALLDATALOAD PUSH1 0xE0 SHR DUP1 PUSH4 0x715018A6 GT PUSH2 0x71 JUMPI DUP1 PUSH4 0x715018A6 EQ PUSH2 0x164 JUMPI DUP1 PUSH4 0x8DA5CB5B EQ PUSH2 0x16E JUMPI DUP1 PUSH4 0xC6255626 EQ PUSH2 0x18C JUMPI DUP1 PUSH4 0xDEAA59DF EQ PUSH2 0x1BC JUMPI DUP1 PUSH4 0xEB0C52AA EQ PUSH2 0x1D8 JUMPI DUP1 PUSH4 0xF2FDE38B EQ PUSH2 0x208 JUMPI PUSH2 0xA9 JUMP JUMPDEST DUP1 PUSH4 0x169E90BC EQ PUSH2 0xAE JUMPI DUP1 PUSH4 0x46828EB0 EQ PUSH2 0xDE JUMPI DUP1 PUSH4 0x4A7DC8E0 EQ PUSH2 0xFA JUMPI DUP1 PUSH4 0x521EB273 EQ PUSH2 0x116 JUMPI DUP1 PUSH4 0x66C0BD24 EQ PUSH2 0x134 JUMPI JUMPDEST PUSH1 0x0 DUP1 REVERT JUMPDEST PUSH2 0xC8 PUSH1 0x4 DUP1 CALLDATASIZE SUB DUP2 ADD SWAP1 PUSH2 0xC3 SWAP2 SWAP1 PUSH2 0x188D JUMP JUMPDEST PUSH2 0x224 JUMP JUMPDEST PUSH1 0x40 MLOAD PUSH2 0xD5 SWAP2 SWAP1 PUSH2 0x1FCB JUMP JUMPDEST PUSH1 0x40 MLOAD DUP1 SWAP2 SUB SWAP1 RETURN JUMPDEST PUSH2 0xF8 PUSH1 0x4 DUP1 CALLDATASIZE SUB DUP2 ADD SWAP1 PUSH2 0xF3 SWAP2 SWAP1 PUSH2 0x1916 JUMP JUMPDEST PUSH2 0x493 JUMP JUMPDEST STOP JUMPDEST PUSH2 0x114 PUSH1 0x4 DUP1 CALLDATASIZE SUB DUP2 ADD SWAP1 PUSH2 0x10F SWAP2 SWAP1 PUSH2 0x1833 JUMP JUMPDEST PUSH2 0xA35 JUMP JUMPDEST STOP JUMPDEST PUSH2 0x11E PUSH2 0xBC3 JUMP JUMPDEST PUSH1 0x40 MLOAD PUSH2 0x12B SWAP2 SWAP1 PUSH2 0x1DF0 JUMP JUMPDEST PUSH1 0x40 MLOAD DUP1 SWAP2 SUB SWAP1 RETURN JUMPDEST PUSH2 0x14E PUSH1 0x4 DUP1 CALLDATASIZE SUB DUP2 ADD SWAP1 PUSH2 0x149 SWAP2 SWAP1 PUSH2 0x1833 JUMP JUMPDEST PUSH2 0xBE9 JUMP JUMPDEST PUSH1 0x40 MLOAD PUSH2 0x15B SWAP2 SWAP1 PUSH2 0x1FED JUMP JUMPDEST PUSH1 0x40 MLOAD DUP1 SWAP2 SUB SWAP1 RETURN JUMPDEST PUSH2 0x16C PUSH2 0xCB4 JUMP JUMPDEST STOP JUMPDEST PUSH2 0x176 PUSH2 0xD3C JUMP JUMPDEST PUSH1 0x40 MLOAD PUSH2 0x183 SWAP2 SWAP1 PUSH2 0x1DD5 JUMP JUMPDEST PUSH1 0x40 MLOAD DUP1 SWAP2 SUB SWAP1 RETURN JUMPDEST PUSH2 0x1A6 PUSH1 0x4 DUP1 CALLDATASIZE SUB DUP2 ADD SWAP1 PUSH2 0x1A1 SWAP2 SWAP1 PUSH2 0x19C9 JUMP JUMPDEST PUSH2 0xD65 JUMP JUMPDEST PUSH1 0x40 MLOAD PUSH2 0x1B3 SWAP2 SWAP1 PUSH2 0x1DD5 JUMP JUMPDEST PUSH1 0x40 MLOAD DUP1 SWAP2 SUB SWAP1 RETURN JUMPDEST PUSH2 0x1D6 PUSH1 0x4 DUP1 CALLDATASIZE SUB DUP2 ADD SWAP1 PUSH2 0x1D1 SWAP2 SWAP1 PUSH2 0x1860 JUMP JUMPDEST PUSH2 0xD98 JUMP JUMPDEST STOP JUMPDEST PUSH2 0x1F2 PUSH1 0x4 DUP1 CALLDATASIZE SUB DUP2 ADD SWAP1 PUSH2 0x1ED SWAP2 SWAP1 PUSH2 0x1833 JUMP JUMPDEST PUSH2 0xE9B JUMP JUMPDEST PUSH1 0x40 MLOAD PUSH2 0x1FF SWAP2 SWAP1 PUSH2 0x1FED JUMP JUMPDEST PUSH1 0x40 MLOAD DUP1 SWAP2 SUB SWAP1 RETURN JUMPDEST PUSH2 0x222 PUSH1 0x4 DUP1 CALLDATASIZE SUB DUP2 ADD SWAP1 PUSH2 0x21D SWAP2 SWAP1 PUSH2 0x1833 JUMP JUMPDEST PUSH2 0xEB3 JUMP JUMPDEST STOP JUMPDEST PUSH2 0x22C PUSH2 0x150A JUMP JUMPDEST PUSH1 0x7 PUSH1 0x0 DUP5 PUSH20 0xFFFFFFFFFFFFFFFFFFFFFFFFFFFFFFFFFFFFFFFF AND PUSH20 0xFFFFFFFFFFFFFFFFFFFFFFFFFFFFFFFFFFFFFFFF AND DUP2 MSTORE PUSH1 0x20 ADD SWAP1 DUP2 MSTORE PUSH1 0x20 ADD PUSH1 0x0 KECCAK256 DUP3 PUSH1 0x40 MLOAD PUSH2 0x279 SWAP2 SWAP1 PUSH2 0x1DA7 JUMP JUMPDEST SWAP1 DUP2 MSTORE PUSH1 0x20 ADD PUSH1 0x40 MLOAD DUP1 SWAP2 SUB SWAP1 KECCAK256 PUSH1 0x40 MLOAD DUP1 PUSH2 0x100 ADD PUSH1 0x40 MSTORE SWAP1 DUP2 PUSH1 0x0 DUP3 ADD DUP1 SLOAD PUSH2 0x2A3 SWAP1 PUSH2 0x2244 JUMP JUMPDEST DUP1 PUSH1 0x1F ADD PUSH1 0x20 DUP1 SWAP2 DIV MUL PUSH1 0x20 ADD PUSH1 0x40 MLOAD SWAP1 DUP2 ADD PUSH1 0x40 MSTORE DUP1 SWAP3 SWAP2 SWAP1 DUP2 DUP2 MSTORE PUSH1 0x20 ADD DUP3 DUP1 SLOAD PUSH2 0x2CF SWAP1 PUSH2 0x2244 JUMP JUMPDEST DUP1 ISZERO PUSH2 0x31C JUMPI DUP1 PUSH1 0x1F LT PUSH2 0x2F1 JUMPI PUSH2 0x100 DUP1 DUP4 SLOAD DIV MUL DUP4 MSTORE SWAP2 PUSH1 0x20 ADD SWAP2 PUSH2 0x31C JUMP JUMPDEST DUP3 ADD SWAP2 SWAP1 PUSH1 0x0 MSTORE PUSH1 0x20 PUSH1 0x0 KECCAK256 SWAP1 JUMPDEST DUP2 SLOAD DUP2 MSTORE SWAP1 PUSH1 0x1 ADD SWAP1 PUSH1 0x20 ADD DUP1 DUP4 GT PUSH2 0x2FF JUMPI DUP3 SWAP1 SUB PUSH1 0x1F AND DUP3 ADD SWAP2 JUMPDEST POP POP POP POP POP DUP2 MSTORE PUSH1 0x20 ADD PUSH1 0x1 DUP3 ADD DUP1 SLOAD PUSH2 0x335 SWAP1 PUSH2 0x2244 JUMP JUMPDEST DUP1 PUSH1 0x1F ADD PUSH1 0x20 DUP1 SWAP2 DIV MUL PUSH1 0x20 ADD PUSH1 0x40 MLOAD SWAP1 DUP2 ADD PUSH1 0x40 MSTORE DUP1 SWAP3 SWAP2 SWAP1 DUP2 DUP2 MSTORE PUSH1 0x20 ADD DUP3 DUP1 SLOAD PUSH2 0x361 SWAP1 PUSH2 0x2244 JUMP JUMPDEST DUP1 ISZERO PUSH2 0x3AE JUMPI DUP1 PUSH1 0x1F LT PUSH2 0x383 JUMPI PUSH2 0x100 DUP1 DUP4 SLOAD DIV MUL DUP4 MSTORE SWAP2 PUSH1 0x20 ADD SWAP2 PUSH2 0x3AE JUMP JUMPDEST DUP3 ADD SWAP2 SWAP1 PUSH1 0x0 MSTORE PUSH1 0x20 PUSH1 0x0 KECCAK256 SWAP1 JUMPDEST DUP2 SLOAD DUP2 MSTORE SWAP1 PUSH1 0x1 ADD SWAP1 PUSH1 0x20 ADD DUP1 DUP4 GT PUSH2 0x391 JUMPI DUP3 SWAP1 SUB PUSH1 0x1F AND DUP3 ADD SWAP2 JUMPDEST POP POP POP POP POP DUP2 MSTORE PUSH1 0x20 ADD PUSH1 0x2 DUP3 ADD PUSH1 0x0 SWAP1 SLOAD SWAP1 PUSH2 0x100 EXP SWAP1 DIV PUSH20 0xFFFFFFFFFFFFFFFFFFFFFFFFFFFFFFFFFFFFFFFF AND PUSH20 0xFFFFFFFFFFFFFFFFFFFFFFFFFFFFFFFFFFFFFFFF AND PUSH20 0xFFFFFFFFFFFFFFFFFFFFFFFFFFFFFFFFFFFFFFFF AND DUP2 MSTORE PUSH1 0x20 ADD PUSH1 0x3 DUP3 ADD SLOAD DUP2 MSTORE PUSH1 0x20 ADD PUSH1 0x4 DUP3 ADD SLOAD DUP2 MSTORE PUSH1 0x20 ADD PUSH1 0x5 DUP3 ADD SLOAD DUP2 MSTORE PUSH1 0x20 ADD PUSH1 0x6 DUP3 ADD SLOAD DUP2 MSTORE PUSH1 0x20 ADD PUSH1 0x7 DUP3 ADD PUSH1 0x0 SWAP1 SLOAD SWAP1 PUSH2 0x100 EXP SWAP1 DIV PUSH20 0xFFFFFFFFFFFFFFFFFFFFFFFFFFFFFFFFFFFFFFFF AND PUSH20 0xFFFFFFFFFFFFFFFFFFFFFFFFFFFFFFFFFFFFFFFF AND PUSH20 0xFFFFFFFFFFFFFFFFFFFFFFFFFFFFFFFFFFFFFFFF AND DUP2 MSTORE POP POP SWAP1 POP SWAP3 SWAP2 POP POP JUMP JUMPDEST PUSH1 0x0 PUSH20 0xFFFFFFFFFFFFFFFFFFFFFFFFFFFFFFFFFFFFFFFF AND PUSH1 0x2 PUSH1 0x0 DUP7 DUP2 MSTORE PUSH1 0x20 ADD SWAP1 DUP2 MSTORE PUSH1 0x20 ADD PUSH1 0x0 KECCAK256 PUSH1 0x0 SWAP1 SLOAD SWAP1 PUSH2 0x100 EXP SWAP1 DIV PUSH20 0xFFFFFFFFFFFFFFFFFFFFFFFFFFFFFFFFFFFFFFFF AND PUSH20 0xFFFFFFFFFFFFFFFFFFFFFFFFFFFFFFFFFFFFFFFF AND EQ ISZERO PUSH2 0x536 JUMPI PUSH1 0x40 MLOAD PUSH32 0x8C379A000000000000000000000000000000000000000000000000000000000 DUP2 MSTORE PUSH1 0x4 ADD PUSH2 0x52D SWAP1 PUSH2 0x1EEB JUMP JUMPDEST PUSH1 0x40 MLOAD DUP1 SWAP2 SUB SWAP1 REVERT JUMPDEST PUSH1 0x0 PUSH1 0x2 PUSH1 0x0 DUP7 DUP2 MSTORE PUSH1 0x20 ADD SWAP1 DUP2 MSTORE PUSH1 0x20 ADD PUSH1 0x0 KECCAK256 PUSH1 0x0 SWAP1 SLOAD SWAP1 PUSH2 0x100 EXP SWAP1 DIV PUSH20 0xFFFFFFFFFFFFFFFFFFFFFFFFFFFFFFFFFFFFFFFF AND SWAP1 POP PUSH1 0x0 DUP2 PUSH20 0xFFFFFFFFFFFFFFFFFFFFFFFFFFFFFFFFFFFFFFFF AND PUSH4 0xDD62ED3E PUSH2 0x594 PUSH2 0xFAB JUMP JUMPDEST ADDRESS PUSH1 0x40 MLOAD DUP4 PUSH4 0xFFFFFFFF AND PUSH1 0xE0 SHL DUP2 MSTORE PUSH1 0x4 ADD PUSH2 0x5B2 SWAP3 SWAP2 SWAP1 PUSH2 0x1E0B JUMP JUMPDEST PUSH1 0x20 PUSH1 0x40 MLOAD DUP1 DUP4 SUB DUP2 DUP7 DUP1 EXTCODESIZE ISZERO DUP1 ISZERO PUSH2 0x5CA JUMPI PUSH1 0x0 DUP1 REVERT JUMPDEST POP GAS STATICCALL ISZERO DUP1 ISZERO PUSH2 0x5DE JUMPI RETURNDATASIZE PUSH1 0x0 DUP1 RETURNDATACOPY RETURNDATASIZE PUSH1 0x0 REVERT JUMPDEST POP POP POP POP PUSH1 0x40 MLOAD RETURNDATASIZE PUSH1 0x1F NOT PUSH1 0x1F DUP3 ADD AND DUP3 ADD DUP1 PUSH1 0x40 MSTORE POP DUP2 ADD SWAP1 PUSH2 0x602 SWAP2 SWAP1 PUSH2 0x19F6 JUMP JUMPDEST SWAP1 POP DUP5 DUP2 LT ISZERO PUSH2 0x647 JUMPI PUSH1 0x40 MLOAD PUSH32 0x8C379A000000000000000000000000000000000000000000000000000000000 DUP2 MSTORE PUSH1 0x4 ADD PUSH2 0x63E SWAP1 PUSH2 0x1FAB JUMP JUMPDEST PUSH1 0x40 MLOAD DUP1 SWAP2 SUB SWAP1 REVERT JUMPDEST PUSH2 0x69D PUSH2 0x652 PUSH2 0xFAB JUMP JUMPDEST PUSH1 0x5 PUSH1 0x0 SWAP1 SLOAD SWAP1 PUSH2 0x100 EXP SWAP1 DIV PUSH20 0xFFFFFFFFFFFFFFFFFFFFFFFFFFFFFFFFFFFFFFFF AND DUP8 DUP6 PUSH20 0xFFFFFFFFFFFFFFFFFFFFFFFFFFFFFFFFFFFFFFFF AND PUSH2 0xFB3 SWAP1 SWAP4 SWAP3 SWAP2 SWAP1 PUSH4 0xFFFFFFFF AND JUMP JUMPDEST PUSH1 0x0 PUSH1 0x7 PUSH1 0x0 PUSH2 0x6AB PUSH2 0xFAB JUMP JUMPDEST PUSH20 0xFFFFFFFFFFFFFFFFFFFFFFFFFFFFFFFFFFFFFFFF AND PUSH20 0xFFFFFFFFFFFFFFFFFFFFFFFFFFFFFFFFFFFFFFFF AND DUP2 MSTORE PUSH1 0x20 ADD SWAP1 DUP2 MSTORE PUSH1 0x20 ADD PUSH1 0x0 KECCAK256 DUP9 PUSH1 0x40 MLOAD PUSH2 0x6F3 SWAP2 SWAP1 PUSH2 0x1DA7 JUMP JUMPDEST SWAP1 DUP2 MSTORE PUSH1 0x20 ADD PUSH1 0x40 MLOAD DUP1 SWAP2 SUB SWAP1 KECCAK256 SWAP1 POP DUP8 DUP2 PUSH1 0x0 ADD SWAP1 DUP1 MLOAD SWAP1 PUSH1 0x20 ADD SWAP1 PUSH2 0x71B SWAP3 SWAP2 SWAP1 PUSH2 0x157B JUMP JUMPDEST POP PUSH2 0x759 DUP9 TIMESTAMP PUSH2 0x729 PUSH2 0xFAB JUMP JUMPDEST PUSH1 0x40 MLOAD PUSH1 0x20 ADD PUSH2 0x73B SWAP4 SWAP3 SWAP2 SWAP1 PUSH2 0x1E8D JUMP JUMPDEST PUSH1 0x40 MLOAD PUSH1 0x20 DUP2 DUP4 SUB SUB DUP2 MSTORE SWAP1 PUSH1 0x40 MSTORE DUP1 MLOAD SWAP1 PUSH1 0x20 ADD KECCAK256 PUSH1 0x0 SHR PUSH2 0x103C JUMP JUMPDEST DUP2 PUSH1 0x1 ADD SWAP1 DUP1 MLOAD SWAP1 PUSH1 0x20 ADD SWAP1 PUSH2 0x770 SWAP3 SWAP2 SWAP1 PUSH2 0x157B JUMP JUMPDEST POP PUSH1 0x2 PUSH1 0x0 DUP9 DUP2 MSTORE PUSH1 0x20 ADD SWAP1 DUP2 MSTORE PUSH1 0x20 ADD PUSH1 0x0 KECCAK256 PUSH1 0x0 SWAP1 SLOAD SWAP1 PUSH2 0x100 EXP SWAP1 DIV PUSH20 0xFFFFFFFFFFFFFFFFFFFFFFFFFFFFFFFFFFFFFFFF AND DUP2 PUSH1 0x2 ADD PUSH1 0x0 PUSH2 0x100 EXP DUP2 SLOAD DUP2 PUSH20 0xFFFFFFFFFFFFFFFFFFFFFFFFFFFFFFFFFFFFFFFF MUL NOT AND SWAP1 DUP4 PUSH20 0xFFFFFFFFFFFFFFFFFFFFFFFFFFFFFFFFFFFFFFFF AND MUL OR SWAP1 SSTORE POP DUP7 DUP2 PUSH1 0x3 ADD DUP2 SWAP1 SSTORE POP DUP6 DUP2 PUSH1 0x4 ADD DUP2 SWAP1 SSTORE POP DUP5 DUP2 PUSH1 0x5 ADD DUP2 SWAP1 SSTORE POP DUP4 MLOAD DUP2 PUSH1 0x6 ADD DUP2 SWAP1 SSTORE POP PUSH2 0x814 PUSH2 0xFAB JUMP JUMPDEST DUP2 PUSH1 0x7 ADD PUSH1 0x0 PUSH2 0x100 EXP DUP2 SLOAD DUP2 PUSH20 0xFFFFFFFFFFFFFFFFFFFFFFFFFFFFFFFFFFFFFFFF MUL NOT AND SWAP1 DUP4 PUSH20 0xFFFFFFFFFFFFFFFFFFFFFFFFFFFFFFFFFFFFFFFF AND MUL OR SWAP1 SSTORE POP PUSH1 0x0 JUMPDEST DUP5 MLOAD DUP2 LT ISZERO PUSH2 0x9B1 JUMPI DUP5 DUP2 DUP2 MLOAD DUP2 LT PUSH2 0x875 JUMPI PUSH2 0x874 PUSH2 0x23AE JUMP JUMPDEST JUMPDEST PUSH1 0x20 MUL PUSH1 0x20 ADD ADD MLOAD PUSH1 0x0 ADD MLOAD PUSH1 0x6 DUP11 PUSH1 0x40 MLOAD PUSH2 0x891 SWAP2 SWAP1 PUSH2 0x1DA7 JUMP JUMPDEST SWAP1 DUP2 MSTORE PUSH1 0x20 ADD PUSH1 0x40 MLOAD DUP1 SWAP2 SUB SWAP1 KECCAK256 DUP3 DUP2 SLOAD DUP2 LT PUSH2 0x8B1 JUMPI PUSH2 0x8B0 PUSH2 0x23AE JUMP JUMPDEST JUMPDEST SWAP1 PUSH1 0x0 MSTORE PUSH1 0x20 PUSH1 0x0 KECCAK256 SWAP1 PUSH1 0x3 MUL ADD PUSH1 0x0 ADD SWAP1 DUP1 MLOAD SWAP1 PUSH1 0x20 ADD SWAP1 PUSH2 0x8D5 SWAP3 SWAP2 SWAP1 PUSH2 0x157B JUMP JUMPDEST POP DUP5 DUP2 DUP2 MLOAD DUP2 LT PUSH2 0x8E9 JUMPI PUSH2 0x8E8 PUSH2 0x23AE JUMP JUMPDEST JUMPDEST PUSH1 0x20 MUL PUSH1 0x20 ADD ADD MLOAD PUSH1 0x20 ADD MLOAD PUSH1 0x6 DUP11 PUSH1 0x40 MLOAD PUSH2 0x905 SWAP2 SWAP1 PUSH2 0x1DA7 JUMP JUMPDEST SWAP1 DUP2 MSTORE PUSH1 0x20 ADD PUSH1 0x40 MLOAD DUP1 SWAP2 SUB SWAP1 KECCAK256 DUP3 DUP2 SLOAD DUP2 LT PUSH2 0x925 JUMPI PUSH2 0x924 PUSH2 0x23AE JUMP JUMPDEST JUMPDEST SWAP1 PUSH1 0x0 MSTORE PUSH1 0x20 PUSH1 0x0 KECCAK256 SWAP1 PUSH1 0x3 MUL ADD PUSH1 0x1 ADD DUP2 SWAP1 SSTORE POP DUP5 DUP2 DUP2 MLOAD DUP2 LT PUSH2 0x94D JUMPI PUSH2 0x94C PUSH2 0x23AE JUMP JUMPDEST JUMPDEST PUSH1 0x20 MUL PUSH1 0x20 ADD ADD MLOAD PUSH1 0x40 ADD MLOAD PUSH1 0x6 DUP11 PUSH1 0x40 MLOAD PUSH2 0x969 SWAP2 SWAP1 PUSH2 0x1DA7 JUMP JUMPDEST SWAP1 DUP2 MSTORE PUSH1 0x20 ADD PUSH1 0x40 MLOAD DUP1 SWAP2 SUB SWAP1 KECCAK256 DUP3 DUP2 SLOAD DUP2 LT PUSH2 0x989 JUMPI PUSH2 0x988 PUSH2 0x23AE JUMP JUMPDEST JUMPDEST SWAP1 PUSH1 0x0 MSTORE PUSH1 0x20 PUSH1 0x0 KECCAK256 SWAP1 PUSH1 0x3 MUL ADD PUSH1 0x2 ADD DUP2 SWAP1 SSTORE POP DUP1 DUP1 PUSH2 0x9A9 SWAP1 PUSH2 0x22A7 JUMP JUMPDEST SWAP2 POP POP PUSH2 0x859 JUMP JUMPDEST POP PUSH2 0x9BA PUSH2 0xFAB JUMP JUMPDEST PUSH20 0xFFFFFFFFFFFFFFFFFFFFFFFFFFFFFFFFFFFFFFFF AND DUP2 PUSH1 0x1 ADD PUSH1 0x40 MLOAD PUSH2 0x9E1 SWAP2 SWAP1 PUSH2 0x1DBE JUMP JUMPDEST PUSH1 0x40 MLOAD DUP1 SWAP2 SUB SWAP1 KECCAK256 DUP10 PUSH1 0x40 MLOAD PUSH2 0x9F7 SWAP2 SWAP1 PUSH2 0x1DA7 JUMP JUMPDEST PUSH1 0x40 MLOAD DUP1 SWAP2 SUB SWAP1 KECCAK256 PUSH32 0x252EA8F225DC33AC745D0CF22974635091A5FF8332A55F6469595CAA3337A8FC PUSH1 0x40 MLOAD PUSH1 0x40 MLOAD DUP1 SWAP2 SUB SWAP1 LOG4 POP POP POP POP POP POP POP POP JUMP JUMPDEST PUSH2 0xA3D PUSH2 0xFAB JUMP JUMPDEST PUSH20 0xFFFFFFFFFFFFFFFFFFFFFFFFFFFFFFFFFFFFFFFF AND PUSH2 0xA5B PUSH2 0xD3C JUMP JUMPDEST PUSH20 0xFFFFFFFFFFFFFFFFFFFFFFFFFFFFFFFFFFFFFFFF AND EQ PUSH2 0xAB1 JUMPI PUSH1 0x40 MLOAD PUSH32 0x8C379A000000000000000000000000000000000000000000000000000000000 DUP2 MSTORE PUSH1 0x4 ADD PUSH2 0xAA8 SWAP1 PUSH2 0x1F2B JUMP JUMPDEST PUSH1 0x40 MLOAD DUP1 SWAP2 SUB SWAP1 REVERT JUMPDEST DUP1 PUSH1 0x2 PUSH1 0x0 PUSH1 0x3 SLOAD DUP2 MSTORE PUSH1 0x20 ADD SWAP1 DUP2 MSTORE PUSH1 0x20 ADD PUSH1 0x0 KECCAK256 PUSH1 0x0 PUSH2 0x100 EXP DUP2 SLOAD DUP2 PUSH20 0xFFFFFFFFFFFFFFFFFFFFFFFFFFFFFFFFFFFFFFFF MUL NOT AND SWAP1 DUP4 PUSH20 0xFFFFFFFFFFFFFFFFFFFFFFFFFFFFFFFFFFFFFFFF AND MUL OR SWAP1 SSTORE POP PUSH1 0x3 SLOAD PUSH1 0x4 PUSH1 0x0 DUP4 PUSH20 0xFFFFFFFFFFFFFFFFFFFFFFFFFFFFFFFFFFFFFFFF AND PUSH20 0xFFFFFFFFFFFFFFFFFFFFFFFFFFFFFFFFFFFFFFFF AND DUP2 MSTORE PUSH1 0x20 ADD SWAP1 DUP2 MSTORE PUSH1 0x20 ADD PUSH1 0x0 KECCAK256 DUP2 SWAP1 SSTORE POP PUSH2 0xB61 PUSH1 0x1 PUSH1 0x3 SLOAD PUSH2 0x119D SWAP1 SWAP2 SWAP1 PUSH4 0xFFFFFFFF AND JUMP JUMPDEST PUSH1 0x3 DUP2 SWAP1 SSTORE POP PUSH2 0xB7D PUSH1 0x1 PUSH1 0x3 SLOAD PUSH2 0x11B3 SWAP1 SWAP2 SWAP1 PUSH4 0xFFFFFFFF AND JUMP JUMPDEST DUP2 PUSH20 0xFFFFFFFFFFFFFFFFFFFFFFFFFFFFFFFFFFFFFFFF AND PUSH32 0xB5498D88D9AE1CB339DBE68DF2A6FDC5E7E4D8045BBD0B39F0D5648399A753F2 PUSH1 0x40 MLOAD PUSH1 0x40 MLOAD DUP1 SWAP2 SUB SWAP1 LOG3 POP JUMP JUMPDEST PUSH1 0x5 PUSH1 0x0 SWAP1 SLOAD SWAP1 PUSH2 0x100 EXP SWAP1 DIV PUSH20 0xFFFFFFFFFFFFFFFFFFFFFFFFFFFFFFFFFFFFFFFF AND DUP2 JUMP JUMPDEST PUSH1 0x0 DUP1 PUSH1 0x4 PUSH1 0x0 DUP5 PUSH20 0xFFFFFFFFFFFFFFFFFFFFFFFFFFFFFFFFFFFFFFFF AND PUSH20 0xFFFFFFFFFFFFFFFFFFFFFFFFFFFFFFFFFFFFFFFF AND DUP2 MSTORE PUSH1 0x20 ADD SWAP1 DUP2 MSTORE PUSH1 0x20 ADD PUSH1 0x0 KECCAK256 SLOAD EQ ISZERO PUSH2 0xC6D JUMPI PUSH1 0x40 MLOAD PUSH32 0x8C379A000000000000000000000000000000000000000000000000000000000 DUP2 MSTORE PUSH1 0x4 ADD PUSH2 0xC64 SWAP1 PUSH2 0x1F4B JUMP JUMPDEST PUSH1 0x40 MLOAD DUP1 SWAP2 SUB SWAP1 REVERT JUMPDEST PUSH1 0x4 PUSH1 0x0 DUP4 PUSH20 0xFFFFFFFFFFFFFFFFFFFFFFFFFFFFFFFFFFFFFFFF AND PUSH20 0xFFFFFFFFFFFFFFFFFFFFFFFFFFFFFFFFFFFFFFFF AND DUP2 MSTORE PUSH1 0x20 ADD SWAP1 DUP2 MSTORE PUSH1 0x20 ADD PUSH1 0x0 KECCAK256 SLOAD SWAP1 POP SWAP2 SWAP1 POP JUMP JUMPDEST PUSH2 0xCBC PUSH2 0xFAB JUMP JUMPDEST PUSH20 0xFFFFFFFFFFFFFFFFFFFFFFFFFFFFFFFFFFFFFFFF AND PUSH2 0xCDA PUSH2 0xD3C JUMP JUMPDEST PUSH20 0xFFFFFFFFFFFFFFFFFFFFFFFFFFFFFFFFFFFFFFFF AND EQ PUSH2 0xD30 JUMPI PUSH1 0x40 MLOAD PUSH32 0x8C379A000000000000000000000000000000000000000000000000000000000 DUP2 MSTORE PUSH1 0x4 ADD PUSH2 0xD27 SWAP1 PUSH2 0x1F2B JUMP JUMPDEST PUSH1 0x40 MLOAD DUP1 SWAP2 SUB SWAP1 REVERT JUMPDEST PUSH2 0xD3A PUSH1 0x0 PUSH2 0x11C9 JUMP JUMPDEST JUMP JUMPDEST PUSH1 0x0 DUP1 PUSH1 0x0 SWAP1 SLOAD SWAP1 PUSH2 0x100 EXP SWAP1 DIV PUSH20 0xFFFFFFFFFFFFFFFFFFFFFFFFFFFFFFFFFFFFFFFF AND SWAP1 POP SWAP1 JUMP JUMPDEST PUSH1 0x2 PUSH1 0x20 MSTORE DUP1 PUSH1 0x0 MSTORE PUSH1 0x40 PUSH1 0x0 KECCAK256 PUSH1 0x0 SWAP2 POP SLOAD SWAP1 PUSH2 0x100 EXP SWAP1 DIV PUSH20 0xFFFFFFFFFFFFFFFFFFFFFFFFFFFFFFFFFFFFFFFF AND DUP2 JUMP JUMPDEST PUSH2 0xDA0 PUSH2 0xFAB JUMP JUMPDEST PUSH20 0xFFFFFFFFFFFFFFFFFFFFFFFFFFFFFFFFFFFFFFFF AND PUSH2 0xDBE PUSH2 0xD3C JUMP JUMPDEST PUSH20 0xFFFFFFFFFFFFFFFFFFFFFFFFFFFFFFFFFFFFFFFF AND EQ PUSH2 0xE14 JUMPI PUSH1 0x40 MLOAD PUSH32 0x8C379A000000000000000000000000000000000000000000000000000000000 DUP2 MSTORE PUSH1 0x4 ADD PUSH2 0xE0B SWAP1 PUSH2 0x1F2B JUMP JUMPDEST PUSH1 0x40 MLOAD DUP1 SWAP2 SUB SWAP1 REVERT JUMPDEST DUP1 PUSH1 0x5 PUSH1 0x0 PUSH2 0x100 EXP DUP2 SLOAD DUP2 PUSH20 0xFFFFFFFFFFFFFFFFFFFFFFFFFFFFFFFFFFFFFFFF MUL NOT AND SWAP1 DUP4 PUSH20 0xFFFFFFFFFFFFFFFFFFFFFFFFFFFFFFFFFFFFFFFF AND MUL OR SWAP1 SSTORE POP DUP1 PUSH20 0xFFFFFFFFFFFFFFFFFFFFFFFFFFFFFFFFFFFFFFFF AND PUSH32 0x65AC7C44CE1402D115F5033C9DDE8B6D1E130550ECD89AC7659BC257D4F5B6D5 PUSH1 0x40 MLOAD PUSH1 0x40 MLOAD DUP1 SWAP2 SUB SWAP1 LOG2 POP JUMP JUMPDEST PUSH1 0x4 PUSH1 0x20 MSTORE DUP1 PUSH1 0x0 MSTORE PUSH1 0x40 PUSH1 0x0 KECCAK256 PUSH1 0x0 SWAP2 POP SWAP1 POP SLOAD DUP2 JUMP JUMPDEST PUSH2 0xEBB PUSH2 0xFAB JUMP JUMPDEST PUSH20 0xFFFFFFFFFFFFFFFFFFFFFFFFFFFFFFFFFFFFFFFF AND PUSH2 0xED9 PUSH2 0xD3C JUMP JUMPDEST PUSH20 0xFFFFFFFFFFFFFFFFFFFFFFFFFFFFFFFFFFFFFFFF AND EQ PUSH2 0xF2F JUMPI PUSH1 0x40 MLOAD PUSH32 0x8C379A000000000000000000000000000000000000000000000000000000000 DUP2 MSTORE PUSH1 0x4 ADD PUSH2 0xF26 SWAP1 PUSH2 0x1F2B JUMP JUMPDEST PUSH1 0x40 MLOAD DUP1 SWAP2 SUB SWAP1 REVERT JUMPDEST PUSH1 0x0 PUSH20 0xFFFFFFFFFFFFFFFFFFFFFFFFFFFFFFFFFFFFFFFF AND DUP2 PUSH20 0xFFFFFFFFFFFFFFFFFFFFFFFFFFFFFFFFFFFFFFFF AND EQ ISZERO PUSH2 0xF9F JUMPI PUSH1 0x40 MLOAD PUSH32 0x8C379A000000000000000000000000000000000000000000000000000000000 DUP2 MSTORE PUSH1 0x4 ADD PUSH2 0xF96 SWAP1 PUSH2 0x1ECB JUMP JUMPDEST PUSH1 0x40 MLOAD DUP1 SWAP2 SUB SWAP1 REVERT JUMPDEST PUSH2 0xFA8 DUP2 PUSH2 0x11C9 JUMP JUMPDEST POP JUMP JUMPDEST PUSH1 0x0 CALLER SWAP1 POP SWAP1 JUMP JUMPDEST PUSH2 0x1036 DUP5 PUSH4 0x23B872DD PUSH1 0xE0 SHL DUP6 DUP6 DUP6 PUSH1 0x40 MLOAD PUSH1 0x24 ADD PUSH2 0xFD4 SWAP4 SWAP3 SWAP2 SWAP1 PUSH2 0x1E34 JUMP JUMPDEST PUSH1 0x40 MLOAD PUSH1 0x20 DUP2 DUP4 SUB SUB DUP2 MSTORE SWAP1 PUSH1 0x40 MSTORE SWAP1 PUSH28 0xFFFFFFFFFFFFFFFFFFFFFFFFFFFFFFFFFFFFFFFFFFFFFFFFFFFFFFFF NOT AND PUSH1 0x20 DUP3 ADD DUP1 MLOAD PUSH28 0xFFFFFFFFFFFFFFFFFFFFFFFFFFFFFFFFFFFFFFFFFFFFFFFFFFFFFFFF DUP4 DUP2 DUP4 AND OR DUP4 MSTORE POP POP POP POP PUSH2 0x128D JUMP JUMPDEST POP POP POP POP JUMP JUMPDEST PUSH1 0x60 PUSH1 0x0 DUP3 EQ ISZERO PUSH2 0x1084 JUMPI PUSH1 0x40 MLOAD DUP1 PUSH1 0x40 ADD PUSH1 0x40 MSTORE DUP1 PUSH1 0x1 DUP2 MSTORE PUSH1 0x20 ADD PUSH32 0x3000000000000000000000000000000000000000000000000000000000000000 DUP2 MSTORE POP SWAP1 POP PUSH2 0x1198 JUMP JUMPDEST PUSH1 0x0 DUP3 SWAP1 POP PUSH1 0x0 JUMPDEST PUSH1 0x0 DUP3 EQ PUSH2 0x10B6 JUMPI DUP1 DUP1 PUSH2 0x109F SWAP1 PUSH2 0x22A7 JUMP JUMPDEST SWAP2 POP POP PUSH1 0xA DUP3 PUSH2 0x10AF SWAP2 SWAP1 PUSH2 0x2143 JUMP JUMPDEST SWAP2 POP PUSH2 0x108C JUMP JUMPDEST PUSH1 0x0 DUP2 PUSH8 0xFFFFFFFFFFFFFFFF DUP2 GT ISZERO PUSH2 0x10D2 JUMPI PUSH2 0x10D1 PUSH2 0x23DD JUMP JUMPDEST JUMPDEST PUSH1 0x40 MLOAD SWAP1 DUP1 DUP3 MSTORE DUP1 PUSH1 0x1F ADD PUSH1 0x1F NOT AND PUSH1 0x20 ADD DUP3 ADD PUSH1 0x40 MSTORE DUP1 ISZERO PUSH2 0x1104 JUMPI DUP2 PUSH1 0x20 ADD PUSH1 0x1 DUP3 MUL DUP1 CALLDATASIZE DUP4 CALLDATACOPY DUP1 DUP3 ADD SWAP2 POP POP SWAP1 POP JUMPDEST POP SWAP1 POP JUMPDEST PUSH1 0x0 DUP6 EQ PUSH2 0x1191 JUMPI PUSH1 0x1 DUP3 PUSH2 0x111D SWAP2 SWAP1 PUSH2 0x2174 JUMP JUMPDEST SWAP2 POP PUSH1 0xA DUP6 PUSH2 0x112C SWAP2 SWAP1 PUSH2 0x22F0 JUMP JUMPDEST PUSH1 0x30 PUSH2 0x1138 SWAP2 SWAP1 PUSH2 0x20ED JUMP JUMPDEST PUSH1 0xF8 SHL DUP2 DUP4 DUP2 MLOAD DUP2 LT PUSH2 0x114E JUMPI PUSH2 0x114D PUSH2 0x23AE JUMP JUMPDEST JUMPDEST PUSH1 0x20 ADD ADD SWAP1 PUSH31 0xFFFFFFFFFFFFFFFFFFFFFFFFFFFFFFFFFFFFFFFFFFFFFFFFFFFFFFFFFFFFFF NOT AND SWAP1 DUP2 PUSH1 0x0 BYTE SWAP1 MSTORE8 POP PUSH1 0xA DUP6 PUSH2 0x118A SWAP2 SWAP1 PUSH2 0x2143 JUMP JUMPDEST SWAP5 POP PUSH2 0x1108 JUMP JUMPDEST DUP1 SWAP4 POP POP POP POP JUMPDEST SWAP2 SWAP1 POP JUMP JUMPDEST PUSH1 0x0 DUP2 DUP4 PUSH2 0x11AB SWAP2 SWAP1 PUSH2 0x20ED JUMP JUMPDEST SWAP1 POP SWAP3 SWAP2 POP POP JUMP JUMPDEST PUSH1 0x0 DUP2 DUP4 PUSH2 0x11C1 SWAP2 SWAP1 PUSH2 0x2174 JUMP JUMPDEST SWAP1 POP SWAP3 SWAP2 POP POP JUMP JUMPDEST PUSH1 0x0 DUP1 PUSH1 0x0 SWAP1 SLOAD SWAP1 PUSH2 0x100 EXP SWAP1 DIV PUSH20 0xFFFFFFFFFFFFFFFFFFFFFFFFFFFFFFFFFFFFFFFF AND SWAP1 POP DUP2 PUSH1 0x0 DUP1 PUSH2 0x100 EXP DUP2 SLOAD DUP2 PUSH20 0xFFFFFFFFFFFFFFFFFFFFFFFFFFFFFFFFFFFFFFFF MUL NOT AND SWAP1 DUP4 PUSH20 0xFFFFFFFFFFFFFFFFFFFFFFFFFFFFFFFFFFFFFFFF AND MUL OR SWAP1 SSTORE POP DUP2 PUSH20 0xFFFFFFFFFFFFFFFFFFFFFFFFFFFFFFFFFFFFFFFF AND DUP2 PUSH20 0xFFFFFFFFFFFFFFFFFFFFFFFFFFFFFFFFFFFFFFFF AND PUSH32 0x8BE0079C531659141344CD1FD0A4F28419497F9722A3DAAFE3B4186F6B6457E0 PUSH1 0x40 MLOAD PUSH1 0x40 MLOAD DUP1 SWAP2 SUB SWAP1 LOG3 POP POP JUMP JUMPDEST PUSH1 0x0 PUSH2 0x12EF DUP3 PUSH1 0x40 MLOAD DUP1 PUSH1 0x40 ADD PUSH1 0x40 MSTORE DUP1 PUSH1 0x20 DUP2 MSTORE PUSH1 0x20 ADD PUSH32 0x5361666545524332303A206C6F772D6C6576656C2063616C6C206661696C6564 DUP2 MSTORE POP DUP6 PUSH20 0xFFFFFFFFFFFFFFFFFFFFFFFFFFFFFFFFFFFFFFFF AND PUSH2 0x1354 SWAP1 SWAP3 SWAP2 SWAP1 PUSH4 0xFFFFFFFF AND JUMP JUMPDEST SWAP1 POP PUSH1 0x0 DUP2 MLOAD GT ISZERO PUSH2 0x134F JUMPI DUP1 DUP1 PUSH1 0x20 ADD SWAP1 MLOAD DUP2 ADD SWAP1 PUSH2 0x130F SWAP2 SWAP1 PUSH2 0x18E9 JUMP JUMPDEST PUSH2 0x134E JUMPI PUSH1 0x40 MLOAD PUSH32 0x8C379A000000000000000000000000000000000000000000000000000000000 DUP2 MSTORE PUSH1 0x4 ADD PUSH2 0x1345 SWAP1 PUSH2 0x1F8B JUMP JUMPDEST PUSH1 0x40 MLOAD DUP1 SWAP2 SUB SWAP1 REVERT JUMPDEST JUMPDEST POP POP POP JUMP JUMPDEST PUSH1 0x60 PUSH2 0x1363 DUP5 DUP5 PUSH1 0x0 DUP6 PUSH2 0x136C JUMP JUMPDEST SWAP1 POP SWAP4 SWAP3 POP POP POP JUMP JUMPDEST PUSH1 0x60 DUP3 SELFBALANCE LT ISZERO PUSH2 0x13B1 JUMPI PUSH1 0x40 MLOAD PUSH32 0x8C379A000000000000000000000000000000000000000000000000000000000 DUP2 MSTORE PUSH1 0x4 ADD PUSH2 0x13A8 SWAP1 PUSH2 0x1F0B JUMP JUMPDEST PUSH1 0x40 MLOAD DUP1 SWAP2 SUB SWAP1 REVERT JUMPDEST PUSH2 0x13BA DUP6 PUSH2 0x1480 JUMP JUMPDEST PUSH2 0x13F9 JUMPI PUSH1 0x40 MLOAD PUSH32 0x8C379A000000000000000000000000000000000000000000000000000000000 DUP2 MSTORE PUSH1 0x4 ADD PUSH2 0x13F0 SWAP1 PUSH2 0x1F6B JUMP JUMPDEST PUSH1 0x40 MLOAD DUP1 SWAP2 SUB SWAP1 REVERT JUMPDEST PUSH1 0x0 DUP1 DUP7 PUSH20 0xFFFFFFFFFFFFFFFFFFFFFFFFFFFFFFFFFFFFFFFF AND DUP6 DUP8 PUSH1 0x40 MLOAD PUSH2 0x1422 SWAP2 SWAP1 PUSH2 0x1D90 JUMP JUMPDEST PUSH1 0x0 PUSH1 0x40 MLOAD DUP1 DUP4 SUB DUP2 DUP6 DUP8 GAS CALL SWAP3 POP POP POP RETURNDATASIZE DUP1 PUSH1 0x0 DUP2 EQ PUSH2 0x145F JUMPI PUSH1 0x40 MLOAD SWAP2 POP PUSH1 0x1F NOT PUSH1 0x3F RETURNDATASIZE ADD AND DUP3 ADD PUSH1 0x40 MSTORE RETURNDATASIZE DUP3 MSTORE RETURNDATASIZE PUSH1 0x0 PUSH1 0x20 DUP5 ADD RETURNDATACOPY PUSH2 0x1464 JUMP JUMPDEST PUSH1 0x60 SWAP2 POP JUMPDEST POP SWAP2 POP SWAP2 POP PUSH2 0x1474 DUP3 DUP3 DUP7 PUSH2 0x14A3 JUMP JUMPDEST SWAP3 POP POP POP SWAP5 SWAP4 POP POP POP POP JUMP JUMPDEST PUSH1 0x0 DUP1 DUP3 PUSH20 0xFFFFFFFFFFFFFFFFFFFFFFFFFFFFFFFFFFFFFFFF AND EXTCODESIZE GT SWAP1 POP SWAP2 SWAP1 POP JUMP JUMPDEST PUSH1 0x60 DUP4 ISZERO PUSH2 0x14B3 JUMPI DUP3 SWAP1 POP PUSH2 0x1503 JUMP JUMPDEST PUSH1 0x0 DUP4 MLOAD GT ISZERO PUSH2 0x14C6 JUMPI DUP3 MLOAD DUP1 DUP5 PUSH1 0x20 ADD REVERT JUMPDEST DUP2 PUSH1 0x40 MLOAD PUSH32 0x8C379A000000000000000000000000000000000000000000000000000000000 DUP2 MSTORE PUSH1 0x4 ADD PUSH2 0x14FA SWAP2 SWAP1 PUSH2 0x1E6B JUMP JUMPDEST PUSH1 0x40 MLOAD DUP1 SWAP2 SUB SWAP1 REVERT JUMPDEST SWAP4 SWAP3 POP POP POP JUMP JUMPDEST PUSH1 0x40 MLOAD DUP1 PUSH2 0x100 ADD PUSH1 0x40 MSTORE DUP1 PUSH1 0x60 DUP2 MSTORE PUSH1 0x20 ADD PUSH1 0x60 DUP2 MSTORE PUSH1 0x20 ADD PUSH1 0x0 PUSH20 0xFFFFFFFFFFFFFFFFFFFFFFFFFFFFFFFFFFFFFFFF AND DUP2 MSTORE PUSH1 0x20 ADD PUSH1 0x0 DUP2 MSTORE PUSH1 0x20 ADD PUSH1 0x0 DUP2 MSTORE PUSH1 0x20 ADD PUSH1 0x0 DUP2 MSTORE PUSH1 0x20 ADD PUSH1 0x0 DUP2 MSTORE PUSH1 0x20 ADD PUSH1 0x0 PUSH20 0xFFFFFFFFFFFFFFFFFFFFFFFFFFFFFFFFFFFFFFFF AND DUP2 MSTORE POP SWAP1 JUMP JUMPDEST DUP3 DUP1 SLOAD PUSH2 0x1587 SWAP1 PUSH2 0x2244 JUMP JUMPDEST SWAP1 PUSH1 0x0 MSTORE PUSH1 0x20 PUSH1 0x0 KECCAK256 SWAP1 PUSH1 0x1F ADD PUSH1 0x20 SWAP1 DIV DUP2 ADD SWAP3 DUP3 PUSH2 0x15A9 JUMPI PUSH1 0x0 DUP6 SSTORE PUSH2 0x15F0 JUMP JUMPDEST DUP3 PUSH1 0x1F LT PUSH2 0x15C2 JUMPI DUP1 MLOAD PUSH1 0xFF NOT AND DUP4 DUP1 ADD OR DUP6 SSTORE PUSH2 0x15F0 JUMP JUMPDEST DUP3 DUP1 ADD PUSH1 0x1 ADD DUP6 SSTORE DUP3 ISZERO PUSH2 0x15F0 JUMPI SWAP2 DUP3 ADD JUMPDEST DUP3 DUP2 GT ISZERO PUSH2 0x15EF JUMPI DUP3 MLOAD DUP3 SSTORE SWAP2 PUSH1 0x20 ADD SWAP2 SWAP1 PUSH1 0x1 ADD SWAP1 PUSH2 0x15D4 JUMP JUMPDEST JUMPDEST POP SWAP1 POP PUSH2 0x15FD SWAP2 SWAP1 PUSH2 0x1601 JUMP JUMPDEST POP SWAP1 JUMP JUMPDEST JUMPDEST DUP1 DUP3 GT ISZERO PUSH2 0x161A JUMPI PUSH1 0x0 DUP2 PUSH1 0x0 SWAP1 SSTORE POP PUSH1 0x1 ADD PUSH2 0x1602 JUMP JUMPDEST POP SWAP1 JUMP JUMPDEST PUSH1 0x0 PUSH2 0x1631 PUSH2 0x162C DUP5 PUSH2 0x202D JUMP JUMPDEST PUSH2 0x2008 JUMP JUMPDEST SWAP1 POP DUP1 DUP4 DUP3 MSTORE PUSH1 0x20 DUP3 ADD SWAP1 POP DUP3 DUP6 PUSH1 0x20 DUP7 MUL DUP3 ADD GT ISZERO PUSH2 0x1654 JUMPI PUSH2 0x1653 PUSH2 0x241B JUMP JUMPDEST JUMPDEST PUSH1 0x0 JUMPDEST DUP6 DUP2 LT ISZERO PUSH2 0x16A2 JUMPI DUP2 CALLDATALOAD PUSH8 0xFFFFFFFFFFFFFFFF DUP2 GT ISZERO PUSH2 0x167A JUMPI PUSH2 0x1679 PUSH2 0x240C JUMP JUMPDEST JUMPDEST DUP1 DUP7 ADD PUSH2 0x1687 DUP10 DUP3 PUSH2 0x1789 JUMP JUMPDEST DUP6 MSTORE PUSH1 0x20 DUP6 ADD SWAP5 POP PUSH1 0x20 DUP5 ADD SWAP4 POP POP POP PUSH1 0x1 DUP2 ADD SWAP1 POP PUSH2 0x1657 JUMP JUMPDEST POP POP POP SWAP4 SWAP3 POP POP POP JUMP JUMPDEST PUSH1 0x0 PUSH2 0x16BF PUSH2 0x16BA DUP5 PUSH2 0x2059 JUMP JUMPDEST PUSH2 0x2008 JUMP JUMPDEST SWAP1 POP DUP3 DUP2 MSTORE PUSH1 0x20 DUP2 ADD DUP5 DUP5 DUP5 ADD GT ISZERO PUSH2 0x16DB JUMPI PUSH2 0x16DA PUSH2 0x2420 JUMP JUMPDEST JUMPDEST PUSH2 0x16E6 DUP5 DUP3 DUP6 PUSH2 0x2202 JUMP JUMPDEST POP SWAP4 SWAP3 POP POP POP JUMP JUMPDEST PUSH1 0x0 DUP2 CALLDATALOAD SWAP1 POP PUSH2 0x16FD DUP2 PUSH2 0x2646 JUMP JUMPDEST SWAP3 SWAP2 POP POP JUMP JUMPDEST PUSH1 0x0 DUP2 CALLDATALOAD SWAP1 POP PUSH2 0x1712 DUP2 PUSH2 0x265D JUMP JUMPDEST SWAP3 SWAP2 POP POP JUMP JUMPDEST PUSH1 0x0 DUP3 PUSH1 0x1F DUP4 ADD SLT PUSH2 0x172D JUMPI PUSH2 0x172C PUSH2 0x240C JUMP JUMPDEST JUMPDEST DUP2 CALLDATALOAD PUSH2 0x173D DUP5 DUP3 PUSH1 0x20 DUP7 ADD PUSH2 0x161E JUMP JUMPDEST SWAP2 POP POP SWAP3 SWAP2 POP POP JUMP JUMPDEST PUSH1 0x0 DUP2 MLOAD SWAP1 POP PUSH2 0x1755 DUP2 PUSH2 0x2674 JUMP JUMPDEST SWAP3 SWAP2 POP POP JUMP JUMPDEST PUSH1 0x0 DUP3 PUSH1 0x1F DUP4 ADD SLT PUSH2 0x1770 JUMPI PUSH2 0x176F PUSH2 0x240C JUMP JUMPDEST JUMPDEST DUP2 CALLDATALOAD PUSH2 0x1780 DUP5 DUP3 PUSH1 0x20 DUP7 ADD PUSH2 0x16AC JUMP JUMPDEST SWAP2 POP POP SWAP3 SWAP2 POP POP JUMP JUMPDEST PUSH1 0x0 PUSH1 0x60 DUP3 DUP5 SUB SLT ISZERO PUSH2 0x179F JUMPI PUSH2 0x179E PUSH2 0x2411 JUMP JUMPDEST JUMPDEST PUSH2 0x17A9 PUSH1 0x60 PUSH2 0x2008 JUMP JUMPDEST SWAP1 POP PUSH1 0x0 DUP3 ADD CALLDATALOAD PUSH8 0xFFFFFFFFFFFFFFFF DUP2 GT ISZERO PUSH2 0x17C9 JUMPI PUSH2 0x17C8 PUSH2 0x2416 JUMP JUMPDEST JUMPDEST PUSH2 0x17D5 DUP5 DUP3 DUP6 ADD PUSH2 0x175B JUMP JUMPDEST PUSH1 0x0 DUP4 ADD MSTORE POP PUSH1 0x20 PUSH2 0x17E9 DUP5 DUP3 DUP6 ADD PUSH2 0x1809 JUMP JUMPDEST PUSH1 0x20 DUP4 ADD MSTORE POP PUSH1 0x40 PUSH2 0x17FD DUP5 DUP3 DUP6 ADD PUSH2 0x1809 JUMP JUMPDEST PUSH1 0x40 DUP4 ADD MSTORE POP SWAP3 SWAP2 POP POP JUMP JUMPDEST PUSH1 0x0 DUP2 CALLDATALOAD SWAP1 POP PUSH2 0x1818 DUP2 PUSH2 0x268B JUMP JUMPDEST SWAP3 SWAP2 POP POP JUMP JUMPDEST PUSH1 0x0 DUP2 MLOAD SWAP1 POP PUSH2 0x182D DUP2 PUSH2 0x268B JUMP JUMPDEST SWAP3 SWAP2 POP POP JUMP JUMPDEST PUSH1 0x0 PUSH1 0x20 DUP3 DUP5 SUB SLT ISZERO PUSH2 0x1849 JUMPI PUSH2 0x1848 PUSH2 0x242A JUMP JUMPDEST JUMPDEST PUSH1 0x0 PUSH2 0x1857 DUP5 DUP3 DUP6 ADD PUSH2 0x16EE JUMP JUMPDEST SWAP2 POP POP SWAP3 SWAP2 POP POP JUMP JUMPDEST PUSH1 0x0 PUSH1 0x20 DUP3 DUP5 SUB SLT ISZERO PUSH2 0x1876 JUMPI PUSH2 0x1875 PUSH2 0x242A JUMP JUMPDEST JUMPDEST PUSH1 0x0 PUSH2 0x1884 DUP5 DUP3 DUP6 ADD PUSH2 0x1703 JUMP JUMPDEST SWAP2 POP POP SWAP3 SWAP2 POP POP JUMP JUMPDEST PUSH1 0x0 DUP1 PUSH1 0x40 DUP4 DUP6 SUB SLT ISZERO PUSH2 0x18A4 JUMPI PUSH2 0x18A3 PUSH2 0x242A JUMP JUMPDEST JUMPDEST PUSH1 0x0 PUSH2 0x18B2 DUP6 DUP3 DUP7 ADD PUSH2 0x16EE JUMP JUMPDEST SWAP3 POP POP PUSH1 0x20 DUP4 ADD CALLDATALOAD PUSH8 0xFFFFFFFFFFFFFFFF DUP2 GT ISZERO PUSH2 0x18D3 JUMPI PUSH2 0x18D2 PUSH2 0x2425 JUMP JUMPDEST JUMPDEST PUSH2 0x18DF DUP6 DUP3 DUP7 ADD PUSH2 0x175B JUMP JUMPDEST SWAP2 POP POP SWAP3 POP SWAP3 SWAP1 POP JUMP JUMPDEST PUSH1 0x0 PUSH1 0x20 DUP3 DUP5 SUB SLT ISZERO PUSH2 0x18FF JUMPI PUSH2 0x18FE PUSH2 0x242A JUMP JUMPDEST JUMPDEST PUSH1 0x0 PUSH2 0x190D DUP5 DUP3 DUP6 ADD PUSH2 0x1746 JUMP JUMPDEST SWAP2 POP POP SWAP3 SWAP2 POP POP JUMP JUMPDEST PUSH1 0x0 DUP1 PUSH1 0x0 DUP1 PUSH1 0x0 PUSH1 0xA0 DUP7 DUP9 SUB SLT ISZERO PUSH2 0x1932 JUMPI PUSH2 0x1931 PUSH2 0x242A JUMP JUMPDEST JUMPDEST PUSH1 0x0 DUP7 ADD CALLDATALOAD PUSH8 0xFFFFFFFFFFFFFFFF DUP2 GT ISZERO PUSH2 0x1950 JUMPI PUSH2 0x194F PUSH2 0x2425 JUMP JUMPDEST JUMPDEST PUSH2 0x195C DUP9 DUP3 DUP10 ADD PUSH2 0x175B JUMP JUMPDEST SWAP6 POP POP PUSH1 0x20 PUSH2 0x196D DUP9 DUP3 DUP10 ADD PUSH2 0x1809 JUMP JUMPDEST SWAP5 POP POP PUSH1 0x40 PUSH2 0x197E DUP9 DUP3 DUP10 ADD PUSH2 0x1809 JUMP JUMPDEST SWAP4 POP POP PUSH1 0x60 PUSH2 0x198F DUP9 DUP3 DUP10 ADD PUSH2 0x1809 JUMP JUMPDEST SWAP3 POP POP PUSH1 0x80 DUP7 ADD CALLDATALOAD PUSH8 0xFFFFFFFFFFFFFFFF DUP2 GT ISZERO PUSH2 0x19B0 JUMPI PUSH2 0x19AF PUSH2 0x2425 JUMP JUMPDEST JUMPDEST PUSH2 0x19BC DUP9 DUP3 DUP10 ADD PUSH2 0x1718 JUMP JUMPDEST SWAP2 POP POP SWAP3 SWAP6 POP SWAP3 SWAP6 SWAP1 SWAP4 POP JUMP JUMPDEST PUSH1 0x0 PUSH1 0x20 DUP3 DUP5 SUB SLT ISZERO PUSH2 0x19DF JUMPI PUSH2 0x19DE PUSH2 0x242A JUMP JUMPDEST JUMPDEST PUSH1 0x0 PUSH2 0x19ED DUP5 DUP3 DUP6 ADD PUSH2 0x1809 JUMP JUMPDEST SWAP2 POP POP SWAP3 SWAP2 POP POP JUMP JUMPDEST PUSH1 0x0 PUSH1 0x20 DUP3 DUP5 SUB SLT ISZERO PUSH2 0x1A0C JUMPI PUSH2 0x1A0B PUSH2 0x242A JUMP JUMPDEST JUMPDEST PUSH1 0x0 PUSH2 0x1A1A DUP5 DUP3 DUP6 ADD PUSH2 0x181E JUMP JUMPDEST SWAP2 POP POP SWAP3 SWAP2 POP POP JUMP JUMPDEST PUSH2 0x1A2C DUP2 PUSH2 0x21BA JUMP JUMPDEST DUP3 MSTORE POP POP JUMP JUMPDEST PUSH2 0x1A3B DUP2 PUSH2 0x21A8 JUMP JUMPDEST DUP3 MSTORE POP POP JUMP JUMPDEST PUSH2 0x1A4A DUP2 PUSH2 0x21A8 JUMP JUMPDEST DUP3 MSTORE POP POP JUMP JUMPDEST PUSH1 0x0 PUSH2 0x1A5B DUP3 PUSH2 0x209F JUMP JUMPDEST PUSH2 0x1A65 DUP2 DUP6 PUSH2 0x20B5 JUMP JUMPDEST SWAP4 POP PUSH2 0x1A75 DUP2 DUP6 PUSH1 0x20 DUP7 ADD PUSH2 0x2211 JUMP JUMPDEST DUP1 DUP5 ADD SWAP2 POP POP SWAP3 SWAP2 POP POP JUMP JUMPDEST PUSH1 0x0 PUSH2 0x1A8C DUP3 PUSH2 0x20AA JUMP JUMPDEST PUSH2 0x1A96 DUP2 DUP6 PUSH2 0x20C0 JUMP JUMPDEST SWAP4 POP PUSH2 0x1AA6 DUP2 DUP6 PUSH1 0x20 DUP7 ADD PUSH2 0x2211 JUMP JUMPDEST PUSH2 0x1AAF DUP2 PUSH2 0x242F JUMP JUMPDEST DUP5 ADD SWAP2 POP POP SWAP3 SWAP2 POP POP JUMP JUMPDEST PUSH1 0x0 PUSH2 0x1AC5 DUP3 PUSH2 0x20AA JUMP JUMPDEST PUSH2 0x1ACF DUP2 DUP6 PUSH2 0x20D1 JUMP JUMPDEST SWAP4 POP PUSH2 0x1ADF DUP2 DUP6 PUSH1 0x20 DUP7 ADD PUSH2 0x2211 JUMP JUMPDEST PUSH2 0x1AE8 DUP2 PUSH2 0x242F JUMP JUMPDEST DUP5 ADD SWAP2 POP POP SWAP3 SWAP2 POP POP JUMP JUMPDEST PUSH1 0x0 PUSH2 0x1AFE DUP3 PUSH2 0x20AA JUMP JUMPDEST PUSH2 0x1B08 DUP2 DUP6 PUSH2 0x20E2 JUMP JUMPDEST SWAP4 POP PUSH2 0x1B18 DUP2 DUP6 PUSH1 0x20 DUP7 ADD PUSH2 0x2211 JUMP JUMPDEST DUP1 DUP5 ADD SWAP2 POP POP SWAP3 SWAP2 POP POP JUMP JUMPDEST PUSH1 0x0 DUP2 SLOAD PUSH2 0x1B31 DUP2 PUSH2 0x2244 JUMP JUMPDEST PUSH2 0x1B3B DUP2 DUP7 PUSH2 0x20E2 JUMP JUMPDEST SWAP5 POP PUSH1 0x1 DUP3 AND PUSH1 0x0 DUP2 EQ PUSH2 0x1B56 JUMPI PUSH1 0x1 DUP2 EQ PUSH2 0x1B67 JUMPI PUSH2 0x1B9A JUMP JUMPDEST PUSH1 0xFF NOT DUP4 AND DUP7 MSTORE DUP2 DUP7 ADD SWAP4 POP PUSH2 0x1B9A JUMP JUMPDEST PUSH2 0x1B70 DUP6 PUSH2 0x208A JUMP JUMPDEST PUSH1 0x0 JUMPDEST DUP4 DUP2 LT ISZERO PUSH2 0x1B92 JUMPI DUP2 SLOAD DUP2 DUP10 ADD MSTORE PUSH1 0x1 DUP3 ADD SWAP2 POP PUSH1 0x20 DUP2 ADD SWAP1 POP PUSH2 0x1B73 JUMP JUMPDEST DUP4 DUP9 ADD SWAP6 POP POP POP JUMPDEST POP POP POP SWAP3 SWAP2 POP POP JUMP JUMPDEST PUSH1 0x0 PUSH2 0x1BB0 PUSH1 0x26 DUP4 PUSH2 0x20D1 JUMP JUMPDEST SWAP2 POP PUSH2 0x1BBB DUP3 PUSH2 0x2440 JUMP JUMPDEST PUSH1 0x40 DUP3 ADD SWAP1 POP SWAP2 SWAP1 POP JUMP JUMPDEST PUSH1 0x0 PUSH2 0x1BD3 PUSH1 0x20 DUP4 PUSH2 0x20D1 JUMP JUMPDEST SWAP2 POP PUSH2 0x1BDE DUP3 PUSH2 0x248F JUMP JUMPDEST PUSH1 0x20 DUP3 ADD SWAP1 POP SWAP2 SWAP1 POP JUMP JUMPDEST PUSH1 0x0 PUSH2 0x1BF6 PUSH1 0x26 DUP4 PUSH2 0x20D1 JUMP JUMPDEST SWAP2 POP PUSH2 0x1C01 DUP3 PUSH2 0x24B8 JUMP JUMPDEST PUSH1 0x40 DUP3 ADD SWAP1 POP SWAP2 SWAP1 POP JUMP JUMPDEST PUSH1 0x0 PUSH2 0x1C19 PUSH1 0x20 DUP4 PUSH2 0x20D1 JUMP JUMPDEST SWAP2 POP PUSH2 0x1C24 DUP3 PUSH2 0x2507 JUMP JUMPDEST PUSH1 0x20 DUP3 ADD SWAP1 POP SWAP2 SWAP1 POP JUMP JUMPDEST PUSH1 0x0 PUSH2 0x1C3C PUSH1 0x2C DUP4 PUSH2 0x20D1 JUMP JUMPDEST SWAP2 POP PUSH2 0x1C47 DUP3 PUSH2 0x2530 JUMP JUMPDEST PUSH1 0x40 DUP3 ADD SWAP1 POP SWAP2 SWAP1 POP JUMP JUMPDEST PUSH1 0x0 PUSH2 0x1C5F PUSH1 0x1D DUP4 PUSH2 0x20D1 JUMP JUMPDEST SWAP2 POP PUSH2 0x1C6A DUP3 PUSH2 0x257F JUMP JUMPDEST PUSH1 0x20 DUP3 ADD SWAP1 POP SWAP2 SWAP1 POP JUMP JUMPDEST PUSH1 0x0 PUSH2 0x1C82 PUSH1 0x2A DUP4 PUSH2 0x20D1 JUMP JUMPDEST SWAP2 POP PUSH2 0x1C8D DUP3 PUSH2 0x25A8 JUMP JUMPDEST PUSH1 0x40 DUP3 ADD SWAP1 POP SWAP2 SWAP1 POP JUMP JUMPDEST PUSH1 0x0 PUSH2 0x1CA5 PUSH1 0x32 DUP4 PUSH2 0x20D1 JUMP JUMPDEST SWAP2 POP PUSH2 0x1CB0 DUP3 PUSH2 0x25F7 JUMP JUMPDEST PUSH1 0x40 DUP3 ADD SWAP1 POP SWAP2 SWAP1 POP JUMP JUMPDEST PUSH1 0x0 PUSH2 0x100 DUP4 ADD PUSH1 0x0 DUP4 ADD MLOAD DUP5 DUP3 SUB PUSH1 0x0 DUP7 ADD MSTORE PUSH2 0x1CD9 DUP3 DUP3 PUSH2 0x1A81 JUMP JUMPDEST SWAP2 POP POP PUSH1 0x20 DUP4 ADD MLOAD DUP5 DUP3 SUB PUSH1 0x20 DUP7 ADD MSTORE PUSH2 0x1CF3 DUP3 DUP3 PUSH2 0x1A81 JUMP JUMPDEST SWAP2 POP POP PUSH1 0x40 DUP4 ADD MLOAD PUSH2 0x1D08 PUSH1 0x40 DUP7 ADD DUP3 PUSH2 0x1A32 JUMP JUMPDEST POP PUSH1 0x60 DUP4 ADD MLOAD PUSH2 0x1D1B PUSH1 0x60 DUP7 ADD DUP3 PUSH2 0x1D72 JUMP JUMPDEST POP PUSH1 0x80 DUP4 ADD MLOAD PUSH2 0x1D2E PUSH1 0x80 DUP7 ADD DUP3 PUSH2 0x1D72 JUMP JUMPDEST POP PUSH1 0xA0 DUP4 ADD MLOAD PUSH2 0x1D41 PUSH1 0xA0 DUP7 ADD DUP3 PUSH2 0x1D72 JUMP JUMPDEST POP PUSH1 0xC0 DUP4 ADD MLOAD PUSH2 0x1D54 PUSH1 0xC0 DUP7 ADD DUP3 PUSH2 0x1D72 JUMP JUMPDEST POP PUSH1 0xE0 DUP4 ADD MLOAD PUSH2 0x1D67 PUSH1 0xE0 DUP7 ADD DUP3 PUSH2 0x1A32 JUMP JUMPDEST POP DUP1 SWAP2 POP POP SWAP3 SWAP2 POP POP JUMP JUMPDEST PUSH2 0x1D7B DUP2 PUSH2 0x21F8 JUMP JUMPDEST DUP3 MSTORE POP POP JUMP JUMPDEST PUSH2 0x1D8A DUP2 PUSH2 0x21F8 JUMP JUMPDEST DUP3 MSTORE POP POP JUMP JUMPDEST PUSH1 0x0 PUSH2 0x1D9C DUP3 DUP5 PUSH2 0x1A50 JUMP JUMPDEST SWAP2 POP DUP2 SWAP1 POP SWAP3 SWAP2 POP POP JUMP JUMPDEST PUSH1 0x0 PUSH2 0x1DB3 DUP3 DUP5 PUSH2 0x1AF3 JUMP JUMPDEST SWAP2 POP DUP2 SWAP1 POP SWAP3 SWAP2 POP POP JUMP JUMPDEST PUSH1 0x0 PUSH2 0x1DCA DUP3 DUP5 PUSH2 0x1B24 JUMP JUMPDEST SWAP2 POP DUP2 SWAP1 POP SWAP3 SWAP2 POP POP JUMP JUMPDEST PUSH1 0x0 PUSH1 0x20 DUP3 ADD SWAP1 POP PUSH2 0x1DEA PUSH1 0x0 DUP4 ADD DUP5 PUSH2 0x1A41 JUMP JUMPDEST SWAP3 SWAP2 POP POP JUMP JUMPDEST PUSH1 0x0 PUSH1 0x20 DUP3 ADD SWAP1 POP PUSH2 0x1E05 PUSH1 0x0 DUP4 ADD DUP5 PUSH2 0x1A23 JUMP JUMPDEST SWAP3 SWAP2 POP POP JUMP JUMPDEST PUSH1 0x0 PUSH1 0x40 DUP3 ADD SWAP1 POP PUSH2 0x1E20 PUSH1 0x0 DUP4 ADD DUP6 PUSH2 0x1A41 JUMP JUMPDEST PUSH2 0x1E2D PUSH1 0x20 DUP4 ADD DUP5 PUSH2 0x1A41 JUMP JUMPDEST SWAP4 SWAP3 POP POP POP JUMP JUMPDEST PUSH1 0x0 PUSH1 0x60 DUP3 ADD SWAP1 POP PUSH2 0x1E49 PUSH1 0x0 DUP4 ADD DUP7 PUSH2 0x1A41 JUMP JUMPDEST PUSH2 0x1E56 PUSH1 0x20 DUP4 ADD DUP6 PUSH2 0x1A41 JUMP JUMPDEST PUSH2 0x1E63 PUSH1 0x40 DUP4 ADD DUP5 PUSH2 0x1D81 JUMP JUMPDEST SWAP5 SWAP4 POP POP POP POP JUMP JUMPDEST PUSH1 0x0 PUSH1 0x20 DUP3 ADD SWAP1 POP DUP2 DUP2 SUB PUSH1 0x0 DUP4 ADD MSTORE PUSH2 0x1E85 DUP2 DUP5 PUSH2 0x1ABA JUMP JUMPDEST SWAP1 POP SWAP3 SWAP2 POP POP JUMP JUMPDEST PUSH1 0x0 PUSH1 0x60 DUP3 ADD SWAP1 POP DUP2 DUP2 SUB PUSH1 0x0 DUP4 ADD MSTORE PUSH2 0x1EA7 DUP2 DUP7 PUSH2 0x1ABA JUMP JUMPDEST SWAP1 POP PUSH2 0x1EB6 PUSH1 0x20 DUP4 ADD DUP6 PUSH2 0x1D81 JUMP JUMPDEST PUSH2 0x1EC3 PUSH1 0x40 DUP4 ADD DUP5 PUSH2 0x1A41 JUMP JUMPDEST SWAP5 SWAP4 POP POP POP POP JUMP JUMPDEST PUSH1 0x0 PUSH1 0x20 DUP3 ADD SWAP1 POP DUP2 DUP2 SUB PUSH1 0x0 DUP4 ADD MSTORE PUSH2 0x1EE4 DUP2 PUSH2 0x1BA3 JUMP JUMPDEST SWAP1 POP SWAP2 SWAP1 POP JUMP JUMPDEST PUSH1 0x0 PUSH1 0x20 DUP3 ADD SWAP1 POP DUP2 DUP2 SUB PUSH1 0x0 DUP4 ADD MSTORE PUSH2 0x1F04 DUP2 PUSH2 0x1BC6 JUMP JUMPDEST SWAP1 POP SWAP2 SWAP1 POP JUMP JUMPDEST PUSH1 0x0 PUSH1 0x20 DUP3 ADD SWAP1 POP DUP2 DUP2 SUB PUSH1 0x0 DUP4 ADD MSTORE PUSH2 0x1F24 DUP2 PUSH2 0x1BE9 JUMP JUMPDEST SWAP1 POP SWAP2 SWAP1 POP JUMP JUMPDEST PUSH1 0x0 PUSH1 0x20 DUP3 ADD SWAP1 POP DUP2 DUP2 SUB PUSH1 0x0 DUP4 ADD MSTORE PUSH2 0x1F44 DUP2 PUSH2 0x1C0C JUMP JUMPDEST SWAP1 POP SWAP2 SWAP1 POP JUMP JUMPDEST PUSH1 0x0 PUSH1 0x20 DUP3 ADD SWAP1 POP DUP2 DUP2 SUB PUSH1 0x0 DUP4 ADD MSTORE PUSH2 0x1F64 DUP2 PUSH2 0x1C2F JUMP JUMPDEST SWAP1 POP SWAP2 SWAP1 POP JUMP JUMPDEST PUSH1 0x0 PUSH1 0x20 DUP3 ADD SWAP1 POP DUP2 DUP2 SUB PUSH1 0x0 DUP4 ADD MSTORE PUSH2 0x1F84 DUP2 PUSH2 0x1C52 JUMP JUMPDEST SWAP1 POP SWAP2 SWAP1 POP JUMP JUMPDEST PUSH1 0x0 PUSH1 0x20 DUP3 ADD SWAP1 POP DUP2 DUP2 SUB PUSH1 0x0 DUP4 ADD MSTORE PUSH2 0x1FA4 DUP2 PUSH2 0x1C75 JUMP JUMPDEST SWAP1 POP SWAP2 SWAP1 POP JUMP JUMPDEST PUSH1 0x0 PUSH1 0x20 DUP3 ADD SWAP1 POP DUP2 DUP2 SUB PUSH1 0x0 DUP4 ADD MSTORE PUSH2 0x1FC4 DUP2 PUSH2 0x1C98 JUMP JUMPDEST SWAP1 POP SWAP2 SWAP1 POP JUMP JUMPDEST PUSH1 0x0 PUSH1 0x20 DUP3 ADD SWAP1 POP DUP2 DUP2 SUB PUSH1 0x0 DUP4 ADD MSTORE PUSH2 0x1FE5 DUP2 DUP5 PUSH2 0x1CBB JUMP JUMPDEST SWAP1 POP SWAP3 SWAP2 POP POP JUMP JUMPDEST PUSH1 0x0 PUSH1 0x20 DUP3 ADD SWAP1 POP PUSH2 0x2002 PUSH1 0x0 DUP4 ADD DUP5 PUSH2 0x1D81 JUMP JUMPDEST SWAP3 SWAP2 POP POP JUMP JUMPDEST PUSH1 0x0 PUSH2 0x2012 PUSH2 0x2023 JUMP JUMPDEST SWAP1 POP PUSH2 0x201E DUP3 DUP3 PUSH2 0x2276 JUMP JUMPDEST SWAP2 SWAP1 POP JUMP JUMPDEST PUSH1 0x0 PUSH1 0x40 MLOAD SWAP1 POP SWAP1 JUMP JUMPDEST PUSH1 0x0 PUSH8 0xFFFFFFFFFFFFFFFF DUP3 GT ISZERO PUSH2 0x2048 JUMPI PUSH2 0x2047 PUSH2 0x23DD JUMP JUMPDEST JUMPDEST PUSH1 0x20 DUP3 MUL SWAP1 POP PUSH1 0x20 DUP2 ADD SWAP1 POP SWAP2 SWAP1 POP JUMP JUMPDEST PUSH1 0x0 PUSH8 0xFFFFFFFFFFFFFFFF DUP3 GT ISZERO PUSH2 0x2074 JUMPI PUSH2 0x2073 PUSH2 0x23DD JUMP JUMPDEST JUMPDEST PUSH2 0x207D DUP3 PUSH2 0x242F JUMP JUMPDEST SWAP1 POP PUSH1 0x20 DUP2 ADD SWAP1 POP SWAP2 SWAP1 POP JUMP JUMPDEST PUSH1 0x0 DUP2 SWAP1 POP DUP2 PUSH1 0x0 MSTORE PUSH1 0x20 PUSH1 0x0 KECCAK256 SWAP1 POP SWAP2 SWAP1 POP JUMP JUMPDEST PUSH1 0x0 DUP2 MLOAD SWAP1 POP SWAP2 SWAP1 POP JUMP JUMPDEST PUSH1 0x0 DUP2 MLOAD SWAP1 POP SWAP2 SWAP1 POP JUMP JUMPDEST PUSH1 0x0 DUP2 SWAP1 POP SWAP3 SWAP2 POP POP JUMP JUMPDEST PUSH1 0x0 DUP3 DUP3 MSTORE PUSH1 0x20 DUP3 ADD SWAP1 POP SWAP3 SWAP2 POP POP JUMP JUMPDEST PUSH1 0x0 DUP3 DUP3 MSTORE PUSH1 0x20 DUP3 ADD SWAP1 POP SWAP3 SWAP2 POP POP JUMP JUMPDEST PUSH1 0x0 DUP2 SWAP1 POP SWAP3 SWAP2 POP POP JUMP JUMPDEST PUSH1 0x0 PUSH2 0x20F8 DUP3 PUSH2 0x21F8 JUMP JUMPDEST SWAP2 POP PUSH2 0x2103 DUP4 PUSH2 0x21F8 JUMP JUMPDEST SWAP3 POP DUP3 PUSH32 0xFFFFFFFFFFFFFFFFFFFFFFFFFFFFFFFFFFFFFFFFFFFFFFFFFFFFFFFFFFFFFFFF SUB DUP3 GT ISZERO PUSH2 0x2138 JUMPI PUSH2 0x2137 PUSH2 0x2321 JUMP JUMPDEST JUMPDEST DUP3 DUP3 ADD SWAP1 POP SWAP3 SWAP2 POP POP JUMP JUMPDEST PUSH1 0x0 PUSH2 0x214E DUP3 PUSH2 0x21F8 JUMP JUMPDEST SWAP2 POP PUSH2 0x2159 DUP4 PUSH2 0x21F8 JUMP JUMPDEST SWAP3 POP DUP3 PUSH2 0x2169 JUMPI PUSH2 0x2168 PUSH2 0x2350 JUMP JUMPDEST JUMPDEST DUP3 DUP3 DIV SWAP1 POP SWAP3 SWAP2 POP POP JUMP JUMPDEST PUSH1 0x0 PUSH2 0x217F DUP3 PUSH2 0x21F8 JUMP JUMPDEST SWAP2 POP PUSH2 0x218A DUP4 PUSH2 0x21F8 JUMP JUMPDEST SWAP3 POP DUP3 DUP3 LT ISZERO PUSH2 0x219D JUMPI PUSH2 0x219C PUSH2 0x2321 JUMP JUMPDEST JUMPDEST DUP3 DUP3 SUB SWAP1 POP SWAP3 SWAP2 POP POP JUMP JUMPDEST PUSH1 0x0 PUSH2 0x21B3 DUP3 PUSH2 0x21D8 JUMP JUMPDEST SWAP1 POP SWAP2 SWAP1 POP JUMP JUMPDEST PUSH1 0x0 PUSH2 0x21C5 DUP3 PUSH2 0x21D8 JUMP JUMPDEST SWAP1 POP SWAP2 SWAP1 POP JUMP JUMPDEST PUSH1 0x0 DUP2 ISZERO ISZERO SWAP1 POP SWAP2 SWAP1 POP JUMP JUMPDEST PUSH1 0x0 PUSH20 0xFFFFFFFFFFFFFFFFFFFFFFFFFFFFFFFFFFFFFFFF DUP3 AND SWAP1 POP SWAP2 SWAP1 POP JUMP JUMPDEST PUSH1 0x0 DUP2 SWAP1 POP SWAP2 SWAP1 POP JUMP JUMPDEST DUP3 DUP2 DUP4 CALLDATACOPY PUSH1 0x0 DUP4 DUP4 ADD MSTORE POP POP POP JUMP JUMPDEST PUSH1 0x0 JUMPDEST DUP4 DUP2 LT ISZERO PUSH2 0x222F JUMPI DUP1 DUP3 ADD MLOAD DUP2 DUP5 ADD MSTORE PUSH1 0x20 DUP2 ADD SWAP1 POP PUSH2 0x2214 JUMP JUMPDEST DUP4 DUP2 GT ISZERO PUSH2 0x223E JUMPI PUSH1 0x0 DUP5 DUP5 ADD MSTORE JUMPDEST POP POP POP POP JUMP JUMPDEST PUSH1 0x0 PUSH1 0x2 DUP3 DIV SWAP1 POP PUSH1 0x1 DUP3 AND DUP1 PUSH2 0x225C JUMPI PUSH1 0x7F DUP3 AND SWAP2 POP JUMPDEST PUSH1 0x20 DUP3 LT DUP2 EQ ISZERO PUSH2 0x2270 JUMPI PUSH2 0x226F PUSH2 0x237F JUMP JUMPDEST JUMPDEST POP SWAP2 SWAP1 POP JUMP JUMPDEST PUSH2 0x227F DUP3 PUSH2 0x242F JUMP JUMPDEST DUP2 ADD DUP2 DUP2 LT PUSH8 0xFFFFFFFFFFFFFFFF DUP3 GT OR ISZERO PUSH2 0x229E JUMPI PUSH2 0x229D PUSH2 0x23DD JUMP JUMPDEST JUMPDEST DUP1 PUSH1 0x40 MSTORE POP POP POP JUMP JUMPDEST PUSH1 0x0 PUSH2 0x22B2 DUP3 PUSH2 0x21F8 JUMP JUMPDEST SWAP2 POP PUSH32 0xFFFFFFFFFFFFFFFFFFFFFFFFFFFFFFFFFFFFFFFFFFFFFFFFFFFFFFFFFFFFFFFF DUP3 EQ ISZERO PUSH2 0x22E5 JUMPI PUSH2 0x22E4 PUSH2 0x2321 JUMP JUMPDEST JUMPDEST PUSH1 0x1 DUP3 ADD SWAP1 POP SWAP2 SWAP1 POP JUMP JUMPDEST PUSH1 0x0 PUSH2 0x22FB DUP3 PUSH2 0x21F8 JUMP JUMPDEST SWAP2 POP PUSH2 0x2306 DUP4 PUSH2 0x21F8 JUMP JUMPDEST SWAP3 POP DUP3 PUSH2 0x2316 JUMPI PUSH2 0x2315 PUSH2 0x2350 JUMP JUMPDEST JUMPDEST DUP3 DUP3 MOD SWAP1 POP SWAP3 SWAP2 POP POP JUMP JUMPDEST PUSH32 0x4E487B7100000000000000000000000000000000000000000000000000000000 PUSH1 0x0 MSTORE PUSH1 0x11 PUSH1 0x4 MSTORE PUSH1 0x24 PUSH1 0x0 REVERT JUMPDEST PUSH32 0x4E487B7100000000000000000000000000000000000000000000000000000000 PUSH1 0x0 MSTORE PUSH1 0x12 PUSH1 0x4 MSTORE PUSH1 0x24 PUSH1 0x0 REVERT JUMPDEST PUSH32 0x4E487B7100000000000000000000000000000000000000000000000000000000 PUSH1 0x0 MSTORE PUSH1 0x22 PUSH1 0x4 MSTORE PUSH1 0x24 PUSH1 0x0 REVERT JUMPDEST PUSH32 0x4E487B7100000000000000000000000000000000000000000000000000000000 PUSH1 0x0 MSTORE PUSH1 0x32 PUSH1 0x4 MSTORE PUSH1 0x24 PUSH1 0x0 REVERT JUMPDEST PUSH32 0x4E487B7100000000000000000000000000000000000000000000000000000000 PUSH1 0x0 MSTORE PUSH1 0x41 PUSH1 0x4 MSTORE PUSH1 0x24 PUSH1 0x0 REVERT JUMPDEST PUSH1 0x0 DUP1 REVERT JUMPDEST PUSH1 0x0 DUP1 REVERT JUMPDEST PUSH1 0x0 DUP1 REVERT JUMPDEST PUSH1 0x0 DUP1 REVERT JUMPDEST PUSH1 0x0 DUP1 REVERT JUMPDEST PUSH1 0x0 DUP1 REVERT JUMPDEST PUSH1 0x0 DUP1 REVERT JUMPDEST PUSH1 0x0 PUSH1 0x1F NOT PUSH1 0x1F DUP4 ADD AND SWAP1 POP SWAP2 SWAP1 POP JUMP JUMPDEST PUSH32 0x4F776E61626C653A206E6577206F776E657220697320746865207A65726F2061 PUSH1 0x0 DUP3 ADD MSTORE PUSH32 0x6464726573730000000000000000000000000000000000000000000000000000 PUSH1 0x20 DUP3 ADD MSTORE POP JUMP JUMPDEST PUSH32 0x6D616B655061796D656E743A20496E76616C696420746F6B656E20696E646578 PUSH1 0x0 DUP3 ADD MSTORE POP JUMP JUMPDEST PUSH32 0x416464726573733A20696E73756666696369656E742062616C616E636520666F PUSH1 0x0 DUP3 ADD MSTORE PUSH32 0x722063616C6C0000000000000000000000000000000000000000000000000000 PUSH1 0x20 DUP3 ADD MSTORE POP JUMP JUMPDEST PUSH32 0x4F776E61626C653A2063616C6C6572206973206E6F7420746865206F776E6572 PUSH1 0x0 DUP3 ADD MSTORE POP JUMP JUMPDEST PUSH32 0x676574546F6B656E496E6465783A204E6F74206120737570706F727465642070 PUSH1 0x0 DUP3 ADD MSTORE PUSH32 0x61796D656E7420746F6B656E0000000000000000000000000000000000000000 PUSH1 0x20 DUP3 ADD MSTORE POP JUMP JUMPDEST PUSH32 0x416464726573733A2063616C6C20746F206E6F6E2D636F6E7472616374000000 PUSH1 0x0 DUP3 ADD MSTORE POP JUMP JUMPDEST PUSH32 0x5361666545524332303A204552433230206F7065726174696F6E20646964206E PUSH1 0x0 DUP3 ADD MSTORE PUSH32 0x6F74207375636365656400000000000000000000000000000000000000000000 PUSH1 0x20 DUP3 ADD MSTORE POP JUMP JUMPDEST PUSH32 0x6D616B655061796D656E743A20436F6E7472616374206E6F7420617070726F76 PUSH1 0x0 DUP3 ADD MSTORE PUSH32 0x656420746F206D616B65207061796D656E740000000000000000000000000000 PUSH1 0x20 DUP3 ADD MSTORE POP JUMP JUMPDEST PUSH2 0x264F DUP2 PUSH2 0x21A8 JUMP JUMPDEST DUP2 EQ PUSH2 0x265A JUMPI PUSH1 0x0 DUP1 REVERT JUMPDEST POP JUMP JUMPDEST PUSH2 0x2666 DUP2 PUSH2 0x21BA JUMP JUMPDEST DUP2 EQ PUSH2 0x2671 JUMPI PUSH1 0x0 DUP1 REVERT JUMPDEST POP JUMP JUMPDEST PUSH2 0x267D DUP2 PUSH2 0x21CC JUMP JUMPDEST DUP2 EQ PUSH2 0x2688 JUMPI PUSH1 0x0 DUP1 REVERT JUMPDEST POP JUMP JUMPDEST PUSH2 0x2694 DUP2 PUSH2 0x21F8 JUMP JUMPDEST DUP2 EQ PUSH2 0x269F JUMPI PUSH1 0x0 DUP1 REVERT JUMPDEST POP JUMP INVALID LOG2 PUSH5 0x6970667358 0x22 SLT KECCAK256 0xA6 CALLCODE DUP16 0xB0 PUSH7 0x92AD3C2F413183 PUSH20 0x475492A90046CF21052391B053A70814DEE33864 PUSH20 0x6F6C634300080700330000000000000000000000 "
				},
				"gasEstimates": {
					"creation": {
						"codeDepositCost": "1988800",
						"executionCost": "infinite",
						"totalCost": "infinite"
					},
					"external": {
						"addPaymentToken(address)": "infinite",
						"getTokenIndex(address)": "5146",
						"getTransactionDetails(address,string)": "infinite",
						"makePayment(string,uint256,uint256,uint256,(string,uint256,uint256)[])": "infinite",
						"owner()": "2544",
						"paymentTokensIndex(address)": "2902",
						"renounceOwnership()": "30374",
						"setWallet(address)": "28189",
						"supportedTokens(uint256)": "2883",
						"transferOwnership(address)": "30833",
						"wallet()": "2581"
					}
				},
				"methodIdentifiers": {
					"addPaymentToken(address)": "4a7dc8e0",
					"getTokenIndex(address)": "66c0bd24",
					"getTransactionDetails(address,string)": "169e90bc",
					"makePayment(string,uint256,uint256,uint256,(string,uint256,uint256)[])": "46828eb0",
					"owner()": "8da5cb5b",
					"paymentTokensIndex(address)": "eb0c52aa",
					"renounceOwnership()": "715018a6",
					"setWallet(address)": "deaa59df",
					"supportedTokens(uint256)": "c6255626",
					"transferOwnership(address)": "f2fde38b",
					"wallet()": "521eb273"
				}
			},
			"userdoc": {
				"kind": "user",
				"methods": {},
				"version": 1
			}
		}
	}
}