{
  "contractName": "FlutterCrowdsale",
  "abi": [
    {
      "inputs": [
        {
          "internalType": "uint256",
          "name": "rate",
          "type": "uint256"
        },
        {
          "internalType": "address payable",
          "name": "wallet",
          "type": "address"
        },
        {
          "internalType": "contract IERC20",
          "name": "token",
          "type": "address"
        }
      ],
      "payable": false,
      "stateMutability": "nonpayable",
      "type": "constructor"
    },
    {
      "anonymous": false,
      "inputs": [
        {
          "indexed": true,
          "internalType": "address",
          "name": "previousOwner",
          "type": "address"
        },
        {
          "indexed": true,
          "internalType": "address",
          "name": "newOwner",
          "type": "address"
        }
      ],
      "name": "OwnershipTransferred",
      "type": "event"
    },
    {
      "anonymous": false,
      "inputs": [
        {
          "indexed": true,
          "internalType": "address",
          "name": "purchaser",
          "type": "address"
        },
        {
          "indexed": true,
          "internalType": "address",
          "name": "beneficiary",
          "type": "address"
        },
        {
          "indexed": false,
          "internalType": "uint256",
          "name": "value",
          "type": "uint256"
        },
        {
          "indexed": false,
          "internalType": "uint256",
          "name": "amount",
          "type": "uint256"
        }
      ],
      "name": "TokensPurchased",
      "type": "event"
    },
    {
      "payable": true,
      "stateMutability": "payable",
      "type": "fallback"
    },
    {
      "constant": true,
      "inputs": [],
      "name": "isOwner",
      "outputs": [
        {
          "internalType": "bool",
          "name": "",
          "type": "bool"
        }
      ],
      "payable": false,
      "stateMutability": "view",
      "type": "function"
    },
    {
      "constant": true,
      "inputs": [],
      "name": "owner",
      "outputs": [
        {
          "internalType": "address",
          "name": "",
          "type": "address"
        }
      ],
      "payable": false,
      "stateMutability": "view",
      "type": "function"
    },
    {
      "constant": false,
      "inputs": [],
      "name": "renounceOwnership",
      "outputs": [],
      "payable": false,
      "stateMutability": "nonpayable",
      "type": "function"
    },
    {
      "constant": false,
      "inputs": [
        {
          "internalType": "address",
          "name": "newOwner",
          "type": "address"
        }
      ],
      "name": "transferOwnership",
      "outputs": [],
      "payable": false,
      "stateMutability": "nonpayable",
      "type": "function"
    },
    {
      "constant": true,
      "inputs": [],
      "name": "token",
      "outputs": [
        {
          "internalType": "contract IERC20",
          "name": "",
          "type": "address"
        }
      ],
      "payable": false,
      "stateMutability": "view",
      "type": "function"
    },
    {
      "constant": true,
      "inputs": [],
      "name": "wallet",
      "outputs": [
        {
          "internalType": "address payable",
          "name": "",
          "type": "address"
        }
      ],
      "payable": false,
      "stateMutability": "view",
      "type": "function"
    },
    {
      "constant": true,
      "inputs": [],
      "name": "rate",
      "outputs": [
        {
          "internalType": "uint256",
          "name": "",
          "type": "uint256"
        }
      ],
      "payable": false,
      "stateMutability": "view",
      "type": "function"
    },
    {
      "constant": true,
      "inputs": [],
      "name": "weiRaised",
      "outputs": [
        {
          "internalType": "uint256",
          "name": "",
          "type": "uint256"
        }
      ],
      "payable": false,
      "stateMutability": "view",
      "type": "function"
    },
    {
      "constant": false,
      "inputs": [
        {
          "internalType": "address",
          "name": "beneficiary",
          "type": "address"
        }
      ],
      "name": "buyTokens",
      "outputs": [],
      "payable": true,
      "stateMutability": "payable",
      "type": "function"
    }
  ],
  "bytecode": "0x608060405234801561001057600080fd5b5060405161131f38038061131f8339818101604052606081101561003357600080fd5b81019080805190602001909291908051906020019092919080519060200190929190505050600061006861033460201b60201c565b9050806000806101000a81548173ffffffffffffffffffffffffffffffffffffffff021916908373ffffffffffffffffffffffffffffffffffffffff1602179055508073ffffffffffffffffffffffffffffffffffffffff16600073ffffffffffffffffffffffffffffffffffffffff167f8be0079c531659141344cd1fd0a4f28419497f9722a3daafe3b4186f6b6457e060405160405180910390a3506001600060146101000a81548160ff02191690831515021790555060008311610197576040517f08c379a00000000000000000000000000000000000000000000000000000000081526004018080602001828103825260148152602001807f43726f776473616c653a2072617465206973203000000000000000000000000081525060200191505060405180910390fd5b600073ffffffffffffffffffffffffffffffffffffffff168273ffffffffffffffffffffffffffffffffffffffff16141561021d576040517f08c379a00000000000000000000000000000000000000000000000000000000081526004018080602001828103825260258152602001806112fa6025913960400191505060405180910390fd5b600073ffffffffffffffffffffffffffffffffffffffff168173ffffffffffffffffffffffffffffffffffffffff1614156102a3576040517f08c379a00000000000000000000000000000000000000000000000000000000081526004018080602001828103825260248152602001806112d66024913960400191505060405180910390fd5b8260038190555081600260006101000a81548173ffffffffffffffffffffffffffffffffffffffff021916908373ffffffffffffffffffffffffffffffffffffffff16021790555080600160006101000a81548173ffffffffffffffffffffffffffffffffffffffff021916908373ffffffffffffffffffffffffffffffffffffffff16021790555050505061033c565b600033905090565b610f8b8061034b6000396000f3fe6080604052600436106100865760003560e01c80638da5cb5b116100595780638da5cb5b1461015c5780638f32d59b146101b3578063ec8ac4d8146101e2578063f2fde38b14610226578063fc0c546a1461027757610086565b80632c4e722e146100985780634042b66f146100c3578063521eb273146100ee578063715018a614610145575b6100966100916102ce565b6102d6565b005b3480156100a457600080fd5b506100ad610463565b6040518082815260200191505060405180910390f35b3480156100cf57600080fd5b506100d861046d565b6040518082815260200191505060405180910390f35b3480156100fa57600080fd5b50610103610477565b604051808273ffffffffffffffffffffffffffffffffffffffff1673ffffffffffffffffffffffffffffffffffffffff16815260200191505060405180910390f35b34801561015157600080fd5b5061015a6104a1565b005b34801561016857600080fd5b506101716105da565b604051808273ffffffffffffffffffffffffffffffffffffffff1673ffffffffffffffffffffffffffffffffffffffff16815260200191505060405180910390f35b3480156101bf57600080fd5b506101c8610603565b604051808215151515815260200191505060405180910390f35b610224600480360360208110156101f857600080fd5b81019080803573ffffffffffffffffffffffffffffffffffffffff1690602001909291905050506102d6565b005b34801561023257600080fd5b506102756004803603602081101561024957600080fd5b81019080803573ffffffffffffffffffffffffffffffffffffffff169060200190929190505050610661565b005b34801561028357600080fd5b5061028c6106e7565b604051808273ffffffffffffffffffffffffffffffffffffffff1673ffffffffffffffffffffffffffffffffffffffff16815260200191505060405180910390f35b600033905090565b600060149054906101000a900460ff16610358576040517f08c379a000000000000000000000000000000000000000000000000000000000815260040180806020018281038252601f8152602001807f5265656e7472616e637947756172643a207265656e7472616e742063616c6c0081525060200191505060405180910390fd5b60008060146101000a81548160ff02191690831515021790555060003490506103818282610711565b600061038c82610812565b90506103a38260045461083090919063ffffffff16565b6004819055506103b383826108b8565b8273ffffffffffffffffffffffffffffffffffffffff166103d26102ce565b73ffffffffffffffffffffffffffffffffffffffff167f6faf93231a456e552dbc9961f58d9713ee4f2e69d15f1975b050ef0911053a7b8484604051808381526020018281526020019250505060405180910390a361043183836108c6565b6104396108ca565b6104438383610935565b50506001600060146101000a81548160ff02191690831515021790555050565b6000600354905090565b6000600454905090565b6000600260009054906101000a900473ffffffffffffffffffffffffffffffffffffffff16905090565b6104a9610603565b61051b576040517f08c379a00000000000000000000000000000000000000000000000000000000081526004018080602001828103825260208152602001807f4f776e61626c653a2063616c6c6572206973206e6f7420746865206f776e657281525060200191505060405180910390fd5b600073ffffffffffffffffffffffffffffffffffffffff166000809054906101000a900473ffffffffffffffffffffffffffffffffffffffff1673ffffffffffffffffffffffffffffffffffffffff167f8be0079c531659141344cd1fd0a4f28419497f9722a3daafe3b4186f6b6457e060405160405180910390a360008060006101000a81548173ffffffffffffffffffffffffffffffffffffffff021916908373ffffffffffffffffffffffffffffffffffffffff160217905550565b60008060009054906101000a900473ffffffffffffffffffffffffffffffffffffffff16905090565b60008060009054906101000a900473ffffffffffffffffffffffffffffffffffffffff1673ffffffffffffffffffffffffffffffffffffffff166106456102ce565b73ffffffffffffffffffffffffffffffffffffffff1614905090565b610669610603565b6106db576040517f08c379a00000000000000000000000000000000000000000000000000000000081526004018080602001828103825260208152602001807f4f776e61626c653a2063616c6c6572206973206e6f7420746865206f776e657281525060200191505060405180910390fd5b6106e481610939565b50565b6000600160009054906101000a900473ffffffffffffffffffffffffffffffffffffffff16905090565b600073ffffffffffffffffffffffffffffffffffffffff168273ffffffffffffffffffffffffffffffffffffffff161415610797576040517f08c379a000000000000000000000000000000000000000000000000000000000815260040180806020018281038252602a815260200180610f03602a913960400191505060405180910390fd5b600081141561080e576040517f08c379a00000000000000000000000000000000000000000000000000000000081526004018080602001828103825260198152602001807f43726f776473616c653a20776569416d6f756e7420697320300000000000000081525060200191505060405180910390fd5b5050565b600061082960035483610a7d90919063ffffffff16565b9050919050565b6000808284019050838110156108ae576040517f08c379a000000000000000000000000000000000000000000000000000000000815260040180806020018281038252601b8152602001807f536166654d6174683a206164646974696f6e206f766572666c6f77000000000081525060200191505060405180910390fd5b8091505092915050565b6108c28282610b03565b5050565b5050565b600260009054906101000a900473ffffffffffffffffffffffffffffffffffffffff1673ffffffffffffffffffffffffffffffffffffffff166108fc349081150290604051600060405180830381858888f19350505050158015610932573d6000803e3d6000fd5b50565b5050565b600073ffffffffffffffffffffffffffffffffffffffff168173ffffffffffffffffffffffffffffffffffffffff1614156109bf576040517f08c379a0000000000000000000000000000000000000000000000000000000008152600401808060200182810382526026815260200180610ebc6026913960400191505060405180910390fd5b8073ffffffffffffffffffffffffffffffffffffffff166000809054906101000a900473ffffffffffffffffffffffffffffffffffffffff1673ffffffffffffffffffffffffffffffffffffffff167f8be0079c531659141344cd1fd0a4f28419497f9722a3daafe3b4186f6b6457e060405160405180910390a3806000806101000a81548173ffffffffffffffffffffffffffffffffffffffff021916908373ffffffffffffffffffffffffffffffffffffffff16021790555050565b600080831415610a905760009050610afd565b6000828402905082848281610aa157fe5b0414610af8576040517f08c379a0000000000000000000000000000000000000000000000000000000008152600401808060200182810382526021815260200180610ee26021913960400191505060405180910390fd5b809150505b92915050565b610b508282600160009054906101000a900473ffffffffffffffffffffffffffffffffffffffff1673ffffffffffffffffffffffffffffffffffffffff16610b549092919063ffffffff16565b5050565b610c20838473ffffffffffffffffffffffffffffffffffffffff1663a9059cbb905060e01b8484604051602401808373ffffffffffffffffffffffffffffffffffffffff1673ffffffffffffffffffffffffffffffffffffffff16815260200182815260200192505050604051602081830303815290604052907bffffffffffffffffffffffffffffffffffffffffffffffffffffffff19166020820180517bffffffffffffffffffffffffffffffffffffffffffffffffffffffff8381831617835250505050610c25565b505050565b610c448273ffffffffffffffffffffffffffffffffffffffff16610e70565b610cb6576040517f08c379a000000000000000000000000000000000000000000000000000000000815260040180806020018281038252601f8152602001807f5361666545524332303a2063616c6c20746f206e6f6e2d636f6e74726163740081525060200191505060405180910390fd5b600060608373ffffffffffffffffffffffffffffffffffffffff16836040518082805190602001908083835b60208310610d055780518252602082019150602081019050602083039250610ce2565b6001836020036101000a0380198251168184511680821785525050505050509050019150506000604051808303816000865af19150503d8060008114610d67576040519150601f19603f3d011682016040523d82523d6000602084013e610d6c565b606091505b509150915081610de4576040517f08c379a00000000000000000000000000000000000000000000000000000000081526004018080602001828103825260208152602001807f5361666545524332303a206c6f772d6c6576656c2063616c6c206661696c656481525060200191505060405180910390fd5b600081511115610e6a57808060200190516020811015610e0357600080fd5b8101908080519060200190929190505050610e69576040517f08c379a000000000000000000000000000000000000000000000000000000000815260040180806020018281038252602a815260200180610f2d602a913960400191505060405180910390fd5b5b50505050565b60008060007fc5d2460186f7233c927e7db2dcc703c0e500b653ca82273b7bfad8045d85a47060001b9050833f9150808214158015610eb257506000801b8214155b9250505091905056fe4f776e61626c653a206e6577206f776e657220697320746865207a65726f2061646472657373536166654d6174683a206d756c7469706c69636174696f6e206f766572666c6f7743726f776473616c653a2062656e656669636961727920697320746865207a65726f20616464726573735361666545524332303a204552433230206f7065726174696f6e20646964206e6f742073756363656564a265627a7a723158208614c5f921c3fddfba62c1e5b2e3635f9c1d96bd5e09ac5bb71d534072923f3a64736f6c6343000511003243726f776473616c653a20746f6b656e20697320746865207a65726f206164647265737343726f776473616c653a2077616c6c657420697320746865207a65726f2061646472657373",
  "source": "pragma solidity ^0.5.0;\r\n\r\nimport \"./helpers/Context.sol\";\r\nimport \"./helpers/Ownable.sol\";\r\nimport \"./helpers/IERC20.sol\";\r\nimport \"./helpers/SafeMath.sol\";\r\nimport \"./helpers/SafeERC20.sol\";\r\nimport \"./helpers/ReentrancyGuard.sol\";\r\n\r\n/**\r\n * @title FlutterCrowdsale\r\n * @dev FlutterCrowdsale is a base contract for managing a token crowdsale,\r\n * allowing investors to purchase tokens with ether. This contract implements\r\n * such functionality in its most fundamental form and can be extended to provide additional\r\n * functionality and/or custom behavior.\r\n * The external interface represents the basic interface for purchasing tokens, and conforms\r\n * the base architecture for crowdsales. It is *not* intended to be modified / overridden.\r\n * The internal interface conforms the extensible and modifiable surface of crowdsales. Override\r\n * the methods to add functionality. Consider using 'super' where appropriate to concatenate\r\n * behavior.\r\n */\r\ncontract FlutterCrowdsale is Context, Ownable, ReentrancyGuard {\r\n    using SafeMath for uint256;\r\n    using SafeERC20 for IERC20;\r\n\r\n    // The token being sold\r\n    IERC20 private _token;\r\n\r\n    // Address where funds are collected\r\n    address payable private _wallet;\r\n\r\n    // How many token units a buyer gets per wei.\r\n    // The rate is the conversion between wei and the smallest and indivisible token unit.\r\n    // So, if you are using a rate of 1 with a ERC20Detailed token with 3 decimals called TOK\r\n    // 1 wei will give you 1 unit, or 0.001 TOK.\r\n    uint256 private _rate;\r\n\r\n    // Amount of wei raised\r\n    uint256 private _weiRaised;\r\n\r\n    /**\r\n     * Event for token purchase logging\r\n     * @param purchaser who paid for the tokens\r\n     * @param beneficiary who got the tokens\r\n     * @param value weis paid for purchase\r\n     * @param amount amount of tokens purchased\r\n     */\r\n    event TokensPurchased(address indexed purchaser, address indexed beneficiary, uint256 value, uint256 amount);\r\n\r\n    /**\r\n     * @param rate Number of token units a buyer gets per wei\r\n     * @dev The rate is the conversion between wei and the smallest and indivisible\r\n     * token unit. So, if you are using a rate of 1 with a ERC20Detailed token\r\n     * with 3 decimals called TOK, 1 wei will give you 1 unit, or 0.001 TOK.\r\n     * @param wallet Address where collected funds will be forwarded to\r\n     * @param token Address of the token being sold\r\n     */\r\n    constructor (uint256 rate, address payable wallet, IERC20 token) public {\r\n        require(rate > 0, \"Crowdsale: rate is 0\");\r\n        require(wallet != address(0), \"Crowdsale: wallet is the zero address\");\r\n        require(address(token) != address(0), \"Crowdsale: token is the zero address\");\r\n\r\n        _rate = rate;\r\n        _wallet = wallet;\r\n        _token = token;\r\n    }\r\n\r\n    /**\r\n     * @dev fallback function ***DO NOT OVERRIDE***\r\n     * Note that other contracts will transfer funds with a base gas stipend\r\n     * of 2300, which is not enough to call buyTokens. Consider calling\r\n     * buyTokens directly when purchasing tokens from a contract.\r\n     */\r\n    function () external payable {\r\n        buyTokens(_msgSender());\r\n    }\r\n\r\n    /**\r\n     * @return the token being sold.\r\n     */\r\n    function token() public view returns (IERC20) {\r\n        return _token;\r\n    }\r\n\r\n    /**\r\n     * @return the address where funds are collected.\r\n     */\r\n    function wallet() public view returns (address payable) {\r\n        return _wallet;\r\n    }\r\n\r\n    /**\r\n     * @return the number of token units a buyer gets per wei.\r\n     */\r\n    function rate() public view returns (uint256) {\r\n        return _rate;\r\n    }\r\n\r\n    /**\r\n     * @return the amount of wei raised.\r\n     */\r\n    function weiRaised() public view returns (uint256) {\r\n        return _weiRaised;\r\n    }\r\n\r\n    /**\r\n     * @dev low level token purchase ***DO NOT OVERRIDE***\r\n     * This function has a non-reentrancy guard, so it shouldn't be called by\r\n     * another `nonReentrant` function.\r\n     * @param beneficiary Recipient of the token purchase\r\n     */\r\n    function buyTokens(address beneficiary) public nonReentrant payable {\r\n        uint256 weiAmount = msg.value;\r\n        _preValidatePurchase(beneficiary, weiAmount);\r\n\r\n        // calculate token amount to be created\r\n        uint256 tokens = _getTokenAmount(weiAmount);\r\n\r\n        // update state\r\n        _weiRaised = _weiRaised.add(weiAmount);\r\n\r\n        _processPurchase(beneficiary, tokens);\r\n        emit TokensPurchased(_msgSender(), beneficiary, weiAmount, tokens);\r\n\r\n        _updatePurchasingState(beneficiary, weiAmount);\r\n\r\n        _forwardFunds();\r\n        _postValidatePurchase(beneficiary, weiAmount);\r\n    }\r\n\r\n    /**\r\n     * @dev Validation of an incoming purchase. Use require statements to revert state when conditions are not met.\r\n     * Use `super` in contracts that inherit from Crowdsale to extend their validations.\r\n     * Example from CappedCrowdsale.sol's _preValidatePurchase method:\r\n     *     super._preValidatePurchase(beneficiary, weiAmount);\r\n     *     require(weiRaised().add(weiAmount) <= cap);\r\n     * @param beneficiary Address performing the token purchase\r\n     * @param weiAmount Value in wei involved in the purchase\r\n     */\r\n    function _preValidatePurchase(address beneficiary, uint256 weiAmount) internal view {\r\n        require(beneficiary != address(0), \"Crowdsale: beneficiary is the zero address\");\r\n        require(weiAmount != 0, \"Crowdsale: weiAmount is 0\");\r\n        this; // silence state mutability warning without generating bytecode - see https://github.com/ethereum/solidity/issues/2691\r\n    }\r\n\r\n    /**\r\n     * @dev Validation of an executed purchase. Observe state and use revert statements to undo rollback when valid\r\n     * conditions are not met.\r\n     * @param beneficiary Address performing the token purchase\r\n     * @param weiAmount Value in wei involved in the purchase\r\n     */\r\n    function _postValidatePurchase(address beneficiary, uint256 weiAmount) internal view {\r\n        // solhint-disable-previous-line no-empty-blocks\r\n    }\r\n\r\n    /**\r\n     * @dev Source of tokens. Override this method to modify the way in which the crowdsale ultimately gets and sends\r\n     * its tokens.\r\n     * @param beneficiary Address performing the token purchase\r\n     * @param tokenAmount Number of tokens to be emitted\r\n     */\r\n    function _deliverTokens(address beneficiary, uint256 tokenAmount) internal {\r\n        _token.safeTransfer(beneficiary, tokenAmount);\r\n    }\r\n\r\n    /**\r\n     * @dev Executed when a purchase has been validated and is ready to be executed. Doesn't necessarily emit/send\r\n     * tokens.\r\n     * @param beneficiary Address receiving the tokens\r\n     * @param tokenAmount Number of tokens to be purchased\r\n     */\r\n    function _processPurchase(address beneficiary, uint256 tokenAmount) internal {\r\n        _deliverTokens(beneficiary, tokenAmount);\r\n    }\r\n\r\n    /**\r\n     * @dev Override for extensions that require an internal state to check for validity (current user contributions,\r\n     * etc.)\r\n     * @param beneficiary Address receiving the tokens\r\n     * @param weiAmount Value in wei involved in the purchase\r\n     */\r\n    function _updatePurchasingState(address beneficiary, uint256 weiAmount) internal {\r\n        // solhint-disable-previous-line no-empty-blocks\r\n    }\r\n\r\n    /**\r\n     * @dev Override to extend the way in which ether is converted to tokens.\r\n     * @param weiAmount Value in wei to be converted into tokens\r\n     * @return Number of tokens that can be purchased with the specified _weiAmount\r\n     */\r\n    function _getTokenAmount(uint256 weiAmount) internal view returns (uint256) {\r\n        return weiAmount.mul(_rate);\r\n    }\r\n\r\n    /**\r\n     * @dev Determines how ETH is stored/forwarded on purchases.\r\n     */\r\n    function _forwardFunds() internal {\r\n        _wallet.transfer(msg.value);\r\n    }\r\n}\r\n",
  "sourcePath": "D:\\Projects\\Flutterswap\\flutter-crowdsale\\contracts\\FlutterCrowdsale.sol",
  "compiler": {
    "name": "solc",
    "version": "0.5.17+commit.d19bba13.Emscripten.clang"
  },
  "schemaVersion": "3.4.3",
  "updatedAt": "2022-01-08T17:57:05.182Z",
  "networkType": "ethereum",
  "devdoc": {
    "details": "FlutterCrowdsale is a base contract for managing a token crowdsale, allowing investors to purchase tokens with ether. This contract implements such functionality in its most fundamental form and can be extended to provide additional functionality and/or custom behavior. The external interface represents the basic interface for purchasing tokens, and conforms the base architecture for crowdsales. It is *not* intended to be modified / overridden. The internal interface conforms the extensible and modifiable surface of crowdsales. Override the methods to add functionality. Consider using 'super' where appropriate to concatenate behavior.",
    "methods": {
      "buyTokens(address)": {
        "details": "low level token purchase ***DO NOT OVERRIDE*** This function has a non-reentrancy guard, so it shouldn't be called by another `nonReentrant` function.",
        "params": {
          "beneficiary": "Recipient of the token purchase"
        }
      },
      "constructor": {
        "details": "The rate is the conversion between wei and the smallest and indivisible token unit. So, if you are using a rate of 1 with a ERC20Detailed token with 3 decimals called TOK, 1 wei will give you 1 unit, or 0.001 TOK.",
        "params": {
          "rate": "Number of token units a buyer gets per wei",
          "token": "Address of the token being sold",
          "wallet": "Address where collected funds will be forwarded to"
        }
      },
      "isOwner()": {
        "details": "Returns true if the caller is the current owner."
      },
      "owner()": {
        "details": "Returns the address of the current owner."
      },
      "rate()": {
        "return": "the number of token units a buyer gets per wei."
      },
      "renounceOwnership()": {
        "details": "Leaves the contract without owner. It will not be possible to call `onlyOwner` functions anymore. Can only be called by the current owner.      * NOTE: Renouncing ownership will leave the contract without an owner, thereby removing any functionality that is only available to the owner."
      },
      "token()": {
        "return": "the token being sold."
      },
      "transferOwnership(address)": {
        "details": "Transfers ownership of the contract to a new account (`newOwner`). Can only be called by the current owner."
      },
      "wallet()": {
        "return": "the address where funds are collected."
      },
      "weiRaised()": {
        "return": "the amount of wei raised."
      }
    },
    "title": "FlutterCrowdsale"
  },
  "userdoc": {
    "methods": {}
  }
}