{
  "contractName": "Payment",
  "abi": [
    {
      "inputs": [
        {
          "internalType": "address payable",
          "name": "wallet",
          "type": "address"
        }
      ],
      "stateMutability": "nonpayable",
      "type": "constructor"
    },
    {
      "anonymous": false,
      "inputs": [
        {
          "indexed": true,
          "internalType": "address",
          "name": "tokenAddress",
          "type": "address"
        },
        {
          "indexed": true,
          "internalType": "uint256",
          "name": "tokenIndex",
          "type": "uint256"
        }
      ],
      "name": "NewTokenAdded",
      "type": "event"
    },
    {
      "anonymous": false,
      "inputs": [
        {
          "indexed": true,
          "internalType": "address",
          "name": "walletAddress",
          "type": "address"
        }
      ],
      "name": "NewWalletSet",
      "type": "event"
    },
    {
      "anonymous": false,
      "inputs": [
        {
          "indexed": true,
          "internalType": "address",
          "name": "previousOwner",
          "type": "address"
        },
        {
          "indexed": true,
          "internalType": "address",
          "name": "newOwner",
          "type": "address"
        }
      ],
      "name": "OwnershipTransferred",
      "type": "event"
    },
    {
      "anonymous": false,
      "inputs": [
        {
          "indexed": true,
          "internalType": "bytes",
          "name": "orderID",
          "type": "bytes"
        },
        {
          "indexed": true,
          "internalType": "bytes",
          "name": "paymentID",
          "type": "bytes"
        },
        {
          "indexed": true,
          "internalType": "address",
          "name": "buyer",
          "type": "address"
        }
      ],
      "name": "TransactionMade",
      "type": "event"
    },
    {
      "inputs": [],
      "name": "owner",
      "outputs": [
        {
          "internalType": "address",
          "name": "",
          "type": "address"
        }
      ],
      "stateMutability": "view",
      "type": "function"
    },
    {
      "inputs": [
        {
          "internalType": "address",
          "name": "",
          "type": "address"
        }
      ],
      "name": "paymentTokensIndex",
      "outputs": [
        {
          "internalType": "uint256",
          "name": "",
          "type": "uint256"
        }
      ],
      "stateMutability": "view",
      "type": "function"
    },
    {
      "inputs": [],
      "name": "renounceOwnership",
      "outputs": [],
      "stateMutability": "nonpayable",
      "type": "function"
    },
    {
      "inputs": [
        {
          "internalType": "uint256",
          "name": "",
          "type": "uint256"
        }
      ],
      "name": "supportedTokens",
      "outputs": [
        {
          "internalType": "address",
          "name": "",
          "type": "address"
        }
      ],
      "stateMutability": "view",
      "type": "function"
    },
    {
      "inputs": [
        {
          "internalType": "address",
          "name": "newOwner",
          "type": "address"
        }
      ],
      "name": "transferOwnership",
      "outputs": [],
      "stateMutability": "nonpayable",
      "type": "function"
    },
    {
      "inputs": [
        {
          "internalType": "address payable",
          "name": "newWallet",
          "type": "address"
        }
      ],
      "name": "setWallet",
      "outputs": [],
      "stateMutability": "nonpayable",
      "type": "function"
    },
    {
      "inputs": [
        {
          "internalType": "address",
          "name": "newTokenAddress",
          "type": "address"
        }
      ],
      "name": "addPaymentToken",
      "outputs": [],
      "stateMutability": "nonpayable",
      "type": "function"
    },
    {
      "inputs": [
        {
          "internalType": "address",
          "name": "tokenAddress",
          "type": "address"
        }
      ],
      "name": "getTokenIndex",
      "outputs": [
        {
          "internalType": "uint256",
          "name": "",
          "type": "uint256"
        }
      ],
      "stateMutability": "view",
      "type": "function"
    },
    {
      "inputs": [
        {
          "internalType": "address",
          "name": "buyer",
          "type": "address"
        },
        {
          "internalType": "bytes",
          "name": "orderId",
          "type": "bytes"
        }
      ],
      "name": "getTransactionDetails",
      "outputs": [
        {
          "components": [
            {
              "internalType": "bytes",
              "name": "orderID",
              "type": "bytes"
            },
            {
              "internalType": "bytes",
              "name": "paymentID",
              "type": "bytes"
            },
            {
              "internalType": "address",
              "name": "tokenAddress",
              "type": "address"
            },
            {
              "internalType": "uint256",
              "name": "tokenIndex",
              "type": "uint256"
            },
            {
              "internalType": "uint256",
              "name": "totalPrice",
              "type": "uint256"
            },
            {
              "internalType": "uint256",
              "name": "totalQty",
              "type": "uint256"
            },
            {
              "internalType": "uint256",
              "name": "numOfProducts",
              "type": "uint256"
            }
          ],
          "internalType": "struct Payment.OrderDetail",
          "name": "",
          "type": "tuple"
        }
      ],
      "stateMutability": "view",
      "type": "function"
    }
  ],
  "bytecode": "0x608060405260016003553480156200001657600080fd5b50604051620014bb380380620014bb83398181016040528101906200003c9190620001e1565b6200005c62000050620000ab60201b60201c565b620000b360201b60201c565b6001808190555080600560006101000a81548173ffffffffffffffffffffffffffffffffffffffff021916908373ffffffffffffffffffffffffffffffffffffffff1602179055505062000213565b600033905090565b60008060009054906101000a900473ffffffffffffffffffffffffffffffffffffffff169050816000806101000a81548173ffffffffffffffffffffffffffffffffffffffff021916908373ffffffffffffffffffffffffffffffffffffffff1602179055508173ffffffffffffffffffffffffffffffffffffffff168173ffffffffffffffffffffffffffffffffffffffff167f8be0079c531659141344cd1fd0a4f28419497f9722a3daafe3b4186f6b6457e060405160405180910390a35050565b600080fd5b600073ffffffffffffffffffffffffffffffffffffffff82169050919050565b6000620001a9826200017c565b9050919050565b620001bb816200019c565b8114620001c757600080fd5b50565b600081519050620001db81620001b0565b92915050565b600060208284031215620001fa57620001f962000177565b5b60006200020a84828501620001ca565b91505092915050565b61129880620002236000396000f3fe608060405234801561001057600080fd5b50600436106100935760003560e01c8063c625562611610066578063c62556261461010c578063deaa59df1461013c578063e8bd0e2c14610158578063eb0c52aa14610188578063f2fde38b146101b857610093565b80634a7dc8e01461009857806366c0bd24146100b4578063715018a6146100e45780638da5cb5b146100ee575b600080fd5b6100b260048036038101906100ad9190610af8565b6101d4565b005b6100ce60048036038101906100c99190610af8565b610362565b6040516100db9190610b3e565b60405180910390f35b6100ec61042c565b005b6100f66104b4565b6040516101039190610b68565b60405180910390f35b61012660048036038101906101219190610baf565b6104dd565b6040516101339190610b68565b60405180910390f35b61015660048036038101906101519190610c1a565b610510565b005b610172600480360381019061016d9190610d8d565b610613565b60405161017f9190610f32565b60405180910390f35b6101a2600480360381019061019d9190610af8565b61082b565b6040516101af9190610b3e565b60405180910390f35b6101d260048036038101906101cd9190610af8565b610843565b005b6101dc61093b565b73ffffffffffffffffffffffffffffffffffffffff166101fa6104b4565b73ffffffffffffffffffffffffffffffffffffffff1614610250576040517f08c379a000000000000000000000000000000000000000000000000000000000815260040161024790610fb1565b60405180910390fd5b8060026000600354815260200190815260200160002060006101000a81548173ffffffffffffffffffffffffffffffffffffffff021916908373ffffffffffffffffffffffffffffffffffffffff160217905550600354600460008373ffffffffffffffffffffffffffffffffffffffff1673ffffffffffffffffffffffffffffffffffffffff16815260200190815260200160002081905550610300600160035461094390919063ffffffff16565b60038190555061031c600160035461095990919063ffffffff16565b8173ffffffffffffffffffffffffffffffffffffffff167fb5498d88d9ae1cb339dbe68df2a6fdc5e7e4d8045bbd0b39f0d5648399a753f260405160405180910390a350565b600080600460008473ffffffffffffffffffffffffffffffffffffffff1673ffffffffffffffffffffffffffffffffffffffff16815260200190815260200160002054146103e5576040517f08c379a00000000000000000000000000000000000000000000000000000000081526004016103dc90611043565b60405180910390fd5b600460008373ffffffffffffffffffffffffffffffffffffffff1673ffffffffffffffffffffffffffffffffffffffff168152602001908152602001600020549050919050565b61043461093b565b73ffffffffffffffffffffffffffffffffffffffff166104526104b4565b73ffffffffffffffffffffffffffffffffffffffff16146104a8576040517f08c379a000000000000000000000000000000000000000000000000000000000815260040161049f90610fb1565b60405180910390fd5b6104b2600061096f565b565b60008060009054906101000a900473ffffffffffffffffffffffffffffffffffffffff16905090565b60026020528060005260406000206000915054906101000a900473ffffffffffffffffffffffffffffffffffffffff1681565b61051861093b565b73ffffffffffffffffffffffffffffffffffffffff166105366104b4565b73ffffffffffffffffffffffffffffffffffffffff161461058c576040517f08c379a000000000000000000000000000000000000000000000000000000000815260040161058390610fb1565b60405180910390fd5b80600560006101000a81548173ffffffffffffffffffffffffffffffffffffffff021916908373ffffffffffffffffffffffffffffffffffffffff1602179055508073ffffffffffffffffffffffffffffffffffffffff167f65ac7c44ce1402d115f5033c9dde8b6d1e130550ecd89ac7659bc257d4f5b6d560405160405180910390a250565b61061b610a33565b600760008473ffffffffffffffffffffffffffffffffffffffff1673ffffffffffffffffffffffffffffffffffffffff16815260200190815260200160002082604051610668919061109f565b90815260200160405180910390206040518060e0016040529081600082018054610691906110e5565b80601f01602080910402602001604051908101604052809291908181526020018280546106bd906110e5565b801561070a5780601f106106df5761010080835404028352916020019161070a565b820191906000526020600020905b8154815290600101906020018083116106ed57829003601f168201915b50505050508152602001600182018054610723906110e5565b80601f016020809104026020016040519081016040528092919081815260200182805461074f906110e5565b801561079c5780601f106107715761010080835404028352916020019161079c565b820191906000526020600020905b81548152906001019060200180831161077f57829003601f168201915b505050505081526020016002820160009054906101000a900473ffffffffffffffffffffffffffffffffffffffff1673ffffffffffffffffffffffffffffffffffffffff1673ffffffffffffffffffffffffffffffffffffffff168152602001600382015481526020016004820154815260200160058201548152602001600682015481525050905092915050565b60046020528060005260406000206000915090505481565b61084b61093b565b73ffffffffffffffffffffffffffffffffffffffff166108696104b4565b73ffffffffffffffffffffffffffffffffffffffff16146108bf576040517f08c379a00000000000000000000000000000000000000000000000000000000081526004016108b690610fb1565b60405180910390fd5b600073ffffffffffffffffffffffffffffffffffffffff168173ffffffffffffffffffffffffffffffffffffffff16141561092f576040517f08c379a000000000000000000000000000000000000000000000000000000000815260040161092690611189565b60405180910390fd5b6109388161096f565b50565b600033905090565b6000818361095191906111d8565b905092915050565b60008183610967919061122e565b905092915050565b60008060009054906101000a900473ffffffffffffffffffffffffffffffffffffffff169050816000806101000a81548173ffffffffffffffffffffffffffffffffffffffff021916908373ffffffffffffffffffffffffffffffffffffffff1602179055508173ffffffffffffffffffffffffffffffffffffffff168173ffffffffffffffffffffffffffffffffffffffff167f8be0079c531659141344cd1fd0a4f28419497f9722a3daafe3b4186f6b6457e060405160405180910390a35050565b6040518060e001604052806060815260200160608152602001600073ffffffffffffffffffffffffffffffffffffffff168152602001600081526020016000815260200160008152602001600081525090565b6000604051905090565b600080fd5b600080fd5b600073ffffffffffffffffffffffffffffffffffffffff82169050919050565b6000610ac582610a9a565b9050919050565b610ad581610aba565b8114610ae057600080fd5b50565b600081359050610af281610acc565b92915050565b600060208284031215610b0e57610b0d610a90565b5b6000610b1c84828501610ae3565b91505092915050565b6000819050919050565b610b3881610b25565b82525050565b6000602082019050610b536000830184610b2f565b92915050565b610b6281610aba565b82525050565b6000602082019050610b7d6000830184610b59565b92915050565b610b8c81610b25565b8114610b9757600080fd5b50565b600081359050610ba981610b83565b92915050565b600060208284031215610bc557610bc4610a90565b5b6000610bd384828501610b9a565b91505092915050565b6000610be782610a9a565b9050919050565b610bf781610bdc565b8114610c0257600080fd5b50565b600081359050610c1481610bee565b92915050565b600060208284031215610c3057610c2f610a90565b5b6000610c3e84828501610c05565b91505092915050565b600080fd5b600080fd5b6000601f19601f8301169050919050565b7f4e487b7100000000000000000000000000000000000000000000000000000000600052604160045260246000fd5b610c9a82610c51565b810181811067ffffffffffffffff82111715610cb957610cb8610c62565b5b80604052505050565b6000610ccc610a86565b9050610cd88282610c91565b919050565b600067ffffffffffffffff821115610cf857610cf7610c62565b5b610d0182610c51565b9050602081019050919050565b82818337600083830152505050565b6000610d30610d2b84610cdd565b610cc2565b905082815260208101848484011115610d4c57610d4b610c4c565b5b610d57848285610d0e565b509392505050565b600082601f830112610d7457610d73610c47565b5b8135610d84848260208601610d1d565b91505092915050565b60008060408385031215610da457610da3610a90565b5b6000610db285828601610ae3565b925050602083013567ffffffffffffffff811115610dd357610dd2610a95565b5b610ddf85828601610d5f565b9150509250929050565b600081519050919050565b600082825260208201905092915050565b60005b83811015610e23578082015181840152602081019050610e08565b83811115610e32576000848401525b50505050565b6000610e4382610de9565b610e4d8185610df4565b9350610e5d818560208601610e05565b610e6681610c51565b840191505092915050565b610e7a81610aba565b82525050565b610e8981610b25565b82525050565b600060e0830160008301518482036000860152610eac8282610e38565b91505060208301518482036020860152610ec68282610e38565b9150506040830151610edb6040860182610e71565b506060830151610eee6060860182610e80565b506080830151610f016080860182610e80565b5060a0830151610f1460a0860182610e80565b5060c0830151610f2760c0860182610e80565b508091505092915050565b60006020820190508181036000830152610f4c8184610e8f565b905092915050565b600082825260208201905092915050565b7f4f776e61626c653a2063616c6c6572206973206e6f7420746865206f776e6572600082015250565b6000610f9b602083610f54565b9150610fa682610f65565b602082019050919050565b60006020820190508181036000830152610fca81610f8e565b9050919050565b7f676574546f6b656e496e6465783a204e6f74206120737570706f72746564207060008201527f61796d656e7420746f6b656e0000000000000000000000000000000000000000602082015250565b600061102d602c83610f54565b915061103882610fd1565b604082019050919050565b6000602082019050818103600083015261105c81611020565b9050919050565b600081905092915050565b600061107982610de9565b6110838185611063565b9350611093818560208601610e05565b80840191505092915050565b60006110ab828461106e565b915081905092915050565b7f4e487b7100000000000000000000000000000000000000000000000000000000600052602260045260246000fd5b600060028204905060018216806110fd57607f821691505b60208210811415611111576111106110b6565b5b50919050565b7f4f776e61626c653a206e6577206f776e657220697320746865207a65726f206160008201527f6464726573730000000000000000000000000000000000000000000000000000602082015250565b6000611173602683610f54565b915061117e82611117565b604082019050919050565b600060208201905081810360008301526111a281611166565b9050919050565b7f4e487b7100000000000000000000000000000000000000000000000000000000600052601160045260246000fd5b60006111e382610b25565b91506111ee83610b25565b9250827fffffffffffffffffffffffffffffffffffffffffffffffffffffffffffffffff03821115611223576112226111a9565b5b828201905092915050565b600061123982610b25565b915061124483610b25565b925082821015611257576112566111a9565b5b82820390509291505056fea26469706673582212206a3c08226c4aaedaf6f60e87022783b15f5951577302f5941b50502fd1a8fbfe64736f6c634300080b0033",
  "immutableReferences": {},
  "source": "// SPDX-License-Identifier: MIT\r\n\r\npragma solidity ^0.8.0;\r\n\r\nimport \"./helpers/Context.sol\";\r\nimport \"./helpers/Ownable.sol\";\r\nimport \"./helpers/IERC20.sol\";\r\nimport \"./helpers/SafeMath.sol\";\r\nimport \"./helpers/SafeERC20.sol\";\r\nimport \"./helpers/ReentrancyGuard.sol\";\r\n\r\n\r\ncontract Payment is Context, Ownable, ReentrancyGuard{\r\n    using SafeMath for uint256;\r\n    using SafeERC20 for IERC20;\r\n\r\n    mapping(uint256 => address) public supportedTokens;\r\n    uint256 tokenCount = 1;\r\n    mapping(address => uint256) public paymentTokensIndex;\r\n\r\n    address payable private _wallet;\r\n\r\n    struct Product{\r\n        string asin;\r\n        uint256 price;\r\n        uint256 quantity;\r\n    }\r\n\r\n    struct OrderDetail{\r\n        bytes orderID;\r\n        bytes paymentID;\r\n        address tokenAddress;\r\n        uint tokenIndex;\r\n        uint256 totalPrice;\r\n        uint256 totalQty;\r\n        uint256 numOfProducts;\r\n    }\r\n\r\n    mapping(bytes => Product[]) orderProducts;\r\n    mapping(address => mapping(bytes => OrderDetail)) transactions;\r\n    mapping(address => uint256) tokenAmounts;\r\n    uint[] myArr;\r\n    event TransactionMade(bytes indexed orderID, bytes indexed paymentID, address indexed buyer);\r\n    event NewTokenAdded(address indexed tokenAddress, uint256 indexed tokenIndex);\r\n    event NewWalletSet(address indexed walletAddress);\r\n\r\n\r\n    constructor(address payable wallet) {\r\n        _wallet = wallet;\r\n    }\r\n\r\n\r\n    function makePayment(\r\n        bytes memory orderId,\r\n        uint8 tokenIndex,\r\n        uint256 totalPrice,\r\n        uint256 totalQty,\r\n        Product[] memory products\r\n        ) private \r\n        {\r\n        require(supportedTokens[tokenIndex] != address(0), \"makePayment: Invalid token index\");\r\n        IERC20 paymentToken = IERC20(supportedTokens[tokenIndex]);\r\n        \r\n        // Check allowance and transfer token\r\n        uint256 allowance = paymentToken.allowance(_msgSender(), address(this));\r\n        require(allowance >= totalPrice, \"makePayment: Contract not approved to make payment\");\r\n        \r\n        paymentToken.safeTransferFrom(_msgSender(), _wallet, totalPrice);\r\n        \r\n        // Record the transaction details\r\n        OrderDetail storage detail = transactions[_msgSender()][orderId];\r\n        detail.orderID = orderId;\r\n        detail.paymentID = bytes(\"Random ID\");\r\n        detail.tokenAddress = supportedTokens[tokenIndex];\r\n        detail.tokenIndex = tokenIndex;\r\n        detail.totalPrice = totalPrice;\r\n        detail.totalQty = totalQty;\r\n        orderProducts[orderId] = products;\r\n        // for(uint i = 0; i < products.length; i++){\r\n        //     orderProducts[orderId][i] = products[i]; \r\n        // }\r\n\r\n        emit TransactionMade(orderId, detail.paymentID, _msgSender());\r\n\r\n    }\r\n\r\n\r\n    // Setter functions\r\n    function setWallet(address payable newWallet) public onlyOwner{\r\n        _wallet = newWallet;\r\n        emit NewWalletSet(newWallet);\r\n    }\r\n    function addPaymentToken(address newTokenAddress) public onlyOwner{\r\n        supportedTokens[tokenCount] = newTokenAddress;\r\n        paymentTokensIndex[newTokenAddress] = tokenCount;\r\n        tokenCount = tokenCount.add(1);\r\n\r\n        emit NewTokenAdded(newTokenAddress, tokenCount.sub(1));\r\n    }\r\n\r\n    \r\n    // Getter functions\r\n    function getTokenIndex(address tokenAddress) public view returns(uint256){\r\n        require(paymentTokensIndex[tokenAddress] == 0, \"getTokenIndex: Not a supported payment token\");\r\n        return paymentTokensIndex[tokenAddress];\r\n    }\r\n\r\n    function getTransactionDetails(address buyer, bytes memory orderId) public view returns(OrderDetail memory){\r\n        return transactions[buyer][orderId];\r\n    }\r\n\r\n\r\n}",
  "sourcePath": "D:\\Projects\\Mastermind\\Ecom-Hub\\PaymentContract\\contracts\\Payment.sol",
  "compiler": {
    "name": "solc",
    "version": "0.8.11+commit.d7f03943.Emscripten.clang"
  },
  "schemaVersion": "3.4.3",
  "updatedAt": "2022-01-17T12:07:31.227Z",
  "devdoc": {
    "kind": "dev",
    "methods": {
      "owner()": {
        "details": "Returns the address of the current owner."
      },
      "renounceOwnership()": {
        "details": "Leaves the contract without owner. It will not be possible to call `onlyOwner` functions anymore. Can only be called by the current owner. NOTE: Renouncing ownership will leave the contract without an owner, thereby removing any functionality that is only available to the owner."
      },
      "transferOwnership(address)": {
        "details": "Transfers ownership of the contract to a new account (`newOwner`). Can only be called by the current owner."
      }
    },
    "version": 1
  },
  "userdoc": {
    "kind": "user",
    "methods": {},
    "version": 1
  }
}